:020000040000FA
:100000000C9499170C94C1170C94C1170C94C11738
:100010000C94C1170C94C1170C94C1170C94C11700
:100020000C94C1170C94C1170C94BC230C94392464
:100030000C94C1170C94C1170C94C1170C94C117E0
:100040000C94C1170C94C1170C94C1170C94C117D0
:100050000C94C1170C94C1170C94C1170C946B2607
:100060000C94C1170C94C1170C94C1170C94C117B0
:100070000C94C1170C94C1170C94C1170C94C117A0
:100080000C94C1170C94C1170C94C1170C94C11790
:100090000C94C1170C94C1170C94C1170C94C11780
:1000A0000C94C1170C94C1170C94C1177BDEF7BDDB
:1000B000EF79CE739CEF79DA73A4EF79CE739CEF6E
:1000C00079CE739CEF79CA7394EF79CE739CEF79F4
:1000D000CE739CEF79CA7394EF79CE739CEF79E07D
:1000E00073C0EF79CE739CEF79CE739CEF7BDEF714
:1000F000BDEF7BDEF7BDEF7C0E739CEF79CE729483
:10010000EF79DA7294EF79CE7294EF79CE739CEF37
:100110007C0E739CEF7BDE5295EF7BDE5295EF7B7E
:10012000DE5295EF7C0E739CEF79CE939CEF7C0EA4
:10013000739CEF7BDEF7BDEF7BDEF7BDEF794E738F
:100140009CAF79DEF2BCEF79DF029CEF79DF02BC75
:10015000EF79DE73BCAF79DE76BCAF79DE739CAF2E
:1001600079CE74BCAF79DE73BCEF795F07BCE779F9
:10017000DF07C0A5794E739CA57BDEF7BDEF7BDE64
:10018000F7BDEF79CE739CEF79CED3A4EF79CE7320
:100190009CEF795EF7D9EF79DE73D8EF795E73D88B
:1001A000EF79DE73D8EF795EF7D9EF79CE739CEFF4
:1001B00079CE739CEF79DEF7BCEF7C1EF7BE0F7B28
:1001C000DEF7BDEF294AF7BCA5294AF7BCA529CB24
:1001D0005AD4E77D9EF7BEEF7D9EF7BEEF7D9EF77A
:1001E000BEEF29E94A1DA57BDEF7BEEF7BDEF7BE39
:1001F000EF7BDEF7BEEF81DEF7C0E549E94A1CE59B
:1002000081DEF7C0E57BDEF7BDEF7C0F03C0EF7941
:10021000CE739CEF7BDEF7BDEF7BCA5794AF7BEECE
:100220005294AF7BEE5B94AF7BEE5BB6EF49CE7A38
:10023000528F7BEEFB3ECF796E5B16C5794E5394A1
:10024000E5794E5394E5794A5294A57BDEF7BDEFEC
:10025000294AF79CE72BCB53DDE7294AF29DF63973
:10026000CEF294A539CF46D4F439CEF294A5294ADA
:10027000F29DF72BCB53D9E7294AF39CE77BDEFBB2
:10028000BDEF39CE739CE73C0E739E073C0E749E07
:100290000739CE739CE77BDEF7BDEF7C0E739E0FB4
:1002A00079DA739D2F7C0E739E0F7BDF77BDEF7B1A
:1002B000DF77BDEF7BDF77BDEF7BDF77BDEF794A7F
:1002C0007294AF795E77BCAF795E47BCAF795E77E9
:1002D000BCAF794A7294AF7BDEF7BDEF39CEF79CA5
:1002E000E73B4E529D2739CEF79CE77BEEF7BEEFFA
:1002F00039CEF394A5294AF395E5294B5395E52981
:100300004AF395E539CEF394A57BEEF7BEEF294E7F
:10031000779CE7294A579C87294A5A9CE7294A57DC
:100320009CE77BDEF7BDEF79E94A528C791EF7BE78
:10033000C779DE93D4E77D9EF7BCE77D8E7294E7A4
:100340007D9E77BCE779DE77C0E779DE579CE77959
:10035000DE579DA779E87A1CE77DDE57C0E77D4E22
:100360005AD6CF7BDEF7BDEF295E779CE7295E7713
:100370009DA7294E701D27294E779CE77BDE07BC81
:100380000F295E77BCEF294A77BCEF294A77BECFA9
:100390007BDE07BECF39CE73BECF394A5382CF3909
:1003A0004A53BECF394A53BECF39CE73BECF91DE4A
:1003B000779CE791DE701D2791DE779CE77BDE77E7
:1003C000BDEF7DCE53D1EF79DE779DEF794E03956A
:1003D000EF79DE779DEF79CE73D9EF7BDE07BDEF46
:1003E00091DE779CE791DE701DA791DE779CE79107
:1003F000DEF79CE77BDEF7BDEF79CE7294EF79C430
:100400007294EF79CE7294EF7BE4F7BCEF79CE77FC
:10041000BCEF81E077BDAF81D277BCEF79CE77BCFE
:10042000EF7BE4F7BCEF79CE7294EF79CE7294EF64
:1004300079CE7294EF7BDEF7BDEF7BDEF79CE77938
:100440004A5295F279441295E5794A5295E5785EDB
:10045000F7BDF239DE5114A769DE5294A749DE5088
:1004600094A739DE529CE7785E193DF27D8A529559
:10047000E57D9E1795E57D8A5295F27D8A5294A777
:100480004BCE7294E70BCE7294E70BC4F294E7392B
:10049000CEF7BC2F39EEF294A539EE7294A539EB64
:1004A0005A88A208427294A57BC2F294A57BC4F735
:1004B000BDEF294F239CE7294F23B4E2294F239C0A
:1004C000E77BDEF7BDEF7BDEF7BDEF3D2820D0E711
:1004D0002BDEF7BCA52BE073BE412BCED39CE52BC6
:1004E000CE939CE52BE073BE412BDEF7BCA5394EC5
:1004F0005294E72BECF7BCEF2BEC2A14E52BDEF73C
:10050000BCEF39E82A14E523DEF7BDEF7BDEF79672
:100510004539CE779445295E079645295E0796456D
:10052000295E07964539DE7394A50BDEF3BE4F397D
:10053000DF03BCAF69DE93BCAF39DF039CE779DE34
:10054000F7BDE779C25294277DDE5295F611E45249
:10055000964711E87294A539DE5294A5BBDEF7BC2C
:10056000A539DE43BCA5296AD39C3239DE23BCA55C
:10057000B3DEF7BCA539DE5294A521EA72BE52B3B0
:10058000DEF7BCA5094A53D0E7294A52BCA503DED1
:10059000F7BE5239D2711CE77BDEFAD6B7794A5BD7
:1005A00014B7794AFB14B7794AF794B779C07380C6
:1005B000F47D9F77BECF79CF47BCEF79CEF79CEF24
:1005C000794AF794AF794AF794AF794AF794AF79BB
:1005D0004A7394AF79CE739CEF7BDED4BDEF294A8A
:1005E00052BDEF294A52BE10795EF03CED791EF300
:1005F0009CE9795E739CE7795E77BDEF79CE77BD34
:10060000EF79CE77BDEF7BCE77BDEF294A5294A527
:10061000294A5296A5294A5AD8A5294A5294A52969
:100620004A5294A581CE73842139D223842181DA60
:1006300073842139CE738421BBDF27BECF114B22B7
:1006400096CF394A5296CF0BDEF296CF294AF296D0
:10065000CF114B5116CF948AF296CF948AF7BECF22
:10066000114B229CEF294B22BDEF39CEF39DE73B86
:100670004F939F2539CEF39DE77BDEF39DE581CE39
:10068000739DE781D2739DE581CE739DE77BDE7319
:100690009DE539DEF3BDE729CE7C9CE539DEF3BD6F
:1006A000EF29DE739DEF39CE739DEF81E0781DEF6A
:1006B00081CE739CE781C6769D2781CE739CE781AE
:1006C000CE739CE77BDF97BDEF7BCE73BDEF7BCE18
:1006D00073BDEF7BCE73BDEF7BCE73BDEF7BDF874A
:1006E000BDEF81CE7394A581CE73972581C6739497
:1006F000A581CE7394A57BDEF79DA978CA539CE7AC
:10070000795EF7DDE5795EF7DDE5794A539DE57BB6
:10071000DEFC3DF8294AF3BCE7294AF3BCEF28CBBD
:1007200053E0EF288A53BCEF7DDEFC3CEF294A53AF
:10073000BCEF288A53C8EF295EF7BDEF7BDEF7BE1A
:10074000107BDEF7BE1081F87E70E981F1DEF4E700
:1007500081F077BDEF7BF0F79DEF79CE73E8EF7B0B
:10076000DEF79CEF794A7E9CEF794A73BDEF795AA8
:1007700052BE10794A52BE107BDEF7BE107BDEF708
:10078000BE107BDEF7BDEF3F3853F38F6EFA73EF89
:10079000AF7BDE529CEF79DE5BBCEF7A5E52BCEF42
:1007A00079DE53BCEF79DE5DBCEF79DEF7BCEF7923
:1007B000CA5294EF79CA5394EF79DEFB3CEF79CAC1
:1007C0005B14EF7BDEF7BDEF3944539CE7394657A6
:1007D000BDE7394A57BDE793DE739E873BDEFB3D9D
:1007E000E74BCAFB3CA73BCEF13CAF6BCEFB3CAF2B
:1007F00039CF5B50AF3E38F7BCEF7E30F7BEEF7EAF
:1008000030F7BCEF794E709CAF7BDEF7BDEF7BDE3F
:10081000FD673C39CE73D2982BCAF2BED82D6B5AE5
:10082000D6D82BCAF2BED82BCAF2BED869CE73A4D2
:10083000E72BCAF2BEF82BCAF2BEF82D6B5AD6F8D7
:100840002BCAF2BEF82BCAF2BEF839CE73D2987B0F
:10085000DEFDE73D3BDEF294A53E338294A53BCE20
:10086000F294A54BCF4294A57BCEF7D9EF39CE7247
:1008700094A739CE739CE739E0F7BE0739DEF7BDA0
:10088000E739DEF7BDE73B4E5294A539DE5294A519
:1008900039DE5B94B73F4F4A0E9439CEF7BDEF3C3B
:1008A0000EF7BDEF39CEF294A77BDEF294A57BDE86
:1008B000F2960569CE7294A539CE5294A93BDE52C8
:1008C00095EF39CE7295EF29779CF5EF2C0EF01548
:1008D000EF294AF7BDEF7BDEF79CE77BDEF79E074B
:1008E0007BCE73BCE583CE7DE4E569CE73BCE58346
:1008F000CA52BCE57BCA52BCE52E8E73BCE52E0EF7
:1009000073BC657BDEF13DEF29C523C8A57E5EF98A
:100910001F2579CE739CEF785EF7BDEF81CE529D97
:100920002F81CE529CEF2DE873D6E52DDE33BEE548
:100930002DDEFC3EE72DE853D2962DDE73BED62D7C
:10094000DE73BED639F276E4E72DDE73BED72DDE38
:1009500073BED72D6A72D6D72D9F87BEC72D9E73C3
:10096000BEC53D9E73BEC54DA873D6C57BDEF7BD23
:10097000EF79CE779CEF79CC7A9CEF79CE779CEFAC
:10098000794A579CEF794A579CEF7BDEF7A4EF7BBF
:10099000DEF7B4EF794A579CEF794A579CEF79CE4E
:1009A000779CEF79CC7A1CEF79CE779CEF7BDEF7E2
:1009B000BDEF295EF7BDEF298A5295AF795EF7BD8D
:1009C000EF795EF7BDEF795EF794A5795EF794A5B0
:1009D000798E739C85795EF794A5795EF794E579B5
:1009E0005EF7BCEF7D6B5AD6AF794A57BCEF794AB8
:1009F00057BD2F7BDEF7BDEF39DF7A528F49DF77A6
:100A0000BECF69CE67BC4F39DF77BECF785F5AD68D
:100A1000CF39DEF7BCEF39DEF7BCEF39DE73BCEF60
:100A200039DEF7BCEF39DEF7BCEF39CE529CEF7BF5
:100A3000DE52BDEF294A52BDEF314A52BDEF33DEDF
:100A4000F7BDEFA94C5294273BDEF7BDE7384A5279
:100A500096A73BDEF7BDE7394A5294A73BDE52BD6D
:100A6000E73B5E52BD273BDE52BDE739E452C8E7A3
:100A70003BDE52BDE73BDEF7BDE73BDE52BDE7A5FF
:100A800028415294294A5794C5294A5794A5294A7E
:100A90005914A5294A591CE7294A579DA7294A579D
:100AA0009CE74BDEF7BEEF7BE107BCA523DEF7BC7E
:100AB000A5394E27BCA5294AF7BCA5298AF7BCA5AC
:100AC000294A5294A5294A5294A57BDEF7BDEF7BB3
:100AD000DE5295EF7BDE5850AF7BDE5298AF7BDE67
:100AE000F2BDEF7BCA5294AF7BCA5298AF4B4B52C8
:100AF00094AF3BCA5C94AF3BDEF295EF3BDEF295E0
:100B0000EF3BDEF3BDEF39CE73BDEF7BDEF7BDEF1C
:100B10007BDE7294A57BDE7294C579CE7294A57D3E
:100B20009E5295EF7D9E5395EF7D9E5295EF7D9F52
:100B300077BDEF29CA7394A52BDEF3BDED29CE5303
:100B400095E97BCAF794A5294A52BCE5294C529CE9
:100B5000E5294A52BCE5694A5794A5294A7398A5E4
:100B6000294A7794A52BDF2794A5C3DE5794A5C304
:100B7000DF27DDF7C3CA529DF7398A229DF7C3CA22
:100B8000529DF7C3DEF781F73852F79DF72964F3DA
:100B900094A5294A7D67A5294B9E94A57BDEF7BDC8
:100BA000EF7B4E5494EF7DAEF7BECFA9CE529CF4AE
:100BB000B3EEF7BEF6B3CE5294F6B3DEFBBDF6B19C
:100BC0004E5394F6B3EEF7BDEFB14E5394F7B3EE38
:100BD000FB3DF7B14E5B14F4B14E7A9CEF7BDEF730
:100BE000BDEF39CE7394A5BBDEF394A4BBCF439481
:100BF000A5BBC8F7BDEF2D4EF21D2F3BCAF39CEFEE
:100C00002D0F43B4EFBBCEF39CEFBBEEF7BECF3D51
:100C10000F4294E5BBEEF7BECF3BCEF294E73BCE5E
:100C2000F3BDE53D4F5394A57BDEF7BDEF39CE74A0
:100C30009CAF2BDEF93EEF2D6A529DAF2BEE57BED7
:100C4000EFB3EE5794E5B3EE57DC96B48E77DDF64E
:100C5000B3EEF7DDF6B3EE5294E7B3CAF7BECFB109
:100C60004E1294E7B14EF295E5214E1294A2825AAB
:100C70007394257BDEF914A57BDEF2864279CE796A
:100C8000164579CEF7BDEFD17457BDEF194A67BC51
:100C9000E72EF1D7BCE7DE7457BDEF7BDEF7BDEF83
:100CA0007BCB5295EF7BCD42D5EF7BCA4BD5EF7B0B
:100CB000DE5795EF39CE73F0FCB3DF779DE7B08F49
:100CC000779DF2B25A7C9DE5B0CF779DE5B3DF7793
:100CD0009CA5394E77DDE5B3CE779DE5B3CA579D28
:100CE000F2B3DEF79DE73BCE739DE73D0E739CA705
:100CF0003BDEF7C9E7384A539CA714A41084E22BC3
:100D0000CA52BCA70BCA52BDF2094E739CB2094E1F
:100D1000769CB2914E739CA193DE52BDE1395E5236
:100D2000BCA739E52948E7C5DE73BF16C09E93BF4F
:100D300003C5DE73BF1639F39CE4E72BDE52BDE535
:100D4000294E529CA5BBECF7DDE52BCF239E872BCC
:100D5000CEF295E7484EF79DE73BCA5795E7D9CACB
:100D6000579EA73BDE779DED3BDE739DE73BDE574D
:100D700095E72BDE2A1DE73D29479DE7B3DEF7D92E
:100D8000E7294A529CE739CB8394E73BDEF7BDE77E
:100D90003D0A228DE52BCA5295E73BCA5295E73BA7
:100DA000CA5295E793CA5115E14BCAD295E73BCA9F
:100DB000528DE73BCA5295E73BC65295E52BCA22B6
:100DC00096A73BDEF7BDE739CA7C14E77BDEF7BDAB
:100DD000EF79CE739CEF79CFBD9CEF79F59CE8EF6E
:100DE00079F452E8EF79F59CE8EF79CFBD9CEF817B
:100DF000CE739CF03F7BCEE8E73F305C74E33F70FE
:100E00005C70ED3F705C74E93F77DE74E739CE7358
:100E10009CE769CE739C043BDEF7BDE03BC447A46E
:100E2000E73BCA57BDE73C8E709E47BBDF67DDF6E8
:100E3000394B67DDE73BDF67DDE73D6B67DDE73BB0
:100E4000DF4A1C07BBDE77BDF639C25284E739DEC4
:100E500052BCE739C25284E728A87A14F0295E57B9
:100E600094E9295E5794F028A87A14E7BBDEF79D31
:100E7000F6385A73F2B67BCAF79DF6296EF295F6EC
:100E80002BEEF295F62BEEF395F63D0F539CF629DB
:100E90004AF295F62C0AF294A5294B5394A7B9CEA1
:100EA000221CF6BBDEF7BDF6BC0AD2A616B9CA7282
:100EB0009CF6B94A7295F67BCEFBBDF6B56B5395A1
:100EC000F6B1CEF295F6B1CB5294F691CA5295F6A0
:100ED000B3CEF7C9F6B14E1295F6B14EF294F621A3
:100EE0004F2289EF294A5294A72C8EFC61E729787A
:100EF0005295E72BCE77E1E7294BB294A70BDE772B
:100F0000BDEDAD6B5AD6A979DEF79DE729CA529C93
:100F1000A77BDE5785E77BDE5916477BDE5785E7E3
:100F2000288A5294A7294A5294A77BDE5295F781CA
:100F3000DE5295F749CE5294E781DE5295F67BDE7C
:100F40005295F67BDEF7BDF6AD6B5AD6B67D9EF7B1
:100F5000BECF294A5294A5C14A5D94A528CA52E43D
:100F6000A5294A5294657D9F67BECF79CE73B4EFB1
:100F700081CEF7BDEF4B4F5A9CAF81CEF794AF793E
:100F8000DEF794AF79E82A1CFC79DEF7BCF879E843
:100F900072E70779DF77BCF87C9F77BE5879C0206D
:100FA0001CF8785EF7BC3879CE7294F8794A52947E
:100FB000FD7BDEF7BDEF294A52BDEF294C52C8E751
:100FC000294A52C8E3294A52C8E77BDE56BDEF7B67
:100FD000DE52BDEF7BDEF7BDEF81CF8C630781CEA4
:100FE000F7BDE781CEF294A581D2F2BCA581CEF304
:100FF000144581CEF294A581CEF294A5294A5A9D3A
:10100000ED294A5C9F2739CE779DE5294A579DE512
:1010100093DEF79DF2394A529CA7B3DEF79DF7297C
:101020004A579DE739CA529DE513EEF79DE53BCE41
:101030005785E74BCA5A9E873BDEF79DE73D294A15
:101040001DE5394457C130394E579CE7394E579CFE
:10105000E7BBECF7BECF684E7A52CFC3ECF79CA546
:10106000C3CB5A9CA5C3CAF79CA5C3CF5BEF97C35C
:10107000E4FBEBB739CEF39CE7294F9394A5294EB7
:10108000F394A5194F4394A5295E5294A538DE52D6
:1010900094A5CBDEF2ECA5C1DEF294A5C9CE73BD5A
:1010A000E739DA739CE739CE77BDE73BDE5294B877
:1010B0003BCA52BCB83BCA5C14B83BDE5294B83948
:1010C000E94A528979CA52946F79CA5294AF294A2F
:1010D0005294A5294A5294A57BDE5295EF7BDE53AC
:1010E00015EF7BDE5295EF7BDE5295EF295FA3E78C
:1010F00087295E7C1FA7294FAEE4E7295E57BDE52F
:10110000295E57A4A5315E57B4A5295E57BDE57B7E
:10111000DE5294A529C777BDEFBBC54A52943BCA9E
:10112000779CE72D4E779CA53C8E77EB1C7BCE778A
:101130009FA779CE7D9DE77B4E73BDE77BDEF7BC35
:10114000A549CE77BCA57BCFA384E779F673BCA570
:1011500079DEF7BCA579CE739CE739E45284F06957
:10116000E45284E939DEF7BCF039DFC09CEF39F294
:1011700077BDEF39DE779465282E079DE72BCE7774
:101180009DE7154E7A70E713CE77BECF150E729499
:10119000AF7BCE7294AF78CE7294AF7BDEF7BDEFAB
:1011A000295E9794A5A9DE7794E529739C96C539A5
:1011B0005E7794A5B61E77BDF73E0E739CE73E1E84
:1011C000F7BDF63ECA5294E72BDEF7BDA72BCE52F1
:1011D00094E73D0E77BECF2BCFA39CE32BCE77BEFB
:1011E000EF39CE739CE739CE739CF63BDFBD6F764B
:1011F000A087BCEF963BDFBDEF1639CE17BF567BFD
:10120000DE1297B6825E57BCA5835E5315E781DE7A
:10121000F7BDE7785E52BDE739CE5295E7294A52CD
:1012200095E7295EF294E7794C52BDEF3E739C9F9F
:10123000033BDEF79DE53BDEF79DE7BBDEF79DE771
:101240003D4E579DE72BCA529D2D2BCA579DE73D1A
:101250000A579DE7BBDEF79DE73BDEF79DE72BDEF8
:10126000F79DE72BDEF79DE72BDEF79DE53E739CB0
:101270009F037BDEF7BDEF79EB53D287795EF3BD39
:10128000E7795EF3BC6779DEF3BDE779DFADEF8721
:1012900079CFDEEB677B4FDDEF6779DFBE77A7792C
:1012A000DEF3BDE7795EF3BDE5794A739CA57BDE8D
:1012B000739DEF7BDF04C1EF294A5A94A529445955
:1012C00014A5294A5794A5B85EF79CA739CE7A1C75
:1012D000E7B3DF77BF0F394A77A4EDBBDF67BF0FF6
:1012E00039EA729CE7294A52BDE1294A22BCA70B80
:1012F000DE52C8A5294B27BCA5294A7294A2294BC6
:10130000228CAF28CB2294AFC6B27EEF6739CE7362
:101310009CE77BCEF7BDEF7BCF5A95EF7BCAF79763
:10132000AF2B4E7294A97BCAF7974F7BCF5A95EF9C
:1013300039CF27BDEFE7707394A7294AF294B6100E
:10134000CAF28CB6841E7A96A2841E57BE527BDEE9
:10135000779CE739CE7C9CE9BBECF7BDE71BECF151
:1013600015F693ECF295E2BBECFDF1F639CE529412
:10137000A73BDF87DDF83D4E778EAD394A57D9EF71
:101380003BDEF794AF3C8A3294AF115E57BCA71B8B
:10139000F67C69E33BF3BC65F9CBFBDD65F2D9CEA6
:1013A000739CE739DEF7BDEF3EF47D60FA3F7BBC0E
:1013B000EFA53BDE77BDEF39CE739CE739DEFB4A04
:1013C00007294AFB1607288AFB160D2E0B51CA095E
:1013D00039C0709C65295E7794A5295E77CA521141
:1013E0005E7A04A5395E779CE703DE07BDF639C057
:1013F000D01CE7E1DE97BDF8C3DE078AA7C1EA7714
:10140000D8A510E87CE8A5295E779CA7295E77E837
:10141000B829CE7C9F05BD294A5294BBDEF3BDEFAF
:10142000BBDE52946FBBDE5194AFB94B9297054926
:101430004A57BCB7794657BCB7794B9297057BDEC4
:101440005194AF7BDE5294AF7BDEF3BDEF81CE7360
:1014500094A5834E73946581CE7394A539CE779C01
:10146000E738DA779D2739CE779CE7B6F5D7C0B055
:10147000B6B7B7EB9CB6B987EF9CB6B277EBBDB603
:101480003477E37DB6BBB7E2EFB63437E2EFB73877
:101490007DE2EFB6B78C76EFB5294A528F7BDEF747
:1014A000BDEF3BCE5295E93E4E32E7273BCE5295FB
:1014B000E73BEEF7BDE73BCE5AD6A73BECF7BDE7DF
:1014C0003BCE5295ED3BCA52EB273BCA52E3273E37
:1014D0004E5295E73BECFBBDE73BCA53BCE7394AAC
:1014E0003294EF394A52BDEF2D4E1288273BCEF28F
:1014F00095E73BCEF295E73D0F228A472BCAF7D9F5
:10150000E72BCAF294A7154E5294A92BCAF294ADB8
:101510002BCAF7DDE73D0F2288273BCEF295E73B4C
:10152000CEF295E73BCEF295E72D4E128A473E224A
:101530003E243E20322A24222A3E0C083E2E2A1A1D
:101540003E2A3A02023E3E2A3E2E2A3E8884848863
:1015500090A0A09088848281828498A0C0A0988462
:1015600082848890A0A0900000FE0101FE0000008F
:1015700000FF0000FF00000000FF0000FF00001857
:101580003C7F80807F3C18FE02AA82AA02E23624B9
:10159000342436E202F29E0F98FB0AFB98090B09ED
:1015A0000B99FB09F8980FFF111511111111111169
:1015B000111111111511FFFF10D050505050D010C3
:1015C000D0505050D010FFFF00EBA22AA2EBC1DC9C
:1015D00001EB223A8B88FFFF00FE435A5B42FE007C
:1015E000009FC8C8DF00FF0F98FA08F8980808089D
:1015F0000898F808FA980F7F415F7F615F61000EDD
:101600000E06060E0E000007070606070700060670
:101610000606000F0F00FFE7B39999B3E7FFFFB38A
:1016200099CDCD99B3FFFF99CDE7E7CD99FFFFCDD8
:10163000E7B3B3E7CDFFFFE7CD9999CDE7FFFFCD46
:1016400099B3B399CDFFFF99B3E7E7B399FFFFB320
:10165000E7CDCDE7B3FFFFE7C399BDE7C3FFFFC306
:1016600099BDE7C399FFFF99BDE7C399BDFFFFBDD2
:10167000E7C399BDE7FFFFC3E7BD99C3E7FFFF9944
:10168000C3E7BD99C3FFFFBD99C3E7BD99FFFFE75E
:10169000BD99C3E7BDFFFFFFFF07F70707FFFEFC8C
:1016A0000000FFFFFF00FF0000FFFFFF0000FFFF43
:1016B000FF0707F707FFFEFC0000FFFFFFC7D7D7B4
:1016C000C7077F7F7F707774707F3F1F00001F3FC9
:1016D0007F707774707F3F1F00007F7F7F7074770B
:1016E000707F3F1F00007F7F7F7175757170FCFEFA
:1016F000FF07F717073F3E3C0000FFFFFF0000FF1A
:10170000FFFFC7D7D7C7FFFE7C0000FCFEFF07170F
:101710001707BFBE3C0000FFFFFF0000FE00FFFFF9
:10172000FF0000FFFFFF000017F707FFFFFF07079D
:10173000071F1F1F101730707E3E1E00007F7F7F27
:1017400000007F7F7F017D05017F7F7F00001F3FBD
:101750007F707070707E3E1E00001F3F7F7070773C
:10176000707F3F1F00007F7F7F0000007F007F7F32
:101770007F00000000E030D8E8E86CE4D6BA7ABA1E
:101780009AC63CE0BABBB9A493A78C9BBBD380B7E5
:10179000BBD9603F000080C04060A0A0B0D0D8E8B6
:1017A000ECE4F4F61AE2FAFAFA36060371FDFDFBF0
:1017B000F6ECD810D0D0B0B0A0604040C04040405F
:1017C000C08000000000FF00FFFFFFFFFFFFFFFFE2
:1017D000FFFFFF1FE0FFFFFF0F00000000F8F1E335
:1017E000070F07030003030303C19D3C3C1E0EEEDD
:1017F000E0FD03FE00FC07F8FFFFFFFFFFFFFFFF18
:10180000FFFF7F80FFFFFFFFC080000000070F0F7A
:101810008080000000000000000F0F000000F0FFBB
:10182000FF03FC07405F706717B7B7D7D7DBDBBB99
:101830007DFDFCFBF7EFDFBF7FFFFFFEFCF8F0E074
:10184000C183070E0C8E87C3C0E0E0F0F878BFDFDD
:10185000613E0300415F5FDFEEA02F2F2FF707E30C
:10186000F0FBFBFBFDFDFEFE00FFFFFFFFFFFFFFA8
:10187000FFFFFFFFFFFFFFFFFFFF03BDD0CFB960FA
:10188000C0800000BF3F7FFAF6ED837FC0FF801F5E
:101890005F6FAFAFB7B777F1EEDFBF7FFFFFFFFF3F
:1018A000FFFFFFFFFFFFFF7FBFC17E0D1B37675BA1
:1018B000DCBD9DA3576737F2B99DA5B27B7939A6E8
:1018C000DE6F2E2127272B2C2F2F2F2F36151317A6
:1018D000171B1311352EEE96BAD9D9D3CE987000B6
:1018E00000000000F018ECF6BA3A7B7180379BCD0F
:1018F000E5F5F8FD3F60CF9FBFBF6F5F7F415F5F42
:101900007F41555D7F615F617F41555D7F415F5FD5
:101910007F7E7959797E7F59554D7F4175417F6131
:101920005F617F41555D7F415D637F000000000086
:101930003E5B4F5B3E3E6B4F6B3E1C3E7C3E1C183D
:101940003C7E3C181C577D571C1C5E7F5E1C00189B
:101950003C1800FFE7C3E7FF0018241800FFE7DB8F
:10196000E7FF30483A060E2629792926407F0505EB
:1019700007407F05253F5A3CE73C5A7F3E1C1C0828
:10198000081C1C3E7F14227F22145F5F005F5F06ED
:10199000097F017F006689956A606060606094A23B
:1019A000FFA29408047E040810207E201008082A54
:1019B0001C08081C2A08081E101010100C1E0C1EF3
:1019C0000C30383E3830060E3E0E06000000000097
:1019D00000005F00000007000700147F147F14243C
:1019E0002A7F2A12231308646236495620500008C1
:1019F000070300001C2241000041221C002A1C7F1A
:101A00001C2A08083E0808008070300008080808F2
:101A100008000060600020100804023E5149453E65
:101A200000427F400072494949462141494D3318DF
:101A300014127F1027454545393C4A494931412117
:101A40001109073649494936464949291E000014FB
:101A50000000004034000000081422411414141443
:101A600014004122140802015909063E415D594EF5
:101A70007C1211127C7F494949363E414141227F07
:101A80004141413E7F494949417F090909013E41A0
:101A90004151737F0808087F00417F410020404189
:101AA0003F017F081422417F404040407F021C02DA
:101AB0007F7F0408107F3E4141413E7F09090906AE
:101AC0003E4151215E7F0919294626494949320381
:101AD000017F01033F4040403F1F2040201F3F4007
:101AE00038403F63140814630304780403615949C0
:101AF0004D43007F41414102040810200041414113
:101B00007F040201020440404040400003070800F7
:101B100020545478407F284444383844444428387A
:101B20004444287F385454541800087E090218A4ED
:101B3000A49C787F0804047800447D400020404045
:101B40003D007F1028440000417F40007C04780461
:101B5000787C080404783844444438FC1824241859
:101B600018242418FC7C0804040848545454240401
:101B7000043F44243C4040207C1C2040201C3C402E
:101B800030403C44281028444C9090907C4464544D
:101B90004C44000836410000007700000041360840
:101BA0000002010204023C2623263C1EA1A1611270
:101BB0003A4040207A38545455592155557941219D
:101BC00054547841215554784020545579400C1E86
:101BD000527212395555555939545454593955542E
:101BE00054580000457C410002457D420001457C7F
:101BF00040F0292429F0F0282528F07C5455450090
:101C00002054547C547C0A097F4932494949323274
:101C100048484832324A4848303A4141217A3A42AB
:101C2000402078009DA0A07D39444444393D404087
:101C3000403D3C24FF2424487E4943662B2FFC2F43
:101C40002BFF0929F620C0887E09032054547941CE
:101C50000000447D413048484A32384040227A00F2
:101C60007A0A0A727D0D19317D2629292F28262905
:101C700029292630484D4020380808080808080857
:101C800008382F10C8ACBA2F102834FA00007B0097
:101C90000008142A142222142A1408950022009500
:101CA000AA005500AAAA55AA55AA000000FF0010D4
:101CB0001010FF00141414FF001010FF00FF10108C
:101CC000F010F0141414FC001414F700FF0000FFCF
:101CD00000FF1414F404FC141417101F10101F102C
:101CE0001F1414141F00101010F0000000001F102B
:101CF0001010101F10101010F010000000FF101036
:101D000010101010101010FF10000000FF14000041
:101D1000FF00FF00001F10170000FC04F41414174C
:101D200010171414F404F40000FF00F71414141432
:101D3000141414F700F7141414171410101F101FA4
:101D4000141414F4141010F010F000001F101F00F1
:101D500000001F14000000FC140000F010F0101030
:101D6000FF10FF141414FF141010101F00000000C7
:101D7000F010FFFFFFFFFFF0F0F0F0F0FFFFFF00BB
:101D800000000000FFFF0F0F0F0F0F3844443844CE
:101D90007C2A2A3E147E02020606027E027E02632E
:101DA000554941633844443C04407E201E200602CD
:101DB0007E020299A5E7A5991C2A492A1C4C7201AA
:101DC000724C304A4D4D303048784830BC625A46EB
:101DD0003D3E494949007E0101017E2A2A2A2A2ADC
:101DE00044445F444440514A444040444A514000C6
:101DF00000FF0103E080FF000008086B6B0836124B
:101E0000362436060F090F060000181800000010CF
:101E100010003040FF0101001F01011E00191D17B5
:101E200012003C3C3C3C0000000000080B00020299
:101E30000200000904000001020200000524001055
:101E400001052401010104240206052406000107FE
:101E500005810310004009040100020A0000000788
:101E60000502024000000705830240000004030948
:101E70000412010002EF02014041233680000101FB
:101E800002030141726475696E6F204C4C4300413E
:101E900042413131303600F0F89C8E8783878E9C2A
:101EA000F8F00000FEFF0303030303070EFCF80035
:101EB00000FEFF0303030303070EFCF80000FFFF0F
:101EC00000000000000000FFFF0000FEFF8383838E
:101ED0008383C7EE7C380000F8FC0E07030303077A
:101EE0000EFCF800003F7FE0C08080C0E07F3FFF35
:101EF000FF01010101010101FFFF0000FFFF0C0CC8
:101F00000C0C1C3E77E3C100007FFFC0C0C0C0C006
:101F1000E0703F1F00001F3F70E0C0C0C0E0703F96
:101F20001F00007FFFC1C1C1C1C1E3773E1C00009B
:101F30001F3F70E0C0C0C0E0703F1F000000000005
:101F400001FFFF010000008D14A1C881CFD9F1026B
:101F5000AF606000007C08040478003854545418C2
:101F60000004043F44243844444428007C0804040A
:101F7000080020545478400000447D4000000404D0
:101F80003F44243E415D594E7F0808087F00384495
:101F90004444380000417F4000007C04780478000D
:101FA00038545454180048545454242040413F019C
:101FB000003844444438007C080404780020545419
:101FC00078400004043F4424007F08040478002083
:101FD00054547840007C08040478458A15AA15AA50
:101FE000D56A342821321D0A0C0603020702234158
:101FF000A0418040814020804080402008C77DA2D1
:1020000055A251A8158844A251AA54A8518205FF8F
:1020100000004180800080E0F0F0F0F0E06060605F
:1020200068EDE4E3E0E06172E102E1321AAF1188A9
:10203000548A452A059245A241A055AA55AA55BFE2
:10204000E0000000003CFEFFFFFF1DEC3637F7F715
:10205000EE1FFF3FDF2E37F6EE1C037E55CAC5A2EA
:1020600051A854AA552A158A452251A254A055FEBA
:10207000C3BC66400038DF7FBFFFFFFE7D7D7DFD76
:10208000FE3F7FFFF06D1DBDFEFFE0833FC07FA2DE
:1020900055A2512804A251A854AA11A215A2C56A9A
:1020A0004563416B5E7871A64B8D979C3831230652
:1020B000464D4D6D727F6F1F370F1DCBE07F556A08
:1020C0004540C08AC56AB5DAEDCA3DCEF3FDFEF8DB
:1020D000877FFFFFFFFFC0BFBEBDDB57A7CFB78B1A
:1020E000FAF676A6CA76EA9C5FDFC0FEFEFFFFFF27
:1020F000FF0FB6B9FBF8F3F7FFF8F8FC06C3E1E110
:10210000E1C101FFFF000000FFFFFFFFFFFFFFFE37
:10211000FCF8FFFF00000101010000FFFF000000CC
:10212000FFFFFFCF8787CFFFFFFF1F3F60C080808B
:10213000808080FFFF000000FFFFFFFFFFFFFF7FA9
:102140003F1F000000000000000000000000000031
:10215000000000000000000000000000000000007F
:10216000000000000000000000000000000000006F
:10217000000000000000000000000000000000005F
:1021800000000000000000000000000080808000CF
:102190000000000000000000000080C040404040FF
:1021A000C0800E11242E3C79FEF8F0E0E0E0B03063
:1021B0007CFEFFF0E66F6F26301F0000000000007D
:1021C0000000010305090B090403010000000000E1
:1021D00000000000000000000000000000000000FF
:1021E00000000000000000000000000000000000EF
:1021F00000000000000000000000000000000000DF
:1022000000000000000000000000000000000000CE
:1022100000000000000000000000FEFFFFFEFCF8D0
:10222000F2E6CC1C78F8F0E0E0C0C08000000000CE
:102230000000FFFFFFFFFFFFFFFFFFFF7E3C99C392
:10224000E7C3993C7EFFFF7E3C187FFFFF7F3F1F67
:102250004F6733381E1F0F070703030100000000FC
:10226000000000000000000000000000000000006E
:10227000000000000000000000000000000000005E
:10228000000000000000000000000000000000004E
:10229000000000000000000000000000000000003E
:1022A000000000000000000000000000000000002E
:1022B00000000C9EFEFCF8FE3E0C0000000000003A
:1022C0000000008080808080E0F8FEFFBF8F838C5C
:1022D0003FFEF8C0808080808000030767F7773773
:1022E00017070707070707070700030F3FFFF767F1
:1022F00007030000000000000000000000000000D4
:1023000000000000000000000000000000000000CD
:1023100000000000000000000000000000000000BD
:1023200000000000000000000000000000000000AD
:10233000000000000000000000007F4175417F4167
:102340005F5F7F59554D7F415D417F7F7F7F417545
:10235000417F615F617F4175417F5D415D7F415F8D
:102360005F7F4175417F41554B7F415F5F7F4155A5
:102370005D7F7F7F7F415D417F417D417F6B7F0836
:102380001C0008221C0103070F070301080C0E0F95
:102390000E0C087F4175717F415F5F7F4175417F02
:1023A0007947797F7F7F7F7F7F41555D7F415D6387
:1023B0007F5D415D7F7D417D7F7F7F7F7F7F417539
:1023C000417F41554B7F415D417F415F417F7D4171
:1023D0007D7F7F59554D7F415D417F415F417F4109
:1023E0007D417F415D637F7F59554D7F4175417FC1
:1023F000615F617F41555D7F7F7F7F7F7F41555D5D
:102400007F4977497F5D415D7F7D417D7F7F7F7F14
:102410007F7F415D5D7F415F5F7F41555D7F41759E
:10242000417F4175497F7F4175497F41555D7F41BE
:1024300075417F415D637F7F7F7F7F7F59554D7FF2
:1024400041555D7F417D417F415D637F7F7F7F7F20
:10245000010006070804057F41757D7F41754B7FAC
:10246000415D417F4173417F7F7F7F7F4175717FF8
:10247000415D5D7F7F7D417D7F415D417F7F7F7FCE
:102480007F7D417D7F41754B7F4175417F417D411E
:102490007F59554D7F41757D7F41555D7F41754B1E
:1024A0007F5D415D7F417D417F435D4D7F7F7F63E8
:1024B0006377736555557763770F070D090510042A
:1024C00014151617000C020112060318191A1B1C0A
:1024D0001DFF8181F18F8181FF2A018001800180B0
:1024E000540014401A58022800022B42181842D4F3
:1024F00040183C001818003C180054540000545474
:10250000003F7F4A4642427E003F7F62524A467EFB
:10251000003F7F424262527E0000664200004266F7
:102520000000003C24243C0000C381000000008126
:10253000C3F1FFFFFFFFFFFF8F309FE14D4DE19F94
:10254000303EBFEF5D5DEDBF3E007E7E66667E7E07
:1025500000007ED14141C17E00DA7F616161617F0F
:10256000DA7EA9D9A9D9A9D97E007EDF7F7FFF7E37
:1025700000FFE7B39999B3E7FFFFE7CD9999CDE75E
:10258000FFFFE7C399BDE7C3FFFFC3E7BD99C3E7FB
:10259000FF8181818191818181FF00000010000015
:1025A000FFFC020101110101010101010111010200
:1025B000FC3F408080908080808080808090804040
:1025C0003F814224181824428138FFFF7F7FFFFF9C
:1025D00038399EE14D4DE19B343B94E14D48E19902
:1025E000362A90C5054881A8454184A00000808214
:1025F000403FFFFF7F7FFFFF383BFFFF7F7FFFFFF5
:102600003F7FFFFF7F7FFFFF7F0EFEFE7040C7C74B
:102610000706070401801020409E6EF7FAF9FBF6CA
:10262000F4F404F6FAFB797A372F1F1F1F0C03000E
:102630000101020206050101000101000000000085
:102640000000000000000000000080F01C667B7DA0
:102650003DBD9B463C00F80CF4F4F4ECD830E000AF
:10266000FE037DBEDFEFF7F7F7F00FECF4F4F7E6CB
:10267000D9FFFFFF3FC0FF000F18376F5FDFB7BB09
:10268000B9BABBBFBFBF8FB7BB9D9E6EF7FAF9004B
:1026900000E038CEF3FDFD3DC3FE8000F018E8E811
:1026A000E818F080000000000060BEC3ECF7EEDA2E
:1026B00036EE1EFEFDF9FDF6E7D7B3BDBCDDCDC39A
:1026C0003EE000BF9E5D4B27130904020202060D87
:1026D0000B0B0B0B0B0B0B0B0B09040300010EF088
:1026E000873FDF6FB3DDDEDEBE7DFB77B7CF3FFF19
:1026F000FFFFFFFFFFFEFEFCFCFCF8F8FCFEFFFF07
:10270000FFFFFFFFFFFFE719DE3F7F7E9DE1FBFA42
:10271000F6F4F406FAFAFBA0B098AD76F8FBFBF7F6
:10272000CF3F0F703D3E3F3F3C033F3F3F3F3F3F6A
:102730003F3F3F3F3F3F3F3F3F3F3F3F3F3F3F3FA9
:102740003F3F38073F02020206050505040505055F
:102750000400000000000000008080C0404060B025
:10276000D8E8D8D090105050D0D8E8E8E8E8E8E8A9
:10277000E8E868A8C8ECF6FA7A320E68E8D830E0E3
:102780008000000000000080E038CCE69B7DFDFE6C
:10279000FE8F0F040001010307C78F9F9E0E0501E6
:1027A0000101010101010003072773F9E0000000A6
:1027B00000033FFFFCE31EF00000003EC31C7FFF50
:1027C000FFFFFEF9E79F7FFEF8C0000000000063F6
:1027D000E7E77210F0C08000008080800000C0C079
:1027E00080F8180C0C000000019FFFFEE11FF08034
:1027F0000000030C71873FFFFFFFFFFEF1CF3FFF9B
:10280000FCF0E0E0E0C0C08080800303060F0F030F
:10281000030F3C1F00010180C0E0F8FCFEFFFFFF3A
:102820007F9F47F08F000000000000FC04F6EAEBF9
:10283000DD5D8DEDEDCBCA9A9A1A5A5ADADADADAF8
:10284000DAD6B4B4B4B4B4343434B494D48C286880
:10285000686858B060C0800000000000FE03FCFF04
:10286000FFFFFF0201010303E7E7CF0F1F0600018F
:10287000010101030301010C1E9EDFCF0F070703B7
:102880000380FFFFFFFE0EE03F00000000F80FF0A6
:10289000FFFFFFFF03000000000003070700000028
:1028A00000000000000000000000000F0F07000003
:1028B000000080FFFFFFFF0FE03F008080C0407FEF
:1028C00080BF7FFFFFFFF0E0C0C08000000000037A
:1028D000030C0C303030300C0C03030000000000FF
:1028E000008080C0FFFFFFFF0FE0BF8000F80CF604
:1028F000F3F576AEDFDFDF1FCFEEE503F7FB03FB7B
:10290000FBFBFC0CFCFCFE0EFEFEFE70805018F87B
:10291000FCFCFEFEFEFFFF1FC7731BB5EDDEBF1EF6
:102920006EF5FBF66C98B060C000070C090B191629
:102930001717171713080B09040605040D0B0B0BCB
:102940000C0B0B0B0C1B372F2F2F2F2E311F0101C0
:1029500001010101003F232D2D2E625C5DCEB6B634
:10296000BADD5E5E6C331E10190E080C07020407F8
:102970000408080807080808070810202120212358
:102980001C000000000000000000392524223A4607
:10299000456392928A45000000000000000000009C
:1029A0000000008080C040402020101088C84828C7
:1029B00018181818D8B8B898181818181818181817
:1029C00018181898B8B8B8D8181818182848C88807
:1029D000181030206040C08080000000000000001F
:1029E000000000000000E0E0707078686C646462D1
:1029F0006261616160606060606C6E6F6D6C6C6C78
:102A00006C6C6C6C6C6D6D6D6F6F6F6F6F6F6F6FEB
:102A10006F6F6F6F6D6D6D6C6C6C6C6C6C6C6C6DE6
:102A20006F6E6C6060606060616161636266646C5F
:102A300068787070E0E00000000000000000000016
:102A400000008080C0E0D050004840E0F0F0F8FC8A
:102A5000FCFCFCFCFCFC7C7CFCBCBCFCF8E808102E
:102A60003030204000800000000000000000000026
:102A700000000000000080C0E0F0F8FCFEFFFFFB5B
:102A8000F9180000000001030301018081016004C6
:102A90000C18F0C0800103F7FFEFE7FEFCF8F0131D
:102AA0003E260000008080A0C0000000000000E082
:102AB000FCFFFFFFFFFFFFFFFF3F0F0700000000CD
:102AC0000000000000004183070F00000101416782
:102AD000879FFFFFFFFFFFFFFFFFFFFFFFFFFFF6E7
:102AE000E0C33F0F0703030C2000FFFFFFFFFFFFC2
:102AF000FFFFFFFFFFDC800000000000008080007F
:102B000080010080C0E0F8FCFEFFFFFFFFFFFFFF39
:102B1000FFFFFFFFFFFFFFFFFFFFFFFFFFFF0600BD
:102B2000000000000001FFFFFFFFFFFFFFFFFFFFAE
:102B3000FFFFFFFFF8F0E0C4CF9F0F273F7FF4E4D3
:102B4000C7CFDFDFFFFFFFFFFFFFFFFFFFFFFFFF3D
:102B5000FFFFFFFFFFFFFFFFFFFFFFF8F0E0C08078
:102B600080C000073F7FFFFFFFFFFFFFFFFFFFFF6A
:102B7000FFFFFFFFFFFFFFFEFCF8391B0301010110
:102B8000010303030307070707070F1F3F3F3F3FEB
:102B90003F7FFFFFFFFFFFFFFFFF7F3F07000000BA
:102BA00000000003070F1F3F7FFFFFFFFFFFFFFF36
:102BB000FFFFFFFFFFFFFEFCF8E0E0C000000000A9
:102BC0000000000000000000000080F0FCFFFF7F1C
:102BD0003F1F0F070300000000000000000000007E
:102BE000000000000000010103070F0F0F1F1F1F4F
:102BF0003F3F3F3F3F3F3F39300000000000202073
:102C0000001010080C0E0703010100000000000076
:102C100000000000000000000000000000000000B4
:102C200000000000000000000000000000000000A4
:102C30000000001050F0F87878387873238FFFFE8A
:102C40007F3FC07C7CFCBCBCFCF8E8081030302026
:102C500040008000000000000000000000000000B4
:102C60000000000000000000000000000000000064
:102C7000000000000000000080E0F8FC1C0C0606CC
:102C8000020686CCD87070389CDCC6F9FCFE3E0685
:102C9000000000000000000040E0FCC780010104CB
:102CA000061FF9F0C0800103F7FFEFE7FEFCF8F024
:102CB000133E260000008082ACD8183860F0B010B7
:102CC000103020E080000000000000000000000044
:102CD0000000000000000E1FDF7F3361430302008D
:102CE00000003F7FF1CC9E3F7FFFFF0F03010000FC
:102CF00080800000000000401020C163390F0000F8
:102D000000FC074167879FFFFFFFFFFFFFFFFEFFFC
:102D1000FFDFFFFFF6E0C33F0F0703030C20011E98
:102D2000F381010303060C38F0C00000000000002E
:102D3000000000000000FE1F016080800000FCFE1B
:102D4000FFFF07F3FBFBF3F7F7F4F5F5F1F1F5A15E
:102D5000212923624A5ADACA62C3417098CCEEFE36
:102D6000FFFFFF7F7F7FFFFFFFFBFFEFFFFF7F3F47
:102D70001F4F239199919999B9193376E4E4CDD8ED
:102D800030033E0000303C0F07070707070707071F
:102D90000E3EFCF8F0C001030604080811181C0FD1
:102DA0001FBF00FFFFFFFFFFF7FFFFFFFF7F7FFF5A
:102DB000FFF8F060446FFFEFE7FFFF7464676FFF99
:102DC000FFFFFFFF7E7EFEFCFCFCF8F8F8F8F8FD44
:102DD0007CFEFEFFFFFFF080010103060CF9077D7A
:102DE000C1410010202060800000000000008080B1
:102DF000C0E0FFFF3F1F0000000000000000001EB9
:102E00003F63C64449FB1BC3E3F3F3F9F8FCFFFF40
:102E1000FFFFFFFDFEFCF8F0E1E76F0F070707C6B5
:102E20003F0703F00C0307070707070F1F3F3F3F4C
:102E30003D3EFFDF3F7FFFFFFFFEFC78388580FCD3
:102E40001F00008080E0E0FFF8060607070707077D
:102E50000703010000000000000000000000000067
:102E60000000030604070E0813070F1F3F7FFFDF54
:102E7000FF7F7FBFFFFFFFFFFFF8F0E080F04F8094
:102E80007CF8E3EC9020408000000000000000800F
:102E9000F0F4FFFF7F3C80C36733382E2B3B1011CB
:102EA0001D070303030100000000000000000000F4
:102EB0000000000000000000000000000000000012
:102EC0000000000000000000000000000000000101
:102ED0000002070F2F4FDFDF1FBFBF3FBFBFA7B1EC
:102EE000164863761F2F5A5479324458486C6E67DF
:102EF00033190D0400010000000000000000000074
:102F000000000000000000000000000000000000C1
:102F10000000000000007F7D417D7F4177417F41BF
:102F2000557F7F41557F417B77417F415D637F00C6
:102F30002D2711241FBECFEFDAE0DEBFCDBF11E099
:102F4000A0E0B1E0EAEEFAE602C005900D92AE34E0
:102F5000B107D9F726E0AEE4B1E001C01D92A63A70
:102F6000B207E1F717E1C9E9D7E104C02197FE01F3
:102F70000E945935C839D107C9F70E945E270C94C1
:102F800073350C94000090919906982329F0909144
:102F90009806982381E009F080E0089594B59F7D1C
:102FA00061110CC0589A94BD909180009F75811159
:102FB00007C02E9A2D9A9093800008955898F3CFC9
:102FC0008F3F11F42E98F6CF906210928B0080956F
:102FD00080938A00EFCFEDE3F2E030EB20E146E0B2
:102FE0005C983EBD4A95F1F72EBD20E8239507C0B9
:102FF000449140815C9A4EBD8111412D4193449191
:103000002A95B1F73395383B49F70DB40895FC0183
:1030100080913C02882311F13FB7F89482E08093BD
:10302000E9002091F200822F90E01816190614F49E
:1030300081E090E0882339F0289844E640933B02F1
:103040004091F1004083222339F02091F2002111B8
:1030500003C02BE62093E8003FBF08958FEF9FEF5A
:10306000089583E08093E9008091F200882319F0AD
:103070008AE38093E80008952FB7F89483E0809363
:10308000E9009091E800892F807295FF04C090912B
:10309000F20080E4891B2FBF0895209137028091B0
:1030A0009B06922F981B80919C06882331F0909369
:1030B0009D0610929C0680E0089530919A06931721
:1030C00040F49F5F931790F491E093BF889513BEEF
:1030D000089581E080939C0620939B06E6E9F6E044
:1030E0008081918101968083918381E00895809110
:1030F0002F0281110DC082E080932B0284E0809327
:103100002C0210922E0210922D0281E080932F0249
:103110008BE292E008950C943118089540915D017E
:1031200050915E0120915B0130915C014217530781
:10313000B4F49091E8009570E1F39091E80092FD6D
:1031400019C08093F10080915D0190915E0101961C
:103150008F739927892B19F48EEF8093E800809163
:103160005D0190915E01019690935E0180935D01F7
:1031700081E0089580E00895DF92EF92FF920F932F
:103180001F93CF93DF93D82E8A01EB017B01E40ECE
:10319000F51ECE15DF0559F0D7FE12C0FE01849151
:1031A0000E948E1821968111F4CF0FEF1FEFC801F6
:1031B000DF91CF911F910F91FF90EF90DF900895D5
:1031C0008881EECF0F931F93CF93DF931F92CDB7DC
:1031D000DEB782E0898342E450E06BE27EE180E882
:1031E0000E94BC180E947718DC0112960D911C9168
:1031F0000115110589F0D801ED91FC910280F38150
:10320000E02DBE016F5F7F4FC801099597FD04C097
:10321000F80100851185ECCF89810F90DF91CF9166
:103220001F910F910895615030F02091F100FC0141
:1032300020830196F8CF289884E680933B02089576
:10324000AF92BF92CF92DF92EF92FF920F931F93B4
:10325000CF93DF936C017B018B01040F151FEB01F2
:103260005E01AE18BF08C017D10759F06991D601A9
:10327000ED91FC910190F081E02DC6010995892B1B
:1032800079F7C501DF91CF911F910F91FF90EF90DA
:10329000DF90CF90BF90AF900895CF93DF931F92B0
:1032A000CDB7DEB76983DC01ED91FC910280F3813B
:1032B000E02D41E050E0BE016F5F7F4F09950F9018
:1032C000DF91CF9108950E943C1890E00895CF932C
:1032D000DF931F92CDB7DEB7FC018485958597FDFE
:1032E00008C02FEF3FEF358724870F90DF91CF91F4
:1032F0000895CE0101960E940718019719F489815B
:1033000090E0F3CF8FEF9FEFF0CF0F931F93CF930A
:10331000DF931F92CDB7DEB78C01FC0184859585C4
:1033200097FF0BC0CE0101960E940718019771F418
:10333000898190E0F80195878487F80184859585D7
:103340000F90DF91CF911F910F9108958FEF9FEF15
:10335000F1CFFC018485958597FD0BC09FB7F8944C
:1033600082E08093E9008091F2009FBF90E0019697
:1033700008959FB7F89482E08093E9008091F2006D
:103380009FBF90E00895FC010E945A1A319728F0DF
:1033900068517C4F8F4F9F4FF9CFAB01FC010E94CA
:1033A0005A1A641775078E079F07C8F308958F92FE
:1033B0009F92AF92BF92CF92DF92EF92FF920F93C4
:1033C0001F93CF93DF936C017B018A0180910B01E6
:1033D000882309F45AC080913C02882309F455C01F
:1033E0008091610180FF05C08091E0008260809340
:1033F000E000E801B12C8AEFA82E93E0892E2AE3A1
:10340000922E209711F4BB20C9F10E943C18811123
:1034100008C0AA94AA20C9F181E090E00E94C319D3
:10342000F0CF8C171D0611F00CF08C2F9FB7F8947D
:103430008092E9002091E80025FD02C09FBFE1CF06
:10344000282F30E0C21BD30BF701815020F04191AF
:103450004093F100FACFE20EF31EBB2021F09092D0
:10346000E800B12CEBCF8091E80085FDE7CF90928A
:10347000E800BB24B394209709F3F3CF5D9884E66A
:1034800080936001101611063CF081E090E0F60197
:103490009383828310E000E0C801DF91CF911F91F8
:1034A0000F91FF90EF90DF90CF90BF90AF909F90E3
:1034B0008F900895A7E5B1E02FB7F8947D918D9195
:1034C0009C9166B52FBFA89B05C06F3F18F47F5F26
:1034D0008F4F9F4F22E0660F771F881F991F2A95F5
:1034E000D1F70895AB01FC010E945A1A41505109CD
:1034F000E109F10928F068517C4F8F4F9F4FF6CFBB
:10350000AB01FC010E945A1A641775078E079F07CA
:10351000C8F308952D9A089590E00C94C3198FB1C3
:103520008095807F669B88601C9B84600895809155
:103530005401882339F0815080935401811102C0D5
:103540001092C0000895109263013E985798089514
:103550003E9A579A81E080936301089590E1282F65
:1035600081E061FD84E060FD880F62FD8295687FE7
:10357000969FD0011124A20FA35CBD4F0C90082A86
:1035800040FF08260C9208958F929F92AF92BF92AF
:10359000CF92DF92EF92FF920F93CF93DF935B0175
:1035A000EC014C01840E911C6B01C20ED11CC8159C
:1035B000D905ECF47501B7FE02C0F12CE12CC6016F
:1035C00021E4C216D10414F080E490E0E816F90674
:1035D00064F4C038D10528F4402FB701CE010E9411
:1035E000AE1A8FEFE81AF80AEACF2196E0CFDF9102
:1035F000CF910F91FF90EF90DF90CF90BF90AF9061
:103600009F908F9008952F923F924F925F926F926A
:103610007F928F929F92AF92BF92CF92DF92EF9262
:10362000FF920F931F93CF93DF93CDB7DEB7289709
:103630000FB6F894DEBF0FBECDBF9E838D836A3078
:1036400061F5DC0155968C91B8E08B9F90011124B7
:10365000ED81FE8181899289820F931F928B818BEC
:10366000108A178681E090E028960FB6F894DEBFA6
:103670000FBECDBFDF91CF911F910F91FF90EF90C3
:10368000DF90CF90BF90AF909F908F907F906F9082
:103690005F904F903F902F9008956D3019F32D81DA
:1036A0003E8138872F83D9011F960D911C91509729
:1036B000003811050CF07CC05196AD90BC90B0E480
:1036C000AB16B1040CF074C0F901258825E0C801DF
:1036D000229E800D911D1124181619060CF068C049
:1036E000622C712CC30133E0880F991F3A95E1F7E2
:1036F0008A0D9B1D181619060CF05AC0F489FB831D
:10370000AF81B8855396BC91BC83629FB0011124F0
:10371000FB01E55DF64E2F011982F2018491F981DA
:10372000F53009F480E0450128E02A83A82FB0E0B5
:10373000BE83AD833C8080FF3B80311004C0BB81E1
:10374000EC81BE17F9F078018E2D801B8215D0F424
:10375000D12CC12CC21490F4F0E8EF16F10450F40F
:10376000B601680D791D6034710520F4432DC70141
:103770000E94AE1A2FEFC21AD20AECCF3FEFE31A23
:10378000F30AE2CF8D819E81959587959A8191501C
:103790009A83860C971C9111C9CFA981AF5FA98329
:1037A000BFEF4B1A5B0A060D171DA63009F0B5CF07
:1037B000EF81F8852589422F50E087859089F6E0D2
:1037C0002F9F800D911D1124AF81B88550969C9339
:1037D0008E931F9756962C915697222309F442CF29
:1037E0006AEF64039001659F300D112420583F4F0C
:1037F000281739070CF036CFED91FC911197019005
:10380000F081E02D6AE0CD0109952CCF2F923F92F7
:103810004F925F926F927F928F929F92AF92BF92E0
:10382000CF92DF92EF92FF920F931F93CF93DF938C
:1038300000D000D0CDB7DEB730E0F901E80FF91FB6
:103840001E161F060CF09BC0803891050CF097C027
:10385000602E712CF301E60FF71F1E161F060CF0E9
:103860008EC0603471050CF08AC0E62FE770FE2E22
:10387000E3E075946794EA95E1F7F3E07595679551
:10388000FA95E1F7E62F660FFF0BFA83E983DF0174
:10389000B695BA2FAA27B795A795A80FB91FA35C0D
:1038A000BD4F4B835C8310E000E06016710609F4A5
:1038B00066C0C980DA80C00ED11EF8E0CF16D104F0
:1038C0000CF05DC04FEFC416D4060CF44AC050E0B3
:1038D00040E04D0160E8860E911C421753070CF042
:1038E00040C0FC01E40FF51FE038F105D4F5F7FD09
:1038F0002DC0EB81FC81E40FF51FE491F0E01F0186
:103900000F2C02C0220C331C0A94E2F7EFEFCE1604
:10391000DE0691F15D01A40EB51EF5015080F1E0C7
:10392000EF1217C05228F5015082FF2079F0F7E01E
:10393000CF16D10459F05401A40EB51EF5015080E4
:10394000F1E0EF120AC05328F50150824F5F5F4F3C
:10395000C4CF422C40945420E6CFE32DE0955E2264
:10396000F3CF0F5F1F4FA058BF4F4B815C81420FB9
:10397000531F5C834B8399CFF110DDCFE7CF0F90BE
:103980000F900F900F90DF91CF911F910F91FF90AB
:10399000EF90DF90CF90BF90AF909F908F907F90EF
:1039A0006F905F904F903F902F90089508950895E5
:1039B00090E080E008952FEA31E09EE0F90148E0D0
:1039C0005081581301C0608341503E964111F8CF99
:1039D00091502F5F3F4F9111F1CF0895CF93DF9317
:1039E000D82FC62F6EE10E94DB1C6D2F8C2F0E94FA
:1039F000DB1C6C2F8EE1DF91CF910C94DB1CEF92DE
:103A00000F9360E080E00E94CE17EE24E39408E17B
:103A100028E044EE58E169E270E08BEF9FEF0E94EE
:103A2000061C08E320E344E957E16BE070E083E023
:103A300090E00E94061C00E120E144E757E16BE2C0
:103A400070E083E390E00E94061C23E44EEE56E112
:103A500063E070E08CE290E00E94061C2CE246E9F4
:103A600056E163E170E087E390E00E94061C0F914D
:103A7000EF900895CF92DF92EF92FF920F931F93F2
:103A8000CF93DF93142FC62ED12CC82FD0E001E0A6
:103A900027E049E0B601CE010E94C41A812F6AE0F6
:103AA0000E943935192F93E0F92E8F9DA001112422
:103AB000425D5A4EE12C08E023E0B601CE010196AA
:103AC0000E94061C1F9DA0011124425D5A4E23E056
:103AD000B601CE0105960E94061CDF91CF911F9181
:103AE0000F91FF90EF90DF90CF900895EF920F939A
:103AF000CF93DF9380912202EE24E39408E08111BA
:103B000044C027E047EF55E161E070E080E790E0D6
:103B10000E94061C409127024F5F61E087E70E94E8
:103B20003A1DEE24E39408E320E147E855E168E01C
:103B300070E080E790E00E94061CC0912502CC2333
:103B4000B9F100E02EE14EE06BE170E081E790E03A
:103B50000E94C41A00E228E047E655E16AE170E0FD
:103B600084E790E00E94061C2FEF2C0F6BE370E0BF
:103B70006C1B710901E042E087E790E00E94C41AE3
:103B8000DF91CF910F91EF90089523E048EA53E23F
:103B900061E070E080E790E00E94061C2DE04CEAB6
:103BA00053E261E070E083E790E00E94061CB9CF29
:103BB000809124028823B1F0EE24E39408E023E00E
:103BC0004CEF53E26DE170E080E790E00E94061C4C
:103BD0002DE040E054E26DE170E083E790E00E9468
:103BE000061CCECFC09129022BE12C1BD0E0AE01E8
:103BF000445B5A4EEE24E39408E06DE170E080E708
:103C000090E00E94061C2FE04CE455E16DE170E06D
:103C10008BE890E08C1B9D0BE2CF0F93CF93DF934B
:103C2000E2E4F2E095E7915059F4E2ECF5E095E733
:103C3000915061F08191DF01119780618C93F8CFF1
:103C40008191DF01119784608C93EDCFC2E0D0E0C9
:103C500041E0BE0185E090E00E94AE1A2196CD338E
:103C6000D105B1F7C2E0D0E041E0BE0188E790E0C5
:103C70000E94AE1A2196CD33D105B1F700E029E3B9
:103C800042E763E070E086E090E00E94C41ADF91B2
:103C9000CF910F910895E0912002E695E695E69583
:103CA00090911F0296959695969581111DC0E150B1
:103CB0009E3088F5EF3F79F1E8306CF52EE0E202B6
:103CC000F0011124E155FE4FE90FF11D97FDFA9522
:103CD00090819F3008F443C09431E8F0943181F42E
:103CE00091E08130F9F417C0813011F4EF5FE0CF3B
:103CF000823011F49150DCCF8330D1F69F5FD8CF62
:103D0000953121F491E081110DC005C0963129F45F
:103D100091E0833039F490E005C0973129F491E0C7
:103D20008230C9F3892F0895983121F491E08230CF
:103D3000C8F7F1CF993111F48250F8CF9A3111F4CC
:103D40008D7FCECF9B3111F48150F0CF9C3119F48F
:103D50008111DECFE0CF9D3111F48D7FD3CF91E083
:103D6000E1CFE4E6F1E049E33EEC23E79CE987EEAE
:103D700040833183228393838483359651E0EA3AEA
:103D8000F507B1F708955F926F927F928F929F929D
:103D9000AF92BF92CF92DF92EF92FF920F931F9359
:103DA000CF93DF9300D000D01F92CDB7DEB796E45B
:103DB000899F300111248E010A5F1F4FE1EDEE2E25
:103DC000E4E2FE2E4FEAC42E41E0D42EA301445576
:103DD0005F4F75EF872E71E0972EB12CA12C71E00B
:103DE00055245394662309F490C0D501AC59BE4FB5
:103DF000FE0131968D9181930E171F07D9F7298106
:103E000030E0C901E3E095958795EA95E1F7D601A1
:103E10008D938A8190E0220F331F220F331F2F7161
:103E2000FC0136E0F595E7953A95E1F7E22B1D9612
:103E3000EC931D979C01359527952F715B962C93DC
:103E40005B972B8130E0F4E0880F991FFA95E1F73A
:103E50008F71F90194E0F595E7959A95E1F7E82BD4
:103E60009996EC9399978C8190E0220F331F2F71D4
:103E7000FC01EE0FEF2FEE1FFF0BE22BD796EC931A
:103E8000D7979C0135952795359527952F71F40186
:103E900021934F012D8133E0880F991F3A95E1F767
:103EA0008F71922F929596959770892B85872F7198
:103EB000238F6623A9F080E0F6019081911170E0D4
:103EC000E9EBF4E22491921729F03196EE16FF0601
:103ED000C9F7512C8F5FFEE0CF0ED11C883061F7FF
:103EE0004B5F5F4F85E0A80EB11C96E4A916B104A4
:103EF00051F46623E9F0711102C0511019C00E94FB
:103F0000B11E61E05FCF6D016DCFFA0184918983AD
:103F10003196E491EA83FA013296E491EB83FA0157
:103F20003396E491EC83FA013496E491ED8367CF04
:103F30000F900F900F900F900F90DF91CF911F91E6
:103F40000F91FF90EF90DF90CF90BF90AF909F9038
:103F50008F907F906F905F9008951F93CF93DF9322
:103F6000C82FD62F60E080E00E94CE1710921F026B
:103F700010922002CB3438F082E380933D06DF912B
:103F8000CF911F9108951092240210922502109251
:103F9000210283E680930E016D2F8C2F0E94C31E99
:103FA0007091AE016091AD01C091AC014FEA51E05A
:103FB00030E0A0E0B0E02FEF90E0D7E0FA0180E041
:103FC00010811D3031F4A82FAA0FAA0FAA0FD08399
:103FD000B32F1081163021F42F3FC9F4292FC82F99
:103FE0008F5F3E96883061F79F5F385F4F5F5F4F0E
:103FF0009E3021F7C093AC012093AB01B0931F0218
:10400000A09320027093AE016093AD01B8CF692FE9
:10401000782FE6CF1092250210922402809122027E
:10402000811105C060E0809127020C94AD1F8DE1E5
:1040300080933D0608950F931F93CF93DF93EFEA8C
:10404000F1E0A4E6B1E0C5EFD1E04DEB51E08191A4
:10405000658570E028E0829FC00111249B013595A1
:10406000279535952795822B8C9321A530E0838D5C
:10407000880F16E0660F771F1A95E1F7862BB901B6
:1040800004E0759567950A95E1F7862B11968C9358
:10409000119787A990E064E0220F331F6A95E1F73A
:1040A000BC0175956795262B12962C9312976991F2
:1040B0002D8530E09695982F8827979587958901CB
:1040C00093E0159507959A95E1F7802B94E0699F09
:1040D000B0011124862B13968C93139765E0220F61
:1040E000331F6A95E1F78B8D282B14962C93149728
:1040F00015964E175F0709F0AACFDF91CF911F9158
:104100000F9108958FE396E00E94A919892B29F059
:104110008FE396E00E946719F5CF0895CF92DF9262
:10412000EF92FF92CF9320916301222331F1C62FAA
:10413000BC01990F880B990B0E9440346B017C01E4
:1041400020E030E040E05FE30E94CC3420E034E245
:1041500044E757E40E943133A70196010E949D3342
:104160000E940F3461507109C093540180E4809320
:10417000C0007093BF006093D100CF91FF90EF908B
:10418000DF90CF900895CF9390913E0691110DC08E
:10419000C82F88E00E94C317882339F068E089EAB5
:1041A00091E00E948E20C0933D06CF910895EF923A
:1041B0000F931F93CF93DF9360E080E00E94CE17B0
:1041C00080913E06811113C084E00E94C3178823AA
:1041D00071F068E087ED90E00E948E208AE0809385
:1041E0003D06DF91CF911F910F91EF9008951091AF
:1041F0002802112369F080E10E94C317882341F04F
:1042000011501093280268E080E991E00E948E200E
:1042100080E80E94C317882351F0809128028F5FA5
:104220008093280268E080E991E00E948E2010913E
:1042300028021123A1F00E948F1A82958170C82F45
:1042400080E0D82FBE01675C7F4FEE24E39408E046
:1042500027E045E853E28DE690E00E94061C80913D
:104260002202813069F5EE24E39408E025E146E17D
:1042700059E169E270E086E590E00E94061C153085
:1042800038F085E0809328028CE10E94C3202FC083
:104290000E948F1A082E000C990B8827990F881FEF
:1042A00099276CE270E0681B790BEE24E39408E038
:1042B00027E04CE853E28DE690E00E94061CE4CF34
:1042C0001A3468F18AE48093280290912802809140
:1042D00023028917E0F5EE24E39408E025E041E1AC
:1042E00059E161E370E086E790E00E94061CEE244D
:1042F000E39408E025E14CEF58E161E370E086E5E6
:1043000090E00E94061C409128024F5F61E38CE61A
:10431000DF91CF911F910F91EF900C943A1D0E9465
:104320008F1A082E000C990B8827990F881F992740
:104330006CE270E0681B790BEE24E39408E027E060
:104340004CE853E28DE690E00E94061CBECF87E267
:104350009CCF0C94B7322F923F924F925F926F9204
:104360007F928F929F92AF92BF92CF92DF92EF9205
:10437000FF920F931F93CF93DF93CDB7DEB72997AB
:104380000FB6F894DEBF0FBECDBF8091250266E068
:104390000E943935898320E0882351F00E945F32E2
:1043A000E9812E2F30E050E040E00E94CD32262FF0
:1043B00030912502832F6CE00E943935281B2A8317
:1043C000832F66E00E943935898310E0882351F0FD
:1043D0000E945F32F9812F2F30E050E040E00E94D0
:1043E000CD32162F809125026CE00E943935181BC2
:1043F0002FEA222E21E0322EFF24FA94B12CA12C98
:104400008A2C612E012E000C77089A80D12CC12CA9
:104410002EE02A9DC0012B9D900D1124AC01415529
:104420005E4F5F834E83C982F101EC0DFD1D50810B
:104430005887E52FE650E231B8F4F0E0EE5DFD4D2F
:104440000C9459356122FF22342250223422342226
:10445000342234223422A422472234223422342229
:104460006C227A2288229622988588E0989FA00163
:1044700011244F525B4DEE24E39408E028E0B30191
:10448000892D092C000C990B0E94061CB8C0809144
:10449000240241E555E2882371F349E655E2EBCF6A
:1044A0008091240249E155E2882329F340912A02B0
:1044B00046954695E8E04E9FA0011124475E5A4D6F
:1044C000DACF40912A0246954695F8E04F9FA00129
:1044D00011244F5F5A4DCFCF40912A028BEA489F5B
:1044E000412D1124469528E0429FA00111244A5EE7
:1044F000594EC1CF40912A028BEA489F412D112489
:10450000469538E0439FA00111244A5C594EB3CF31
:1045100040912A028BEA489F412D1124469588E05C
:10452000489FA00111244A5A594EA5CF40912A0212
:104530008BEA489F412D1124469598E0499FA001A0
:1045400011244A58594E97CF94E1492E91E0592EA3
:104550001986E981E150EB83292D092C000C330BDE
:104560003D832C83F201318120814981420F4E30FD
:1045700008F0BEC0832F880D883008F0B9C0FEE077
:10458000F89FC001112481559E4F840F911DFC019D
:104590008081E985E170EE0FFB81EF0F9885EE30A9
:1045A00030F44E815F814E0F511DFA019081E985F3
:1045B000EE7FEF0DEF3F09F4C1C0E83009F4BEC053
:1045C0005EE04E2F4503F0011124E155FE4FEC0D46
:1045D000FD1D40819F3009F08DC04F3009F0ACC007
:1045E00043E05985451B8F3009F087C0F2E04F0E3C
:1045F000511C29852F5F2987243009F0B3CF3FEF65
:10460000C31AD30A48E0940E5EE0C516D10409F03F
:104610000ACF80910E018B3009F044C0C090200277
:104620008C2D86958695869588113CC060E08FEF2D
:104630000E94CE17D12C80912102E0E2F0E0E81B2D
:10464000F109FD83EC83F7FF03C03396FD83EC8310
:104650002C813D8135952795359527952C0D3D1D50
:104660003D832C8380901F02912CE12C08E028E0F0
:1046700049EC55E26C817D81C4010E94061CEE2448
:10468000E39428E049E355E26C817D81C4010E94F6
:10469000061CB601685F7F4F00E028E048E0C401D7
:1046A0000E94C41A3FEFA31AB30A185F4EE0240E0B
:1046B000311CF39458E0A516B10409F0A1CE299657
:1046C0000FB6F894DEBF0FBECDBFDF91CF911F9123
:1046D0000F91FF90EF90DF90CF90BF90AF909F90A1
:1046E0008F907F906F905F904F903F902F900895A4
:1046F00088854FCF4F3029F1498584E04802A001D9
:10470000112442505A4E64E070E0313011F070E0F4
:1047100060E0660D771D84E090E0213011F090E0BC
:1047200080E0EE24E39408E024E0EC81FD818E0F2C
:104730009F1F0E94061C5ACF44E0DFCF9F3009F430
:104740004FCF45E0DACFFF920F931F93CF93DF93C4
:10475000EC01F62E08811981C8010E94B732F816C3
:1047600021F06F2DC8010E94BF32CE01DF91CF91A1
:104770001F910F91FF9008951F920F920FB60F9205
:1047800011242F933F934F935F936F937F938F9356
:104790009F93AF93BF93CF93EF93FF93C091E100AB
:1047A0008091E100837F8093E100C3FF0FC01092EE
:1047B000E90081E08093EB001092EC0082E38093AB
:1047C000ED0010923C0288E08093F000C2FF1AC016
:1047D0000E94311880916001882341F0809160012E
:1047E000815080936001811101C05D9A80913B02EC
:1047F000882341F080913B02815080933B028111DC
:1048000001C0289AC4FF23C08091E2008E7E81609F
:104810008093E2008091E1008F7E8093E10080919F
:1048200061018E7E806180936101FF91EF91CF9154
:10483000BF91AF919F918F917F916F915F914F91B8
:104840003F912F910F900FBE0F901F901895C0FFB2
:10485000ECCF8091E2008E7E80618093E2008091B7
:10486000E1008E7E8093E100809161018E7E816007
:10487000DACF1F920F920FB60F921124CF92DF92D0
:10488000EF92FF920F931F932F933F934F935F935A
:104890006F937F938F939F93AF93BF93EF93FF9308
:1048A000CF93DF93CDB7DEB76C97DEBFCDBF10924D
:1048B000E9008091E80083FF25C068E0CE014596BD
:1048C0000E94131982EF8093E8008D8987FF39C019
:1048D0009091E80090FFFCCF982F907609F034C1BA
:1048E0009E894F89588D2F89F88C911131C080385D
:1048F00061F5809162018093F1001092F1008EEFDA
:104900008093E8006C960FB6F894DEBF0FBECDBF63
:10491000DF91CF91FF91EF91BF91AF919F918F91D7
:104920007F916F915F914F913F912F911F910F91C7
:10493000FF90EF90DF90CF900F900FBE0F901F90E1
:1049400018959EEF9093E800C7CF1092F100D5CF55
:10495000913059F48111D3CF4130510581F68091C6
:1049600062018D7F80936201CACF933049F4811137
:10497000C6CF4130510519F6809162018260F2CFB5
:10498000953041F48091E80080FFFCCF20682093AF
:10499000E300B5CF963009F0A9C00B8D1C8D22E045
:1049A0001092E90010925E0110925D01F2122EC089
:1049B00010925C0110925B010E94E2181F8299E044
:1049C0009983FA8291E09E8390EA98879AEF99877B
:1049D00020915D0130915E01275F3F4F3C832B8327
:1049E0008D831092E90010925E0110925D01109388
:1049F0005C0100935B0149E050E0BE016F5F7F4FB7
:104A000080E00E94BC180E94E21879CF10935C01EC
:104A100000935B010E947718DC0112960D911C91A6
:104A20000115110509F451C1D801ED91FC910480E3
:104A3000F581E02DBE016B5E7F4FC801099500979F
:104A400009F03EC1F80100851185EACFF3E0FF12BD
:104A50000EC08F89882309F440C0823061F440E899
:104A600067E08FE89EE10E94B526811148CF81E280
:104A70008093EB0047CF813029F440E86BE083E876
:104A80009EE1F1CF833099F70E947718DC011296EE
:104A9000ED90FC908E010F5F1F4F6801E114F1044F
:104AA00079F0D701ED91FC910680F781E02DB801F6
:104AB000C7010995080F111DF701E084F184EECFBD
:104AC000D8011C92F60101900020E9F73197BF014F
:104AD0006C197D0940E0C601C6CF6DE67EE1FB01A1
:104AE000449150E080E80E94BC1809CF973009F447
:104AF000BECF983021F481E08093F10000CF99304F
:104B000009F0FDCE837009F0B2CFEDE1F1E081E074
:104B100031E096E32191222371F08093E9003093F4
:104B2000EB00DF0111972C912093EC009093ED00A6
:104B30008F5F873079F78EE78093EA001092EA0062
:104B40008F8980933C02DBCE8B8D9C8D1092E90087
:104B500010925E0110925D0190935C0180935B0165
:104B6000898D811192C08E899D89913A49F4813253
:104B700009F07DCF47E050E064E071E080E0B3CF22
:104B8000913209F074CF833269F48F89988DB0E047
:104B9000A0E08093000190930101A0930201B093E3
:104BA0000301ADCE803269F48091E80082FFFCCF32
:104BB00067E084E091E00E9413198BEF8093E80096
:104BC0009ECE823209F09BCE8F8980930B01EEEF4F
:104BD000FFE7859194918B3F9C4D51F1E0E0F8E027
:104BE0008091040190910501A0910601B091070107
:104BF000803B9440A105B105F1F480910B0180FD4B
:104C00001AC0EE3F8AE0F80789F587E797E79183B6
:104C100080838091600080935F0188E19BE00FB604
:104C2000F894A895809360000FBE9093600067CEC3
:104C3000EEEFFAE0D5CF808191818737974709F071
:104C40005ECEA8958091600088618093600080911D
:104C50005F0180936000EE3F2AE0F20789F08091C7
:104C6000FE0A9091FF0A9183808349CE80819181D1
:104C70008737980751F29093FF0A8093FE0AC5CFB9
:104C80001092FF0A1092FE0A3ACE0E947718DC01B9
:104C900012960D911C910115110509F4E8CED80169
:104CA000ED91FC910190F081E02DBE016B5E7F4F94
:104CB000C8010995811123CEF80100851185EBCF3C
:104CC000181619060CF41BCED2CEF1E0FF12BECEA0
:104CD00061E77EE104CF0F920FB68F939F93EF931E
:104CE000FF93809156018D5F8D3708F08D5780932B
:104CF0005601E7E3F2E080818E4F808391819F4FE0
:104D0000918382818F4F828383818F4F8383E7E5F5
:104D1000F1E080818F5F808381818F4F81838281E9
:104D20008F4F828383818F4F83838FB18F6066998A
:104D30001C9B88278F3681F480915501981B9630F3
:104D400068F0E0E0F8E087E78083818388E1809382
:104D50006000F0936000FFCF90935501FF91EF91B9
:104D60009F918F910FBE0F901895EF92FF920F9326
:104D70001F93CF93DF93F82E192FE62E042F81E097
:104D8000860F880F0E948E1883E00E948E18CF2D08
:104D9000D12FEC0EFD2EF11CCE15DF05B9F007FF6B
:104DA00013C0FE0184910E948E18182F80E00E948B
:104DB0008E18812321968111EFCFDF91CF911F9122
:104DC0000F91FF90EF9008958881EDCF81E0F5CFAE
:104DD0000F931F93CF93DF938C0181E090E00E94AB
:104DE000A92180FF32C08AE090E00E94A9219FEFB4
:104DF000980F9E3F50F522E330E0D80150963C9347
:104E00002E931F9728E330E052963C932E935197B0
:104E1000CBE0D0E0D801ED91FC910190F081E02D44
:104E2000682FC8010995CE010E94A9212196C131A0
:104E3000D10581F780E00E94EB1788EE93E0DF91C7
:104E4000CF911F910F910C94C319DF91CF911F91B6
:104E50000F91089504970C94E826EFE3F6E013828F
:104E6000128288EE93E0A0E0B0E084839583A6836D
:104E7000B7838BE291E0918380838FEF9FEF9587DB
:104E80008487EFE8F6E0138212821186128680E1B1
:104E900083871086178215868DE391E09183808346
:104EA0008BE491E095838483108A1786128A118A95
:104EB00081E0838B148A858B168A0895CDB7DEB77F
:104EC0002A97DEBFCDBF789483E084BD83E085BDA3
:104ED00081E080936E00E1E8F0E083E08083E0E829
:104EE00081E08083E1E983E08083E0E981E0808301
:104EF000E1EC87E08083E3EC81E08083E0EC82E01A
:104F00008083E2EC81E08083EAE787E08083806849
:104F1000808310923C021092620110926101809194
:104F2000D70081608093D70080EA8093D80089B54C
:104F3000806189BD89B5826089BD09B400FEFDCF5D
:104F400081E090E00E94C3198091D8008F7C80613D
:104F50008093D8008091E000807F8093E000809172
:104F6000E1008E7E8093E1008DE08093E200559A0F
:104F7000209A81EC80937C0081E785B987E684B92B
:104F800085E38BB98FE38AB9769A6E9880EF81BBFF
:104F900010BA80E58CBD81E08DBD85E00E948C1A41
:104FA000599A85E00E948C1A5C98E7E4FFE18591AC
:104FB0008EBD00000DB407FEFDCFE135C1F75C9A50
:104FC00081E88093640081E0809365000E94EB1784
:104FD0000E948F1A02E010E087FF15C05C9885EAF6
:104FE0008EBD00000DB407FEFDCF5C9A2E98589838
:104FF0002D988091640080628093640081E083BF7B
:10500000889513BEFCCF0E948F1A82FF3DC02D9859
:105010000E948F1A84788438B9F40E948A1A88EC26
:105020000E948C1A58981A8309836FEFCE0101965B
:105030000E94A32384EF91E00E94C319589A0E9412
:105040008F1A84788438D9F30E948F1A847184313E
:10505000B9F40E948A1A88EC0E948C1A2E981A833E
:10506000098360E0CE0101960E94A32384EF91E0C2
:105070000E94C3192E9A0E948F1A84718431D9F329
:1050800088EC0E948C1ABFCF0E948A1A82E090E0BE
:105090000E94A921882309F4B4C00E94A81A81E0C3
:1050A00090E00E94A921182F147081FF0EC01111E9
:1050B0002E9871EFC72EDD24DA940E948F1A86FF96
:1050C000A3C02E9A589A0E948A1A82E30E948C1AD0
:1050D0000E948F1A8111F9CF86E180939A0610926F
:1050E000C00088E08093C1001092C3001092BF00FE
:1050F0001092CF0060E080E00E94CE178EE092E038
:105100000E94B732809323028B3458F0109223020E
:105110008EE092E09A83898360E0CE0101960E943E
:10512000A32380912302809328028FEF9FEF909317
:105130004C0680934B068AE690E0DC01A456B14011
:105140001D010E944D18182F882309F452C00E9497
:10515000971A80912A0290E001966CE070E00E941C
:10516000453580932A02837051F48091290290E0A2
:1051700001966BE170E00E94453580932902809191
:105180003E06882319F0815080933E068091980650
:10519000809399060E948F1A8093980690E0EDE321
:1051A000F2E091119FEF8FEF9193919391939193EF
:1051B0008150D0F71092A1061092A00610929F067F
:1051C00010929E0680913D068D3109F483C008F04F
:1051D00096C08A3009F470C108F049C0813009F4E2
:1051E0002EC108F4E5C0893009F452C180E00E9464
:1051F000EB1780E090E0892B09F4A3CF0E94000018
:10520000A0CF0E94A31A4BCF112331F024E0C21685
:10521000D10411F42E9A589881E00E94EB17EE24E5
:10522000E39400E128E547E95EE1B60184E190E01E
:105230000E94061C80E00E94EB178FE00E948C1AEF
:105240003FEFC31AD30A89E1C816D10409F035CF5C
:10525000112311F0589A2D9880E991E00E94C3190A
:105260000E948A1A8FE896E00E94E8262ECF8831A5
:1052700009F4CAC478F4873109F0B8CF89E1809382
:105280003D0680912302809328020E94FF1C0E9409
:10529000D720ACCF8931C9F38C3109F0A7CF8091E9
:1052A0002802809327020AEA11E094E6A92E91E0F1
:1052B000B92E610126E4829FC00CD11C1124C601C5
:1052C0008A0D9B1D0E94B732D5018D935D010A178F
:1052D0001B07A9F782E080930F011092260210921B
:1052E000250284E080930E011092240261E08091F7
:1052F00027020E94C31E8EE180933D060DC08233BB
:1053000009F4D1C7B0F5873209F484C4883209F4AE
:1053100090C48E3109F06ACF0E94AB210E94761DA5
:1053200060E080E00E94CE17F0900F01B1E0FB1624
:1053300009F49CC1FB1608F438C1E2E0FE1609F43A
:105340004FC180913E06811151CF0E948F1A83FF79
:1053500064C20E948F1A82FF60C260E187ED90E014
:105360000E948E2089E180933D068FE080933E0667
:105370003DCF843311F40C94C93108F4D7C7853379
:1053800011F40C94DB31863309F030CF60E080E01B
:105390000E94CE17EE24E39408E029E146E15FE2A3
:1053A0006CE170E084E390E00E94061C80E044C061
:1053B000EE24E39400E320E34AED5FE168E070E06F
:1053C00088E090E00E94061C08E02FE24BEA5FE1D3
:1053D00068E070E089E490E00E94061C23E248E85F
:1053E0005FE162E170E085E590E00E94061C25E047
:1053F00043E85FE166E270E085E590E00E94061C0C
:105400002DE146E65FE166E270E08BE590E00E9408
:10541000061C2DE146E65FE161E370E083E490E085
:105420000E94061C25E141E55FE161E370E083E64F
:1054300090E00E94061C81E00E94C320D7CEEE249B
:10544000E39408E025E44AE353E26EE070E08EE185
:1054500090E00E94061C5AEFA52E50E2B52E66E0A1
:10546000C62ED12CEE24E39408E128E1A5016CE1DD
:1054700070E0C6010E94061CBDE1CB0ED11CE0E924
:10548000AE0EB11CFAE7CF16D10461F78AE0D4CF93
:105490008AE080933D0680916301882309F482C0ED
:1054A0000E94A31A6091630182E090E09A8389834D
:1054B000CE0101960E94A3230E94FF1C80E80E9457
:1054C000C317882361F010912202112341F068E094
:1054D00080E991E00E948E2011501093220280E119
:1054E0000E94C317882361F010912202133040F408
:1054F00068E080E991E00E948E201F5F10932202F5
:1055000023E2822E21E0922E33E9A32E33E2B32E42
:1055100010E041E2C42ED12CF090220284E690E00B
:10552000F11611F08BE690E0EE24E39408E025E11B
:10553000A501B6010E94061CF11226C001E027E079
:1055400047E0B60189E790E00E94C41A88E00E9413
:10555000C317882349F068E089EA91E00E948E2011
:10556000D4018C9180933D06133071F42091630136
:10557000220F220F2E5FE12C06E04FE753E2B60127
:1055800089E790E00E94061C1F5FB8E0CB0ED11C9B
:10559000EFEF8E1A9E0AF5E1AF0EB11C143009F040
:1055A000BBCF24CE0E94A81A7DCF80912A028650BC
:1055B000863008F0C6CE60910D01F8E06F9FB00113
:1055C00011246250710980910C0128E0829FC00172
:1055D000112401E02CE04CE002970E94C41AB1CEE5
:1055E0000E940D1E409127024F5F64E087E00E94F9
:1055F0003A1DA0E5AA2EA4E2BA2E912CB4E0CB2E3F
:10560000D12C15E1812EF5014491489DA001112472
:105610004D565C4D1091260281E390E0191511F072
:1056200088E390E0EE24E39408E025E1B6010E94CF
:10563000061C9394FFEFAF1ABF0A28E0C20ED11CDC
:1056400037E09312E0CF8DEF810F823008F079CEF2
:1056500088E0189FB00111246C5F7F4F2CE04DEA69
:1056600054E285E290E00E94061C6BCE1091AA01E4
:1056700080900D0198E0899E40011124C0900C019A
:10568000A8E0CA9E600111243601BFEF6B1A7B0AA5
:10569000173108F46AC00E948F1A84FB442440F832
:1056A000512C5401EAE0AE0EB11CB2016A0D7B1D13
:1056B0006F5F7F4FE12C08E027E045E853E2C60129
:1056C0000E94061C0E948F1A829581708B831C8217
:1056D0006B817C816A0D7B1D6F5F7F4F27E045E802
:1056E00053E2C3010E94061C0E948F1A82958170AA
:1056F0008D831E826D817E816A0D7B1DEE24E39475
:1057000027E045E853E2C6010E94061C0E948F1A5A
:10571000829581708F8318866F8178856A0D7B1DD5
:1057200027E045E853E2C3010E94061C00E02CE09C
:105730004CE0B40162507109C60102970E94C41A7C
:10574000E12FF0E0E754FB4D4491473009F44EE17E
:1057500028E0429FA00111244F525B4DEE24E394B8
:1057600008E028E0B401C6017ECF0E948F1A082EFF
:10577000000C990B8827990F881F99275401F6E090
:10578000AF1AB108B501681B790B61507109E12CA2
:1057900008E027E04CE853E2C6010E94061C0E9484
:1057A0008F1A082E000C990B8827990F881F9927AC
:1057B000B501681B790B6150710927E04CE853E291
:1057C000C3010E94061C0E948F1A082E000C990B20
:1057D0008827990F881F9927B501681B790BEE243C
:1057E000E39427E04CE853E2C6010E94061C0E94A5
:1057F0008F1A082E000C990B8827990F881F99275C
:10580000B501681B790B27E04CE853E2C3010E9405
:10581000061C112309F48ACF3ECF32E0F31609F4B7
:105820006DC13F15A0F0FF2009F4ABC081E0F81274
:10583000DDCC84E00E94C317882309F45CC068E0D3
:1058400087ED90E00E948E2010920F01CFCC93E064
:10585000F91609F4E2C0A4E0FA12C8CC0E940D1EA9
:10586000EE24E39408E02CE04DEA54E26CE170E0B1
:1058700088E190E00E94061C2FE240E854E26CE1CF
:1058800070E084E290E00E94061C2CE044E754E2C1
:105890006CE170E083E590E00E94061C29E04BE695
:1058A00054E26CE170E08FE590E00E94061C80E01D
:1058B0000E94EB170E941B200E94311846E450E022
:1058C00064E671E08FE396E00E94D7196AEF70E01A
:1058D00080E090E00E94721A109163010E94A31A66
:1058E00062EE74E080E090E00E94721A11110E9452
:1058F000A81A82E051C088E00E94C3178823E1F013
:1059000068E085E491E00E948E20E091AA01F0E039
:10591000E754FB4DE49180910D0120910C01BEE014
:105920008B9FC001112481559E4F820F911DDC0178
:10593000EC9310922A0288CF80E80E94C317882334
:1059400061F01091AA01173140F468E080E991E01C
:105950000E948E201F5F1093AA0180E10E94C3174E
:10596000882309F443CC1091AA01112309F43ECCF9
:1059700068E080E991E00E948E2011501093AA0106
:1059800035CC88E00E94C317882349F068E089EA93
:1059900091E00E948E2081E080930F0127CC84E06B
:1059A0000E94C317882331F068E087ED90E00E94E1
:1059B0008E209FCF80E80E94C317882339F0809102
:1059C0000D01882319F0815080930D0180E10E9420
:1059D000C317882339F080910D01873018F48F5F49
:1059E00080930D0180E20E94C317882339F08091D3
:1059F0000C01882319F0815080930C0180E40E94EF
:105A0000C317882309F4F2CB80910C018D3008F084
:105A1000EDCB8F5F80930C01E9CB0E940D1EEE242D
:105A2000E39408E02CE04DEA54E26CE170E084E19C
:105A300090E00E94061C2FE240E854E26CE170E026
:105A400080E290E00E94061C24E147E554E26CE10C
:105A500070E08FE490E00E94061C29E04BE654E2DF
:105A60006CE170E083E690E00E94061C0E948220B8
:105A700010E000E0F02E06341105A9F10E944D1847
:105A80008823C9F3EAE5F4E09F2D915030F081912D
:105A9000DF01119780628C93F8CF80E00E94EB17B2
:105AA0000E94971A80919806809399060E948F1AF7
:105AB0008093980684E00E94C317882319F00E94FF
:105AC000822072CF8FE396E00E94A919892B99F268
:105AD0008FE396E00E946719F801EC59FE4F80832E
