:020000040000FA
:100000000C94840C0C94AC0C0C94AC0C0C94AC0CB8
:100010000C94AC0C0C94AC0C0C94AC0C0C94AC0C80
:100020000C94AC0C0C94AC0C0C947A1E0C94E91E41
:100030000C94AC0C0C94AC0C0C94AC0C0C94AC0C60
:100040000C94AC0C0C94AC0C0C94AC0C0C94AC0C50
:100050000C94AC0C0C94AC0C0C94AC0C0C941B21BC
:100060000C94AC0C0C94AC0C0C94AC0C0C94AC0C30
:100070000C94AC0C0C94AC0C0C94AC0C0C94AC0C20
:100080000C94AC0C0C94AC0C0C94AC0C0C94AC0C10
:100090000C94AC0C0C94AC0C0C94AC0C0C94AC0C00
:1000A0000C94AC0C0C94AC0C0C94AC0C0000000840
:1000B00010000000000000181800000000001400EC
:1000C000002800000000240000240000004200007E
:1000D00000004200240081000081002481002400EF
:1000E000002400810040040010014000020542A0ED
:1000F00040040A0400024000000004000004044020
:100100004010080000FC3E02023E3E3E0E06E4B8EF
:100110003C3EBFFF3C1F8FCFCECCCCFC0C78C0E068
:10012000F8080CFCF8E0E03210D8D8D8D8F83C1C1D
:100130008ECFCCC8F032188CE4E4E4CC0A38F81442
:10014000109090307AC804646464FC00001FFF388B
:10015000383F3F7F7F30907F5FC0405F7F3870F3D4
:10016000E7E660203F20203E7E7E20603F077F3F05
:100170002E2E2C2C21113FB87013E727E7773C185F
:100180001113171311280E7F4040793160465F70BC
:10019000101313131E180000FE0E0C9E7EFC0808A0
:1001A000FC0202DADADAFE03037E1E840606FE3E55
:1001B0000CCC7800FC7F70301F1E1910101F1C1C07
:1001C0001D0D1D3F3C38381E3F7EF0711C0F010095
:1001D000080C0E0F0F0E0C08DC1616F60606F4744B
:1001E0001C90909290F0F0188CCE0A78C1FE060612
:1001F0008C1C70F01C860202FE07401E1F083C2764
:1002000020604CCDCDFFD710980D0D1C3063FF60E2
:10021000301F1C10101C7F20301F081C3E7F7CC22A
:10022000D551D5C27C00FE81A5A1A599E60070B884
:10023000C69595C6B87050AE51717151AE50C0B0F0
:100240008CA2ACB0C000C7B9AAA1AAB9C7007C3CB7
:100250004CC8A8361E087FE3C4DCDCC4E37F7E42C2
:10026000DB5A5BDA427E6224DE5E5EE432006E912F
:10027000AA8249419E6030284E51514E283038C4E0
:10028000A24949A2C438FFA5A7E4A399A6C03C4847
:1002900088ECA2122A0C309FE14D4DE19F3055AA07
:1002A00055AA55AA55AA0000C0300CC221A1C121EF
:1002B000A2CC30C0000000609798906021292829C6
:1002C0006190989760000080E010080464B292E2A8
:1002D00042820204F80007080906689192A461228C
:1002E0002211080601001C22E21C880404C4A42474
:1002F000C808101020C038444738132020262D2964
:10030000161008080403E0109060168949258644F9
:10031000C4881060800000010708102026494B4661
:10032000424140201F001EE101310909092901A9AC
:10033000893101C63800E09F809CAABEAABEAABE31
:10034000AABEAA9D827C00808040A0908C12513170
:100350008244C830C0000102040B152A55ABB45AC0
:10036000320805040300FF01F1AAFAAAF202020210
:100370008A09F10101FE7F809FAABFAA5F20262083
:100380004A484620201F8040A050A854AAD9760889
:1003900010A040408000010205070A314650545920
:1003A000222310080403000000C0304C4201014227
:1003B0004C30C00000001C0A8ED1A090A59494A5DA
:1003C00090A0D18E0A1C9098B464940C8404240AE2
:1003D00092224181710F0102040912224C91EA100C
:1003E00030E8443F0000FC0850A907C506480868EB
:1003F0001010202040803F100A95E0A360121016D4
:1004000008080404020180402090484432895708BB
:100410000C1722FC000009192D2629302120245018
:10042000494482818EF00000809CA24181818181BB
:1004300041A29C800000300B64920A6798121298C7
:10044000670A92640B3024924A92A25C2038C482DC
:10045000010101824438000700060354594A582418
:100460008B5525847800482425C95224BA22DC20E3
:100470001008080810E01224A4934A245D443B04A9
:1004800008101010080700E00060C02A9A521A24D1
:10049000D1AAA4211E0024495249453A041C2341F3
:1004A00080808041221C00000080601884020107C7
:1004B000186080000000C0B08E8180809190909381
:1004C0009098818EB0C040A0301010080824148489
:1004D000420202E1190600000102040811224488C8
:1004E00084601E010000FF0102C204040448481099
:1004F000102020408000FF80404F2820221210084A
:100500000804040202030000804020108844020115
:10051000861C608000000609081012151020222495
:10052000204140839C600F31C704A7A1A70407A105
:10053000A1A704C7310FE0908F809991919090917D
:100540009199808F90E000804040A0106C6B110565
:1005500003960C5830E003060C193264C8904833F7
:100560000B0403020101FF0101F21404047474047A
:10057000720201DD5577FF80804F2820202E2E202B
:100580004E4080B9A9EFC06030984C26130912CCB8
:10059000D020C040808000010202050836D688A025
:1005A000C069301A0C0780C02020C0000080F00A0B
:1005B0002E8EBCB8C0000F0A152F17A1C9A828E4B9
:1005C00090090F00000008D42A2A92223C40C02043
:1005D00020A028F8F060041907147A0D1212100EEA
:1005E0000E04180F0100E040A814CB1D1B7D9312D0
:1005F0000C000000000006020304191210187941D3
:1006000035313E1C0E00001010DA322DD426128235
:100610006C524D423C0000000011362E266069E10C
:10062000FE6030000000BC422C1008C828A8282812
:10063000C808102C42BC7F908E8A8C885151515131
:10064000888C8A8E907FC0209048C605C5254B9126
:100650002040800080C007090913678899FBAA9A87
:100660004120100F08073EC101C33D150DC1A12255
:10067000C509F50502007C8380C3BCA8B08384440F
:10068000A390AFA04000E09090C8E61199DF5559C3
:10069000820408F010E00304091263A0A3A4D28925
:1006A00004020100010300F808EAE96AECECECEB53
:1006B00029E8E808F800003F202FEF6F2F2B2B2FA1
:1006C0006FEF2F203F00E030D8ECF6FBFDDDFDFBA7
:1006D000F6ECDDBE68C6190E0D8BF76D5BBFBFBFB4
:1006E000DD6E371B0C071030FE02FA7AFAFADAFADE
:1006F000FA02FEC02810080C7F405F5E5F5F5B5B04
:100700005F407F0102069870B0D1EFB6DAFDFDFDC3
:100710007BF6ECD830E0070C1B376FDFBBB7BFDFD1
:100720006F377BBDA613002040405058585C4C5C8E
:100730004C5840402000000030B8C9B3A7244747B8
:10074000A4B3C000000000C0E0608000E7E850A44F
:100750004C9C3C58B0001B1E2CF2A7F8E163370FED
:100760000506010204067810EC2C18C0607000FC2D
:1007700002F0E08000001C130C0800070B0B003F88
:10078000400A0F07000078E8FC2B27169BD1D6CE35
:10079000CC00804040400000010102CFAB174A2549
:1007A00052793C1E0000708C023152640408E4A2AD
:1007B000E2021CE0000038448380889448404040B6
:1007C000408285887000C02020A01804322A19C1F8
:1007D0004DD21010E00003040912116080804039EE
:1007E0000505040201003CC201215122040402312A
:1007F0002919826214083847404020100810272524
:10080000271010110E00C02020180402091509013C
:10081000CE509020C00000010202021C204E4A4E21
:10082000403905040807000080827408A48484A469
:1008300008748280000016050A280912521212520A
:100840001209280A051600E05030106090488417FD
:10085000044810E0404005100344089021A242657E
:10086000543A01000000004008E11C03E512CC10DE
:10087000501020D008000002108738C0A748330865
:100880000A08040B1000A008C0221009844542A6E3
:100890002A5C8000000000070A0C0806091221E803
:1008A000201208070202008040308804128282125F
:1008B00004883040800003C4A6B990A0A14242A1A0
:1008C000A090B9A6C403000030C8242414C4224256
:1008D0008A021408F00007091136489090E01111BF
:1008E0002C22100F00007E826C18080685499204A5
:1008F00008481020C0007E4136181060A19249209F
:10090000101208040300E090886C12090907888817
:10091000344408F0000000000C132424282344422F
:10092000415024100F003CE444447C2420206E3AC3
:1009300002F2CE000000708FA8A8782878A98A9AC1
:100940006A4F8990A0C0C06070980C079F136152D5
:100950008C483098C87003020F0B09265C85FA0496
:100960000406030100008E51FD51FE020282021EA8
:10097000F311113F0000F38C44221F080F181819BF
:100980000B0A13111F00804020405CE42F9D490793
:1009900006CC5870E0E001010101010E193064CB72
:1009A00091B26C04020140A020C0000000788404D1
:1009B0000454848888F4060910A1C28181A1D090D2
:1009C000180E291000000008EC2A1244B88080603C
:1009D000101090E00080101E2178880804042C3844
:1009E00004081020130CF8108804020111EA0A8987
:1009F000868080000000030110271C080810F18881
:100A00008088609F000010080C0B3AC20204C424C6
:100A10004C504E241800000023528B854040B122D8
:100A2000221C00000000000070FE027ACAFAFACA16
:100A30007A02FE700000000E0DC2A1D6A81111A806
:100A4000D6A1C20D0E0000706838A8780CF6DBED58
:100A50007DBAF46890E03C36CAC7A8D07011096529
:100A60007D553E030100782850A046262A94C8EC04
:100A7000ACACE808F8001E140A0562645429133768
:100A8000353517101F003C6C53E3150B0E8890A6EC
:100A9000BEAA7CC08000000E161C151E306FDBB78E
:100AA000BE5D2F16090700000000003E5B4F5B3E55
:100AB0003E6B4F6B3E1C3E7C3E1C183C7E3C181C23
:100AC000577D571C1C5E7F5E1C00183C1800FFE71A
:100AD000C3E7FF0018241800FFE7DBE7FF30483AC0
:100AE000060E2629792926407F050507407F052522
:100AF0003F5A3CE73C5A7F3E1C1C08081C1C3E7FAA
:100B000014227F22145F5F005F5F06097F017F0070
:100B10006689956A606060606094A2FFA294080490
:100B20007E040810207E201008082A1C08081C2AB1
:100B300008081E101010100C1E0C1E0C30383E3809
:100B400030060E3E0E06000000000000005F0000B0
:100B50000007000700147F147F14242A7F2A122321
:100B60001308646236495620500008070300001C31
:100B70002241000041221C002A1C7F1C2A08083E3A
:100B8000080800807030000808080808000060604D
:100B90000020100804023E5149453E00427F4000BB
:100BA00072494949462141494D331814127F102793
:100BB000454545393C4A49493141211109073649E2
:100BC000494936464949291E0000140000004034B6
:100BD00000000008142241141414141400412214BB
:100BE0000802015909063E415D594E7C1211127CE2
:100BF0007F494949363E414141227F4141413E7F43
:100C0000494949417F090909013E414151737F0822
:100C100008087F00417F41002040413F017F0814C8
:100C200022417F404040407F021C027F7F04081029
:100C30007F3E4141413E7F090909063E4151215E07
:100C40007F09192946264949493203017F01033F9B
:100C50004040403F1F2040201F3F4038403F63142A
:100C600008146303047804036159494D43007F412C
:100C700041410204081020004141417F0402010269
:100C8000044040404040000307080020545478408E
:100C90007F284444383844444428384444287F3822
:100CA0005454541800087E090218A4A49C787F08A4
:100CB00004047800447D40002040403D007F10281F
:100CC000440000417F40007C047804787C080404E0
:100CD000783844444438FC1824241818242418FC78
:100CE0007C08040408485454542404043F44243C1D
:100CF0004040207C1C2040201C3C4030403C44288C
:100D00001028444C9090907C4464544C4400083625
:100D10004100000077000000413608000201020493
:100D2000023C2623263C1EA1A161123A4040207AB3
:100D300038545455592155557941215454784121FD
:100D40005554784020545579400C1E527212395532
:100D5000555559395454545939555454580000452F
:100D60007C410002457D420001457C40F029242958
:100D7000F0F0282528F07C545545002054547C542C
:100D80007C0A097F4932494949323248484832325F
:100D90004A4848303A4141217A3A42402078009D01
:100DA000A0A07D39444444393D4040403D3C24FFAF
:100DB0002424487E4943662B2FFC2F2BFF0929F65C
:100DC00020C0887E090320545479410000447D41AD
:100DD0003048484A32384040227A007A0A0A727D06
:100DE0000D19317D2629292F282629292926304821
:100DF0004D4020380808080808080808382F10C88F
:100E0000ACBA2F102834FA00007B000008142A1412
:100E10002222142A14089500220095AA005500AA3F
:100E2000AA55AA55AA000000FF00101010FF0014D8
:100E30001414FF001010FF00FF1010F010F0141435
:100E400014FC001414F700FF0000FF00FF1414F45A
:100E500004FC141417101F10101F101F1414141F5B
:100E600000101010F0000000001F101010101F10D4
:100E7000101010F010000000FF10101010101010D3
:100E80001010FF10000000FF140000FF00FF000022
:100E90001F10170000FC04F414141710171414F496
:100EA00004F40000FF00F714141414141414F700D1
:100EB000F7141414171410101F101F141414F41422
:100EC0001010F010F000001F101F0000001F140091
:100ED0000000FC140000F010F01010FF10FF1414BC
:100EE00014FF141010101F00000000F010FFFFFF8F
:100EF000FFFFF0F0F0F0F0FFFFFF0000000000FF48
:100F0000FF0F0F0F0F0F38444438447C2A2A3E1439
:100F10007E02020606027E027E0263554941633864
:100F200044443C04407E201E2006027E020299A515
:100F3000E7A5991C2A492A1C4C7201724C304A4D73
:100F40004D303048784830BC625A463D3E494949A8
:100F5000007E0101017E2A2A2A2A2A44445F444451
:100F600040514A444040444A51400000FF0103E0E0
:100F700080FF000008086B6B083612362436060F17
:100F8000090F06000018180000001010003040FF84
:100F90000101001F01011E00191D1712003C3C3CFD
:100FA0003C000000000000B00000A170E150964F2E
:100FB00026900F1D070C009669004AE44A00484439
:100FC0004000806810000F99FB8F9DBDBBFB77D45C
:100FD000D4DF1F1A1AFE7F5D5DFF805A0000A0A4B7
:100FE000AA0010BA3400FF5953F3FF9B9B9EFFB930
:100FF000B996FF9595D19FF4940FFC295F91FF1846
:1010000038F8FF9294FFFF95D5F7BFB5DDD7F18F84
:1010100081F1F788C8F779C6467909FD9B090196E1
:10102000F800828182805071620077565600767691
:101030003700A2B773010772060078275000733497
:101040007400775176007F55F700477110003247E2
:1010500072007364730015A2750061679400009FAD
:101060006060F4F2F6F2F0F89C8E8783878E9CF82D
:10107000F00000FEFF0303030303070EFCF800006B
:10108000FEFF0303030303070EFCF80000FFFF004D
:10109000000000000000FFFF0000FEFF8383838349
:1010A00083C7EE7C380000F8FC0E07030303070E2D
:1010B000FCF800003F7FE0C08080C0E07F3FFFFF82
:1010C00001010101010101FFFF0000FFFF0C0C0CF9
:1010D0000C1C3E77E3C100007FFFC0C0C0C0C0E071
:1010E000703F1F00001F3F70E0C0C0C0E0703F1F96
:1010F00000007FFFC1C1C1C1C1E3773E1C00001FDA
:101100003F70E0C0C0C0E0703F1F00000000000161
:10111000FFFF010000008D14A1C881CFD9F102AFFB
:1011200063726169742E6E657400406372616974E4
:1011300000486F6C6D6573004A6F6E617468616E14
:1011400000458A15AA15AAD56A342821321D0A0C31
:1011500006030207022341A04180408140208040D5
:1011600080402008C77DA255A251A8158844A251ED
:10117000AA54A8518205FF00004180800080E0F061
:10118000F0F0F0E060606068EDE4E3E0E06172E1FF
:1011900002E1321AAF1188548A452A059245A241CC
:1011A000A055AA55AA55BFE0000000003CFEFFFF75
:1011B000FF1DEC3637F7F7EE1FFF3FDF2E37F6EE59
:1011C0001C037E55CAC5A251A854AA552A158A45A2
:1011D0002251A254A055FEC3BC66400038DF7FBF39
:1011E000FFFFFE7D7D7DFDFE3F7FFFF06D1DBDFE9F
:1011F000FFE0833FC07FA255A2512804A251A8540A
:10120000AA11A215A2C56A4563416B5E7871A64B0F
:101210008D979C38312306464D4D6D727F6F1F3779
:101220000F1DCBE07F556A4540C08AC56AB5DAED2F
:10123000CA3DCEF3FDFEF8877FFFFFFFFFC0BFBEB4
:10124000BDDB57A7CFB78BFAF676A6CA76EA9C5FC6
:10125000DFC0FEFEFFFFFFFF0FB6B9FBF8F3F7FF9D
:10126000F87E817E060F1F3E7C7C7C3E3F3F3E1C0D
:10127000180000008000040C0E0C043CE61EFEFE6C
:10128000FEF8F8F0F0F0F0DCF6FBFDFDFDFDFDFFF3
:10129000FAFAFCFCF8E0F098ECF4FCFCFCF484F8BE
:1012A00000070E1F1F1F1F3F7F7F7F7F5FDFBFBFB6
:1012B000BFBFBFFFFF7F3F3F7F7F7F7F3F1F1F1F5E
:1012C0000F07030301000000202020200040C08001
:1012D000808000000000000EFEF8C0C0E0F07070DA
:1012E0007070E0E06060E0E0F07060E0E0C06070CE
:1012F0007070F0F0F0707060E0E0E0E06060E0C01E
:10130000C04040C0C06060606060E0E0E0E0E0F0ED
:10131000F0F8F898CCECF6F4F474341C00000000FB
:1013200000000000000000100060C0C080800000CD
:1013300003878DFBC7677F7E7E7F7FFFFFFFFFBF39
:101340008080BFFFFF8080FCF3CF8080FFFFB8B0BC
:10135000B383C7FF9F83E0EEE0839FFFFF8080FCA5
:10136000F3CF8080FFFF8080BBBBBBFF3FBFBFBB15
:10137000BF3F7F7FFFFFFFFFE7C3C0C0C4E4E0E0E3
:10138000F0F83838100000000000000000000103F1
:101390000307E3F9FCFEFEFF1F4FEFCEDE9EBEBC4F
:1013A0003D80FEFEFEFEFE00FF7F1FCFE3F9FCFE48
:1013B000FE7E1C4D65717FFFFFFFFFFF3FBFBFBF7C
:1013C000BF00FEFEFEFEFE00FFFFFF3F81FCFFFFB1
:1013D000FFFF7F83788FE7F7F3FBF9FD7D7D3D3DD0
:1013E0003D7C7C7CF8000000000000000000000054
:1013F0000080000003070F1F1F3F7EFCFDF9F3E78D
:101400000F00FFFFFFFFFFFF70FCFEFFFFDF8F27D6
:10141000F1FC00FFFFFFFF007FFFFFFFFF00FFFF6A
:10142000FFFF00FFFFFFFFFF00FF3F83F8FFFFFF0D
:10143000FF7F07F0FFE08F3F7FFFFFFFFCF8F0F03A
:10144000E0E0C0C08080000000000000000000005C
:1014500000400F9FDE9EBCBCBCBCBC3C3F3F9FCF4E
:10146000E7E000FF3FBF3FFF3F80F1070F3FFFFF77
:10147000FEFCF1E8833F7FFFFFF0E7EFEFEFE0FFD7
:10148000FF7F3F00FFFFFFFFFF0043383F3F7F7FAD
:101490007F7F78FBFBF3F77717C6EC8C3D7D793BBC
:1014A000B387CFFFFFFFFFFF7800000000000000C0
:1014B0000000000000000000010101010101713F76
:1014C0000E1F1FF0FD3C7F301D043F7F7F0F183043
:1014D000010707077737170480FCFDFDFD7D3D3CC4
:1014E0007EFEFEFFE06FEFEFEFEFEFEF8F2F6F4F1E
:1014F0008F0F0F000000000000070F0F0F0F0F0FDE
:101500000F0F0F0F07070703010000000000000086
:1015100000000000000000000000000000000100CA
:1015200000000004070000000000000006060000A4
:10153000000000000100C0E0000F070301000000F0
:101540000000000103010000010307070F3F7E7840
:10155000000000000000000000000000000000008B
:10156000000000000000000000000000000000007B
:10157000000000000000000000000000000000006B
:10158000000000000000000000000000000000005B
:10159000000000000000000000000000000000004B
:1015A0000000000000000000000000000000060E27
:1015B0000E0000000000000000000000000000001D
:1015C0000000000000000000000000000070F9CAE8
:1015D0000AF8F83090FA8C043464E43D8000210F5E
:1015E0001811180E074D091B18183F1F4060787E10
:1015F0007E78600000C0780CCE0E3CF0C000B8ECE5
:101600000C88E8F83808080CFCC04020383CF0038F
:101610000F3F3F0F03707C67203809091830737F34
:10162000773030171F19105F302013384E40780F75
:101630000184E0E0BCFEFE76B656BE5C1CB8185ACB
:101640001A981818181858181A181818181818125C
:10165000521A1818B8181818B8185CBC5CB858FE9C
:10166000FCF8F0E0C080004F1F3F3F3E7F757A7569
:101670003A35301A10155058101210105010101022
:1016800058707270707070723030383035B0BAB0D7
:1016900091BA353A3DFF7F3F1F0F0703010080C01D
:1016A000E0F0F8FCFEFFFEFCF8F0E0C08000007007
:1016B000FFFF29024902094209FFBB00E000800048
:1016C000FFFF01000200810400FFFF8003007C0097
:1016D00003FF40009200208800FFF81F0000300048
:1016E000F8FF44104010440044FF07180000F0FECB
:1016F0007FFFEA54AA55AA55AAFFFEE0000003277F
:1017000007071F1B3F3D3F3F3F1F0F210006FF0301
:1017100003B3BBAAFE0C04FC00001CF40404F4FC9C
:101720000C04E6F6F6E6FC06063E1CCCE6361E0089
:10173000001F18080F07331F10101312123F1B0849
:10174000080B0F0C08090B0B0B0F08080F040809F6
:10175000171E3818387CFE0E077C78787C0703FE4D
:10176000FCF40706F6FEECE8E8080CE8ECFE0703DC
:1017700083FF787C1C021203070F3E60603E1F0F40
:101780001C30313F3B18080B0F430F1F303C1F3FED
:101790006764647F1C38381000FE0606861C70F8EB
:1017A0000EC20202FEF60404F5FC8484343474FC98
:1017B000CE86263666E6FE070383FF1F7F30101FA6
:1017C0003C30303C1F08081F1B18181B1F090B4B0F
:1017D00008080F193B3338183C2724243F0100E246
:1017E00030109898FE1C18D01030FC1910F0180812
:1017F000F80B06040C1C7F38301E02030367040C30
:101800000C1E43484C7E7E40007E7E121E0C4462BD
:10181000725E4C007E7E121E0C183C3C7E0000283E
:1018200010280000183C3C7E00241842241800E0D8
:10183000FCF8FAF8FCFEF8FEFEFCF8F8F001070FE1
:101840001F0F0F0F07070F1F1F2303FC8C0C78FCC3
:101850000C04841C7E0703FFFA0202FAFE0202E374
:101860008E187C0602FEFC8602323276E6FF010309
:10187000F33F07431E383130101F0E0808080F09C8
:101880000898191F38380F07060C08181F1913136A
:101890001310386F44447E0F06080B00020202004A
:1018A00000090400000102020000052400100105E7
:1018B0002401010104240206052406000107058114
:1018C0000310004009040100020A0000000705029D
:1018D00002400000070583024000000403090412CF
:1018E000010002EF020140412336800001010203A2
:1018F0000141726475696E6F204C4C430041424156
:10190000313130360000DD2111241FBECFEFDAE087
:10191000DEBFCDBF12E0A0E0B1E0ECEFFAE502C01F
:1019200005900D92AE36B107D9F727E0AEE6B2E0EA
:1019300001C01D92AC3AB207E1F71CE0C4E8DCE05C
:1019400004C02197FE010E94562DC338D107C9F764
:101950000E942D220C947C2D0C94000090919F07E6
:10196000982329F490919E07982381E009F480E060
:101970000895CF93C82F611105C080E80E94AE0C76
:10198000882389F18091300381502C2F0C2E000C7C
:10199000330B87FD0FC0082E000C990BB901660FA1
:1019A000771F660F771F482F18160CF442C08093DC
:1019B000300302C01092300380913003082E000CD7
:1019C000990B220F331F220F331F482F8330F4F55A
:1019D0000196FC01E20FF31FE35FFE4F508150318F
:1019E000A1F34093300380E10E94AE0C882309F4F8
:1019F0004BC0209130032F5F8C2FCC0F990B2430DC
:101A000044F5022E000C330BBC01660F771F660FE6
:101A1000771F422F2330F4F42F5F3F4FF901E60F79
:101A2000F71FE35FFE4F5081503199F3409330032D
:101A300013C00197FC01E60FF71FE25FFE4F5181D3
:101A4000503109F4B0CF40933003B6CF80933003C8
:101A5000CACF23E02093300320913003022E000CE4
:101A6000330B880F991F880F991F422F121674F499
:101A700021503109F901E80FF91FE25FFE4F518152
:101A8000503199F340933003CF9108952093300360
:101A9000FBCFE1E8F3E030EB20E146E05C983EBDAF
:101AA0004A95F1F72EBD20E8239507C04491408167
:101AB0005C9A4EBD8111412D419344912A95B1F715
:101AC0003395383B49F70DB40895FC0180912F03FD
:101AD000882311F13FB7F89482E08093E9002091C8
:101AE000F200822F90E01816190614F481E090E0BD
:101AF000882339F0289844E640932E034091F10062
:101B00004083222339F02091F200211103C02BE6FB
:101B10002093E8003FBF08958FEF9FEF08952FB700
:101B2000F89483E08093E9009091E800892F807217
:101B300095FF04C09091F20080E4891B2FBF0895A7
:101B40008091260381110DC082E08093220384E0FE
:101B500080932303109225031092240381E0809345
:101B6000260382E293E00895CF93DF931F92CDB7CF
:101B7000DEB76983DC01ED91FC910280F381E02DF9
:101B800041E050E0BE016F5F7F4F09950F90DF91FC
:101B9000CF91089583E08093E9008091F20088233B
:101BA00019F08AE38093E80008950E948F0D90E079
:101BB0000895CF93DF931F92CDB7DEB7FC018485E4
:101BC000958597FD08C02FEF3FEF358724870F904D
:101BD000DF91CF910895CE0101960E94650D019786
:101BE00019F4898190E0F3CF8FEF9FEFF0CF0F933F
:101BF0001F93CF93DF931F92CDB7DEB78C01FC010B
:101C00008485958597FF0BC0CE0101960E94650DD6
:101C1000019771F4898190E0F80195878487F80134
:101C2000848595850F90DF91CF911F910F91089535
:101C30008FEF9FEFF1CFFC018485958597FD0BC059
:101C40009FB7F89482E08093E9008091F2009FBFF3
:101C500090E0019608959FB7F89482E08093E900A0
:101C60008091F2009FBF90E0089540911C03509135
:101C70001D0320911A0330911B0342175307B4F43C
:101C80009091E8009570E1F39091E80092FD19C001
:101C90008093F10080911C0390911D0301968F7336
:101CA0009927892B19F48EEF8093E80080911C030B
:101CB00090911D03019690931D0380931C0381E076
:101CC000089580E00895DF92EF92FF920F931F93A3
:101CD000CF93DF93D82E8A01EB017B01E40EF51E32
:101CE000CE15DF0559F0D7FE12C0FE0184910E9487
:101CF000350E21968111F4CF0FEF1FEFC801DF9150
:101D0000CF911F910F91FF90EF90DF900895888100
:101D1000EECF0F931F93CF93DF931F92CDB7DEB714
:101D200082E0898342E450E069E978E180E80E943A
:101D3000630E0E94A00DDC0112960D911C910115FD
:101D4000110589F0D801ED91FC910280F381E02D1D
:101D5000BE016F5F7F4FC801099597FD04C0F80170
:101D600000851185ECCF89810F90DF91CF911F9174
:101D70000F910895615030F02091F100FC01208313
:101D80000196F8CF289884E680932E030895109248
:101D90000F031092140308950895AF92BF92CF924B
:101DA000DF92EF92FF920F931F93CF93DF936C011B
:101DB0007B018B01040F151FEB015E01AE18BF08FC
:101DC000C017D10759F06991D601ED91FC910190AE
:101DD000F081E02DC6010995892B79F7C501DF91C6
:101DE000CF911F910F91FF90EF90DF90CF90BF9018
:101DF000AF900895FC010E94910F319728F068512F
:101E00007C4F8F4F9F4FF9CFAB01FC010E94910F88
:101E1000641775078E079F07C8F308958F929F92E6
:101E2000AF92BF92CF92DF92EF92FF920F931F93E8
:101E3000CF93DF936C017B018A0180910D01882390
:101E400009F45AC080912F03882309F455C080916A
:101E5000210380FF05C08091E00082608093E00054
:101E6000E801B12C8AEFA82E93E0892E2AE3922E66
:101E7000209711F4BB20C9F10E948F0D811108C079
:101E8000AA94AA20C9F181E090E00E94FA0EF0CF56
:101E90008C171D0611F00CF08C2F9FB7F8948092D0
:101EA000E9002091E80025FD02C09FBFE1CF282F67
:101EB00030E0C21BD30BF701815020F041914093D9
:101EC000F100FACFE20EF31EBB2021F09092E80061
:101ED000B12CEBCF8091E80085FDE7CF9092E80030
:101EE000BB24B394209709F3F3CF5D9884E68093E5
:101EF0002003101611063CF081E090E0F601938378
:101F0000828310E000E0C801DF91CF911F910F9113
:101F1000FF90EF90DF90CF90BF90AF909F908F9009
:101F20000895A2EFB2E02FB7F8947D918D919C9126
:101F300066B52FBFA89B05C06F3F18F47F5F8F4F1A
:101F40009F4F22E0660F771F881F991F2A95D1F7B0
:101F500008956F927F928F929F92AF92BF92CF928D
:101F6000DF92EF92FF920F931F93CF93DF934C0179
:101F70007B01C22F102F98E0A92EB12C642E6694FD
:101F800066946694712CCA0187709927892B79F51C
:101F9000D40117962D913C91C7019927B9010E9450
:101FA000422D269DF001279DF00D369DF00D112448
:101FB0008E0F9F1FD4011596ED91FC91E80FF91F2C
:101FC0002081111112C0C095C223C083DF91CF912F
:101FD0001F910F91FF90EF90DF90CF90BF90AF9047
:101FE0009F908F907F906F900895C22BEECFD0E09E
:101FF0004770C42ED12C83E0660C771C8A95E1F7DC
:102000009E0101C0220F4A95EAF7012FA301B701F3
:10201000C4010E94A90FA301485F5F4FC5018C193D
:102020009D0902C0D595C7958A95E2F7A7CF5F9223
:102030006F927F928F929F92AF92BF92CF92DF92D8
:10204000EF92FF920F931F93CF93DF93EC016A30CF
:10205000F1F48D859E859C878B878B892F853889A8
:10206000820F932F911D988B8F8781E090E0DF91F5
:10207000CF911F910F91FF90EF90DF90CF90BF9085
:10208000AF909F908F907F906F905F900895AB84FA
:10209000BC84693031F429E0A20EB11CBC86AB8649
:1020A000E4CF3DEFA3163FEFB3060CF45BC08F8186
:1020B0009885A816B9060CF055C0CF84D8888DEF46
:1020C000C8168FEFD8060CF44DC089859A85C816BE
:1020D000D9060CF047C060320CF46FE780EE860F33
:1020E0009FE9960F9A3118F49FEFC91AD90A8C30DC
:1020F00011F08B3119F42FEFC21AD20A869534E011
:10210000839FC00111249C012A55304F7901912CE5
:10211000812C162F1170F701E80DF91D5490111143
:102120002BC0352D3F70532E3501680C791C8C81E6
:10213000882351F001E08989811100E02FE0A60198
:10214000B301CE010E94A90F0989252DA601B30173
:10215000CE010E94A90F8FEF881A980A94E0891681
:102160009104C9F68A8990E004962B853C85820FFC
:10217000931F9C878B8779CF52948FE05822D4CFBE
:102180002D9A089590E00C94FA0E8FB18095807F7F
:10219000669B88601C9B846008951092FB023E98A9
:1021A000579808953E9A579A81E08093FB020895CC
:1021B0002F923F924F925F926F927F928F929F9257
:1021C000AF92BF92CF92DF92EF92FF920F931F9345
:1021D000CF93DF9300D000D000D0CDB7DEB7E22F91
:1021E000F0E0FA83E983E80FF91F1E161F060CF0D2
:1021F00091C0803891050CF08DC0402E512CF20119
:10220000E60FF71F1E161F060CF084C06034710520
:102210000CF080C0F62FF770FF2E23E05594479402
:102220002A95E1F733E0759567953A95E1F7862EA3
:10223000660F9908B4017695762F6627779567958E
:10224000680F791F6F577C4FDA01D12CC12C960192
:10225000280D391D3E832D83283031050CF05AC0DE
:102260002F3F3F4F0CF449C08C0150E040E03B0150
:10227000E0E86E0E711C17FD33C0FD01E40FF51F81
:10228000E491F0E09F010F2C02C0220F331F0A944B
:10229000E2F73C832B832D813E812F3F3F4F09F492
:1022A00064C05B01A40EB51EF5013080F1E0EF12B1
:1022B0004AC02B81322AF5013082FF2089F02D811E
:1022C0003E812730310561F05301A40EB51EF501A2
:1022D0003080F1E0EF1240C02C81322AF5013082CB
:1022E0004F5F5F4F0F5F1F4F29813A81421753079E
:1022F00024F40038110509F0BECF3FEFC31AD30A0A
:1023000060587F4F29813A81A20FB31F4C145D049E
:1023100009F09DCF26960FB6F894DEBF0FBECDBF55
:10232000DF91CF911F910F91FF90EF90DF90CF90B1
:10233000BF90AF909F908F907F906F905F904F90E5
:102340003F902F900895E11004C02B8020943220FC
:10235000B2CFFB813F26AFCFE11004C0EC81E09506
:102360003E22BCCFFC813F26B9CFF110ADCFB8CF14
:1023700080389105B8F460347105A0F490E121E053
:1023800061FD24E060FD220F62FD2295687F969F2B
:10239000D0011124A80FAF57BC4F0C90022A40FF68
:1023A00002260C9208958F929F92AF92BF92CF9285
:1023B000DF92EF92FF920F93CF93DF935B01EC01DB
:1023C0004C01840E911C6B01C20ED11CC815D9059D
:1023D000D4F47501B7FE02C0F12CE12CC60121E452
:1023E000C216D10414F080E490E0E816F9064CF42B
:1023F000402FB701CE010E94B8118FEFE81AF80AFA
:10240000EDCF2196E3CFDF91CF910F91FF90EF9029
:10241000DF90CF90BF90AF909F908F9008952F92B4
:102420003F924F925F926F927F928F929F92AF9264
:10243000BF92CF92DF92EF92FF920F931F93CF93B1
:10244000DF93EC018B017A016901C61AD70AD7FE26
:1024500003C0D194C194D10847018C1A9D0A97FEFC
:1024600003C09194819491088C149D0454F49E2D82
:102470008F2D7901292F382F9C2F8D2FE801092FBF
:10248000182FEC16FD0654F4902F812F8901292F67
:10249000382F9C2F8D2FE701E92EF82E17012C1ACB
:1024A0003D0A2901401A510A57FE03C05194419434
:1024B0005108310137FE03C08FEF681A780A75940E
:1024C00067948FEF021713070CF481E0A82E880F92
:1024D000BB08EC16FD06A4F041E0BE01C8018C1457
:1024E0009D0414F0B801CE010E94B811641875085B
:1024F00077FE04C00A0D1B1D620C731C2196E9CFE8
:10250000DF91CF911F910F91FF90EF90DF90CF90CF
:10251000BF90AF909F908F907F906F905F904F9003
:102520003F902F9008952F923F924F925F926F921B
:102530007F928F929F92AF92BF92CF92DF92EF9253
:10254000FF920F931F93CF93DF93CDB7DEB72A97F8
:102550000FB6F894DEBF0FBECDBF9A8389836A3071
:1025600061F5DC0155968C91B8E08B9F90011124A8
:10257000E981FA8181899289820F931F928B818BE5
:10258000108A178681E090E02A960FB6F894DEBF95
:102590000FBECDBFDF91CF911F910F91FF90EF90B4
:1025A000DF90CF90BF90AF909F908F907F906F9073
:1025B0005F904F903F902F9008956D3019F32981CF
:1025C0003A813A872987D9011F96AD90BC90B0E82F
:1025D000AB16B1040CF07BC0F901C188D288F0E4DD
:1025E000CF16D1040CF073C0D90155966C90559755
:1025F00045E09501649E200D311D1124121613062D
:102600000CF065C0262C312C910153E0220F331FB2
:102610005A95E1F72C0D3D1D121613060CF057C00C
:102620005496BC91BB83E985FA85F389FC83649F4A
:10263000B00111249B012A55354F3A832983712C0F
:10264000E981FA818491F5E07F1201C080E04601C2
:1026500038E0532E282F30E03E832D834C8080FFBE
:102660004B80411004C03B818C813817E1F010E0B1
:1026700000E00615C0F4D501A00FB11FB887AF83E5
:10268000F12CE12CE61460F4B701680D791D442D9E
:102690008F8198850E94B811BFEFEB1AFB0AF2CF29
:1026A0000F5F1F4FE6CF8D819E81959587955A9438
:1026B000820C931C5110CECF7394E981FA8131962C
:1026C000FA83E983A20CB31CF6E07F12B9CFA98587
:1026D000BA8555962C915597422F50E01F968D91B3
:1026E0009C91B6E02B9F800D911D1124E985FA8500
:1026F000908B87872689222309F444CF6AEF6403ED
:102700009001659F300D112420583F4F281739073D
:102710000CF038CFDF010190F081E02D0190F081C5
:10272000E02D6AE0CD0109952DCF0F931F93CF9334
:10273000DF938C01D0E0C0E0F801EC0FFD1F649145
:10274000662341F085E997E00E949312892B11F0EE
:102750002196F2CFCE01DF91CF911F910F91089575
:102760000895089590E080E008956F927F928F928F
:102770009F92AF92BF92CF92DF92EF920F931F93EF
:10278000CF93DF93162F94E0890240011124D0E00B
:10279000C0E0D12CC12CA42E440FBB08350184E02D
:1027A000680E711CF401EC0DFD1DE25FFE4F4081CF
:1027B000403101F1042E000C550B1C1130C0569510
:1027C000542F4427579547954A555D4FE09118037C
:1027D0000E2E000CFF0BEC5DFD4F8081BE01680FDB
:1027E000711D87FD7A95EE24E39400E120E1C50197
:1027F0000E94D8109FEFC91AD90A6096C034D1053B
:1028000089F6DF91CF911F910F91EF90DF90CF90DC
:10281000BF90AF909F908F907F906F90089583E0CE
:10282000440F551F8A95E1F7425E5D4FEE24E39415
:1028300008E028E0BE016C5F7F4FC301D9CF8F92C3
:102840009F92AF92BF92CF92DF92EF920F931F931E
:10285000CF93DF93162FE09118030E2E000CFF0B81
:10286000EC5DFD4FC0800C2C000CDD0846013FE004
:10287000830E911CC82F880FDD0BEE24E39400E13A
:1028800021E248ED51E0B401CE010F960E94D8102C
:10289000CE0101965C01113009F053C08091130301
:1028A000882309F44EC022E14FED57E1B401CE0177
:1028B00002970E94D81001E02AE04EE262E270E046
:1028C000CE010E94D311E4E01E02E0011124C25F98
:1028D000DE4F650110E04991F8E04F02A00111249C
:1028E000425E5D4F82E0E82E08E028E063E270E09F
:1028F000C6010E94D8103CE0C30ED11C1F5F1430EB
:1029000051F780910F03843084F4EE24E39428E09F
:1029100040ED51E06EE270E0F5013CE08302E00D35
:10292000F11D1124CF010E94D810DF91CF911F918A
:102930000F91EF90DF90CF90BF90AF909F908F90CE
:102940000895EE24E39400E12EE04FE258E1B40153
:10295000C5010E94D8109BE01902A00111244D5F0F
:10296000574EB6016E5E7F4FE12C08E02BE0CE01A2
:1029700003969FCF90E09C01359527952575880F8C
:10298000991F8A7A282B30E0C901959587959595EE
:1029900087958373220F331F220F331F2C7C822BCA
:1029A000829508952F923F924F925F926F927F92FD
:1029B0008F929F92AF92BF92CF92DF92EF92FF924F
:1029C0000F931F93CF93DF93CDB7DEB728970FB642
:1029D000F894DEBF0FBECDBFFA013F96EF38F10588
:1029E00008F0C1C0F9013F96EF34F10508F0BBC013
:1029F0003A83298337FF06C0AA27BB27A21BB30B44
:102A0000BA83A983E981FA81E770FF27F887EF830A
:102A1000290137FF03C0F7E04F0E511C73E05594B6
:102A200047947A95E1F737FF0CC021E0421A51082C
:102A300028E030E0D901EF81F885AE1BBF0BB887E5
:102A4000AF833A01362E282E5801912C812C88E034
:102A500090E09C014F815885241B350B3E832D83CC
:102A6000EE24E394F12CE818F908311001C0740148
:102A7000E40CF51C58E0E516F10409F474C08EEF7F
:102A8000E8168FEFF80609F468C0C7019695982FED
:102A9000882797958795DC01A60DB71DBA83A98372
:102AA00080589F4FFC01E60DF71DFC83EB83D12C72
:102AB000C12C00E110E00C191D09211001C0860194
:102AC000C301800F911F803891050CF046C097FD1F
:102AD0003CC0FFEFEF16FF0609F462C0F601EA0DF5
:102AE000FB1D849131100E94BA1490E00F8002C047
:102AF000880F991F0A94E2F7A981BA81A00FB11F2C
:102B0000AF57BC4FEC918E2B8C932F813885232BA4
:102B1000E1F037E0E316F104C1F0F601EA0DFB1D28
:102B2000849131100E94BA1490E00D8002C09595F6
:102B300087950A94E2F74B815C81040F151FD80139
:102B4000AF57BC4FEC918E2B8C935FEFC51AD50A13
:102B500080E1C816D10409F0ACCF90E1A90EB11CF8
:102B60008A948928C9F428960FB6F894DEBF0FBE60
:102B7000CDBFDF91CF911F910F91FF90EF90DF902C
:102B8000CF90BF90AF909F908F907F906F905F900D
:102B90004F903F902F90089588248394912C60CF7C
:102BA000EF81F885EF2B09F0B8CFCFCFCF93C82FA7
:102BB00080E80E94AE0C882329F080913003815078
:102BC0008093300380E10E94AE0C882329F080912D
:102BD00030038F5F809330038091300387FD109224
:102BE000300380913003C81714F4C0933003CF91A1
:102BF0000895CF92DF92EF92FF92CF932091FB0244
:102C0000222331F1C62FBC01990F880B990B0E942A
:102C1000122C6B017C0120E030E040E05FE30E9479
:102C2000C72C20E034E244E757E40E94F72AA701CA
:102C300096010E94682B0E94E12B61507109C0939C
:102C4000170380E48093C0007093BF006093D100AD
:102C5000CF91FF90EF90DF90CF9008951F93CF9387
:102C6000DF93182FEB0188E00E94AE0C882371F0EF
:102C700065E089EA91E00E94F91510931503209709
:102C800029F0FE01DF91CF911F910994DF91CF913F
:102C90001F910895109230031092FF021092FE02CD
:102CA0001092FD02109208031092090310920B0378
:102CB00010920C0310920D0310920E031092070352
:102CC00010920603109201031092000381E080939A
:102CD0000001109202031092030310920403109259
:102CE00005038FEF8093010110927A02109279020E
:102CF00010927C0210927B021092780210920A03CA
:102D0000089594E08902A001112430E020E080E0E1
:102D1000F901E40FF51FE25FFE4F9081961301C0A9
:102D20008F5F2F5F3F4F2430310591F70895CF9388
:102D3000DF93D0911403C1E0D111C0E080910A0368
:102D4000882381F0EC2FF0E080910101EE0FFF1F4E
:102D5000EE0FFF1FE25FFE4FE80FF11D87FDFA95B2
:102D600080E1808360E18C2F0E948116843099F489
:102D700080911303882349F0D11107C08091EF029D
:102D80008F3F19F08F5F8093EF0286E080931503E9
:102D9000DF91CF9108950E944A16E9E8F2E013828C
:102DA000359682E0ED3EF807D1F7C09314031092F8
:102DB00030031092ED0261E08C2FDF91CF910C94E3
:102DC000B90C94E08902F0011124E25FFE4F80E12A
:102DD0008083818382838383089510920F0381E02F
:102DE0000E94E116EEE0F1E0808580838185818399
:102DF00082858283838583830E944A1681E0809343
:102E0000140308958F929F92AF92BF920F931F93D6
:102E1000CF93DF93CDB7DEB7A1970FB6F894DEBF9F
:102E20000FBECDBF19A2423008F44AE08E010F5DFB
:102E30001F4F842E912CB12CA12CA50194010E942E
:102E4000C52AE62FB901CA01EA3044F5E05DD80190
:102E5000EE938D01232B242B252B79F790E080E036
:102E6000109769F0FD0101900020E9F73197AF015B
:102E70004A1B5B0BBD0185E997E00E94CD0EA19630
:102E80000FB6F894DEBF0FBECDBFDF91CF911F917B
:102E90000F91BF90AF909F908F900895E95CD7CF2E
:102EA000FC0101900020E9F73197AF01481B590B55
:102EB000BC0181E897E00C94CD0E8F929F92AF9267
:102EC000BF92CF92DF92EF92FF920F931F93CF9317
:102ED000DF939091ED02492F092E000C550B2091A4
:102EE0003003E22F022E000CFF0B6EE02602900151
:102EF00011244217530739F0421753070CF0ADC0A5
:102F00009E5F9093ED0291E0909392072091ED02E5
:102F1000022E000C330B46E150E050938F07409394
:102F20008E0750938D0740938C0730939107209321
:102F3000900794E08902E0011124C25FDE4FEC0F9C
:102F4000FD1F80812BE08202C00111248C589E4F0E
:102F50000E945017E090ED020E2C000CFF08B70104
:102F60006B5F7F4F01E020E14BE286E190E00E9441
:102F7000D31180913003B70193E08902600D711D78
:102F800011246B5F7F4FEE24E39408E024E04AE1D4
:102F900052E082E190E00E94D8108BE2A82E81E0FE
:102FA000B82ED12CC12CF12CE12C97E1892E912C3B
:102FB0001BE0109292078091ED02082E000C990BF5
:102FC00006968C0D9D1D90928F0780928E07909291
:102FD0008D0780928C079093910780939007C5018D
:102FE0000E94501780913003FE01E80FF11D87FD0C
:102FF000FA9520812103F0011124EC58FE4FEE0DCB
:10300000FF1D40854F5F6091ED02062E000C770B8F
:103010006A5F7F4F6C0D7D1D00E024E085E390E04A
:103020000E94D3112FEFE21AF20A65E0C60ED11CFE
:1030300087E0A80EB11C93E0E916F10409F0B9CFBE
:10304000DF91CF911F910F91FF90EF90DF90CF9084
:10305000BF90AF909F908F900895925052CF0C9454
:103060007D2AEF920F931F93CF93DF931091EE027F
:10307000E09118030E2E000CFF0BEC5DFD4FC0819C
:103080000C2E000CDD0B112369F0EE24E39400E11B
:103090002DE146E951E0BE016C5F7F4F8EE290E08A
:1030A0000E94D810BE01625F7F4FEE24E39400E1DE
:1030B00029E444E051E08CE190E00E94D810112313
:1030C00021F0809119038530CCF08AE390E0909351
:1030D000A5078093A40786E290E09093A7078093CA
:1030E000A6076091F60270E090E080E04AE0DF9190
:1030F000CF911F910F91EF900C940217DF91CF9118
:103100001F910F91EF900895CF92DF92EF92FF926F
:103110006B017C01C114D104E104F10441F00E946F
:10312000252AA70196010E94932A6B017C01C70101
:10313000B601FF90EF90DF90CF9008956091FE026E
:10314000062E000C770B880B990B0E94122C20E0A6
:1031500030E040EA51E40E94682B20E030E040EC8F
:1031600050E40E94C72C20E030E040EE50E40E9482
:10317000F72A9B01AC0160E070E0CB010E94F62AC7
:1031800060930203709303038093040390930503F9
:103190006091FD02062E000C770B880B990B0E94A4
:1031A000122C20E030E040EA51E40E94682B20E03D
:1031B00030E040EC50E40E94C72C20E030E040E6D4
:1031C00051E40E94F72A60930B0370930C038093E1
:1031D0000D0390930E0369E070E080E090E00E94A0
:1031E00084186F5F7F4F8F4F9F4F609308036FE985
:1031F00070E080E090E00E9484186F5F7F4F8F4FF7
:103200009F4F6093090308958091110387FD8F5F9D
:1032100085958093FD020E949E181092120368E229
:1032200070E080E090E00E9484186093110308959C
:103230008091110387FD8F5F85958093FE0281E069
:103240008093120368E270E080E090E00E948418AE
:10325000609311030895E09130030E2E000CFF0BD4
:10326000E25EFE4F808190910F03890F8430B8F5A4
:1032700080930101E1E0F0E020911403222311F09A
:10328000F0E0E0E020910101EE0FFF1FEE0FFF1FC5
:10329000E25FFE4FE20FF11D27FDFA95808180313C
:1032A00019F48FEF809301011092120368E270E02D
:1032B00080E090E00E948418609311038FEF809368
:1032C000100361E070E080E090E00E948418672BBA
:1032D000682B692B19F081E08093100308958FEF1C
:1032E000C7CF8091300380930F0366E070E080E0E9
:1032F00090E00E9484186D5F7F4F8F4F9F4F6093C7
:10330000300308952F923F924F925F926F927F9277
:103310008F929F92AF92BF92CF92DF92EF92FF92E5
:103320000F931F93CF93DF938091160318161CF40D
:10333000815080931603C09016038C2D0C2C000C2A
:10334000990BAA0BBB0BDD24C1940CF4D0940D2C6B
:10335000000CEE08FF08C816D906EA06FB0664F45E
:10336000BC01CD016C197D098E099F090E9484184A
:10337000C60ED71EE81EF91ECC2DC09016038C2D4C
:103380000C2C000C990BAA0BBB0BDD24C1940CF484
:10339000D0940D2C000CEE08FF08C816D906EA06DA
:1033A000FB0664F4BC01CD016C197D098E099F09EF
:1033B0000E948418C60ED71EE81EF91EA0900603B0
:1033C000B0900703C50125E9A21623E0B20614F068
:1033D00084E993E00C2C000CDD08760142E3E40E56
:1033E000F11C0C2E000CDD0BA0E4EA16F10470F5C4
:1033F0009E0120583F4F51F1AE01D7FF02C050E06F
:1034000040E02138310514F020E830E0241B31E0A1
:10341000B7016770772701C0330F6A95EAF7F701A4
:10342000A3E0F595E795AA95E1F7F695FE2FEE272F
:10343000F795E795E40FF51FEF57FC4F215030F05B
:103440004191DF011197432B4C93F8CF60E270E07C
:103450000E94422D8E01005F1F4F081B190BE0EFE9
:103460006E2E77247A94681A790A660C771C512C90
:103470004601BAE08B1A910897FE02C0912C812C6C
:10348000C701E1E4EE16F10414F080E490E0881640
:1034900099064CF441E0B401C8010E94B811FFEF55
:1034A0008F1A9F0AEDCF20E430E0A301B701C801D5
:1034B0000E940F12005E1F4F20E4620E711C539495
:1034C00045E05412D5CF79E8672E72E0772E43019C
:1034D000D40113961C911116C4F5B4E9AB16B3E0F0
:1034E000BB064CF5F40160817181072E000C880B3E
:1034F000990B0E94122C1B012C0160910001062ED9
:10350000000C770B880B990B0E94122C20910B0357
:1035100030910C0340910D0350910E030E94C72C73
:103520009B01AC01C201B1010E94F62A0E94DA2B74
:10353000D4016D937C93D401ED91FC91E03CBFEFFD
:10354000FB070CF08FC0F4011382F5E08F0E911C85
:103550008DEE92E08815990509F0BACF8FEF9FEFB5
:1035600090938402809383029093860280938502D5
:1035700081E0809387028093880228E730E03093CF
:103580007E0220937D023093800220937F028093FD
:1035900081028093820298EEA91693E0B9060CF09E
:1035A000F3C0C501A4E9AA16A3E0BA0614F484E99D
:1035B00093E058E9A52EA80E9090000388E2B82E5B
:1035C000B91820900B0330900C0340900D035090DD
:1035D0000E0320E030E0A901C201B1010E94C22C1B
:1035E00018160CF072C020E030E040E05FE3C2014A
:1035F000B1010E94C72C9B01AC0160E070E080E04B
:1036000091E40E94F62A0E94DA2B16161706180675
:1036100019060CF453C0F12CE12CF30183818111C4
:10362000DFC16BE070E080E090E00E94841885E0EC
:103630008E9D80018F9D100D112407571D4FD801BD
:1036400014966C936BE070E080E090E00E94841828
:10365000F80163838A2D90E0918380838CE289193D
:10366000828333C0D40114962C91812F012E000C3B
:10367000990B820F911D27FD9A956BE070E00E94D7
:10368000422DAC0163E0440F551F6A95E1F74455A4
:103690005F4FD40112968C91B601680F711D87FDA2
:1036A0007A95EE24E39408E028E0CE018E0F9F1F68
:1036B0000E94D8101150F401138347CF0E94841840
:1036C000672B682B692B09F4A6CF46018B0C911C44
:1036D000B7FC9A94340181E0681A7108AC0EBD2ED3
:1036E000B11C750191E0E91AF10800E022E142E124
:1036F000B301C7010E94D31120910903E091140383
:1037000080910F03A4E0EA02F0011124E25FFE4F72
:10371000E80FF11D87FDFA950081B4E00B028001EE
:103720001124822F64E10E94342D837887FF03C027
:1037300081508C6F8F5F080F111D87FD1A9545E032
:10374000000F111F4A95E1F70A551D4F81E0203502
:103750000CF480E090910001682F913021F061E03D
:1037600020350CF060E09401A5010E94D214F09283
:103770008402E0928302709286026092850282E166
:1037800080938702809388021091010117FDB6C1D2
:1037900080910603909107038531E3E09E070CF4C6
:1037A00076C0A0907B02B0907C02F4E4AF16B10426
:1037B0000CF06DC02091790230917A02760148E2D6
:1037C000E40EF11CE20EF31E8539A3E09A0714F013
:1037D00084E993E098ED981BC90FD11D97FDDA9508
:1037E000AC0EBD1E00E022E142E1B701615071095B
:1037F000C50101970E94D31120917802E1E0F0E029
:1038000030911403332311F0F0E0E0E0EE0FFF1FDE
:10381000EE0FFF1FE25FFE4FE10FF11D17FDFA955E
:103820000081B4E00B0280011124822F64E10E9428
:10383000342D837887FF03C081508C6F8F5F080F12
:10384000111D87FD1A9595E0000F111F9A95E1F75C
:103850000A551D4F61E020350CF460E081E0203511
:103860000CF080E09701A5010E94D2142197D0931B
:103870007E02C0937D02E7E2CE0ED11CD092800280
:10388000C0927F0282E18093810280938202D09174
:103890008702D23008F4E6C0C0918102C23008F439
:1038A000E1C080910A038111E2C020E030E0A9016B
:1038B00060910B0370910C0380910D0390910E03A6
:1038C0000E94C22C18160CF019C14091830250912D
:1038D000840280917D0290917E029A012D0F311D0C
:1038E000821793070CF00AC18C0F911D48175907D6
:1038F0000CF004C1409185025091860260917F02D4
:103900007091800220918802240F352F311D62179B
:1039100073070CF0F3C080918202860F972F911DE0
:10392000481759070CF0EAC06091FF02062E000C00
:10393000770B880B990B16161706180619060CF448
:103940005BC081E080930A038FE08093160363E0FD
:1039500070E080E090E00E948418672B682B692B50
:1039600009F4DFC069E070E080E090E00E94841814
:103970006F5F7F4F8F4F9F4F6093080360910203EB
:103980007091030380910403909105030E94DA2B48
:1039900016161706180619060CF0C7C00E948418E0
:1039A0000E94122C609374027093750280937602C9
:1039B0009093770210927A021092790210927C0210
:1039C00010927B0260EA70E080E090E00E94841830
:1039D0006093780264E184EF91E00E94F91542C09F
:1039E000FFEFEF1AFF0A25E0620E711C44E1E416B6
:1039F000F10409F012CE69CE0E948418672B682B5F
:103A0000692B09F49ECF6BE070E080E090E00E94AB
:103A10008418AB01BC01E1E0F0E020911403222303
:103A200011F0F0E0E0E020910101EE0FFF1FEE0F3A
:103A3000FF1FE25FFE4FE20FF11D27FDFA95E081C7
:103A40002BE0E202F0011124EC58FE4F8185082E94
:103A5000000C990BAA0BBB0B84179507A607B70799
:103A60000CF46FCF80910A03882309F447C060915A
:103A7000790270917A02072E000C880B990B0E9434
:103A8000122C4B015C01C0907402D0907502E09042
:103A90007602F090770220E030E0A901C701B6017C
:103AA0000E94C22C181624F0F7FAF094F7F8F0945C
:103AB000A7019601C501B4010E94F72A0E94DA2BE2
:103AC00070937A026093790260917B0270917C021C
:103AD000072E000C880B990B0E94122C20910B03CF
:103AE00030910C0340910D0350910E030E94F72A70
:103AF0000E94DA2B70937C0260937B02DF91CF915E
:103B00001F910F91FF90EF90DF90CF90BF90AF90FB
:103B10009F908F907F906F905F904F903F902F90ED
:103B200008958FEF809300011DCF60E070E0CB011E
:103B300037CFCF93DF93C82F64E070E080E090E050
:103B40000E94841884E0C802E0011124C25FDE4FA5
:103B5000FE01E60FF11D67FDFA958081803139F491
:103B600064E070E080E090E00E948418F1CF862F3E
:103B7000DF91CF910895DF92EF92FF920F931F9301
:103B8000CF93DF93082FD62E84E008027001112412
:103B9000D0E0C0E060E170E080E090E00E94841836
:103BA000162F802F0E9481161816A4F3612F8D2DD9
:103BB0000E948116181674F3F701EC0FFD1FE25FE7
:103BC000FE4F10832196C430D10521F7DF91CF91AC
:103BD0001F910F91FF90EF90DF9008959091140343
:103BE00080910F03E09130030E2E000CFF0BE25F7B
:103BF000FE4F208534E09302F0011124E25FFE4F76
:103C0000E80FF11D87FDFA9520838F5F80930F03E6
:103C1000843064F0913019F487E08093150381E0DB
:103C2000911180E08093140310920F0310923003DF
:103C30001092ED026091140382E00C94BB1D10926F
:103C40000F031092EE021092EF020E94ED161092F6
:103C5000140380E00E94E11681E00E94E11682E0F8
:103C60000E94E11660E082E00E94BB1D10923003CA
:103C70001092ED020895109213030C941F1E81E020
:103C8000809313030C941F1EFF920F931F93CF93E7
:103C9000DF93EC01F62E08811981C8010E947D2A6C
:103CA000F81621F06F2DC8010E94852ACE01DF9100
:103CB000CF911F910F91FF900895CF93DF9300D084
:103CC000CDB7DEB76091EF028091F602861768F4F7
:103CD00081E08093EE026093F6028CE690E09A8396
:103CE0008983CE0101960E94441E0F900F90DF91B0
:103CF000CF9108951F920F920FB60F9211248F93B8
:103D00009F938091E1009091E100937F9093E10077
:103D100083FF0FC01092E90091E09093EB001092A6
:103D2000EC0092E39093ED0010922F0398E09093B3
:103D3000F00082FF22C093E09093E9009091F2009E
:103D4000992319F09AE39093E80090912003992326
:103D500041F090912003915090932003911101C064
:103D60005D9A90912E03992341F090912E039150EA
:103D700090932E03911101C0289A84FF18C080915E
:103D8000E2008E7E81608093E2008091E1008F7E70
:103D90008093E100809121038E7E806180932103D6
:103DA0009F918F910F900FBE0F901F90189580FFDD
:103DB000F7CF8091E2008E7E80618093E200809157
:103DC000E1008E7E8093E100809121038E7E8160F0
:103DD000E5CF1F920F920FB60F921124CF92DF9270
:103DE000EF92FF920F931F932F933F934F935F9305
:103DF0006F937F938F939F93AF93BF93EF93FF93B3
:103E0000CF93DF93CDB7DEB76C97DEBFCDBF1092F7
:103E1000E9008091E80083FF25C068E0CE01459667
:103E20000E94BA0E82EF8093E8008D8987FF39C027
:103E30009091E80090FFFCCF982F907609F034C164
:103E40009E894F89588D2F89F88C911131C0803807
:103E500061F580911F038093F1001092F1008EEFC5
:103E60008093E8006C960FB6F894DEBF0FBECDBF0E
:103E7000DF91CF91FF91EF91BF91AF919F918F9182
:103E80007F916F915F914F913F912F911F910F9172
:103E9000FF90EF90DF90CF900F900FBE0F901F908C
:103EA00018959EEF9093E800C7CF1092F100D5CF00
:103EB000913059F48111D3CF4130510581F6809171
:103EC0001F038D7F80931F03CACF933049F4811164
:103ED000C6CF4130510519F680911F038260F2CFA1
:103EE000953041F48091E80080FFFCCF206820935A
:103EF000E300B5CF963009F0A9C00B8D1C8D22E0F0
:103F00001092E90010921D0310921C03F2122EC0B1
:103F100010921B0310921A030E94890E1F8299E0CF
:103F20009983FA8291E09E8390EA98879AEF998725
:103F300020911C0330911D03275F3F4F3C832B834F
:103F40008D831092E90010921D0310921C031093B0
:103F50001B0300931A0349E050E0BE016F5F7F4FDF
:103F600080E00E94630E0E94890E79CF10931B039C
:103F700000931A030E94A00DDC0112960D911C9172
:103F80000115110509F451C1D801ED91FC9104808E
:103F9000F581E02DBE016B5E7F4FC801099500974A
:103FA00009F03EC1F80100851185EACFF3E0FF1268
:103FB0000EC08F89882309F440C0823061F440E844
:103FC00067E08DEF98E10E946521811148CF81E281
:103FD0008093EB0047CF813029F440E86BE081EF1C
:103FE00098E1F1CF833099F70E94A00DDC01129681
:103FF000ED90FC908E010F5F1F4F6801E114F104FA
:1040000079F0D701ED91FC910680F781E02DB801A0
:10401000C7010995080F111DF701E084F184EECF67
:10402000D8011C92F60101900020E9F73197BF01F9
:104030006C197D0940E0C601C6CF6BED78E1FB014C
:10404000449150E080E80E94630E09CF973009F454
:10405000BECF983021F481E08093F10000CF9930F9
:1040600009F0FDCE837009F0B2CFE5E3F2E081E024
:1040700031E096E32191222371F08093E90030939F
:10408000EB00DF0111972C912093EC009093ED0051
:104090008F5F873079F78EE78093EA001092EA000D
:1040A0008F8980932F03DBCE8B8D9C8D1092E9003E
:1040B00010921D0310921C0390931B0380931A030C
:1040C000898D811192C08E899D89913A49F48132FE
:1040D00009F07DCF47E050E066E071E080E0B3CFCB
:1040E000913209F074CF833269F48F89988DB0E0F2
:1040F000A0E08093020190930301A0930401B09388
:104100000501ADCE803269F48091E80082FFFCCFDA
:1041100067E086E091E00E94BA0E8BEF8093E800A2
:104120009ECE823209F09BCE8F8980930D01EEEFF7
:10413000FFE7859194918B3F9C4D51F1E0E0F8E0D1
:104140008091060190910701A0910801B0910901A9
:10415000803B9440A105B105F1F480910D0180FDF3
:104160001AC0EE3F8AE0F80789F587E797E7918361
:1041700080838091600080931E0388E19BE00FB6EE
:10418000F894A895809360000FBE9093600067CE6E
:10419000EEEFFAE0D5CF808191818737974709F01C
:1041A0005ECEA895809160008861809360008091C8
:1041B0001E0380936000EE3F2AE0F20789F08091B1
:1041C000FE0A9091FF0A9183808349CE808191817C
:1041D0008737980751F29093FF0A8093FE0AC5CF64
:1041E0001092FF0A1092FE0A3ACE0E94A00DDC0146
:1041F00012960D911C910115110509F4E8CED80114
:10420000ED91FC910190F081E02DBE016B5E7F4F3E
:10421000C8010995811123CEF80100851185EBCFE6
:10422000181619060CF41BCED2CEF1E0FF12BECE4A
:104230006FED78E104CF0F920FB68F939F93EF93BA
:10424000FF938091F1028D5F8D3708F08D57809339
:10425000F102E7EFF2E080818E4F808391819F4FE2
:10426000918382818F4F828383818F4F8383E2EF9B
:10427000F2E080818F5F808381818F4F8183828193
:104280008F4F828383818F4F83838FB18F60669935
:104290001C9B88278F3681F48091F002981B963002
:1042A00068F0E0E0F8E087E78083818388E180932D
:1042B0006000F0936000FFCF9093F002FF91EF91C8
:1042C0009F918F910FBE0F901895EF92FF920F93D1
:1042D0001F93CF93DF93F82E192FE62E042F81E042
:1042E000860F880F0E94350E83E00E94350ECF2D79
:1042F000D12FEC0EFD2EF11CCE15DF05B9F007FF16
:1043000013C0FE0184910E94350E182F80E00E9498
:10431000350E812321968111EFCFDF91CF911F912F
:104320000F91FF90EF9008958881EDCF81E0F5CF58
:104330000F931F93CF93DF938C0181E090E00E9455
:104340002F1880FF32C08AE090E00E942F189FEF64
:10435000980F9E3F50F522E330E0D80150963C93F1
:104360002E931F9728E330E052963C932E9351975B
:10437000CBE0D0E0D801ED91FC910190F081E02DEF
:10438000682FC8010995CE010E942F182196C131CE
:10439000D10581F780E00E94490D88EE93E0DF911E
:1043A000CF911F910F910C94FA0EDF91CF911F9135
:1043B0000F91089504970C949821E1E3F3E01382A0
:1043C000128288EE93E0A0E0B0E084839583A68318
:1043D000B7838FE392E0918380838FEF9FEF958780
:1043E0008487E5E9F7E0138212821186128680E164
:1043F00083871086178215868DE592E091838083EE
:104400008BE692E095838483108A1786128A118A3C
:1044100081E0838B148A858B168AE1E8F7E01382AA
:10442000128221E532E03183208321E833E03683B4
:10443000258320E830E03087278320E430E032878E
:10444000218795E0938B828B16861586108A1786B6
:1044500014861386818B1482089500D0CDB7DEB701
:10446000789483E084BD83E085BD81E080936E0015
:10447000E1E8F0E083E08083E0E881E08083E1E947
:1044800083E08083E0E981E08083E1EC87E0808362
:10449000E3EC81E08083E0EC82E08083E2EC81E089
:1044A0008083EAE787E080838068808310922F030F
:1044B00010921F03109221038091D7008160809396
:1044C000D70080EA8093D80089B5806189BD89B51D
:1044D000826089BD09B400FEFDCF81E090E00E94BA
:1044E000FA0E8091D8008F7C80618093D8008091F3
:1044F000E000807F8093E0008091E1008E7E8093D9
:10450000E1008DE08093E200559A209A81EC80933F
:104510007C0081E785B987E684B985E38BB98FE3B1
:104520008AB9769A6E9880EF81BB10BA80E58CBD0F
:1045300081E08DBD85E00E94C210599A85E00E94FD
:10454000C2105C98E6E1F1E185918EBD00000DB4EA
:1045500007FEFDCFE032C1F75C9A81E880936400EA
:1045600081E0809365000E94490D0E94C51002E021
:1045700010E087FF15C05C9885EA8EBD00000DB481
:1045800007FEFDCF5C9A2E9858982D988091640074
:1045900080628093640081E083BF889513BEFCCF66
:1045A0000E94C51082FF3DC02D980E94C5108478DE
:1045B0008438B9F40E94C01088EC0E94C210589848
:1045C0001A8309836FEFCE0101960E94441E84EF87
:1045D00091E00E94FA0E589A0E94C510847884389F
:1045E000D9F30E94C51084718431B9F40E94C010BF
:1045F00088EC0E94C2102E981A83098360E0CE01D5
:1046000001960E94441E84EF91E00E94FA0E2E9AB9
:104610000E94C51084718431D9F388EC0E94C210C5
:10462000BFCF0E94C01082E090E00E942F18882324
:1046300009F48FC00E94D21081E090E00E942F18F0
:1046400081FF10C0182F147082FD2E9841EFC42EE8
:10465000DD24DA940E94C51086FF7EC02E9A589AF7
:104660000E94C01082E30E94C2100E94C5108111F6
:10467000F9CF86E18093A007809164008E7F8093BC
:10468000640080917A00806480937A0080917A003F
:1046900086FDFCCF00917800109179000E94910F67
:1046A000AB01BC01C801B0E0A0E0DC01992788277C
:1046B0008C019D01040F151F261F371FC901B8016A
:1046C00020916400216020936400611571058105CB
:1046D000910511F00E94742A1092C00088E0809326
:1046E000C1001092C3001092BF001092CF0084B599
:1046F0008F7D589A84BD809180008F752E9A2D9A57
:10470000809380008CE690E00E947D2A8093F602E0
:1047100011E084E4A82EB12C91E3892E912C20E0A5
:10472000222E20E0322E9091F7028091A107292FAE
:10473000281B822F2091A207222309F440C08093D6
:10474000A3071092A2072114310469F30E9400000C
:10475000DFCF0E94CD1070CF112331F004E0C016DE
:10476000D10411F42E9A589881E00E94490DEE244C
:10477000E39400E128E546E650E1B60184E190E0EB
:104780000E94D81080E00E94490D8FE00E94C21064
:104790002FEFC21AD20A39E1C316D10409F05ACF59
:1047A000112311F0589A2D9880E991E00E94FA0E99
:1047B0000E94C01085E997E00E94982153CF209174
:1047C000A007821740F48F5F821708F0BCCF13BF99
:1047D000889513BEB8CF1093A2079093A107ECE978
:1047E000F7E0808191810196808391838091190304
:1047F0008F5F809319038C303CF0809118031092E6
:1048000019038F5F8093180380911803803114F08F
:104810001092180380911703882339F081508093F8
:104820001703811102C01092C00080919E078093EF
:104830009F070E94C51080939E0790E0E1E8F3E097
:1048400091119FEF8FEF9193919391939193815059
:10485000D0F71092A7071092A6071092A507109202
:10486000A40786E18093A0078091160318161CF414
:10487000815080931603E0911503EC3008F0FDC0E1
:104880000E2E000CFF0BE95BFB4D0C94562D5324B0
:10489000A1247D258325D1259E265629B625852749
:1048A0003D257526D629EE24E39400E320E341E478
:1048B00051E168E070E088E090E00E94D8108BE45D
:1048C00090E09093A5078093A40788E090E09093F0
:1048D000A7078093A60788E391E10E94951327E537
:1048E00030E03093A5072093A40782E190E09093F5
:1048F000A7078093A60781E391E10E94951386E5BF
:1049000090E09093A5078093A40786E290E09093AF
:10491000A7078093A6078AE291E10E949513B092BF
:10492000A507A092A4079092A7078092A60780E20D
:1049300091E10E94951370E060E081E00E942E16E4
:104940009CC082E00E94D61580913003813009F42A
:1049500098C0823009F499C0811105C06FE37EE1EF
:1049600082E00E942E165090FC0294E195150CF006
:10497000ABC0E09118030E2E000CFF0BEC5DFD4F59
:104980006081062E000C770BEE24E39400E421E610
:1049900045EC52E18FE190E00E94D810D12CC12C5F
:1049A000409030034C1024C029E02C9D30012D9DF7
:1049B000700C112435E2630E711CEE24E39408E0C0
:1049C00023E041E652E1B30187E090E00E94D81075
:1049D00023E041E652E1B30181E290E00E94D81069
:1049E00001E028E047E1B3018AE090E00E94D311A2
:1049F0008FEFC81AD80A93E0C916D10489F6EE24BD
:104A0000E394411001C0E12C08E02BE043E058E1C1
:104A100065E270E080E190E00E94D810EE24E3941B
:104A20004E1001C0E12C08E02BE04EE058E16EE2B0
:104A300070E080E190E00E94D810EE24E39402E060
:104A4000401201C0E12C8091FB0290E002962BE025
:104A5000289FA001299F500D11244D5F574E08E05B
:104A600067E370E080E190E00E94D81081E0850D5E
:104A700089310CF040C08093FC0280E00E94490D17
:104A800062CE6BE37EE183E06CCF88E00E94AE0CE7
:104A9000882309F468CF8091FB02882391F00E945B
:104AA000CD106091FB0282E090E09A838983CE0171
:104AB00001960E94441E65E089EA91E00E94F91582
:104AC00052CF0E94D210EDCF0AE0EE24E3940515F8
:104AD0004CF400E125E24BE752E165E170E083E44C
:104AE00090E05ACF08E027E144E652E16AE170E045
:104AF00088E490E051CF88E1BECF0E94311870E089
:104B000060E083E01BCF009114030130E1F4809159
:104B100013038823C1F080910E01809316018091C8
:104B20000F018093170180911001809318018091EB
:104B300011018093190161E081E00E94BB1D87E0B3
:104B4000809315039ACF83E00E94D615602F8DE4E1
:104B50000E941F1482E00E945D1741E060913003C3
:104B600082E00E94B5136EEE7DE1CBCF84E08093AE
:104B70000F0360E083E00E941F1461E08FE40E9455
:104B80001F14EE24E39400E120E14DEC55E168E1CF
:104B900070E088E390E00E94D81067EC7EE08AE045
:104BA000CDCE0091140380911303882309F44BC0E8
:104BB000013009F048C060E180E00E948116682F52
:104BC000880F770B6A5F7F4F412C512C32011616EC
:104BD000170644F4072E000C880B990B0E948418CA
:104BE0002B013C0162E070E080E090E00E948418BC
:104BF0006B5F7F4F8F4F9F4F4616570668067906AB
:104C000004F580E00E94991D809301011092120327
:104C100068E270E080E090E00E94841860931103E5
:104C20008FEF8093100361E070E080E090E00E94DD
:104C30008418672B682B692B11F01093100385E003
:104C40007FCF8FEFE1CF8CE00E94D615E09130034B
:104C500060910F0320E16202B0011124685F7F4F71
:104C600034E0E302F0011124E05CFE4F83819B01FC
:104C7000280F311D87FD3A954281042E000C550BFB
:104C80004F5E5F4F8181680F711D87FD7A9580812E
:104C9000082E000C990B41960E940F1241E06FEF15
:104CA000802F0E94B51381E0011180E04FE66FEF85
:104CB0000E94B513E09118030E2E000CFF0BEC5D63
:104CC000FD4F6081062E000C770B685E7F4FEE244F
:104CD000E39400E122E24DEE55E18FE290E00E9484
:104CE000D8106BE279E185E029CE00911403809120
:104CF0001303882349F0013039F481E00E94991DA3
:104D000080930F0384E01CCF60E0802F0E94B90CD9
:104D1000802F0E945D170091140341E060913003E1
:104D2000802F0E94B51381E0011180E04FE66FEF04
:104D30000E94B51361E779E184E000CE82E18093BF
:104D4000A0070E948219E09118030E2E000CFF0BA1
:104D5000EC5DFD4FC0800C2C000CDD0884E0C80E1B
:104D6000D11C00E02CE043E2B60183E390E00E9416
:104D7000D311EE24E39400E123E24DE057E1B601C4
:104D800083E390E00E94D81080911103909110036A
:104D9000890F88320CF45CC088E2809311038FEF96
:104DA00080931003D0901103C090130380911203DD
:104DB00000E081115AC027E341E162E070E087E042
:104DC00090E00E94D311EE24E39406E320E14DE944
:104DD00056E163E070E088E090E00E94D81063E361
:104DE00070E06D197109D7FC739501E02D2D47E036
:104DF0008DE090E00E94D311CC20A1F180911403AA
:104E0000813081F59EE19D150CF037CE64E170E0B4
:104E100080E090E00E948418672B682B692B09F0D2
:104E20002CCE65E089EA91E00E94F915809111038A
:104E300087FD8F5F85958093FE021093120368E2D1
:104E400070E080E090E00E94841860931103F7CE38
:104E500018161CF480931103A5CF10921103109320
:104E60001003A0CF68E179E13ECF21E147E362E1A1
:104E700070E084E290E00E94D311EE24E39400E11C
:104E800026E341E356E163E170E085E290E00E94B1
:104E9000D81001E027E04D2D68E170E08BE290E052
:104EA0000E94D311CC2069F180911403813049F51F
:104EB00004E10D150CF0E1CD64E170E080E090E0DC
:104EC0000E948418672B682B692B09F0D6CD65E00A
:104ED00089EA91E00E94F9158091110387FD8F5FA7
:104EE00085958093FD020E949E181092120368E23D
:104EF00070E080E090E00E9484186093110388E0E5
:104F00001FCE64E079E188E019CD83E58093A007A6
:104F100040900B0350900C0360900D0370900E03B3
:104F200020E030E0A901C301B2010E94C22C181692
:104F30000CF093C18091090390910803890F87FDBC
:104F400077C18093090360910001062E000C770B56
:104F5000880B990B0E94122CA30192010E94C72C6E
:104F60006B017C016091060370910703072E000C12
:104F7000880B990B0E94122C9B01AC01C701B60152
:104F80000E94F72A0E94DA2B7093070360930603AE
:104F90002DEC3CEC4CE45DE3C301B2010E94F62A27
:104FA00060930B0370930C0380930D0390930E0397
:104FB0004090020350900303609004037090050337
:104FC00020E030E0A901C301B2010E94C22C87FD9C
:104FD00031C1E091140380910F0324E0E202F0015B
:104FE0001124E25FFE4FE80FF11D87FDFA95E08185
:104FF0003BE0E302F0011124EC58FE4F6085062EE1
:10500000000C770B880B990B0E94122C20E030E0EB
:1050100040E251E40E94682B2AE939E949E15FE363
:105020000E94C72C9B01AC0163E373E383E39FE31E
:105030000E94F62AA30192010E94F72A60930203BC
:10504000709303038093040390930503609100031E
:1050500070910103072E000C880B990B0E94122CF3
:105060002091020330910303409104035091050302
:105070000E94F62A0E94DA2B7093010360930003CA
:10508000161617060CF49AC085E0809316038091DB
:10509000FF028F5F8093FF0263E070E080E090E0AA
:1050A0000E948418AB01BC0141505109610971098A
:1050B00080910803841B87FDC4C08093080310926D
:1050C00001031092000320E030E040EC5FE36091C8
:1050D0000B0370910C0380910D0390910E030E94BD
:1050E000F62A60930B0370930C0380930D03909347
:1050F0000E03209102033091030340910403509169
:10510000050360E070E0CB010E94F62A2B013C0110
:10511000AC019B0160E070E0CB010E94F62A2DEC0F
:105120003CEC4CE85FE30E94C22C18160CF08CC0DB
:105130002DEC3CEC4CE85FE3C301B2010E94F72A7E
:105140002B013C01E091140380910F0394E0E902EC
:10515000F0011124E25FFE4FE80FF11D87FDFA9583
:10516000E0810BE0E002F0011124EC58FE4F628573
:10517000062E000C770B880B990B0E94122C20E056
:1051800030E040E251E40E94682B23E333E343E341
:105190005FE30E94C72C9B01AC01C301B2010E94D6
:1051A000F62A6093020370930303809304039093A1
:1051B000050365E08EE591E00E94F9150E948219D1
:1051C00020E030E0A90160910B0370910C03809105
:1051D0000D0390910E030E94632B81114ECCE09140
:1051E00018030E2E000CFF0BEC5DFD4F6081062EA8
:1051F000000C770B6B0124E0C20ED11C80910A03D6
:10520000811144C000E02FE043E2B60183E390E067
:105210000E94D311EE24E39400E123E249E957E12F
:10522000B60183E390E00E94D81067E976E1B7CC3D
:10523000805687CE23E333E343E35FE3C301B20148
:10524000FBCE109208033BCF10920203109203038F
:105250001092040310920503B1CF1092080310922C
:105260000B0310920C0310920D0310920E03109278
:10527000020310920303109204031092050310928C
:105280000103109200031092160398CF6D5F7F4FB9
:1052900000E021E143E283E390E00E94D311EE2499
:1052A000E39400E123E243E557E1BACF10923003E3
:1052B000E09118030E2E000CFF0BEC5DFD4FC0803B
:1052C0000C2C000CDD08360139E1630E711CEE2454
:1052D000E39400E127E24BE458E1B30187E390E077
:1052E0000E94D81050901403809113038823F1F189
:1052F00051102DC06DEE76E183E00E942E16E091F4
:1053000018030E2E000CFF0BEC5DFD4FC0800C2C23
:10531000000CDD08B601675E7F4F2EE04FE258E1DA
:1053200089E290E00E94D810409114038BE048027B
:10533000A00111244D5F574EB601645E7F4FE12CF2
:1053400008E02BE08BE290E00E94D81096CBEE2490
:10535000E39400E122E14FED57E1B30186E290E0F2
:105360000E94D8106DE57EE18BE0E8CAEE24E3945C
:1053700000E12EE04FE258E1B30189E290E00E94A3
:10538000D810952D0BE09002A00111244D5F574ECF
:10539000B601645E7F4FE12C08E02BE08BE290E0E9
:1053A0000E94D81070E060E080E0C8CA0E94311806
:1053B000F9CF8F929F92AF92BF92CF92DF92EF92EE
:1053C000FF92CF93DF93EC01688179818A819B8181
:1053D000611571058105910521F464E279ED8BE594
:1053E00097E02DE133EF41E050E00E94932A49011C
:1053F0005A019B01AC01A7EAB1E40E94B22A6B01F9
:105400007C01ACEEB4EFA50194010E94C02AC60E47
:10541000D71EE81EF91EF7FE06C081E0C81AD108A3
:10542000E10880E8F80AC882D982EA82FB82C701D3
:10543000B6019F77DF91CF91FF90EF90DF90CF90F3
:10544000BF90AF909F908F9008958F929F92AF9250
:10545000BF92CF92DF92EF92FF9260911A0170910A
:105460001B0180911C0190911D0161157105810541
:10547000910521F464E279ED8BE597E02DE133EFBE
:1054800041E050E00E94932A49015A019B01AC017E
:10549000A7EAB1E40E94B22A6B017C01ACEEB4EF42
:1054A000A50194010E94C02AC60ED71EE81EF91E4F
:1054B000F7FE06C081E0C81AD108E10880E8F80AC2
:1054C000C0921A01D0921B01E0921C01F0921D01C2
:1054D000C701B6019F77FF90EF90DF90CF90BF900C
:1054E000AF909F908F90089560931A0170931B0165
:1054F00080931C0190931D010895F999FECF92BDF0
:1055000081BDF89A992780B50895262FF999FECF85
:105510001FBA92BD81BD20BD0FB6F894FA9AF99AD0
:105520000FBE01960895052E97FB1EF400940E946D
:10553000AA2A57FD07D00E94C52A07FC03D04EF4C3
:105540000C94AA2A50954095309521953F4F4F4F86
:105550005F4F089590958095709561957F4F8F4F1F
:105560009F4F08950E94E72AA59F900DB49F900D2C
:10557000A49F800D911D11240895B7FF0C94B22AA9
:105580000E94B22A821B930B0895A1E21A2EAA1B35
:10559000BB1BFD010DC0AA1FBB1FEE1FFF1FA217E3
:1055A000B307E407F50720F0A21BB30BE40BF50BE0
:1055B000661F771F881F991F1A9469F76095709569
:1055C000809590959B01AC01BD01CF010895A29FEC
:1055D000B001B39FC001A39F700D811D1124911DC7
:1055E000B29F700D811D1124911D08955058BB2745
:1055F000AA270E940E2B0C94882C0E947A2C38F03B
:105600000E94812C20F039F49F3F19F426F40C9469
:10561000772C0EF4E095E7FB0C94712CE92F0E9497
:10562000992C58F3BA17620773078407950720F07F
:1056300079F4A6F50C94BB2C0EF4E0950B2EBA2F42
:10564000A02D0B01B90190010C01CA01A001112488
:10565000FF27591B99F0593F50F4503E68F11A1634
:10566000F040A22F232F342F4427585FF3CF4695C5
:1056700037952795A795F0405395C9F77EF41F16E7
:10568000BA0B620B730B840BBAF09150A1F0FF0FB1
:10569000BB1F661F771F881FC2F70EC0BA0F621F9D
:1056A000731F841F48F4879577956795B795F7958D
:1056B0009E3F08F0B0CF9395880F08F09927EE0F22
:1056C0009795879508950E944D2C08F481E00895E0
:1056D0000E947C2B0C94882C0E94812C58F00E94F4
:1056E0007A2C40F029F45F3F29F00C94712C511171
:1056F0000C94BC2C0C94772C0E94992C68F3992361
:10570000B1F3552391F3951B550BBB27AA276217BD
:105710007307840738F09F5F5F4F220F331F441FCA
:10572000AA1FA9F335D00E2E3AF0E0E832D09150FE
:105730005040E695001CCAF72BD0FE2F29D0660FEB
:10574000771F881FBB1F261737074807AB07B0E82E
:1057500009F0BB0B802DBF01FF2793585F4F3AF034
:105760009E3F510578F00C94712C0C94BC2C5F3F3B
:10577000E4F3983ED4F3869577956795B795F795BA
:105780009F5FC9F7880F911D9695879597F90895A2
:10579000E1E0660F771F881FBB1F6217730784073E
:1057A000BA0720F0621B730B840BBA0BEE1F88F74D
:1057B000E09508950E94E12B6894B1110C94BC2CE3
:1057C00008950E94A12C88F09F5798F0B92F99272F
:1057D000B751B0F0E1F0660F771F881F991F1AF0DC
:1057E000BA95C9F714C0B13091F00E94BB2CB1E05A
:1057F00008950C94BB2C672F782F8827B85F39F059
:10580000B93FCCF3869577956795B395D9F73EF474
:1058100090958095709561957F4F8F4F9F4F08951C
:10582000E89409C097FB3EF490958095709561953A
:105830007F4F8F4F9F4F9923A9F0F92F96E9BB27F0
:105840009395F695879577956795B795F111F8CF6C
:10585000FAF4BB0F11F460FF1BC06F5F7F4F8F4FD7
:105860009F4F16C0882311F096E911C0772321F0CD
:105870009EE8872F762F05C0662371F096E8862F65
:1058800070E060E02AF09A95660F771F881FDAF7BC
:10589000880F9695879597F90895990F0008550FE9
:1058A000AA0BE0E8FEEF16161706E807F907C0F0A6
:1058B00012161306E407F50798F0621B730B840BAE
:1058C000950B39F40A2661F0232B242B252B21F488
:1058D00008950A2609F4A140A6958FEF811D811D28
:1058E000089597F99F6780E870E060E008959FEF62
:1058F00080EC089500240A94161617061806090667
:10590000089500240A941216130614060506089535
:10591000092E0394000C11F4882352F0BB0F40F4BD
:10592000BF2B11F460FF04C06F5F7F4F8F4F9F4FFD
:10593000089557FD9058440F551F59F05F3F71F07F
:105940004795880F97FB991F61F09F3F79F08795E6
:105950000895121613061406551FF2CF4695F1DF6F
:1059600008C0161617061806991FF1CF86957105FF
:10597000610508940895E894BB2766277727CB0133
:1059800097F908950E944D2C08F48FEF08950E9416
:10599000DA2C0C94882C0E947A2C38F00E94812CEE
:1059A00020F0952311F00C94712C0C94772C112479
:1059B0000C94BC2C0E94992C70F3959FC1F3950F09
:1059C00050E0551F629FF001729FBB27F00DB11D83
:1059D000639FAA27F00DB11DAA1F649F6627B00D13
:1059E000A11D661F829F2227B00DA11D621F739FFC
:1059F000B00DA11D621F839FA00D611D221F749F0A
:105A00003327A00D611D231F849F600D211D822F50
:105A1000762F6A2F11249F5750409AF0F1F0882377
:105A20004AF0EE0FFF1FBB1F661F771F881F9150A4
:105A30005040A9F79E3F510580F00C94712C0C94B6
:105A4000BC2C5F3FE4F3983ED4F386957795679539
:105A5000B795F795E7959F5FC1F7FE2B880F911DCE
:105A60009695879597F9089587FB082E062687FD5A
:105A7000819567FD61950E945C2D0EF4919507FC60
:105A80008195089597FB072E16F4009407D077FDB3
:105A900009D00E94682D07FC05D03EF490958195B1
:105AA0009F4F0895709561957F4F0895EE0FFF1FEA
:105AB0000590F491E02D0994991B79E004C0991F99
:105AC000961708F0961B881F7A95C9F78095089558
:105AD000AA1BBB1B51E107C0AA1FBB1FA617B70714
