:020000040000FA
:100000000C94C6130C94EE130C94EE130C94EE1394
:100010000C94EE130C94EE130C94EE130C94EE135C
:100020000C94EE130C94EE130C941B200C948A2069
:100030000C94EE130C94EE130C94EE130C94EE133C
:100040000C94EE130C9466230C94EE130C94EE13A4
:100050000C94EE130C94EE130C94EE130C94BC223F
:100060000C94EE130C94EE130C94EE130C94EE130C
:100070000C94EE130C94EE130C94EE130C94EE13FC
:100080000C9406230C94EE130C94EE130C94EE13C4
:100090000C94EE130C94EE130C94EE130C94EE13DC
:1000A0000C94EE130C94EE130C94EE134646465645
:1000B00046464646464646564646464646464656C0
:1000C00046464646465646565546464646464646A1
:1000D00046464646464646465546464646464646B1
:1000E000464646524646465546575357545753552B
:1000F0005446050605060506050605064646464617
:10010000464646464646464646464646464646468F
:100110004656464646464646554646464655464651
:100120004646464646464652565556465646465713
:100130005354465346465355040506050605060521
:1001400006071E00000000000000001F464646464D
:10015000564656465646464646464646464646460F
:100160005646564646464646554646464646464600
:100170004646464646464646465546464646464610
:1001800055464646464646465457535746465257A6
:1001900055460506050607464604050646464656E4
:1001A00046564646464646464646464646464646DF
:1001B00046464656465646464646464646464646BF
:1001C00046464655464646464655464646464646B1
:1001D0004655464646465246535746464646465775
:1001E0005546050607464646460405065646564603
:1001F000564656465646464646464646464646466F
:10020000464646464646464646464646464646468E
:100210004646464646464655464646524655464654
:100220004646464653464646545357460405060737
:1002300054460506050605060506050646564656B5
:10024000464656465646464646464646464646462E
:100250004646464646574646464646464646460E65
:100260000F46524646465546542021464655464678
:1002700046460E0F0E0F4646465753462021202174
:100280005546050605060506050605064646464684
:1002900056465646464646464646464646464646DE
:1002A00046464646464646464655464646464646DF
:1002B00046464646464657464646464646464646CD
:1002C0000E0F464646464655464620215354575241
:1002D0004655050605060506050605064646464634
:1002E000464656465646464657464646464646467D
:1002F000464610111213141546464646262728294D
:100300002A2B464646552C2D2E2F30315255464627
:100310003233343536374646575408090A0A0C0D2D
:1003200057460506050605060506050646464646E1
:10033000464646464646464646464646464646465D
:10034000564656465646465646464646464646460D
:10035000464646464646465546464646464646462E
:1003600046464646464646554653575452545554BB
:100370005746050605060506050605065646464681
:1003800046464646464646465646464646464646FD
:1003900046464646464646464646464646464646FD
:1003A0004646464646544646465246464655460EFC
:1003B0000F46464646464646542021465346575326
:1003C0005746050605060506050605064646464641
:1003D000464646464646465646464656464657468C
:1003E00046464646464646550E0F545753575254B6
:1003F00053542021010202020202020202031800E9
:1004000000000000000000191A00000000000000B9
:10041000001B07000000000000000004464646469E
:10042000464646464646464646464656464646465C
:100430004646464646464646465554465746575310
:10044000545752460102020202020202020318003D
:1004500000000000000000191A0000000000000069
:10046000001B050607000000000405064646464638
:1004700046464646465546465646574657545746BC
:100480004652464610111213141557545346262748
:1004900028292A2B010202032C2D2E2F303118007F
:1004A00000193233343536371C00001D08090A0A9A
:1004B0000C0D0506050605060506050646464646D4
:1004C00046464646464646465646564646464646AC
:1004D00046464646464646464646464646524646B0
:1004E00046010203464646464646571800195746F7
:1004F000464646550E0F001B04074646465420212B
:10050000001D1E1F4646460405060506464646468D
:10051000464646464646464646565246564656463F
:10052000464646464646464646465446574653463F
:10053000575355460102020202020202020318004A
:1005400000000000000000191A0000000000000078
:10055000001B07000000000000000004544646573E
:10056000464646464646010202034652464646462F
:10057000180000194646464646461A00001B4654D7
:10058000534657551C0000020202020202031A00E1
:1005900000000000000000191C0000000000000026
:1005A000001B0506050605060506050646464646E1
:1005B0004646464646464646575752544657544680
:1005C00001020202020202020203180000000000FF
:1005D000000000191A00000000000000001B1C00B1
:1005E000000000000000001D1A00000000000000D4
:1005F000001B050605060506050605064646464691
:100600005246464646465454464646554657544634
:1006100001020346464601020203180019464646F7
:10062000180000191A001B4646461A00001B1C0041
:100630001D4646461C00001D1A001B4646461A0071
:10064000001B07001D4646461C0405064646464656
:10065000464646460E0F465752535457544620219D
:100660000102020202030E0F0E0F18000000001913
:10067000202120211A0000000002020202031C00B7
:1006800000000000000000191A0000000000000037
:10069000001B0506050605060506050646464646F0
:1006A000465746465746464646464601020202031C
:1006B0005246464646180000001946545346461A0C
:1006C0000000001B0102020202020203001B1800CC
:1006D000000000000019001D1A0000000000001BAF
:1006E000001B05060700000405060506902100D63C
:1006F0008000D6902100D691288000D6902D8101CF
:10070000AC8000D6902100D68000D6902100D691F2
:1007100021808100D6902800D6912D8000D68100BE
:10072000D6902800D68000D6901F00D68000D690A4
:100730001F00D691268000D6902B8101AC8000D678
:10074000901F00D68000D6901F00D6911F80810098
:10075000D6902600D6912B8000D68100D690260018
:10076000D68000D6901F00D691298000D6901F8198
:1007700000D691248000D690298100D68000D690A2
:100780002400D68000D6902600D6912B8000D681FA
:1007900000D6902600D6912B8000D690248100D6DA
:1007A00091268000D690278100D680F09041911E3E
:1007B00000889240800088903B820088923A808135
:1007C00000889033911D8200889232931B808100B3
:1007D00088903482830088911C90330088902E8109
:1007E0000088912D921C800088902E810088912F86
:1007F00080820088901B912E0088922F8100889122
:100800002E820088922F808100889033911E820072
:1008100088923280008890338200889232808100F2
:1008200088901D9133820088901B9132008892330A
:10083000808100889032911C820088912E800088EF
:10084000902D921C810088912E800088902F8182AB
:100850000088911E902E0088922F800088902E8212
:1008600000889230808100889035911E82008892A5
:10087000348000889035820088923480810088908E
:100880001D9135820088901B9134008892358081BB
:1008900000889034911C820088912C800088902BD5
:1008A000921C810088912C800088902D8182008884
:1008B000911A902C0088922D800088902C820088BC
:1008C000922E808100889032911D82008892318022
:1008D0000088903282008892318081008890329125
:1008E0001C820088901A91310088923280810088A1
:1008F0009031911B820088912D800088902C921B52
:10090000810088912D800088902E81820088911E20
:10091000902D0088922E800088902D820088922F42
:100920008081008882F000D6ABE7E5E4A4E4C4044B
:1009300000040EDE0E0000806119040101010202B4
:10094000020201000000FEFFFFFFFFFFFCFCFCFCB9
:10095000FCFEFEFEFEFE83E7FFFFFFFFFFFFFFFF43
:10096000FFFFFFFFFFFF00011DE66A2B2BABB3B3B8
:10097000B3B1B2B2D22D0000040307295B9BEBABED
:10098000170D050200002DD2B2B2B1B3B3B3AB2B39
:100990002B6AE61D0100000002050D17ABEB9B5B07
:1009A0002907030400003ADAA7A7C7AAEAEABBBBF3
:1009B000B3B3AA8A060189CEB6B6B6A6AEAAA33547
:1009C0003DB97F54E80001068AAAB3B3BBBBEAEA8B
:1009D000AAC7A7A7DA3A00E8547FB93D35A3AAAE63
:1009E000A6B6B6B6CE8900033FFFFFFFFFFFFFFFAD
:1009F000FFFFFFFFFFFFFF7F00000E0F0F7FFFFFD6
:100A0000FFFFFFFF3F1F0F0701007FFFFFFFFFFFFB
:100A1000FFFFFFFFFFFFFFFFFF3F03000001070F86
:100A20001F3FFFFFFFFFFFFF7F0F0F0E0000FFFFC5
:100A3000FFFFFFFFFFFFFFFFFFFFFFFFFFDF0F03D2
:100A4000DFFFFFFFFFFFFFFFFFFFFFFFFFFFFFFFD6
:100A5000FC00030FDFFFFFFFFFFFFFFFFFFFFFFFB4
:100A6000FFFFFFFF00FCFFFFFFFFFFFFFFFFFFFF98
:100A7000FFFFFFFFFFDF003A482E327A64000C12BE
:100A80000204040404040006F9010200000000004E
:100A9000000000000000040404040402120C0064BE
:100AA0007A322E483A0000000000000000000000EA
:100AB000000201F9060000609F8040000000000075
:100AC000000000000000005C12744C5E26003048FC
:100AD0004020202020200000000000000000000036
:100AE0000040809F600020202020204048300026C9
:100AF0005E4C74125C0000000000003E5B4F5B3EE9
:100B00003E6B4F6B3E1C3E7C3E1C183C7E3C181CD2
:100B1000577D571C1C5E7F5E1C00183C1800FFE7C9
:100B2000C3E7FF0018241800FFE7DBE7FF30483A6F
:100B3000060E2629792926407F050507407F0525D1
:100B40003F5A3CE73C5A7F3E1C1C08081C1C3E7F59
:100B500014227F22145F5F005F5F06097F017F0020
:100B60006689956A606060606094A2FFA294080440
:100B70007E040810207E201008082A1C08081C2A61
:100B800008081E101010100C1E0C1E0C30383E38B9
:100B900030060E3E0E06000000000000005F000060
:100BA0000007000700147F147F14242A7F2A1223D1
:100BB0001308646236495620500008070300001CE1
:100BC0002241000041221C002A1C7F1C2A08083EEA
:100BD00008080080703000080808080800006060FD
:100BE0000020100804023E5149453E00427F40006B
:100BF00072494949462141494D331814127F102743
:100C0000454545393C4A4949314121110907364991
:100C1000494936464949291E000014000000403465
:100C2000000000081422411414141414004122146A
:100C30000802015909063E415D594E7C1211127C91
:100C40007F494949363E414141227F4141413E7FF2
:100C5000494949417F090909013E414151737F08D2
:100C600008087F00417F41002040413F017F081478
:100C700022417F404040407F021C027F7F040810D9
:100C80007F3E4141413E7F090909063E4151215EB7
:100C90007F09192946264949493203017F01033F4B
:100CA0004040403F1F2040201F3F4038403F6314DA
:100CB00008146303047804036159494D43007F41DC
:100CC00041410204081020004141417F0402010219
:100CD000044040404040000307080020545478403E
:100CE0007F284444383844444428384444287F38D2
:100CF0005454541800087E090218A4A49C787F0854
:100D000004047800447D40002040403D007F1028CE
:100D1000440000417F40007C047804787C0804048F
:100D2000783844444438FC1824241818242418FC27
:100D30007C08040408485454542404043F44243CCC
:100D40004040207C1C2040201C3C4030403C44283B
:100D50001028444C9090907C4464544C44000836D5
:100D60004100000077000000413608000201020443
:100D7000023C2623263C1EA1A161123A4040207A63
:100D800038545455592155557941215454784121AD
:100D90005554784020545579400C1E5272123955E2
:100DA00055555939545454593955545458000045DF
:100DB0007C410002457D420001457C40F029242908
:100DC000F0F0282528F07C545545002054547C54DC
:100DD0007C0A097F4932494949323248484832320F
:100DE0004A4848303A4141217A3A42402078009DB1
:100DF000A0A07D39444444393D4040403D3C24FF5F
:100E00002424487E4943662B2FFC2F2BFF0929F60B
:100E100020C0887E090320545479410000447D415C
:100E20003048484A32384040227A007A0A0A727DB5
:100E30000D19317D2629292F2826292929263048D0
:100E40004D4020380808080808080808382F10C83E
:100E5000ACBA2F102834FA00007B000008142A14C2
:100E60002222142A14089500220095AA005500AAEF
:100E7000AA55AA55AA000000FF00101010FF001488
:100E80001414FF001010FF00FF1010F010F01414E5
:100E900014FC001414F700FF0000FF00FF1414F40A
:100EA00004FC141417101F10101F101F1414141F0B
:100EB00000101010F0000000001F101010101F1084
:100EC000101010F010000000FF1010101010101083
:100ED0001010FF10000000FF140000FF00FF0000D2
:100EE0001F10170000FC04F414141710171414F446
:100EF00004F40000FF00F714141414141414F70081
:100F0000F7141414171410101F101F141414F414D1
:100F10001010F010F000001F101F0000001F140040
:100F20000000FC140000F010F01010FF10FF14146B
:100F300014FF141010101F00000000F010FFFFFF3E
:100F4000FFFFF0F0F0F0F0FFFFFF0000000000FFF7
:100F5000FF0F0F0F0F0F38444438447C2A2A3E14E9
:100F60007E02020606027E027E0263554941633814
:100F700044443C04407E201E2006027E020299A5C5
:100F8000E7A5991C2A492A1C4C7201724C304A4D23
:100F90004D303048784830BC625A463D3E49494958
:100FA000007E0101017E2A2A2A2A2A44445F444401
:100FB00040514A444040444A51400000FF0103E090
:100FC00080FF000008086B6B083612362436060FC7
:100FD000090F06000018180000001010003040FF34
:100FE0000101001F01011E00191D1712003C3C3CAD
:100FF0003C000000000000000000240027002A0040
:101000002D00300000000000250028002B002E00DD
:1010100031000408020110408040102040804080D0
:10102000080204018040201002011080102040407E
:10103000200404040404030405020202020403025F
:101040000202020606060606060404020202040460
:1010500006011501260137014A015D01720188016F
:101060009F01B801D201EE010B022A024B026E026F
:101070009302BA02E40210033F037003A403DC03EB
:10108000170455049704DD0427057505C8052006D7
:101090007D06E0064907B8072D08A9082D09B909FA
:1010A0004D0AEA0A900B400CFA0CC00D910E6F0F1E
:1010B0005A1053115B1272139A14D415201780180A
:1010C000F519801B231DDE1EB420A622B524E426BC
:1010D0003429A72B402E0031EA330037453ABC3D76
:1010E00068414C456B49C84D68524F57805C00625F
:1010F00010111213151617181A1C1D1F212325274E
:10110000292C2E3134373A3E4145494E52575C62C4
:10111000686E757B838B939CA5AFB9C4D0DCE9F76F
:10112000080B000202020000090400000102020094
:101130000005240010010524010101042402060514
:101140002406000107058103100040090401000284
:101150000A00000007050202400000070583024064
:1011600000000403090412010002EF0201404123C0
:10117000368000010102030141726475696E6F20BF
:101180004C4C43004142413131303600F0F89C8EE6
:101190008783878E9CF8F00000FEFF0303030303A0
:1011A000070EFCF80000FEFF0303030303070EFC19
:1011B000F80000FFFF00000000000000FFFF00003B
:1011C000FEFF8383838383C7EE7C380000F8FC0E28
:1011D00007030303070EFCF800003F7FE0C0808098
:1011E000C0E07F3FFFFF01010101010101FFFF009E
:1011F00000FFFF0C0C0C0C1C3E77E3C100007FFFCE
:10120000C0C0C0C0C0E0703F1F00001F3F70E0C002
:10121000C0C0E0703F1F00007FFFC1C1C1C1C1E37A
:10122000773E1C00001F3F70E0C0C0C0E0703F1F51
:10123000000000000001FFFF010000008D14A1C8A4
:1012400081CFD9F102AF63726169742E6E6574004B
:1012500040637261697400486F6C6D6573004A6F1A
:101260006E617468616E00458A15AA15AAD56A3444
:101270002821321D0A0C06030207022341A04180E7
:1012800040814020804080402008C77DA255A25167
:10129000A8158844A251AA54A8518205FF00004114
:1012A00080800080E0F0F0F0F0E060606068EDE4E5
:1012B000E3E0E06172E102E1321AAF1188548A453D
:1012C0002A059245A241A055AA55AA55BFE00000A3
:1012D00000003CFEFFFFFF1DEC3637F7F7EE1FFF67
:1012E0003FDF2E37F6EE1C037E55CAC5A251A85427
:1012F000AA552A158A452251A254A055FEC3BC66A0
:10130000400038DF7FBFFFFFFE7D7D7DFDFE3F7F1C
:10131000FFF06D1DBDFEFFE0833FC07FA255A251CF
:101320002804A251A854AA11A215A2C56A45634176
:101330006B5E7871A64B8D979C38312306464D4DD8
:101340006D727F6F1F370F1DCBE07F556A4540C020
:101350008AC56AB5DAEDCA3DCEF3FDFEF8877FFF98
:10136000FFFFFFC0BFBEBDDB57A7CFB78BFAF67636
:10137000A6CA76EA9C5FDFC0FEFEFFFFFFFF0FB646
:10138000B9FBF8F3F7FFF867726579636F7665006C
:101390005665737061004279204D6172696F00502B
:1013A0006978656C2041727400FF0101010101013F
:1013B000010101010101010101010101010101011D
:1013C000010101010101010101010101010101010D
:1013D0000101010101010101FFFF00000000000007
:1013E0000000000000804040201008840202020239
:1013F00002020202020202020404040808106080D1
:101400000000000000000000FFFF000000000000DE
:101410000000007E81000000000000009DFF7FBFF3
:10142000BFBFBFBEBEFEFEFCFCB8B8B0B0C000BFC0
:101430004000000000000000FFFF0000000000006E
:1014400000000000000708101F3E78FFFFFFFFFFAD
:10145000F8F6F6F0F8FFFFB7CFF8F6F0F8FF050260
:101460000000000000000000FFFF0000000000007E
:101470008040201010100814224182040913132701
:10148000272F2FAF4E8D4DAD2D2E2F1723C10000CE
:101490000000000000000000FFFF8080808080FED0
:1014A0008180808080808080808080818182828233
:1014B000828282A980FF808182828282828DB0C0F6
:1014C0008080808080808080FF38387C00281028D1
:1014D0000038387C004438827C7C54280028181A54
:1014E00002080B031F1111001F051F0017151D0017
:1014F000011F0100111F11001F02041F001F1119FD
:10150000000000C03807C1B9C1073FFFF8C00000A4
:1015100000000020305858181898F878783030209B
:10152000000000000000C0E0703818585838300043
:1015300000008080000000000000000000000000AB
:101540000000008080C0B08E8180B0CC04CCB08020
:10155000818FBFFEF0C00000000070FCFE1F03780A
:10156000FCCE9E563C1008000060D0C3C3C6C6EE39
:10157000EC7C3874FECEC767F2D84CE6FEDE6078AD
:101580000E7EFCC8E47EDEC7670238C828E8E8287B
:10159000C8F8F808E808F8F8C828E8E828C8F88083
:1015A0003848A868E868A8C8F8F878003848A868F3
:1015B000E860AFCEF7FB7900003848A868E868A873
:1015C000A8A8A82868E8D838F0E0C00000010E718B
:1015D0008F7EF10F001F0F7FF00F010E0FF1FE7FC6
:1015E0000F010000FF006F00FFFFFF000000000080
:1015F000FF006F00FFFFFF000080808000FF006F92
:1016000000FFFEFE0001FE00DF1F00FFFFFF0000E5
:101610000000031C131010181E18131010101F1FA9
:10162000030000001C121110101011131F1F1E00C8
:101630001C12111010101113131311101F011E1181
:1016400010101011121212111018180C0F070300AD
:1016500078381C1C0C0C0EFEFECCE070B8FCFEBEF4
:10166000CC60F0F8FC7C18000000406060200000B6
:10167000000080C0E07030000000000000000000AA
:1016800000000000406060200000808080000000BA
:10169000000080C0E070381C00808080C0E0A08026
:1016A000000070783C1E0F0773391C0E070371FD94
:1016B000FE67633130183C7E6F6733387C7E66632B
:1016C000337F7F63203070783C1E6C767B3F36180A
:1016D0003C7E6F6733B83C66B3F3F97D2F17387CD7
:1016E0003E1F0F777A3F3F187D7F6723211101004E
:1016F000000000000000000000000000000000608A
:1017000090092B075CBF7FFFFEFDFCFCBF7E7F7E48
:101710004FFEFFFEFDFCE01D06170F1FFFFFFFFF42
:10172000FCF8E0800000000000000C32C488881043
:1017300010D0E0F0F0EED1A3458A142850A04182E9
:101740000509132B972797279727972B13090442EF
:1017500021008260017F7FBFBFBFDFDFEEE480003A
:1017600005090911101010C0FFFFFFFFFFFFFFFF69
:10177000FFFEFDFAF4E8D1A2458A1028104810486F
:101780001048108844A2D1E8F4FAFDC03FC0001F01
:101790007FFFFFFFFFFFFF3C000000000000F0EFB5
:1017A000EFEFEFEFEFEFEFE70DFFFFFFFFFFFFFFC3
:1017B000FFFEFDFDFAFA54F40402FDFEFFFFFFC335
:1017C000BDBDBFC2FF0E01020204050505010000F8
:1017D000000000000080800000000000C0F0F8FC65
:1017E000F4FCECDCBC7CFCFCFCFC7CBCDCE4F8F039
:1017F0008000008080000000000000007FC10FFF1B
:10180000FE08101F275FBF9F7F7F7FDFF77FFEFEF1
:10181000FE7EFFE3DF7F7F9F671C03000103FEFC6A
:1018200000000000000102070FFFDC18189832B01A
:10183000353161626262626262626262620121D01B
:10184000E874F4FCFCFAF7814060B03030B0F0F09E
:10185000F87E7F7FF6E0E070381C8E86A030301076
:101860008080C0C0C08000000080C0E070B89C0EC6
:101870000000000000000000F0F89C8E8616160E96
:101880000C0080808000000080808000000000004C
:101890000000008080800000383C1E0F070301001C
:1018A000001E3F3F19180C1E3F373319DCBED3F919
:1018B000793C1E170B1C3E1F0F073B3D1F1F0C06DC
:1018C00000000000001834303031313B3B1F0E1C4B
:1018D0003F3731180C1E3F3327150F06073F3E30A8
:1018E0001E3F3F29271738381C1C0C0C0E8EDEFCBF
:1018F000FC7E3F373B1F0E00808080000000000010
:10190000808000000000808080000080E070B0F0E7
:10191000601C3E373B3D1E0F173B3D3830303018C2
:101920000C1E3F3F292717181E3F30180F07001EB7
:101930003F3F292737181F3F3311080000000000E0
:10194000000000F0E8F858B0000078B4FCFCFCF4AB
:10195000FCF47CAC7CFCF4FC6CBC54A800000000E3
:101960000000E0FFFFFF55AA50A0570A55031503DA
:10197000158215021582150215821502000000005D
:101980008040BF5FBF56AD52AD02A50005200100EB
:101990000000000000000000000000000040205C8B
:1019A000AB15AA15AA05AA004A00004004000000D1
:1019B0000000000000000000000000000000000027
:1019C00000000080F0F8F878E8F8E8F8F8FC7CFC13
:1019D000FCF47CAC54A8FCB4ECFC54A8000000005F
:1019E000000000FFFFDFFBAF552A550A5502150224
:1019F00015821502178315021582150200000000DA
:101A0000000000BF5BBE278A40AA550A400A00407A
:101A1000040000000000000000000000008040A062
:101A200050A814AB158A2048154095000180080085
:101A3000000000000000000000000000FCFEFEFEB0
:101A4000FEFEFCFEFFFFFFFFFFFFFFFFFFFFFFFFAC
:101A5000FFFFFFFFFFFFFEE0FCFEFEFEFEFEFEFEC0
:101A6000FEFFFFFFFFFFFFFFFFFFFFFFFFFFFFFF87
:101A7000FFFE0000000001010103071FFEFEFCF84D
:101A8000E00000000000808080C0E0F87F7F3F1F02
:101A9000070080FEFFFFFFFFFCFEFFFFFFFF00804F
:101AA000E0E0070F0FFFFFFFFFFFFFFFFFFFFFFF5C
:101AB000FFEFE0E08000FFFFFFFFFEFCFFFFFFFF06
:101AC000FE80EFFFFFFFFFFFFFFFFFFFFFFFFF0FA6
:101AD0000F07E0F0FEFFFFFFFFFFFFFFFF8080E04A
:101AE000E0E01F1F1F3F3F3F3F7F7FFFFFFFFFFFE4
:101AF000FFE7E0E0E08000FFFFFFFFFFFFFFFFFEEA
:101B0000F0E0E7FFFFFFFFFFFF7F7F3F3F3F3F1F0B
:101B10001F1F0000DC32FEF838D8F4E27E0000001F
:101B200000C000030505F70B0BFD1D0ECE1E3C7813
:101B3000C703C0000000007EE2F4D838F8FE32DCB3
:101B4000000003C7783C1ECE0E1DFD0B0BF70505EC
:101B5000030000C0A0FCDAEEF8F4E2FE0000000092
:101B6000C00000080A0A12131B2D2D5E1E3C706770
:101B7000430000C000000000FEE2F4F8EEDAFCA032
:101B8000C000004367703C1E5E2D2D1B13120A0A15
:101B90000800E7FFFF7E7EFFFFE7E7E7E70000E7DB
:101BA000E7E70042241818244200814200000000A8
:101BB0004281E0F0F0FEFEFEFFFFFFFFFFFFFEFEB2
:101BC000FE7C00033F7FFFFFFFFFFFFFFFFFFFFFE4
:101BD0007F77F0FEFFFFFFFFFFFEFFFFFFFEFFFF2F
:101BE000FFFC031F1F1F7FFFFFFF7F7F3F3F3F3F24
:101BF0001F0FEEFEFFFFFFFFFFFFFFFFFFFFFEFCDB
:101C0000C0003E7F7F7FFFFFFFFFFFFF7F7F7F0FD3
:101C10000F07F0F8FCFCFCFCFEFEFEFEFEFEF8F8F2
:101C2000F8C03FFFFFFF7FFFFFFF7FFFFFFFFFFFCA
:101C30007F0F0040A040E49CC82AD25AEA3C80446E
:101C40003800000001122A5556371A5B563F4915D5
:101C5000220000E01472D232E4A85CF234D8F4120C
:101C6000680000010C0704295A2E251B07081709D4
:101C700006000044A892FC6ADA58EC6AAA5448802C
:101C80000000001C22013C575A4B5413392702050F
:101C90000200006090E810E0D8A4745A9420E0306C
:101CA00080000016482F1B2C4F3A15274C4B4E280E
:101CB0000700F8FCFCFEFEFEFEFEFEFEFEFEFEFC45
:101CC000FCF83F7F7FFFFFFFFFFFFFFFFFFFFF7F6E
:101CD0007F3FF8FCFCFEFEFEFEFEFEFEFEFEFEFC6E
:101CE000FCF83F7F7FFFFFFFFFFFFFFFFFFFFF7F4E
:101CF0007F3F00F01818F4FC0C0C0C0CFCF41818C6
:101D0000F000001F31317F7F616161617F7F313180
:101D10001F0000F04848F4FC24242424FCF4484824
:101D2000F000001F24245F7F484848487F5F242438
:101D30001F0000000080C0E0E0E0E0E0C0800000A4
:101D400000000000C0C3F3F3F3FFFFFFFFFFFEFE40
:101D5000FE7CF0F8F8F8F8F0E080000000008080E9
:101D60008000000007C7C7F7FFFFFFFEFCFFFFFF73
:101D7000FF1F00000000008040C0C0800000000085
:101D800000000000008081A1A1A1A8ADA780A854F7
:101D90003800006030F0A0C000000000000000002B
:101DA0000000000000028381A3A6ACA8A0A08A9531
:101DB0000E000080E0E0E0E0FCFEFFFFFFFFFFFE22
:101DC000FC00000F3F3F3F3FFFFFFFFFFFFFFFFF14
:101DD000FF00000000C080C000A8FC06FCFEFCA8BC
:101DE0000000000005170F1F0E5EFF00FFFFFFAA97
:101DF0000000003C7EB85020101010101014047227
:101E0000F8FE7D010101010102020000006FB1F244
:101E100070F0B0F261130808040200000000000036
:101E20000000FCFEFEFEF8F0F0F0F0F0FCFCFEFE20
:101E3000FEFFFFFFFFFFFFFFFFFE0001FFFFFFFFB1
:101E4000FFFFFFFFFFFFFFFFFFFFFFFFFFFFFFFFA2
:101E5000FFFF000001030303030303030303030362
:101E6000030303030303030303030638C000020450
:101E70008870102024386080000000F08F48808E29
:101E8000F10000000000F08F48803F408000916228
:101E90009408101024F8000000800000010F080CC6
:101EA0000403F0884F8888FE01001FFFFFFFFFFF3B
:101EB000FFFFFFFFFFFFFFFFFFFFFF00F0FFFFFF40
:101EC000FFFFFFF7010000F1FFFFFFFFFFFFFFFF34
:101ED000FFFFFFFFFF7FFFFFFFFFFFFFFF00010787
:101EE0003F3F3F3F3FFFFFFFFFFFFFFFFF073E7FFB
:101EF000FFFFFFFFFF7F3E003E7FFFFFFFFFFF7FF3
:101F00003E003E7FFFFFFFFFFF7F3E003E7FFFFF63
:101F1000FFFFFF7F3E001E3F7FFFFFFFFFFF7E00B2
:101F2000007EFFFFFFFFFF7F3F1E001C2E5EBC7E7A
:101F30003E1C0000001C2E5EBC7E3E1C0000001CEF
:101F40002E5EBC7E3E1C0000001C2E5EBC7E3E1C35
:101F50000000000C1E2E5CBE7E3C000000003C4ECB
:101F6000BE7C3E1E0C001F111F121F1019151211EE
:101F7000151F06041F17150D1F151D1905031F1525
:101F80001F17151F17151D001F1111001F111F000E
:101F90001F051B001F1511000AFFFFFFFFFFFFFFBA
:101FA000FFFEFFFFFFFFFFFFFFFFFFFFFFFFFFFF42
:101FB000FFFFFFFFFFFFFFFFFEFCFEFFFFFFFFFF36
:101FC000FFFFFFFFFFFFFFFFFFFFFFFFFFFFFFFF21
:101FD000FFFFFFFFFFFFFFFEFCC3E7FFFFFFFFFF69
:101FE000FFFFFFFFFFFFFFFFFFFFFFFFFFFFFFFF01
:101FF000FF0000000000000000FFFFFFFFFFFFFFE9
:10200000FFFFFFFFFFFFFFE7C3F8FEFFFFFFFFFF3C
:10201000FFFFFFFFFFFFFFFEF88EDFFFFFFFFFFF69
:10202000FFFFFFFFFFFFFFFFFFFFFFFFFFFFFFFFC0
:10203000FFFFFFFFFFFFFFFFFFFFFFFFFFFFFFFFB0
:10204000FFFFFFFFFFFFFFFF8E55AA55AA55AA55B8
:10205000AA000000000000000000FFFFFFFFFFFFDC
:10206000FFFFFFFFFFFFFFFF0000000101CFFFFFA9
:10207000FFFFFFFFCF01010000000000003FFFFF56
:10208000FFFFFFFF3F00000000FFFFFFFFFFFFFF1C
:10209000FFFFFFFFFFFFFFFFFF3FFFFFFFFFFFFF10
:1020A000FFFFFFFFFFFFFFFF3F00000000000000F9
:1020B0000000000000000000000000000000000020
:1020C000000000000000000000030707FFFFFFFF03
:1020D000FFFFFFFFFFFFFFFFFFFFFFFFFFFFFFFF10
:1020E000FFFFFFFFFFFFFFFFFFFFFFFFFFFFFFFF00
:1020F000FFFFFFFFFFFF070703000000FFFFFFFFD9
:10210000FFFFFFFFFFFFFFFFFFFFFFFFFFFFFFFFDF
:10211000FFFFFFFFFFFFFFFFFFFFFFFFFFFFFFFFCF
:10212000FFFFFFFFFFFF00000080C0C0FFFFFFFFB9
:10213000FFFFFFFFFFFFFFFFFFFFFFFFFFFFFFFFAF
:10214000FFFFFFFFFFFFFFFFFFFFFFFFFFFFFFFF9F
:10215000FFFFFFFFFFFFC0C0800000000000000085
:1021600000007CFE9E0E0E0E1E3E3C1E0E0E0E1E2F
:102170003E1E0E0E0E9EFE7C000058AC1E3E1E3E05
:102180003EBE5AE6F2F6F2F6E6DAAE1E3E9E3EBEDF
:102190003EBE5AE6F2F6FCB8000081427E427E4224
:1021A0003E82AEA2AEA2AAAAABAAAAAAAAAAAAAA2A
:1021B000AA0000000000000000ABAAAAA2AEA2AED6
:1021C000823E427E427E42810000F02C32F23E325C
:1021D0003232323EF2322CF00000048AFA8A8A8AC5
:1021E0008A8A8A8A8A8A8ACA2A2AAA2AAAAAAA2A0F
:1021F000AA2A2AAAAA2A2AAAAA2ACA8A8A8A8A8A3F
:102200008A8A8A8A8AFA8A0400AA55AA55AA55AAED
:1022100055000000000000000000007FC160E09059
:10222000000090E060C17F0000000000000087FF18
:102230007878FF87000000000000000000001FFF0A
:10224000E0E0FF1F0000000000009D2812050307CA
:1022500002000100010B19AE00001F68989FF8985A
:10226000989898F89F98681F0000000000000000F0
:10227000000000000000000000000000000000005E
:1022800000000000000000000000010202FE027ACF
:102290003A9ACAE2F2FAFAEFD0DBD6D0D0DFD0D742
:1022A000D8D7D0DFD2DDD0DFDAD0EFFAFAF2E2CA47
:1022B0009A3A7A02FE0202010000000000FF00FECE
:1022C000FFFFFFFFFFFFFFFF07FB8B0B0B8B8B8BD2
:1022D0000B0B8B8B8B0B0B8BFB07FFFFFFFFFFFFAA
:1022E000FFFFFE00FF0000000000008080FF80B9BB
:1022F000D5EDD5B981B9D5ED00FFB5A1A1A0A0A0BC
:102300009F9FA0A0A0A1A1B5FF00EDD5B981B9D52F
:10231000EDD5B980FF80800000102020282C2E2EC3
:102320002E2C202010000A040A00000000000000EB
:102330000000000000001C3E3E3E7E7E7E38387E5F
:102340007E7E3E3E3E1C00000000000000000000BB
:102350000000000000000000000000003C7E7E7EC7
:102360007E7E7E387878787878787878387E7E7E49
:102370007E7E7E3C00000000000000000070707057
:1023800070707070707070707070707070F0F0F0CD
:10239000F07070F0F0F0F0707070707070707070BD
:1023A00070707070707070007070F0F0F078383885
:1023B0003C1C1C1C3C3C3878F8F0F0F0F0F0F0F8D5
:1023C00078383C3C1C1C1C3C383878F0F0F07070BD
:1023D00000000000000000000000000000000008F5
:1023E00014141434100000103414141408000000E5
:1023F00000000000000000000000000000000000DD
:102400000000000000182424202410101030300098
:102410000030301010102420242418000000000088
:10242000000000000000200020202020202020208C
:1024300020202020202060602000002060602020DC
:1024400020202020202020202020202000200000EC
:10245000002000402000101000080808081010108C
:10246000206060000060602010101008080808005C
:1024700010100020400020000070F0F0FCFEFEFE76
:10248000FEFEFEFCFCF8F0F0700000E0FFFFFFFF36
:10249000FFFFFFFFFFFFFC780070F0F0F8FCFCFE90
:1024A000FEFEFEFEFEFCF0F0700078FCFFFFFFFF7A
:1024B000FFFFFFFFFFFFE00000387878FEFFFFFF1F
:1024C000FFFFFFFEFEFCF87838000000FFFFFFFF73
:1024D0007FFFFFFFFF7F7C78003878F8FCFEFEFF6F
:1024E000FFFFFFFFFFFE78783800787C7FFFFFFF5B
:1024F000FF7FFFFFFFFF00000000204040584C5CC2
:102500004C5C58585040402000000000C0B3A44725
:102510004724A7B3C9B830000000204040505858A5
:102520005C4C5C4C5840402000000030B8C9B3A758
:10253000244747A4B3C000000000102020AC26AE02
:10254000A62EACACA8202010000000000059D22319
:10255000231253D90C3830000000102020A8ACAC56
:102560002EA6AE26AC20201000000030380CD95327
:10257000122323D25900000000904E006F914F802B
:10258000006F905281006F80006F9051006F9152E8
:1025900080006F905581006F80006F9056006F80B3
:1025A000006F905900DE915780006F905A8100DED5
:1025B000915C80006F81F0905600D691558000D6D6
:1025C00090548100D691558000D6904A8100D691D2
:1025D000498000D690488100D691498000D6903E2F
:1025E0008101AC913D8001AC903B8100D68000D64A
:1025F000903A01AC80F03C1C0E0E060687FFFFE609
:102600007038DCFEFF1F0600008080800000008024
:10261000000040800000000000004060B03030B09A
:10262000F0F0F87E7F7FF6E0E070381C8E86A030F8
:1026300030108080C0C0C08000000080C0E070B852
:102640009C0E0000000000000000F0F89C8E861632
:10265000160E0C008080800000008080800000004A
:102660000000000000808080000000383C1E1F0732
:10267000030100001E3F3F18180C1E3F3F2927177B
:10268000181F3F381E303F1F000000000000383C7C
:102690001E0F07030100001E3F3F19180C1E3F3795
:1026A0003319DCBED3F9793C1E170B1C3E1F0F07F4
:1026B0003B3D1F1F0C060000000000183430303175
:1026C000313B3B1F0E1C3F3731180C1E3F33271583
:1026D0000F06073F3E301E3F3F29271753434F52F7
:1026E000453A2000F0FC1E0F8783030383A7BE3CFE
:1026F000000080C0C0C0000000800080C0C080C05A
:10270000C080000080C0C0C0800000000000000049
:1027100000F0FC1E0F17131B1B09ECF603008000D2
:1027200040C080000080C0C0C080000000C0C080E9
:10273000000003C7ACD8F97B3B1B0D070B0C1E1B1D
:10274000191C1F0F1C1E0F071B1D061F1D1E0F0D22
:10275000060F1F1F14130B000000000000000003F1
:10276000070C18181818180C07090C0F1F180C075D
:1027700003000F1F1F14131B180C0F010F1F190844
:1027800047414D4520454E4400004F2411241FBEB3
:10279000CFEFDAE0DEBFCDBF12E0A0E0B1E0ECE3C6
:1027A000F7E602C005900D92AC35B107D9F727E0E6
:1027B000ACE5B2E001C01D92A136B207E1F713E12A
:1027C000C6ECD3E104C02197FE010E948233C53CD0
:1027D000D107C9F70E9486240C949C330C94000006
:1027E00080918E02089590915407982329F090913A
:1027F0005307982381E009F080E00895E6EFF2E0C6
:1028000030EB20E146E05C983EBD4A95F1F72EBDE5
:1028100020E8239507C0449140815C9A4EBD811108
:10282000412D419344912A95B1F73395383B49F7AF
:102830000DB408952FB7F89483E08093E900909148
:10284000E800892F807295FF04C09091F20080E427
:10285000891B2FBF0895FC018091F502882311F197
:102860003FB7F89482E08093E9002091F200822F34
:1028700090E01816190614F481E090E0882339F0EE
:10288000289844E64093F4024091F10040832223CB
:1028900039F02091F200211103C02BE62093E800CB
:1028A0003FBF08958FEF9FEF08958091EC02811153
:1028B0000DC082E08093E80284E08093E9021092E8
:1028C000EB021092EA0281E08093EC0288EE92E043
:1028D00008950895409183025091840220918102CD
:1028E0003091820242175307B4F49091E80095703A
:1028F000E1F39091E80092FD19C08093F10080917E
:1029000083029091840201968F739927892B19F481
:102910008EEF8093E800809183029091840201966B
:10292000909384028093830281E0089580E008956B
:10293000DF92EF92FF920F931F93CF93DF93D82EE6
:102940008A01EB017B01E40EF51ECE15DF0559F07F
:10295000D7FE12C0FE0184910E946A142196811153
:10296000F4CF0FEF1FEFC801DF91CF911F910F91AF
:10297000FF90EF90DF9008958881EECF0F931F9323
:10298000CF93DF931F92CDB7DEB782E0898342E415
:1029900050E060E271E180E80E9498140E945514B2
:1029A000DC0112960D911C910115110589F0D801D9
:1029B000ED91FC910280F381E02DBE016F5F7F4FAE
:1029C000C801099597FD04C0F80100851185ECCF79
:1029D00089810F90DF91CF911F910F9108956150E0
:1029E00030F02091F100FC0120830196F8CF289867
:1029F00084E68093F4020895AF92BF92CF92DF9263
:102A0000EF92FF920F931F93CF93DF936C017B01A3
:102A10008B01040F151FEB015E01AE18BF08C01734
:102A2000D10759F06991D601ED91FC910190F081A7
:102A3000E02DC6010995892B79F7C501DF91CF916A
:102A40001F910F91FF90EF90DF90CF90BF90AF90CC
:102A50000895CF93DF931F92CDB7DEB76983DC0172
:102A6000ED91FC910280F381E02D41E050E0BE0148
:102A70006F5F7F4F09950F90DF91CF91089583E0AD
:102A80008093E9008091F200882319F08AE3809313
:102A9000E80008950E941A1490E00895CF93DF9300
:102AA0001F92CDB7DEB7FC018485958597FD08C0E0
:102AB0002FEF3FEF358724870F90DF91CF91089557
:102AC000CE0101960E942B14019719F4898190E0A0
:102AD000F3CF8FEF9FEFF0CF0F931F93CF93DF9341
:102AE0001F92CDB7DEB78C01FC018485958597FFD9
:102AF0000BC0CE0101960E942B14019771F48981BD
:102B000090E0F80195878487F801848595850F907A
:102B1000DF91CF911F910F9108958FEF9FEFF1CF2C
:102B2000FC018485958597FD0BC09FB7F89482E0E2
:102B30008093E9008091F2009FBF90E00196089594
:102B40009FB7F89482E08093E9008091F2009FBFE4
:102B500090E00895FC010E944116319728F06851D9
:102B60007C4F8F4F9F4FF9CFAB01FC010E94411664
:102B7000641775078E079F07C8F308958F929F9279
:102B8000AF92BF92CF92DF92EF92FF920F931F937B
:102B9000CF93DF936C017B018A0180911001882320
:102BA00009F45AC08091F502882309F455C0809138
:102BB000870280FF05C08091E00082608093E00082
:102BC000E801B12C8AEFA82E93E0892E2AE3922EF9
:102BD000209711F4BB20C9F10E941A14811108C07A
:102BE000AA94AA20C9F181E090E00E94AA15F0CF32
:102BF0008C171D0611F00CF08C2F9FB7F894809263
:102C0000E9002091E80025FD02C09FBFE1CF282FF9
:102C100030E0C21BD30BF701815020F0419140936B
:102C2000F100FACFE20EF31EBB2021F09092E800F3
:102C3000B12CEBCF8091E80085FDE7CF9092E800C2
:102C4000BB24B394209709F3F3CF5D9884E6809377
:102C50008602101611063CF081E090E0F6019383A5
:102C6000828310E000E0C801DF91CF911F910F91A6
:102C7000FF90EF90DF90CF90BF90AF909F908F909C
:102C80000895ADE7B2E02FB7F8947D918D919C91B6
:102C900066B52FBFA89B05C06F3F18F47F5F8F4FAD
:102CA0009F4F22E0660F771F881F991F2A95D1F743
:102CB0000895CF92DF92EF92FF921F93CF93DF930D
:102CC000E82FF0E0EF5EFD4F1081E62FF0E060337B
:102CD00098F5E051FF4EE491CE2FD0E0F12CE12C9D
:102CE00060E074E284EF90E0A7019E010E94F1325F
:102CF000215031094109510991E02115310581E047
:102D0000480751056CF060E970ED83E090E0A701A1
:102D10009E010E94F132215031094109510993E08D
:102D2000113089F0133039F1DF91CF911F91FF906D
:102D3000EF90DF90CF900895EE0FFF1FE051F04F1E
:102D4000C591D491CBCF80917A028111EDCF809142
:102D50008100887F892B80938100309389002093A4
:102D60008800109285001092840080916F0082602C
:102D700080936F00D9CF80919100887F892B8093B9
:102D80009100309399002093980010929500109232
:102D90009400D0937902C093780281E08093770207
:102DA00080917100826080937100BECFE82FF0E0C7
:102DB000EF5EFD4F8081813019F08330A9F00895D6
:102DC00080917A0281110FC080916F008D7F809376
:102DD0006F0080916902E0916702F0916802908132
:102DE00080958923808308951092770280917602DE
:102DF0008111F9CF80917402E0917202F091730217
:102E0000EECFCF93DF93D1E0E091DF02F091E002CB
:102E1000AF014F5F5F4F5093E0024093DF02249178
:102E2000822F807FC22FCF70803821F48C2F0E9498
:102E3000D616EACF803919F5E0914807F091490795
:102E400009958D2780937502E091DF02F091E002F1
:102E5000CF0101969093E0028093DF02649180910C
:102E6000D502C81788F6C13021F48091660281111D
:102E7000CBCF67FDC9CF8C2F0E945916C5CF87FDD8
:102E80003CC03296F093E002E093DF02FA014491F5
:102E9000A0917802B0917902322F242F0E944533FD
:102EA0006C507E4F8F4F9F4F28EE33E040E050E054
:102EB0000E94233320936E0230936F02409370027E
:102EC0005093710280916E0290916F02A0917002F6
:102ED000B0917102892B8A2B8B2B61F481E090E0F9
:102EE000A0E0B0E080936E0290936F02A093700216
:102EF000B0937102DF91CF910895803E49F48091A3
:102F0000E1029091E2029093E0028093DF027CCF95
:102F1000803F09F079CF1092DE02ECCF9091D5027C
:102F2000923009F471C0292F30E0F901EF5EFD4FB6
:102F300040812C593D4FF9018083913031F420912B
:102F40006402281302C0909366029F5F9093D5029B
:102F500090E0FC01EF5CFF4E24918E5E9F4EFC01E1
:102F6000849130E0220F331FF901EC5FFF4E659131
:102F70007491F901EA50F04FA591B4919C91982B6E
:102F80009C93413019F04330D9F00895909164003A
:102F9000977F90936400109280001092810090912E
:102FA000810098609093810090918100916090934E
:102FB00081007093680260936702809369020895AC
:102FC00090916500977F9093650010929000109209
:102FD0009100909191009860909391009091910050
:102FE000916090939100709373026093720280934A
:102FF00074028091D502882321F06CE380E00E9466
:10300000591680E00C94D61608952D9A089590E0F4
:103010000C94AA158FB18095807F669B88601C9B5D
:103020008460089510928E023E98579808953E9AB3
:10303000579A81E080938E02089590E1282F81E0D5
:1030400061FD84E060FD880F62FD8295687F969F38
:10305000D0011124A20FAA50BD4F0C90082A40FFA6
:1030600008260C9208952F923F924F925F926F9292
:103070007F928F929F92AF92BF92CF92DF92EF9208
:10308000FF920F931F93CF93DF93CDB7DEB72897AF
:103090000FB6F894DEBF0FBECDBF9E838D836A301E
:1030A00061F5DC0155968C91B8E08B9F900111245D
:1030B000ED81FE8181899289820F931F928B818B92
:1030C000108A178681E090E028960FB6F894DEBF4C
:1030D0000FBECDBFDF91CF911F910F91FF90EF9069
:1030E000DF90CF90BF90AF909F908F907F906F9028
:1030F0005F904F903F902F9008956D3019F32D8180
:103100003E8138872F83D9011F960D911C915097CE
:10311000003811050CF07CC05196AD90BC90B0E425
:10312000AB16B1040CF074C0F901258825E0C80184
:10313000229E800D911D1124181619060CF068C0EE
:10314000622C712CC30133E0880F991F3A95E1F787
:103150008A0D9B1D181619060CF05AC0F489FB83C2
:10316000AF81B8855396BC91BC83629FB001112496
:10317000FB01EA50F54F2F011982F2018491F98188
:10318000F53009F480E0450128E02A83A82FB0E05B
:10319000BE83AD833C8080FF3B80311004C0BB8187
:1031A000EC81BE17F9F078018E2D801B8215D0F4CA
:1031B000D12CC12CC21490F4F0E8EF16F10450F4B5
:1031C000B601680D791D6034710520F4432DC701E7
:1031D0000E941D182FEFC21AD20AECCF3FEFE31A5C
:1031E000F30AE2CF8D819E81959587959A819150C2
:1031F0009A83860C971C9111C9CFA981AF5FA983CF
:10320000BFEF4B1A5B0A060D171DA63009F0B5CFAC
:10321000EF81F8852589422F50E087859089F6E077
:103220002F9F800D911D1124AF81B88550969C93DE
:103230008E931F9756962C915697222309F442CFCE
:103240006AEF64039001659F300D112420583F4FB1
:10325000281739070CF036CFED91FC9111970190AA
:10326000F081E02D6AE0CD0109952CCF0F931F93DB
:10327000CF93DF938C01D0E0C0E0F801EC0FFD1F8D
:103280006491662341F08AE497E00E943318892B09
:1032900011F02196F2CFCE01DF91CF911F910F91C6
:1032A00008952F923F924F925F926F927F928F92EA
:1032B0009F92AF92BF92CF92DF92EF92FF920F93C5
:1032C0001F93CF93DF9300D000D0CDB7DEB76E2C25
:1032D00030E0F901E80FF91F1E161F060CF092C02E
:1032E000803891050CF08EC0402E512CF201E60F73
:1032F000F71F1E161F060CF085C0603471050CF018
:1033000081C0E62FE7707E2EE3E055944794EA955E
:10331000E1F7F3E075956795FA95E1F7A62E660F4C
:10332000BB08B5017695762F662777956795680F68
:10333000791F6A507D4FDA0110E000E07801EA0C55
:10334000FB1CF8E0EF16F1040CF05CC04FEFE41644
:10335000F4060CF44DC09C838B8350E040E04B019D
:10336000F0E88F0E911CCB80DC80D7FC31C0FD01D2
:10337000E40FF51FE491F0E06F01072C02C0CC0CC4
:10338000DD1C0A94E2F7DA82C982EFEFEE16FE0640
:1033900009F456C06B01C40ED51EF6013080F1E071
:1033A0006F1247C0E9813E2AF6013082772081F012
:1033B000F7E0EF16F10461F06401C40ED51EF601CA
:1033C0003080F1E0EA816F1238C03E2AF601308287
:1033D0004F5F5F4FEB81FC813196FC83EB8342179B
:1033E000530734F4EB81FC81E038F10509F0BBCFE1
:1033F0000F5F1F4F60587F4FA20FB31F401651063B
:1034000009F09CCF0F900F900F900F90DF91CF910C
:103410001F910F91FF90EF90DF90CF90BF90AF90F2
:103420009F908F907F906F905F904F903F902F90E4
:103430000895298020943220B7CFE0953E22C6CF50
:103440007110BACFC5CF0895089590E080E0089537
:103450004F925F926F927F928F929F92AF92BF92A4
:10346000CF92DF92EF92FF92CF93DF9320918E0263
:10347000222309F466C04A015B01EC01E091480790
:10348000F09149070995882309F45BC08091D50222
:10349000823008F456C081E080937A028091630202
:1034A000809376022E010D2E000C6608770860E0EE
:1034B00072E18AE790E0A30192010E94F132690172
:1034C0007A0181E0C81AD108E108F10891E0C1143D
:1034D000D10481E0E806F10484F068E478EE81E04C
:1034E00090E0A30192010E94F13269017A0181E02A
:1034F000C81AD108E108F10893E080918100887F23
:10350000892B80938100DE01AA0FBB1FA5019401C6
:103510000E94103328EE33E040E050E00E94233355
:10352000D0928900C092880020936A0230936B0287
:1035300040936C0250936D0280916F008260809383
:103540006F00DF91CF91FF90EF90DF90CF90BF9011
:10355000AF909F908F907F906F905F904F90089565
:103560008091DE02811111C08091030190910401CC
:103570009093E2028093E1029093E0028093DF0255
:103580000E94011781E08093DE020895EF920F936D
:10359000CF93DF93EE24E39400E120E146E75AE085
:1035A00070E060E090E080E00E94511920E146E97F
:1035B0005AE070E060E080E790E00E94511920E15D
:1035C00046EB5AE060E370E090E080E00E94511921
:1035D00020E146ED5AE060E370E080E790E00E9471
:1035E0005119C0E1D0E041E0BE0182E090E00E94CC
:1035F0001D182196C033D105B1F7C0E1D0E041E0FC
:10360000BE018DE790E00E941D182196C033D105C0
:10361000B1F7E6E0F3E091E6915059F4E6E8F6E020
:1036200091E6915061F08191DF01119780628C9356
:10363000F8CF8191DF01119784608C93EDCFDF91FA
:10364000CF910F91EF900895CF93C82F88E00E94FB
:10365000F313882351F044E650E060E070E080E925
:1036600091E00E94281AC093E502CF910895E4E901
:10367000F2E010821182359682E0E03DF807C9F74A
:1036800008958091D002811118C04FEA50E060E0A7
:1036900070E088E691E00E94281A8EE180930C0287
:1036A00084E18093D0021092D90280910802815067
:1036B000809308028AE08093D60208958091DC020C
:1036C0008F5F8930A8F48093DC028091DA02823027
:1036D00074F0E091DC02F0E0E45DFD4F9081891B25
:1036E0008093DA0280916202891B809362020895BE
:1036F00088E0E9CF603418F5659565956595062EE7
:10370000000C770B20919102082E000C990B820F70
:10371000911D27FD9A9597FD079623E0959587952E
:103720002A95E1F74EE1469F9001479F300D112405
:103730002B5E3E4F820F931FFC018081089586E42B
:1037400008956091DB02685FE091DC02F0E0E45DE7
:10375000FD4F8091DA029081891B0E947A1B91E0D3
:1037600086320CF090E0892F0895CF93C091DA0251
:103770006091DB02685FE091DC02F0E0E45DFD4F08
:1037800098E09C0F8081890F0E947A1B863234F06A
:1037900081E0C9370CF480E0CF91089581E0FCCF3F
:1037A000CF93DF93C091DB02C05FD091DA026C2F20
:1037B0008D2F0E947A1B91E086314CF06C2F88E0AF
:1037C0008D0F0E947A1B91E086310CF090E0892FDA
:1037D000DF91CF910895982FE4E9F2E030E020E006
:1037E000822F508151110DC055E0529FF001539F1F
:1037F000F00D1124EC56FD4F9083118263834483B6
:1038000008952F5F3F4F35962C30310549F70895C5
:10381000EF920F93DC01FB018091D60218165CF445
:103820008091E70263E00E946033892F990F990B22
:103830000197E80FF91FBF01CD010E9451190F91A7
:10384000EF9008952F923F924F925F926F927F92E6
:103850008F929F92AF92BF92CF92DF92EF92FF92A0
:103860000F931F93CF93DF93CDB7DEB728970FB693
:10387000F894DEBF0FBECDBF8091E70265E00E94E5
:103880006033982E182F117817FF03C011501E6F48
:103890001F5F84E21802900111243A832983C090AB
:1038A000D3020C2C000CDD08360190E1690E711C6E
:1038B000F090D202AF2C0F2C000CBB08A9014A518A
:1038C000564FE12C00E122E1B301C50188599F4F19
:1038D0000E94081C29813A81225D354F38872F8349
:1038E00039E6A30EB11C8F2D817887FF03C081506C
:1038F0008E6F8F5F9501280F311D87FD3A953A83B2
:103900002983E12C00E122E14F815885B6018981AC
:103910009A8101970E94081C892D990C990B019698
:1039200062E070E00E946E331C0132E0230E311C15
:10393000460180E1881A91088F2D837887FF03C0A4
:1039400081508C6F8F5F9501280F311D87FD3A954F
:103950003C832B8384E2829DA001839D500D112422
:103960004A51564FE12C00E122E1B4018B819C8148
:1039700001970E94081C260130E2431A51088F2D3E
:1039800066E00E9460339501290F311D97FD3A953D
:103990003E832D8322E14F815885B2018D819E8126
:1039A00001970E94081C20E21202C001112498878E
:1039B0008F83AC014A59564FEE24E39420E1B301C2
:1039C000C5010E94081C8F8198858A55964F98875B
:1039D0008F8320E1AC01B60189819A810E94081C85
:1039E000A10185E0440F551F8A95E1F74A59564FCA
:1039F00020E1B4018B819C810E94081C20E14F8151
:103A00005885B2018D819E810E94081C28960FB6B0
:103A1000F894DEBF0FBECDBFDF91CF911F910F9104
:103A2000FF90EF90DF90CF90BF90AF909F908F90DE
:103A30007F906F905F904F903F902F900895CF921E
:103A4000DF92EF920F93CF93DF93C090D3020C2CB1
:103A5000000CDD08C091D2020C2E000CDD0BB6016B
:103A6000615F7F4FE12C00E121E14CEC5EE1CE0192
:103A700088599F4F0E94081CC759DF4FB601605FED
:103A80007F4FEE24E39420E14AE85EE1CE010E94FC
:103A9000081CB60161507109E12C20E146E459E0AF
:103AA000CE010E94081CEE24E39420E146E259E096
:103AB000B601CE010E94081CDF91CF910F91EF90CB
:103AC000DF90CF9008958F929F92AF92BF920F9305
:103AD0001F93CF93DF93CDB7DEB7A1970FB6F894BE
:103AE000DEBF0FBECDBF19A2423008F44AE08E01FE
:103AF0000F5D1F4F842E912CB12CA12CA501940198
:103B00000E942333E62FB901CA01EA3044F5E05D93
:103B1000D801EE938D01232B242B252B79F790E0F0
:103B200080E0109769F0FD0101900020E9F73197DE
:103B3000AF014A1B5B0BBD018AE497E00E94FC14B5
:103B4000A1960FB6F894DEBF0FBECDBFDF91CF9127
:103B50001F910F91BF90AF909F908F900895E95C57
:103B6000D7CFCF92DF92EF92FF92CF93DF936C018A
:103B7000990FEE08FF08F7FE19C06DE28AE497E09E
:103B80000E943318EC0166277727CB016C197D0959
:103B90008E099F094AE00E94631D8C0F9D1FDF91D3
:103BA000CF91FF90EF90DF90CF9008954AE0C7014A
:103BB000B601DF91CF91FF90EF90DF90CF900C9402
:103BC000631D0C94DB32CF92DF92EF92FF926B0178
:103BD0007C01C114D104E104F10441F00E9442329D
:103BE000A70196010E94F1326B017C01C701B60169
:103BF000FF90EF90DF90CF9008954F925F926F9279
:103C00007F928F929F92AF92BF92CF92DF92EF926C
:103C1000FF920F931F93CF93DF93882E65E070E0A0
:103C200080E090E00E94E31DC62F809100018F3F4D
:103C300009F062C010920001C0E0712C30E5C302AF
:103C4000E0011124482D5AE04502C00111249C01D5
:103C50002B5E3E4F6901912C20E9A22EBB24B39428
:103C60007C0134E0E30EF11C37E0632E10E000E04D
:103C700020910001A5012403F001259FF00D1124DE
:103C8000CE01800F911FE80FF91FE455FF4F5490AC
:103C9000452C50E555156CF482E5581257C08091BB
:103CA0000101662D0E946033923009F445C086E41C
:103CB000582EF601E00FF11F50820F5F1F4F0A30A0
:103CC0001105B1F63EE1C30ED11C2A9648E0940ED0
:103CD00050E49512CBCFDF91CF911F910F91FF90C0
:103CE000EF90DF90CF90BF90AF909F908F907F909C
:103CF0006F905F904F90089582309CF463E070E085
:103D000080E090E00E94E31D609300012FEF82129B
:103D100094CF10920001C0E07724739442E0842E87
:103D20008DCF63E070E080E090E00E94E31D6F5F64
:103D30007F4F8F4F9F4FE8CF6E2D600F660F660F3E
:103D4000660F492D82E50E94EB1BB1CF63E770E05F
:103D500080E090E00E94E31DAB01BC01809106026F
:103D6000082E000C990B0496092E000CAA0BBB0B15
:103D7000481759076A077B070CF09BCF26E5492DAA
:103D8000521201C044EF18140CF091CF71108FCF74
:103D90006E2D600F660F660F660F842DD4CFCF9304
:103DA0008091DC028F5F893010F58093DC02809176
:103DB0006202E091DC02F0E0E45DFD4F2081482FDB
:103DC000082E000C550B909102019417150609F06E
:103DD00024F49091090291110CC09091DA02920F93
:103DE0009093DA02280F20936202CF91089588E021
:103DF000DCCF3091E702832F65E00E94603341E021
:103E0000911140E080911401841B80931401832F51
:103E100063E00E94603331E0911130E08091130142
:103E2000831B809313012093DD0280919102280F60
:103E300020351CF420939102D8CF20552093910275
:103E400025E131E088E0F90194E142854193915008
:103E5000E1F78150225E3F4F8111F5CF8091010142
:103E600081508093010187FF4FC08FEF0E94FD1D9D
:103E7000809101018D3F09F0B8CF8CEA97E09093D3
:103E80000401809303019093E2028093E1029093F6
:103E9000E0028093DF020E94011781E08093DE023E
:103EA0004FEA50E060E070E088EC90E00E94281A51
:103EB0008FE780930201C091060283E08C0F81316D
:103EC0002CF5809309021092D40288E18093D302EA
:103ED00084E18093D6020E94371B809107028823D9
:103EE000B9F086E98C1B8093D1021092D20281E056
:103EF0008093930288E280930C0281E080930B020E
:103F000084E18093D00271CF82E0B0CF80E1D9CF3D
:103F100088E78C1B8093D10288E08093D202EACF9D
:103F20008CEE96E090930401809303019093E2025B
:103F30008093E1029093E0028093DF020E940117D8
:103F400091E09093DE0280910602895F80930101E7
:103F500084E180930C0290930B028AE08093050227
:103F60001092D9021092D002109292021092DC02AA
:103F700086E08093DA0290EF9093DB0280936202F6
:103F80008EE38093020110928F021092D1028FEF84
:103F900080930902109293021092D602809300013E
:103FA00080E00E94FD1D81E00E94FD1D82E00E94D4
:103FB000FD1D109291020C94371BFF920F931F93DB
:103FC000CF93DF93EC01F62E08811981C8010E947E
:103FD000DB32F81621F06F2DC8010E94E332CE01CA
:103FE000DF91CF911F910F91FF9008950F931F9331
:103FF000CF93DF9300D0CDB7DEB782E792E09A830C
:10400000898306EF16E0F8016081CE0101960E94D7
:10401000DD1F83E792E09A838983F8016181CE01F5
:1040200001960E94DD1FC8010F900F90DF91CF9184
:104030001F910F9108951F920F920FB60F921124A6
:104040008F939F938091E1009091E100937F9093F3
:10405000E10083FF0FC01092E90091E09093EB0024
:104060001092EC0092E39093ED001092F50298E02C
:104070009093F00082FF22C093E09093E90090912A
:10408000F200992319F09AE39093E8009091860248
:10409000992341F09091860291509093860291115C
:1040A00001C05D9A9091F402992341F09091F4023D
:1040B00091509093F402911101C0289A84FF18C086
:1040C0008091E2008E7E81608093E2008091E10029
:1040D0008F7E8093E100809187028E7E8061809345
:1040E00087029F918F910F900FBE0F901F90189590
:1040F00080FFF7CF8091E2008E7E80618093E200A6
:104100008091E1008E7E8093E100809187028E7E17
:104110008160E5CF1F920F920FB60F921124CF92BC
:10412000DF92EF92FF920F931F932F933F934F9342
:104130005F936F937F938F939F93AF93BF93EF930F
:10414000FF93CF93DF93CDB7DEB76C97DEBFCDBFC4
:104150001092E9008091E80083FF25C068E0CE015D
:1041600045960E94EF1482EF8093E8008D8987FFC7
:1041700039C09091E80090FFFCCF982F907609F01D
:1041800034C19E894F89588D2F89F88C911131C087
:10419000803861F5809188028093F1001092F100DF
:1041A0008EEF8093E8006C960FB6F894DEBF0FBEDA
:1041B000CDBFDF91CF91FF91EF91BF91AF919F91D3
:1041C0008F917F916F915F914F913F912F911F91AF
:1041D0000F91FF90EF90DF90CF900F900FBE0F9058
:1041E0001F9018959EEF9093E800C7CF1092F100B2
:1041F000D5CF913059F48111D3CF4130510581F69B
:10420000809188028D7F80938802CACF933049F4D1
:104210008111C6CF4130510519F680918802826024
:10422000F2CF953041F48091E80080FFFCCF206808
:104230002093E300B5CF963009F0A9C00B8D1C8DFB
:1042400022E01092E9001092840210928302F2128E
:104250002EC010928202109281020E94BE141F8210
:1042600099E09983FA8291E09E8390EA98879AEF89
:1042700099872091830230918402275F3F4F3C83CE
:104280002B838D831092E900109284021092830296
:10429000109382020093810249E050E0BE016F5FFB
:1042A0007F4F80E00E9498140E94BE1479CF109333
:1042B0008202009381020E945514DC0112960D9136
:1042C0001C910115110509F451C1D801ED91FC9122
:1042D0000480F581E02DBE016B5E7F4FC80109951A
:1042E000009709F03EC1F80100851185EACFF3E09F
:1042F000FF120EC08F89882309F440C0823061F418
:1043000040E867E084E891E10E94D723811148CF1B
:1043100081E28093EB0047CF813029F440E86BE0E5
:1043200088E791E1F1CF833099F70E945514DC01C1
:104330001296ED90FC908E010F5F1F4F6801E11403
:10434000F10479F0D701ED91FC910680F781E02D21
:10435000B801C7010995080F111DF701E084F18428
:10436000EECFD8011C92F60101900020E9F73197B9
:10437000BF016C197D0940E0C601C6CF62E671E15C
:10438000FB01449150E080E80E94981409CF9730D7
:1043900009F4BECF983021F481E08093F10000CF82
:1043A000993009F0FDCE837009F0B2CFE4E1F2E07C
:1043B00081E031E096E32191222371F08093E900BE
:1043C0003093EB00DF0111972C912093EC00909338
:1043D000ED008F5F873079F78EE78093EA001092C7
:1043E000EA008F898093F502DBCE8B8D9C8D109235
:1043F000E9001092840210928302909382028093CB
:104400008102898D811192C08E899D89913A49F4EA
:10441000813209F07DCF47E050E069E071E080E053
:10442000B3CF913209F074CF833269F48F89988DBC
:10443000B0E0A0E08093050190930601A0930701EE
:10444000B0930801ADCE803269F48091E80082FF1C
:10445000FCCF67E089E091E00E94EF148BEF80933E
:10446000E8009ECE823209F09BCE8F8980931001A6
:10447000EEEFFFE7859194918B3F9C4D51F1E0E089
:10448000F8E08091090190910A01A0910B01B0918F
:104490000C01803B9440A105B105F1F4809110011D
:1044A00080FD1AC0EE3F8AE0F80789F587E797E7B5
:1044B00091838083809160008093850288E19BE0F6
:1044C0000FB6F894A895809360000FBE909360009B
:1044D00067CEEEEFFAE0D5CF80819181873797479D
:1044E00009F05ECEA895809160008861809360009D
:1044F0008091850280936000EE3F2AE0F20789F008
:104500008091FE0A9091FF0A9183808349CE808139
:1045100091818737980751F29093FF0A8093FE0AA2
:10452000C5CF1092FF0A1092FE0A3ACE0E9455148F
:10453000DC0112960D911C910115110509F4E8CECC
:10454000D801ED91FC910190F081E02DBE016B5EF0
:104550007F4FC8010995811123CEF801008511858F
:10456000EBCF181619060CF41BCED2CEF1E0FF12D9
:10457000BECE66E671E104CF0F920FB68F939F9384
:10458000EF93FF9380917C028D5F8D3708F08D57FC
:1045900080937C02E9E8F2E080818E4F80839181F4
:1045A0009F4F918382818F4F828383818F4F83833B
:1045B000EDE7F2E080818F5F808381818F4F81837F
:1045C00082818F4F828383818F4F83838FB18F60EE
:1045D00066991C9B88278F3681F480917B02981BFB
:1045E000963068F0E0E0F8E087E78083818388E137
:1045F00080936000F0936000FFCF90937B02FF9167
:10460000EF919F918F910FBE0F9018951F920F926F
:104610000FB60F9211242F933F934F935F936F9395
:104620007F938F939F93AF93BF93EF93FF9380916B
:104630007702882389F08091760281110DC08091E4
:104640007502811109C090917402E0917202F0919B
:1046500073028081892780838091DE02882329F17B
:1046600080916E0290916F02A0917002B0917102E0
:10467000892B8A2B8B2BC9F080916E0290916F024F
:10468000A0917002B09171020197A109B1098093C4
:104690006E0290936F02A0937002B0937102892B07
:1046A0008A2B8B2B11F40E940117FF91EF91BF9180
:1046B000AF919F918F917F916F915F914F913F91BA
:1046C0002F910F900FBE0F901F9018951F920F9271
:1046D0000FB60F9211248F939F93AF93BF93EF93D5
:1046E000FF9380917A02882309F454C080916A0272
:1046F00090916B02A0916C02B0916D02892B8A2B74
:104700008B2BA1F190916902E0916702F091680210
:1047100080818927808380916A0290916B02A091A9
:104720006C02B0916D02181619061A061B069CF44D
:1047300080916A0290916B02A0916C02B0916D021F
:104740000197A109B10980936A0290936B02A0932B
:104750006C02B0936D02FF91EF91BF91AF919F9169
:104760008F910F900FBE0F901F90189510927602A8
:1047700010927A0280916F008D7F80936F008091FC
:104780006902E0916702F091680290818095892327
:104790008083E1CF809175028111DDCF9091690214
:1047A000E0916702F091680280818927F1CFEF9252
:1047B000FF920F931F93CF93DF93F82E192FE62EBE
:1047C000042F81E0860F880F0E946A1483E00E9404
:1047D0006A14CF2DD12FEC0EFD2EF11CCE15DF0566
:1047E000B9F007FF13C0FE0184910E946A14182FCC
:1047F00080E00E946A14812321968111EFCFDF911E
:10480000CF911F910F91FF90EF9008958881EDCF88
:1048100081E0F5CF0F931F93CF93DF938C0181E05D
:1048200090E00E94E11D80FF32C08AE090E00E948B
:10483000E11D9FEF980F9E3F50F522E330E0D80135
:1048400050963C932E931F9728E330E052963C936A
:104850002E935197CBE0D0E0D801ED91FC910190DF
:10486000F081E02D682FC8010995CE010E94E11D5D
:104870002196C131D10581F780E00E94FE1388EEB8
:1048800093E0DF91CF911F910F910C94AA15DF91C6
:10489000CF911F910F91089504970C940A24E8EF8B
:1048A000F6E01382128288EE93E0A0E0B0E0848309
:1048B0009583A683B78389E392E0918380838FEF0A
:1048C0009FEF95878487EAE4F7E0138212821186CE
:1048D000128680E183871086178215868BE492E02A
:1048E0009183808389E592E095838483108A17867B
:1048F000128A118A81E0838B148A858B168A80EF55
:1049000093E190934907809348070895CDB7DEB7A8
:104910002E97DEBFCDBF789483E084BD83E085BD54
:1049200081E080936E00E1E8F0E083E08083E0E8DE
:1049300081E08083E1E983E08083E0E981E08083B6
:10494000E1EC87E08083E3EC81E08083E0EC82E0CF
:104950008083E2EC81E08083EAE787E080838068FF
:1049600080831092F5021092880210928702809143
:10497000D70081608093D70080EA8093D80089B502
:10498000806189BD89B5826089BD09B400FEFDCF13
:1049900081E090E00E94AA158091D8008F7C806110
:1049A0008093D8008091E000807F8093E000809128
:1049B000E1008E7E8093E1008DE08093E200559AC5
:1049C000209A81EC80937C0081E785B987E684B9E1
:1049D00085E38BB98FE38AB9769A6E9880EF81BBB5
:1049E00010BA80E58CBD81E08DBD85E00E9407187E
:1049F000599A85E00E9407185C98ECE3F2E18591F2
:104A00008EBD00000DB407FEFDCFE634C1F75C9A01
:104A100081E88093640081E0809365000E94FE132A
:104A20000E940A1802E010E087FF15C05C9885EA32
:104A30008EBD00000DB407FEFDCF5C9A2E985898ED
:104A40002D988091640080628093640081E083BF30
:104A5000889513BEFCCF0E940A1882FF3DC02D9896
:104A60000E940A1884788438B9F40E94051888ECEA
:104A70000E94071858981A8309836FEFCE01019698
:104A80000E94DD1F84EF91E00E94AA15589A0E94AF
:104A90000A1884788438D9F30E940A188471843102
:104AA000B9F40E94051888EC0E9407182E981A8302
:104AB000098360E0CE0101960E94DD1F84EF91E042
:104AC0000E94AA152E9A0E940A1884718431D9F383
:104AD00088EC0E940718BFCF0E94051882E090E082
:104AE0000E94E11D882309F4A4C00E94171881E0E8
:104AF00090E00E94E11D182F147081FF0EC011116B
:104B00002E9801EFC02EDD24DA940E940A1886FF49
:104B100093C02E9A589A0E94051882E30E940718A3
:104B20000E940A188111F9CF86E18093550789E721
:104B300095E29093E2028093E1029093E0028093E9
:104B4000DF020E94011781E08093DE0285E00E946F
:104B50008E1786E00E948E1782E792E00E94DB3279
:104B60008093F60683E792E00E94DB328093F7069B
:104B70008091F6069091F70697FF06C01092F7060F
:104B80001092F6060E94F61F809164008E7F80933B
:104B9000640080917A00806480937A0080917A002A
:104BA00086FDFCCF00917800109179000E9441169B
:104BB000AB01BC01C801B0E0A0E0DC019927882767
:104BC0008C019D01040F151F261F371FC901B80155
:104BD00020916400216020936400611571058105B6
:104BE000910511F00E9491328FEF9FEF909305078E
:104BF000809304079E012F5F3F4F3C872B87A6E2DF
:104C00002A2E312C9091890280915607392F381B1A
:104C1000832F20915707222309F441C0309358076E
:104C20001092570780E090E0892B61F30E9400000A
:104C3000E6CF0E9412185BCF112331F004E0C016BA
:104C4000D10411F42E9A589881E00E94FE13EE24AC
:104C5000E39400E128E54CE851E1B60184E190E0FD
:104C60000E94511980E00E94FE138FE00E940718F5
:104C70002FEFC21AD20A39E1C316D10409F045CF89
:104C8000112311F0589A2D9880E991E00E94AA15FD
:104C90000E9405188AE497E00E940A243ECF2091E2
:104CA0005507321748F48F5F821708F0BBCF81E0B9
:104CB00083BF889513BEB6CF81E08093570790934A
:104CC0005607E1E5F7E08081918101968083918329
:104CD00080915307809354070E940A1880935307CA
:104CE0008091E7028F5F8C330CF038C08093E7022D
:104CF00090E0E6EFF2E091119FEF8FEF91939193A7
:104D0000919391938150D0F710925C0710925B07BA
:104D100010925A0710925907E091E502E63108F027
:104D2000DBC10E2E000CFF0BE856F94D0C948233BC
:104D3000B12601274F27FB276C286C286C286C288C
:104D40006C286C28252844287C283228C8306C28F8
:104D50006C286C286C286C28073135311092E702DA
:104D6000C7CFEE24E39400E320E347E652E168E096
:104D700070E088E090E00E9451198BE490E09093FD
:104D80005A078093590788E090E090935C078093DE
:104D90005B078EE592E10E94361987E590E09093DB
:104DA0005A078093590782E190E090935C078093C3
:104DB0005B0787E592E10E94361986E590E09093C3
:104DC0005A078093590730925C0720925B0780E571
:104DD00092E10E94361984E490E090935A07809300
:104DE000590781E390E090935C0780935B0786E42A
:104DF00092E10E9436190E94B01A81E00E94241BA1
:104E00006BC1EE24E39400E320E349EA53E168E058
:104E100070E088E090E00E94511984E490E0909363
:104E20005A078093590788E090E090935C0780933D
:104E30005B078FE993E10E9436190AE410E01093B2
:104E40005A070093590782E190E090935C078093A2
:104E50005B0786E993E10E9436198CE590E0909318
:104E60005A07809359078CE190E090935C078093F8
:104E70005B0780E993E10E94361910935A0700936B
:104E800059078FE290E090935C0780935B0787E877
:104E900093E10E9436190E94B01A82E0AFCFEE244F
:104EA000E39408E128E240ED57E168E070E084E037
:104EB00090E00E9451190FE128E340EF56E160E2D3
:104EC00070E08CEF9FEF0E94511900E120E540E572
:104ED00056E161E070E08EE290E00E94511908E135
:104EE00022E44AE855E161E170E08AE390E00E9443
:104EF00051198091E7028F3154F000E125E440E040
:104F000055E168E270E087E390E00E945119F0906B
:104F1000E602FF2061F0EE24E39408E02CE144EE89
:104F200054E16AE370E085E390E00E94511910912A
:104F30008D02112361F0EE24E39408E026E04EEDAB
:104F400054E16AE370E08AE590E00E945119EE2492
:104F5000E39408E025E049ED54E168E370E080E780
:104F600090E00E945119D0908E0288E0D89EA00156
:104F7000112447535B4E28E068E370E088E790E037
:104F80000E94511980E80E94F313882321F081E0E8
:104F9000F826F092E60280E10E94F313882361F084
:104FA00081E0182710938D021123E9F084E08093AB
:104FB000120188E08093110184E00E94F31388239A
:104FC00071F0DD20A9F00E94121860918E0282E03B
:104FD00090E09A838983CE0101960E94DD1F0E9492
:104FE000B01A83E00BCF88E08093120184E0E2CF17
:104FF0000E941718EACF0E94C61AEE24E39400E13B
:105000002FE448E458E160E170E089E190E00E941B
:1050100051198091F6069091F7062CE330E08A3022
:1050200091053CF029E330E08436910514F026E345
:1050300030E030935A072093590730925C07209252
:105040005B070E94B11D8AE0D9CE8CE08093E50217
:105050001092E4021092E30281E08093060284E061
:1050600080930A0280910A02882361F08150809324
:105070000A020E94901F85E0809308028BE08093D3
:10508000E5022AC08EE0FBCF0E94C61AEE24E3940C
:1050900000E12BE246EE58E160E170E089E290E049
:1050A0000E945119809106022CE330E08A3014F0FE
:1050B00029E330E030935A072093590730925C0778
:1050C00020925B07082E000C990B0E94B11D8CE00A
:1050D0000E94241B0E94B01A8091E602882341F0AE
:1050E00040E054E066EF72E088EF96E00E94BE1563
:1050F00080E00E94FE1396CD80910902882379F00A
:1051000080910C02823309F0FCC080918F028F5F86
:1051100080938F02823318F08DE08093E5028091B6
:105120001401803E1CF48FE78093140180911301D9
:10513000803E4CF4809190029FE79093130191E0A0
:1051400089278093900280911401EE24E39400E17A
:1051500020E142E75AE169E070E0082E000C990B6B
:105160000E94511940919002A09013010A2C000C4A
:10517000BB08C42ED12C9BE1499FA0011124445CA3
:10518000554EE12C08E02BE164E170E0C501069684
:105190000E945119A6015695542F442757954795BB
:1051A000445C564EEE24E39400E220E263E170E0BA
:1051B000C5010E945119F5E14F2EF1E05F2E912CAF
:1051C000812C712C612CF201E60DF71D40814134D8
:1051D00020F5E8E04E9F6001112480919102530177
:1051E00073E0AA0CBB1C7A95E1F7A81AB10887FDF9
:1051F000B394A6014756504EE12C08E028E0B401D4
:10520000C5010E94081CA601475A5E4DEE24E39496
:1052100028E0B401C5010E94081CFFEF6F1A7F0A45
:105220000EE16016710479F61EE1410E511C28E072
:10523000820E911C30E48316910419F61091DB0262
:1052400014360CF4BEC080910902882309F4B9C059
:105250008FEF8093080204E912E01E870D87680132
:1052600018E75FE0F52E6AE0562EF6018081811185
:1052700068C1F5E0CF0ED11C20ED32E02C153D05C4
:10528000A1F7109109021111B6C30E94CF1E80919F
:10529000D40281119BC348EC50E060E070E08CEBDD
:1052A00092E00E94281A8091E3029091E4024996CC
:1052B0009093E4028093E3028091070291E08927B2
:1052C000809307028091060283361CF48F5F8093DF
:1052D00006020E94901F8BE08093E50280910802F5
:1052E00018160CF4C9C582E380930C0210E080917B
:1052F000D502181708F0B6C5812F0E94D6161F5F79
:10530000F6CF8E3109F40BCF883209F408CF0E9412
:105310000A1886FF42C08091D902811103C081E042
:1053200080930B020E94B51B811102C00E94CF1E08
:105330008091120190915407982399F4909153070A
:10534000892379F080910C0281110BC08AE080934F
:105350000C024FEA50E060E070E08AE892E00E94C0
:10536000281A8091110190915407982309F0D7CE03
:1053700090915307892309F4D2CE8091D9028111EB
:10538000CECE80E18093D9024AEF50E060E070E039
:1053900084EF91E00E94281AC2CE0E940A1885FF6D
:1053A0000DC08091D902811102C010920B020E949F
:1053B000A11B8111BDCF0E945E1BBACF1092DC02EF
:1053C000B7CF8091D902882319F181508093D902F7
:1053D00080910C02843109F46CC004F5882309F42F
:1053E0005BC08A3009F037CF80910502893008F020
:1053F0005BC0E82FF0E0ED5DFD4F9081191B10932D
:10540000DB028F5F8A3008F051C08093050223CF02
:1054100088ED8093D8021092D702DACF8E3119F03E
:10542000883209F018CF1092D9022091D00284E17D
:1054300090E0821B9109893091050CF06CC08D5D64
:105440009D4FFC018081181B1093DB02222309F47D
:105450006BC021502093D00280910C028E3191F4C8
:105460008091E70265E00E946033943059F08091AA
:105470000B02813009F05EC00E94A11B811102C0A5
:105480000E945E1B80910C02883209F0E4CE0E94DB
:105490005E1B0E945E1BDFCE0E94D01B8111DBCE03
:1054A00084E180930C02D7CE1150A9CF109205024F
:1054B000F7CF0E94D01B8823E9F0812F877887FFE0
:1054C00003C08150886F8F5F8530A4F410920C0266
:1054D00088E08093920210920502812F012E000C29
:1054E000990B409668E070E00E946E33181B109391
:1054F000DB02B1CE80919202E82FF0E0E65EFD4F34
:105500009081190F1093DB02882309F4A4CE8150F7
:1055100080939202A0CE8091E702817887FF93CF9B
:1055200081508E6F8F5F8FCF84E180930C02109239
:10553000D00292CF0E94B51B8111A4CF0E94CF1E32
:10554000A1CF83819091DD02891B8383803108F490
:105550001082F601248199EB920F983908F4108299
:10556000F60130816FEF323521F06AEF333509F4FF
:105570006CEF620F90E03C01F0E26F1A710848E0B6
:10558000A8E0323511F04AE0ABE0E091DA020E2EED
:10559000000CFF0B5F0108E0A00EB11C6A147B0435
:1055A000D4F4460D572D511DE417F507A4F4062E2B
:1055B000000C770B4091DB02042E000C550BFA0116
:1055C00070966E177F073CF44D5F5F4F6A0F711D39
:1055D0004617570734F04091D902411126C000E028
:1055E00048C0323509F474C0333509F087C60E94CB
:1055F000411BF6018481282F2850330B49018381F8
:10560000482F4552550B5A01E12C00E120E142EBB5
:105610005DE1B401C5010E94081CEE24E39420E181
:1056200042ED5DE1B401C501DDC66091D802062EF0
:10563000000C770B4091D702FB0138966E167F065F
:1056400074F644976817790754F6822F90E0042E79
:10565000000C550BFC013697BA016B5F7F4FE617C4
:10566000F7070CF0BCCF069601E0481759070CF07D
:10567000B6CF323509F02AC68091E702652D0E9427
:10568000603366E00E946033F52D9F0250011124C3
:10569000F6018481282F2250330B39018381482F52
:1056A0004152550B4A01A5014251514EE12C08E0EF
:1056B0002AE0B301C4010E945119A501465D504E74
:1056C000EE24E3942AE0B301C4010E945119D1CD24
:1056D0004FEA50E060E070E088E592E00E94281A0E
:1056E0008091080285303CF48F5F80930802F601B8
:1056F00010831182C1CF8091E3029091E40205965C
:105700009093E4028093E302F2CF8091E3029091C0
:10571000E4020396002309F4F5C59093E402809314
:10572000E3024FEA50E060E070E08CEB92E00E9410
:10573000281AF601108311829CCD353509F044C03A
:1057400081110E94411B002351F08091090218161B
:1057500044F38091E3029091E4020596DECFF601D6
:10576000A380F1EAFA1508F484CDAA94AA94F6016C
:10577000A3828091E70280FF04C094812181920F6F
:1057800094836F2D0E946033F0E28F024001112458
:10579000F6018481282F2850330B39014A2D4352BA
:1057A000550B5A01A4014E54544EE12C00E120E166
:1057B000B301C5010E94081CA4014E5C534EEE24A7
:1057C000E39420E1B3012FCF373509F0CCC081112C
:1057D0000E94411B8091E3029091E402099601111D
:1057E0009CCFF6018381823A08F043CDB180B1109D
:1057F00033C08F51990B2091DA02022E000C330B2B
:1058000041E0281739070CF440E0F601428380910B
:10581000060287FD8F5F859564E670E0681B71095D
:1058200087FD7395072E000C880B990B0E94E31DD2
:10583000672B682B692B61F44FEA50E060E070E061
:1058400086E292E00E94281AF60181818F5F8183AF
:10585000F601B180BB20B1F1F601A28004819380F2
:10586000602F8BEEA11001C08DED890D0E947A1B77
:1058700086329CF08A2D90E0880F991F0197F7E0FF
:10588000FB1508F450C0EB2DF0E0E55DFD4F908175
:10589000989F900C1124F6019382FAE0FB1508F40E
:1058A00047C0063060F027E02B1508F43FC0EB2D11
:1058B000F0E0EE5DFD4F8081081BF6010483B39498
:1058C000F601B18241E050E0F6018181811102C010
:1058D00050E040E0440F551FF601A280A40EB52E03
:1058E000B11C95E0AA0CBB1C9A95E1F78481282F86
:1058F0002850330B39018381482F4352550B4A01FD
:10590000A5014E56554EE12C00E120E1B301C40142
:105910000E94081CA5014E5E544EEE24E39420E143
:10592000B301C4015FC5880F980EB5CF0150C5CF34
:1059300028E0A22EA00EF601B3806A2D80EE8B0D1A
:105940000E947A1B86313CF06A2D88EE8B0D0E94F6
:105950007A1B86312CF4F6011182087F0483B2CFC2
:105960000E5FF601FBCF383709F083CCF60141809A
:1059700041E050E0F9E0F41510F050E040E04A0159
:1059800003E0880C991C0A95E1F7422F4250550B11
:105990005A01A4014E56544EE12C08E028E0B5010E
:1059A000C3010E945119A4014E55544EEE24E394B4
:1059B00028E0B501C3010E94511981E0840DF60170
:1059C0008183833108F455CC108253CC815080936D
:1059D000D4029091D30291509093D302837009F036
:1059E0007DCC80910702882319F00E94221C76CC7E
:1059F0000E941F1D73CC11160CF070CC2091D202A6
:105A0000022E000C330BF901E759FF4F8091D302AE
:105A1000082E000C990B4091DA02042E000C550B55
:105A2000BA01685F7F4FE617F707D4F4B9016758EA
:105A30007F4F46175707A4F44091DB02042E000C59
:105A4000550BBA01605F7F4F861797074CF44D5F87
:105A50005F4FBC01605E7F4F461757070CF497C03D
:105A60004091D902442309F494C06091D802062ED3
:105A7000000C770B4091D702042E000C550BDB0174
:105A80001896EA17FB07B4F4590109E7A00EB11CF8
:105A90006A157B057CF45A0105E0A00EB11C8A153D
:105AA0009B0544F45C0100E2A00EB11C4A155B05A5
:105AB0000CF4ECC000910702002309F4D1C08091DE
:105AC000D10281508093D10220910602022E000C57
:105AD000330B2E5F3F4F8217130609F00CF4FBC007
