:020000040000FA
:100000000C94B80F0C94E00F0C94E00F0C94E00FDC
:100010000C94E00F0C94E00F0C94E00F0C94E00FA4
:100020000C94E00F0C94E00F0C94571D0C94C61D1B
:100030000C94E00F0C94E00F0C94E00F0C94E00F84
:100040000C94E00F0C94E00F0C94E00F0C94E00F74
:100050000C94E00F0C94E00F0C94E00F0C94F81F3C
:100060000C94E00F0C94E00F0C94E00F0C94E00F54
:100070000C94E00F0C94E00F0C94E00F0C94E00F44
:100080000C94E00F0C94E00F0C94E00F0C94E00F34
:100090000C94E00F0C94E00F0C94E00F0C94E00F24
:1000A0000C94E00F0C94E00F0C94E00F7DFF7DFFAB
:1000B00000C87DFF7DFF91FF91FF91FF91FF91FFB0
:1000C00091FF91FF91FF91FF91FF91FF91FF8CFFB5
:1000D0008CFF8CFF7DFF7DFF7DFF69FF69FF69FF5E
:1000E00087FF87FF87FF7DFF7DFF7DFF7DFF7DFF12
:1000F0007DFF7DFF7DFF007D7DFF7DFF7DFF7DFF1F
:100100007DFF7DFF7DFF7DFF013F3F3F7F00012D94
:100110001B377F0001152B157F00011325097F0078
:10012000010101017F007F4141417F00003E00004D
:10013000000000003E0000000000003E0000000043
:1001400000000000020502FE0D0BFE7FB0D07F3ED6
:10015000413EF09090909090F0E0404040406040F0
:10016000F01010F08080F0F08080E08080F08080DF
:1001700080F0909090F08080F01010F0F09090F06F
:100180001010F0808080808080F0F09090F090904F
:10019000F0F08080F09090F0080000010004400032
:1001A0000008002000000005F903FE00000000FE2A
:1001B000FF070303030303030307FFFE00FEABABCC
:1001C000ABFE000000FFFF00000000000000000088
:1001D000FFFF0000FF01FF00000000FFFF00000024
:1001E000000000000000FFFF00E0BFB0BFE0000023
:1001F00000FFFF000000000000000000FFFF000FF4
:10020000FA1AFA0F000000FFFF00000000000000D3
:100210000000FFFF0000FF80FF00000000FFFF065E
:100220000606060606060606FFFF007FD5D5D57F23
:10023000000000FFFF000000000000000000FFFFC2
:1002400000A09FC07F000000007FFFE0C0C0C0C0D2
:10025000C0C0C0E0FF7F00A0A0A1A0A4E0F010F803
:1002600010F010F0E0A8A0A0A1A0A4A0A0A0A8A0B9
:10027000A0A0E0F018F010F110F4E0A0A0A8A0A059
:10028000A0A0A0A8A0A0E1F014F010F018F0E0A049
:10029000A0A0A8A0A0A1A0A4A0A0A0E8F010F01089
:1002A000F018F0E0A1A0A4A0A0A0A8A0A0A0A0E0A9
:1002B000F810F011F014F0E0A0A8A0A0A0A0A0A851
:1002C000A0A00505050505470F080F082F080F0713
:1002D0000D05050505054505050D052505070F084F
:1002E0000F080F080F4705050D05250505050D0528
:1002F00005070F084F080F080F270505050D050511
:10030000050505450505070F280F080F080F070508
:1003100005054505050D05250505070F080F080FFF
:10032000084F07050D052505050505050500010212
:10033000030400010203040001020304000102039C
:10034000040001020304000102030400010203058A
:100350000001020304050102030505010203040074
:10036000010203050001020304050505050500015E
:10037000020304000102030400010203040001025D
:100380000304050505050505010203040501020333
:10039000050501020304050102030405010203052A
:1003A0000501020304050505050500000000000520
:1003B0000500050505050005050000000000050510
:1003C0000505050100000101000100000101010017
:1003D0000000010001000001010100010001010015
:1003E0000000010001010001000001010000000106
:1003F00001010001000001010100000100010001F4
:1004000000000001000100010001000001000101E5
:1004100001000100010001000100000101000100D4
:10042000010000010001010E1B7F7F3F1B0E000E2B
:100430001B7F3F3F5B0E000E5B3F3F7F1B0E0002AA
:100440000E1B7F3F5F0E00020E5B3F7F1F0E000200
:100450000E7B3F7F5F0E000E1F7F7F3F1F0E000E43
:100460001F7F3F3F5F0E000E5F3F3F7F1F0E000E5E
:100470005F7F3F7B0E02000E1F7F3F5B0E02000E70
:100480005F3F7F1B0E02000C1E2A6E2A1E0C00000E
:100490001E2567251E00000E1F2567251F0E000C58
:1004A0001E2A6E2A1E0C00001E2567251E00000E47
:1004B0001F2567251F0E000C1E2A6E2A1E0C000029
:1004C0001E2567251E00000E1F2567251F0E000C28
:1004D0001E2A6E2A1E0C00001E2567251E00000E17
:1004E0001F2567251F0E0000000000003E5B4F5BCC
:1004F0003E3E6B4F6B3E1C3E7C3E1C183C7E3C18C7
:100500001C577D571C1C5E7F5E1C00183C1800FFAA
:10051000E7C3E7FF0018241800FFE7DBE7FF3048D8
:100520003A060E2629792926407F050507407F05D2
:10053000253F5A3CE73C5A7F3E1C1C08081C1C3EC9
:100540007F14227F22145F5F005F5F06097F017FB7
:10055000006689956A606060606094A2FFA294085A
:10056000047E040810207E201008082A1C08081C9D
:100570002A08081E101010100C1E0C1E0C30383EDD
:100580003830060E3E0E06000000000000005F003E
:10059000000007000700147F147F14242A7F2A120A
:1005A00023130864623649562050000807030000F0
:1005B0001C2241000041221C002A1C7F1C2A080822
:1005C0003E08080080703000080808080800006035
:1005D000600020100804023E5149453E00427F4021
:1005E0000072494949462141494D331814127F1080
:1005F00027454545393C4A494931412111090736CA
:1006000049494936464949291E0000140000004066
:100610003400000008142241141414141400412260
:10062000140802015909063E415D594E7C1211120F
:100630007C7F494949363E414141227F4141413E0B
:100640007F494949417F090909013E414151737F71
:100650000808087F00417F41002040413F017F089A
:100660001422417F404040407F021C027F7F0408EB
:10067000107F3E4141413E7F090909063E4151211B
:100680005E7F09192946264949493203017F010342
:100690003F4040403F1F2040201F3F4038403F63C5
:1006A0001408146303047804036159494D43007F1F
:1006B0004141410204081020004141417F040201F0
:1006C0000204404040404000030708002054547892
:1006D000407F284444383844444428384444287FE0
:1006E000385454541800087E090218A4A49C787F3A
:1006F0000804047800447D40002040403D007F1005
:1007000028440000417F40007C047804787C080481
:1007100004783844444438FC182424181824241835
:10072000FC7C08040408485454542404043F442422
:100730003C4040207C1C2040201C3C4030403C443D
:10074000281028444C9090907C4464544C440008F9
:100750003641000000770000004136080002010227
:1007600004023C2623263C1EA1A161123A404020EF
:100770007A3854545559215555794121545478416A
:10078000215554784020545579400C1E527212392C
:1007900055555559395454545939555454580000E5
:1007A000457C410002457D420001457C40F0292402
:1007B00029F0F0282528F07C545545002054547C1D
:1007C000547C0A097F493249494932324848483203
:1007D000324A4848303A4141217A3A424020780032
:1007E0009DA0A07D39444444393D4040403D3C24D7
:1007F000FF2424487E4943662B2FFC2F2BFF092919
:10080000F620C0887E090320545479410000447DBD
:10081000413048484A32384040227A007A0A0A7207
:100820007D0D19317D2629292F28262929292630B1
:10083000484D4020380808080808080808382F10D4
:10084000C8ACBA2F102834FA00007B000008142A24
:10085000142222142A14089500220095AA0055009B
:10086000AAAA55AA55AA000000FF00101010FF0008
:10087000141414FF001010FF00FF1010F010F014FB
:100880001414FC001414F700FF0000FF00FF141400
:10089000F404FC141417101F10101F101F1414144C
:1008A0001F00101010F0000000001F101010101F8B
:1008B00010101010F010000000FF10101010101099
:1008C000101010FF10000000FF140000FF00FF00D8
:1008D000001F10170000FC04F41414171017141450
:1008E000F404F40000FF00F714141414141414F7A3
:1008F00000F7141414171410101F101F141414F4FC
:10090000141010F010F000001F101F0000001F1442
:10091000000000FC140000F010F01010FF10FF1495
:100920001414FF141010101F00000000F010FFFF3F
:10093000FFFFFFF0F0F0F0F0FFFFFF00000000000D
:10094000FFFF0F0F0F0F0F38444438447C2A2A3E14
:10095000147E02020606027E027E0263554941634E
:100960003844443C04407E201E2006027E02029948
:10097000A5E7A5991C2A492A1C4C7201724C304AE1
:100980004D4D303048784830BC625A463D3E49496A
:1009900049007E0101017E2A2A2A2A2A44445F4412
:1009A0004440514A444040444A51400000FF010342
:1009B000E080FF000008086B6B083612362436060C
:1009C0000F090F060000181800000010100030403A
:1009D000FF0101001F01011E00191D1712003C3C00
:1009E0003C3C0000000000F0F89C8E8783878E9CC2
:1009F000F8F00000FEFF0303030303070EFCF800FA
:100A000000FEFF0303030303070EFCF80000FFFFD3
:100A100000000000000000FFFF0000FEFF83838352
:100A20008383C7EE7C380000F8FC0E07030303073E
:100A30000EFCF800003F7FE0C08080C0E07F3FFFF9
:100A4000FF01010101010101FFFF0000FFFF0C0C8C
:100A50000C0C1C3E77E3C100007FFFC0C0C0C0C0CB
:100A6000E0703F1F00001F3F70E0C0C0C0E0703F5B
:100A70001F00007FFFC1C1C1C1C1E3773E1C000060
:100A80001F3F70E0C0C0C0E0703F1F0000000000CA
:100A900001FFFF010000008D14A1C881CFD9F10230
:100AA000AFF83C05017FD015454E255509D000FD16
:100AB000FF51536455054D4EC555001000F81D14E7
:100AC000531DF014147821551FFF00FFFFFFFFFF97
:100AD000FFFFFFFFFFFFFFFFFFFFFFFFFFFFFFFF26
:100AE000FFFFFFFFFFFFFFFFFFFFFFFFFFFFFFFF16
:100AF000FFFFFFFFFFFFFFFFFFFFFFFFFFFFFFFF06
:100B0000FFFFFFFFFFFFFFFFFFFFFFFFFFFFFFFFF5
:100B1000FFFFFFFFFFFFFFFFFFFFFFFFFFFFFFFFE5
:100B2000FFFFFFFFFFFFFFFFFFFFFFFFFFFFFFFFD5
:100B3000FFFFFFFFFFFFFFFFFFFFFFFFFFFFFFFFC5
:100B4000FFFFFFFFFFFFFFFFFFFFFFFFFFFFFFFFB5
:100B5000FFFFFFFF00000000000000808080808019
:100B60008080800000000000000080808080808005
:100B700080808000000000000000808080808080F5
:100B800080808000000000000000808080808080E5
:100B900080808000000000000000808080808080D5
:100BA00080808000000000000000808080808080C5
:100BB00080808000000000000000808080808080B5
:100BC00080808000000000000000FFFFFFFFFFFFAB
:100BD000FFFFFFFF00000000000000FFFFFFFFFF1E
:100BE000FFFFFF00000000000000FFFFFFFFFFFF0E
:100BF000FFFFFF00000000000000FFFFFFFFFFFFFE
:100C0000FFFFFF00000000000000FFFFFFFFFFFFED
:100C1000FFFFFF00000000000000FFFFFFFFFFFFDD
:100C2000FFFFFF00000000000000FFFFFFFFFFFFCD
:100C3000FFFFFF00000000000000FFFFFFFFFFFFBD
:100C4000FFFFFF00000000000000FFFFFFFFFFFFAD
:100C5000FFFFFFFF00000000000000808080808018
:100C60008080800000000000000080808080808004
:100C700080808000000000000000808080808080F4
:100C800080808000000000000000808080808080E4
:100C900080808000000000000000808080808080D4
:100CA00080808000000000000000808080808080C4
:100CB00080808000000000000000808080808080B4
:100CC00080808000000000000000FFFFFFFFFFFFAA
:100CD000FFFFFFFF00000000000000FFFFFFFFFF1D
:100CE000FFFFFF00000000000000FFFFFFFFFFFF0D
:100CF000FFFFFF00000000000000FFFFFFFFFFFFFD
:100D0000FFFFFF00000000000000FFFFFFFFFFFFEC
:100D1000FFFFFF00000000000000FFFFFFFFFFFFDC
:100D2000FFFFFF00000000000000FFFFFFFFFFFFCC
:100D3000FFFFFF00000000000000FFFFFFFFFFFFBC
:100D4000FFFFFF00000000000000FFFFFFFFFFFFAC
:100D5000FFFFFFFF00000000000000808080808017
:100D60008080800000000000000080808080808003
:100D700080808000000000000000808080808080F3
:100D800080808000000000000000808080808080E3
:100D900080808000000000000000808080808080D3
:100DA00080808000000000000000808080808080C3
:100DB00080808000000000000000808080808080B3
:100DC00080808000000000000000FFFFFFFFFFFFA9
:100DD000FFFFFFFF00000000000000FFFFFFFFFF1C
:100DE000FFFFFF00000000000000FFFFFFFFFFFF0C
:100DF000FFFFFF00000000000000FFFFFFFFFFFFFC
:100E0000FFFFFF00000000000000FFFFFFFFFFFFEB
:100E1000FFFFFF00000000000000FFFFFFFFFFFFDB
:100E2000FFFFFF00000000000000FFFFFFFFFFFFCB
:100E3000FFFFFF00000000000000FFFFFFFFFFFFBB
:100E4000FFFFFF00000000000000FFFFFFFFFFFFAB
:100E5000FFFFFFFF80808080808080808080808096
:100E60008080808080808080808080808080808082
:100E70008080808080808080808080808080808072
:100E80008080808080808080808080808080808062
:100E90008080808080808080808080808080808052
:100EA0008080808080808080808080808080808042
:100EB0008080808080808080808080808080808032
:100EC00080808080808080808080FFFFFFFFFFFF28
:100ED000FFFFFF0000000000000000FE0101010113
:100EE00001010102020202020202020303030303E0
:100EF00003030304040404040404040505050505B0
:100F0000050505060606060606060607070707077F
:100F1000070707080808080808080809090909094F
:100F20000909090A0A0A0A0A0A0A0A0B0B0B0B0B1F
:100F30000B0B0B0C0C0C0C0C0C0C0C0D0D0D0D0DEF
:100F40000D0D0D0E0E0E0E0E0E0E0E387DFFFFFA5D
:100F5000F67C3800387DFFFA7438003078FDFEFCEE
:100F6000F4683001000000000000000000008080F4
:100F70000000000000000000000000000000000071
:100F8000000000000040B0B0400000000000000081
:100F90000000000000000000000000000054ABABA7
:100FA00054000000000000000000000000000000ED
:100FB00000001818247EA5A57E2418180000000043
:100FC00000000000000000181824182424FF242426
:100FD000FF242418241818000000001818241824CE
:100FE0001824183C24FFA5A5FF243C182418241815
:100FF000241818000000000000000000000001019B
:1010000000000000000000000000000000000000E0
:101010000000000000020D0D0200000000000000B2
:10102000000000000000000000000000002AD5D5EC
:101030002A00000000000000000000019600780176
:1010400096001E0196001E3298009B4696004B5A51
:1010500096004B698E698E009B698E698E009B5A43
:10106000C05AC05AC0F1DBFE0000FEFBF102A5FD34
:1010700002555775DD55577DD5F0FFFCC0552B55F2
:10108000FF012B552B81E799FFFF99E799FE361C4D
:10109000047EB61C047EBE1C00FE3E1C00FF9F0E9C
:1010A00000001CBE7E001C3EFE041C36FE041CB666
:1010B0007E020EDB7F55AA55AA02FDA5027FDB0E3C
:1010C00002000E9FFF0A0B0B041309080C090B0FFB
:1010D000100F100F100F100F100F100F100F100F18
:1010E000100F100F100F10000000000F0000100F65
:1010F000100F100F100F100F100F100F100F100007
:1011000000000003040304000000080304030403B8
:1011100004030403040304000000000000000000B6
:10112000000000000B000000000B00000000000F9A
:10113000100F100000000003040304000B00000067
:10114000000000030403040304030400000304007C
:1011500000000000000000000003040000000B007D
:10116000000000000D0E0000000000030403040056
:101170000000000000000000000008000003040060
:10118000000B000304030403040304000003040031
:1011900000000003040304000000000B0000000333
:1011A0000403040000000000000000000000000034
:1011B000000000000B000000000000000000000321
:1011C000040304030400000000000000000000000D
:1011D0000000000304030400000000000000000001
:1011E000000B000000000B000000000000000000E9
:1011F00000030403040304030400000000000003D0
:1012000004030400000000030403040304030403B4
:101210000403040304030403040304030403040396
:101220000403040304030403040304030403040089
:101230000000000304030403040304000C0B0C026D
:101240000C03070C080A020C020C020304070C0032
:101250000000000B0C01020306030C030C03060C38
:10126000000000000C020101030303030C01010153
:1012700008070B0000000001020C0C030C030C011A
:1012800002060B00000000010C020A0B0A080C0207
:1012900003030C030300000000030A040703060411
:1012A0000603020C03020B0C04050102020C0105EB
:1012B000050C000000000B0A0A0807060A060503D1
:1012C000020000000001010203040303020C0206F5
:1012D00005070B010C0000000001020307070605CB
:1012E0000809020103040607010B000000000102C7
:1012F00004040205020B09080A0A020C040607008E
:101300000000FFFFFFFFFF7F7FBFBF9FFFDFDFDF2B
:10131000FFBF7F7BFB7307071F7F7F7F7F7FFFFF01
:10132000FBFBFB03FBFBFBFF0DFF0FDFEFEF1FFFE3
:10133000EF1FFF7F8FFFFFFFFFFFFFFFFFFFFFFF9D
:10134000FFFF1F0707030046C3E3E1F1F1F1F9F0E6
:10135000F99898D8F8F8F8F8C8E00080E0F0F0FFC5
:10136000FF7FBDBEBFBFFFFDFEDFFC1FFFFF1EFDF9
:10137000FFEFF0FEFFFFFFFFFFFFFFFFFFFFFF3F5D
:10138000FFFFFFFEFEFCFCF8E1E387070F0F0F0FE6
:101390000F0F0F0F0F0707C3E3F0F8FEFFFFFFFF6C
:1013A000F0EFDFDF5D5D617F5E407F407F7F405E0D
:1013B0005E5E617F615A5A5A597F605E7E7EFEC0D2
:1013C000DEFFFFFFFFFFFFFFFFFFFFFCF8800000D5
:1013D000044C687878707CB977776F8FFFFFFFFFD8
:1013E000FFFFFFFF007F010149552501097D09012C
:1013F000791579017D355901097D09017F00FFFFCC
:10140000FFFFAA55AA55AA55AA55AA55AA55AA55E5
:10141000AA55AA55AA55AA55AA150A0502010000FF
:101420000000000000080000000000C0C0800000B4
:1014300000000000000002000000000000000000AA
:10144000000010000000000000000002000000008A
:1014500000000000327F776363777F7141425A5406
:101460004448485050606040003870F4F0D0D0D00C
:10147000D6DA867CF88000FE03C12121A12121C19A
:1014800003FEAA0502FFFF0303C303030303834311
:101490004343438303FFFE55AA0000000000000001
:1014A0000000000020000000000000000D0B1B39B0
:1014B0007DF3E1C2CC986808C8306080000000006D
:1014C00000000020000000000000000000000100FB
:1014D00080000000A1B1B1BBBBBF9F8F9191A5A5BA
:1014E000CDCDA5A5A191998F001070F0F0D0D0D0EE
:1014F000D0D0D1D6D6E300FF0007888B888B880731
:1015000000FFAA0000FFFF0000030404040403001E
:10151000000000E700FFFF55AA00000200000000E5
:101520000000000000000000C0F09C84C4340C0CDB
:1015300093600101C1300C0302041820C30C10E0B9
:101540008000000000000000000200000000000019
:10155000000000001010B9B99F9F8F8F88081226D5
:10156000662A3A12120202030004CCECECFC9CE462
:10157000F4D4CCCC8C8400FF0000A9AABAAA9100B4
:1015800000FFAA0000FFFF0000212121212121E10D
:101590002141418F00FFFF55AA000000000000001C
:1015A00000066CD8D8D8C8E898103B4787070606CD
:1015B00081601807000000E0D8BC72E2C42D37C17A
:1015C00000030C10E080000000000001000000405B
:1015D00000000000DBDBDBD9D9D9DBDFD851515269
:1015E00052545458D8D0D041007171F1E1A1A1A159
:1015F0002111D1E9391D00FF0000D454D655D40083
:1016000000FFAA0000FFFF000024242424A464E7B4
:10161000242222E100FFFF55EA00000000800000C4
:101620000000400001217BA76FAF6EAC68E7980E09
:10163000112040800000003DFDFBFB7ABF40C03F11
:1016400080601C0300FF1B260C10004000000000FF
:101650000000000040C0E0F0F0FCFCFEA3A0B8BC1D
:10166000B4B2B3B1B0B0A0E00000000000000401CB
:10167000010306040D3E00FF00005D0404040500A4
:1016800000FFAA0000FFFF0000828282818080812B
:10169000828282F100FFFF55EA000400042E04005C
:1016A0000400400000000000010103060D1A352B64
:1016B00056AC58B061B24C83000302050281700C35
:1016C0000300C0708E81661800000000000000005A
:1016D00000000000F0F8FCFCFEFE1EAFF1A9A9F925
:1016E000A9A9F1A2020408F0000000000001000016
:1016F00000000000100000FF00008681010186004C
:1017000000FFAA00007FFFC0C0C0C0C0C0C0C0C0F2
:10171000C0C0C0C7C0FFFF55AA00200000000000E5
:1017200000000000000000100000000000000000A9
:101730000000010205060D1A355A74D8B659A8C41E
:1017400082030703020100000000000000080000FF
:101750000000000021232767E7EFFFFEB1B2B2B31C
:10176000B2B2B1A8A8A4A3E0000004100010BA10FF
:1017700000100000080000FF000093A8A9AA910033
:1017800000FFAA54A854A854A854A854A854A85474
:10179000A854A854A854AA55AA50A04080080000F4
:1017A0000000000000000000000000000000000039
:1017B000000000001000000000000000010302040F
:1017C0000103020000000010000000000000000003
:1017D000000000000101030307070F0F111121256D
:1017E0004D45D5D54D4D21231E0000000080000041
:1017F000000000020000007FC0808C928C928C80E0
:10180000C07F00000000000000003EE3C1C1C1C174
:10181000C1C1C1C1C1C1C1C1C1C1C1C1C1C1C1C1B8
:10182000C1C1C1C1C1C1C1C1C1E3FFFFFFFFC180CF
:1018300082BE8280BE80BE8488BE8086B88680805C
:101840008080BEAA94809CA2A29C80BE848884BE14
:1018500080BEAA9480BEAAA280BE9AAC80C1FFFFBF
:10186000FFFFE3C1C1C1C1C1C1C1C1C1C1C1C1C1CA
:10187000C1C1C1C1C1C1C1C1C1C1C1C1C1C1C1C158
:10188000E33E0000000000000000FF010000000037
:101890000000000000000000000000000000000048
:1018A0000000000000000000000000000000000038
:1018B0000000000000000000000000000000000028
:1018C0000000000000000000000000000000000018
:1018D0000000000000000000000000000000000008
:1018E00000000000000000000000000000000000F8
:1018F00000000000000000000000000000000000E8
:1019000001FF0000000000000000FF0000000000D8
:101910000000FF7F7F7F7F7F7F810000000000004D
:101920000000FF7F7F7F7F7F7F810000000000003D
:101930000000FF7F7F7F7F7F7F810000000000002D
:101940000000FF7F7F7F7F7F7F810000000000001D
:101950000000FF7F7F7F7F7F7F810000000000000D
:101960000000FF7F7F7F7F7F7F81000000000000FD
:101970000000FF7F7F7F7F7F7F81000000000000ED
:1019800000FF0000000000000000FF000000000059
:101990000000000000000000000000000000000047
:1019A0000000000000000000000000000000000037
:1019B0000000000000000000000000000000000027
:1019C0000000000000000000000000000000000017
:1019D0000000000000000000000000000000000007
:1019E00000000000000000000000000000000000F7
:1019F00000000000000000000000000000000000E7
:101A000000FF001C3EFE7EB61C04FF00000000002C
:101A10000000FF7F7F7F7F7F7F810000000000004C
:101A20000000FF7F7F7F7F7F7F810000000000003C
:101A30000000FF7F7F7F7F7F7F810000000000002C
:101A40000000FF7F7F7F7F7F7F810000000000001C
:101A50000000FF7F7F7F7F7F7F810000000000000C
:101A60000000FF7F7F7F7F7F7F81000000000000FC
:101A70000000FF7F7F7F7F7F7F81000000000000EC
:101A800000FF001C3EFE7EB61C04FF0000000000AC
:101A90000000000000000000000000000000000046
:101AA0000000000000000000000000000000000036
:101AB0000000000000000000000000000000000026
:101AC0000000000000000000000000000000000016
:101AD0000000000000000000000000000000000006
:101AE00000000000000000000000000000000000F6
:101AF00000000000000000000000000000000000E6
:101B000000FF001C3EFE7EB61C04FF00000000002B
:101B10000000FF7F7F7F7F7F7F810000000000004B
:101B20000000FF7F7F7F7F7F7F810000000000003B
:101B30000000FF7F7F7F7F7F7F810000000000002B
:101B40000000FF7F7F7F7F7F7F810000000000001B
:101B50000000FF7F7F7F7F7F7F810000000000000B
:101B60000000FF7F7F7F7F7F7F81000000000000FB
:101B70000000FF7F7F7F7F7F7F81000000000000EB
:101B800000FF00000000000000007FC08080808017
:101B90008080808080808080808080808080808045
:101BA0008080808080808080808080808080808035
:101BB0008080808080808080808080808080808025
:101BC0008080808080808080808080808080808015
:101BD0008080808080808080808080808080808005
:101BE00080808080808080808080808080808080F5
:101BF00080808080808080808080808080808080E5
:101C0000C07F000000000000000000000000000095
:101C1000187C6642C2C28684000080E0301010103A
:101C200020E0000000FE000080E03010101020E0F6
:101C3000000080E03010101030000010FE10101076
:101C4000000000000000E0F80C0606028286868490
:101C500000000030909090B0E0C0000000F06030D4
:101C60001030F0E020101030E080000080E03010F4
:101C7000101020E000000000000000000000000044
:101C80000000000000000000000000000000000054
:101C9000081818101018190F0200030F191111114C
:101CA00011090000001F0000030F19111111110983
:101CB0000000030F18101010180000000F1810106B
:101CC00000000000000001070C1818101010180F79
:101CD0000000061F111010081F1F0000001F000049
:101CE00000001F1F000000001F1F0000030F19113C
:101CF00011111109000000000000000000000000A8
:101D000000000000000000000080C0E0F0F8FC00CF
:101D100000000000000000000000000000000000C3
:101D200000000000000000000000000000000000B3
:101D3000000000000080E07030180C0C06868686DB
:101D400086868686860606040C08183070E0C080F9
:101D50000000000000000000000000000000000083
:101D60000000000000000000000000000000000073
:101D70000000000000FCF8F0E0C08000000000005F
:101D800000000060F0F8FCFEFFFFFFFFFFFFFFFE1A
:101D9000FEFEFEFEFEFEFEFEFEFEFEFEFEFEFEFE63
:101DA000FEFEFE7E1E0E020000000000000000008D
:101DB00000000000FFFF0100000000000000FFFF26
:101DC0001010101039EFC600000000000001FFFFE6
:101DD000FEF80000000000000000000000020E1EDF
:101DE0007EFEFEFEFEFEFEFEFEFEFEFEFEFEFEFE93
:101DF000FEFEFEFEFEFFFFFFFFFFFFFFFEFCF8F012
:101E000060000000000103070F1F3F7FFFFFFF0F6F
:101E10000F0F0F0F0F0F0F0F0F0F0F0F0F0F0F0FD2
:101E20000F0F0F0F0E080000000000000000000060
:101E30000000000001071E3870E0C0C080040707E2
:101E40000404040406078380C0C0E0F0F8FE7F1F8E
:101E50000F01000000000000000000000000080E5C
:101E60000F0F0F0F0F0F0F0F0F0F0F0F0F0F0F0F82
:101E70000F0F0F0F0FFFFFFF7F3F1F0F0703010023
:101E8000000000000000000000000000000103004E
:101E90000000000000000000000000000000000042
:101EA0000000000000000000000000000000000032
:101EB0000000000000000000000000010307070709
:101EC00007070707070707070703030101000000CB
:101ED0000000000000000000000000000000000002
:101EE00000000000000000000000000000000000F2
:101EF00000000000000301000000000000000000DE
:101F00000000080B000202020000090400000102A8
:101F1000020000052400100105240101010424022F
:101F2000060524060001070581031000400904018D
:101F300000020A00000007050202400000070583B6
:101F4000024000000403090412010002EF020140F4
:101F50004123368000010102030141726475696EFC
:101F60006F204C4C43004142413131303600BA20A1
:101F700011241FBECFEFDAE0DEBFCDBF11E0A0E03D
:101F8000B1E0EAE6F9E602C005900D92AC36B10781
:101F9000D9F727E0ACE6B1E001C01D92A335B20746
:101FA000E1F71FE0C8EBDFE004C02197FE010E94CB
:101FB0009934C73BD107C9F70E94EB200C94B33486
:101FC0000C940000ECEEF2E030EB20E146E05C988F
:101FD0003EBD4A95F1F72EBD20E8239507C04491F8
:101FE00040815C9A4EBD8111412D419344912A95C7
:101FF000B1F73395383B49F70DB40895FC01809152
:10200000EB02882311F13FB7F89482E08093E90056
:102010002091F200822F90E01816190614F481E046
:1020200090E0882339F0289844E64093EA024091F2
:10203000F1004083222339F02091F200211103C0E6
:102040002BE62093E8003FBF08958FEF9FEF0895A0
:102050002FB7F89483E08093E9009091E800892FEE
:10206000807295FF04C09091F20080E4891B2FBF1D
:1020700008958091E20281110DC082E08093DE021A
:1020800084E08093DF021092E1021092E00281E08E
:102090008093E2028EED92E00895CF93DF931F923A
:1020A000CDB7DEB76983DC01ED91FC910280F3814D
:1020B000E02D41E050E0BE016F5F7F4F09950F902A
:1020C000DF91CF91089583E08093E9008091F20041
:1020D000882319F08AE38093E80008950E9428106D
:1020E00090E00895CF93DF931F92CDB7DEB7FC0148
:1020F0008485958597FD08C02FEF3FEF35872487AE
:102100000F90DF91CF910895CE0101960E94FE0FAE
:10211000019719F4898190E0F3CF8FEF9FEFF0CF13
:102120000F931F93CF93DF931F92CDB7DEB78C0130
:10213000FC018485958597FF0BC0CE0101960E9416
:10214000FE0F019771F4898190E0F80195878487EB
:10215000F801848595850F90DF91CF911F910F91A4
:1021600008958FEF9FEFF1CFFC018485958597FD52
:102170000BC09FB7F89482E08093E9008091F20051
:102180009FBF90E0019608959FB7F89482E08093F6
:10219000E9008091F2009FBF90E008954091D8023D
:1021A0005091D9022091D6023091D702421753079D
:1021B000B4F49091E8009570E1F39091E80092FDFD
:1021C00019C08093F1008091D8029091D9020196B4
:1021D0008F739927892B19F48EEF8093E8008091F3
:1021E000D8029091D90201969093D9028093D80297
:1021F00081E0089580E00895DF92EF92FF920F93BF
:102200001F93CF93DF93D82E8A01EB017B01E40E5D
:10221000F51ECE15DF0559F0D7FE12C0FE018491E0
:102220000E94CE1021968111F4CF0FEF1FEFC8014D
:10223000DF91CF911F910F91FF90EF90DF90089564
:102240008881EECF0F931F93CF93DF931F92CDB76B
:10225000DEB782E0898342E450E062E07FE180E81B
:102260000E94FC100E943910DC0112960D911C9105
:102270000115110589F0D801ED91FC910280F381DF
:10228000E02DBE016F5F7F4FC801099597FD04C027
:10229000F80100851185ECCF89810F90DF91CF91F6
:1022A0001F910F910895615030F02091F100FC01D1
:1022B00020830196F8CF289884E68093EA02089557
:1022C0000895AF92BF92CF92DF92EF92FF920F9359
:1022D0001F93CF93DF936C017B018B01040F151FBC
:1022E000EB015E01AE18BF08C017D10759F0699124
:1022F000D601ED91FC910190F081E02DC601099588
:10230000892B79F7C501DF91CF911F910F91FF9034
:10231000EF90DF90CF90BF90AF900895FC010E94A6
:102320002512319728F068517C4F8F4F9F4FF9CF7E
:10233000AB01FC010E942512641775078E079F07E9
:10234000C8F308958F929F92AF92BF92CF92DF927F
:10235000EF92FF920F931F93CF93DF936C017B015A
:102360008A0180911101882309F45AC08091EB02FF
:10237000882309F455C08091DD0280FF05C080915B
:10238000E00082608093E000E801B12C8AEFA82E83
:1023900093E0892E2AE3922E209711F4BB20C9F1F5
:1023A0000E942810811108C0AA94AA20C9F181E0D6
:1023B00090E00E948E11F0CF8C171D0611F00CF0EA
:1023C0008C2F9FB7F8948092E9002091E80025FDBA
:1023D00002C09FBFE1CF282F30E0C21BD30BF70113
:1023E000815020F041914093F100FACFE20EF31EAC
:1023F000BB2021F09092E800B12CEBCF8091E80057
:1024000085FDE7CF9092E800BB24B394209709F3B1
:10241000F3CF5D9884E68093DC02101611063CF041
:1024200081E090E0F6019383828310E000E0C80130
:10243000DF91CF911F910F91FF90EF90DF90CF90A0
:10244000BF90AF909F908F900895AAE7B1E02FB70B
:10245000F8947D918D919C9166B52FBFA89B05C086
:102460006F3F18F47F5F8F4F9F4F22E0660F771FFB
:10247000881F991F2A95D1F70895AB01FC010E948E
:10248000251241505109E109F10928F068517C4FAA
:102490008F4F9F4FF6CFAB01FC010E9425126417AE
:1024A00075078E079F07C8F308952D9A089590E049
:1024B0000C948E118FB18095807F669B88601C9BE9
:1024C000846008958EBD00000DB407FEFDCF089511
:1024D0002F923F924F925F926F927F928F929F9234
:1024E000AF92BF92CF92DF92EF92FF920F931F9322
:1024F000CF93DF93CDB7DEB72B970FB6F894DEBF3F
:102500000FBECDBF9C838B836A3061F5DC0155968D
:102510008C91B8E08B9F90011124EB81FC81818923
:102520009289820F931F928B818B108A178681E08C
:1025300090E02B960FB6F894DEBF0FBECDBFDF91B3
:10254000CF911F910F91FF90EF90DF90CF90BF90B0
:10255000AF909F908F907F906F905F904F903F9043
:102560002F9008956D3019F3AB81BC8155969C90E6
:10257000559754965C9054975D8253964C90539720
:102580005196ED90FC9052971F968D919C91092D3C
:1025900010E0803891050CF084C020E4E216F104CC
:1025A0000CF07FC0E5E09C019E9E200D311D1124A2
:1025B000121613060CF075C09801F3E0220F331FBA
:1025C000FA95E1F72E0D3F1D121613060CF069C0A7
:1025D0006E9FF0011124BF0169517B4F7F836E8391
:1025E000AC01712CEE81FF812491F5E07F1201C0D6
:1025F00020E0670178E0672E222E312C842C20FF0A
:102600008D80811004C05D80541409F437C09A0194
:102610002983622F641B691508F030C01B861A8657
:102620006A85691540F520383105F0F4AA84BB8429
:10263000AC0CBD1C70E4A716B104B0F4F50170E158
:10264000598061E0E1FD64E0E0FD660FE2FD629526
:10265000E87F7E9FD0011124A50DA451BD4F0C90A1
:10266000062A80FE06260C926A857B856F5F7F4F67
:102670007B876A87D5CF2F5F3F4FCACF91013595B2
:1026800027956A94C00ED11E6110B6CF7394EE8167
:10269000FF813196FF83EE83400F511FF6E07F12DA
:1026A000A1CF26E0929E800D911D1124AB81BC81AB
:1026B00050969C938E931F9756962C915697222353
:1026C00009F435CF4AEF40039001419F300D1124AA
:1026D00020583F4F281739070CF029CFCD01ED9135
:1026E000FC910190F081E02D6AE0099520CF0895DA
:1026F000089590E080E0089590910101FB012AE0A7
:10270000829FE00DF11D112440858781668170E074
:102710002091000130E0FB013796E217F307DCF06F
:10272000440F440F440F480F50E0990F990F990F31
:10273000892F90E0FA013796E817F90764F0295FCE
:102740003F4F261737073CF09C01295F3F4F81E040
:10275000241735070CF480E00895E82F842FDB015F
:102760009AE0499FA00DB11D112416964C91169721
:10277000E41758F150E0F0E0BA01695F7F4F6E173F
:102780007F071CF190918D01911102C08823F1F017
:1027900012968C911297E41BF50B90E6899FE00D41
:1027A000F11D11242C9188E0289F90011124E20F43
:1027B000F31F13964C9198E0499FA0011124E40F58
:1027C000F51FE95DFB4F8491089580E008958A36F6
:1027D000A0F4A82FA695A695A69598EFA99F800D81
:1027E0001124E82FF0E0EE5EFE4FB0E0A258BE4F9D
:1027F00090818C91982381E009F480E00895982FCE
:10280000969596959695E82F28EF929FE00D1124C6
:10281000E1508FE7E73068F4F0E0EF5EFB4E0C9498
:1028200099341814211423142514271429142B1453
:102830008FEBE92FF0E0E258FE4F908189238083EF
:1028400008958FEDF6CF8FEEF4CF87EFF2CF8BEFB9
:10285000F0CF8DEFEECF8EEFECCFBF92CF92DF9225
:10286000EF92FF920F931F93CF93DF93FB019AE0B8
:10287000899FE00DF11D11248085082E000C990B15
:10288000019753E0880F991F5A95E1F72781820F2E
:10289000911D7C019C01295F3F4F97FD790143E029
:1028A000F594E7944A95E1F737FF03C09C01225F56
:1028B0003F4F690193E0D594C7949A95E1F7C6819B
:1028C000D0E0FE01E553F14F049182E0800F10E06B
:1028D000823080F08FE0B82E802FBE9C800D1124B6
:1028E0000E94E713182F802FBC9C800D11240E949A
:1028F000E713180FCE52D14FFE01C49182E08C0F26
:10290000823080F00FE08C2F0E9D800D11240E94EC
:10291000E713D82F8C2F0C9D800D11240E94E713F4
:102920008D0F180F812FDF91CF911F910F91FF9085
:10293000EF90DF90CF90BF90089580917301833620
:1029400050F48F5F80937301E0917301F0E0ED53D9
:10295000FC4F8491089510927301F6CF1092D1022A
:10296000109293011092D30281E08093050110929E
:10297000BF011092BE0110928F011092900110922F
:10298000910110929201E5E9F1E0108211823296F4
:1029900081E0ED3BF807C9F71092BD011092D0021B
:1029A00008956F927F929F92AF92BF92CF92DF92E3
:1029B000EF92FF920F931F93CF93DF93FC018085DB
:1029C0009185C681D7815E01AA0CBB1CAA0CBB1CD9
:1029D0008C0133E0000F111F3A95E1F7019742E2B5
:1029E000489F9001499F300D11242C0F3D1F20540A
:1029F0003E4FB8016850710999249A947B0187E091
:102A0000E80EF11C4FEF5FEFD901A40FB51F8C91B9
:102A1000982F977F81F18B3071F19550923058F15A
:102A2000873349F1823439F18481D501A80FB11D72
:102A300087FDBA95CE01840F951F3C01660C771C6B
:102A4000660C771C630183E0C80ED11CCA16DB0636
:102A500094F01796A615B70574F08581D801A80FD4
:102A6000B11D87FDBA95CD01EA16FB0624F0079645
:102A700086179707E4F44F5F5F4F4330510521F607
:102A80002E5D3F4F685F7F4F9394B3E09B12B6CFAC
:102A900080E0DF91CF911F910F91FF90EF90DF9039
:102AA000CF90BF90AF909F907F906F90089581E0FE
:102AB000F0CFCF93DF932EE1829FC001112445E038
:102AC000681B790BDB01A80FB91F30E020E0EC0197
:102AD000C35DDC4FFE01E20FF31FE4911496EC930B
:102AE000149715962B5F3F4F2E31310599F74150C2
:102AF00001964111E7CFDF91CF910895E82F811121
:102B000017C010927201809172018E30E8F48F5FCD
:102B1000809372016730D8F4F0E0EE53FD4F6130DE
:102B200028F0E0917201F0E0E856FE4F849108959C
:102B30008A3648F3EA56FF0B86E1689FE00DF11DE7
:102B40001124E955FE4FF2CF10927201E3CFF0E06D
:102B5000E95AFD4F673051F380E008952F923F927C
:102B60004F925F926F927F928F929F92AF92BF929D
:102B7000CF92DF92EF92FF920F931F93CF93DF9349
:102B8000CDB7DEB76C970FB6F894DEBF0FBECDBFE2
:102B90008A871B012FEF3FEF38872F833BEF398761
:102BA0001E821D82F12CE12CAB01445B5F4F588BE0
:102BB0004F87615B7F4F7C876B87C1018F5A9F4F27
:102BC0009A8B898BD101A35BBF4FBC8BAB8BF1017F
:102BD000E25BFF4FFE8BED8B9101255B3F4F388F02
:102BE0002F8B1E2D1C8E1B8E4D815E814E5F5B4E8A
:102BF0005E874D8725E06F817885269FC001279FDE
:102C0000900D1124D101A80FB91FBA8FA98FBB8DC8
:102C1000B983EB8DFC8DE038F10509F4C5C1FA8567
:102C2000F111B2C18B2F83548E3108F010C11123E2
:102C300009F40DC1173009F40AC140E0863068F08C
:102C4000865041E0863048F0865042E0863028F0D9
:102C5000865044E0863008F443E050E0E98DFA8D78
:102C6000E40FF51F84818F3F09F4F1C02AEF24039C
:102C7000F001259FF00D11242B8D3C8D235431093B
:102C80002E0F3F1F853009F0D8C0D1018C91F9017A
:102C9000B6E08B9FE00DF11D1124E45DFE4F049121
:102CA000F901EA5DFE4FE4910E2BAF85B889BC9126
:102CB000BA831B1708F402C1CB2ED12CEFEFCE1A2A
:102CC000DE0ACE14DF040CF4F9C020E030E040E866
:102CD0005FE3D10192966D917D918D919C91959735
:102CE0000E943B324B015C010E942633EB8DFC8D30
:102CF000E61BF109FC83EB83F7FDE0C02B8D3C8DD7
:102D0000B901330F880B990B0E9457332B013C01FB
:102D1000AC019B01C501B4010E94073418160CF4E4
:102D2000CDC020E030E040E050E4C501B4010E9495
:102D30003C329B01AC01C301B2010E94073418165A
:102D40000CF4BCC0AF89B88DEC91E11182C0BA819E
:102D5000B11305C0EB81FC81EC5BFE4FE4910E2BBF
:102D600089818350843008F0F2C0AB89BC899C9182
:102D7000292F30E0A9014E5F5F4F4E155F050CF41F
:102D8000E6C0191708F4E3C0ED89FE89808181113E
:102D900097C0E416F50679F0C701821B930B880FE4
:102DA000991F880F991F2B8D3C8D820F931F8C5B71
:102DB0009E4FFC018491082B612F89810E947E1512
:102DC000082B112309F4C5C0A989BA898C918117F0
:102DD00008F4BFC089818757833008F0BAC0EB8DF3
:102DE000FC8DE852FF4FE4910E2BB985B23008F00C
:102DF000C9C089818557873008F0C4C02B8D3C8DB0
:102E000025573109153009F0A6C0EB85FC85808176
:102E10006AE00E947934F90147E0849FE00DF11DDA
:102E20001124EE5AFE4F8491802B0E946212AB8DCA
:102E3000BC8D1196BC8FAB8FEACEF90146E0849F22
:102E4000E00DF11D1124E85FFE4F04912ECF00E04C
:102E50002CCF20E030E040E85FE3F10162A573A5EC
:102E600084A595A50E943B320E942633862F869525
:102E700086958695F8EF8F9F600D11242A81211386
:102E80000AC0EB81FC81EC5BFE4FE49101C0EE0FC8
:102E90006A95EAF764CFEC14FD0481F4EB81FC81C0
:102EA000EC5BFE4FE491F0E088E090E0861B910936
:102EB00002C0F595E7958A95E2F751CFE0E04FCF54
:102EC00091130BC0EB8DFC8DEC5BFE4FE49101C0C8
:102ED000EE0F8A95EAF78E2F6ECF2F5F3F4FE216E7
:102EE000F30601F5EB8DFC8DEC5BFE4F4491282F32
:102EF00030E0EB8DFC8DE85BFE4FE49150E068E044
:102F000070E0621B730B02C0559547956A95E2F716
:102F1000F0E0DF0102C0AA0FBB1F8A95E2F7CD01E6
:102F2000842B49CFE416F50691F4EB8DFC8DE85B1C
:102F3000FE4FE491F0E028E030E0281B3109AF01BA
:102F400002C0559547952A95E2F7CA0134CF80E033
:102F500032CFE0E049CFAB85BC854C91842F6AE04D
:102F60000E947934582F66EF6503C0011124840F45
:102F7000911D47E0489FF001499FF00D1124E20F99
:102F8000F31F4FCF80E050CF7A85713041F4ED854B
:102F9000FE858B8D9C8DE80FF91F849146CF612FA4
:102FA0008B8D0E947E1541CFBFEFEB1AFB0AED819E
:102FB000FE81E058FF4FFE83ED83F985FF5FF987BF
:102FC0002F8138852F5F3F4F38872F8338E0E316F6
:102FD000F10409F006CE6C960FB6F894DEBF0FBE72
:102FE000CDBFDF91CF911F910F91FF90EF90DF90B8
:102FF000CF90BF90AF909F908F907F906F905F9099
:103000004F903F902F9008958F929F92AF92BF92D2
:10301000CF92DF92EF92FF920F931F93CF93DF93A4
:10302000882ED62F142F922E862F90E0A22EB12C10
:10303000A81AB90AE81AF90A4A9DC0014B9D900DD9
:103040001124E81AF90AC0E0D12CC12CCD1628F1C0
:10305000C91418F5C11708F1C017F8F4F601EE0D00
:10306000FF1D84910E9462128FEFC81AD80A80E86F
:10307000C816D10459F7CF5FEA0CFB1CC83021F702
:10308000DF91CF911F910F91FF90EF90DF90CF9044
:10309000BF90AF909F908F90089581E0881202C0FA
:1030A0008FEFE0CF80E0DECFE5E9F1E09081911194
:1030B00003C02181222339F0981303C09181961710
:1030C00021F03296F3CF8BE0089580E008950C94C0
:1030D0002532811109C070E090E080E00E943D122D
:1030E00088B18F7388B9089540E02FEF30E0F9017F
:1030F000E81BF109CF01461799F3479A469820E05B
:103100002817190634F4F5E0FA95F1F700002F5F5F
:10311000F7CF469A479820E02817190634F435E08F
:103120003A95F1F700002F5FF7CF4F5FE4CF6AE0E9
:1031300082ED0E94691862E080EF0E94691865E0E4
:1031400084EB0C946918CF93CFEF61E08C2F0E9431
:103150006918C150C230C9F7CF9108950E94AE14CA
:103160008091D5028F5F8093D5020E94A3180E94A0
:10317000A3180E94A3180C94A318CF93C1E061E098
:103180008C2F0E94691862E08C2F80950E9469182C
:10319000CF5FCF3FA1F76CE271E080E090E0CF918C
:1031A0000C943D12CF93DF93CDB7DEB7C355D10951
:1031B0000FB6F894DEBF0FBECDBFBE016F5F7F4F6D
:1031C00081E00E94AE150E945A1283FD04C00E9445
:1031D0005A1282FFF8CF80E162968FAF629781E04A
:1031E00061968FAF619783E063968FAF6397198283
:1031F000BE016F5F7F4F80E00E945915BE016F5F77
:103200007F4F82E00E94AE150CEA10E028E0E22E2B
:1032100021E0F22EF80131966491F8018491645610
:103220000E9469180E5F1F4FE016F10699F761962C
:103230008FAD6197BE016F5F7F4F81500E9459151E
:10324000198282E02F968FAF2F9784E060968FAF20
:10325000609780E090E0A0E0B1E48BA39CA3ADA3D5
:10326000BEA38FA398A7A9A7BAA780E090E0A0E08B
:10327000B2E48BA79CA7ADA7BEA78FA798ABA9ABBD
:10328000BAAB80E090E0A0E8BFE38BAB9CABADAB0A
:10329000BEAB8FAB98AFA9AFBAAF64968FAD649752
:1032A000813208F442C285E89BEEA1EDBEE38BAF0C
:1032B0009CAFADAFBEAF23968CAF9DAFAEAFBFAFEF
:1032C00023971A8264968FAD6497877009F05BC06C
:1032D0000E945A1284FF15C060962FAD60972F96FA
:1032E0008FAD2F97273008F025C2F8E08F9FC001DF
:1032F0001124820F911D8C9724F42F5F60962FAFBD
:1033000060970E945A1287FF15C060962FAD609794
:103310002F968FAD2F97222309F414C238E0839F94
:10332000C0011124820F911D059724F02150609651
:103330002FAF60978A81811126C00E945A1283FFA5
:103340000AC281E08A838A8181111DC02F966FADE8
:103350002F9748E0649FC001112460966FAD60977D
:10336000680F792F711D665F7F4F072E000C880B49
:10337000990B0E9457336BA77CA78DA79EA76FA7B9
:1033800078AB89AB9AAB64968FAD649762966FAD5C
:1033900062970E947934911148C124961FAE2497F8
:1033A00010E08BA09CA0ADA0BEA08FA298A6A9A65D
:1033B000BAA6CBA4DCA4EDA4FEA4CFA6D8AAE9AA01
:1033C000FAAA8BA99CA9ADA9BEA98FAB98AFA9AF4A
:1033D000BAAF4BAD5CAD6DAD7EAD23964CAF5DAF7E
:1033E0006EAF7FAF23972A81222309F4B3C0133035
:1033F00009F4D7C108F0B4C1113009F4CCC11230BE
:1034000009F4D4C12FA938AD49AD5AAD6FA178A543
:1034100089A59AA50E943C324B015C018FA298A617
:10342000A9A6BAA623962CAD3DAD4EAD5FAD2397B0
:10343000C701B6010E943C326B017C01CFA6D8AA1D
:10344000E9AAFAAA20E030E044ED52E4C501B40153
:103450000E94073418160CF479C020E030E04CE6E6
:1034600052E4C701B6010E94073418160CF46EC06E
:1034700020E030E040E850E4C701B6010E94A832E5
:1034800087FD64C020E030E040EC50E4C501B401A9
:103490000E94073418160CF4B7C120E030E040EA6F
:1034A00050E4C501B4010E94A83287FDADC12F963A
:1034B0002FAC2F97220C220C220C60966FAD6097D8
:1034C000260E312CB101032C000C880B990B0E94A5
:1034D00057332B013C01AC019B01C701B6010E948F
:1034E000A83287FD91C1B101605F7F4F072E000CAC
:1034F000880B990B0E9457339B01AC01C701B601A1
:103500000E94073418160CF47FC1A3019201C70171
:10351000B6010E943B3220E030E048E453E40E94D0
:103520000C3420E030E040E85DE30E940C3420E001
:1035300030E048EC52E40E943B320E941F33249654
:103540006FAF24976AE08CE30E9469181F5F173001
:1035500009F027CF24966FAD2497062E000C770B29
:10356000880B990B0E94573320E030E048EC52E47E
:103570000E94AD3223962CAD3DAD4EAD5FAD23978D
:103580000E943C326B017C0120E030E040E85FEBC0
:103590000E94A83287FD5AC220E030E040E85FE395
:1035A000C701B6010E94073418160CF456C28FA149
:1035B00098A5A9A5BAA58BA39CA3ADA3BEA36FA5EF
:1035C00078A989A99AA96BA77CA78DA79EA70FA9FF
:1035D00018AD29AD3AAD0BAB1CAB2DAB3EABCBAEB2
:1035E000DCAEEDAEFEAE20E030E040E85FE30E94EE
:1035F0003B326B017C010E942633862F869586958F
:10360000869538EF839F600D11242D966FAF2D970F
:1036100020E030E040E05EE3C701B6010E940C34D8
:103620000E9426332E966FAF2E9764968FAD6497C7
:103630008F7129F4BE016F5F7F4F0E94AE156496B3
:103640001FAD6497103309F02AC28981833010F4CA
:103650008F5F898320E030E0A9016BA17CA18DA15F
:103660009EA10E94A83287FDFFC19E012F5F3F4FA0
:1036700085E041E0F90190E054815F3F19F0553059
:1036800009F040E09F5F35969630B1F781502F5F8B
:103690003F4F8111EFCF41110BC01F5F64961FAFE9
:1036A00064978FE599E00197F1F700C000000ACE1A
:1036B00064E68CE30E94691864E680E50E9469185C
:1036C00064E684E60E94691864E688E70E94691847
:1036D00064E68CE80E94691862968FAD6297893023
:1036E00020F0825062968FAF6297BE016F5F7F4F6E
:1036F00082E00E94AE1560E971E080E090E00E94F7
:103700003D1261968FAD6197853010F08550FCCFEA
:10371000BE016F5F7F4F0E94591561968FAD619713
:103720008F5F61968FAF61978BCD87ED93EAA0EFA6
:10373000BEE3BDCD60961FAE60978F5F2F968FAFB3
:103740002F97DFCD97E060969FAF609781502F96BF
:103750008FAF2F97EFCD0E945A1282FDF2CDF3CD9D
:103760001530C9F158F1163009F04CCE20E030E0A8
:1037700040E85FE3C501B4010E943C326FA378A723
:1037800089A79AA780E090E0A0E8BFEB8FAB98AF45
:10379000A9AFBAAF19C0B0588FAB98AFA9AFBAAF45
:1037A00031CEB0588FAB98AFA9AFBAAF705823964F
:1037B0004CAF5DAF6EAF7FAF239724CE70584FAB49
:1037C00058AF69AF7AAFB05823968CAF9DAFAEAF0C
:1037D000BFAF239717CE20E030E040E85FE3C5019C
:1037E000B4010E943C326FA378A789A79AA780E012
:1037F00090E0A0E8BFEB8FAB98AFA9AFBAAF80E085
:1038000090E0A0E8BFE3E0CF20E030E044E852E4FD
:10381000C501B4010E94073487FD0BC020E030E0F1
:1038200040E952E4C501B4010E94A83200E087FDDE
:1038300054C020E030E040E952E4C501B4010E94E8
:10384000073487FD0BC020E030E04CE952E4C501AD
:10385000B4010E94A83201E087FD3FC020E030E0C3
:103860004CE952E4C501B4010E94073487FD0BC046
:1038700020E030E048EA52E4C501B4010E94A832D9
:1038800002E087FD2AC020E030E048EA52E4C501AA
:10389000B4010E94073487FD0BC020E030E044EB08
:1038A00052E4C501B4010E94A83203E087FD15C0AF
:1038B00020E030E044EB52E4C501B4010E9407343B
:1038C00087FD0AC020E030E040EC52E4C501B401BD
:1038D0000E94A83204E087FF0FEF0B8320E030E066
:1038E00040E051E4C701B6010E94073487FD0AC0D9
:1038F00020E030E040E851E4C701B6010E94A83260
:1039000087FD80C020E030E040E851E4C701B60107
:103910000E94073487FD0AC020E030E048EB51E404
:10392000C701B6010E94A83287FD6EC020E030E0DA
:1039300048EB51E4C701B6010E94073487FD0AC075
:1039400020E030E048EF51E4C701B6010E94A83200
:1039500087FD5CC020E030E048EF51E4C701B601CC
:103960000E94073487FD0AC020E030E040E252E4C4
:10397000C701B6010E94A83287FD4AC020E030E0AE
:1039800040E252E4C701B6010E94073487FD0AC035
:1039900020E030E040E452E4C701B6010E94A832C2
:1039A00087FD38C020E030E040E452E4C701B601B2
:1039B0000E94073487FD30C020E030E04CE552E43F
:1039C000C701B6010E94A83287FF26C085E08C831C
:1039D0000F3F09F4BFCD8F3F09F4BCCDE1E0F0E02B
:1039E000EC0FFD1F95E0989FE00DF11D1124E00FF5
:1039F000F11D8481853091F462E382ED0E946918A3
:103A00001982A4CD80E0E3CF81E0E1CF82E0DFCF77
:103A100083E0DDCF84E0DBCF8FEFD9CF8F3F09F498
:103A200099CD6AE086E90E9469188C81EB81A1E05A
:103A3000B0E0AC0FBD1FF5E0F89FA00DB11D112443
:103A4000EA0FFB2FF11D2FEF248380CDC12CD12C49
:103A500090E8E92E9FEBF92EAACDC12CD12C80E85D
:103A6000E82E8FE3F82EA3CD64E688EC0E94691857
:103A700064E686E90E94691864E684E60E94691893
:103A800064E682E30E94691863968FAD639788238A
:103A900009F493CB815063968FAF6397D1CB1034E9
:103AA00008F4FBCD81E064968FAF6497FACD1F9246
:103AB0000F920FB60F9211248F939F938091E10084
:103AC0009091E100937F9093E10083FF0FC01092EB
:103AD000E90091E09093EB001092EC0092E3909358
:103AE000ED001092EB0298E09093F00082FF22C06C
:103AF00093E09093E9009091F200992319F09AE3F2
:103B00009093E8009091DC02992341F09091DC02BF
:103B100091509093DC02911101C05D9A9091EA025C
:103B2000992341F09091EA0291509093EA02911109
:103B300001C0289A84FF18C08091E2008E7E8160C7
:103B40008093E2008091E1008F7E8093E10080917C
:103B5000DD028E7E80618093DD029F918F910F90B8
:103B60000FBE0F901F90189580FFF7CF8091E20055
:103B70008E7E80618093E2008091E1008E7E809352
:103B8000E1008091DD028E7E8160E5CF1F920F9271
:103B90000FB60F921124CF92DF92EF92FF920F9304
:103BA0001F932F933F934F935F936F937F938F93C5
:103BB0009F93AF93BF93EF93FF93CF93DF93CDB7D3
:103BC000DEB76C97DEBFCDBF1092E9008091E800B0
:103BD00083FF25C068E0CE0145960E94531182EF15
:103BE0008093E8008D8987FF39C09091E80090FFAD
:103BF000FCCF982F907609F034C19E894F89588D5B
:103C00002F89F88C911131C0803861F58091DB02E9
:103C10008093F1001092F1008EEF8093E8006C9693
:103C20000FB6F894DEBF0FBECDBFDF91CF91FF91ED
:103C3000EF91BF91AF919F918F917F916F915F9124
:103C40004F913F912F911F910F91FF90EF90DF9037
:103C5000CF900F900FBE0F901F9018959EEF9093EE
:103C6000E800C7CF1092F100D5CF913059F48111FF
:103C7000D3CF4130510581F68091DB028D7F809357
:103C8000DB02CACF933049F48111C6CF41305105D0
:103C900019F68091DB028260F2CF953041F4809179
:103CA000E80080FFFCCF20682093E300B5CF96307A
:103CB00009F0A9C00B8D1C8D22E01092E900109232
:103CC000D9021092D802F2122EC01092D70210928E
:103CD000D6020E9422111F8299E09983FA8291E014
:103CE0009E8390EA98879AEF99872091D802309125
:103CF000D902275F3F4F3C832B838D831092E900CD
:103D00001092D9021092D8021093D7020093D602D3
:103D100049E050E0BE016F5F7F4F80E00E94FC10E1
:103D20000E94221179CF1093D7020093D6020E94ED
:103D30003910DC0112960D911C910115110509F441
:103D400051C1D801ED91FC910480F581E02DBE01B7
:103D50006B5E7F4FC8010995009709F03EC1F801DD
:103D600000851185EACFF3E0FF120EC08F8988230A
:103D700009F440C0823061F440E867E086E69FE1E4
:103D80000E944220811148CF81E28093EB0047CF0F
:103D9000813029F440E86BE08AE59FE1F1CF833080
:103DA00099F70E943910DC011296ED90FC908E017B
:103DB0000F5F1F4F6801E114F10479F0D701ED9115
:103DC000FC910680F781E02DB801C7010995080F25
:103DD000111DF701E084F184EECFD8011C92F601A9
:103DE00001900020E9F73197BF016C197D0940E08F
:103DF000C601C6CF64E47FE1FB01449150E080E856
:103E00000E94FC1009CF973009F4BECF983021F4FE
:103E100081E08093F10000CF993009F0FDCE8370EE
:103E200009F0B2CFEFE3F1E081E031E096E32191D8
:103E3000222371F08093E9003093EB00DF011197AA
:103E40002C912093EC009093ED008F5F873079F7F1
:103E50008EE78093EA001092EA008F898093EB024C
:103E6000DBCE8B8D9C8D1092E9001092D9021092BE
:103E7000D8029093D7028093D602898D811192C087
:103E80008E899D89913A49F4813209F07DCF47E0CE
:103E900050E06AE071E080E0B3CF913209F074CF76
:103EA000833269F48F89988DB0E0A0E08093060199
:103EB00090930701A0930801B0930901ADCE803221
:103EC00069F48091E80082FFFCCF67E08AE091E02E
:103ED0000E9453118BEF8093E8009ECE823209F04E
:103EE0009BCE8F8980931101EEEFFFE7859194912E
:103EF0008B3F9C4D51F1E0E0F8E080910A019091F8
:103F00000B01A0910C01B0910D01803B9440A105E3
:103F1000B105F1F48091110180FD1AC0EE3F8AE0F5
:103F2000F80789F587E797E79183808380916000A0
:103F30008093DA0288E19BE00FB6F894A89580930D
:103F400060000FBE9093600067CEEEEFFAE0D5CF31
:103F5000808191818737974709F05ECEA89580913F
:103F600060008861809360008091DA028093600035
:103F7000EE3F2AE0F20789F08091FE0A9091FF0A55
:103F80009183808349CE808191818737980751F250
:103F90009093FF0A8093FE0AC5CF1092FF0A1092F9
:103FA000FE0A3ACE0E943910DC0112960D911C9146
:103FB0000115110509F4E8CED801ED91FC910190AD
:103FC000F081E02DBE016B5E7F4FC8010995811124
:103FD00023CEF80100851185EBCF181619060CF4D5
:103FE0001BCED2CEF1E0FF12BECE68E47FE104CF5B
:103FF0000F920FB68F939F93EF93FF93809175016C
:104000008D5F8D3708F08D5780937501E6E7F1E0FD
:1040100080818E4F808391819F4F918382818F4FCA
:10402000828383818F4F8383EAE7F1E080818F5F12
:10403000808381818F4F818382818F4F82838381AF
:104040008F4F83838FB18F6066991C9B88278F3633
:1040500081F480917401981B963068F0E0E0F8E0FC
:1040600087E78083818388E180936000F09360001C
:10407000FFCF90937401FF91EF919F918F910FBEAD
:104080000F901895EF92FF920F931F93CF93DF93AA
:10409000F82E192FE62E042F81E0860F880F0E943C
:1040A000CE1083E00E94CE10CF2DD12FEC0EFD2E2E
:1040B000F11CCE15DF05B9F007FF13C0FE01849196
:1040C0000E94CE10182F80E00E94CE1081232196EE
:1040D0008111EFCFDF91CF911F910F91FF90EF9062
:1040E00008958881EDCF81E0F5CF0F931F93CF9393
:1040F000DF938C0181E090E00E94671880FF32C05E
:104100008AE090E00E9467189FEF980F9E3F50F55D
:1041100022E330E0D80150963C932E931F9728E37A
:1041200030E052963C932E935197CBE0D0E0D801EB
:10413000ED91FC910190F081E02D682FC801099567
:10414000CE010E9467182196C131D10581F780E028
:104150000E94E20F88EE93E0DF91CF911F910F91C3
:104160000C948E11DF91CF911F910F9108950497B8
:104170000C947520ECEEF6E01382128288EE93E048
:10418000A0E0B0E084839583A683B78389E491E0BF
:10419000918380838FEF9FEF95878487ECE3F7E02F
:1041A000138212821186128680E18387108617821D
:1041B00015868BE591E09183808389E691E0958374
:1041C0008483108A1786128A118A81E0838B148A6D
:1041D000858B168A0895CDB7DEB7EB97DEBFCDBFCE
:1041E000789483E084BD83E085BD81E080936E0098
:1041F000E1E8F0E083E08083E0E881E08083E1E9CA
:1042000083E08083E0E981E08083E1EC87E08083E4
:10421000E3EC81E08083E0EC82E08083E2EC81E00B
:104220008083EAE787E08083806880831092EB02D6
:104230001092DB021092DD028091D70081608093A2
:10424000D70080EA8093D80089B5806189BD89B59F
:10425000826089BD09B400FEFDCF81E090E00E943C
:104260008E118091D8008F7C80618093D8008091DE
:10427000E000807F8093E0008091E1008E7E80935B
:10428000E1008DE08093E200559A209A81EC8093C2
:104290007C0081E785B987E684B985E38BB98FE334
:1042A0008AB9769A6E9880EF81BB10BA80E58CBD92
:1042B00011E01DBD85E00E945712599A85E00E94C9
:1042C00057125C98E7E9FAE085910E946212E13AA0
:1042D000D9F75C9A81E8809364001093650081E0CF
:1042E0000E94E20F0E945A1287FF12C05C9885EA72
:1042F0000E9462125C9A2E9858982D9880916400C2
:1043000080628093640081E083BF889513BEFCCFF8
:104310000E945A1282FF45C02D980E945A1284783A
:104320008438D9F40E94551288EC0E94571258988C
:1043300082E090E00E9425328F3F29F06FEF82E00B
:1043400090E00E942D3284EF91E00E948E11589AE5
:104350000E945A1284788438D9F30E945A128471C8
:104360008431D9F40E94551288EC0E9457122E987D
:1043700082E090E00E942532882329F060E082E00C
:1043800090E00E942D3284EF91E00E948E112E9ACF
:104390000E945A1284718431D9F388EC0E9457121A
:1043A000B7CF0E94551282E090E00E9467188823E0
:1043B00009F439C13E9A579A81E090E00E9467184B
:1043C000082F0470D02E81FF0CC001112E9801EF30
:1043D0001FEF0E945A1286FF29C12E9A589A0E94F6
:1043E000551282E30E9457120E945A128111F9CF8E
:1043F00010E00E945A1286FF0CC00E945A1286FDDD
:10440000FCCF133009F482C11F5F67E38CE30E9485
:1044100069180E945A1285FF0CC00E945A1285FD2D
:10442000FCCF67E382E0112309F476C10E9469188A
:104430001150123009F48BC1133009F46FC11130DF
:1044400009F479C172E0E72E7CE1F72E07E020E85D
:1044500041E060E080E00E94041810E00E945A12DF
:1044600083FD04C00E945A1282FFC3CF0E945A12D9
:1044700083FDFCCF0E945A1282FDF8CF02E0FF2498
:10448000F3946AE0802F0E94691864E18F2D801BED
:104490000E9469180F5F0E33A1F7123009F437C676
:1044A000133009F436C6113009F0A2CF8E010F5F28
:1044B0001F4F380182E3D8011D928A95E9F783E006
:1044C0008093D2028FEF8093D50210928D011092CB
:1044D0008E011C861E8A18A21AA610E000E0F12C9C
:1044E000E12CF801EE5FF74E6F01F601EE0DFF1DB6
:1044F00084910E946212FFEFEF1AFF0A20E8E21691
:10450000F10499F700581F4F011534E0130739F7EC
:104510000E945A1283FD04C00E945A1282FFDDCF0E
:104520000E945A1283FDFCCF0E945A1282FDF8CFDE
:1045300081E080938D018091D50282300CF00CC116
:1045400087FD0DC015E064E680E50E9469186CE205
:1045500071E080E090E00E943D121150A1F780913F
:10456000D5028F5F8093D5021C861E8A18A21AA6D8
:104570008091D5024EE0849FC0011124AEE7B1E0E6
:1045800030E020E08F55954FFC01E20FF31FE491DE
:10459000ED932F5F3F4F2E303105B1F78E01075D50
:1045A0001F4F1CAB0BAB86EF809300018093010182
:1045B00010920201109203011B8289E08F8327E091
:1045C0002987188692E09E839D831C821A8281E04F
:1045D0008D8738E3398B8B8B1A8A8F8B38E73B8F2B
:1045E0009D8F1C8E89A397E79DA32FA31EA28BA747
:1045F00088E18FA785E089AB18AA83010E5C1F4F65
:104600001BAF0AAF80918D01882309F40DC10E9470
:104610005A1285FFB4C01E820E945A1284FFBCC089
:1046200081E08D83BEC03E985798C6CEDD2029F02C
:104630000430110511F42E9A589881E00E94E20F7F
:10464000202F2770C22E9801E3E035952795EA9533
:10465000E1F7C9019695982F8827979587958451FA
:104660009D4F70E060E02E3F4FEF340759F1DC01C1
:10467000AC56BF4F7C0150E040E0FB01E951F64FE2
:104680005F01F501E40FF51FE491F0E03F010C2C10
:1046900002C0660C771C0A94E2F72F3F320721F024
:1046A000F70194889628948ACC2019F0EC91E72998
:1046B000EC934F5F5F4F1196FFEFEF1AFF0A4835FB
:1046C0005105F9F62F5F3F4F80589F4F685A7F4F33
:1046D000603B710541F680E00E94E20F8FE00E948E
:1046E00057120F5F1F4F0931110509F072CEDD20FF
:1046F00011F0589A2D9880E991E00E948E110E9445
:1047000055128CE397E00E9475206BCE67E38CE333
:104710000E94691810E07DCE0E94691842E0E42EE4
:1047200043E1F42E08E020E644E060E281E00E94EC
:10473000041813E093CE62E0E62E68E1F62E08E05E
:1047400020E840E060E080E00E94041887CE52E05C
:10475000E52E54E1F52EF3CF15E064E680E50E94E6
:1047600069186CE271E080E090E00E943D12115007
:10477000A1F781E080938E011092D502F5CE0E94C0
:104780005A1286FF03C081E08E8346CF8F818770E7
:1047900009F042CF82E0F8CF0E945A1287FF3BC057
:1047A0001D820E945A1283FF3BC080910201811139
:1047B0003BC08F8190E0039633E0959587953A95BD
:1047C000E1F7880F880F880F80930001898518E032
:1047D0008102C00111242885280F392F311DC901FC
:1047E000039697FD079623E0959587952A95E1F71F
:1047F0008093010185E0809302011DE962E0812F31
:104800000E94691861E087E1810F0E9469181F5FAB
:104810001130A1F709C088858111C3CF82E001CF93
:104820000E945A1282FDC1CF80918C01883108F01C
:10483000FAC08F5F80938C0180918D018823B1F144
:104840002F8130E0B9016A5F7F4F898548E084029B
:10485000C00111244885480F592F511DDA011696C1
:10486000F30110E083858130C9F0808990E06817FA
:104870007907A4F006968217930784F0828908E0EE
:104880008002C00111240189800F911DA817B9076A
:104890002CF00696841795070CF011E03A968BA938
:1048A0009CA9E817F907F1F611119BC28301B12CFD
:1048B000E6E0AE2E88248394F3E05F2EA9E04A2E32
:1048C000B2E09B2E87E0382EBB2021F080918E0134
:1048D000813021F080918C0180FD65C1D801169650
:1048E000CC9016971896EC9018971796DC9017971F
:1048F00015968C911597813009F098C0E1E0EC0D88
:104900001696EC932E2D30E82303C00111244E2F70
:1049100050E04A5F5F4FFC01E40FF51FE553F54F90
:104920002491FC01E40FF51FE55BF44F84914D2DBC
:1049300050E0EFE7F0E00D2C01C0EE0F0A94EAF72B
:104940002E23FF24F394211111C028E030E0241B12
:10495000350BEFE7F0E002C0F595E7952A95E2F711
:10496000E823FF24F394E11101C0F12CB3018B2D56
:104970000E942D14F80E80E0BB2021F0B3018B2D96
:104980000E947C13F80E59F0BB2009F460C00E940D
:104990009D14D80115968C93D8011696CC92F801E7
:1049A0008481813009F05BC09781973008F052C054
:1049B0009F5F9783D80117969C91292F30E0933001
:1049C00008F0C6C0AFE701C0AA0F9A95EAF780E0E9
:1049D000F801208590E0820F911D27FD9A9596950C
:1049E000982F882797958795668130E020E070E0C2
:1049F000AC01460F571F6553754F680F791FCA01E9
:104A0000820F931FE0E08115944020F4FB01E20F38
:104A1000F31FE491EA2309F051C02F5F3F4F273085
:104A2000310569F793C010928C0106CF81110CC03B
:104A3000EFEFEC0D1696EC932E2D30E82303C0011A
:104A400011244E2F50E067CF80E020E070CFF801B6
:104A50009582A2CF908517829F5F9087ABCF8111FF
:104A600075C08781882309F466C081508783D80187
:104A700017968C91AFE701C0AA0F8A95EAF7F80163
:104A8000608520E86203B0011124868130E020E0D7
:104A900090E0AB01480F591F8553954F860F971F24
:104AA000BA01620F731FE0E06115744020F4FC014D
:104AB000E20FF31FE491EA2309F442C0FF24F394C8
:104AC000B3018B2D0E942D14F80E80E0BB2021F045
:104AD000B3018B2D0E947C13F80E71F0BB2009F4FA
:104AE00043C00E949D14D80114968C93D801189647
:104AF000EC9218971796DC9280918C01B1103FC010
:104B000080FF02C00C941F32F8012481213079F516
:104B10001382F8019581913071F5438289813A853C
:104B2000311156C18230F0F5223011F49230D1F1BA
:104B30008F5F898338C0808537828150808797CF87
:104B40002F5F3F4F2730310509F0AACFF12CB8CFA6
:104B5000E8E0F0E0E21BF30BAFE7B0E002C0B59590
:104B6000A795EA95E2F734CFF8019482BFCF2111DF
:104B7000D0CFA382CECF9111D1CF5382CFCF882374
:104B800011F08C3011F4F80113826A2D0E947934EF
:104B9000911109C0D8018C91823008F01FC18F5F3C
:104BA0008C9301C08A86B394065F1F4FF5E0BF1255
:104BB0008BCE80918C01982F977F11F0803161F41A
:104BC00090910201923044F02091030122300CF0C8
:104BD00024C12F5F20930301837009F0C9C0809125
:104BE0000201813009F0C4C04090030101E00415C6
:104BF0000CF422C14012B8C000910101902E990C12
:104C0000990C990C4AEF490DA090000121E02A0D62
:104C100030E050E0D90116967A0115E1E10EF11C61
:104C2000F30188248394668170E0CB010796821794
:104C30009307DCF08085982F990F990F990F878142
:104C4000890F90E06C0117E0C10ED11CC416D50687
:104C500064F0A617B7074CF0E816F90634F0108692
:104C600017828181813009F081823A968AAD9BADAD
:104C70008E179F07C1F6D3014AEF4A0D50E0939477
:104C8000292D30E04A0195E1890E911C690116E059
:104C9000C10ED11C5524539416966C91169770E052
:104CA000CB0107968417950734F118968C911897C5
:104CB000880F880F880F17969C911797890F90E09F
:104CC0007C0117E0E10EF11CE216F306A4F0861653
:104CD00097068CF0C816D90674F018961C9218978F
:104CE00017961C92179711968C911197813019F095
:104CF00011965C9211971A96EA17FB0769F68A2DAE
:104D0000AA0C990B7C0128E0E21AF108F7FE04C016
:104D10007C0131E0E31AF10863E0F594E7946A95C9
:104D2000E1F7AE2CCC24CA94C00E8FE0C89ED02CE4
:104D30001124CC2029F081EF8D0D8E0D0E94FF13E0
:104D4000DE0C8D2D0E94FF1346E0C41639F08E2D27
:104D50005FE0059F800D11240E94FF13A11063C026
:104D600081E08D0D0E94FF1311E0140D10930301DB
:104D700080918C0180FD94C1312C1EAA1DAA01EFE7
:104D80000FAB10E000E0F12CE12C2DA93EA92E5F25
:104D9000374E39AF28AF202E4E2C80918D0130E850
:104DA000E316F10409F44FC1882309F410C18FEF11
:104DB0008E0D873050F48091D202813009F456C0B4
:104DC00008F451C0823009F454C0DD24DA9457C08D
:104DD000882311F08150ADCE1A86E5CEF8011082FD
:104DE000E2CE0E94BD188091D202882321F081502A
:104DF0008093D202D8CB68EC70E080E090E00E9413
:104E00003D1215E064E684E60E94691864E681E0DC
:104E10000E9469181150B1F752CB109203019150C2
:104E200090930201D9CE8FEF8D0D0E94FF138EE07B
:104E3000A81609F499CF94CF86EF80930001809350
:104E4000010110920201109203011DE201E061E0F4
:104E5000802F811B0E94691862E0812F0E946918CF
:104E60001150A9F785CF063009F4B7C0053009F411
:104E7000B4C081E0043009F480E0D82ED194E8ADCC
:104E8000F9ADEE0DFF1DC4904301A12C512CD401AE
:104E900018968C911897082E000C990B0817190773
:104EA00009F09DC011968C91813061F0452DB301C0
:104EB000842D0E94AD13F401278101C0880F2A952B
:104EC000EAF7A82A53945AE0850E911C85E05812FF
:104ED000DECFCA28922C222051F0F701E553F14F82
:104EE00084918E3F09F49DC08F3F09F09BC080E004
:104EF000C82A20910001022E000C330BE216F306A3
:104F00000CF49DC0C90107968E159F050CF497C03F
:104F100080910101082E000C990B0817190709F060
:104F20008EC0E0910301A8E0EA02F0011124C7015C
:104F3000821B930BE80FF91FE55BF04FE4918C2D7A
:104F40008E2B90910201913009F07BC0B7E0B4152F
:104F500008F077C02220B9F1A90148505109E416A0
:104F6000F5060CF46EC0215F3F4F2E153F050CF483
:104F700068C020910101022E000C330BB901615071
:104F80007109061717070CF45CC02F5F3F4F2017FD
:104F900031070CF456C09801261B370B98E4929FFA
:104FA000F001939FF00D11249701241B350BE20FA4
:104FB000F31F90910301A8E19A02E00DF11D112465
:104FC000ED59F04F949089298D210E946212B1E031
:104FD0003B26EFEFEE1AFE0ADFCED12C50CF019622
:104FE0000817190709F06ECF17968C911797882329
:104FF00009F468CF11968C91813009F463CF452D67
:10500000B301842D0E94AD1390E0F401278148E0A4
:1050100050E0421B510902C0959587954A95E2F7E9
:1050200050CF81E09FA9890F0E94E713882309F4DC
:105030005FCF8AEA332009F45BCF85E559CFE0E002
:105040007ECF912CC0CF0F5F1F4FFFA9F15FFFAB49
:105050002DA93EA920583F4F3EAB2DAB083011057E
:1050600009F091CE8130E1F482E080938D010BE371
:1050700010E1F80184918111865FF8013196649105
:1050800064510E9469180E5F1F4F25E630E120171A
:10509000310779F764EF71E080E090E00E943D1203
:1050A0008A818130E9F48091D202882329F00E941C
:1050B000BD188091D2029BCE0E94BD1868EC70E0B2
:1050C00080E090E00E943D1264E684E60E94691848
:1050D00064E681E00E946918BA94B110F5CFEFC977
:1050E00080918C018C3061F48C85882349F08E8905
:1050F000882331F088A1882319F08AA581111BCA61
:105100006BE070E080E090E00E943D127BCA0E945C
:10511000D2180E9497180E94A3180E94A3180E94F8
:1051200097180E94A3180E94A31868EC70E080E012
:1051300090E00E943D120E94AE141092D50287E0CA
:105140008093D20252E0E52E53E1F52E08E020E6EE
:1051500044E060E281E00E94041860E971E080E0D0
:1051600090E00E943D120E945A1283FD04C00E94EA
:105170005A1282FFF8CF0E9497180E94AE148091B5
:10518000D5028A3034F660E971E080E090E00E9458
:105190003D1219821A821B821C821D821E828BE0A4
:1051A00090E098878F8383E090E09A87898700E07A
:1051B00014E080E00E94621201501109D1F70E94B0
:1051C0005A1286FF23C08091D402837049F48091E3
:1051D000D3028F5F8093D302833010F01092D302FA
:1051E000109205011D8181E0810F8D83CE01019612
:1051F0000E94D114813009F41D838F8198852D81FF
:10520000243024F01D82019698878F830E945A12C1
:1052100085FF25C08091D402837049F48091D30228
:105220008F5F8093D302833010F01092D30281E01D
:10523000809305011D818FEF810F8D83CE01019633
:105240000E94D114813009F41D838F8198852D81AE
:1052500027FF05C023E02D83019798878F832F8137
:1052600038852A303105D4F48091D1029091930190
:1052700018162CF494301CF49F5F90939301909136
:10528000930194305CF018164CF410929301815005
:105290008093D1022F5F3F4F38872F838F8198856E
:1052A0008331910594F02091930121502093930133
:1052B00027FF0BC023E0209393012091D1022F5FA1
:1052C0002093D102019798878F8369847A8437E08D
:1052D0006316710454F00E94A3188091D202815089
:1052E0008093D202811149CF14CF2090D502309003
:1052F000D10222EEA22E21E0B22E36E2832E32E03F
:10530000932E4AE6442E42E0542E10E000E0422D57
:10531000022C000C550B5EAB4DABC32C032C000CC8
:10532000DD0859E0521508F4F4CEEDA9FEA9E556C2
:10533000F64D0C949934A529642B702B7C2B882B6B
:10534000942BA02BAC2BB82BC42BF601E00FF11F34
:10535000F7FD3396F595E795F595E795E351FD4E05
:10536000E491E093D002C601800F911F64E070E0E9
:105370000E9485347C019091D00284E0989FF001D6
:105380001124EE0EFF1EF701E95FFD4EE491EB30B4
:1053900009F006C261E0832D0E945418D5018C9358
:1053A000F701ED52FE4EE491EB3009F0FCC162E0F2
:1053B000832D0E945418F50182A3F701E156FE4E99
:1053C000E491EB3009F0F3C163E0832D0E9454189F
:1053D000F4018083F701E559FE4EE491EB3009F0CA
:1053E000E9C164E0832D0E945418F40182A3F701FF
:1053F000E95CFE4EE491EB3009F0E0C165E0832DFD
:105400000E945418F2018083F701ED5FFE4EE49193
:10541000EB3009F0D6C166E0832D0E945418F201EA
:1054200082A3F701E153FF4EE491950124533F4FCE
:105430007901EB3009F0C9C167E0832D0E9454184F
:10544000D7018C930F5F1F4F3394BFEFAB1ABB0A8A
:10545000EFEF8E1A9E0AFFEF4F1A5F0A0132110515
:1054600009F05FCF1091BF010E81111116C082E0CB
:10547000800F8E8388302CF01E82C30101969A879C
:105480008987CE0101960E94D114181634F4862D16
:10549000660C990B9A8789870E830E945A1283FFA4
:1054A00097C10E81112309F498C10E945A1283FDFD
:1054B00005C00E945A1282FF1092BE018091BF0166
:1054C00009851A859E8118167CF5282F220F921BBC
:1054D0009E8397FF29C097E09E8398012150310950
:1054E0003A87298781508093BF011216130654F41E
:1054F0008091BE01813031F0CE0101960E94D1141D
:1055000018165CF41092BF0181E08093BE011E82E8
:10551000002E000C110B1A8709878091BF018111A1
:1055200003C081E08093BE017E80E984FA840F810C
:10553000188582E28E9DF0018F9DF00D1124E054BC
:10554000FE4FE00FF11F808198012F5F3F4F6901EF
:10555000A8014E5F5F4F5A017110BDC18B3091F4AD
:105560008091BD01E82FF0E0EE0FFF1FEB56FE4FDC
:10557000E1829091D102900F90838F5F8093BD0163
:105580000E94971882E28E9DF0018F9DF00D1124EC
:10559000E054FE4FEC0DFD1D80818B3099F490910D
:1055A000BD01E92FF0E0EE0FFF1FEB56FE4FE18249
:1055B0008091D102800F8F5F80839F5F9093BD01A8
:1055C0000E94971882E28E9DF0018F9DF00D1124AC
:1055D000E054FE4FEA0DFB1D80818B3099F49091D1
:1055E000BD01E92FF0E0EE0FFF1FEB56FE4FE18209
:1055F0008091D102800F8E5F80839F5F9093BD0169
:105600000E94971822E22E9DC0012F9D900D11241B
:1056100080549E4FFC01E00FF11F2081283061F083
:10562000FC01EC0DFD1D2081283031F08A0D9B1D01
:10563000DC018C918830A1F480919401811110C01B
:105640008091D20281508093D202882309F461CDE7
:1056500082E08093BF018EE1809394010E94A318A1
:1056600022E22E9DC0012F9D900D112480549E4F4B
:10567000FC01E00FF11F30813D3091F0FC01EC0D99
:10568000FD1D20812D3061F0A80EB91EF50180812D
:105690008D50823028F03E3019F02E3009F0ADC028
:1056A000E091D5020E2E000CFF0BEB53FF4EE49160
:1056B0008091BD01E813A1C08091BF0118160CF0C4
:1056C0009CC00E94AE185BCDF601E00FF11FF7FD04
:1056D0003396F595E795F595E795E852FD4E40CE62
:1056E000F601E00FF11FF7FD3396F595E795F59577
:1056F000E795EC53FD4E34CEF601E00FF11FF7FDB8
:105700003396F595E795F595E795EB54FD4E28CE44
:10571000F601E00FF11FF7FD3396F595E795F59546
:10572000E795E856FD4E1CCEF601E00FF11FF7FDA0
:105730003396F595E795F595E795EA57FD4E10CE2A
:10574000F601E00FF11FF7FD3396F595E795F59516
:10575000E795EA58FD4E04CEF601E00FF11FF7FD84
:105760003396F595E795F595E795ED59FD4EF8CD0E
:10577000F601E00FF11FF7FD3396F595E795F595E6
:10578000E795EE5AFD4EECCDF601E00FF11FF7FD67
:105790003396F595E795F595E795E55CFD4EE0CDFB
:1057A000D501EC93FDCDD5019296EC9306CED401B4
:1057B000EC9310CED4019296EC9319CED201EC93D7
:1057C00023CED2019296EC932CCED901EC933ACE13
:1057D0000E945A1282FD65CE68CE8091BE01811171
:1057E00064CECE0101960E94D11481115ECE0111CA
:1057F0005CCE83E08093BF0158CE22E22E9DC00193
:105800002F9D900D112480549E4FFC01E00FF11F3D
:1058100029812083C80ED91E8A81D6018C9390904D
:10582000D4022091040190FC0CC080919401882343
:1058300041F091E0211190E0909304018150809318
:105840009401809104017110A5C1813009F09FC1BC
:1058500085E0898386E08A83812C1DEBA12E10E1EF
:10586000B12E0EEBC02E00E1D02E8FEBE82E80E1A2
:10587000F82E00EC10E18091D20290E09C012150C2
:105880003109821613060CF095C1E1ECF0E1849128
:105890000E946212E2ECF0E184910E946212E3EC59
:1058A000F0E184910E946212E4ECF0E184910E94A4
:1058B0006212F50184910E946212F60184910E94A5
:1058C0006212F70184910E946212F80184910E9491
:1058D00062128394D0CF8B3091F48091BD01E82F78
:1058E000F0E0EE0FFF1FEB56FE4FE1829091D102E8
:1058F000900F90838F5F8093BD010E94971882E282
:105900008E9DF0018F9DF00D1124E054FE4FEC0DA3
:10591000FD1D80818B3099F49091BD01E92FF0E05D
:10592000EE0FFF1FEB56FE4FE1828091D102800FF8
:105930008F5F80839F5F9093BD010E94971882E2E2
:105940008E9DF0018F9DF00D1124E054FE4FEA0D65
:10595000FB1D80818B3099F49091BD01E92FF0E01F
:10596000EE0FFF1FEB56FE4FE1828091D102800FB8
:105970008E5F80839F5F9093BD010E9497184701BF
:10598000BFEF8B1A9B0A82E2889DF001899DF00D82
:105990001124E054FE4FE00FF11F80818B30A1F401
:1059A0008091BD01E82FF0E0EE0FFF1FEB56FE4F98
:1059B00091E09E0D91839091D102900F90838F5F23
:1059C0008093BD010E94971882E2889DF001899D15
:1059D000F00D1124E054FE4FEC0DFD1D80818B3045
:1059E000A9F49091BD01E92FF0E0EE0FFF1FEB56F7
:1059F000FE4F81E08E0D81838091D102800F8F5FF9
:105A000080839F5F9093BD010E94971882E2889DDA
:105A1000F001899DF00D1124E054FE4FEA0DFB1DAD
:105A200080818B30A9F49091BD01E92FF0E0EE0F59
:105A3000FF1FEB56FE4F81E08E0D81838091D102D6
:105A4000800F8E5F80839F5F9093BD010E949718A7
:105A500022E22E9DC0012F9D900D112480549E4F57
:105A6000FC01E00FF11F2081283061F0FC01EC0DFA
:105A7000FD1D2081283031F08A0D9B1DFC018081A5
:105A80008830A1F480919401811110C08091D202DC
:105A900081508093D202882309F43BCB82E080932B
:105AA000BF018EE1809394010E94A31892E29E9D13
:105AB000F0019F9DF00D1124E054FE4FDF01A00F77
:105AC000B11F3C913D3081F1DF01AC0DBD1D2C912A
:105AD0002D3051F1EA0DFB1D50815D3029F1989D6B
