:020000040000FA
:100000000C9498130C94C0130C94C0130C94C0134C
:100010000C94C0130C94C0130C94C0130C94C01314
:100020000C94C0130C94C0130C946B200C94DA2025
:100030000C94C0130C94C0130C94C0130C94C013F4
:100040000C94C0130C94C0130C94C0130C94C013E4
:100050000C94C0130C94C0130C94C0130C940C2378
:100060000C94C0130C94C0130C94C0130C94C013C4
:100070000C94C0130C94C0130C94C0130C94C013B4
:100080000C94C0130C94C0130C94C0130C94C013A4
:100090000C94C0130C94C0130C94C0130C94C01394
:1000A0000C94C0130C94C0130C94C013FFFFFDFFFD
:1000B000FFFFFFFFFFFFFFFFFFFFFFFFFFFFFFFF50
:1000C000FDFFFFFFFFFFFFFFFFFFFFFFFF3F5F1F82
:1000D000CF2FC7BFE77FEFFFBFFFFFFFFFFFFFFF90
:1000E000FFFFFFFFFFFFFFFFFBFFFFFFFFFFFFFF24
:1000F000FFFFFFFFFFFFFFF7FFFFFFFFFFFFFFFF18
:10010000FFFFFFFFFFFFFF7FFFFFFFFFFFFFFFFF7F
:10011000FFFFFFFFFF7FFFFFFFFFFFFFFFFFFFFF6F
:10012000FFFFFFFFFFFFF7FFFFFFFFFFFFFFFFFFE7
:10013000FFFFFFFFFFFFFFFFFFFFFEFFFFFFFFFFD0
:10014000FFFFFFFFFFFDFFFFFFFFFFFFC014E9F60A
:10015000BDEFFDFFFDFFBFFFD77FDFBFF6FFFFFF56
:10016000FFFFFFFFFFFFFFFFFFFFFFFFFF7FFFFF1F
:10017000FFFFFFFFFFFFFFFFFFFFFFFFFFFFFFFF8F
:10018000FFFFFFFFFFFFFFFFFFFFFFFFFFFFFFFF7F
:10019000BFFFFFFFFFFFFFFFFFFFFFFFFFDFFFFFCF
:1001A000FFFFFFFFFFFFBFFFFFFFFFFFFFFFFFFF9F
:1001B000FFFFFFFFFFFFFFFFEFFFFFFFFFFFFFFF5F
:1001C000FFFFFFFFFFFFFFFFFFFFFFFFFFFFFEFF40
:1001D000FDF7FFF7FFF7FFFDFFFFFDFFFFFFFFFF4D
:1001E000FFFFFFFFFFFFFFFFFFFFFFFFFFFFFFFF1F
:1001F000FFFFFFFFFFFFBF7F1FBF0F478F23479307
:1002000043B54BA3DBA5DBB3E75BF7AFF76FFFDFCE
:10021000FF5FFFFFFFFFFFFFFFFFFFFFBFFFFFFFCE
:10022000FFFFFFFFFFFFFFFFFFFFFFFFFFFFFFFFDE
:10023000FFFFFFFFFFFFFFFFFFFFFFFFFFFFFFFFCE
:10024000FFDFFFFFFFFFFFFFFFFFFFFFFFFFEFFFEE
:10025000FFFFFFFFFFFFFFFFFFFFFFFFFFFFFFFFAE
:10026000FFFFFFFFBFFFFFFFFFFFFFFFFFFFFFFFDE
:100270009F0F4315025004A218E20CF20CF3ACDA03
:10028000F5BAED7AEFDABFF6FFEFFDF77FFFEDFF8E
:100290007FFBBFFEDF7DF7DFFFBFFFFFFFBFFFFF7D
:1002A000FFFFFFFFFFFFFFFFFFFFFFFFFFFEFFFF5F
:1002B000FFFFFFFFFFFFFFFFFFFFFFFFFFFFFFBF8E
:1002C000FFFFFFFFAFFFFFFFFFBFFFFFFFFFFFFFCE
:1002D000FFFFFFFFFFFFFFFFFFFFFFFFFFFFFFFF2E
:1002E000FFFFFFFFFFFFFFFFFFFFFFFFFFFF1124E7
:1002F0000852005528C31CD1B64DFA57FDD76EFBE6
:10030000EE77DFF5DFFBFDBFFAFFFDFFFD7FFEBFF0
:10031000FFDFFFFFFFBFFFFFFFFEABFFFFFFFFFFA2
:10032000FFFFFFFFFFFDFFFFFFFFFFFFFFFFFFFFDF
:10033000FFFFFFFFFFFFFFFFFFFFFEFFFFF7FFF7DE
:10034000FFB6D5F780F7D5B6FFF7FFF7FFFFFFFF42
:10035000FFFFFFFFFFFFFFFFFFFFFFFFFFFFFFFFAD
:10036000FFFFFFFFFFFFFFFFFFFFFFFFFFF648A1BB
:100370001449A659A5BA6BDE75FFDB7FEDFFF7FFC9
:10038000FD7FFFFDFFFEFFFFFFFFDFFBFFBFF7DF8E
:10039000FBBF6DDFFFB77FFF57BED5FFFFFFFFFF3E
:1003A000FF7FFFFFFFFFFFFFFFFFBFFFFFFFFFFF1D
:1003B000FFFFFFFDFFFFFFFFFFFFFFFFFFFFFFFE50
:1003C000FFFFFFFFFAEFFFFFFFFEFFFFFFFFFFFF53
:1003D000FFFFFFFFFFFFFFFFFFFFFFFFFFFDFFFF2F
:1003E000FFFFFFFFFFFFFFFFFFFFFFFFFFFFFFFE1E
:1003F000E9D46B9679D7BDD7FDEFBDF7DFFFEEFFF0
:10040000FFFFFFEFFFFFFFFBEEFF77FDFFDFF6EFE4
:100410007DEBFF56BDCBF5F6FDFFFFFFFFFFFFFFB6
:10042000FFFFFFFFFFFFFFFFFFFFFFFFFFFFFFFFDC
:10043000FFFFEFFFFFFFFFFFFFFFFFFFFFFFFFFFDC
:10044000FFFFFBFFFFFFFFFFFFFFFFFFFFFFFFFFC0
:10045000FFFFFFFFFFFFFFFFFFFFFFFFFF7FFFFF2C
:10046000FFFFFFFFFFFFFFFFEFFFFFFFFFFFFFFFAC
:10047000FFFFFFFFFDFEFFFAF7FDEFF7DEEFFFBF27
:10048000EEFFDFBFFFDFFEBFFFAFFFDFFBFFF6FFCB
:10049000FBFFFCFFFFFFFFFFFFFFFEFFFFFFFFFF74
:1004A000FFFBFFFFFFFFFFFFFFFFFFFF80C080009C
:1004B0000080C080000080C080000070787878786C
:1004C0007E7F7E787878787054D1B4783CF034F8B8
:1004D0008078EAE07400000058BC163F3F16BC5814
:1004E000000000000000985CB65F5FB65C980000FA
:1004F000000070187DB6BC3C3CBCB67D1870000096
:100500001EB87D363C3C3C3C367DB81E00009C9EAF
:100510005E76375F5F37765E9E9C00001C5EFEB69F
:10052000375F5F37B6FE5E1C00004060F0507858C1
:10053000587850F0604000004060D070587878588B
:1005400070D0604000000000000024181824000053
:100550000000000000008100241818240081000021
:10056000000000248118245A5A24188124000042D3
:100570000024814A3CA4253C4A81240042F00F0C0F
:100580001C3EFECE0630387C7F73600C1830E0C015
:100590000000001EF0C000000010F8CC0630180C5F
:1005A0000703000000780F03000000081F3360AB52
:1005B000AB2B2B0B0B030383C3E373333B3B3B3B63
:1005C000130303070F1F3F3F3F1F1F0F0F0F0707A7
:1005D00007070707070707070707070707070707AB
:1005E00007070F0F0F1F3FFFFFFF03D9D903FF02BC
:1005F00000000000000607030100000004060303DA
:1006000001010000000000000000000000000000E8
:1006100080C0C0800000000000000C1E1E0C000006
:100620000000000000000000FFFF80B6B680FF4021
:10063000000000000060E0C0800000002060C0C03A
:1006400080800000000000000000000000000000AA
:100650000103030100000000000030787830000042
:100660000000000000000000FFFF01ABAB01FFD560
:10067000D5D4D4D0D0C0C0C1C3C7CECCDCDCDCDC88
:10068000C8C0C0E0F0B8BCBCBCB8B8B0B0B0B0B086
:10069000B0B0B0B0B0B0B0B0B0B0B0B0B0B0B0808A
:1006A00080C0C0E0E0F0FCFFFFFFC0AAAAC0FFAB23
:1006B000AB2B2B0B0B030383C3E373333B3B3B3B62
:1006C000130303070F1F3F3F3F1F1F0F0F0F0707A6
:1006D00007070707070707070707070707070707AA
:1006E00007070F0F0F1F3FFFFFFF03D9D903FF02BB
:1006F00000000000000607030100000004060303D9
:10070000010100000000000000000000000000C027
:1007100060A0A060C0000000001E332D2D331E001D
:100720000000000000000000FFFF80B6B680FF4020
:10073000000000000060E0C0800000002060C0C039
:1007400080800000000000000000000000000003A6
:1007500006050506030000000078CCB4B4CC780090
:100760000000000000000000FFFF01ABAB01FFD55F
:10077000D5D4D4D0D0C0C0C1C3C7CECCDCDCDCDC87
:10078000C8C0C0E0F0B8BCBCBCB8B8B0B0B0B0B085
:10079000B0B0B0B0B0B0B0B0B0B0B0B0B0B0B08089
:1007A00080C0C0E0E0F0FCFFFFFFC0AAAAC0FFFFCE
:1007B000C08080C0FFFFC08080C0FFFFC08080C0BD
:1007C000FFFFC08080C0FFFFC18081C0FFFFC582E6
:1007D00085C2FFFFD58A95CAFFFFD5AAD5EAFFFFDC
:1007E00001010101FFFF05030503FFFF150B150BB9
:1007F000FFFF552B552BFFFF55AB55ABFFFF55ABFF
:1008000055ABFFFF55AB55ABFFFF55AB55ABFFFFEE
:1008100080808080FFFF80808080FFFF80808080DC
:10082000FFFF80868680FFFF80B6B680FFFF030152
:100830000103FFFF03191903FFFF03D9D903FFFFCA
:1008400003D9D903FFFF03D9D903FF00FCFE1E0E15
:10085000EE2EEE6EAE6EEEEEEE0EFEFEFE06FA9C96
:100860000C0C0898F20206FEFEFEFEFEFEFEFEFEE8
:100870000EFE3EFEFEFEFEFEDEDE1EDEDEDE1EFEA8
:10088000FEFEFEFEFEFEFEFE7EFC0000FFFF000000
:10089000FF4E6D6EEF44EFEFFF00FFFFFFFEF8C766
:1008A0003FFFFFFFFF80003FFFFF7F3F1F1F0F0F36
:1008B000080F101F207F83FFFFFFABAAAAAACBFF60
:1008C000FFFF8DDDDDDDCDFDD0FF0000FFFF00006F
:1008D000FFE8EDECED4CFFFFFF00FFFFFFFFFFFF28
:1008E000FEE11FFFFFFFC0003FC10000000000004D
:1008F000000080C03000C1FFFFFF8CAA88BACCFF87
:10090000FF9FB6B6365658EFFFFF00003F7F60608E
:10091000676466666664666667707F7F7F7F7F7FD9
:100920007F7F7F78776F6760707F7F7E7C7C787851
:1009300078797C7C7E7F7F7F7F7F7A7A7A7A7A7FF4
:100940007F7F7F7F7F7F7E7E7F3F000000000000F3
:100950003E5B4F5B3E3E6B4F6B3E1C3E7C3E1C182D
:100960003C7E3C181C577D571C1C5E7F5E1C00188B
:100970003C1800FFE7C3E7FF0018241800FFE7DB7F
:10098000E7FF30483A060E2629792926407F0505DB
:1009900007407F05253F5A3CE73C5A7F3E1C1C0818
:1009A000081C1C3E7F14227F22145F5F005F5F06DD
:1009B000097F017F006689956A606060606094A22B
:1009C000FFA29408047E040810207E201008082A44
:1009D0001C08081C2A08081E101010100C1E0C1EE3
:1009E0000C30383E3830060E3E0E06000000000087
:1009F00000005F00000007000700147F147F14242C
:100A00002A7F2A12231308646236495620500008B0
:100A1000070300001C2241000041221C002A1C7F09
:100A20001C2A08083E0808008070300008080808E2
:100A300008000060600020100804023E5149453E55
:100A400000427F400072494949462141494D3318CF
:100A500014127F1027454545393C4A494931412107
:100A60001109073649494936464949291E000014EB
:100A70000000004034000000081422411414141433
:100A800014004122140802015909063E415D594EE5
:100A90007C1211127C7F494949363E414141227FF7
:100AA0004141413E7F494949417F090909013E4190
:100AB0004151737F0808087F00417F410020404179
:100AC0003F017F081422417F404040407F021C02CA
:100AD0007F7F0408107F3E4141413E7F090909069E
:100AE0003E4151215E7F0919294626494949320371
:100AF000017F01033F4040403F1F2040201F3F40F7
:100B000038403F63140814630304780403615949AF
:100B10004D43007F41414102040810200041414102
:100B20007F040201020440404040400003070800E7
:100B300020545478407F284444383844444428386A
:100B40004444287F385454541800087E090218A4DD
:100B5000A49C787F0804047800447D400020404035
:100B60003D007F1028440000417F40007C04780451
:100B7000787C080404783844444438FC1824241849
:100B800018242418FC7C08040408485454542404F1
:100B9000043F44243C4040207C1C2040201C3C401E
:100BA00030403C44281028444C9090907C4464543D
:100BB0004C44000836410000007700000041360830
:100BC0000002010204023C2623263C1EA1A1611260
:100BD0003A4040207A38545455592155557941218D
:100BE00054547841215554784020545579400C1E76
:100BF000527212395555555939545454593955541E
:100C000054580000457C410002457D420001457C6E
:100C100040F0292429F0F0282528F07C545545007F
:100C20002054547C547C0A097F4932494949323264
:100C300048484832324A4848303A4141217A3A429B
:100C4000402078009DA0A07D39444444393D404077
:100C5000403D3C24FF2424487E4943662B2FFC2F33
:100C60002BFF0929F620C0887E09032054547941BE
:100C70000000447D413048484A32384040227A00E2
:100C80007A0A0A727D0D19317D2629292F282629F5
:100C900029292630484D4020380808080808080847
:100CA00008382F10C8ACBA2F102834FA00007B0087
:100CB0000008142A142222142A14089500220095F0
:100CC000AA005500AAAA55AA55AA000000FF0010C4
:100CD0001010FF00141414FF001010FF00FF10107C
:100CE000F010F0141414FC001414F700FF0000FFBF
:100CF00000FF1414F404FC141417101F10101F101C
:100D00001F1414141F00101010F0000000001F101A
:100D10001010101F10101010F010000000FF101025
:100D200010101010101010FF10000000FF14000031
:100D3000FF00FF00001F10170000FC04F41414173C
:100D400010171414F404F40000FF00F71414141422
:100D5000141414F700F7141414171410101F101F94
:100D6000141414F4141010F010F000001F101F00E1
:100D700000001F14000000FC140000F010F0101020
:100D8000FF10FF141414FF141010101F00000000B7
:100D9000F010FFFFFFFFFFF0F0F0F0F0FFFFFF00AB
:100DA00000000000FFFF0F0F0F0F0F3844443844BE
:100DB0007C2A2A3E147E02020606027E027E02631E
:100DC000554941633844443C04407E201E200602BD
:100DD0007E020299A5E7A5991C2A492A1C4C72019A
:100DE000724C304A4D4D303048784830BC625A46DB
:100DF0003D3E494949007E0101017E2A2A2A2A2ACC
:100E000044445F444440514A444040444A514000B5
:100E100000FF0103E080FF000008086B6B0836123A
:100E2000362436060F090F060000181800000010BF
:100E300010003040FF0101001F01011E00191D17A5
:100E400012003C3C3C3C0000000000F0F89C8E8707
:100E500083878E9CF8F00000FEFF03030303030763
:100E60000EFCF80000FEFF0303030303070EFCF86B
:100E70000000FFFF00000000000000FFFF0000FE78
:100E8000FF8383838383C7EE7C380000F8FC0E0762
:100E9000030303070EFCF800003F7FE0C08080C022
:100EA000E07F3FFFFF01010101010101FFFF0000A1
:100EB000FFFF0C0C0C0C1C3E77E3C100007FFFC051
:100EC000C0C0C0C0E0703F1F00001F3F70E0C0C046
:100ED000C0E0703F1F00007FFFC1C1C1C1C1E37707
:100EE0003E1C00001F3F70E0C0C0C0E0703F1F000C
:100EF0000000000001FFFF010000008D14A1C88167
:100F0000CFD9F102AF00000000000002020202028D
:100F10000204040404040404040404040404040493
:100F20000404040402000002040402000002040499
:100F30000404040404FF00000000FF020202020295
:100F400002040404040404FF04040404FF00FF007A
:100F500000FF0002FF0202FF0204FF0404FF04047A
:100F6000FF0404FF04FFFF0202FFFF00020202026F
:100F70000002040202040202FFFFFFFF0204040455
:100F80000404040202020202020000000000000049
:100F90000000000000FF00000000FF02FFFFFFFF55
:100FA0000204FFFFFFFF04FF04040404FF04FF0426
:100FB000FF04FFFF04FF04FF0404FF04FF04FFFF1E
:100FC00004FF04FF04FFFF0000FFFF02020404020D
:100FD00002020204040202FFFF0000FFFF000004FF
:100FE00004020200000404020200000404020200E1
:100FF0000004040202FF01010101010101010101DC
:101000007D457505457D01FFFF0000609090909043
:1010100060000029292FA9A94600FFFF0000E42A4B
:101020002A6A2AEA00003A0A0A1A0A3900FFFF80EF
:1010300080928A868E928E80808080808080808060
:10104000FFFF017D457505457D01FFFF80AF89A943
:10105000A9A9AF80FF00000000000000000000F818
:10106000FC0CEC2C2C2C2C2C2C2C2C2C2C2C2C2C50
:101070002C2C2C2C2C2C2C2C2C2C2C2C2C2C2C2CB0
:101080002C2C2C2C2C2C2C2C2C2C2C2C2C2C2C2CA0
:101090002C2E2E203E000000000000003E202E2EB0
:1010A0002C2C2C2C2C2C2C2C2C2C2C2C2C2C2C2C80
:1010B0002C2CEC0CEC2C2C2C2C2C2C2C2C2C2C2C10
:1010C0002C2C2C2C2C2C2C2C2C2C2C2C2C2C2C2C60
:1010D000EC0CFCF80000000000000000000000FF25
:1010E000FF00FF00000000000000E020A0A0A0A082
:1010F000A0A020E000000000000000E0A0A0A0A050
:10110000A0A0A0A0A0A0A0A0A0A0A0A0A0A0A0A0DF
:10111000A0A0A0A0E000000000000000E020A0A02F
:10112000A0A0A0A0A0A0A0A0A020E000000000001F
:101130000000FF80BFA0A0A0A0A0A0A0A020E00071
:10114000000000000000E020E000000000000000BF
:10115000FF00FFFF0000000000000000000000FF93
:10116000FF00FF00000000000000FF80BFBFBFBF06
:10117000BFBF80FF000000000000008080808080F2
:10118000800000000000000080808000000000005F
:10119000000080808000000000000000FF00FF00D1
:1011A0000000000000000000FF00FF000000000041
:1011B000000080808000000000000000FF80FF0031
:1011C000000000000000FF80FF00000000000000A1
:1011D000FF00FFFF0000000000000000000000FF13
:1011E000FF00FF8080808080808080808080808081
:1011F0008080808000000000000000FF00FEFE00F4
:10120000FF000000000000001F101F000000000091
:101210000000FF00FF00000000000000FF00FF00D2
:1012200000000000000000000F080F000000000098
:101230000000FF00FF8080808080808080808000B0
:10124000000000000000808080808080808080809E
:10125000FF00FFFF0000000000000000000000FF92
:10126000FF00FE0202020202020202020202020267
:101270000202020300000000000000FF00FFFF0068
:10128000FF00000000000000F010F000000000006F
:101290000000FF00FF00000000000000FF00FF0052
:1012A0000000000000000000E020E000000000005E
:1012B0000000FF00FE02020202020202020203001C
:1012C0000000000000000302020202020202020209
:1012D000FE00FFFF0000000000000000000000FF13
:1012E000FF00FF00000000000000FE02FAFAFAFA18
:1012F000FAFA02FE000000000000000302020202EF
:1013000003000000000000000302030000000000D2
:10131000000003020300000000000000FF00FF00C7
:101320000000000000000000FF00FF0000000000BF
:10133000000003020300000000000000FE02FE00A7
:10134000000000000000FE02FE000000000000009F
:10135000FF00FFFF0000000000000000000000FF91
:10136000FF00FF000000000000000F080B0B0B0B3C
:101370000B0B080F000000000000000E0A0A0A0A0A
:101380000A0A0A0A0A0A0A0A0A0A0A0A0A0A0A0ABD
:101390000A0A0A0A0E000000000000000F080B0AEB
:1013A0000A0A0A0A0A0A0A0A0B080F0000000000CB
:1013B0000000FE02FA0A0A0A0A0A0A0A0B080F00CB
:1013C0000000000000000F080F00000000000000F7
:1013D000FF00FFFF00000000000000000000003FD1
:1013E0007F606F6868686868686868686868686867
:1013F000686868686868686868686868686868686D
:10140000686868686868686868686868686868685C
:1014100068E8E808F800000000000000F808E8E8C4
:10142000686868686868686868686868686868683C
:1014300068686F606F686868686868686868686826
:10144000686868686868686868686868686868681C
:101450006F607F3F0060F6FF6F4658F0C01C363F5C
:101460005F773F1E3B386C5C7C383810601F7E58BD
:10147000B0E0E040401C3E7F7F7F361C001C3E7F7A
:10148000037F361C001C3E0F030F361C0000226336
:1014900075773E1C0014367775773E1C001C3E7F26
:1014A0007D7F3E1C001C3E7F7F7F361C001C3E7FE4
:1014B000607F361C001C3E786078361C001C3E7F26
:1014C0007D7F3E1C001C3E7775773614001C3E77EE
:1014D00075632200002D7F7F5B7F7F3E005A7F7FF8
:1014E0005B7F7F3E002D7F7F7F6D7F3E005A7F7F39
:1014F0007F6D7F3E002D77416541413E005A774127
:101500006541413E002D77414153413E005A7741AC
:101510004153413E00000000002400000000000094
:101520000024000000000000001200000000000085
:101530000012000000000000000000000000000099
:10154000000000000000000000000000000000009B
:10155000000000000000000000000000000000008B
:10156000000000000000000000000000000000007B
:10157000000000000000000000000000000000006B
:10158000000000000000000000000000000000005B
:10159000000000000000000000000000000000004B
:1015A000000000000000000000000000000000003B
:1015B000000000000000000000000000000000002B
:1015C000000000000000060600000000000000020D
:1015D0000000000000000000020000000000000009
:1015E00000020000000000000000020000000000F7
:1015F00000000002000000000000000002000000E7
:1016000000000000000200000000000000000200D6
:1016100000000000000000000200000000000000C8
:1016200000000200000000000000000006060000AC
:1016300000000000000000000000000000000000AA
:101640000000000000000400000000000000000096
:101650000000000000000000040000000000000086
:10166000000000000800000000000000000008006A
:101670000000000000000000080000000000000062
:101680000000000000000000000000000000080052
:101690000000000000000000080000000000000042
:1016A0000000040000000000000000000400000032
:1016B000000000000000000000000000000000002A
:1016C000000000000000080000000000000000080A
:1016D0000000000000000000080000000000000002
:1016E00000000000080000000000000000000800EA
:1016F00000000000000000000000000000000000EA
:1017000000000000000000000000000000000800D1
:1017100000000000000000000800000000000000C1
:1017200000000800000000000000000008000000A9
:1017300000000000000000000000000000000000A9
:101740000000000000002000000000000000002059
:101750000000000000000000200000000000000069
:101760000000000020000000000000000000200039
:101770000000000000000000000000000000000069
:101780000000000000000000000000000000200039
:101790000000000000000000200000000000000029
:1017A00000002000000000000000000020000000F9
:1017B0000000000000000000000000000000000029
:1017C00000000000000040000000000000000000D9
:1017D00000000000000000004000000000000000C9
:1017E00000000000200000000000000000002000B9
:1017F00000000000000000002000000000000000C9
:1018000000000000000000000000000000002000B8
:1018100000000000000000002000000000000000A8
:101820000000400000000000000000004000000038
:1018300000000000000000000000000000000000A8
:10184000000000000000C0C0000000000000008098
:101850000000000000000000800000000000000008
:101860000080000000000000000080000000000078
:101870000000008000000000000000008000000068
:101880000000000000800000000000000000800058
:1018900000000000000000008000000000000000C8
:1018A000000080000000000000000000C0C0000038
:1018B0000000000000000000000000000000000028
:1018C0000000000000000000000000000000000018
:1018D0000000000000000000000000000000000008
:1018E00000000000000000000000000000000000F8
:1018F00000000000000000000000000000000000E8
:1019000000000000000000000000000000000000D7
:1019100000000000000000000000000000000000C7
:1019200000000000000000000000000000000000B7
:10193000000000000000000000000000000000F0B7
:10194000F81CCC2C2C2C2C2C2C2C2C2C2C2C2C2C7B
:101950002C2C2C2C2C2C2C2C2C2C2C2C2C2C2C2CC7
:101960002C2C2C2C2C2C2C2C2C2C2C2C2C2C2C2CB7
:101970002C2E2E201E000000000000001E202E2E07
:101980002C2C2C2C2C2C2C2C2C2C2C2C2C2C2C2C97
:101990002C2CEC0CEC2C2C2C2C2C2C2C2C2C2C2C27
:1019A0002C2C2C2C2C2C2C2C2C2C2C2C2C2C2C2C77
:1019B000CC1CF8F00000000000000000000000FF58
:1019C000FF00FF00000000000000C020A0A0A0A0B9
:1019D000A0A020C00000000000000040A0A0A0A027
:1019E000A0A0A0A0A0A0A0A0A0A0A0A0A0A0A0A0F7
:1019F000A0A0A0A04000000000000000C020A0A007
:101A0000A0A0A0A0A0A0A0A0A020C0000000000056
:101A100000007F80BFA0A0A0A0A0A0A0A020C00028
:101A2000000000000000C020C00000000000000016
:101A3000FF00FFFF0000000000000000000000FFAA
:101A4000FF00FF000000000000007F80BFBFBFBF9D
:101A5000BFBF807F00000000000000008080808009
:101A600000000000000000000080000000000000F6
:101A7000000000800000000000000000FF00FF00E8
:101A80000000000000000000FF00FF000000000058
:101A90000000008000000000000000007F807F0048
:101AA0000000000000007F807F00000000000000B8
:101AB000FF00FFFF0000000000000000000000FF2A
:101AC000FF00FF8080808080808080808080808098
:101AD0008080800000000000000000FF00FEFE008B
:101AE000FF000000000000000F100F0000000000C9
:101AF0000000FF00FF00000000000000FF00FF00EA
:101B0000000000000000000007A80700000000001F
:101B10000000FF00FF808080808080808080000047
:101B20000000000000000080808080808080808035
:101B3000FF00FFFF0000000000000000000000FFA9
:101B4000FF00FE020202020202020202020202027E
:101B50000202020100000000000000FF00FFFF0081
:101B6000FF00000000000000E010E00000000000A6
:101B70000000FF00FF00000000000000FF00FF0069
:101B80000000000000000000C02AC00000000000AB
:101B90000000FF00FE020202020202020202010035
:101BA0000000000000000102020202020202020222
:101BB000FE00FFFF0000000000000000000000FF2A
:101BC000FF00FF00000000000000FC02FAFAFAFA31
:101BD000FAFA02FC0000000000000001020202020A
:101BE00001000000000000000102010000000000F0
:101BF000000001020100000000000000FF00FF00E3
:101C00000000000000000000FF00FF0000000000D6
:101C1000000001020100000000000000FC02FC00C6
:101C2000000000000000FC02FC00000000000000BA
:101C3000FF00FFFF0000000000000000000000FFA8
:101C4000FF00FF0000000000000007080B0B0B0B5B
:101C50000B0B080700000000000000040A0A0A0A33
:101C60000A0A0A0A0A0A0A0A0A0A0A0A0A0A0A0AD4
:101C70000A0A0A0A040000000000000007080B0A14
:101C80000A0A0A0A0A0A0A0A0B08070000000000EA
:101C90000000FC02FA0A0A0A0A0A0A0A0B080700EC
:101CA000000000000000070807000000000000001E
:101CB000FF00FFFF00000000000000000000001F08
:101CC0003F706768686868686868686868686868B6
:101CD0006868686868686868686868686868686884
:101CE0006868686868686868686868686868686874
:101CF00068E8E808F000000000000000F008E8E8EC
:101D00006868686868686868686868686868686853
:101D100068686F606F68686868686868686868683D
:101D20006868686868686868686868686868686833
:101D300067703F1F007DFF7DFF6EFF6EFF5FFF5FDF
:101D4000FF4BFF4BFF4BFF74FF74FF74FF74FF6486
:101D5000FF64FF64FF64FF7DFF7DFF7DFF7DFF73F8
:101D6000FF73FF7DFF7DFF8CFF8CFF78FF78FF64A2
:101D7000FF64FF64FF7DFF7DFF7DFF7DFF73FF73C9
:101D8000FF7DFF7DFF8CFF8CFF73FF73FF7DFF7D69
:101D9000FF8CFF8CFF9BFF9BFF9BFFA5FFA5FFA573
:101DA000FFAAFFAAFFAAFFAAFFAAFFA5FFA5FFA5FA
:101DB000FFA5FFA5FFA5FFAAFFAAFFAAFFAAFFAAEA
:101DC000FF00FE03ADB16D05E9A5EDE9C5EDE9E55F
:101DD000CDE9E59D89758D79C53D29458DC9150DDF
:101DE00029D5AD59E51D69952D59A5EDC9C5CDE993
:101DF000C5DDC9B58D79857DC935CD79857DC9B5F7
:101E00004DF905FD4905CDD18D152955AD59E59DF6
:101E10006955AD59A5C509154DB945FD89B54D8122
:101E2000CD1519255DE9956D01E5DD89152D59055E
:101E3000EDC9C5CDC9C5CDC9552DD935C53BFFFCAB
:101E40000000FF0056D93600FFADFFFFFFFF7F7F88
:101E5000535FCFBFDF671C0182E4F9FE3F3FFFFE07
:101E6000F8E082050A7906FDFEFFFFFFFFFFDF971E
:101E70008B4B45A5837150AD6A83047B75567936CB
:101E80007172071A5500FFFFFFFFFEFCF8F1E0F545
:101E9000F2FDFEFFFFFF000055AA6798E6FDFE3F3A
:101EA0003FFFFCF0E0030C1300FFFFFFFFFEFCF020
:101EB000E1DAFFFFFFFFFFFF00007788FF11FFFF60
:101EC0000000FF00AB6C9B608F753F2F2F2F203FD2
:101ED000000168C008743C3F3F3F3F3F3F3D3D3EEF
:101EE0002F2F292638300003174F1F9F3F3F3F3EBB
:101EF0002E2F35170AC481649B76C936EC9A649EEE
:101F000070CE34EA95608F7F3F3F3F3F3F3F3F3F7A
:101F10003F2F2F2F213F0000323C3F3F3F3F3F3FAD
:101F20003D3D3E2F2F29263820033F3F3F3F3F3F77
:101F30003F3F3F2F2F2F213F0000EB1CE35DFFFFB2
:101F4000000003060D0E090B0A090B080B0A090A0B
:101F50000B080B0A090B080B0A090A090B0A0909E5
:101F60000B0A090B090A090B080B090A090A0B08D5
:101F70000B0A090B080B080B090A090B080B0A09C5
:101F80000B080B0A090A090B080B080B080B080BB6
:101F9000080B080B0A090A090B0909090B090A09A8
:101FA0000B090A090B0A09090B0A090A0B080B0895
:101FB0000B080B080B080B0A090A090A0D0C07018C
:101FC0000000000000000000000000000000000011
:101FD0000000000000000000000000000000000001
:101FE0000080C0E0E0E0F0F0F0F0F0F0F0F0F0F0B1
:101FF000E0C0C0E0F0F0F0F0F0F0F0F0F0E0E0F081
:10200000F0F0F0F0F0F0F0F0F0F0F0E0E0F0F0F0F0
:10201000F0F0F0F0F0F0E0C0C0E0F0F0F0F0F0E050
:10202000E0C0800000000000000000000000000090
:1020300000000000000000000000000000000000A0
:102040000000000000000000000000000000000090
:1020500000000000000000000000000000789C1E4E
:102060001F1F1F1F1F1F1F1F1F1F1F1F3FFFFFFFC0
:10207000FFFFFFFF1F1F1F1F1FFFFFFFFFFFFFFFD0
:10208000FFFFFFFFFFFFFFFFFFFFFFFFFFFFFFFF60
:10209000FFFFFFFFFF3F3F3F3F3F3FFFFFFFFFFFD0
:1020A000FFFF3F3F3E3C38B06000000000000000F2
:1020B0000000000000000000000000000000000020
:1020C0000000000000000000000000000000000010
:1020D00000000000000000000000000000000102FD
:1020E00006040404FC0000000000FCFCFCFCFFFFF4
:1020F000FF7F1FFF0404040404FFFFFFFFFFFFFF37
:1021000007070707070F0707070707070F0F1F7FB7
:10211000FFFFFFFFFFFFFC0000000001FF7F3F1FEC
:1021200007804020180E030100000000000000009E
:10213000000000000000000000000000000000009F
:10214000000000000000000000000000000000008F
:10215000000000000000000000000000000000007F
:1021600000000000037C80000000037FFFFFFF1FD2
:1021700003000007F80000000007FFFF0FFFFF7FCC
:1021800000000000807E077FFFFFFF7E00000080D0
:10219000FFFFFFFFFFFFFF7E00000000C0301806BA
:1021A000030000000000000000000000000000002C
:1021B000000000000000000000000000000000001F
:1021C0000000C0E0F0F8FCFEFEFEFEFEFEFEFCFE9F
:1021D000FEFEFEFEFEFCF0EEFEFEFEFEFEFEFEFE3F
:1021E000FEFEFCF8F8FEFFC0C0C0C0C0FFFFE1C0AB
:1021F000C0F8F8F8FFC0C0C0C0C0FFFFF0FFFFC0CC
:10220000C0C0C0C0FFF8F8F8FFFFFFC0C0C0C0FFEB
:10221000F8FFFFDFC7C1C0C0C0F8F6E1F8F8F8F872
:10222000F8F8F8F8FEFEFEFEFEFEFCF0E0F0F0F836
:10223000FCFCFEFEFEFEFEFEFEFEF8E0E0C000003E
:1022400000070F79E1C101030F3FFFFFF9C38307C7
:102250000F1F7FFFFFF3830303033FFFFFFBC30356
:1022600003070F7FFFFFFFE10101010103FFFFFFF4
:10227000FFFF03030303010101010FFFFFFFFFFF46
:102280000303030303F3F3F3F30303070F0FFFFF4A
:10229000FFFF0303030383F3F3F3F3F3F3F3FFFF0E
:1022A000FF1F03010181F1F1F3F3030303038FFF28
:1022B000FFFF7F1F0F0F87E3F3F13101010181E77A
:1022C0007E0000000003071C38E08003071F7FFE2C
:1022D000F0E08000010707CE80000000073FFFFF0D
:1022E000FCF0C000030F3FFFF8800000003FFFFF3D
:1022F000FFFF00000000FEFCE0000003FFFFFFFF07
:10230000FF00000000FFFFFF0F00000000F8FFFFCC
:102310000F00000000C0CFCFCFCFCFFFFFFF3F07A0
:10232000010000809E9F1F0F61E0F0F0FCFFFFEFB7
:1023300083808080981E1F1E1FF6E6060606070192
:1023400000708070008000A8A8F9030F1C70E08165
:10235000838FBFFEF8E080818F9FFEDC30E0C0837A
:102360009FFFCF1F7CE0C081838380808080FFFF40
:102370000FFF80808080F31313F08080809FFFFF29
:10238000FF808080BCBFBFBF8080C0E07FFFFF8731
:1023900080808080BEBFBFBFBFFFFFFF9F83808064
:1023A000F0FEFFFF8F8180E0F03EFFDF8787879799
:1023B0009F9FDFC7E160381C0E0301000000000092
:1023C00000000000000000000000000000000018F5
:1023D0007C6642C2C28684000080E030101010206B
:1023E000E0000000FE000080E03010101020E0004F
:1023F0000080E03010101030000010FE10101000AF
:102400000000000000E0F80C0606028286868400C8
:10241000000030909090B0E0C0000000F0603010FC
:1024200030F0E020101030E080000080E03010102C
:102430001020E0000000000000000000000000008C
:102440000000000000000000000000000000000884
:102450001818101018190F0200030F19111111117B
:10246000090000001F0000030F19111111110900CC
:1024700000030F18101010180000000F18101000A3
:10248000000000000001070C1818101010180F00B1
:1024900000061F111010081F1F0000001F00000081
:1024A000001F1F000000001F1F0000030F19111163
:1024B00011110900000000000000000000000000F1
:1024C000000000000000000080C0E0F0F8FC000008
:1024D00000000000000000000000000000000000FC
:1024E00000000000000000000000000000000000EC
:1024F0000000000080E07030180C0C06868686868E
:10250000868686860606040C08183070E0C08000B7
:1025100000000000000000000000000000000000BB
:1025200000000000000000000000000000000000AB
:1025300000000000FCF8F0E0C08000000000000097
:10254000000060F0F8FCFEFFFFFFFFFFFFFFFEFE54
:10255000FEFEFEFEFEFEFEFEFEFEFEFEFEFEFEFE9B
:10256000FEFE7E1E0E0200000000000000000000C3
:10257000000000FFFF0100000000000000FFFF104E
:1025800010101039EFC600000000000001FFFFFE30
:10259000F80000000000000000000000020E1E7E97
:1025A000FEFEFEFEFEFEFEFEFEFEFEFEFEFEFEFE4B
:1025B000FEFEFEFEFFFFFFFFFFFFFFFEFCF8F060E8
:1025C000000000000103070F1F3F7FFFFFFF0F0FF9
:1025D0000F0F0F0F0F0F0F0F0F0F0F0F0F0F0F0F0B
:1025E0000F0F0F0E080000000000000000000000A8
:1025F00000000001071E3870E0C0C0800407070417
:1026000004040406078380C0C0E0F0F8FE7F1F0FBB
:1026100001000000000000000000000000080E0F94
:102620000F0F0F0F0F0F0F0F0F0F0F0F0F0F0F0FBA
:102630000F0F0F0FFFFFFF7F3F1F0F07030100006A
:102640000000000000000000000000000103000086
:10265000000000000000000000000000000000007A
:10266000000000000000000000000000000000006A
:10267000000000000000000000000103070707073A
:10268000070707070707070703030101000000000A
:10269000000000000000000000000000000000003A
:1026A000000000000000000000000000000000002A
:1026B0000000000003010000000000000000000016
:1026C00000080B00020202000009040000010202DF
:1026D0000000052400100105240101010424020664
:1026E00005240600010705810310004009040100CC
:1026F000020A0000000705020240000007058302ED
:102700004000000403090412010002EF02014041ED
:1027100023368000010102030141726475696E6F06
:10272000204C4C4300414241313130360000CE2331
:1027300011241FBECFEFDAE0DEBFCDBF11E0A0E075
:10274000B1E0E6EDFAE602C005900D92A838B107B7
:10275000D9F726E0A8E8B1E001C01D92A333B20783
:10276000E1F713E1C8E9D3E104C02197FE010E941B
:102770004F35C739D107C9F70E94FF230C9469353B
:102780000C940000ECECF1E030EB20E146E05C98CA
:102790003EBD4A95F1F72EBD20E8239507C0449130
:1027A00040815C9A4EBD8111412D419344912A95FF
:1027B000B1F73395383B49F70DB40895FC0180918A
:1027C000CB01882311F13FB7F89482E08093E900B0
:1027D0002091F200822F90E01816190614F481E07F
:1027E00090E0882339F0289844E64093CA0140914C
:1027F000F1004083222339F02091F200211103C01F
:102800002BE62093E8003FBF08958FEF9FEF0895D8
:102810002FB7F89483E08093E9009091E800892F26
:10282000807295FF04C09091F20080E4891B2FBF55
:1028300008958091C20181110DC082E08093BE0194
:1028400084E08093BF011092C1011092C00181E029
:102850008093C2018EEB91E00895CF93DF931F9296
:10286000CDB7DEB76983DC01ED91FC910280F38185
:10287000E02D41E050E0BE016F5F7F4F09950F9062
:10288000DF91CF91089583E08093E9008091F20079
:10289000882319F08AE38093E80008950E940814C1
:1028A00090E00895CF93DF931F92CDB7DEB7FC0180
:1028B0008485958597FD08C02FEF3FEF35872487E6
:1028C0000F90DF91CF910895CE0101960E94DE1303
:1028D000019719F4898190E0F3CF8FEF9FEFF0CF4C
:1028E0000F931F93CF93DF931F92CDB7DEB78C0169
:1028F000FC018485958597FF0BC0CE0101960E944F
:10290000DE13019771F4898190E0F801958784873F
:10291000F801848595850F90DF91CF911F910F91DC
:1029200008958FEF9FEFF1CFFC018485958597FD8A
:102930000BC09FB7F89482E08093E9008091F20089
:102940009FBF90E0019608959FB7F89482E080932E
:10295000E9008091F2009FBF90E008954091B80196
:102960005091B9012091B6013091B7014217530738
:10297000B4F49091E8009570E1F39091E80092FD35
:1029800019C08093F1008091B8019091B90101962E
:102990008F739927892B19F48EEF8093E80080912B
:1029A000B8019091B90101969093B9018093B80153
:1029B00081E0089580E00895DF92EF92FF920F93F7
:1029C0001F93CF93DF93D82E8A01EB017B01E40E96
:1029D000F51ECE15DF0559F0D7FE12C0FE01849119
:1029E0000E94AE1421968111F4CF0FEF1FEFC801A2
:1029F000DF91CF911F910F91FF90EF90DF9008959D
:102A00008881EECF0F931F93CF93DF931F92CDB7A3
:102A1000DEB782E0898342E450E061EC76E280E850
:102A20000E94DC140E941914DC0112960D911C9175
:102A30000115110589F0D801ED91FC910280F38117
:102A4000E02DBE016F5F7F4FC801099597FD04C05F
:102A5000F80100851185ECCF89810F90DF91CF912E
:102A60001F910F910895615030F02091F100FC0109
:102A700020830196F8CF289884E68093CA010895B0
:102A80000895AF92BF92CF92DF92EF92FF920F9391
:102A90001F93CF93DF936C017B018B01040F151FF4
:102AA000EB015E01AE18BF08C017D10759F069915C
:102AB000D601ED91FC910190F081E02DC6010995C0
:102AC000892B79F7C501DF91CF911F910F91FF906D
:102AD000EF90DF90CF90BF90AF900895FC010E94DF
:102AE0000516319728F068517C4F8F4F9F4FF9CFD3
:102AF000AB01FC010E940516641775078E079F073E
:102B0000C8F308958F929F92AF92BF92CF92DF92B7
:102B1000EF92FF920F931F93CF93DF936C017B0192
:102B20008A0180910E01882309F45AC08091CB015B
:102B3000882309F455C08091BD0180FF05C08091B4
:102B4000E00082608093E000E801B12C8AEFA82EBB
:102B500093E0892E2AE3922E209711F4BB20C9F12D
:102B60000E940814811108C0AA94AA20C9F181E02A
:102B700090E00E946E15F0CF8C171D0611F00CF03E
:102B80008C2F9FB7F8948092E9002091E80025FDF2
:102B900002C09FBFE1CF282F30E0C21BD30BF7014B
:102BA000815020F041914093F100FACFE20EF31EE4
:102BB000BB2021F09092E800B12CEBCF8091E8008F
:102BC00085FDE7CF9092E800BB24B394209709F3EA
:102BD000F3CF5D9884E68093BC01101611063CF09B
:102BE00081E090E0F6019383828310E000E0C80169
:102BF000DF91CF911F910F91FF90EF90DF90CF90D9
:102C0000BF90AF909F908F900895A5E9B1E02FB746
:102C1000F8947D918D919C9166B52FBFA89B05C0BE
:102C20006F3F18F47F5F8F4F9F4F22E0660F771F33
:102C3000881F991F2A95D1F70895AB01FC010E94C6
:102C4000051641505109E109F10928F068517C4FFE
:102C50008F4F9F4FF6CFAB01FC010E940516641702
:102C600075078E079F07C8F308952D9A089590E081
:102C70000C946E158FB18095807F669B88601C9B3D
:102C8000846008958EBD00000DB407FEFDCF089549
:102C90002F923F924F925F926F927F928F929F926C
:102CA000AF92BF92CF92DF92EF92FF920F931F935A
:102CB000CF93DF93CDB7DEB72B970FB6F894DEBF77
:102CC0000FBECDBF9C838B836A3061F5DC015596C6
:102CD0008C91B8E08B9F90011124EB81FC8181895C
:102CE0009289820F931F928B818B108A178681E0C5
:102CF00090E02B960FB6F894DEBF0FBECDBFDF91EC
:102D0000CF911F910F91FF90EF90DF90CF90BF90E8
:102D1000AF909F908F907F906F905F904F903F907B
:102D20002F9008956D3019F3AB81BC8155969C901E
:102D3000559754965C9054975D8253964C90539758
:102D40005196ED90FC9052971F968D919C91092D74
:102D500010E0803891050CF084C020E4E216F10404
:102D60000CF07FC0E5E09C019E9E200D311D1124DA
:102D7000121613060CF075C09801F3E0220F331FF2
:102D8000FA95E1F72E0D3F1D121613060CF069C0DF
:102D90006E9FF0011124BF01655B764F7F836E83C8
:102DA000AC01712CEE81FF812491F5E07F1201C00E
:102DB00020E0670178E0672E222E312C842C20FF42
:102DC0008D80811004C05D80541409F437C09A01CD
:102DD0002983622F641B691508F030C01B861A8690
:102DE0006A85691540F520383105F0F4AA84BB8462
:102DF000AC0CBD1C70E4A716B104B0F4F50170E191
:102E0000598061E0E1FD64E0E0FD660FE2FD62955E
:102E1000E87F7E9FD0011124A50DA453BE4F0C90D6
:102E2000062A80FE06260C926A857B856F5F7F4F9F
:102E30007B876A87D5CF2F5F3F4FCACF91013595EA
:102E400027956A94C00ED11E6110B6CF7394EE819F
:102E5000FF813196FF83EE83400F511FF6E07F1212
:102E6000A1CF26E0929E800D911D1124AB81BC81E3
:102E700050969C938E931F9756962C91569722238B
:102E800009F435CF4AEF40039001419F300D1124E2
:102E900020583F4F281739070CF029CFCD01ED916D
:102EA000FC910190F081E02D6AE0099520CF089512
:102EB000089590E080E008959F92AF92BF92CF92E4
:102EC000DF92EF92FF920F931F93CF93DF93D82F50
:102ED000B62EA42E922E90E0E42EF12CE81AF90AD8
:102EE000081B190B6E9DC0016F9D900D1124081BCE
:102EF000190BC0E0D12CC12CCD1620F1CA1410F54D
:102F0000CB1500F1C915F0F4F601E00FF11F849123
:102F10000E9442168FEFC81AD80A80E8C816D1045A
:102F200059F7CF5F0E0D1F1DC83021F7DF91CF91EC
:102F30001F910F91FF90EF90DF90CF90BF90AF90D7
:102F40009F90089580E0E4CF80FF0BC080EC67FF86
:102F500080E066FD806365FD8C6064FF0BC083606C
:102F600009C080EC63FF80E062FD806361FD8C60DE
:102F700060FDF5CF0895982F96959695969528EF34
:102F8000929F800D1124E82FF0E0ED5AFE4F8081D2
:102F90000895CF93DF93EC0120E030E040E85FE359
:102FA000688579858A859B850E94BD34181644F40E
:102FB00080E090E0A0E8BFE388879987AA87BB8775
:102FC00020E030E040E85FEB688579858A859B8565
:102FD0000E945E3387FF08C080E090E0A0E8BFEB6E
:102FE00088879987AA87BB8720E030E040E85FE3C5
:102FF0006C857D858E859F850E94BD34181644F4AE
:1030000080E090E0A0E8BFE38C879D87AE87BF8714
:1030100020E030E040E85FEB6C857D858E859F8504
:103020000E945E3387FF08C080E090E0A0E8BFEB1D
:103030008C879D87AE87BF87DF91CF9108958F9250
:103040009F92AF92BF92CF92DF92EF92FF92CF9377
:10305000DF93EC010E94C917C888D988EA88FB88E9
:1030600020E030E0A901C701B6010E94BD3487FD10
:1030700049C0888C998CAA8CBB8C20E030E040E859
:103080005FEBC501B4010E94BD341816B4F42DECF9
:103090003CEC4CE45DE3C501B4010E94F1324B010C
:1030A0005C0120E030E040E85FEB0E94BD34181680
:1030B00024F4888E998EAA8EBB8EA7019601688D06
:1030C000798D8A8D9B8D0E94F232688B798B8A8BE9
:1030D0009B8B2C8D3D8D4E8D5F8D6C897D898E896E
:1030E0009F890E94F2326C8B7D8B8E8B9F8BDF9140
:1030F000CF91FF90EF90DF90CF90BF90AF909F90D7
:103100008F90089581E088A7E4CF90E0683028F49C
:10311000E62FF0E0E55BFE4F9081FA01E80FF11D2C
:1031200082A1982381E009F480E00895663040F49C
:103130006230B8F4662359F0613069F080E0089598
:10314000663069F06730D1F7813059F402C08111DF
:1031500008C080EF0895811104C08CEF089581307C
:10316000E1F38FE00895683008F057C0E62FF0E0F3
:10317000E354F74E90E00C944F35C518D118DA1887
:10318000E318EC18F518FE180719FA01E80FF91FF3
:1031900082A1805882A3211140C08FEFFA0181A73C
:1031A0000895FA01E80FF91F82A1805482A3222317
:1031B000A1F30895FA01E80FF91F82A1805282A3BA
:1031C000222359F30895FA01E80FF91F82A18051D3
:1031D00082A3222311F30895FA01E80FF91F82A1B7
:1031E000885082A32223C9F20895FA01E80FF91F3B
:1031F00082A1845082A3222381F20895FA01E80F6C
:10320000F91F82A1825082A3222339F20895FA0184
:10321000E80FF91F82A18150BDCF0895FF920F934F
:103220001F93CF93DF93463009F075C0E901162F45
:10323000082F4DEEF42EF60E87E08F15A0F0A901B1
:103240006F2D80E00E948518882369F0202FAE0141
:103250006F2D80E00E94B31881E0DF91CF911F9124
:103260000F91FF90089535EEF32EF10E87E08F1544
:1032700060F0AE016F2D81E00E948518882329F04F
:10328000202FAE016F2D81E0E5CF2AECF22EF10E5A
:1032900087E08F1560F0AE016F2D82E00E948518E7
:1032A000882329F0202FAE016F2D82E0D3CF92EC3E
:1032B000F92EF10E87E08F1560F0AE016F2D83E0DF
:1032C0000E948518882329F0202FAE016F2D83E0FE
:1032D000C1CF87EAF82EF10E87E08F1560F0AE01BE
:1032E0006F2D84E00E948518882329F0202FAE01DD
:1032F0006F2D84E0AFCF1156183068F4AE01612F06
:1033000085E00E948518882309F4A7CF202FAE01FD
:10331000612F85E09FCF80E0A0CFFC0110929B0140
:10332000BC0144E090E030E020E0DB01A20FB31FDD
:1033300014968C918F3F19F086300CF49F5F2F5FAD
:103340003F4F2630310589F741506A5F7F4F411169
:10335000EACF90939B0196959695969596AB089596
:10336000DB019AE0499FA00DB11D112416966C91C6
:103370001697861708F454C070E0282F30E0CB0170
:103380000796821793070CF44BC0442309F445C0F9
:1033900011968C911197E0E290E28130A9F0809132
:1033A000A6019AEF980F973048F08251873030F09D
:1033B0009091A7018091B301891778F59091A901A7
:1033C0009295990F907EE0E08091A801811102C052
:1033D000442309F112968C911297261B370B40E675
:1033E000849F200D311D11244C9188E0489FA0013D
:1033F0001124240F351F13964C9188E0489FA0019B
:103400001124240F351F290F311DE20FF32FF11D59
:10341000EB58FB4E4491842F0895E0E090E0D4CF28
:1034200040E0F9CF9F92AF92BF92CF92DF92EF929E
:10343000FF920F931F93CF93DF93982EB42EA52E58
:10344000C42FD52FD12CC12C062F10E088E0E82EF8
:10345000F12C8885082E000C990B80179107F1F448
:103460004C2D6B2D7A2D892D0E94B0192F8101C012
:10347000880F2A95EAF7D82AC3942A9655E0C512F0
:10348000E8CF8D2DDF91CF911F910F91FF90EF909D
:10349000DF90CF90BF90AF909F900895019608174E
:1034A000190751F78F81882339F34C2D6B2D7A2D15
:1034B000892D0E94B01990E02F81A701421B51096C
:1034C00002C0959587954A95E2F7D5CF811109C03D
:1034D00070E090E080E00E941D1688B18F7388B97B
:1034E000089540E02FEF30E0F901E81BF109CF012A
:1034F000461799F3479A469820E02817190634F49E
:10350000F5E0FA95F1F700002F5FF7CF469A47985C
:1035100020E02817190634F435E03A95F1F7000059
:103520002F5FF7CF4F5FE4CF68E08CED0E94661A03
:1035300064E088EC0C94661A2F923F924F925F924F
:103540006F927F928F929F92AF92BF92CF92DF92B3
:10355000EF92FF920F931F93CF93DF93CDB7DEB718
:1035600029970FB6F894DEBF0FBECDBF982E6B0122
:10357000E12C66E0B62E6E2D669570E090E080E05E
:103580000E940D3420E030E040E850E40E94F23226
:103590000E94DC336987862F90E08C01045011096A
:1035A00026E0000F111F2A95E1F730E2F32E46ECDA
:1035B000842E801A9C01990F440B550B2C833D835C
:1035C0004E835F835CEF252E33243A94201A310A10
:1035D00091103DC139E53F1508F400C149854730D8
:1035E00041F455E35F1528F480910101F81608F4C1
:1035F0005FC0A12C9091A2018091A101E985E530E5
:1036000009F059C08CED8F0D863008F06AC0F101C9
:10361000E00FF11F93300CF092E09B9DE00DF11D47
:103620001124E356FA4F24912887E0919F01F091ED
:10363000A001E00FF11FE155FA4F54915B83F601B1
:10364000408051806280738020E030E0A901C30196
:10365000B2010E94BD3420E030E040E05FE387FD2E
:1036600042C0C301B2010E94F2320E94D533605EB3
:103670006A83F601448055806680778020E030E0E0
:10368000A901C301B2010E94BD3420E030E040E056
:103690005FE387FD2DC0C301B2010E94F2320E9498
:1036A000D533605E6983F985F43038F580E044C035
:1036B00080E4A82E9FCF3985363099F49CED9F0D7C
:1036C000963078F483300CF082E0F101E00FF11FC6
:1036D0008B9DE00DF11D1124E557FA4F4491488769
:1036E000A4CF1886A2CFC301B2010E94F132BDCF90
:1036F000C301B2010E94F132D2CF6981669566950D
:10370000669570E090E080E00E940D342B013C0152
:103710006C817D818E819F810E940D349B01AC0163
:10372000C301B2010E945E338111C0CFFA81FF1242
:10373000BDCF89810E94BB17EB812885E22BAE2A81
:103740006A2D682B8E2D0E94A41789830E94421631
:1037500089810E944216F3940F5F1F4F80E6F81292
:1037600037CFE39498E0E91206CF80919F019091C2
:10377000A00181159140C9F480918E018F5F8093E3
:103780008E01823090F064E181E00E94661A64E16B
:1037900084E10E94661A64E181E00E94661A109238
:1037A000A00110929F0110928E0129960FB6F894F5
:1037B000DEBF0FBECDBFDF91CF911F910F91FF9064
:1037C000EF90DF90CF90BF90AF909F908F907F90C1
:1037D0006F905F904F903F902F900895E82DE00FED
:1037E00039853530F9F020F4343089F060E0AACF23
:1037F0004985463009F14730C9F78091A401F0E0CE
:103800008B9DE00DF11D1124E155F84F09C0809109
:103810000201F0E08B9DE00DF11D1124E35DF74FF7
:10382000649190CF80910201F0E08B9DE00DF11D3D
:103830001124E15FF74FF4CF8091A401F0E05985A6
:10384000859FE00DF11D1124E152F84FE9CFF801F9
:10385000E55BF74FE5CF4F925F926F927F928F9229
:103860009F92AF92BF92CF92DF92EF92FF920F930F
:103870001F93CF93DF932B013C0149015A0178013B
:10388000C8010E94C91720E030E0A901C301B201BC
:103890000E94BD3420E030E040E05FE387FD5AC085
:1038A000C301B2010E94F2320E94D533162F20E0EC
:1038B00030E0A901C501B4010E94BD3420E030E030
:1038C00040E05FE387FD4BC0C501B4010E94F232C6
:1038D0000E94D533D62E212F30E0E62FE695E695CF
:1038E000E69580E4E89FE0011124C20FD31F145035
:1038F000163008F077C085EF8D0D843008F05EC07B
:10390000C090A2018901045011098D2D0E94BB179E
:10391000C1102AC003561A4FF8010491082309F078
:1039200082C0FE01E155FA4FE491E82381E009F4F9
:1039300037C0DF91CF911F910F91FF90EF90DF90F3
:10394000CF90BF90AF909F908F907F906F905F903F
:103950004F900895C301B2010E94F132A5CFC50175
:10396000B4010E94F132B4CF0B571A4FF801049101
:10397000082331F4FE01E155FA4FE491E82381F088
:10398000F3E0CF1679F080E090E0A0E0B0E4F7013A
:10399000808F918FA28FB38F6CE084E10E94661AB2
:1039A00080E0C7CF80E090E0A0E8BFE3F701808F20
:1039B000918FA28FB38F66E081E0F0CF8FEE8D0DF7
:1039C000843080F4C090A1018901045011098D2D2B
:1039D0000E94BB17C11003C005571A4F9DCF015855
:1039E0001A4FC4CF205E3F4F80910101821713060A
:1039F00071F06CF020E030E040EF51E4F7016481B9
:103A00007581868197810E945E33882361F0C1555C
:103A1000DA4FFE01C4918D2D0E94BB17C82381E0AF
:103A200009F087CFBDCF81E084CF2F923F924F9294
:103A30005F926F927F928F929F92AF92BF92CF923E
:103A4000DF92EF92FF920F931F93CF93DF9300D0FB
:103A500000D000D0CDB7DEB7882E8B01512C412C81
:103A6000312C212CD22CF12CE12C1E8292012F53CF
:103A7000304E3C832B8376E0972EEEE0CE2E8110E5
:103A80001DC3809199018111B5C13E8133513983A4
:103A9000383008F06BC146E0D41268C1A801632F2A
:103AA0000E948518882321F0698180E00E94961881
:103AB000D8019896EC91BE81EB0FE7FDE058E40D3C
:103AC000F52DF11DE455FF4F9491909520919E01A5
:103AD000E5E02E9F9001112421503109A701421BDE
:103AE000530B141615060CF487C157E0D51284C188
:103AF000F701E455FB4F7490892B90910001F70179
:103B0000E91BF109ED30F10508F085C197E0D91204
:103B100082C190919C01911171C1E554FB4FA49118
:103B2000A9838729D8012C91283809F476C1D110AE
:103B300074C1022E000C330BE216F3060CF46DC1B7
:103B4000A7014E505109241735070CF466C1F7013F
:103B5000E21BF30B11969C919C9DE00DF11D11242D
:103B6000E75DFA4F74903981382BF80123A9FE8163
:103B7000F21708F054C11D82732AD8019A968C91CD
:103B8000BE81B8132FC2F80131A5832F032E000C7C
:103B9000990B2816390609F025C237FD23C293A5D3
:103BA00081E0911180E0D8019B968C939B979111B5
:103BB00003C0315099963C93BE81B21708F494C06B
:103BC000E22FF0E0FA83E9839F012C5A3F4F2E1534
:103BD0003F050CF489C0D8019996AC909997AA0C2E
:103BE000BB0890E00196A80EB91EA501440F551F11
:103BF000440F551FD4968C9190E09C0163E0220FF6
:103C0000331F6A95E1F7421753070CF46DC0205E2D
:103C10003F4F241735070CF467C0880F991FA81A67
:103C2000B90AB501B7FE02C06F5F7F4F7595679502
:103C3000072E000C880B990B0E940D3420E030E019
:103C400040E05FE3BFEFAB16BB060CF4C5C10E94BA
:103C5000F2320E94D533662E5701E981FA81AE1AFD
:103C6000BF0AC5016EE070E00E943B35072E000CD4
:103C7000880B990B0E940D3420E030E040E05FE3B8
:103C8000F3EFAF16FFEFBF060CF4A9C10E94F232AA
:103C90000E94D53367FC18C2663034F523E0261540
:103CA0001CF1862D660C990B67FD60E0989E500113
:103CB000999EB00C1124A00EB11EA60EB11C67FD7A
:103CC000BA94D50114968C91863070F46AE082E340
:103CD0000E94661A28E0F5012483EFEFD801999637
:103CE000EC93C8010E948D19D80199968C919997EF
:103CF000811123C09A962C919A9730E08C91082ECE
:103D0000000C990B28173907C4F00E9682179307F9
:103D1000A4F0BB24B39461E08B2D0E94661AB39487
:103D2000B4E6BB12F8CF80919E01833018F48F5F08
:103D300080939E0128E8F8012083D8019B96EC919E
:103D4000F0E0E358FA4F9491BD81B729B983F801A7
:103D50002381822F86958D1147C18281FE81F813C0
:103D600043C18FE020FF41C180EF3FC15E815B51C5
:103D70005983583070F496E0D9120BC0A8016981BC
:103D800081E00E948518882309F492CE698181E040
:103D90008DCEAE81A653A983A83038F4B6E0DB12ED
:103DA00004C0A8016A2F82E07BCEEE81EE53E98346
:103DB000E83038F4F6E0DF1204C0A8016E2F83E08B
:103DC000E0CF2E8129552983283038F436E0D312EC
:103DD00004C0A801622F84E063CE4E81415649831E
:103DE000483008F065CE56E0D51262CEA801698150
:103DF00085E0C7CF80E05CCE712C7ECED8011196D5
:103E00009C91BCE09B9FE00DF11D1124E554FB4FFC
:103E10002491298386CE198284CE712CA4CED80118
:103E2000D4964C91D41608F4A6CEC701821B9109F2
:103E30006EE070E00E943B35F80166A7AD2DA41B33
:103E4000A7A7663008F097CEA53008F094CEB5A8A5
:103E50007727B1102AC0C8019A9E800D911D1124A8
:103E6000680F791FDB0114969C9198306CF484A53F
:103E70008C9D802D11249F3F09F47DCEEE81E21BA5
:103E8000EE3020F0EE50FCCF80E0F8CFF0E0BC2D1B
:103E90009B02E00DF11D1124E80FF11D87FDFA953D
:103EA000EB52FB4F44914D8367CEA11129C0600FA7
:103EB000711FDB0114969C9198306CF484A58C9D45
:103EC000802D11249F3F09F456CEEE81E21BEE3087
:103ED00020F0EE50FCCF80E0F8CFF0E04C2D9402C3
:103EE000E00DF11D1124E80FF11D87FDFA95EB524D
:103EF000FB4F549101C0550FBA94EAF75D833CCE55
:103F0000B0E0AD0141505109949EC001959E900DC5
:103F10001124800F911FFC01E60FF71F9481983048
:103F20004CF4F80184A58C9D802D11249F3F19F439
:103F3000198220C080E0EE81E21BEE3010F0EE50DE
:103F4000FCCFF0E04C2D9402E00DF11D1124E80FA0
:103F5000F11D87FDFA95EB52FB4FE4918E2F90E017
:103F600048E050E04B19510902C0959587954A9554
:103F7000E2F789839A9EC0019B9E900D1124800FC9
:103F8000911F680F791FDB0114969C9198304CF4B7
:103F9000F80184A58C9D802D11249F3F19F4E0E049
:103FA00018C080E0EE81E21BEE3010F0EE50FCCF46
:103FB000F0E04C2D9402E00DF11D1124E80FF11DED
:103FC00087FDFA95EB52FB4FE49101C0EE0FBA94D6
:103FD000EAF759815E2B92CF0E94F1323ACE0E94CD
:103FE000F13256CE90E0B0CE80E02981292B822B91
:103FF0000E9442163E813F5F3E834FEFE41AF40A6F
:10400000303809F03CCD81100DC0809199018111AB
:1040100009C09801D80199964C9199979A966C91FC
:104020000E940E19BFEF2B1A3B0AE0E84E0E511CFE
:10403000F8E02F16310409F015CD811026C0D80103
:10404000D4962C91D497D0963C91D09785E090E06F
:10405000831B910928171906C4F0809199018130BA
:10406000A1F092961C92929793961C929397949695
:104070001C92949795961C92959796961C9296975B
:1040800097961C9281E08093990126960FB6F8943A
:10409000DEBF0FBECDBFDF91CF911F910F91FF907B
:1040A000EF90DF90CF90BF90AF909F908F907F90D8
:1040B0006F905F904F903F902F900895EB81FC811F
:1040C000EE0DFF1D849194CF612C66300CF4E9CD88
:1040D0000BCE0C9478321F920F920FB60F921124D0
:1040E0008F939F938091E1009091E100937F909353
:1040F000E10083FF0FC01092E90091E09093EB0084
:104100001092EC0092E39093ED001092CB0198E0B6
:104110009093F00082FF22C093E09093E900909189
:10412000F200992319F09AE39093E8009091BC0172
:10413000992341F09091BC0191509093BC01911151
:1041400001C05D9A9091CA01992341F09091CA01F2
:1041500091509093CA01911101C0289A84FF18C010
:104160008091E2008E7E81608093E2008091E10088
:104170008F7E8093E1008091BD018E7E806180936F
:10418000BD019F918F910F900FBE0F901F901895BA
:1041900080FFF7CF8091E2008E7E80618093E20005
:1041A0008091E1008E7E8093E1008091BD018E7E42
:1041B0008160E5CF1F920F920FB60F921124CF921C
:1041C000DF92EF92FF920F931F932F933F934F93A2
:1041D0005F936F937F938F939F93AF93BF93EF936F
:1041E000FF93CF93DF93CDB7DEB76C97DEBFCDBF24
:1041F0001092E9008091E80083FF25C068E0CE01BD
:1042000045960E94331582EF8093E8008D8987FFE1
:1042100039C09091E80090FFFCCF982F907609F07C
:1042200034C19E894F89588D2F89F88C911131C0E6
:10423000803861F58091BB018093F1001092F1000C
:104240008EEF8093E8006C960FB6F894DEBF0FBE39
:10425000CDBFDF91CF91FF91EF91BF91AF919F9132
:104260008F917F916F915F914F913F912F911F910E
:104270000F91FF90EF90DF90CF900F900FBE0F90B7
:104280001F9018959EEF9093E800C7CF1092F10011
:10429000D5CF913059F48111D3CF4130510581F6FA
:1042A0008091BB018D7F8093BB01CACF933049F4CD
:1042B0008111C6CF4130510519F68091BB01826052
:1042C000F2CF953041F48091E80080FFFCCF206868
:1042D0002093E300B5CF963009F0A9C00B8D1C8D5B
:1042E00022E01092E9001092B9011092B801F21286
:1042F0002EC01092B7011092B6010E9402151F82C3
:1043000099E09983FA8291E09E8390EA98879AEFE8
:1043100099872091B8013091B901275F3F4F3C83C5
:104320002B838D831092E9001092B9011092B8018D
:104330001093B7010093B60149E050E0BE016F5FF2
:104340007F4F80E00E94DC140E94021579CF109309
:10435000B7010093B6010E941914DC0112960D9169
:104360001C910115110509F451C1D801ED91FC9181
:104370000480F581E02DBE016B5E7F4FC801099579
:10438000009709F03EC1F80100851185EACFF3E0FE
:10439000FF120EC08F89882309F440C0823061F477
:1043A00040E867E085E297E20E945623811148CFFA
:1043B00081E28093EB0047CF813029F440E86BE045
:1043C00089E197E2F1CF833099F70E941914DC015B
:1043D0001296ED90FC908E010F5F1F4F6801E11463
:1043E000F10479F0D701ED91FC910680F781E02D81
:1043F000B801C7010995080F111DF701E084F18488
:10440000EECFD8011C92F60101900020E9F7319718
:10441000BF016C197D0940E0C601C6CF63E077E2B9
:10442000FB01449150E080E80E94DC1409CF9730F2
:1044300009F4BECF983021F481E08093F10000CFE1
:10444000993009F0FDCE837009F0B2CFECE5F1E0D0
:1044500081E031E096E32191222371F08093E9001D
:104460003093EB00DF0111972C912093EC00909397
:10447000ED008F5F873079F78EE78093EA00109226
:10448000EA008F898093CB01DBCE8B8D9C8D1092BF
:10449000E9001092B9011092B8019093B70180938E
:1044A000B601898D811192C08E899D89913A49F416
:1044B000813209F07DCF47E050E067E071E080E0B5
:1044C000B3CF913209F074CF833269F48F89988D1C
:1044D000B0E0A0E08093030190930401A093050154
:1044E000B0930601ADCE803269F48091E80082FF7E
:1044F000FCCF67E087E091E00E9433158BEF80935B
:10450000E8009ECE823209F09BCE8F8980930E0107
:10451000EEEFFFE7859194918B3F9C4D51F1E0E0E8
:10452000F8E08091070190910801A0910901B091F4
:104530000A01803B9440A105B105F1F480910E0180
:1045400080FD1AC0EE3F8AE0F80789F587E797E714
:1045500091838083809160008093BA0188E19BE021
:104560000FB6F894A895809360000FBE90936000FA
:1045700067CEEEEFFAE0D5CF8081918187379747FC
:1045800009F05ECEA89580916000886180936000FC
:104590008091BA0180936000EE3F2AE0F20789F033
:1045A0008091FE0A9091FF0A9183808349CE808199
:1045B00091818737980751F29093FF0A8093FE0A02
:1045C000C5CF1092FF0A1092FE0A3ACE0E9419142B
:1045D000DC0112960D911C910115110509F4E8CE2C
:1045E000D801ED91FC910190F081E02DBE016B5E50
:1045F0007F4FC8010995811123CEF80100851185EF
:10460000EBCF181619060CF41BCED2CEF1E0FF1238
:10461000BECE67E077E204CF0F920FB68F939F93E1
:10462000EF93FF93809190018D5F8D3708F08D5748
:1046300080939001E1E9F1E080818E4F8083918148
:104640009F4F918382818F4F828383818F4F83839A
:10465000E5E9F1E080818F5F808381818F4F8183E5
:1046600082818F4F828383818F4F83838FB18F604D
:1046700066991C9B88278F3681F480918F01981B47
:10468000963068F0E0E0F8E087E78083818388E196
:1046900080936000F0936000FFCF90938F01FF91B3
:1046A000EF919F918F910FBE0F901895EF92FF920F
:1046B0000F931F93CF93DF93F82E192FE62E042F1D
:1046C00081E0860F880F0E94AE1483E00E94AE1432
:1046D000CF2DD12FEC0EFD2EF11CCE15DF05B9F03C
:1046E00007FF13C0FE0184910E94AE14182F80E0D2
:1046F0000E94AE14812321968111EFCFDF91CF91DB
:104700001F910F91FF90EF9008958881EDCF81E088
:10471000F5CF0F931F93CF93DF938C0181E090E04F
:104720000E94692080FF32C08AE090E00E946920E8
:104730009FEF980F9E3F50F522E330E0D80150964E
:104740003C932E931F9728E330E052963C932E9390
:104750005197CBE0D0E0D801ED91FC910190F08130
:10476000E02D682FC8010995CE010E94692021968D
:10477000C131D10581F780E00E94C21388EE93E039
:10478000DF91CF911F910F910C946E15DF91CF9116
:104790001F910F91089504970C948923ECECF5E098
:1047A0001382128288EE93E0A0E0B0E084839583C8
:1047B000A683B78386E691E0918380838FEF9FEF96
:1047C00095878487ECE1F6E01382128211861286C7
:1047D00080E1838710861782158688E791E09183B0
:1047E000808386E891E095838483108A1786128AF5
:1047F000118A81E0838B148A858B168A0895CDB740
:10480000DEB7C254D109DEBFCDBF789483E084BD4A
:1048100083E085BD81E080936E00E1E8F0E083E015
:104820008083E0E881E08083E1E983E08083E0E960
:1048300081E08083E1EC87E08083E3EC81E08083AA
:10484000E0EC82E08083E2EC81E08083EAE787E0CD
:104850008083806880831092CB011092BB011092FC
:10486000BD018091D70081608093D70080EA80935A
:10487000D80089B5806189BD89B5826089BD09B4D8
:1048800000FEFDCF81E090E00E946E158091D8007F
:104890008F7C80618093D8008091E000807F80933E
:1048A000E0008091E1008E7E8093E1008DE08093B6
:1048B000E200559A209A81EC80937C0081E785B9CB
:1048C00087E684B985E38BB98FE38AB9769A6E98C7
:1048D00080EF81BB10BA80E58CBD11E01DBD85E085
:1048E0000E943716599A85E00E9437165C98EBEFC4
:1048F000FEE085910E944216E530D9F75C9A81E886
:10490000809364001093650081E00E94C2130E94AE
:104910003A1687FF12C05C9885EA0E9442165C9A9C
:104920002E9858982D98809164008062809364003E
:1049300081E083BF889513BEFCCF0E943A1682FFA8
:1049400045C02D980E943A1684788438D9F40E9484
:10495000351688EC0E943716589882E090E00E9445
:1049600078328F3F29F06FEF82E090E00E94803232
:1049700084EF91E00E946E15589A0E943A1684784E
:104980008438D9F30E943A1684718431D9F40E9494
:10499000351688EC0E9437162E9882E090E00E942F
:1049A0007832882329F060E082E090E00E94803233
:1049B00084EF91E00E946E152E9A0E943A1684713F
:1049C0008431D9F388EC0E943716B7CF0E94351690
:1049D00082E090E00E946920882309F46CC13E9A2D
:1049E000579A81E090E00E946920282F2470D22EEF
:1049F00081FF0CC021112E9801EF1FEF0E943A1683
:104A000086FF5CC12E9A589A0E94351682E30E9456
:104A100037160E943A168111F9CFF12C0E943A16EE
:104A200086FF0DC00E943A1686FDFCCF23E0F216E9
:104A300009F4BAC1F39467E38CE30E94661A0E94FA
:104A40003A1685FF0CC00E943A1685FDFCCF67E33D
:104A500082E0FF2009F4AEC10E94661AFA9432E0A7
:104A6000F31609F4BDC143E0F41609F4A5C151E001
:104A7000F51609F4ACC101EC13E227E040E861E06F
:104A800080E00E945C17F12C0E943A1683FD04C05E
:104A90000E943A1682FFC2CF0E943A1683FDFCCFD5
:104AA0000E943A1682FDF8CF12E001E06AE0812F01
:104AB0000E94661A64E1802F811B0E94661A1F5FA4
:104AC0001E33A1F762E0F61609F464C383E0F8161A
:104AD00009F4C6C791E0F912A0CF88E3E3E1F1E061
:104AE000DE01119601900D928A95E1F702E0B9E09E
:104AF0002B2E312C83E080939E0110929D01BE01EC
:104B00006F5F7F4F81E00E94151D0E943A1683FD62
:104B100004C00E943A1682FFF2CF6DE784E60E943D
:104B2000661A6DE782E30E94661AAFEFB9E6E8E124
:104B3000A150B040E040E1F700C0000010929901A0
:104B400010929A0188E180939B01B0919D01B80277
:104B5000C0011124AE014F5F5F4FA4E030E020E0C0
:104B6000BC016B5F704FFB01E20FF31F1491FA0160
:104B7000E20FF31F14832F5F3F4F2630310599F763
:104B8000A15006964A5F5F4FA111E8CF8FEF8BA32C
:104B90008CA38DA38EA38FA388A790E19B839C8376
:104BA00098E899838AA71BA61CA61DA61EA61FA669
:104BB00018AA83E089AB1AAA8CE28BAB84E18CAB98
:104BC000B43008F413C181E08DAB1EAA88E08FAB2E
:104BD00081E088AF1A82CE0101960E948D1988E388
:104BE0008093000189A716E310929C01BE016F5FBC
:104BF0007F4F80E00E94151D4FEF53ED60E3415061
:104C000050406040E1F700C00000F12CEE24E39436
:104C1000F6E0DF2EAEE0CA2E80919B018111E8C044
:104C20006FEF8EE60E94661A8FEF93EFA1E081503E
:104C30009040A040E1F700C000006FEF82E80E94C2
:104C4000661ABFEFE3EFF1E0B150E040F040E1F76A
:104C500000C000006FEF84E60E94661A2FEF33EF6A
:104C600041E0215030404040E1F700C000006BE9D6
:104C700081E00E94661A5FEF69EF80E0515060406A
:104C80008040E1F700C000006FEF8CE30E94661ADD
:104C90006FEF8CE30E94661A80919D01893018F4B1
:104CA0008F5F80939D01FFEF23ED30E3F1502040B3
:104CB0003040E1F741CF3E98579893CEDD2029F060
:104CC0000430110511F42E9A589881E00E94C21305
:104CD000302F3770C32E980183E0359527958A953C
:104CE000E1F7C9019695982F882797958795845362
:104CF0009E4F50E040E02E3F6FEF360781F17C0180
:104D0000A4E9EA0EF11CDC0170E060E0FA01E55B69
:104D1000F14F5F01F501E60FF71FE491F0E03F016D
:104D20000C2C02C0660C771C0A94E2F72F3F320766
:104D300039F054969C905497962854969C92549788
:104D4000CC2021F0F7019080972890826F5F7F4FF1
:104D5000FFEFEF1AFF0A119668357105D9F62F5F3C
:104D60003F4F80589F4F485A5F4F403B510509F0D5
:104D7000C2CF80E00E94C2138FE00E9437160F5FFF
:104D80001F4F0931110509F039CEDD2011F0589A75
:104D90002D9880E991E00E946E150E9435168CE1F5
:104DA00096E00E94892332CE67E38CE30E94661A64
:104DB000F12C45CE0E94661A01EC1DE126E040E888
:104DC00062E080E00E945C1713E0F12E5DCE01EC02
:104DD0001FE128E040E860E080E00E945C1754CECC
:104DE00070E060E081E00E949C1A4ECE1DAAEDCEDC
:104DF00089A990E001962DA9820F911D079721F4B2
:104E0000F11002C0E0929C0180919A0190919D0165
:104E10009101291B31098217130611F00CF0C0C053
:104E20008F5F80939A01809100016C2D0E942F3535
:104E30008C5C89A7BE016F5F7F4F80E00E94151DCB
:104E400081E09A81911180E08A839E012B5F3F4F20
:104E500094E0F90140E080818B3014F0AFEFA08343
:104E60008191883024F0DF0111978F5F8C934F5F21
:104E7000463089F791502A5F3F4F9111EACF4C811C
:104E80004031E9F06B8182EF840F823060F48091D1
:104E90000001681740F090E00E966817190609F0B7
:104EA00014F4E0929C0146959E012F5F3F4F81E0F4
:104EB0000E940E19882309F4AFC0B0E1BC83898138
:104EC000883861F082508983883809F4A9C00E942B
:104ED000941A89818D3E14F488E889838CA98A51BB
:104EE000833040F48DA9823029F48EA9843011F4E6
:104EF0008FE78983E12FF0E020910001822F90E07D
:104F0000AC014E5F5F4F4E175F075CF4AF01481B6B
:104F1000590BCA0163E070E00E943B35260F2093D5
:104F2000000120910001822F90E0AC014250510914
:104F3000E417F5074CF48E1B9F0B6DEF7FEF0E947B
:104F40003B35260F2093000180919C01813009F4AC
:104F5000DBC08EA59FA9891708F067C08F5F8EA759
:104F60000E943A1685FF03C0163008F016500E94C2
:104F70003A1686FF03C01C3608F41A5F0E943A16E0
:104F800083FFB1C0023009F0B2C064E088EC0E9437
:104F9000661ADAA6809100018A5F8BA700E0A7C09D
:104FA00010929A010E9420324B015C010E94203233
:104FB0002B013C018C81803109F035CFC501B40152
:104FC00023E030E040E050E00E948E32B62EC30174
:104FD000B20126E030E040E050E00E948E326630C0
:104FE00008F065E0E1E0F0E0EC0FFD1FDB9CE00D78
:104FF000F11D1124E60FF11D84818F3F09F413CFB9
:105000008CA9895F6C9D800D11248B838DA9B80EAE
:10501000BB0CB394BC8207CF8C818F5F8C834FCF46
:1050200061E080E00E94661A54CF83E089ABAE0154
:105030004F5F5F4F30E020E0FA01E20FF31F9689E7
:105040009F3F51F42F5F3F4F26303105A9F7815024
:10505000465051098F3F71F789AB9DA581E09111B1
:1050600080E08DA78981992399F0883861F00E94AA
:10507000941A8CA998AD913009F59BA9891768F409
:105080008E5F8CAB12C061E088EC0E94661AF1CF93
:10509000883869F761E084E6F8CF8EA9873048F454
:1050A0008C5F883020F48EAB18AE1EA659CF87E0F7
:1050B000FACF8DA98F5F8DAB1EAAF6CF9AA998174C
:1050C00010F48250DECF8EA9873040F48C5F883098
:1050D00018F48EABE8AEE9CF87E0FBCF8DA98F5FE8
:1050E0008DAB1EAAF7CF0E943A1682FD4BCF8AA540
:1050F0008F3F19F4023009F00F5F6AE170E080E041
:1051000090E00E941D1688CD61E080E50E94661A3D
:1051100061E084E60E94661AF3945DE15F1538F75A
:105120006FEF8BE49DE1615080409040E1F700C05B
:10513000000089A990E001962DA9820F911D079783
:1051400009F4D8CC80919E01882309F4D3CC8150F6
:1051500080939E0149CD6CE271E080E090E00E9476
:105160001D1605EF1FE026E049E462E086E30E9499
:105170005C1715E064E684E60E94661A64E681E046
:105180000E94661A1150B1F768EE73E080E090E07B
:105190000E941D161092A40185E08093020164EF25
:1051A00071E080E090E00E941D1670E060E081E018
:1051B0000E949C1A1FEF62E0812F0E94661A115014
:1051C000D1F762E0812F0E94661A1F5F1F3FC9F767
:1051D00068EE73E080E090E00E941D160E9420328D
:1051E0000E943A1684FD14C00E943A1687FD10C032
:1051F0000E943A1685FD0CC00E943A1686FD08C032
:105200000E943A1682FD04C00E943A1683FFE6CF40
:1052100001E410E125E045E463E08BE30E945C17C4
:1052200068EE73E080E090E00E941D16809102011C
:10523000882309F490CF815080930201FE013996B2
:1052400087E2DF011D928A95E9F720E030E048E32C
:1052500052E429833A834B835C8380E090E0A0EFA3
:10526000B1E48D839E83AF83B887298B3A8B4B8BB8
:105270005C8B8D8B9E8BAF8BB88F212C332433941A
:10528000CE0101960E941F182D893E894F89588DA5
:1052900069897A898B899C898E010F5F1F4F0E94D3
:1052A0002B1C882309F45AC3C8010E94C917C9805E
:1052B000DA80EB80FC80C98ADA8AEB8AFC8A6D810D
:1052C0007E818F8198856D8B7E8B8F8B988F0985E2
:1052D0001A852B853C85098F1A8F2B8F3C8F0D8566
:1052E0001E852F8538890D8F1E8F2F8F38A320E0C4
:1052F00030E040EF51E40E945E33811112C220E0A1
:1053000030E04CE352E4C701B6010E945E33181648
:105310000CF407C28E010F5F1F4F20E030E040EF1A
:1053200051E4C701B6010E942B1C811172C1CE014C
:1053300001960E941F184D805E806F807884898955
:105340009A89AB89BC8923968CAF9DAFAEAFBFAFB6
:105350002397CD88DE88EF88F88C898C9A8CAB8C6B
:10536000BC8C2D8D3E8D4F8D58A12BAF3CAF4DAFDA
:105370005EAF20E030E040EE50E4C301B2010E9495
:105380005E3387FD23C020E030E040EC51E4C301F0
:10539000B2010E94BD341816CCF049805A806B804F
:1053A0007C8020E030E048EF51E4C301B2010E946C
:1053B0005E3387FD0BC020E030E040E452E4C301DF
:1053C000B2010E94BD3418160CF022C223968CAD97
:1053D0009DADAEADBFAD239789839A83AB83BC836C
:1053E000CD82DE82EF82F88689869A86AB86BC867D
:1053F0002BAD3CAD4DAD5EAD2D873E874F87588BB5
:1054000020E030E048EE51E4C701B6010E945E336F
:1054100087FF04C066E081E00E94661ACD8CDE8CB6
:10542000EF8CF8A02AE939E949E15EE3C701B6014A
:105430000E94BD3487FD0CC02DEC3CEC4CEC5DE3D0
:10544000C701B6010E94F1326D8F7E8F8F8F98A3B6
:10545000CD8CDE8CEF8CF8A02AE939E949E15EEBCE
:10546000C701B6010E945E33181664F02DEC3CECC7
:105470004CEC5DE3C701B6010E94F2326D8F7E8F66
:105480008F8F98A3C980DA80EB80FC8020E030E029
:1054900048EE51E46D817E818F8198850E94BD34F4
:1054A000181694F420E030E040EB51E4C701B60157
:1054B0000E94BD34181644F480E090E0A0EFB1E4FF
:1054C0008D839E83AF83B88720E030E0A901C701B8
:1054D000B6010E94BD3420E030E040E05FE387FD8C
:1054E0005EC2C701B6010E94F2320E94D533613319
:1054F0007105810591050CF463C0CD80DE80EF80DD
:10550000F88420E030E0A901C701B6010E94BD3453
:1055100020E030E040E05FE387FD46C2C701B6010E
:105520000E94F2320E94D5336E31710581059105DA
:1055300009F046C020E030E048E452E429833A8391
:105540004B835C8380E090E0A8EEB1E48D839E8382
:10555000AF83B8870E9420322AE030E040E050E07C
:105560000E948E320E940D3420E030E048EC52E47C
:105570000E9463339B01AC016DEC7CEC8CE49FE3F7
:105580000E94F13269877A878B879C870E9420323C
:105590002EE130E040E050E00E948E320E940D3457
:1055A00020E030E048EC52E40E94633320E030E039
:1055B00040E85FE30E94F1326D877E878F87988B8A
:1055C000BE016F5F7F4F80E00E949C1A63E070E035
:1055D00080E090E00E941D168091A3018111E9C135
:1055E00081E08093A301C980DA80EB80FC8020E019
:1055F00030E040E05FE3C701B6010E945E3387FF01
:10560000DBC112E366E0812F0E94661A1150D1F7C8
:105610000DCEC988DA88EB88FC8860910101615061
:10562000770B072E000C880B990B0E940D344B0151
:105630005C0120E030E040E052E4C701B6010E9486
:10564000F232A50194010E945E3387FF2BC010E067
:1056500020E030E040E052E4C701B6010E94F2329F
:105660009B01AC01C501B4010E94BD34181664F45D
:1056700020E030E040E85FE3C701B6010E94F2326B
:105680006B017C011F5FE4CFC98ADA8AEB8AFC8A4E
:10569000153040F080E090E0A0E0B0E4898F9A8F70
:1056A000AB8FBC8FC98CDA8CEB8CFC8C20E030E0AB
:1056B000A901C701B6010E945E3318160CF437CE5B
:1056C000F7FAF094F7F8F094C98EDA8EEB8EFC8E30
:1056D0002ECE89859A85AB85BC85898F9A8FAB8FB5
:1056E000BC8F8D859E85AF85B8898D8F9E8FAF8F3E
:1056F000B8A3CE0101960E941F182D893E894F89BB
:10570000588D69897A898B899C898E010F5F1F4F1B
:105710000E942B1C882309F40ECEF39437E0F31279
:1057200001C0F12C69817A818B819C81698B7A8B94
:105730008B8B9C8B0D811E812F8138850D8B1E8B51
:105740002F8B388FA6E0AF15A0F2EF2DF0E0E555D6
:10575000F44D0C944F35692BB22BB82BC62BCC2BA8
:10576000DA2BF12B89859A85AB85BC85B058B5CFEE
:1057700089859A85AB85BC85898F9A8FAB8FBC8FC5
:105780008D859E85AF85B889B058AFCF89859A85BC
:10579000AB85BC85B058F0CF8D859E85AF85B88927
:1057A000B058898F9A8FAB8FBC8F89859A85AB85CE
:1057B000BC85EACF20E030E040E85FE30E94F232AF
:1057C000698B7A8B8B8B9C8B2DEC3CEC4CE45EEBE9
:1057D000298F3A8F4B8F5C8F8DEC9CECACE4BEE351
:1057E00084CF20E030E040E85FE30E94F232698B32
:1057F0007A8B8B8B9C8B2DEC3CEC4CE45EEB298FF5
:105800003A8F4B8F5C8F2D8F3E8F4F8F58A371CF68
:1058100023968CAD9DADAEADBFAD239789839A83A2
:10582000AB83BC83CD82DE82EF82F88620E030E05D
:1058300040E051E4C501B4010E94C2346B017C0117
:10584000C98EDA8EEB8EFC8E20E030E040E051E431
:105850006BAD7CAD8DAD9EAD0E94C2344B015C0141
:105860008D8E9E8EAF8EB8A223E333E343EB5FE3CE
:10587000C701B6010E94BD34181644F483E393E3D4
:10588000A3EBBFE3898F9A8FAB8FBC8F23E333E306
:1058900043EB5FEB698D7A8D8B8D9C8D0E945E331F
:1058A00087FF08C083E393E3A3EBBFEB898F9A8F55
:1058B000AB8FBC8F23E333E343EB5FE3C501B4015C
:1058C0000E94BD34181644F483E393E3A3EBBFE3D3
:1058D0008D8F9E8FAF8FB8A323E333E343EB5FEB52
:1058E0006D8D7E8D8F8D98A10E945E3387FF08C0DD
:1058F00083E393E3A3EBBFEB8D8F9E8FAF8FB8A3B2
:10590000898D9A8DAB8DBC8D89879A87AB87BC8733
:105910008D8D9E8DAF8DB8A18D879E87AF87B88BFB
:105920003092A00120929F018091A401873020F441
:105930008F5F8093A40172CD80910201843018F4AE
:105940008F5F809302011092A4011CE366E0812F17
:105950000E94661A1C5E103FC9F760CD89899A893A
:10596000AB89BC8989839A83AB83BC838D899E89EB
:10597000AF89B88D8D839E83AF83B887898D9A8DCB
:10598000AB8DBC8D89879A87AB87BC878D8D9E8DAB
:10599000AF8DB8A18D879E87AF87B88B73CDC701B8
:1059A000B6010E94F132A1CDC701B6010E94F132C9
:1059B000B9CD1092A30117CE20E030E048EE51E4BB
:1059C0006D817E818F8198850E94BD3487FD3BC0AB
:1059D00020E030E040E951E4C701B6010E94BD3447
:1059E00087FD31C00E943A169091010184FF1DC0CD
:1059F000973318F09250909301010E943A169091BB
:105A0000A20187FF24C093301CF49F5F9093A201F2
:105A10000E943A169091A10184FF1DC093300CF0B2
:105A20002FCC9F5F9093A1012BCC9F53993018F4FA
:105A300038E430930101809101018834F0F6885FE9
:105A400080930101DACF48E440930101D6CF1916C3
:105A5000FCF69150DBCF19160CF012CC9150E2CF2E
:105A6000CE0101961C0182E3D1011D928A95E9F7CE
:105A7000FE01B996FAAFE9AF88EC8093B40183E0F8
:105A80008093B5011092A7011092A801EAEAF1E013
:105A90008FEF819321E0E33BF207D9F71092A50144
:105AA0001092A6018091B40186958093B301EAEA31
:105AB000F1E08FEF819331E0E33BF307D9F77FE724
:105AC000672E712C1092A9011B8280E48F8383E0E2
:105AD000898795E0988782E08E838D831C8281E0A0
