:020000040000FA
:100000000C94D9130C9401140C9401140C94011445
:100010000C9401140C9401140C9401140C9401140C
:100020000C9401140C9401140C94C81D0C94371EEC
:100030000C9401140C9401140C9401140C940114EC
:100040000C9401140C9401140C9401140C940114DC
:100050000C9401140C9401140C9401140C94692058
:100060000C9401140C9401140C9401140C940114BC
:100070000C9401140C9401140C9401140C940114AC
:100080000C9401140C9401140C9401140C9401149C
:100090000C9401140C9401140C9401140C9401148C
:1000A0000C9401140C9401140C94011401FF010030
:1000B0000100010001010101010100010101000134
:1000C0000101000101010002010100020902001CFE
:1000D0003EFEFEB61C04000000010100010000000D
:1000E00011011018383C7C7EFEFFFFFFFE7E7C3C39
:1000F000381810F0FCFEFEFFFFFFFFFFFFFFFFFFC1
:10010000FFFFFFFFFFFFFFFFFFFFFFFFFFFFFFFFFF
:10011000FFFFFFFFFFFFFFFFFF7F0F07070703033F
:100120000303030303030303038383C3436323A37F
:10013000539353B3236343C383830303030303032F
:1001400003030303030707070F7FFFFFFFFFFFFF03
:100150000703010101010101010101010101010187
:100160000101010101010101010101010307FFFE7C
:10017000FEFCF0000307070F0F0F0F0F0F0F0F0FFD
:100180000F0F0F0F0F0F0F0F0F0F0F0F0F0F0F0F7F
:100190000F0F0F0F0F070703010000000000000002
:1001A000000000000000FE03F955F4AAE54AD5AAB4
:1001B000952A152A150A050A04010103FE0000000C
:1001C00000000000000000000000010307070F0FFF
:1001D0000F0E0C0C0C0C0C0C0C0C0C0C0C0C0C0C5A
:1001E0000C0C0C0C0C0C0C0C0C0C0C0C0E0F0F074C
:1001F00007030000000000000000000000000000F5
:1002000000000000000000000000000000000000EE
:1002100000000000000000000000000080C04060FE
:1002200020B0509848AC57A053A5478A4F951F2A35
:100230007F0000000080408040A050A057AC48984C
:1002400050B0206040C080000000000000000000AE
:10025000000000000000000000000000000000009E
:10026000000000000000000000000000000000008E
:10027000000000000000000000000000000000007E
:10028000000000000000000000000000000000006E
:10029000000000000000000000000000FF00FE550C
:1002A000FDAAF952F5AAE50A050A050201020100B4
:1002B0000000FE55FDAAF952F5AAE50A050A050255
:1002C000010201000000FF0000000000000000002B
:1002D000000000000000000000000000000000001E
:1002E000000000000000000000000000000000000E
:1002F00000000000000000000000000000000000FE
:1003000000000000000000000000000000000000ED
:100310000000E030905848AC54A652AB55A854A900
:1003200051A253A5470A1F00804040A050A050A8EA
:1003300054A854A951A253A5470A1F00804040A0C9
:1003400050A050A854A855AB52A654AC4818103031
:10035000E0000000000000000000000000000000BD
:10036000000000000000000000000000000000008D
:10037000000000000000000000000000000000007D
:1003800000000000000000000000000000000080ED
:1003900080C07F003F557FAAFE54FDAAF9020102EA
:1003A00001000000000000003F557FAAFE54FDAA96
:1003B000F902010201000000000000003F557FAA81
:1003C000FE54FDAAF9020102010000000000000035
:1003D0007FC08080000000000000000000000000DE
:1003E000000000000000000000000000000000000D
:1003F00000000000000000000000000000000000FD
:100400000000000000000000F80CE456D2AB952973
:1004100054AA55AA55AA5428142911020700E050DD
:10042000D0A8942854AA55AA55AA542814291102D0
:100430000700E050D0A8942854AA55AA55AA5428D9
:10044000142911020700E050D0A8942854AA55AAF4
:1004500055AA5429152B1206040CF80000000000C0
:10046000000000000000000000000000000000008C
:10047000000000000000000000000000000000007C
:1004800000000000000000003F206F55DFAABF55AC
:100490007FAAFE00000000008080C04060206F55F1
:1004A000DFAABF557FAAFE00000000008080C04088
:1004B00060206F55DFAABF557FAAFE000000000034
:1004C0008080C04060206F55DFAABF557FAAFE0024
:1004D000000000008080C04060203F00000000005D
:1004E000000000000000000000000000000000000C
:1004F000000000090200983C6666CACE9400000025
:10050000010101010100000090386C4CD49CA8004E
:100510000000010101010100000094CECA66663CA2
:10052000980000000101010101000000A89CD44CCA
:100530006C38900000000101010101000009020077
:1005400078FCFEFAF2E478000000000101010000EE
:10055000000060F0F8E8E8D0600000000001010150
:100560000000000078FCFEFAF2E4780000000001D0
:1005700001010000000060F0F8E8E8D06000000031
:10058000000101010000000902001C3EFEFEB61C35
:10059000040000000101000100000000387CFCFCA8
:1005A0006C38080000000001000100000000041C7D
:1005B000B6FEFE3E1C00000000010001010000002C
:1005C00008386CFCFC7C38000000000100010000D1
:1005D0000009029864C2999935316A9400010202B7
:1005E00002020201009068C492B22A6254A800017B
:1005F00002020202020100946A31359999C264989C
:10060000000102020202020100A854622AB292C44E
:1006100068900001020202020201000902FC860346
:1006200001050D1B86FC000103020202030100F01C
:10063000980C0414142C98F0000103020202030128
:1006400000FC860301050D1B86FC0001030202026B
:10065000030100F0980C0414142C98F0000103021C
:10066000020203010009023EE3C1010149E33A0E1F
:100670000003020203020300007CC682020292C64B
:10068000741C0000030203020300000E3AE3490158
:1006900001C1E33E0000030203020203001C74C612
:1006A00092020282C67C0000030203020300000DD6
:1006B000011C36227B517D4D57456B22361C1C3662
:1006C000226B43557F55616B22361C1C36366F4DAD
:1006D0005D495D496B3A3E1CF0FCFE1F0703038138
:1006E000818181818181818101C1C101010101017A
:1006F00001010101010101010101010101010101EA
:100700000101010181818181818181010101010159
:1007100001010101010101010101010101018181C9
:100720000101010303071FFEFCF0000000000000B0
:100730000000FEFF030101010101010101010101AE
:100740000101010101010101010101010101010199
:1007500001010103FFFE0000FFFFFF000000000198
:100760000101BBFF6D01010000FEFE800076FEAEC0
:100770000406FEFC4800061EFCE0F07E0E02001897
:1007800018181000AAFFFFC9CCCFFF7300007C7CB3
:10079000F692D6DE7C0000FEFE4C06020602FFFF4B
:1007A000C6C20200000000FFFFFF000000000000C2
:1007B000000001FB20F800F800F8A8E800F820F895
:1007C00000B8A8E800F8888800F888F800F868B849
:1007D00000F8A888030100000F3F7FF8E0C0C08048
:1007E0008080808080808080808080808080808009
:1007F00080808080808080868683818080808080E9
:1008000080808080808080808080808080808080E8
:1008100080808080808080808080808080808080D8
:10082000808080C0C0E0787F3F0F0080C0C0C0F0F3
:10083000F83898989C0C4C4CDC9C9C98181C3C38C4
:100840003098187870303030F0F07060E0F0E0C030
:10085000C0800000000000000000F8FC0404E4E494
:100860002424A4242464E4E4E4E4E4E4E4E4E4E408
:10087000E4E4E4E4E4E4E4E4E4E4E4E4E4E4E4E438
:10088000E4E46424E4E42424A42424E4E4E42464E8
:10089000E4E4E4E4E4E40404FCF800000000000004
:1008A0000080C0E0E070383C3C96276787C140304C
:1008B000346662599983B334444E55D99AA3100CC7
:1008C000C4ED190806220C0C000000000000000016
:1008D0000FFFF880000000000000FFFF0000FFFF96
:1008E000C0C0FBFBF8FCFFC0C0FDFEFFE1C0DAC8E2
:1008F000C9FBFDC8D2CAC4EFDDD0CAD2C6FFFFFF14
:10090000FFF5801FFFFFC0C0DDC9C0E2FFFF0AC0C6
:10091000FFFFFFFFFFFF0000FFFF0000003CFEDFC6
:100920000F0721E1F898CCCCC5D3C98286890C0485
:100930000313162662290C031114060609090F0178
:1009400000000000000000000000000000000000A7
:1009500000000FFFF88080800000FFFF0000FFEF25
:100960000307EFEF3F1FCFEF0F1FFFFFFFFFC7C3CF
:100970009B933B7FFBFBB30393FBFB3F0743730757
:100980001FFFFF0303BB1303EFFBF37B0383FBF3A7
:10099000FFFFFFFFFFFF0000FFFF00000000033F1D
:1009A000FCC000033FFFFCCDEFFFFFFDDD9FFFFB21
:1009B000BBBBBFFFF776367FFFF88000000000006A
:1009C0000000000000000000000000000000C080E7
:1009D0001090606048CDC33300003F7F40404F4FD0
:1009E0004E4C4D4D4F4C4C4D4C4E4F4F4F4F4C4C31
:1009F0004D4C4C4F4F4F4F4C4C4F4F4C4E4F4F4E1A
:100A00004C4D4F4C4C4F4F4C4C4F4F4F4C4C4F4F0D
:100A10004F4F4F4F4F4F40407F3F0000C0C0C0E09E
:100A20007B7F1C800003038244068707030D0D0FA4
:100A30000783091B0F0F07233B3F7E780000000050
:100A40000000808080E030200C6478988432322C62
:100A5000CCC9999446731CC8000000000000000037
:100A60000000000000000000000000000000000086
:100A70000000000000000000000000000000000076
:100A80000000000000000000000000000000000066
:100A9000808080C0F070383C1E9E664703C1A03045
:100AA00020A665519AF332300C4769988A52222C5D
:100AB000C8E9191426721C0800000000000000009C
:100AC0007CFEDDD9B998FEF37130B8F1E06033F304
:100AD000E0ECE661E1E20301000101000100010137
:100AE0000000000000010100010100000001000100
:100AF00001010101000100020103010200030201E2
:100B000000020100000000000300010201030101D6
:100B100001010102F989F90101F90101E9A9B9010C
:100B200089A9F9013921F901B9A9E901F9A9E9016D
:100B300009E91901F9A9F901B9A9F90156AE56AAAD
:100B400056AE56AA05020902050205020020002041
:100B50000000200020000084008004008400800445
:100B6000B010501050105010B0F0808C818C80B0BC
:100B700084B080868D8B89868B89868080808080FA
:100B800080FFC3818181A19995A181818181A199F2
:100B900095A181818181A19995A1818181C3FFFF67
:100BA000C3818185BD858181A58199AD95A995A9CF
:100BB00095A995A995A995A995A995A995A995A945
:100BC00095A995A995A995A995A9B59981C3FFFF5F
:100BD000C38181BD958981A58181BD999999999993
:100BE0009999999999999999999999999999999975
:100BF000999999999999999999999999BD8181C347
:100C0000FF0D0200008080DCBEF9AB860000000012
:100C1000000305040300010F16120C000000000081
:100C2000F07CF2D68C8080000000000C12170C0DB6
:100C300002070F16120C00000000F83EF9B5E3E0C1
:100C4000A0800000000C12130E060001030504032F
:100C5000000018FE39F5A3E07CB490600000000CA1
:100C600013120E06010000000000001E3975B3606B
:100C7000B4182C24180000000000000C13120C0003
:100C80000000000000003C72F2ECC06830584830B0
:100C900000000000000000010E13120C0000000014
:100CA0000000E0F8E4AC180000000000000C121F87
:100CB000080B050F0F1F120C00000000E078E4CCB9
:100CC00098C0A0000000000C12170C0D02030504D0
:100CD000030000000080C070D898B0000000000041
:100CE00006090B070C0D02071F251800000B013425
:100CF0004E5E363208193D5E48300B0101030E0E80
:100D00000C08090B0E0E0C0B0300000080C0E0F075
:100D1000F83C1EFFFC1E8FC7E3FF7FBF5EAF571F6F
:100D20000F170B150A150A150A150303FF00FFFF1D
:100D300000FF0F000F0603FF3333CCCCFFFF33332C
:100D4000CCCCFF0F03030C0C0F0F010000040A0CA6
:100D50000A0C0A0C0A0C0E0400000E04E010080431
:100D600042FFA57329FE7CF8F0E0FF00210008FF98
:100D700094CEA5FFEFDEBD7BFF008440211F12193A
:100D8000143F7DFBF7EF03010000000000000000AE
:100D9000000001031A040000000080402010080435
:100DA00042FFA57329FE7CF8F0E0C080000000003F
:100DB000F804420110008400210008FF94CEA5FF32
:100DC000EFDEBD7BF7EFDFBE7CF8FF0008004200DE
:100DD00010008440211F1219143F7DFBF7EFDEBD88
:100DE0007BF7EFDEFF402110080402010000000045
:100DF0000000000000000103070F1F3E7DFBF01CF8
:100E000086E233D9E9EDE9EDE1EFE9EDE9EDE9ED70
:100E1000E9EDE1EFE9EDE9EDE9EDE9EDE1EFE9ED2E
:100E2000E9EDE9ED09ED010FE9EDE9EDE9EDE9EDB8
:100E3000E1EFE9EDE9EDE9EDE9EDE10FE94DFF085D
:100E4000AAEF00FFFFFFFFFFFFFFFFFFFFFFFFFF16
:100E5000FFFFFFFFFFFFFFFFFFFFFFFFFFFFFFFFA2
:100E6000FFFFFFFF00FF0000FFFFFFFFFFFFFFFF8F
:100E7000FFFFFFFFFFFFFFFFFFFFFF00FF44BF80FB
:100E80006A6F007F7F7F7F7F7FFFFFFFFFFFFFFF96
:100E9000FFFFFFFFFFFFFFFFFFFFFFFFFFFFFFFF62
:100EA000FFFFFFFF00FF0000FFFFFFFFFFFFFFFF4F
:100EB000FF7F3F1F0F87C7C3E3E3F100FF44FF003D
:100EC0006699FFFFFFFFFFFF00FFFFFFFFFFFFFF30
:100ED000FFFFFFFFFFFFFFFFFFFFFFFFFFFFFFFF22
:100EE000FFFFFFFF00FF0000FFFFFFFFFFFF1F03EB
:100EF00001E0F8FCFFFFFFFFFFFFFF00FF44FF00E2
:100F00006699FFFFFFFFFFFF00FFFFFFFFFFFFFFEF
:100F1000FFFFFFFFFFFFFFFFFFFFFFFFFFFFFFFFE1
:100F2000FFFFFFFF00FF0000FFFFFFFFFFFFF8C014
:100F300080071F3FFFFFFFFFFFFFFF00FF22FD01B4
:100F400056F600FEFEFEFEFEFEFFFFFFFFFFFFFF68
:100F5000FFFFFFFFFFFFFFFFFFFFFFFFFFFFFFFFA1
:100F6000FFFFFFFF00FF0000FFFFFFFFFFFFFFFF8E
:100F7000FFFEFCF8F0E1E3C3C7C78F00FF22FF10BC
:100F800055F700FFFFFFFFFFFFFFFFFFFFFFFFFF22
:100F9000FFFFFFFFFFFFFFFFFFFFFFFFFFFFFFFF61
:100FA000FFFFFFFF00FF0000FFFFFFFFFFFFFFFF4E
:100FB000FFFFFFFFFFFFFFFFFFFFFF00FF220F38D4
:100FC0006147CC9B97B797B787F797B797B797B70E
:100FD00097B787F797B797B797B797B787F797B741
:100FE00097B797B790B780F097B797B797B797B776
:100FF00087F797B797B797B797B787F097B2110367
:10100000000000000000E0F070F0204080000000D0
:10101000000000000000001F3C3B3F130C0306F8DB
:101020007000000000000000000000000000000050
:101030000000000000000000000080C0E0E0C000F0
:1010400000000000000000000C1E1F141697D83F7F
:10105000000000000000000000000000000101008E
:1010600000000000000000000080C0C0C04040C080
:10107000C0C080000000000040C0C3C74B2A371723
:10108000120B070300000000000000000000000039
:101090000000000000000000000000000000C0E0B0
:1010A000E0C0800000000000000000060C08101FD7
:1010B000181716141F1E0C0000000000000000008E
:1010C000000000000000000000000000001C3EC006
:1010D000806090F8B878F000000000000000000088
:1010E000000304091F1D1E0F000000000000000087
:1010F00000000000000000000000000000000000F0
:1011000000000000F836D3D150F0F060000000007D
:101110000000000000070E0F0602010000000000A2
:1011200000000000000000000000000000000000BF
:1011300000000000000080C0A090D0D8A8A4C686FF
:101140000604000000000003070706050506070760
:10115000030000000000000000000000000000008C
:1011600000000000000000000060F0F050D0D0301F
:10117000F0102060C0000000000000000102060F17
:101180000E0700000000000000000000000000004A
:101190000000000000000000050286B7B7CEFC0189
:1011A0000303010003010205020502FC327949B67E
:1011B00000010202011103000000000000E0905055
:1011C000F0204080000000000000000000001F240C
:1011D0002B3F130C0306F870000000000000000015
:1011E00000000000000000000000000000000000FF
:1011F00080C0E0D090E000000000000000000C1271
:10120000171F141697D83F000000000000000000D0
:1012100000000000010100000000000000000000CC
:10122000804040C04040C04040800000000000407E
:10123000C0C3C64B2A3717120B060300000000007C
:10124000000000000000000000000000000000009E
:101250000000000000E090D0E0C08000000000002E
:101260000000060C08101F181716141F17120C0088
:10127000000000000000000000000000000000006E
:10128000000000001C3EC0806090F8A848F00000FC
:1012900000000000000000000304091F15120F00E9
:1012A000000000000000000000000000000000003E
:1012B0000000000000000000000000F836D3D1500C
:1012C000F0D0906000000000000000000F12170E28
:1012D0000603010000000000000000000000000004
:1012E0000000000000000000000000000080C0A01E
:1012F00090D0D8A8A4C6860604000000000003040D
:1013000005060505060504030000000000000000B6
:10131000000000000000000000000000000000606D
:1013200090D0F050D0D030F0102060C0000000000D
:1013300000000103060E17120F000000000000005D
:10134000000000000000000000000000000000207D
:101350000200FE023AE23A02FA8A7A02FA827A023B
:1013600002FA8202728A72029AEA020AFA0A02FEF9
:101370000000030202020202020202020202020250
:10138000020202020202020202020202020202033C
:1013900000FF01FDC51DC5FD057585FD057D85FDAC
:1013A000FD057DFD8D758DFD6515FDF505F5FD01D1
:1013B000FF070405050505050505050505050505E2
:1013C00005050505050505050505050505050504CE
:1013D00007200200FE023AE23A02FA8A7A02FA8210
:1013E0007A0202FA82F2827A02FA02FA122242FAAD
:1013F00002FE0000030202020202020202020202D4
:1014000002020202020202020202020202020202BC
:10141000020300FF01FDC51DC5FD057585FD057DA8
:1014200085FDFD057D0D7D85FD05FD05EDDDBD051C
:10143000FD01FF070405050505050505050505056D
:10144000050505050505050505050505050505054C
:101450000504070401F888F80000F80000E8A8B8BF
:101460000088A8F8003820F800B8A8E800F8A8E834
:101470000008E81800F8A8F800B8A8F80030030041
:101480000050F8FC381CD85C589C18DC181C189CC0
:1014900058DC181C183CF8F83C189C585C581CD8B0
:1014A0005C589C18DC181CD81C38FCF85000000054
:1014B0000055FFFF30200F022221000F28280000D6
:1014C000282F08002030FFFF302007082828000FB1
:1014D00022220100272808072030FFFF5500004086
:1014E000A055FFFF00000000000000000000000009
:1014F000000000000000FFFF0000000000000000EE
:1015000000000000000000000000FFFF55A040F8B0
:10151000FEAE0703C7E327A3A763E723E7E3E76379
:10152000A723E7E3E7C30707C3E763A7A3A7E32767
:10153000A3A763E723E7E327E3C70307AEFEF8FFAC
:10154000FFAA0000CFDFF0FDDDDEFFF0D7D7FFFF01
:10155000D7D0F7FFDFCF0000CFDFF8F7D7D7FFF006
:10156000DDDDFEFFD8D7F7F8DFCF0000AAFFFFBF11
:101570005FAA0000FFFFFFFFFFFFFFFFFFFFFFFF6E
:10158000FFFFFFFFFFFF0000FFFFFFFFFFFFFFFF69
:10159000FFFFFFFFFFFFFFFFFFFF0000AA5FBF2F5E
:1015A00002FE01010101010101010101010101012D
:1015B000010101010101010101010101010101011B
:1015C000010101010101010101010101010101FE0E
:1015D00000010101010101010101010101010101FC
:1015E00001010101010101010101010101010101EB
:1015F000010101010101010101010101010100FFDE
:1016000001010101010101010101010101010101CA
:1016100001010101010101010101010101010101BA
:1016200001011515151515D5D5D5D5D55515151592
:10163000150181D5D5D5D5D5010101D5D5D5D5553E
:10164000D1D1C18101D5D5D5D5510105151555D5B6
:10165000D1D1C1C1D1D1D555151505010101010166
:10166000010101010101010101010101010101016A
:101670000101010101010101010101010101FFFF5E
:10168000000000000000000000000000000000005A
:10169000000000000000000000000000000000004A
:1016A000000000000000001E1E1E1E1E1A0000008A
:1016B00000000A1E1E1E1E1E0000021E1E1E1E0010
:1016C0000000020E1E1E1E1E1E1400000000000060
:1016D0001E1E1E1E1E1E0000000000000000000056
:1016E00000000000000000000000000000000000FA
:1016F0000000000000000000000000000000FFFFEC
:1017000000000000000000000000000000000000D9
:1017100000000000000000000000000505050505B0
:10172000B5B5B5B5B5050505050100B5B5B5B5B592
:10173000B525A5B5B5B4B49400000000B5B5B5B5F0
:1017400010000030B4B4B4B4050505050505050561
:10175000040400A0B5B5B5B5B5B0B4B4949585058D
:101760000101000000000000000000000000000077
:101770000000000000000000000000000000FFFF6B
:101780000000000000000000000000000000000059
:1017900000000000000000008080800000E01000D9
:1017A000E7A70717E700D0507000F017F707F70713
:1017B0007650F001030707F7571400F0070707F703
:1017C000551000E011130317F71707F656D66607F2
:1017D000E31210E20707F707070011F31307F757A3
:1017E00057A6048080800000000000000000000078
:1017F0000000000000000000000000000000FFFFEB
:1018000000000000000000000000000000000000D8
:101810000000000000000000000FFFFEFCB8E1B077
:10182000F85C2C3D080801010100010101000100E4
:10183000010101000000000101010001010100019E
:101840000101000001010000010000010000010091
:10185000000101000000010109083D2D5DF8B1E122
:10186000B9FCFEFF0F0000000000000000000000B7
:101870000000000000000000000000000000FFFF6A
:101880006C7E56FCAAFCB4DCF854F8A8F0D870D0F2
:1018900070E0B070D070D87C6C9E0BBFFFFFFDC0B5
:1018A000000000000000000000042A2A1000023E90
:1018B00002003C0A0A3C003E0A3400023E020000DC
:1018C000001C222A18003C0A0A3C003E0408043E80
:1018D000003E2A2200000000000000000000C0FDC1
:1018E000FFFFBF0B9E6C7CD870D070B0E070D070E2
:1018F000D8F0A8F854F8DCB4FCAAFC567E6CFFFFC4
:1019000000000000000001008101810281828381CA
:10191000010301810101000100000300070F3F7F67
:10192000FFFEFCF8E8F0E0C0C0C0808000000000CE
:1019300000000000000000000000000000000000A7
:101940000000000000000000000000000000000097
:1019500000008080C0C0C0E0F0E8F8FCFEFF7F3FE0
:101960000F070003000001000101810103018183D1
:101970008281028101810001000000000000FFFF60
:1019800080808080808082808A80AA8AAAAAA080A3
:101990009E9DBDBAF8F5F9F2EAE8F488808080806F
:1019A0008080818383878F8F9F9FBFBFFFFFFEFC57
:1019B0009C8080808080808080808080808080800B
:1019C000808080808080808080808080809CFCFE01
:1019D000FFFFBFBF9F9F8F8F878383818080808021
:1019E000808088F4E8EAF2F9F5F8BABD9D9E80A0FF
:1019F000AAAA8AAA808A8082808080808080FF0054
:101A0000000000003E5B4F5B3E3E6B4F6B3E1C3E5A
:101A10007C3E1C183C7E3C181C577D571C1C5E7F6E
:101A20005E1C00183C1800FFE7C3E7FF00182418ED
:101A300000FFE7DBE7FF30483A060E262979292622
:101A4000407F050507407F05253F5A3CE73C5A7F0C
:101A50003E1C1C08081C1C3E7F14227F22145F5F62
:101A6000005F5F06097F017F006689956A6060609C
:101A7000606094A2FFA29408047E040810207E20D7
:101A80001008082A1C08081C2A08081E101010102C
:101A90000C1E0C1E0C30383E3830060E3E0E060072
:101AA0000000000000005F00000007000700147F36
:101AB000147F14242A7F2A1223130864623649569D
:101AC00020500008070300001C2241000041221C96
:101AD000002A1C7F1C2A08083E080800807030007D
:101AE0000808080808000060600020100804023E92
:101AF0005149453E00427F400072494949462141D3
:101B0000494D331814127F1027454545393C4A4941
:101B10004931412111090736494949364649492980
:101B20001E00001400000040340000000814224190
:101B30001414141414004122140802015909063E19
:101B4000415D594E7C1211127C7F494949363E4114
:101B50004141227F4141413E7F494949417F090935
:101B600009013E414151737F0808087F00417F41D0
:101B7000002040413F017F081422417F4040404007
:101B80007F021C027F7F0408107F3E4141413E7F5F
:101B9000090909063E4151215E7F09192946264956
:101BA00049493203017F01033F4040403F1F20402D
:101BB000201F3F4038403F63140814630304780437
:101BC000036159494D43007F4141410204081020FF
:101BD000004141417F040201020440404040400076
:101BE0000307080020545478407F28444438384480
:101BF000444428384444287F385454541800087EFC
:101C0000090218A4A49C787F0804047800447D404D
:101C1000002040403D007F1028440000417F4000EC
:101C20007C047804787C080404783844444438FC04
:101C30001824241818242418FC7C08040408485488
:101C400054542404043F44243C4040207C1C204045
:101C5000201C3C4030403C44281028444C9090903C
:101C60007C4464544C440008364100000077000076
:101C7000004136080002010204023C2623263C1ED5
:101C8000A1A161123A4040207A3854545559215547
:101C90005579412154547841215554784020545568
:101CA00079400C1E527212395555555939545454B5
:101CB0005939555454580000457C410002457D4235
:101CC0000001457C40F0292429F0F0282528F07CEB
:101CD000545545002054547C547C0A097F493249AC
:101CE0004949323248484832324A4848303A4141FC
:101CF000217A3A42402078009DA0A07D3944444496
:101D0000393D4040403D3C24FF2424487E49436601
:101D10002B2FFC2F2BFF0929F620C0887E090320DA
:101D2000545479410000447D413048484A3238409B
:101D300040227A007A0A0A727D0D19317D262929FE
:101D40002F28262929292630484D40203808080800
:101D50000808080808382F10C8ACBA2F102834FA21
:101D600000007B000008142A142222142A1408956B
:101D700000220095AA005500AAAA55AA55AA00005B
:101D800000FF00101010FF00141414FF001010FFCB
:101D900000FF1010F010F0141414FC001414F700DD
:101DA000FF0000FF00FF1414F404FC141417101FAC
:101DB00010101F101F1414141F00101010F000003A
:101DC00000001F101010101F10101010F010000055
:101DD00000FF101010101010101010FF1000000065
:101DE000FF140000FF00FF00001F10170000FC049C
:101DF000F414141710171414F404F40000FF00F77F
:101E000014141414141414F700F7141414171410E1
:101E1000101F101F141414F4141010F010F0000010
:101E20001F101F0000001F14000000FC140000F031
:101E300010F01010FF10FF141414FF141010101FD6
:101E400000000000F010FFFFFFFFFFF0F0F0F0F0E7
:101E5000FFFFFF0000000000FFFF0F0F0F0F0F3804
:101E6000444438447C2A2A3E147E02020606027E3E
:101E7000027E0263554941633844443C04407E205D
:101E80001E2006027E020299A5E7A5991C2A492A6E
:101E90001C4C7201724C304A4D4D303048784830FD
:101EA000BC625A463D3E494949007E0101017E2AF5
:101EB0002A2A2A2A44445F444440514A4440404428
:101EC0004A51400000FF0103E080FF000008086B5A
:101ED0006B083612362436060F090F060000181854
:101EE0000000001010003040FF0101001F01011E22
:101EF00000191D1712003C3C3C3C0000000000F0A3
:101F0000F89C8E8783878E9CF8F00000FEFF030309
:101F1000030303070EFCF80000FEFF0303030303A3
:101F2000070EFCF80000FFFF00000000000000FFAB
:101F3000FF0000FEFF8383838383C7EE7C380000AD
:101F4000F8FC0E07030303070EFCF800003F7FE0D8
:101F5000C08080C0E07F3FFFFF010101010101015E
:101F6000FFFF0000FFFF0C0C0C0C1C3E77E3C100D0
:101F7000007FFFC0C0C0C0C0E0703F1F00001F3F17
:101F800070E0C0C0C0E0703F1F00007FFFC1C1C152
:101F9000C1C1E3773E1C00001F3F70E0C0C0C0E03D
:101FA000703F1F000000000001FFFF010000008DD6
:101FB00014A1C881CFD9F102AF3205FE01057D051C
:101FC0000175017D0979010D710D013E7C40404094
:101FD000404080000000200020200080C0E0E0E0C1
:101FE000E0C08000000000000000000000000101CF
:101FF000010101013E40DFD5CAC0DDC0DFC6D9C046
:10200000DFD5D1C0BF7F080901C1F0F8FFFFF9F0AB
:1020100031333B1F0F0306040000000000000000E6
:102020000000000000000000000000120012121268
:102030001212121212121212120000FFFFFF0F0FE3
:102040007FFF3F2E26E0F0F2FE3C3810000000003B
:1020500000000010001110111111111111111111B6
:10206000111111111101010178FCCE87070F1F9F7B
:10207000FCF8787C0F070F1F17F7FB9F1F0F078FC8
:10208000FEFC7800000001000101010101010101D5
:10209000010101010101010101000000010303032D
:1020A000030301000000000000000000010303031F
:1020B00003030100003202FF01FD05EDDD05FDFD1A
:1020C000055575FD75ADDDAD75FDF5F505F5F5FD50
:1020D000FDFDFD05B5954DFDFD0DD5D50DFD8D75B0
:1020E0007575FD055575FD01FF0704050505050519
:1020F0000505050505050505050505050505050590
:10210000050505050505050505050505050505057F
:102110000505050505050505050407171C212636D7
:1021200017A2F230F2020DA20DF2300DA215310D00
:10213000F2A2310D31310D330F381002A23052B5F9
:10214000F23130F231A2303131315252316556A67E
:1021500030330F41123030300DA215F230065615D3
:10216000A656B5F715A231B531311531F6313033F8
:102170000F4112313130065615A215F2A6F630067F
:10218000F256153156A231B5313115313130330F98
:102190004817300656A6F630A2155606F6A63002A7
:1021A0005230A2F23152A2B556A631F63130063382
:1021B0000F601C301556B50665A6F6313056A6A63A
:1021C000F6300656F7F630B5F63156B50665305698
:1021D000A2F2A60631F2A63052B5330F601C1506E6
:1021E00056A6F6B50656A6F631B530B531A6F63088
:1021F000063015F6A656B50665A6563131A6063147
:1022000031A63006B5330F6E2202155665A6B530DD
:1022100030303106315631A631F631A2650665F609
:10222000650665F6300D650665F6650665F63130BE
:10223000563130563130330F7C223130F631A631F1
:10224000300631B5303106310615B5F60631F631B6
:1022500030A631F631063031F631F6310631F6313D
:102260000615B5F6F730313031563130330F61197C
:1022700030F630A631F63006305630A631305630C2
:10228000063106305630F631A63106F6300D300DE7
:10229000315630A6300D31330E1A200E1A0F0406B7
:1022A0001405140B150B040B073202FF01FDED554D
:1022B00055BDFDF505F5FD0DD50DFD05D52DFDF53E
:1022C00005F5FDFDFDFDFD05B5954DFDFD0DD5D5D6
:1022D0000DFD8D757575FD055575FD01FF0704052F
:1022E000050505050505050505050505050505059E
:1022F000050505050505050505050505050505058E
:10230000050505050505050505050505050407067B
:1023100006010606100C0B0F0210000BFE0104FE56
:102320000DFE0E020F02E0F0F0F8F8F8FEFFFEF8E6
:10233000F8F8F0F0E00000000000000000000000ED
:1023400000000000F8040201010101F90515F5156E
:1023500005D505F525E50535C53505F9F101010179
:102360000101010101010101010103060CF8F80C52
:1023700006030101010101F90515F51505D505F55E
:1023800025E50535C53505F9F10101010101010119
:10239000010101010103060CF8F80C06030101011B
:1023A000F90515F51505D505F525E50535C53505F9
:1023B000F9F1010101010101010101010101010125
:1023C000010204F8FF0000000000000304040504FB
:1023D0000405F8017C5528007D5444007D156901F1
:1023E000057D0501FEFC00000000000000FFFF006D
:1023F0000000000000000003040405040405F801C7
:102400007C55280075007C1865017D554501FEFC52
:102410000000000000000000FFFF000000000000BE
:1024200003040405040405F801047D04007D146818
:10243000007501394545017D294501FEFC0000007C
:10244000000000FFFF00000000000000000000008E
:1024500000000001038383C3C383830303030303D7
:1024600003030303020100000000000000FFFF005F
:102470000000000000000000000000000080C0E13B
:1024800073F3F3F3E3C383030303030303030201BF
:102490000000000000000000FFFF0000000000003E
:1024A000000000008080800001030383C3F3F31366
:1024B00003030303030303030303030201000000F8
:1024C000000000FFFF00000000000000000000000E
:1024D0000080FE85870B0FF7B75FABD7AD7E80809E
:1024E00000000000000000000000000000FFFF00EE
:1024F00000000000000000000000E0F8FCFFFFFC0E
:10250000F898191D0F0701030200000000000000E9
:102510000000000000000000FFFF000000000000BD
:102520000000010107050B1F16BCF7FFFF7FC180EC
:10253000800000000000000000000000000080009B
:10254000000000FFFF00000000000000FC0A0E1762
:102550001FEF6FBF57AF5BFF02FD0B0E171FEF6F33
:10256000BF57AE5AFC0000000000000000FFFF0053
:1025700000000000000000008080FFFFFF07073F11
:102580007F9F9793F0F8F9FF9E9C88808000000061
:102590000000000000000000FFFF0000000000003D
:1025A000000000000080C0E0F8FFFFFF1761130D7E
:1025B0002F1B2E3A2E367C2E3A6E5E376D3F2A3F09
:1025C000150E00FFFF0000000000000000010102E6
:1025D000020705FA171D2F3EDFDF7FAF5EB6FF054E
:1025E00002030101000000000000000000FFFF00E6
:1025F00000000000003C7EE7C383878FCFFE7C3C59
:102600003E0703070F0B7BFDCF8F8783C7FF7E3C01
:102610000000000000000000FFFF00000060F0F874
:10262000F8FCFE7D7F3F1F1F0F07814080A0209098
:102630005080A8D0D0E00808A8A8A0A800A8002032
:10264000000000FF0708102020202020202020204C
:1026500020202021222224242F2A25262322212043
:102660002020202020202020202030180C07070CBC
:10267000183020202020202021212121212020204D
:102680002020202020202020212121212120202045
:10269000202020202030180C07070C183020212182
:1026A0002121202020202020202020272626272707
:1026B00027272323212120222222202220202020FC
:1026C00020100807000000000000000000000000CB
:1026D00000000000000000000000000000000000FA
:1026E00000000000000000000000000000000000EA
:1026F00000000000000000000000000000000000DA
:1027000000000000000000000000000000000000C9
:1027100000000000000000000000000000000000B9
:1027200000000000000000000000000000000000A9
:102730000000000000000000000000000000000099
:1027400000000000080B0002020200000904000063
:10275000010202000005240010010524010101040A
:102760002402060524060001070581031000400924
:10277000040100020A0000000705020240000007F1
:102780000583024000000403090412010002EF0265
:10279000014041233680000101020301417264754A
:1027A000696E6F204C4C430041424131313036005C
:1027B0004E2911241FBECFEFDAE0DEBFCDBF11E0FE
:1027C000A0E0B1E0E8E1FEE602C005900D92A63679
:1027D000B107D9F726E0A6E6B1E001C01D92AD39F8
:1027E000B207E1F713E1C9EDD3E104C02197FE017F
:1027F0000E940437C83DD107C9F70E947F290C9475
:102800000A370C940000E6E3F2E030EB20E146E00A
:102810005C983EBD4A95F1F72EBD20E8239507C090
:10282000449140815C9A4EBD8111412D4193449168
:102830002A95B1F73395383B49F70DB40895FC015B
:1028400080913502882311F13FB7F89482E080939C
:10285000E9002091F200822F90E01816190614F476
:1028600081E090E0882339F0289844E640933402D0
:102870004091F1004083222339F02091F200211190
:1028800003C02BE62093E8003FBF08958FEF9FEF32
:1028900008952FB7F89483E08093E9009091E800C1
:1028A000892F807295FF04C09091F20080E4891B0B
:1028B0002FBF089580912C0281110DC082E080937A
:1028C000280284E08093290210922B0210922A029F
:1028D00081E080932C0288E292E00895CF93DF9309
:1028E0001F92CDB7DEB76983DC01ED91FC910280C8
:1028F000F381E02D41E050E0BE016F5F7F4F09950D
:102900000F90DF91CF91089583E08093E90080914B
:10291000F200882319F08AE38093E80008950E946A
:10292000491490E00895CF93DF931F92CDB7DEB79F
:10293000FC018485958597FD08C02FEF3FEF358713
:1029400024870F90DF91CF910895CE0101960E94C8
:102950001F14019719F4898190E0F3CF8FEF9FEF57
:10296000F0CF0F931F93CF93DF931F92CDB7DEB7B6
:102970008C01FC018485958597FF0BC0CE010196E3
:102980000E941F14019771F4898190E0F8019587E6
:102990008487F801848595850F90DF91CF911F91F1
:1029A0000F9108958FEF9FEFF1CFFC0184859585FE
:1029B00097FD0BC09FB7F89482E08093E900809167
:1029C000F2009FBF90E0019608959FB7F89482E0CF
:1029D0008093E9008091F2009FBF90E008954091BC
:1029E00022025091230220912002309121024217AD
:1029F0005307B4F49091E8009570E1F39091E800EA
:102A000092FD19C08093F1008091220290912302DF
:102A100001968F739927892B19F48EEF8093E80024
:102A20008091220290912302019690932302809339
:102A3000220281E0089580E00895DF92EF92FF92F4
:102A40000F931F93CF93DF93D82E8A01EB017B0165
:102A5000E40EF51ECE15DF0559F0D7FE12C0FE01BB
:102A600084910E94EF1421968111F4CF0FEF1FEF94
:102A7000C801DF91CF911F910F91FF90EF90DF90F0
:102A800008958881EECF0F931F93CF93DF931F920A
:102A9000CDB7DEB782E0898342E450E064E477E2B8
:102AA00080E80E941D150E945A14DC0112960D91B7
:102AB0001C910115110589F0D801ED91FC9102805E
:102AC000F381E02DBE016F5F7F4FC801099597FD2F
:102AD00004C0F80100851185ECCF89810F90DF914A
:102AE000CF911F910F910895615030F02091F10026
:102AF000FC0120830196F8CF289884E68093340265
:102B000008950895AF92BF92CF92DF92EF92FF9215
:102B10000F931F93CF93DF936C017B018B01040F05
:102B2000151FEB015E01AE18BF08C017D10759F0A1
:102B30006991D601ED91FC910190F081E02DC601E3
:102B40000995892B79F7C501DF91CF911F910F91DD
:102B5000FF90EF90DF90CF90BF90AF900895FC0171
:102B60000E944616319728F068517C4F8F4F9F4F37
:102B7000F9CFAB01FC010E944616641775078E075A
:102B80009F07C8F308958F929F92AF92BF92CF9202
:102B9000DF92EF92FF920F931F93CF93DF936C011D
:102BA0007B018A0180911301882309F45AC0809126
:102BB0003502882309F455C08091270280FF05C0A3
:102BC0008091E00082608093E000E801B12C8AEF00
:102BD000A82E93E0892E2AE3922E209711F4BB2091
:102BE000C9F10E944914811108C0AA94AA20C9F110
:102BF00081E090E00E94AF15F0CF8C171D0611F018
:102C00000CF08C2F9FB7F8948092E9002091E80097
:102C100025FD02C09FBFE1CF282F30E0C21BD30BA0
:102C2000F701815020F041914093F100FACFE20E7C
:102C3000F31EBB2021F09092E800B12CEBCF8091E5
:102C4000E80085FDE7CF9092E800BB24B39420977D
:102C500009F3F3CF5D9884E68093260210161106DF
:102C60003CF081E090E0F6019383828310E000E085
:102C7000C801DF91CF911F910F91FF90EF90DF90EE
:102C8000CF90BF90AF909F908F900895A7E9B1E04B
:102C90002FB7F8947D918D919C9166B52FBFA89B1D
:102CA00005C06F3F18F47F5F8F4F9F4F22E0660F84
:102CB000771F881F991F2A95D1F708952D9A089597
:102CC00090E00C94AF158FB18095807F669B8860F3
:102CD0001C9B846008958EBD00000DB407FEFDCFDF
:102CE00008952F923F924F925F926F927F928F92B0
:102CF0009F92AF92BF92CF92DF92EF92FF920F938B
:102D00001F93CF93DF93CDB7DEB72B970FB6F89411
:102D1000DEBF0FBECDBF9C838B836A3061F5DC01C3
:102D200055968C91B8E08B9F90011124EB81FC812A
:102D300081899289820F931F928B818B108A1786CB
:102D400081E090E02B960FB6F894DEBF0FBECDBFAA
:102D5000DF91CF911F910F91FF90EF90DF90CF9077
:102D6000BF90AF909F908F907F906F905F904F90AB
:102D70003F902F9008956D3019F3AB81BC8155962B
:102D80009C90559754965C9054975D8253964C90C6
:102D900053975196ED90FC9052971F968D919C9170
:102DA000092D10E0803891050CF084C020E4E21673
:102DB000F1040CF07FC0E5E09C019E9E200D311DCA
:102DC0001124121613060CF075C09801F3E0220FBF
:102DD000331FFA95E1F72E0D3F1D121613060CF066
:102DE00069C06E9FF0011124BF016150764E7F8350
:102DF0006E83AC01712CEE81FF812491F5E07F128E
:102E000001C020E0670178E0672E222E312C842C4F
:102E100020FF8D80811004C05D80541409F437C0F8
:102E20009A012983622F641B691508F030C01B8644
:102E30001A866A85691540F520383105F0F4AA84B0
:102E4000BB84AC0CBD1C70E4A716B104B0F4F50152
:102E500070E1598061E0E1FD64E0E0FD660FE2FDB4
:102E60006295E87F7E9FD0011124A50DAA5CBD4F1D
:102E70000C90062A80FE06260C926A857B856F5F81
:102E80007F4F7B876A87D5CF2F5F3F4FCACF910196
:102E9000359527956A94C00ED11E6110B6CF7394F4
:102EA000EE81FF813196FF83EE83400F511FF6E0E4
:102EB0007F12A1CF26E0929E800D911D1124AB813F
:102EC000BC8150969C938E931F9756962C91569743
:102ED000222309F435CF4AEF40039001419F300D82
:102EE000112420583F4F281739070CF029CFCD0166
:102EF000ED91FC910190F081E02D6AE0099520CFE1
:102F00000895089590E080E008958F929F92AF9287
:102F1000BF92CF92DF92EF92FF920F93CF93DF9306
:102F2000F70134913196E491A32EB12C50E0082E94
:102F3000000C990BD5011197A80FB91FA417B5075D
:102F40000CF467C0481759070CF463C0862E062E90
:102F5000000C990873E0959487947A95E1F7A22F75
:102F6000B0E0A815B9050CF454C0E401CE0FD11D92
:102F7000CA17DB070CF44DC0E39FF00111246F0169
:102F80007FEFC71AD70A0E9FE0010F9FD00D1124C3
:102F900028196770481B590B2303D0011124FA012B
:102FA000EA0FFB1F329680E0CE16DF0650F0EC0FE2
:102FB000FD1FEE0DFF1D8491062E01C0880F0A949F
:102FC000EAF71216D4F4AA19BB094A0F5B1F4E5F29
:102FD0005F4FFE01E40FF51FEE0DFF1DE491C416D7
:102FE000D50658F0F0E028E030E0261B310902C099
:102FF000F595E7952A95E2F78E2BDF91CF910F910A
:10300000FF90EF90DF90CF90BF90AF909F908F9008
:10301000089580E0F2CFCF93DF93CDB7DEB7A997C5
:103020000FB6F894DEBF0FBECDBF909100019B8319
:1030300081E08A879D878C8B9F8B8E8FF0917C019E
:10304000E0917D0150917E0140917F01BAE02F2FE8
:1030500030E0EB9F200D311D1124A4E65A9F200D76
:10306000311D112468EE73E0469FC001479F900D0B
:103070001124280F391F10916F018091700190E089
:103080001B9F800D911D1124B0916E01BA9F800D80
:10309000911D112410916D01169FD001179FB00D45
:1030A00011248A0F9B1F8217930760F4F09370011D
:1030B000E0936F0150936E0140936D018091800108
:1030C00080936C01109272011092740181E08093E0
:1030D0007701109271011092790183E080937A0157
:1030E000109273011092800110927F0110927E0164
:1030F00010927D0110927C019E012B5E3F4F38A300
:103100002F8F109276011092750180917901843190
:1031100018F48F5F80937901909179018EE1891B7A
:103120008093010180930001953018F081E0809335
:10313000710187E080937801E5E8F1E08FEF80830B
:10314000818382838383349631E0E539F307B9F7CD
:1031500045E851E084E030E020E0281738F4FA0137
:10316000E20FF31F10822F5F3F4FF7CF81504C5F6C
:103170005F4F8111F0CFBE016F5F7F4F80E00E94F3
:103180002027BE016F5F7F4F81E00E942027BE0194
:103190006F5F7F4F82E00E942027812C912C540189
:1031A000212C0E9435270E94631683FF36C010929F
:1031B0007C0110927D0110927E0110927F0110928D
:1031C000800181E08093740168EC86E90E944027C9
:1031D00068EC84E60E944027D22C23E0722E33E074
:1031E000632E42E1542E20907301222009F467C01F
:1031F00091E080918501813009F490E045E851E04B
:1032000084E030E020E0281708F045C0FA01E20F22
:10321000F31F90832F5F3F4FF6CF0E94631682FD0E
:10322000C6CF80917401811114C080917001809388
:103230007C0180916F0180937D0180916E0180936C
:103240007E0180916D0180937F0180916C0180935C
:10325000800180917201823008F06DC28F5F80938F
:10326000720124013501D301C20188199909AA0903
:10327000BB0988349105A105B10508F05FC28FB77D
:10328000F8944090DE015090DF016090E001709072
:10329000E1018FBFE8CF81504C5F5F4F8111B1CF0B
:1032A0002A9420927301222009F42BCF68E288EC43
:1032B0000E94402781E0809377012D2CCACFBE0168
:1032C0006F5F7F4F81E00E949928BE016F5F7F4F43
:1032D00082E00E94992889858F3F49F48A81811173
:1032E00006C08981863009F091C0198619820E9432
:1032F000631685FF11C0898581110EC00E94352794
:1033000084E0898782E08A879E012F5F3F4F40E0FB
:103310006FEF80E00E9497260E94631686FF0EC022
:10332000898581110BC082E089871A869E012F5FF3
:103330003F4F40E061E080E00E9497260E946316C4
:1033400084FF0DC0898581110AC0698682E08A8761
:10335000AE014F5F5F4F61E080E00E94E6200E9477
:10336000631687FF10C0898581110DC00E94352723
:1033700081E089871A869E012F5F3F4F4FEF60E003
:1033800080E00E94972691E0D91251C08091780187
:10339000882341F080FF3DC0BE016F5F7F4F80E01A
:1033A0000E94DD2680917A0187FD48CED3948E015C
:1033B0000F5F1F4F7801C12CF70181818F3F29F4E6
:1033C00082818823C1F181508283C394FAE0EF0E99
:1033D000F11C23E0C212F0CF82E0482EEE24E394E9
:1033E000CC24C39494E6392ED80111968C91119770
:1033F0008230D1F108F442C0833009F461C12394D2
:10340000065F1F4FB3E02B12EFCFEDCE8F5F8983A6
:103410006ECF81FF05C0BE016F5F7F4F81E0C0CFDF
:1034200082FFC0CFBE016F5F7F4F82E0B9CFB2E0B5
:10343000DB12BCCF0ECF809100018283BE016F5F93
:103440007F4F8C2D0E94202780917801B1E0CB1610
:1034500039F0E2E0CE1631F0816080937801B5CF8B
:103460008260FBCF8460F9CFF80187818C5F87830E
:1034700089372CF2EFEF1196EC93C1CF18968C910F
:10348000189781508E3F38F413968C9113978111C1
:1034900002C01396EC92B2E0B9A3F80183818823AD
:1034A00009F489C0F084F2E0FF128CC0282F30E0CC
:1034B000220F331FF901E455FF4F9491D80116965E
:1034C000EC911697E90F1696EC931697F901E355D0
:1034D000FF4FE49117962C911797E20F1796EC93F4
:1034E0008F5FF8018383803108F465C06AE080EA69
:1034F0000E94402790917101D80111968C911197EB
:103500009111AAC01596EC91159714969C91B4E070
:10351000EB02F0011124EB57FE4FE90FF11D97FD6F
:10352000FA95908191111FC021101DC081111BC0FF
:103530000E949327D8011596EC91159714968C91BB
:10354000B4E0EB02F0011124EB57FE4FE80FF11D40
:1035500087FDFA95E0820E947E26882321F0C092A2
:10356000770150927301F80113822FEF2087818534
:10357000823009F47186D80119968C9119978111BE
:1035800002C01996EC92F80181818130A1F4848106
:10359000833009F07EC0F1E0FF127BC0909176018C
:1035A000911177C0F0927601F09277011D821E8210
:1035B000D80111968C93F9A1F13009F420CF21E0C4
:1035C00029A36BCFB3E0FB1211C0282F30E0220FEC
:1035D000331FF901E455FF4FE491D80116969C91F1
:1035E00016979E1B16969C93169770CFB1E0FB1210
:1035F0001DC020E130E0281B3109220F331FF901E3
:10360000E455FF4F9491D8011696EC911697E90F67
:103610001696EC931697F901E355FF4FE491179630
:103620009C9117979E1B17969C935ACFB4E0FB1260
:1036300057CF20E130E0281B3109220F331FF90159
:10364000E455FF4FE491D80116969C9116979E1B66
:1036500016969C931697DFCF211085CF811183CFCB
:103660001596EC91159714968C91B4E0EB02F0014D
:103670001124EB57FE4FE80FF11D87FDFA9580816D
:1036800091E0811190E09083811165CF0E94932792
:1036900062CFF8018581833061F4F4E0FF1209C044
:1036A00090917501911105C0C0927501C09277018A
:1036B0007DCFF801418221107ECF0E94D3277BCF9E
:1036C00017968C916AE0B32DB81B8B2F0E94402770
:1036D0002091770132E0F80186818A3389F497815D
:1036E000923071F41182211023C020E0D801169687
:1036F0008C9116978A3394F48F5F16968C930EC034
:10370000222019F0209377017ACED80117969C9148
:10371000179793303CF0915017969C93313091F36A
:1037200031E0D9CF8B3314F38150F8018683DECF9B
:103730001092770164CE1092720193CDEEEFECA35C
:10374000FCEFFDA31AA219A210E0B12CA12C29A113
:103750003AA12D503F4F3FA32EA389A19AA1885291
:10376000994F99A788A7DA2C90E8A916B10409F413
:10377000ABC180917401811110C0E8A5F9A5EA0DD3
:10378000FB1DC490612F8A2D0E942A268C290E943D
:103790006B163FEFA31AB30AE6CF80917601811131
:1037A000C5C07FEAE72E76E0F72E00917201212F47
:1037B0004A2D68E280E60E9485178BA380917501EF
:1037C000912C81110DC06FEAE62E66E0F62E009175
:1037D0007201212F4D2D68E280E10E948517982EFD
:1037E000123008F0D1C0A2E2AD1508F4CDC080912E
:1037F0007A01823009F49CC0833009F4ADC0813075
:1038000009F0C2C05CECE52E50E0F52E00E0212F5F
:103810004D2D61E085E00E948517C82EC0948A81F5
:10382000823081F025E6E22E26E0F22E0A85212F55
:103830004D2D68858F810E948517EFEFF0E0E81B22
:10384000F109CE228C85823081F09BE1E92E96E051
:10385000F92E0C89212F4D2D6A8989890E9485179F
:103860002FEF30E0281B3109C2228E89823081F08F
:1038700081EDE82E85E0F82E0E8D212F4D2D6C8DDB
:103880008B8D0E948517AFEFB0E0A81BB109CA224B
:10389000A7E8EA2EA5E0FA2E0A85212F4D2D68858E
:1038A0008F810E948517882EBDE3EB2EB5E0FB2E9D
:1038B0000C89212F4D2D6A8989890E948517382E00
:1038C000BBA19B2A03EFE02E04E0F02E0E8D212FEA
:1038D0004D2D6C8D8B8D0E9485178BA38928612FB0
:1038E0008D2D0E942A26982E3828123008F04EC0BE
:1038F00080918501813009F0E5C0F0EEEF2EF0E017
:10390000FF2E00E0212F4D2D66E086E30E948517F3
:10391000882EEEA1FFA1EA0DFB1DE4912BA1322A16
:10392000832D892988298E2B8C2131CF1BA246CF4C
:103930004CECE42E40E0F42E00E0212F4D2D61E010
:1039400085E00E948517C82E212F4D2D61E08EE065
:103950000E9485178C2961CF3CECE32E30E0F32EDA
:1039600000E0212F4D2D61E085E00E948517C82ED3
:10397000212F4D2D61E08EE00E948517C82A212F4E
:103980004D2D61E087E1E4CF80E047CFECA1E2304C
:1039900018F580918601812C813061F4E0EEEE2EE5
:1039A000E0E0FE2E00E0212F4D2D64E180E40E9436
:1039B0008517882E80918901813009F0AACF70EE99
:1039C000E72E70E0F72E00E0212F4D2D64E18CE210
:1039D0000E948517882A9DCFFDA1F23080F5809145
:1039E0008701812C813061F460EEE62E60E0F62ED6
:1039F00000E0212F4D2D62E28AE40E948517882E77
:103A000080918A01813061F450EEE52E50E0F52E70
:103A100000E0212F4D2D62E286E30E948517882A5F
:103A200080918D01813009F074CF40EEE42E40E0AA
:103A3000F42E00E0212F4D2D62E282E2C9CF163034
:103A400009F040C080918801812C813061F430EE12
:103A5000E32E30E0F32E00E026E04D2D60E384E518
:103A60000E948517882E80918B01813061F420EEB1
:103A7000E22E20E0F22E00E026E04D2D60E380E40F
:103A80000E948517882A80918E01813061F490EE22
:103A9000E92E90E0F92E00E026E04D2D60E38CE267
:103AA0000E948517882A80919101813009F031CFD9
:103AB00080EEE82E80E0F82E00E026E04D2D60E359
:103AC00088E186CF812C25CF1F5F89A19AA18058DC
:103AD0009F4F9AA389A39DA19F5F9DA3ACA1AF5FB8
:103AE000ACA3183009F031CE8A81811147C08E0114
:103AF0000F5F1F4F2F81022E000C330BF8018089BE
:103B0000082E000C990BB90163507109AC014D5F8F
:103B10005F4F4617570754F12D5F3F4F0397281704
:103B2000390724F12885022E000C330B8189082ED9
:103B3000000C990BB90163507109AC014D5F5F4FE7
:103B4000461757079CF02D5F3F4F039728173907FB
:103B50006CF0BE016F5F7F4F80E00E942027809154
:103B600078018160809378010E94D327065F1F4F00
:103B70002F8D38A12017310709F0BCCF8091740137
:103B800053014201882309F40CCB26CB0C949635C3
:103B90001F920F920FB60F9211248F939F938091D3
:103BA000E1009091E100937F9093E10083FF0FC0CB
:103BB0001092E90091E09093EB001092EC0092E3F8
:103BC0009093ED001092350298E09093F00082FF00
:103BD00022C093E09093E9009091F200992319F0AC
:103BE0009AE39093E80090912602992341F09091F6
:103BF0002602915090932602911101C05D9A9091F6
:103C00003402992341F09091340291509093340200
:103C1000911101C0289A84FF18C08091E2008E7E25
:103C200081608093E2008091E1008F7E8093E100CB
:103C3000809127028E7E8061809327029F918F91D1
:103C40000F900FBE0F901F90189580FFF7CF8091B7
:103C5000E2008E7E80618093E2008091E1008E7EA2
:103C60008093E100809127028E7E8160E5CF1F92D4
:103C70000F920FB60F921124CF92DF92EF92FF9224
:103C80000F931F932F933F934F935F936F937F9364
:103C90008F939F93AF93BF93EF93FF93CF93DF9354
:103CA000CDB7DEB76C97DEBFCDBF1092E900809133
:103CB000E80083FF25C068E0CE0145960E94741598
:103CC00082EF8093E8008D8987FF39C09091E800EA
:103CD00090FFFCCF982F907609F034C19E894F89D0
:103CE000588D2F89F88C911131C0803861F5809101
:103CF00025028093F1001092F1008EEF8093E8008E
:103D00006C960FB6F894DEBF0FBECDBFDF91CF919A
:103D1000FF91EF91BF91AF919F918F917F916F91A3
:103D20005F914F913F912F911F910F91FF90EF90D5
:103D3000DF90CF900F900FBE0F901F9018959EEFC1
:103D40009093E800C7CF1092F100D5CF913059F48D
:103D50008111D3CF4130510581F6809125028D7FAD
:103D600080932502CACF933049F48111C6CF4130E8
:103D7000510519F6809125028260F2CF953041F409
:103D80008091E80080FFFCCF20682093E300B5CF4E
:103D9000963009F0A9C00B8D1C8D22E01092E9002D
:103DA0001092230210922202F2122EC010922102CF
:103DB000109220020E9443151F8299E09983FA8293
:103DC00091E09E8390EA98879AEF9987209122024A
:103DD00030912302275F3F4F3C832B838D831092CA
:103DE000E900109223021092220210932102009304
:103DF000200249E050E0BE016F5F7F4F80E00E94EB
:103E00001D150E94431579CF1093210200932002C3
:103E10000E945A14DC0112960D911C910115110596
:103E200009F451C1D801ED91FC910480F581E02D98
:103E3000BE016B5E7F4FC8010995009709F03EC136
:103E4000F80100851185EACFF3E0FF120EC08F89DB
:103E5000882309F440C0823061F440E867E088EAD2
:103E600097E20E94B320811148CF81E28093EB005A
:103E700047CF813029F440E86BE08CE997E2F1CF3D
:103E8000833099F70E945A14DC011296ED90FC9051
:103E90008E010F5F1F4F6801E114F10479F0D70123
:103EA000ED91FC910680F781E02DB801C7010995DD
:103EB000080F111DF701E084F184EECFD8011C92A8
:103EC000F60101900020E9F73197BF016C197D09D7
:103ED00040E0C601C6CF66E877E2FB01449150E0BE
:103EE00080E80E941D1509CF973009F4BECF9830A5
:103EF00021F481E08093F10000CF993009F0FDCEEC
:103F0000837009F0B2CFE9E3F1E081E031E096E3BC
:103F10002191222371F08093E9003093EB00DF01BF
:103F200011972C912093EC009093ED008F5F8730D8
:103F300079F78EE78093EA001092EA008F898093E8
:103F40003502DBCE8B8D9C8D1092E90010922302FE
:103F5000109222029093210280932002898D811178
:103F600092C08E899D89913A49F4813209F07DCFC2
:103F700047E050E06CE071E080E0B3CF913209F0AF
:103F800074CF833269F48F89988DB0E0A0E080937C
:103F9000080190930901A0930A01B0930B01ADCEE3
:103FA000803269F48091E80082FFFCCF67E08CE00A
:103FB00091E00E9474158BEF8093E8009ECE8232D0
:103FC00009F09BCE8F8980931301EEEFFFE7859177
:103FD00094918B3F9C4D51F1E0E0F8E080910C0111
:103FE00090910D01A0910E01B0910F01803B944082
:103FF000A105B105F1F48091130180FD1AC0EE3FD7
:104000008AE0F80789F587E797E7918380838091B5
:1040100060008093240288E19BE00FB6F894A89595
:10402000809360000FBE9093600067CEEEEFFAE0E1
:10403000D5CF808191818737974709F05ECEA895CB
:104040008091600088618093600080912402809359
:104050006000EE3F2AE0F20789F08091FE0A90911D
:10406000FF0A9183808349CE8081918187379807A9
:1040700051F29093FF0A8093FE0AC5CF1092FF0A77
:104080001092FE0A3ACE0E945A14DC0112960D914B
:104090001C910115110509F4E8CED801ED91FC91B0
:1040A0000190F081E02DBE016B5E7F4FC801099544
:1040B000811123CEF80100851185EBCF1816190662
:1040C0000CF41BCED2CEF1E0FF12BECE6AE877E24E
:1040D00004CF0F920FB68F939F93EF93FF9380912E
:1040E00096018D5F8D3708F08D5780939601EEED28
:1040F000F1E080818E4F808391819F4F91838281F7
:104100008F4F828383818F4F8383E7E9F1E0808142
:104110008F5F808381818F4F818382818F4F8283E4
:1041200083818F4F83838FB18F6066991C9B882713
:104130008F3681F480919501981B963068F0E0E00D
:10414000F8E087E78083818388E180936000F093C3
:104150006000FFCF90939501FF91EF919F918F9118
:104160000FBE0F901895EF92FF920F931F93CF936E
:10417000DF93F82E192FE62E042F81E0860F880F8B
:104180000E94EF1483E00E94EF14CF2DD12FEC0E8C
:10419000FD2EF11CCE15DF05B9F007FF13C0FE019F
:1041A00084910E94EF14182F80E00E94EF14812365
:1041B00021968111EFCFDF91CF911F910F91FF9049
:1041C000EF9008958881EDCF81E0F5CFDA019AE094
:1041D000899FA00DB11D11246130F1F415962C9129
:1041E0001597E22F022E000CFF0BE330F105A4F42B
:1041F00014963C911497EE0FFF1FEE0FFF1FE75729
:10420000FE4FE30FF11D37FDFA9580818F3F21F0BE
:104210002F5F15962C93089581E011968C93089545
:10422000BF92CF92DF92EF92FF920F931F93CF93A3
:10423000DF93182FD62E90E020E4629FF001112426
:10424000803408F45BC0E81BF90BE358F14FC491CC
:1042500085EBE82E81E1F82E00911A022D2D412FD9
:104260006091F2018091F1010E948517C82E99EAB0
:10427000E92E91E1F92E00E02D2D412F60910A02E7
:10428000809109020E948517B82E24EAE22E21E1CE
:10429000F22E2D2D412F60910202809101020E9489
:1042A0008517D82F38E9E32E31E1F32E2D2D412F3C
:1042B00060911202809111020E9485178D2B8095CA
:1042C000C8234EEFE42E4FE0F42E0091EE012D2D89
:1042D000412F6091FA018091F9010E948517CB2846
:1042E000C09480958C238C21DF91CF911F910F91E9
:1042F000FF90EF90DF90CF90BF900895E80FF91FE7
:10430000E250F24FA4CFBF92CF92DF92EF92FF9292
:104310000F931F93CF93DF93D82F162F6A010E941C
:104320001021C82F760100E0212F4D2F6BE180E393
:104330000E948517B82E01E0212F4D2F6BE180E3FD
:104340000E948517CB2980958C23DF91CF911F91F7
:104350000F91FF90EF90DF90CF90BF9008955F9204
:104360006F927F928F929F92AF92BF92CF92DF9285
:10437000EF92FF920F931F93CF93DF93D82EB12C20
:10438000A12C10E037E2632E660E44E3C42EC60E65
:10439000D0E0C0E0C50181509A4E4C014C2FC0388E
:1043A000D10509F464C092E0D91609F456C09D15F0
:1043B000B0F081E0D816F9F0F401EC0FFD1F749015
:1043C0002FE9E22E25E1F22E00E0212F67E288E2BC
:1043D0000E94851787290E946B162196DFCF93E0F4
:1043E000D91609F441C084E0D812E6CFF401EC0FED
:1043F000FD1F8491F0CF612F8C2F0E941021782E09
:104400008DE7E82E84E1F82E00E0212F4C2F662D59
:1044100088E20E948517582E01E0212F4C2F662D2F
:1044200088E20E94851775288095782293E5E92E09
:1044300094E1F92E0091E301212F4C2F6C2D85E39F
:104440000E948517582E0091E401212F4C2F6C2DCE
:1044500089E40E9485178529BDCF41ED53E1612F85
:104460008C2F0E948321B7CF4FE453E1F8CF1F5F19
:1044700090E8A90EB11CA11484E0B80609F088CF19
:10448000DF91CF911F910F91FF90EF90DF90CF9030
:10449000BF90AF909F908F907F906F905F900895A6
:1044A000CF93DF93C0E0D0E06C2F8D2F0E941021BE
:1044B0000E946B16DF5FD038B9F7CF5FC83099F72D
:1044C000DF91CF91089598E0899FF0011124EF507A
:1044D000FE4F8681811108C0878190911D02891746
:1044E00028F48E5F8783089582508683089598E02C
:1044F000899FF0011124EF50FE4F8781811108C080
:10450000868190911D02891728F48E5F8683089515
:1045100082508783089598E0899FF0011124EF501D
:10452000FE4F8381811108C0848190911E028917FA
:1045300028F48E5F8483089582508383089598E0E1
:10454000899FF0011124EF50FE4F8481811108C032
:10455000838190911E02891728F48E5F83830895CA
:10456000825084830895CF92DF92EF92FF920F934F
:104570001F93CF93DF9313E0823009F415E098E0A6
:10458000899FF0011124EF50FE4F0381F68080E0F7
:104590006F01AF014C5F5F4FDF011296BF01695F92
:1045A0007F4FEF0125969F012F5F3F4F002371F151
:1045B000811103C09C91900F9C939C919A3040F084
:1045C0009A509C93F60190819E3710F49F5F9083E0
:1045D000FF2091F1811103C098819F0D98839881EC
:1045E0009A3040F09A509883F90190819D3310F4ED
:1045F0009F5F90838F5F1813D9CFDF91CF911F9169
:104600000F91FF90EF90DF90CF900895FA01E08036
:10461000EE2081F0811103C09C919E0D9C939C9192
:104620009A30B0F29A509C93F6019081992381F2CE
:104630009150CDCF1C92CCCFFB01E080EE2081F0D9
:10464000811103C098819E0D988398819A3090F2D1
:104650009A509883F9019081992361F29150C9CFC2
:104660001882C8CF8250873108F02BC0E82FF0E0C5
:10467000E45CFC4D0C9404375D23612364236123C7
:104680005F23612355236123612361235323612326
:1046900061236123592361235B2361236123612308
:1046A00061236123572381E0089582E0089583E028
:1046B000089584E0089585E0089586E0089587E0F0
:1046C000089580911A02089580E00895CF92DF92B4
:1046D000EF92FF920F931F93CF9325E0C1E08230BA
:1046E00011F4C2E020E090E030E0AC0173E0440F50
:1046F000551F7A95E1F7FA01EF50FE4F7F01408197
:10470000420F532F511DA62FB0E08D01E3E0000FA3
:10471000111FEA95E1F70F501E4FF801C080C20E3D
:10472000D32ED11CA15FBC4DFD016491F6016C9F9D
:10473000E00DF11D1124E417F50744F1815F9C4D54
:10474000FC016491C69F400D511D11244C155D055F
:10475000ECF0F7014181420F532F511DF801718197
:10476000270F311DFD01A491B901CA9F600D711D74
:1047700011246417750754F0FC018491C89F400D03
:10478000511D112481E0421753070CF480E0CF91B2
:104790001F910F91FF90EF90DF90CF90089598E0D8
:1047A000899FF0011124EF50FE4F848193819483FF
:1047B0008383089598E0899FF0011124EF50FE4F04
:1047C000878196819783868308952091010230E046
:1047D00098E0899FF0011124EF50FE4F808190E016
:1047E000AC014C5F5F4F42175307ACF02F5F3F4F58
:1047F0002817390784F02091020230E0418150E00F
:10480000CA0108968217930734F02F5F3F4F81E06B
:10481000241735070CF480E008959AE0853021F0E4
:1048200090E0863009F494E180918201893060F44F
:104830008F5F80938201E0918201E90FFF27FF1FC4
:10484000E45BF44F8491089510928201F4CF82309A
:1048500089F080918401873050F48F5F80938401C8
:10486000E0918401F0E0E45CF44F849108951092AB
:104870008401F6CF80E00895BF92CF92DF92EF924D
:10488000FF920F931F93CF93DF93D82E162F8EEFA7
:1048900080938101C0E06830D8F4E62FF0E0ED5A53
:1048A000FB4D0C9404375B24842489248B249B24A3
:1048B0009F24A124A32480918401873010F58F5F69
:1048C00080938401E0918401F0E0E659F44FC491B3
:1048D000E1E0EE2EECE0FE2E00910701212F4D2DA0
:1048E0006091020188E10E948517C82ECC2A8EEFC4
:1048F000810FCCEAD1E0B12C853008F49EC080E075
:1049000067C010928401DECF81E00E942724C82F67
:10491000DFCF82E0FACF809183018E3048F48F5F41
:1049200080938301E0918301F0E0EE58F44FCFCF04
:1049300010928301F7CF84E00E940D24E8CF85E038
:10494000FBCF86E0F9CF2D2D30E0F901EF57F44F82
:10495000C491C095A0910401AF5F8AE1A43020F416
:10496000B0E0AC5EBE4F8C91D81620F08AE1EEE745
:104970008D1508F4E0E0CE2B4091C8018BE490E067
:10498000841B91092817390724F08BE4ECE38D157B
:1049900008F4E0E0CE2B8091C10190E0865A9F4F51
:1049A000E0E02817390709F4E8E1EC2BCE2FC09599
:1049B0008FCF74E9E72E7DE0F72E00E0212F4D2DFB
:1049C0006B818A810E948517882381F1B0928101D1
:1049D0008C29DF91CF911F910F91FF90EF90DF9085
:1049E000CF90BF9008956AE5E62E6DE0F62EE5CFF4
:1049F00059E4E52E5DE0F52EE0CF45E3E42E4DE0F1
:104A0000F42EDBCF3AE2E32E3DE0F32ED6CF27E0C3
:104A1000E22E2DE0F22ED1CF9AEFE92E9CE0F92E76
:104A2000CCCF8DEEE82E8CE0F82EC7CF269681E015
:104A3000B81609F464CFBB24B39488818823B1F3FA
:104A4000E981E150E83090F7F0E0E75DFA4D0C9431
:104A50000437D924F324F824FD24022507250C2546
:104A60001125EF92FF920F931F93CF93DF93182F8F
:104A7000C0E08091B801809384018091B901809356
:104A800083018091BA0180938201D0E06C2F8D2F39
:104A90001230D1F4E090DA01F090DB0100E02C2F2D
:104AA0004D2F6EE186E20E9485170E946B16DF5F34
:104AB000D03861F7CF5FC830E1F6DF91CF911F9119
:104AC0000F91FF90EF9008950E943C24EECFCF927B
:104AD000DF92EF92FF92E091AB0186E0E89FF00158
:104AE0001124E455FE4F82818E3191F510929F0181
:104AF0001092A0011092A1011092A2018091D10107
:104B0000811126C080910601813011F5C090D40139
:104B1000D090D501E090D601F090D70120E030E0B0
:104B200040EA50E4C701B6010E94FF36181684F42B
:104B300020E030E040E050E4C701B6010E94AC350F
:104B40006093D4017093D5018093D6019093D701DF
:104B5000FF90EF90DF90CF900895CF92DF92EF9289
:104B6000FF92C090BC01D090BD01E090BE01F090DA
:104B7000BF012FE832EC45E75EE3C701B6010E94B2
:104B8000FF3687FD56C0A701960160919B01709189
:104B90009C0180919D0190919E010E94AD35609392
:104BA0009B0170939C0180939D0190939E012091A5
:104BB000A3013091A4014091A5015091A601C70124
:104BC000B6010E94AC356093BC017093BD01809327
:104BD000BE019093BF01C0909B01D0909C01E090DA
:104BE0009D01F0909E0120E030E040E85FE3C701C6
:104BF000B6010E94FF3687FD17C020E030E040E894
:104C00005FE3C701B6010E94AC3560939B017093CE
:104C10009C0180939D0190939E01809102018823C5
:104C200019F0815080930201FF90EF90DF90CF90B8
:104C3000089510929B0110929C0110929D01109278
:104C40009E011092BC011092BD011092BE01109203
:104C5000BF01C1CF8E3508F44FC061114DC09DE931
:104C6000980F943088F46091800124E0629FB00135
:104C70001124282F2356330BF901E60FF71FEC5EA2
:104C8000F44F6491862F089599E9980F943050F469
:104C900060917F0134E0639FB0011124282F2756D3
:104CA000330BEACF95E9980F943050F460917E0170
:104CB00034E0639FB0011124282F2B56330BDCCF37
:104CC00091E9980F943058F490917D0134E0939FCE
:104CD000F00111248F56990BE80FF91FD0CF9DE8F2
:104CE000980F943078F690917C0124E0929FF00127
:104CF00011248357990BF0CF60E0C4CF45E851E011
:104D000024E090E080E0821758F4BC016F5F7F4F91
:104D1000840F951FFC018081882341F0CB01F3CFE4
:104D200021504C5F5F4F2111ECCF81E008956F3F20
:104D300069F4F9015AE0859FE00DF11D1124948179
:104D4000191644F59150948380E00895613011F56F
:104D5000D9019AE0899FA00DB11D112414969C9150
:104D60001497692F092E000C770B6330710594F4AA
:104D70001596EC91159754E0E502F0011124EB57DC
:104D8000FE4FE60FF71F51815F3F21F09F5F1496A2
:104D90009C93DACF4F3F61F4F9019AE0899FE00DCF
:104DA000F11D1124958119161CF491509583CCCFD7
:104DB000642FA9010E94E620C7CF823021F4909190
:104DC0007901963068F1FB019B01225E3F4F918192
:104DD0009E3F19F097819C308CF13A962E173F0731
:104DE000B1F7909178018130E9F08230F9F09E7F3F
:104DF00090937801909177019923D1F010927701E7
:104E0000FB019AE0899FE00DF11D112411821082AF
:104E10008AE3868382E08783138210861482158258
:104E200080E008959D7F90937801E8CF9B7FFBCF32
:104E300090917A01915090937A01E0CF81E00895AA
:104E40009AE0FB01899FE00DF11D11242EEF2183D3
:104E50001082899F902D11249853968397831382F3
:104E600020878C5F84838583089580917B018D31B9
:104E700020F48F5F80937B01089510927B01089549
:104E800081111EC070E090E080E0AB01FC010E9447
:104E9000461641505109E109F10928F068517C4F4B
:104EA0008F4F9F4FF6CFAB01FC010E94461664174F
:104EB00075078E079F07C8F388B18F7388B9089567
:104EC00040E02FEF30E0F901E81BF109CF01479AEC
:104ED000469820E02817190634F4F5E0FA95F1F722
:104EE00000002F5FF7CF469A479820E02817190651
:104EF00034F435E03A95F1F700002F5FF7CF4F5FBC
:104F00006413E5CFD9CF6FEF84E60E9440270E945B
:104F1000631683FDFCCF0E94631682FDF8CF6FEF0E
:104F200081E00C944027CF93CDE080917C018930C3
:104F300038F48F5F80937C01C150B9F7CF91089509
:104F400010927C0180917D01893020F48F5F8093E5
:104F50007D01F2CF10927D0180917E01893020F495
:104F60008F5F80937E01E8CF80917A0183303CF49B
:104F70008F5F80937A0164E188EC0E944027109251
:104F80007E0180917F01893020F48F5F80937F01C3
:104F9000D3CF10927F0180918001893068F68F5FB6
:104FA00080938001C9CFCF93C8EC6AE08C2F0E9418
:104FB0004027C150C436C9F7CF9108959FEF909311
:104FC0001902883008F590E0FC01E05DFE4F408159
:104FD000FC01E85DFE4F2081FC01E05EFE4F308168
:104FE000885E9E4FFC01808140930502309304024D
:104FF00020930802809307026AE088EC0E94402711
:1050000064E080E50C94402780E030E020E040E060
:10501000EBCFCF93DF93C82F823009F04EC083E0EF
:105020000E94E523D82F882341F08091040281114A
:1050300003C082E00E94CF23D1E084E00E94E523F8
:10504000882341F080910502811103C082E00E9413
:10505000CF2381E0909102029751903170F59091A9
:1050600019029F3F21F080E0DF91CF910895909148
:105070000102903478F4809109029817A0F7D111B9
:10508000F2CF81E08093E5018091E4018F5F80930E
:10509000E401E9CF2091110230E02D5F3F4F9217DC
:1050A000130609F304F38111DECF1092E50190910C
:1050B000E3019F5F9093E301D7CFEC2FF0E0DF0196
:1050C00053E0AA0FBB1F5A95E1F7AF50BE4F8C912A
:1050D000853058F48E5F8C938C2F0E94CF2362E032
:1050E00083E00E94402781E0BFCFE15FFC4D249127
:1050F00030E0220F331F280F311D2A37310514F0FD
:105100008250E9CF11968C911197853038F48E5FDB
:1051100011968C938C2F0E94DA23E1CFE491F0E07A
:10512000EE0FFF1FE80FF11DF8970CF49CCF825093
:10513000EFCFFF920F931F93CF93DF932091010145
:10514000EB019AE0899FC00DD11D112498859F3FE6
:1051500021F49981911101C018869885911105C09B
:1051600098819F5F921739F09883DF91CF911F91BB
:105170000F91FF9008958B01F82E188281E0F816A8
:1051800031F08C81882319F08D81811117C00E9424
:105190003527E0917B01F0E0E852F54FE491E130F2
:1051A00019F1A0F0E23071F1E330F9F684E088877C
:1051B00082E08987980140E06FEF0EC00E9435279A
:1051C000E0917B01F0E0EA50F54FE8CF82E088877C
:1051D0001986980140E061E08F2DDF91CF911F91FA
:1051E0000F91FF900C94972683E0888782E089874F
:1051F000A80161E08F2DDF91CF911F910F91FF905A
:105200000C94E62081E08887198698014FEF60E0D2
:10521000E3CF0F931F93CF93DF938C0181E090E056
:105220000E94C61D80FF32C08AE090E00E94C61D29
:105230009FEF980F9E3F50F522E330E0D801509643
:105240003C932E931F9728E330E052963C932E9385
:105250005197CBE0D0E0D801ED91FC910190F08125
:10526000E02D682FC8010995CE010E94C61D219628
:10527000C131D10581F780E00E94031488EE93E0EC
:10528000DF91CF911F910F910C94AF15DF91CF91CA
:105290001F910F91089504970C940929E6E3F6E015
:1052A0001382128288EE93E0A0E0B0E084839583BD
:1052B000A683B78383E491E0918380838FEF9FEF90
:1052C00095878487E6E8F6E01382128211861286BB
:1052D00080E1838710861782158685E591E09183AA
:1052E000808383E691E095838483108A1786128AEF
:1052F000118A81E0838B148A858B168A08957894AD
:1053000083E084BD83E085BD81E080936E00E1E8A9
:10531000F0E083E08083E0E881E08083E1E983E0FE
:105320008083E0E981E08083E1EC87E08083E3EC47
:1053300081E08083E0EC82E08083E2EC81E08083A6
:10534000EAE787E0808380688083109235021092BC
:105350002502109227028091D70081608093D700A8
:1053600080EA8093D80089B5806189BD89B5826063
:1053700089BD09B400FEFDCF81E090E00E94AF1529
:105380008091D8008F7C80618093D8008091E0006C
:10539000807F8093E0008091E1008E7E8093E10029
:1053A0008DE08093E200559A209A81EC80937C00F6
:1053B00081E785B987E684B985E38BB98FE38AB93C
:1053C000769A6E9880EF81BB10BA80E58CBDC1E003
:1053D000CDBD85E00E946016599A85E00E94601656
:1053E0005C98EFEAFFE185910E946B16E93BD9F7E3
:1053F0005C9A81E880936400C093650081E00E941C
:1054000003140E94631687FF12C05C9885EA0E940D
:105410006B165C9A2E9858982D9880916400806243
:105420008093640081E083BF889513BEFCCF0E9407
:10543000631682FF45C02D980E94631684788438D5
:10544000D9F40E945E1688EC0E946016589882E09B
:1054500090E00E9496358F3F29F06FEF82E090E058
:105460000E949E3584EF91E00E94AF15589A0E94E9
:10547000631684788438D9F30E946316847184316A
:10548000D9F40E945E1688EC0E9460162E9882E085
:1054900090E00E949635882329F060E082E090E059
:1054A0000E949E3584EF91E00E94AF152E9A0E94D3
:1054B000631684718431D9F388EC0E946016B7CFEB
:1054C0000E945E1682E090E00E94C61D882309F4C7
:1054D0003FC03E9A579A81E090E00E94C61D082F77
:1054E0000470F02E81FF0CC001112E98C1EFDFEF88
:1054F0000E94631686FF2FC02E9A589A0E945E164D
:1055000082E30E9460160E9463168111F9CF8DE03C
:1055100080931F02C0E00E94631685FDCFEF0E94BA
:10552000631686FDC1E00E94631683FF86C0C11129
:1055300088C080911F02883309F4BEC0833609F405
:105540006AC78D3009F07DC00E9483270E940B1826
:105550003E985798C0CFFF2029F0C430D10511F4F0
:105560002E9A589881E00E9403141C2F1770B12EB8
:105570009E01F3E035952795FA95E1F7C9019695D7
:10558000982F8827979587958A5C9D4F10E000E0BB
:105590002E3F4FEF340771F1BC016C567F4FDC0199
:1055A00050E040E0F801E150F14E6F01F601E40FE8
:1055B000F51FE491F0E04F010B2C02C0880C991C00
:1055C0000A94E2F72F3F320739F05496EC90549743
:1055D000E8285496EC925497BB2021F0FB01E08020
:1055E000E928E0824F5F5F4F6F5F7F4F119648352C
:1055F0005105E1F62F5F3F4F80589F4F085A1F4FCC
:10560000003B110529F680E00E9403148FE00E9400
:1056100060162196C931D10509F06ACFFF2011F03B
:10562000589A2D9880E991E00E94AF150E945E166D
:1056300086E896E00E94092963CF0E94631682FDE6
:1056400076CF80911F02C13011F00C947E358336E5
:1056500014F00C947B358F5F80931F02D0911F0252
:10566000D83321F0D33611F0DD3009F4C0E010E07A
:10567000B12CA12CD12CC12CF501EC5BFC4D4F01C0
:10568000F0E8CF16D10411F40C948A35F401EC0D36
:10569000FD1D749084E2E82E83E2F82E00E0212FB5
:1056A0004C2D68E38D2F0E94851787290E946B1669
:1056B0000FEFC01AD00AE4CF0E94832779EB272E80
:1056C0007FE1372EEFE84E2EE2EC5E2EE5E76E2E00
:1056D000EEE37E2E1092CD0183E0809304011092C0
:1056E000BC011092BD011092BE011092BF01109238
:1056F000AA011092A8011092A7013092DB0120921A
:10570000DA0182E00E9431250E94631683FD04C005
:105710000E94631682FFF5CF89EA92E29093DB0143
:105720008093DA0164E188EC0E94402764E18CE315
:105730000E94402782E00E943125FFEF07EA11E630
:10574000F15000401040E1F700C000001092AC01A1
:105750001092AD011092AE011092AF011092B00103
:105760001092B1011092B2011092B3011092B401E3
:105770001092B5011092B6011092B7011092CE01AD
:105780001092BB011092A3011092A4011092A501E6
:105790001092A60110929B0110929C0110929D0103
:1057A00010929E011092C7011092CC011092D40168
:1057B0001092D5011092D6011092D70182E0809309
:1057C00003018093050110929F011092A001109295
:1057D000A1011092A20181E2809302011092D801EE
:1057E00081E0809307011092C0011092AB011092EA
:1057F000C4011092C5011092C6011092D0011092FE
:10580000CF01809306011092D1011092D301109222
:10581000D2011092D9011092CB018091A90181305F
:1058200031F41092A9011092A8011092A701809161
:10583000A7019091A801009729F001969093A801E3
:105840008093A7018091A7019091A801FC01E15EDE
:10585000FE4DE491E093C2011092C3011092C10188
:10586000FC01E05EFE4DE491E093C9011092CA0193
:105870001092C80102969093A8018093A70185EB2E
:1058800090E29093DB018093DA01C1E0D5E014E26D
:1058900000E20E94631683FDFCCF0E94631682FD26
:1058A000F8CFC093AC01D093AD011093AE0100933B
:1058B000AF0183E00E9431256FEF84E60E9440270C
:1058C0002FEF37E843E1215030404040E1F700C07E
:1058D00000006FEF84E60E9440275FEF67E873E106
:1058E000515060407040E1F700C000006FEF84E667
:1058F0000E9440278FEF97E8A3E181509040A0409D
:10590000E1F700C000006FEF8BE90E9440276FEFC6
:105910008BE90E9440276FEF8BE90E9440276FEFD1
:105920008BE90E9440270E94631683FDB2CF0E943C
:10593000631682FDAECF86E080930701F12CD6E09E
:105940008091D9018090D4019090D501A090D6018A
:10595000B090D701811136C18091D80181113AC030
:105960000E94631685FF0BC020E030E040E85FE353
:10597000C501B4010E94FF3618160CF452C00E94F3
:10598000631686FD5EC08091D001811112C08091A6
:10599000CF0181110EC00E94631684FF75C08091F3
:1059A0000501833030F48F5F8093050181E080939F
:1059B000D8018091D80181110DC0809106018130FC
:1059C00049F4FF2039F090910701913009F486E005
:1059D000809307010E94631683FF64C08091CE010B
:1059E000813009F064C020E030E040E85FE3C501A9
:1059F000B4010E94FF3618160CF494C01092D30123
:105A000080910601823008F47DC09091D2019111FD
:105A100079C09091D101911175C081508093060198
:105A20006DC081E08093D30180910601853008F03C
:105A3000AACF9091D2019111A6CF8F5F80930601DA
:105A4000A2CF20E030E040E85FE3C501B4010E944E
:105A5000FF3618160CF097CF91E09093D301809108
:105A60000601882309F48FCF2091D20121118BCF19
:105A7000815080930601811186CF8091D1018111DF
:105A800082CF909306017FCF0E94631687FF91CF4C
:105A900080910501882309F48CCF81508093050102
:105AA00082E085CF0E94631682FD98CF9CCF8091C3
:105AB000D101882329F080910601833008F093CF2B
:105AC0008091CD0181118FCF20E030E040E051E4A2
:105AD000C501B4010E94193687FF10C02DEC3CECC3
