:020000040000FA
:100000000C940F0C0C94370C0C94370C0C94370C8C
:100010000C94370C0C94370C0C94370C0C94370C54
:100020000C94370C0C94370C0C9471160C94E0164D
:100030000C94370C0C94370C0C94370C0C94370C34
:100040000C94370C0C94370C0C94370C0C94370C24
:100050000C94370C0C94370C0C94370C0C9412192C
:100060000C94370C0C94370C0C94370C0C94370C04
:100070000C94370C0C94370C0C94370C0C94370CF4
:100080000C94370C0C94370C0C94370C0C94370CE4
:100090000C94370C0C94370C0C94370C0C94370CD4
:1000A0000C94370C0C94370C0C94370CFFFF01FFA9
:1000B0000101FFFFFF010101FF01FF01FF800100BE
:1000C0000100010001800100010001000180010028
:1000D0000100010001800100010001000180010018
:1000E0000100010001800100010001000180010008
:1000F00001000100018001000100010001800100F8
:1001000001000100018001000100010001800100E7
:100110000100010001FFFFDBDBDBDBDBDBDBDBDB2B
:10012000DBDBDBDBDBDBDBDBDBDBDBDBDBDBDBDB1F
:10013000DBDBDBDBDBDBDBDBDBDBDBDBDBDBDBDB0F
:10014000DBDBDBDBDBDBDBDBDBDBDBDBDBDBDBDBFF
:10015000DBDBDBDBDBDBDBDBDBDBDBDBDBDBDBDBEF
:10016000DBDBDBDBDBDBDBDBDBDBDBDBDBDBDBFFBB
:10017000FFB656B6A6B656B6A6B656B6A6B656B686
:10018000A6B656B6A6B656B6A6B656B6A6B656B6CF
:10019000A6B656B6A6B656B6A6B656B6A6B656B6BF
:1001A000A6B656B6A6B656B6A6B656B6A6B656B6AF
:1001B000A6B656B6A6B656B6A6B656B6A6B656B69F
:1001C000A6B656B6A6B656B6A6FFFF6D556D2A6DF5
:1001D000556D2A6D556D2A6D556D2A6D556D2A6DBB
:1001E000556D2A6D556D2A6D556D2A6D556D2A6DAB
:1001F000556D2A6D556D2A6D556D2A6D556D2A6D9B
:10020000556D2A6D556D2A6D556D2A6D556D2A6D8A
:10021000556D2A6D556D2A6D556D2A6D556D2A6D7A
:10022000556D2AFFFF8A518A518A518A518A518A13
:10023000518A518A518A518A518A518A518A518AE6
:10024000518A518A518A518A518A518A518A518AD6
:10025000518A518A518A518A518A518A518A518AC6
:10026000518A518A518A518A518A518A518A518AB6
:10027000518A518A518A518A518A518A51FFFF828B
:1002800014821482148214821482148214821482BE
:1002900014821482148214821482148214821482AE
:1002A000148214821482148214821482148214829E
:1002B000148214821482148214821482148214828E
:1002C000148214821482148214821482148214827E
:1002D00014821482148214FFFF20042004200420BE
:1002E00004200420042004200420042004200420EE
:1002F00004200420042004200420042004200420DE
:1003000004200420042004200420042004200420CD
:1003100004200420042004200420042004200420BD
:1003200004200420042004200420042004200420AD
:1003300004FF0101010101010101010101010101AC
:10034000010101010101010101010101010101019D
:10035000010101010101010101010101010101018D
:10036000010101010101010101010101010101017D
:10037000010101010101010101010101010101016D
:100380000101010101010101010101011901809235
:10039000A5A9928081BF8181BE8585BE80BF8585EC
:1003A000BA8081BF8181800801001C7E3E3E7E3480
:1003B00000001C3E7E3E7E3400001C3E7E3E3E74AD
:1003C00000003C7E3E7E7C2400003C7E3E7E7C28FD
:1003D00000003C7E3E7E7C480000347E3E3E7E1C1B
:1003E0000000347E3E7E3E1C0000743E3E7E3E1C7D
:1003F00000003C7E7C7E3E2400003C7E7C7E3E14E1
:1004000000003C7E7C7E3E1200003C7E7E7E7E3C78
:1004100000003C787070783C000038706060703884
:10042000000020404040402000000000000000008C
:1004300000080100187C743C745800000C7E5A1EA1
:100440007A4C000018343C1C341800001C323E1E4C
:10045000321C000EFFFDD91FFDF9CE0058743C740C
:100460007C1800004C7A1E5A7E0C000018343C1C8C
:10047000341800001C323E1E321C00CEF9FD1FD97C
:10048000FDFF0E20303C7C7A7E742420303E7E7549
:100490007772224729321414322947385652A4A4BD
:1004A000525638787EFEF5F7F3F25224747E7A7C49
:1004B0003C3020227277757E3E302047293214145A
:1004C000322947385652A4A452563852F2F3F7F55F
:1004D000FE7E78040102020404000C030038383860
:1004E00000383838003838380038383800230400ED
:1004F000FCFAFA02FAFAFEFEEE0AFEFEFE06F6F636
:10050000F60EFE06FEFEFE06FEFC000000000000E9
:1005100000000001C3C3A2E3434303FBFE0FEFEF60
:10052000DE3FFF0FEEEFDF36F636F8FFFB38F81848
:10053000E8E8E8D8F00203030707070702000F9F67
:10054000D0D7D7DB9C1F1017171B1C1F18171717A6
:10055000905FD857D696180F0000000000000000EA
:100560000000030F07070F06000202010102040446
:10057000020000090F030B0F010000FF00FF010044
:1005800001FF010000FF01000180C0C080808040A9
:10059000C0800000071F3F1D0F1E381F070000C04E
:1005A000C0C0C0C0C0C0C0C0C0C040C0C0C040C04B
:1005B000C0C0C0C0C040C0C0C040C0C0C0C0C0C03B
:1005C00040C0C0C040C0C0C0C0C0C040C0C0C0402B
:1005D000C0C0C0C0C0C040C0C0C040C0C0C0C0C01B
:1005E000C040C0C0C040C0C0C0C0C0C040C0C0C08B
:1005F00040C0C0C0C0C0C040C0C0C040C0C0C0C07B
:10060000C0C0C0C0C0C0C07F7F7F3F3F3F1F1F032F
:1006100001000000010000000101010100000001D3
:1006200000000001030301000000010000000103BD
:1006300003010000000100000001030301000000AD
:10064000010000000103030100000001000000019F
:10065000030301000000010000000103030100008A
:10066000000100000001031F1F3F3F3F7F7F7F808D
:10067000808000000000000000000000000000007A
:10068000000000000000000000000000000000006A
:10069000000000000000000000000000000000005A
:1006A000000000000000000000000000000000004A
:1006B000000000000000000000000000000000003A
:1006C000000000000000000000000000000000002A
:1006D00000000000808080FFFFFFFFFFFFFEFEF0B4
:1006E000E0C080C0E0C080C0E0E0E0E0C080C0E0EA
:1006F000C080C0E0F0F0E0C080C0E0C080C0E0F0AA
:10070000F0E0C080C0E0C080C0E0F0F0E0C080C099
:10071000E0C080C0E0F0F0E0C080C0E0C080C0E099
:10072000F0F0E0C080C0E0C080C0E0F0F0E0C08049
:10073000C0E0C080C0E0F0FEFEFFFFFFFFFFFF341F
:1007400002FE0101912949910109F90901F12929C3
:10075000F101F92929D10109F90901010101F10981
:1007600049D101F12929F101F9112111F901F929E1
:1007700009010101FE070808080909080808090815
:1007800008090808090809080809080809080808E4
:1007900008080809090908090808090809080808D3
:1007A00009080909090808080704011F111F0000AA
:1007B0001F00001D15170011151F0007041F00174B
:1007C000151D001F151D00011D03001F151F00171B
:1007D000151F00000F1F0E1F0F00207000000000EB
:1007E0003030000000306000001030200020202059
:1007F0002000002020600000202030000201C0C046
:100800000301E0E0E003010705070000000101012A
:100810000202020303030404040505050606060795
:1008200007070808080909090A0A0A0B0B0B0C0C30
:100830000C78FEFF6E7C5E87FE7800000601307843
:1008400068320101182C342C34180A3EFFED360AA8
:1008500000FC020204001C3A32323A1C54C6D6D6BE
:10086000C65401011804011F111F00001F00001DC4
:1008700015170011151F0007041F0017151D001F75
:10088000151D00011D03001F151F0017151F000473
:10089000017C447C00007C000074545C0044547C67
:1008A000001C107C005C5474007C54740004740CB4
:1008B000007C547C005C547C0000000000003E5B27
:1008C0004F5B3E3E6B4F6B3E1C3E7C3E1C183C7E9D
:1008D0003C181C577D571C1C5E7F5E1C00183C1882
:1008E00000FFE7C3E7FF0018241800FFE7DBE7FF7E
:1008F00030483A060E2629792926407F050507400B
:100900007F05253F5A3CE73C5A7F3E1C1C08081CCB
:100910001C3E7F14227F22145F5F005F5F06097F09
:10092000017F006689956A606060606094A2FFA2A2
:100930009408047E040810207E201008082A1C0851
:10094000081C2A08081E101010100C1E0C1E0C305B
:10095000383E3830060E3E0E060000000000000053
:100960005F00000007000700147F147F14242A7F13
:100970002A122313086462364956205000080703E0
:1009800000001C2241000041221C002A1C7F1C2A5E
:1009900008083E08080080703000080808080800B1
:1009A0000060600020100804023E5149453E0042AC
:1009B0007F400072494949462141494D331814127C
:1009C0007F1027454545393C4A49493141211109A4
:1009D000073649494936464949291E000014000096
:1009E00000403400000008142241141414141400B0
:1009F0004122140802015909063E415D594E7C12FC
:100A000011127C7F494949363E414141227F414193
:100A1000413E7F494949417F090909013E41415110
:100A2000737F0808087F00417F41002040413F015B
:100A30007F081422417F404040407F021C027F7F9C
:100A40000408107F3E4141413E7F090909063E41AD
:100A500051215E7F09192946264949493203017F00
:100A600001033F4040403F1F2040201F3F4038408F
:100A70003F631408146303047804036159494D4328
:100A8000007F4141410204081020004141417F04A0
:100A90000201020440404040400003070800205487
:100AA0005478407F284444383844444428384444E7
:100AB000287F385454541800087E090218A4A49CB6
:100AC000787F0804047800447D40002040403D00C9
:100AD0007F1028440000417F40007C047804787C2B
:100AE000080404783844444438FC18242418182492
:100AF0002418FC7C08040408485454542404043F7B
:100B000044243C4040207C1C2040201C3C40304081
:100B10003C44281028444C9090907C4464544C44AD
:100B2000000836410000007700000041360800024E
:100B3000010204023C2623263C1EA1A161123A4078
:100B400040207A38545455592155557941215454EF
:100B50007841215554784020545579400C1E5272EA
:100B600012395555555939545454593955545458C6
:100B70000000457C410002457D420001457C40F07B
:100B8000292429F0F0282528F07C545545002054CC
:100B9000547C547C0A097F493249494932324848D9
:100BA0004832324A4848303A4141217A3A4240205C
:100BB00078009DA0A07D39444444393D4040403DEB
:100BC0003C24FF2424487E4943662B2FFC2F2BFF17
:100BD0000929F620C0887E09032054547941000079
:100BE000447D413048484A32384040227A007A0AEF
:100BF0000A727D0D19317D2629292F2826292929B8
:100C00002630484D402038080808080808080838E9
:100C10002F10C8ACBA2F102834FA00007B0000084F
:100C2000142A142222142A14089500220095AA00DE
:100C30005500AAAA55AA55AA000000FF00101010DE
:100C4000FF00141414FF001010FF00FF1010F0102C
:100C5000F0141414FC001414F700FF0000FF00FF50
:100C60001414F404FC141417101F10101F101F1478
:100C700014141F00101010F0000000001F101010BE
:100C8000101F10101010F010000000FF10101010B6
:100C90001010101010FF10000000FF140000FF00E3
:100CA000FF00001F10170000FC04F41414171017A5
:100CB0001414F404F40000FF00F7141414141414B2
:100CC00014F700F7141414171410101F101F141425
:100CD00014F4141010F010F000001F101F0000009A
:100CE0001F14000000FC140000F010F01010FF10A2
:100CF000FF141414FF141010101F00000000F01057
:100D0000FFFFFFFFFFF0F0F0F0F0FFFFFF0000003B
:100D10000000FFFF0F0F0F0F0F38444438447C2AA8
:100D20002A3E147E02020606027E027E02635549B6
:100D300041633844443C04407E201E2006027E026B
:100D40000299A5E7A5991C2A492A1C4C7201724CEC
:100D5000304A4D4D303048784830BC625A463D3EAE
:100D6000494949007E0101017E2A2A2A2A2A44444F
:100D70005F444440514A444040444A51400000FFCF
:100D80000103E080FF000008086B6B083612362470
:100D900036060F090F06000018180000001010009A
:100DA0003040FF0101001F01011E00191D17120034
:100DB0003C3C3C3C0000000000F0F89C8E878387A0
:100DC0008E9CF8F00000FEFF0303030303070EFCF4
:100DD000F80000FEFF0303030303070EFCF8000006
:100DE000FFFF00000000000000FFFF0000FEFF8387
:100DF00083838383C7EE7C380000F8FC0E0703036F
:100E000003070EFCF800003F7FE0C08080C0E07F59
:100E10003FFFFF01010101010101FFFF0000FFFF92
:100E20000C0C0C0C1C3E77E3C100007FFFC0C0C05F
:100E3000C0C0E0703F1F00001F3F70E0C0C0C0E0B6
:100E4000703F1F00007FFFC1C1C1C1C1E3773E1CDD
:100E500000001F3F70E0C0C0C0E0703F1F000000F6
:100E6000000001FFFF010000008D14A1C881CFD94F
:100E7000F102AFFFCFFFFFCFFF83CFFF83CFFFFF95
:100E8000CFFFFFCFFFFF03FFFF03CFFFFFCFFFFF2A
:100E9000CFFFFFCFFFFFFFFFCFFFFFCFFF83CE0FBF
:100EA00083CE0FFFCFFFFFCFFFFF03FFFF03CFFF77
:100EB000FFCFFFFFCFFFFFCFFFFFFFFFCFFFFFCF32
:100EC000FFCFCF83CFCF83CFCFFFCFCFFFCF03FFD6
:100ED000FF03CFFFFFCFFFFFCFE0FFCFE0FFFFFF1C
:100EE000CF9FFFCF9FCFCF83CFCF83C1CFFFC1CFC6
:100EF000FFCF000FFF000FFFFFCFFFFFCFE0FFCFBF
:100F0000E0FFFFFFCFFFFFCFFF83CF8383CF83CFF0
:100F1000CFFFCFCFFFCF03FFCF03CFCF3FCFCF3F09
:100F2000CFC03FCFC03FFFCFCFFFCFCFFF83CF8317
:100F300083CF83FFCFCFFFCFCFFC03CFFC03CFFC0A
:100F4000FFCFFCFFCFC0FFCFC0FFFFFFFFF3FFFFCE
:100F5000F3800FC3800FC3FFCFFFFFCFFF0303CF8B
:100F60000303CF3FFF033FFF03003FCF003FFF1CC2
:100F700010005C28015C1000243001010100000118
:100F80000101000101010101010101010101010152
:100F900001010101010101D5F8F4EA547A556874A0
:100FA0007A546A5578746A547A5568747A546A55D2
:100FB00078746A547A5568F4FAD4EAFF01000202A0
:100FC00082FE82020288FA8000F8100808F00018F9
:100FD00060C03888A0A8A828282808080801FFFFB2
:100FE0000004040414141454545050440404FC0425
:100FF0000404F022120110F4000020505090000070
:101000000000FFFF00000000804040004040C04062
:101010004001814140800100C0404181014041C107
:10102000414000000000FFFF000000000112120C10
:1010300000001F0000001F02021F00001F060A110F
:101040000000001F000000000000FFFF000000F093
:10105000B0508888C8505020206060B090101808A8
:101060009898A4E446E4E4E8F8F0F0000000FFFFFC
:1010700000000003060D1A3F6BD6AA54F8FCFCFED4
:10108000FEAB7F7F3F3F1F0F0D07070303010100EA
:101090000000FF1F3C3838303030303030303133D2
:1010A0003733313130303030303030303030303034
:1010B00030303038383C1F1E01030404040404049B
:1010C00004040404040404040404040404040404E0
:1010D000040404040404031E01FE010101010101D2
:1010E00001010101010101010101010101010101F0
:1010F000010101010101FEFC02F9F51D0D0D0D0DAF
:101100000B071F3F202F2F3F223F203933203F2046
:101110002A2E3F2D2A2A361F070B0D0D0D0D1DF50A
:10112000F902FCF800400040400040400040400010
:1011300040400040400040400040400040400040EF
:1011400040004040004040004000F8FC02F9F51D1E
:101150000D0D0B071F3F2D2A2A363F312E2E3F3112
:101160002E2E313F203A322D3F202A2E3F1F070BD3
:101170000D0D1DF5F902FCFF007FBFE0C0C0C0C02F
:10118000C0C0C0C0C0C0C0C0C0C0C0C0C0C0C0C05F
:10119000C0C0C0C0C0C0C0C0C0C0C0C0C0C0E0BF30
:1011A0007F00FFFF000000000000000000000000C2
:1011B000000000000000000000000000000000002F
:1011C00000000000000000000000FFFF007FBFE003
:1011D000C0C0C0C0C0C0C0C0C0C0C0C0C0C0C0C00F
:1011E000C0C0C0C0C0C0C0C0C0C0C0C0C0C0C0C0FF
:1011F000C0C0E0BF7F00FF0001FA5A7A5ADA5A7A7B
:101200005ADA5A7A5ADADA7A5ADA5A7A5ADA5A7A3E
:101210005ADA5A7A5ADA5A7A5ADA5A7A5ADA5A7AAE
:10122000FA0100FF000000000000000000000000C4
:1012300000000000000000000000000000000000AE
:1012400000000000000000000000FF0001FAFA5A50
:101250005A5A7A5A5A5A7A5A5A5A7A5A5A5A7A5A6E
:101260005A5A7ADADA5A7A5ADA5A7A5ADA5A7A5A5E
:10127000DA5A7A5AFA01000000FF557755DD5577A2
:1012800055DDF5FF3F07E0FCBCE081071D7DD5770C
:1012900055DD557755DD557755DD557755DD557756
:1012A000FF0000FF00000000000000000000000040
:1012B000000000000000000000000000000000002E
:1012C00000000000000000000000FF0000FF00FE22
:1012D000FD070303030303030303030303030303E0
:1012E00007FDFE0001FFF7D5DDD5F7D5DDD5F7D534
:1012F000DDD57755FF00000000FF557755DDF57F00
:101300003F8FC3F0DCBFF7EFFDEAD7BCF0408107A9
:101310001D753F87F181030F35DD557755DD557715
:10132000FF0000FF000000000000000000000000BF
:1013300000000000000000000000000000000000AD
:1013400000000000000000000000FF0000FF00FFA0
:10135000FF00000000000000000000000000FC7E14
:10136000C25E7E42525A7E625E627E42525A7EC2A5
:101370005EFC0103FF00000000FF557755DF577C3E
:10138000F8E1042AEEDA4E0A0A0E1AAE0A0501C086
:1013900060786F5F7E756F5860C0030F75DD55779D
:1013A000FF0000FF0000000000000000000000003F
:1013B000000000000000000000000000000000002D
:1013C00000000000000000000000FF0000FF787334
:1013D000E5676666E666666EFEFE0E06C600FFFF01
:1013E00080000000000000000000000000000080FD
:1013F000FFFF0000FF000000000F1517951D159757
:101400001F9F0009BF3A9520009100AA00008002AA
:1014100085372D9507850D37850280181C9F151778
:101420000F0000FF000000000000000000000000AE
:1014300000000000000000000000000000000000AC
:1014400000000000000000000000FF00000F171562
:101450009D1517951D9517157F3F80001D94199AAE
:10146000131393139313177F3F870313931393134C
:10147000129110180F000000000000060F0D1F1D34
:10148000161F1D1F1D363F3D7F7D76FFFDFFFD763C
:101490007F7D3F3D361F1D1F1D161F1D0F0D0600B2
:1014A000000000FF8080808080808080808080803D
:1014B000808080808080808080808080808080802C
:1014C00080808080808080808080FF000000000617
:1014D0000F0D1F1D161F1D1F1D363F3D7F7D76FF03
:1014E000FDFFFD767F7D3F3D361F1D1F1D161F1D15
:1014F0000F0D06000000008004F804020101F9F558
:10150000F505F5F5FDFDDD15FDFDFD0DEDEDED1D23
:10151000FD0DFDFDFD0DFDF90101010101010103BD
:10152000060CF8F80C060301F90515F51505D505A7
:10153000F525E50535C53505F9F101010101010183
:101540000101010101010101010103060CF8F80C80
:1015500006030101050505FD05050511F50101F16C
:10156000211111E10131C18171114151515151518B
:101570001111110101010204F8FF000000000387AE
:101580008744C7878707F7FC1FDFDFBC7FFF1FDCAF
:10159000DFBE6DED6DF0FFF770F030D0D0D0B0E071
:1015A0000000FFFF0000000083842415140405F8E8
:1015B000017C1508007D4000781579013945B90195
:1015C0003D413D017D554501FEFC000000FFFF004F
:1015D000000000000808292929A8A8A1A189080954
:1015E000F8080809E044240320E9010141A0A020F3
:1015F0000000000000000000FFFF000000040607DC
:101600000F0F0F0E04001F3F202F2F37383F202FC2
:101610002F37383F302F2F2F203F302F2D2D311FC8
:101620000000FFFF00E0E0E3C7C603F0F8F8F0F0C9
:10163000D1CBFBF30303F3FBFBB3F3D38BFBF3033C
:1016400003F3FBFBB3F3D30BFAF1000000FFFF0041
:10165000000000000000000000E0A0E00000000228
:10166000030238383BF8F8F83A3B3A00020202012C
:101670000000000000000000FF1F204080808080EC
:101680008080808EBF9F9FBF9A8088888484889046
:1016900090888080A6BD8FADBF868080808080C00E
:1016A00060301F1F3067CF9FBFBFBEBCBBB7BBBD85
:1016B000BBB7BBBCBCBCBCBBB7BBBDBBB7BBBCBE7C
:1016C000BEBCBBB7BBBDBBB7BB9CCE66301F1F301B
:1016D00060C080808080808080BFADBFB8A8B8BF68
:1016E000ADBFB8A8B8818181B8A8B8BFADBF8080B0
:1016F00080808080808040201F090200E8DCDFDCE1
:10170000E800000000050F0F0F0D0C0800007ABF65
:10171000BFBF7B0301000001030F030100000000B5
:10172000E8DCDFDCE800000000020707070606042B
:10173000000074BEBEBE760602000001030F030166
:1017400000000000D0B8BEB8D000000000020707BB
:10175000070606040000B4DEDEDEB6060200000066
:101760000107010000000000A0707C70A0000000D4
:101770000002030303020200000054ECECEC5404EA
:101780000000000000030000000000000000000056
:101790000000000000000000000000000000000049
:1017A0000000000000000000000000000000000831
:1017B0000B00020202000009040000010202000006
:1017C000052400100105240101010424020605245A
:1017D0000600010705810310004009040100020A08
:1017E00000000007050202400000070583024000D8
:1017F000000403090412010002EF020140412336F4
:101800008000010102030141726475696E6F204C12
:101810004C43004142413131303600004E29112401
:101820001FBECFEFDAE0DEBFCDBF11E0A0E0B1E038
:10183000E8EBFDE602C005900D92AC35B107D9F793
:1018400029E0ACE5B1E001C01D92A232B207E1F798
:101850001CE0CFE0DCE004C02197FE010E94D436FA
:10186000CE30D107C9F70E947F290C94DA360C9448
:101870000000E7E9F4E030EB20E146E05C983EBD93
:101880004A95F1F72EBD20E8239507C04491408189
:101890005C9A4EBD8111412D419344912A95B1F737
:1018A0003395383B49F70DB40895FC0180918D04C0
:1018B000882311F13FB7F89482E08093E9002091EA
:1018C000F200822F90E01816190614F481E090E0DF
:1018D000882339F0289844E640938C044091F10025
:1018E0004083222339F02091F200211103C02BE61E
:1018F0002093E8003FBF08958FEF9FEF08952FB723
:10190000F89483E08093E9009091E800892F807239
:1019100095FF04C09091F20080E4891B2FBF0895C9
:101920008091840481110DC082E08093800484E062
:1019300080938104109283041092820481E080934A
:10194000840480E894E00895CF93DF931F92CDB78D
:10195000DEB76983DC01ED91FC910280F381E02D1B
:1019600041E050E0BE016F5F7F4F09950F90DF911E
:10197000CF91089583E08093E9008091F20088235D
:1019800019F08AE38093E80008950E947F0C90E0AC
:101990000895CF93DF931F92CDB7DEB7FC01848506
:1019A000958597FD08C02FEF3FEF358724870F906F
:1019B000DF91CF910895CE0101960E94550C0197B9
:1019C00019F4898190E0F3CF8FEF9FEFF0CF0F9361
:1019D0001F93CF93DF931F92CDB7DEB78C01FC012D
:1019E0008485958597FF0BC0CE0101960E94550C0A
:1019F000019771F4898190E0F80195878487F80157
:101A0000848595850F90DF91CF911F910F91089557
:101A10008FEF9FEFF1CFFC018485958597FD0BC07B
:101A20009FB7F89482E08093E9008091F2009FBF15
:101A300090E0019608959FB7F89482E08093E900C2
:101A40008091F2009FBF90E0089540917A045091F8
:101A50007B04209178043091790442175307B4F441
:101A60009091E8009570E1F39091E80092FD19C023
:101A70008093F10080917A0490917B0401968F739A
:101A80009927892B19F48EEF8093E80080917A04CE
:101A900090917B04019690937B0480937A0481E07B
:101AA000089580E00895DF92EF92FF920F931F93C5
:101AB000CF93DF93D82E8A01EB017B01E40EF51E54
:101AC000CE15DF0559F0D7FE12C0FE0184910E94A9
:101AD000250D21968111F4CF0FEF1FEFC801DF9183
:101AE000CF911F910F91FF90EF90DF900895888123
:101AF000EECF0F931F93CF93DF931F92CDB7DEB737
:101B000082E0898342E450E06FEA77E180E80E9456
:101B1000530D0E94900CDC0112960D911C91011541
:101B2000110589F0D801ED91FC910280F381E02D3F
:101B3000BE016F5F7F4FC801099597FD04C0F80192
:101B400000851185ECCF89810F90DF91CF911F9196
:101B50000F910895615030F02091F100FC01208335
:101B60000196F8CF289884E680938C040895089510
:101B7000AF92BF92CF92DF92EF92FF920F931F939B
:101B8000CF93DF936C017B018B01040F151FEB01D9
:101B90005E01AE18BF08C017D10759F06991D60190
:101BA000ED91FC910190F081E02DC6010995892B02
:101BB00079F7C501DF91CF911F910F91FF90EF90C1
:101BC000DF90CF90BF90AF900895FC010E947C0EF3
:101BD000319728F068517C4F8F4F9F4FF9CFAB0161
:101BE000FC010E947C0E641775078E079F07C8F3DF
:101BF00008958F929F92AF92BF92CF92DF92EF9211
:101C0000FF920F931F93CF93DF936C017B018A01A7
:101C100080910C01882309F45AC080918D04882397
:101C200009F455C080917F0480FF05C08091E000D9
:101C300082608093E000E801B12C8AEFA82E93E047
:101C4000892E2AE3922E209711F4BB20C9F10E941D
:101C50007F0C811108C0AA94AA20C9F181E090E00C
:101C60000E94E50DF0CF8C171D0611F00CF08C2FA3
:101C70009FB7F8948092E9002091E80025FD02C00A
:101C80009FBFE1CF282F30E0C21BD30BF70181505B
:101C900020F041914093F100FACFE20EF31EBB20F9
:101CA00021F09092E800B12CEBCF8091E80085FD07
:101CB000E7CF9092E800BB24B394209709F3F3CFC9
:101CC0005D9884E680937E04101611063CF081E056
:101CD00090E0F6019383828310E000E0C801DF9179
:101CE000CF911F910F91FF90EF90DF90CF90BF9019
:101CF000AF909F908F900895A6E9B3E02FB7F89426
:101D00007D918D919C9166B52FBFA89B05C06F3FBB
:101D100018F47F5F8F4F9F4F22E0660F771F881F59
:101D2000991F2A95D1F708952D9A089590E00C9463
:101D3000E50D8FB18095807F669B88601C9B8460D9
:101D400008958EBD00000DB407FEFDCF08952F92BB
:101D50003F924F925F926F927F928F929F92AF923B
:101D6000BF92CF92DF92EF92FF920F931F93CF9388
:101D7000DF93CDB7DEB72B970FB6F894DEBF0FBE5B
:101D8000CDBF9C838B836A3061F5DC0155968C91C5
:101D9000B8E08B9F90011124EB81FC8181899289AD
:101DA000820F931F928B818B108A178681E090E0BF
:101DB0002B960FB6F894DEBF0FBECDBFDF91CF914B
:101DC0001F910F91FF90EF90DF90CF90BF90AF9059
:101DD0009F908F907F906F905F904F903F902F904B
:101DE00008956D3019F3AB81BC8155969C90559741
:101DF00054965C9054975D8253964C9053975196AD
:101E0000ED90FC9052971F968D919C91092D10E0BA
:101E1000803891050CF084C020E4E216F1040CF047
:101E20007FC0E5E09C019E9E200D311D11241216FD
:101E300013060CF075C09801F3E0220F331FFA95DA
:101E4000E1F72E0D3F1D121613060CF069C06E9FB0
:101E5000F0011124BF016754774F7F836E83AC017B
:101E6000712CEE81FF812491F5E07F1201C020E00A
:101E7000670178E0672E222E312C842C20FF8D8084
:101E8000811004C05D80541409F437C09A0129837D
:101E9000622F641B691508F030C01B861A866A859C
:101EA000691540F520383105F0F4AA84BB84AC0CE8
:101EB000BD1C70E4A716B104B0F4F50170E15980BF
:101EC00061E0E1FD64E0E0FD660FE2FD6295E87F20
:101ED0007E9FD0011124A50DA956BB4F0C90062A58
:101EE00080FE06260C926A857B856F5F7F4F7B871D
:101EF0006A87D5CF2F5F3F4FCACF91013595279580
:101F00006A94C00ED11E6110B6CF7394EE81FF812A
:101F10003196FF83EE83400F511FF6E07F12A1CF71
:101F200026E0929E800D911D1124AB81BC815096BC
:101F30009C938E931F9756962C915697222309F4C3
:101F400035CF4AEF40039001419F300D11242058B6
:101F50003F4F281739070CF029CFCD01ED91FC91A7
:101F60000190F081E02D6AE0099520CF0895089551
:101F700090E080E00895CF92DF92EF92FF920F936E
:101F8000CF93DF93F701A4913196B49150E0082EDE
:101F9000000C990BCA2FD0E0FE013197E80FF91F12
:101FA000E417F507ACF14817590794F130E0062E15
:101FB000000C770B261737075CF1EB2FE150FF0B76
:101FC000E60FF71FE217F3071CF1261B370B2C9FB8
:101FD000F0012D9FF00D3C9FF00D1124481B590B73
:101FE000E40FF51FAB9FD00111240A9FC0010B9F86
:101FF000900D1124E80FF91F3296EE0DFF1D84910C
:10200000DF91CF910F91FF90EF90DF90CF900895E7
:1020100080E0F6CF8F929F92AF92BF92CF92DF92E5
:10202000EF92FF920F93CF93DF93F70134913196A4
:10203000E491A32EB12C50E0082E000C990BD50191
:102040001197A80FB91FA417B5070CF463C0481760
:1020500059070CF45FC0862E062E000C990873E019
:10206000959487947A95E1F7281519040CF452C0D9
:10207000D401AE0FB11DB7FD4DC0E39FF001112497
:102080006F017FEFC71AD70A0E9FE0010F9FD00D97
:10209000112428196770481B590B2303D001112400
:1020A000FA01EA0FFB1F329680E0CE16DF0650F0F1
:1020B000EC0FFD1FEE0DFF1D8491062E01C0880F51
:1020C0000A94EAF71216D4F4AA19BB094A0F5B1F47
:1020D0004E5F5F4FFE01E40FF51FEE0DFF1DE49113
:1020E000C416D50658F0F0E028E030E0261B310990
:1020F00002C0F595E7952A95E2F78E2BDF91CF91F7
:102100000F91FF90EF90DF90CF90BF90AF909F9096
:102110008F90089580E0F2CFCF93DF931F92CDB7D9
:10212000DEB719E2412E13E0512E0E94990E83FF73
:1021300092C010929A0810929B08109298081092E0
:102140009708109299081092A4081092A70810926C
:10215000A908E7E6F1E0A1E0B3E085E128E096E335
:1021600014961C9214978C9311962C9311971482A9
:10217000808391831596855F35968D3689F78FEF2D
:1021800080930F03809375018093140380937A01E9
:102190008093190380937F0180931E0380938401B1
:1021A00010922F0310923A0310924503109250039D
:1021B00010925B03109266031092710310927C03DD
:1021C0000E945F2210928F010E94322380E00E94C1
:1021D0008F216AEF84E60E9476266AEF84E10E94EE
:1021E000762668EE73E080E090E00E94611A0E941B
:1021F000BE2868EE73E080E090E00E94611AFF2440
:10220000F394B3E82B2EB3E03B2E0E94990E86FF89
:102210008CC08091B7089091B908903224F421E0E5
:10222000290F2093B908292F092E000C330B280FF2
:10223000311D87FD3A9537FD25C0890F20323105C4
:102240000CF498C080528093B7088091B2088F5FD9
:102250008093B20819C00E94990E82FD6ACF83E074
:102260000E948F2166E170E080E090E00E94611A98
:1022700080918F01882321F0815080938F0155CF69
:1022800086E1FBCF0E94DC190E9471190E9406248E
:102290000E94990E87FF7AC09091B8088091BA0881
:1022A000813E24F02FEF280F2093BA08282F082E04
:1022B000000C330B290F311D97FD3A9512161306AA
:1022C0000CF461C0890F213E3F4F0CF059C0805E75
:1022D0008093B8088091B30881508093B3088FEF42
:1022E0008093B5080E9471190E9406240E94990EDD
:1022F00083FF7CC08091AD089091AE08892B09F4D2
:1023000079C080918703811175C01091B308009145
:10231000B50864E088EC0E947626F09287031E5F81
:10232000109384030093860365C00E94990E85FF75
:1023300024C09091B7088091B908813E24F02FEF16
:10234000280F2093B908282F082E000C330B290FD3
:10235000311D97FD3A95121613060CF493CF890F91
:10236000213E3F4F3CF4805E8093B7088091B208D5
:1023700081506ECF8093B70887CF0E94DC1988CF39
:102380008093B808ACCF0E94A919A9CF0E94990EDA
:1023900084FF29C09091B8088091BA08803224F453
:1023A00021E0280F2093BA08282F082E000C330BA9
:1023B000290F311D97FD3A9537FD12C0890F203244
:1023C00031055CF080528093B8088091B3088F5F2C
:1023D0008093B308F092B50885CF8093B808FACF00
:1023E0000E94A919F7CF0E94A91980CF0E94990EC7
:1023F00082FD80CF8091A008811129C00BE213E0FB
:10240000F8018181823114F4128202C08E32E4F725
:10241000F8018481813069F48285882309F4C5C17B
:10242000C8010E94E123C8010E94E123C8010E9463
:10243000E123055F1F4FF3E003381F0709F7809181
:102440009E08882309F410C2815080939E088091D1
:102450009E08811151C020919F08222309F44CC08D
:10246000EBE2F3E090E080E03481311100C25C01E6
:102470000FEFA01AB00A37853111F9C1215020930E
:102480009F081BE0189F9001199F300D1124C9016E
:10249000855D9C4F6C010E9410241A9DC0011B9DFC
:1024A000900D11248C01055D1C4FC8010E94102461
:1024B000F801F186F6018285855FF8018287F601D1
:1024C0008081855FF8018083F6018181F801818335
:1024D000F6018281F8018283F6018381F80183830A
:1024E000F6018581F8018583F6018681F8018683EE
:1024F0008091A50880939E0880918703181654F454
:1025000080918403909186039F3F09F4B7C1913075
:1025100009F4B8C1809184038950803310F010927F
:10252000870380916501EE24E394E80E873008F07C
:10253000E12CE09265018E2C912CF5E0EF9EC0011C
:1025400011248C0109591E4F38019C012F5F3C4F0B
:1025500059015BE2C52E53E0D52E8601F801848136
:10256000882341F18081418161E0640F4A5F90914D
:10257000B2089D5F25E0280F29170CF485C1981734
:102580000CF482C19091840349170CF47DC1995FCA
:1025900096170CF479C180918703813059F4148225
:1025A0000E9494230E94322382E00E948F2182E0C5
:1025B00080938703055F1F4F2016310679F6F5E0FB
:1025C000F89D9001F99D300D1124F901EF5FFC4F4A
:1025D0009091AA088481980F9093AA0829593E4F98
:1025E0008091AB08F9012481820F8093AB08F7E05A
:1025F000EF121CC0992341F0811106C080919C0804
:10260000813011F40E9446228091AA0881110AC0EB
:102610008091AB08882331F080919C08811102C021
:102620000E9446221092AA081092AB081982E090EC
:10263000A008EE20F9F08091A808E81608F431C14E
:10264000A7E6B1E0E1E0F3E08481823009F414828E
:1026500014968C911497823019F414961C92149746
:102660003596159623E0E932F20771F71092A0082B
:102670000E9446228091A30881114EC19091A60824
:10268000913009F03EC09091A108933010F481E0A0
:10269000890F8093A108E0916601EB300CF03AC1FC
:1026A000EF5FE09366010E2E000CFF0BE558FA4F2A
:1026B000E49190E0880F991F2BE0289FD001299F7B
:1026C000B00D1124A55DBC4F14962C9114972130A8
:1026D00029F41296EC93129715961C9201962BE012
:1026E000289FD001299FB00D1124A55DBC4F1496E1
:1026F0008C911497813029F41296EC9312971596C9
:102700001C928091A2088093A30880919F08811158
:1027100062C2F6019481911181E0FBE0CF0ED11CE1
:10272000C016D106B1F7811156C210928703F092FC
:10273000A4088091AC08843008F036C114E081E030
:102740000E948F210E94AE2881E00E9494230E9463
:10275000322382E00E948F218091C4039091C503AF
:10276000A091C603B091C7034091C0035091C1032B
:102770006091C2037091C3035C016D01A41AB50A94
:10278000C60AD70AB601A5014A355105610571058A
:1027900008F0C4C00E94791A6093C4037093C50303
:1027A0008093C6039093C703D7CF82818F3F69F18F
:1027B000813049F4C8010E94C823F8018081A6E055
:1027C000AA2E85375CF5F80183818F3F61F1813056
:1027D00009F02FCE968180919D08282F082E000C9D
:1027E000330B290F311D97FD3A952C333105C4F079
:1027F0008C53890F868381818F5F8183F80181816A
:102800008D330CF416CE148214CEC8010E94B0236E
:10281000F80180818630BCF674E7A72EA082D3CF62
:10282000890F8683EBCF868190919D08282F082EF3
:10283000000C330B291B310997FD3395253C3F4F85
:102840007CF46CE3A62EA91A8A0DF8018683818197
:1028500081508183F801818118160CF4EACDD3CF21
:10286000891BF8018683F6CF8091A508EECD769678
:1028700002968830910509F0F7CD3ECE82508093C4
:10288000840348CE8E5FFBCF90919C08992329F05A
:10289000913009F08FCE930101C095010E940F1A6B
:1028A00089CE80919C08882349F08130E9F0E39437
:1028B000E092A00889818111DDCED8CE41E0A42E1E
:1028C00043E0B42EF5018481823029F4B501CE01B4
:1028D00001960E94E51AF5E0AF0EB11C29E2A2169E
:1028E00023E0B20679F7E3CF37E6A32E31E0B32E2B
:1028F000F5018481823029F4B501CE0101960E9450
:10290000E51AF5E0AF0EB11C2FE8A21621E0B206E1
:1029100079F7CDCFE0E0C5CE8150F5CE8093C003EE
:102920009093C103A093C203B093C303115009F065
:1029300006CF8091AC088F5F8093AC0881E00E9445
:102940008F210E94AE288091C4039091C503A0916D
:10295000C603B091C7034091C0035091C103609179
:10296000C2037091C3038C019D01041B150B260B40
:10297000370BB901A8014A3551056105710558F4B5
:102980000E94791A6093C4037093C5038093C603B1
:102990009093C703D8CF8093C0039093C103A093B3
:1029A000C203B093C303C5CE81E00E948F2168ECBF
:1029B00070E080E090E00E94611A01E013E0EE24F4
:1029C000EA94F80184818130F1F51092A408E48240
:1029D00082E00E9494230E94322380E00E94B62865
:1029E00081E00E948F218091C4039091C503A09142
:1029F000C603B091C7034091C0035091C1036091D9
:102A0000C2037091C3035C016D01A41AB50AC60A22
:102A1000D70AB601A5014A3551056105710558F47B
:102A20000E94791A6093C4037093C5038093C60310
:102A30009093C703D8CF8093C0039093C103A09312
:102A4000C203B093C3030B5F1F4F4016510609F03A
:102A5000B8CF07E611E0EE24EA94F80184818130D2
:102A6000F1F51092A408E48282E00E9494230E946F
:102A7000322380E00E94B62881E00E948F2180915D
:102A8000C4039091C503A091C603B091C7034091C0
:102A9000C0035091C1036091C2037091C3035C01F4
:102AA0006D01A41AB50AC60AD70AB601A5014A35AE
:102AB00051056105710558F40E94791A6093C403A9
:102AC0007093C5038093C6039093C703D8CF8093B8
:102AD000C0039093C103A093C203B093C3030B5FE1
:102AE0001F4F21E00F38120709F0B7CF8091A408DB
:102AF000882329F080919A0881111092A40890915E
:102B0000A4089111A2C080919908803108F08FE04B
:102B10008F5F809399088091A708853010F491E029
:102B2000980F9093A7080E945F2260E971E080E00F
:102B300090E00E94611A0E94BE2860E971E080E086
:102B400090E00E94611A87E6A82E81E0B82E91E0FD
:102B5000892E93E0992E65018401F801808D8823E8
:102B600071F1F501808D811106C0C50144960E9466
:102B7000862881112AC0F4018389811106C0C4010D
:102B80000F960E948628811120C0F6018389811149
:102B900006C0C6010F960E948628811116C00B5FE1
:102BA0001F4FF5E0CF1AD10825E0821A910835E0D1
:102BB000A30EB11C43E00531140779F606C0C80125
:102BC00044960E948628882361F260E971E080E0E3
:102BD00090E00E94611A8091A908823009F45AC0DD
:102BE000833009F472C081114DC0809100038F259C
:102BF0008093000380E00E948F218091C403909114
:102C0000C503A091C603B091C7034091C003509182
:102C1000C1036091C2037091C3035C016D01A41AEA
:102C2000B50AC60AD70AB601A501483251056105A1
:102C3000710500F50E94791A6093C4037093C5036F
:102C40008093C6039093C703D8CF80E00E948F2162
:102C500013E160E584E00E94762660E584E60E9448
:102C600076261150B1F768EE73E080E090E00E94A4
:102C7000611A5BCA8093C0039093C103A093C203FF
:102C8000B093C3038091A908853048F58F5F809386
:102C9000A908BBCA8091AD089091AE08009791F049
:102CA00001979093AE088093AD088091B10881118F
:102CB00002C00E94161B8091B1088111E3CF0E94CF
:102CC000161BE0CF90E080E0ECCF8091B108882324
:102CD00021F081508093B108D5CF88E0FBCF80E010
:102CE000D6CF1F920F920FB60F9211248F939F93FE
:102CF0008091E1009091E100937F9093E10083FF48
:102D00000FC01092E90091E09093EB001092EC005C
:102D100092E39093ED0010928D0498E09093F00070
:102D200082FF22C093E09093E9009091F2009923F2
:102D300019F09AE39093E80090917E04992341F072
:102D400090917E04915090937E04911101C05D9A00
:102D500090918C04992341F090918C049150909320
:102D60008C04911101C0289A84FF18C08091E20060
:102D70008E7E81608093E2008091E1008F7E80935F
:102D8000E10080917F048E7E806180937F049F911B
:102D90008F910F900FBE0F901F90189580FFF7CF67
:102DA0008091E2008E7E80618093E2008091E1005C
:102DB0008E7E8093E10080917F048E7E8160E5CFDE
:102DC0001F920F920FB60F921124CF92DF92EF92C3
:102DD000FF920F931F932F933F934F935F936F93A4
:102DE0007F938F939F93AF93BF93EF93FF93CF9373
:102DF000DF93CDB7DEB76C97DEBFCDBF1092E90091
:102E00008091E80083FF25C068E0CE0145960E94CE
:102E1000AA0D82EF8093E8008D8987FF39C09091D9
:102E2000E80090FFFCCF982F907609F034C19E897E
:102E30004F89588D2F89F88C911131C0803861F5F8
:102E400080917D048093F1001092F1008EEF8093C9
:102E5000E8006C960FB6F894DEBF0FBECDBFDF91D1
:102E6000CF91FF91EF91BF91AF919F918F917F9102
:102E70006F915F914F913F912F911F910F91FF9013
:102E8000EF90DF90CF900F900FBE0F901F9018958E
:102E90009EEF9093E800C7CF1092F100D5CF91300C
:102EA00059F48111D3CF4130510581F680917D04D1
:102EB0008D7F80937D04CACF933049F48111C6CFB2
:102EC0004130510519F680917D048260F2CF953032
:102ED00041F48091E80080FFFCCF20682093E3005C
:102EE000B5CF963009F0A9C00B8D1C8D22E0109251
:102EF000E90010927B0410927A04F2122EC0109214
:102F00007904109278040E94790D1F8299E09983C8
:102F1000FA8291E09E8390EA98879AEF99872091B0
:102F20007A0430917B04275F3F4F3C832B838D8352
:102F30001092E90010927B0410927A0410937904A5
:102F40000093780449E050E0BE016F5F7F4F80E05E
:102F50000E94530D0E94790D79CF1093790400934C
:102F600078040E94900CDC0112960D911C910115C1
:102F7000110509F451C1D801ED91FC910480F5814E
:102F8000E02DBE016B5E7F4FC8010995009709F0E7
:102F90003EC1F80100851185EACFF3E0FF120EC0B3
:102FA0008F89882309F440C0823061F440E867E0EB
:102FB00083E198E10E942E1A811148CF81E280932B
:102FC000EB0047CF813029F440E86BE087E098E1DF
:102FD000F1CF833099F70E94900CDC011296ED90AE
:102FE000FC908E010F5F1F4F6801E114F10479F02E
:102FF000D701ED91FC910680F781E02DB801C70162
:103000000995080F111DF701E084F184EECFD80176
:103010001C92F60101900020E9F73197BF016C196D
:103020007D0940E0C601C6CF61EF77E1FB01449125
:1030300050E080E80E94530D09CF973009F4BECFCD
:10304000983021F481E08093F10000CF993009F0AD
:10305000FDCE837009F0B2CFEFE2F1E081E031E024
:1030600096E32191222371F08093E9003093EB00E5
:10307000DF0111972C912093EC009093ED008F5F6E
:10308000873079F78EE78093EA001092EA008F8903
:1030900080938D04DBCE8B8D9C8D1092E900109275
:1030A0007B0410927A049093790480937804898D3C
:1030B000811192C08E899D89913A49F4813209F03B
:1030C0007DCF47E050E065E071E080E0B3CF913222
:1030D00009F074CF833269F48F89988DB0E0A0E055
:1030E0008093010190930201A0930301B093040126
:1030F000ADCE803269F48091E80082FFFCCF67E0BA
:1031000085E091E00E94AA0D8BEF8093E8009ECEAF
:10311000823209F09BCE8F8980930C01EEEFFFE79E
:10312000859194918B3F9C4D51F1E0E0F8E08091C6
:10313000050190910601A0910701B0910801803B23
:103140009440A105B105F1F480910C0180FD1AC0F5
:10315000EE3F8AE0F80789F587E797E79183808358
:103160008091600080937C0488E19BE00FB6F89426
:10317000A895809360000FBE9093600067CEEEEF3D
:10318000FAE0D5CF808191818737974709F05ECEED
:10319000A8958091600088618093600080917C0494
:1031A00080936000EE3F2AE0F20789F08091FE0AEA
:1031B0009091FF0A9183808349CE808191818737E6
:1031C000980751F29093FF0A8093FE0AC5CF1092A0
:1031D000FF0A1092FE0A3ACE0E94900CDC01129671
:1031E0000D911C910115110509F4E8CED801ED915E
:1031F000FC910190F081E02DBE016B5E7F4FC80114
:103200000995811123CEF80100851185EBCF1816A1
:1032100019060CF41BCED2CEF1E0FF12BECE65EF44
:1032200077E104CF0F920FB68F939F93EF93FF93A5
:10323000809191038D5F8D3708F08D5780939103B6
:10324000E2E9F3E080818E4F808391819F4F9183EB
:1032500082818F4F828383818F4F8383E6E9F3E0FE
:1032600080818F5F808381818F4F818382818F4FA7
:10327000828383818F4F83838FB18F6066991C9B7C
:1032800088278F3681F480919003981B963068F0E0
:10329000E0E0F8E087E78083818388E18093600045
:1032A000F0936000FFCF90939003FF91EF919F9177
:1032B0008F910FBE0F901895FC01DB018C91885007
:1032C0002081245130E03595279535952795208329
:1032D000082E000C990B95958795959587958C935D
:1032E00008958091B2088B303CF48BE08093B20853
:1032F0001092B9081092B7088091B2088D363CF050
:103300008CE68093B2081092B9081092B7088091A9
:10331000B30881313CF481E18093B3081092BA087C
:103320001092B8088091B3088A323CF089E2809309
:10333000B3081092BA081092B8088091B30882318D
:1033400024F481E08093B50808958932ECF38FEF7F
:10335000F9CF8091B8089091BA08292F092E000C56
:10336000330B280F311D87FD3A95890F37FD12C0A9
:1033700019161CF491509093BA0820323105CCF004
:1033800080528093B8088091B3088F5F8093B30810
:103390000C94711997FF03C09F5F9093BA08213E68
:1033A0003F4F3CF4805E8093B8088091B308815011
:1033B000EDCF8093B808ECCF8091B7089091B90811
:1033C000292F092E000C330B280F311D87FD3A954C
:1033D000890F37FD12C019161CF491509093B9084B
:1033E00020323105CCF080528093B7088091B2082A
:1033F0008F5F8093B2080C94711997FF03C09F5F91
:103400009093B908213E3F4F3CF4805E8093B7080B
:103410008091B2088150EDCF8093B708ECCFF901CD
:1034200094819130C9F4208158E0520F31E0380F77
:10343000531794F08D5F82177CF0818127E0280F6D
:10344000261754F0481744F08091A008811102C05B
:103450009093A00882E0848380E00895EF92FF9229
:103460000F931F93CF93DF93F82E192FE62E042F7F
:1034700081E0860F880F0E94250D83E00E94250DB4
:10348000CF2DD12FEC0EFD2EF11CCE15DF05B9F09E
:1034900007FF13C0FE0184910E94250D182F80E0C4
:1034A0000E94250D812321968111EFCFDF91CF91CD
:1034B0001F910F91FF90EF9008958881EDCF81E0EB
:1034C000F5CFAB01FC010E947C0E41505109E1098E
:1034D000F10928F068517C4F8F4F9F4FF6CFAB0119
:1034E000FC010E947C0E641775078E079F07C8F3C6
:1034F00008952FB7F894609192037091930380918F
:103500009403909195032FBF0895633110F5A62F72
:10351000062E000CBB0B93E0B595A7959A95E1F7A5
:10352000677020E830E002C0359527956A95E2F78C
:10353000082E000C990BFC01EE0FFF1FE80FF91F7E
:10354000EE5DFB4FEA0FFB1F8081442319F0282B0F
:103550002083089520952823FBCFE0912A03EA30A9
:10356000A8F481E08E0F80932A03A091290385E0BF
:10357000A89FD0011124AF5FBC4F14968C9181306D
:1035800069F4F0E0EF5CF74F84910895809129038E
:1035900010922A038F5F80932903E7CF82309CF03B
:1035A00080910003882359F08091FF02882349F01D
:1035B0008AEAF0E0EF5CF74FE4918E2308958FEFF5
:1035C000F8CF85E5F6CF80E008951F93CF93DF9382
:1035D000EC01DB012C9158E0520F11963C911197B0
:1035E00087E0830FEBE2F3E063E873E0448141306E
:1035F000A9F4908111E0190F511784F09D5F921783
:103600006CF0918111E0190F811744F09A5F9317C4
:103610002CF04883DF91CF911F9108953B966E1750
:103620007F0721F781E014968C93F4CFCF92DF923D
:10363000EF92FF920F931F93CF93DF93C7E9D8E0E8
:10364000088D198D30E020E06E897F8990E080E060
:10365000601B710B820B930B42E0660F771F881F74
:10366000991F4A95D1F76801790122273327A901CB
:103670002C193D094E095F090E9443362D8BDF91BD
:10368000CF911F910F91FF90EF90DF90CF90089511
:10369000DF92EF92FF920F931F93CF93DF93182F38
:1036A000D62ED42F8FE8E82E88E0F82E00918F03D5
:1036B000262F412F67E085E58D0F0E94BB0FC82F95
:1036C00000918E032D2D412F67E089E58D0F0E941B
:1036D000BB0FC82B00918D032D2D412F67E08DE589
:1036E0008D0F0E94BB0FC82B00918C032D2D412FF5
:1036F00067E081E68D0F0E94BB0FC82B00918B0302
:103700002D2D412F67E085E68D0F0E94BB0FC82B42
:1037100000E02D2D412F67E089E68D0F0E94BB0F41
:103720008C2BDF91CF911F910F91FF90EF90DF9045
:103730000895EF92FF920F931F93CF93DF93C82FBB
:10374000809167046AE00E94A636192F95E6E92E5B
:1037500098E0F92E082F25E04C2F69E28DE60E94B3
:103760000A10D82F012F25E04C2F69E282E70E9432
:103770000A108D2BDF91CF911F910F91FF90EF9049
:103780000895CF92DF92EF92FF920F931F93CF9302
:10379000DF93D82F162F88E8C82E83E0D82E95E621
:1037A000E92E98E0F92EF6010281262F4D2F68E0D0
:1037B00080E10E940A10C82FF6010181212F4D2FB0
:1037C00068E084E10E940A10C82BF6010081212FD5
:1037D0004D2F68E088E10E940A108C2BDF91CF9179
:1037E0001F910F91FF90EF90DF90CF9008958F92EF
:1037F0009F92AF92BF92CF92DF92EF92FF920F9380
:103800001F93CF93DF93982E862E88E0689F6001E8
:103810001124CBE2D3E010E0A92CB12C8C818823B9
:1038200039F18881482F082E000C550BA416B506D7
:10383000FCF06981262F062E000C330BF901379717
:10384000CE16DF06ACF0485F5F4F4A155B0584F08B
:10385000285F3F4F2C153D055CF09CE3E92E98E076
:10386000F92E0091A708282D492D0E940A10182B27
:103870002B9683E0C338D80789F6812FDF91CF914B
:103880001F910F91FF90EF90DF90CF90BF90AF907E
:103890009F908F900895CF93209165043091660496
:1038A000C90164E670E00E94C036462FE8E8F3E004
:1038B0006283C4E6C9016C9F8019910911246AE0F2
:1038C00070E00E94C0366183C49F201911248AE0F1
:1038D000689F201911242083CF9108952F923F9241
:1038E0004F925F926F927F928F929F92AF92BF9210
:1038F000CF92DF92EF92FF920F931F93CF93DF93BC
:1039000091EA980F993108F09EC0623008F09BC090
:10391000562E182FC0916804D091690480E1882E3A
:1039200087E2982ECE01B4010E94C0366B015C0183
:1039300095E6E92E98E0F92E062F252D412F68E017
:103940008FE50E940A10482E28EE622E23E0722E88
:10395000C501B3010E94C0365B01062F252D412F02
:1039600068E083E60E940A10482AA69C1001A79CE2
:10397000300CB69C300C1124C89C3001C99C700CD2
:10398000D89C700C1124CE018219930986199709CD
:1039900064E670E00E94C0364B01062F252D412FB2
:1039A00068E087E60E940A10482A34E6D32ED89CA5
:1039B000C001D99C900D11249E01281B390BC9010F
:1039C00082199309861997096AE070E00E94C0364F
:1039D000D62F062F252D412F68E08BE60E940A1076
:1039E000482A0C2F3AE0D39F00191124D89C0019C3
:1039F000112488E1A89E000D1124C29440EFC42236
:103A00000C19252D412F68E08FE60E940A10482AE4
:103A100000E0252D412F68E083E70E940A108429E9
:103A2000DF91CF911F910F91FF90EF90DF90CF909A
:103A3000BF90AF909F908F907F906F905F904F90CE
:103A40003F902F90089580E0EBCF67FD26C08C302B
:103A500030F5633124F5962F977040E850E002C0AE
:103A6000559547959A95E2F7282F880F330B062E28
:103A7000000C770B83E0759567958A95E1F7C9018E
:103A8000880F991F820F931F8E5D9B4F680F791FC0
:103A9000FB019081942381E019F480E0089581E096
:103AA00008952F923F924F925F926F927F928F92E2
:103AB0009F92AF92BF92CF92DF92EF92FF920F93BD
:103AC0001F93CF93DF93182FD62EC62FD0E0FE0181
:103AD000EE0FFF1FE65EFE4F7190C12CA82EB12C99
:103AE000608002ED502E580EC5018452984F4C0153
:103AF000761408F0AFC093E29515E0F0F40144901D
:103B0000672D842D0E94251D813091F4672D660F4D
:103B1000670D6B5F842D880F840D55E0E52E58E00E
:103B2000F52E00E02D2D412F825D0E940A10C82A3B
:103B30007394DECFFE01F695FE2FEE27F795E795FD
:103B4000EA0DFB1DE950FF4EC491C12C1A3508F453
:103B50004DC080917304D0E0A12C863050F4282F02
:103B600030E0F901EC5EFE4FA080225F3E4FF9018C
:103B7000D081382E330C330C380EDA5EC12CB12CC8
:103B8000E0E84E2E512C832C8B0C082C000C99084D
:103B9000C4018752984F4C017CE5272E2A0C712CCA
:103BA000612CF40184919201062C02C03595279571
:103BB0000A94E2F7822361F06CEFE62E67E0F62EBE
:103BC00000E02D2D412F6D2F822D0E940A10C82A52
:103BD000FFEF6F1A7F0A2394239485E0681671041F
:103BE00001F7B394DE5F95E0B912CDCFCC2980EF19
:103BF000810F8D3058F5E1E0ED1540F16D2D812FED
:103C00000E94C11BC82B6D2D812F0E946E1CC82BDA
:103C100083E9810F8A30E0F4F5E0DF1219C0812FCB
:103C20000E94991B8C2BDF91CF911F910F91FF90D8
:103C3000EF90DF90CF90BF90AF909F908F907F904C
:103C40006F905F904F903F902F90089580E0DACF73
:103C500080E0E8CFFE01F695FE2FEE27F795E79579
:103C6000EA0DFB1DE950FF4E8491C82A4CE4A42EB6
:103C700044E0B42EC0E0712C4501D0E0F401808115
:103C80008130A1F46091760465506C0F8D2F880F00
:103C90008D0F9091750420E0E22E28E0F22E00E0D6
:103CA0002D2D412F890F0E940A10782ADF5FF5E041
:103CB0008F0E911CD53011F78FEFA81AB80ACD5F7F
:103CC000CF30D1F68C2D8729AECFEF92FF920F9394
:103CD0001F93CF93DF938038B1F407E911E0C0E080
:103CE0007801D3E56C2F8D2F0E94511DF701808341
:103CF000DF5FF8E0EF0EF11CD038A1F7CF5F0F5F68
:103D00001F4FC83069F7D0E0C0E00C2FCE018150C2
:103D100091407C0110E0602F812F0E94511D0E9474
:103D2000A10E1F5FF8E0EF0EF11C103859F4219638
:103D3000C830D10551F7DF91CF911F910F91FF90BE
:103D4000EF900895133538F3F7018081E8CFBF92E3
:103D5000CF92DF92EF92FF920F931F93CF93DF9357
:103D600090917204692F660F660F690F90E050E022
:103D700040E074E025E0E22EC0E8D0E0062F090F15
:103D8000002E000C110B0752184F30E020E0F72EE8
:103D9000F91A813081F160F1823081F1833091F143
:103DA000F801B490E49ED0011124A45BBB4FA50F91
:103DB000B11D6E01022E02C0D594C7940A94E2F799
:103DC000FB2DFC21E1E009F4E0E0EC932F5F3F4F95
:103DD00025303105F1F69F5F953081F6DF91CF9167
:103DE0001F910F91FF90EF90DF90CF90BF900895BB
:103DF000592F422FD5CF4F2D522FD2CF472F421BB5
:103E00005F2DCECF572F521B492FCACF855234E09A
:103E1000360F63E00E94B236835080934A049923A0
:103E2000F9F081E080936F04832F63E00E94B23643
:103E30002DEF280F20934B04632F330F770B022EA7
:103E4000000C330B2D5F3F4FC901880F991F280FBE
:103E5000391F6217730739F081E080936A0408956F
:103E600010926F04E1CF10926A040895AF92BF924E
:103E7000CF92DF92EF92FF920F931F93CF93DF9336
:103E800000914B04080FB0904A048CE4E82E84E0C3
:103E9000F82EC0E0A02EAC0E6701D0E0F601108134
:103EA000113039F46A2D8B2D8D0F0E94251D811143
:103EB0000DC0DF5FF5E0CF0ED11CD53079F7CF5FB5
:103EC0008FEFE81AF80AC53029F710E0812FDF914B
:103ED000CF911F910F91FF90EF90DF90CF90BF9007
:103EE000AF900895AF92BF92CF92DF92EF92FF9280
:103EF0000F931F93CF93DF93B0904B0400914A042C
:103F0000080F8CE4E82E84E0F82EC0E0AB2CAC0E59
:103F10006701D0E0F6011081113039F46A2D802F4D
:103F20008D0F0E94251D81110DC0DF5FF5E0CF0EC2
:103F3000D11CD53079F7CF5F8FEFE81AF80AC5307A
:103F400029F710E0812FDF91CF911F910F91FF9002
:103F5000EF90DF90CF90BF90AF900895FF920F93B6
:103F60001F93CF93DF93F82E8B01C0E0F80181916E
:103F70008F01813049F4D0E04F2D6C2F8D2F0E949E
:103F8000851ADF5FDC30C1F7CF5FC33179F7DF918E
:103F9000CF911F910F91FF900895809196018630E7
:103FA00020F48F5F80939601089580E0FBCFCF933C
:103FB000DF93EC010E94CD1F809373048091720403
:103FC000853060F4823080F4882351F010924604EA
:103FD000188280E0DF91CF910C94A71E8730B0F754
:103FE00083E080934604F4CF81E0FBCFE8E8F3E080
:103FF000108211821282109267041092690410924A
:1040000068041092660410926504089561111DC041
:104010008537C8F420919A084AEF42039001112491
:104020002C583F4F8217130671F06CF08091950168
:10403000853010F461E0680F60939501E62FF0E0A1
:10404000ED52F84F6491862F089560E0FCCFEF9217
:10405000FF920F93CF93DF9394EF980F973108F06F
:1040600041C061113FC0D82F89EAE82E87E0F82EC1
:104070000091940120E04D2F8CE00E94BB0FC82FCF
:104080000091930120E04D2F60E080E10E94BB0F82
:10409000C82B0091920120E04D2F60E084E10E9446
:1040A000BB0FC82B0091910120E04D2F60E088E10B
:1040B0000E94BB0FC82B0091900120E04D2F60E0C3
:1040C0008CE10E94BB0FC82B00E020E04D2F60E088
:1040D00080E20E94BB0F8C2BDF91CF910F91FF905C
:1040E000EF90089580E0F8CF94EF980F983608F598
:1040F000623068F4282F2C50330BF90138E6639FA7
:10410000E00DF11D1124E156FA4F849108956630B7
:1041100080F06650770B98E6969FF001979FF00D20
:1041200011248C50990B8E0F9F1F8159994FFC01C0
:10413000ECCF80E00895EF92FF920F931F93CF93FF
:10414000DF93482F262F8091B208A82F082E000C4D
:10415000BB0BC42FD0E0CA17DB0784F16091B30812
:10416000E62F062E000CFF0B98E0299F80011124FA
:104170007F0197E0E91AF1080E151F05FCF019966A
:10418000AC17BD07DCF07096E017F107BCF001E05A
:104190009091B5089F3F09F400E09091AC08990F09
:1041A000090F99EFE92E96E1F92E0E940A10DF918E
:1041B000CF911F910F91FF90EF90089580E0F7CF7E
:1041C0008551863510F080E00895E0912A03EA30A9
:1041D000B8F481E08E0F80932A03A091290385E033
:1041E000A89FD0011124A959BE4F14968C918130FB
:1041F00079F4E60FFF27FF1FE757FA4F84910895E0
:104200008091290310922A038F5F80932903E5CFC1
:104210008230CCF280910003882369F08091FF0204
:10422000882359F08AEAE60FFF27FF1FE757FA4F66
:10423000E4918E2308958FEFF6CF85E5F4CFDF92DA
:10424000EF92FF920F931F93CF93DF93C82F162FF8
:10425000613009F443C040F0663009F44DC0673066
:1042600009F453C0D0E004C060E00E947420D82F4D
:10427000612F8C2F0E949B20082F112309F44BC023
:10428000173009F448C0612F8C2F0E94F71BD82EDD
:10429000D02B80918703813009F03FC02091B20874
:1042A000022E000C330B2D5F3F4FC2171306A9F5EA
:1042B00082E6E82E88E0F82E00E0212F4C2F609156
:1042C00084038C2F0E940A10DD2A8D29DF91CF9163
:1042D0001F910F91FF90EF90DF90089561E00E9491
:1042E0007420D82F8BEE8C0F863520F40E94AD1AE7
:1042F000D82BBECF80E0FCCF66E00E947420D82F80
:1043000060E08C2F0E94E020F3CF67E00E947420D1
:10431000D82F6BE0F6CFD12CBBCF80E0D5CFBF92AA
:10432000CF92DF92EF92FF920F931F93CF93DF9381
:10433000D82E10929501D0E0CC24C3941092FF02A5
:1043400010922A0310922903C0E08091FF028C256D
:104350008093FF0282E0D81609F476C093E0D91664
:1043600009F477C084EF8C0F91E0D91649F08836B4
:1043700008F06DC06D2F8C2F0E941F21182F24C0B4
:10438000883608F064C0D130E9F140F0D63009F445
:1043900048C0D73009F44FC010E005C060E08C2F52
:1043A0000E947420182F6D2F8C2F0E949B20082FA5
:1043B000DD2309F447C0D73009F444C06D2F8C2F9A
:1043C0000E94F71B102B182B6D2F8C2F0E9427207B
:1043D000182B6D2F8C2F0E940620812B0E94A10E7E
:1043E000CF5FC03809F0B1CFDF5FD83009F0A6CF7A
:1043F000DF91CF911F910F91FF90EF90DF90CF90C1
:10440000BF90089561E08C2F0E947420182F8BEECE
:104410008C0F863520F40E94AD1A182BC4CF80E093
:10442000FCCF66E08C2F0E947420182F60E08C2F48
:104430000E94E020F2CF67E08C2F0E947420182F9A
:104440006BE0F5CF80E0BECF84EF8C0F90CF10E013
:10445000BBCF6D2F8C2F0E942720B82E80918F010B
:1044600010E08C3060F08FE3E82E87E0F82E00E05B
:104470002D2F4C2F6AE186E20E940A10182F6D2F13
:104480008C2F0E947420812B8B29A8CF81E09091E2
:104490009C08913009F480E080939C08813009F0F9
:1044A0008FEFEBE2F3E09481913019F4838316826D
:1044B00010863B9693E0E338F907A9F708954F92E9
:1044C0005F926F927F928F929F92AF92BF92CF92A4
:1044D000DF92EF92FF92CF93DF9300D000D01F9234
:1044E000CDB7DEB71092AA081092AB0884E1809392
:1044F0009F0881E080939C081092A10890919908F0
:104500009D83C92ED12CF12CE12CABEEBFEFA7017E
:1045100096010E94703620E130E040E050E00E94B9
:104520004336DA01C9014996A11DB11D89839A83D9
:10453000AB83BC838093A2089D81292F30E0AAE041
:10454000B0E00E94973634E095958795779567950A
:104550003A95D1F76B5F7F4F8F4F9F4F60939D08C8
:10456000AD81A33008F47BC0B1E0B093A608ACE6FF
:10457000BFEFA70196010E94703620E1822E912C98
:10458000A12CB12CA50194010E94433629013A01C6
:1045900084EB480E511C611C711C4092A508A8E7D1
:1045A000BFEFA70196010E947036A50194010E94F9
:1045B000433628533F4F4F4F5F4F2093A8084092F8
:1045C0009E081092A00899819093A3088CE3809391
:1045D000B20886E28093B30881E08093B6088FEF3B
:1045E0008093B5081092B4081092B7081092B808DA
:1045F0001092B9081092BA08A8E1BCEFA701960181
:104600000E947036A50194010E944336DA01C90167
:1046100080559B4FAF4FBF4F9093B0088093AF082A
:104620009093AE088093AD081092AC0888E0809318
:10463000B108109287030F900F900F900F900F907A
:10464000DF91CF91FF90EF90DF90CF90BF90AF9030
:104650009F908F907F906F905F904F9008951092F1
:10466000A60885CFEF92FF920F931F93CF93DF930E
:104670002091970830919808E0E1F7E2C901BF0165
:104680000E94C036AB01609394016E9FE0016F9F62
:10469000D00D7E9FD00D1124C9018C1B9D0B58EEAF
:1046A000E52E53E0F52EB7010E94C036FB01609362
:1046B00093016E9D80016F9D100D7E9D100D112444
:1046C000C901801B910B8C1B9D0B64E670E00E945E
:1046D000C036F62F6093920164E6F62EC901FF9D65
:1046E000801991091124801B910B8C1B9D0B6AE092
:1046F00070E00E94C036609391018AE0689F2019A3
:104700001124FF9E2019112488E1E89F200D112417
:104710004295407F241B20939001DF91CF911F9100
:104720000F91FF90EF90089590919B08980F943609
:1047300070F490939B082091970830919808820F0D
:10474000932F911D909398088093970808959456FD
:1047500090939B0890919A089F5F90939A08EBCF53
:10476000FC01958180919D08292F092E000C330BA7
:10477000281B310987FD3395981B253C3F4F34F4A6
:10478000945C9583808181508083089595830895FA
:10479000FC01858190919D08292F092E000C330B77
:1047A000280F311D87FD3A952C3331053CF09C5381
:1047B000980F958380818F5F80830895980F9583EC
:1047C0000895FC018081082E000C990B2285422F50
:1047D00050E0481759071CF4CF010C94B0238417FC
:1047E00095071CF4CF010C94C823222371F0128684
:1047F00015821682128280919C08882319F08130DC
:1048000011F008958FEF8383108608958091000141
:10481000853521F0855F80930001089583E1FBCF0A
:10482000CF93DF93EC010E9406248A87198691E0DA
:104830009C831A821B821D821E82883358F084E773
:10484000888380919C08882339F0813041F0DF9182
:10485000CF9108958CEFF4CF8EE28983F8CF81E178
:10486000FCCFE82F8DEE8E0F8A3558F4E351FF0B05
:104870008AE5689FE00DF11D1124E454FF4F8491F7
:10488000089580E0089590911704943030F49F5F6C
:104890009093170480931804089510921704909130
:1048A0001604923020F49F5F90931604F3CF90E0AB
:1048B000FBCFE0916201EF3054F4EF5FE0936201CF
:1048C0000E2E000CFF0BE455FF4F84910895E0E09D
:1048D000F5CF863130F56C3020F5062E000C770BC5
:1048E000282F082E000C330B93E0359527959A95C9
:1048F000E1F7FB01EE0FFF1FE60FF71FE656FC4F37
:10490000E20FF31F282F277080E890E002C09595F2
:1049100087952A95E2F7809590818923808380E0AE
:10492000089581E00895863150F56C3044F567FDB7
:1049300024C0982F977020E830E002C03595279565
:104940009A95E2F7062E000C770B082E000C990BB7
:1049500043E0959587954A95E1F7FB01EE0FFF1F20
:10496000E60FF71FE656FC4FE80FF91F808190E035
:104970002823392381E0232B09F480E0089581E086
:1049800008952F923F924F925F926F927F928F92F3
:104990009F92AF92BF92CF92DF92EF92FF920F93CE
:1049A0001F93CF93DF93682E562E77247A94D0E00E
:1049B00064E0A62E64E0B62E1092640110926301AA
:1049C00044244A94470CD12CC12CCC2D80E8C81625
:1049D000D10409F4E9C0C33138F480E00E94A10E8B
:1049E0008FEFC81AD80AF1CFE1E06E16B1F18CEC66
:1049F0008C0D883180F5D73071F54FED67E08C2D47
:104A00000E94481B182F5DEEE52E54E0F52E00E0C5
:104A10002D2F4C2F62E08EE20E94BB0F182BFAE084
:104A200080E0F51550F04CE8E42E43E0F42E2D2FF5
:104A30004C2F66E083E30E94BB0F812B0E94A10EE6
:104A4000C33171F280916401833008F0A5C08F5F9B
:104A500080936401C5CF10E0D6CF8BEA8C0D8831EE
:104A600008F074C0D73009F071C040E067E08C2DC9
:104A70000E94481B382E6D2F83E1C33121F0CC36C4
:104A800008F466C08C2F0E943124182F27EAE22EEA
:104A900023E0F22E009115042D2F4C2F60918F04EE
:104AA00080918E040E940A10182B38EC832E33E07C
:104AB000932E212CF4018481882361F091E3E92E67
:104AC00094E0F92E05852D2F4C2F618180810E9465
:104AD0000A10282AFFE08F0E911CA814B90451F780
:104AE000312A80910804882309F452C0853009F4E2
:104AF0004FC083EDE82E84E0F82E009109042D2F9D
:104B00004C2F60910504809104040E940A10182F14
:104B100080910E04882359F0009109042D2F4C2F09
:104B200060910B0480910A040E940A10182B32280D
:104B3000D73081F5C33171F1809121048C1750F188
:104B4000F601E753FB4F8491132977CF312C93CF94
:104B500060E0DD2309F496CF67E0D73009F492CF07
:104B600010916301642D812F0E9493240FE0813006
:104B700009F000E0672D812F0E949324813009F411
:104B8000006F6D2F8C2F0E943124182F10237ECFA1
:104B900010E0CDCF80E0D8CF109264018091630106
:104BA0008F5F809363011CCFDF5F73947394D83061
:104BB00009F002CFDF91CF911F910F91FF90EF90FD
:104BC000DF90CF90BF90AF909F908F907F906F902D
:104BD0005F904F903F902F900895EF92FF920F9328
:104BE0001F93CF93DF9380912004823009F471C02A
:104BF00008F062C0882309F466C0813009F467C0F8
:104C00002091190430911A04E0E1F7E2C901BF01D3
:104C10000E94C036AB0160938F036E9FE0016F9FCF
:104C2000D00D7E9FD00D1124C9018C1B9D0B58EE19
:104C3000E52E53E0F52EB7010E94C036FB016093CC
:104C40008E036E9D80016F9D100D7E9D100D1124B1
:104C5000C901801B910B8C1B9D0B64E670E00E94C8
:104C6000C036F62F60938D0364E6F62EC901FF9DD2
:104C7000801991091124801B910B8C1B9D0B6AE0FC
:104C800070E00E94C03660938C038AE0689F201910
:104C90001124FF9E2019112488E1E89F200D112482
:104CA0004295407F241B20938B03DF91CF911F916E
:104CB0000F91FF90EF900895833069F0843009F0F0
:104CC0009FCF82E201C083E18093210499CF87E1E5
:104CD000FBCF8BE1F9CF8FE1F7CFE0E1F4E0818505
:104CE00092850196928781870C94ED25811109C0E8
:104CF00070E090E080E00E94611A88B18F7388B9FB
:104D0000089540E02FEF30E0F901E81BF109CF01F1
:104D1000479A469820E02817190634F4F5E0FA95EA
:104D2000F1F700002F5FF7CF469A479820E0281749
:104D3000190634F435E03A95F1F700002F5FF7CF0C
:104D40004F5F6413E5CFD9CF6FEF84E60E947626DC
:104D50000E94990E83FDFCCF0E94990E82FDF8CF30
:104D60006FEF81E00C947626CF938091650490914B
:104D7000660464E170E00E94C03680916704861783
:104D800069F060936704C9E060E588E20E947626D6
:104D900060E586E90E947626C150B1F7A0916704CC
:104DA000A53198F4B0E026EF3FEF4FEF5FEF0E94A0
:104DB000623624E130E040E050E00E944336255F57
:104DC0003F4F4F4F5F4F20934704CF91089561E0CD
:104DD00088EC0C9476261F93CF93DF9300D0CDB749
:104DE000DEB79091930480910D01282F30E0290FB8
:104DF000311D97FD3A95223331050CF446C082539C
:104E0000890F8093930480918E048F5F80938E042A
:104E100080E00E94432480918E0485363CF084E635
:104E200080938E04109295041092930481E08093F5
:104E3000900480918E04895F8A8380918F04898396
:104E4000BE016F5F7F4FCE0102960E945C1969819F
:104E50008A810E949324182F8130D9F40E946D26F4
:104E600069818A810E94692469816F5F8A810E94B9
:104E70009324813081F40E946D2669816F5F8A815D
:104E80000E9469240E94E72608C0890F809393043A
:104E9000BFCF10E0E9CF1111F5CF0F900F90DF9148
:104EA000CF911F9108951F93CF93DF9300D0CDB77B
:104EB000DEB78091930430910D01282F231B082E1B
:104EC000000C990B831B91098F3C9F4F0CF044C041
:104ED0002E5C2093930480918E04815080938E04E5
:104EE00082E00E94432480918E0484313CF484E16A
:104EF00080938E0410929504109293048FEF809308
:104F0000900480918E048A8380918F048983BE01EE
:104F10006F5F7F4FCE0102960E945C1969818A8182
:104F20000E949324182F8130D1F40E946D2669814C
:104F30008A810E94692469816F5F8A810E9493241B
:104F4000813079F40E946D2669816F5F8A810E94A9
:104F500069240E94E72607C020939304C1CF10E084
:104F6000EACF1111F6CF0F900F90DF91CF911F91E3
:104F700008951F93CF93DF9300D0CDB7DEB7809114
:104F8000940430910D01282F231B082E000C990B3F
:104F9000831B91098F3C9F4F0CF043C02E5C2093E4
:104FA000940480918F04815080938F0483E00E9449
:104FB000432480918F0487FF06C010928F041092C3
:104FC0009604109294048FEF8093910480918E0444
:104FD0008A8380918F048983BE016F5F7F4FCE01EA
:104FE00002960E945C1969818A810E949324182F7D
:104FF0008130D1F40E946D2669818A810E946924E2
:105000008A8169818F5F0E949324813079F40E94A4
:105010006D268A8169818F5F0E9469240E94E7263C
:1050200007C020939404C2CF10E0EACF1111F6CF4D
:105030000F900F90DF91CF911F9108951F93CF9301
:10504000DF9300D0CDB7DEB79091940480910D012D
:10505000282F30E0290F311D97FD3A952233310575
:105060000CF446C08253890F8093940480918F047E
:105070008F5F80938F0481E00E94432480918F048E
:1050800081333CF080E380938F0410929604109259
:10509000940481E08093910480918E048A838091AE
:1050A0008F04895F8983BE016F5F7F4FCE010296B7
:1050B0000E945C1969818A810E949324182F813093
:1050C000D9F40E946D2669818A810E9469248A81AF
:1050D00069818F5F0E949324813081F40E946D2644
:1050E0008A8169818F5F0E9469240E94E72608C037
:1050F000890F80939404BFCF10E0E9CF1111F5CF51
:105100000F900F90DF91CF911F91089520919A08F1
:105110002223F1F0FC0181E0848364E184E60E94B3
:10512000762664E181E00E94762664E184E60E94AE
:10513000762680919A088111815080939A0881E0A7
:105140000E948F2160E971E080E090E00E94611A86
:1051500081E090919A08911180E008956AE084E6D8
:105160000E9476266EE182E30C94762664E18B5FE2
:105170000E9476266AE084E60C947626EF92FF92EF
:105180000F931F93CF93DF9301E013E0C0E0D1E0D2
:10519000F80184818F3F71F4D48381E00E948F21D4
:1051A000C65F8C2F0E94B6286AE070E080E090E035
:1051B0000E94611A0B5F1F4FF3E009321F0741F78E
:1051C00007E611E08FE8E82E81E0F82ED1E0F80143
:1051D00084818F3F71F4D48381E00E948F21C65F68
:1051E0008C2F0E94B6286AE070E080E090E00E9478
:1051F000611A0B5F1F4FE016F10649F7DF91CF915F
:105200001F910F91FF90EF9008950C9435360C94F8
:105210002D360F931F93CF93DF938C0181E090E0A5
:105220000E94072980FF32C08AE090E00E9407298F
:105230009FEF980F9E3F50F522E330E0D801509643
:105240003C932E931F9728E330E052963C932E9385
:105250005197CBE0D0E0D801ED91FC910190F08125
:10526000E02D682FC8010995CE010E9407292196DB
:10527000C131D10581F780E00E94390C88EE93E0BE
:10528000DF91CF911F910F910C94E50DDF91CF919C
:105290001F910F91089504970C940929EBEBF8E006
:1052A0001382128288EE93E0A0E0B0E084839583BD
:1052B000A683B78389E391E0918380838FEF9FEF8B
:1052C00095878487EBE0F9E01382128211861286BB
:1052D00080E183871086178215868BE491E09183A5
:1052E000808389E591E095838483108A1786128AEA
:1052F000118A81E0838B148A858B168A0895CDB735
:10530000DEB76C97DEBFCDBF789483E084BD83E0C9
:1053100085BD81E080936E00E1E8F0E083E080836A
:10532000E0E881E08083E1E983E08083E0E981E0F7
:105330008083E1EC87E08083E3EC81E08083E0EC34
:1053400082E08083E2EC81E08083EAE787E080838B
:105350008068808310928D0410927D0410927F04E7
:105360008091D70081608093D70080EA8093D80035
:1053700089B5806189BD89B5826089BD09B400FEA7
:10538000FDCF81E090E00E94E50D8091D8008F7CF8
:1053900080618093D8008091E000807F8093E0005E
:1053A0008091E1008E7E8093E1008DE08093E200A9
:1053B000559A209A81EC80937C0081E785B987E635
:1053C00084B985E38BB98FE38AB9769A6E9880EFBA
:1053D00081BB10BA80E58CBD11E01DBD85E00E9447
:1053E000960E599A85E00E94960E5C98E9E6FEE0DA
:1053F00085910E94A10EE337D9F75C9A81E88093EA
:1054000064001093650081E00E94390C0E94990E9F
:1054100087FF12C05C9885EA0E94A10E5C9A2E98C4
:1054200058982D988091640080628093640081E098
:1054300083BF889513BEFCCF0E94990E82FF45C0A2
:105440002D980E94990E84788438D9F40E94940E85
:1054500088EC0E94960E589882E090E00E942D36CB
:105460008F3F29F06FEF82E090E00E94353684EFA5
:1054700091E00E94E50D589A0E94990E8478843834
:10548000D9F30E94990E84718431D9F40E94940E4C
:1054900088EC0E94960E2E9882E090E00E942D36B5
:1054A000882329F060E082E090E00E94353684EFA6
:1054B00091E00E94E50D2E9A0E94990E847184312C
:1054C000D9F388EC0E94960EB7CF0E94940E82E02A
:1054D00090E00E940729882309F467C13E9A579AF1
:1054E00081E090E00E940729082F0470D02E81FFF0
:1054F0000CC001112E9801EF1FEF0E94990E86FF3C
:1055000057C12E9A589A0E94940E82E30E94960EDA
:105510000E94990E8111F9CF8DE080937704D12CF0
:105520000E94990E85FF02C0DD24DA940E94990E34
:1055300086FF02C0DD24D3940E94990E83FFAEC182
:10554000D110B0C180917704883309F448C78336FD
:1055500009F449C78D3009F0A5C10E94A42670E165
:10556000A72E74E0B72E10E00E94ED25612F80E099
:105570000E94C1240FEF24E431E00150204030406C
:10558000E1F700C00000143108F0D1C11F5F0E9494
:10559000990E83FD04C00E94990E82FFE5CF0E9400
:1055A000990E83FDFCCF0E94990E82FDF8CF66E92B
:1055B00084E10E94762666E984E60E9476261092AF
:1055C0001A041092190410921C0482E280932104A0
:1055D00084E08093200488EC8093140480911C0460
:1055E00064E2869FC00111244AE953E0BC016C5D6E
:1055F0007F4F30E020E08C010D58114FF801E20F91
:10560000F31FE491DA01A20FB31FEC932F5F3F4F1A
:105610002330310599F703964D5F5F4F681779077F
:1056200041F7DD24D394CC24C394772473940E944F
:10563000ED2510921004C0921204C0921104109231
:10564000130410921D041092150410921F0410925E
:105650001604109217041092180410921B04109252
:10566000080410920E048CE380938E0480E28093F1
:105670008F04C092920410929104C09290041092F0
:1056800093041092940410929504109296046FE67D
:10569000E62E6FE0F62E08EC13E0912C812CD80159
:1056A00014961C92E0911C04B4E0EB9FF0011124CD
:1056B000E80DF91DE558F04FE491EE2379F1F7017B
:1056C0003296649031978491F7019491D8011B969A
:1056D000DC921B9715961C92159716961C9216979E
:1056E00017961C92179718961C9218979C931196D0
:1056F0008C930E945924F80182830E945924D80176
:1057000013968C9313971496DC92149719961C9207
:1057100019971A966C921A971E961C92BFEF8B1AC5
:105720009B0A015F1F4FE3E0EE0EF11CF4E08F16C1
:10573000910409F0B4CF85E08093080460E081E033
:105740000E94C12454E0852E90901F049110AAC499
:1057500080910804882311F0853029F50E94990E64
:1057600086FFF4C00E94592480918F04877009F04D
:10577000E0C00E94EB2611E00E94990E87FF0EC147
:105780000E94592480918E048770843009F0F9C0FA
:105790000E94B927185F163009F420C108F019C11A
:1057A000133009F41BC189E11AC13E98579898CE6D
:1057B000DD2029F00430110511F42E9A589881E06B
:1057C0000E94390C202F2770C22E9801E3E03595F6
:1057D0002795EA95E1F7C9019695982F882797951F
:1057E000879589569B4F50E040E02E3F6FEF36077C
:1057F00081F17C01A4E9EA0EF11CDC0170E060E0BB
:10580000FA01E754F24F5F01F501E60FF71FE4914B
:10581000F0E03F010C2C02C0660C771C0A94E2F702
:105820002F3F320739F054969C90549796285496FF
:105830009C925497CC2021F0F70190809728908279
:105840006F5F7F4FFFEFEF1AFF0A11966835710502
:10585000D9F62F5F3F4F80589F4F485A5F4F403BCC
:10586000510509F0C2CF80E00E94390C8FE00E9400
:10587000960E0F5F1F4F0931110509F03ECEDD2056
:1058800011F0589A2D9880E991E00E94E50D0E9450
:10589000940E8BE099E00E94092937CE0E94990E60
:1058A00082FD4ECE8091770431E0D3120C94C9353D
:1058B000833614F00C94C6358F5F80937704809103
:1058C0007704883321F0833611F08D3009F4D12C20
:1058D00010E024E0C22EC80EB12C123010F40C944B
:1058E000D535173011F40C94D53597EFE92E94E1A6
:1058F000F92E00E0212F4B2D62E080E00E94BB0FCB
:10590000A82E89EFE82E86E1F82E00E0212F4B2DFE
:1059100065E38C2D0E940A108A290E94A10EB3947F
:1059200080E8B812DACF1F5F1830B1F6F9CD10E079
:105930002ECE809191048F3F31F0813009F01BCF42
:105940000E941E2818CF0E94B92715CF0E94990ED9
:1059500010E085FF11CF0E94592480918F04877039
:1059600021F40E94532714E007CF809191048F3FC8
:1059700029F08130C1F70E941E28F5CF0E94B92777
:10598000F2CF809190048F3F31F0813009F002CF47
:105990000E94EB26FFCE0E945327FCCE0E94990E58
:1059A00084FFF9CE0E94592480918E048770843040
:1059B00021F40E941E281E5FEECE809190048F3F3E
:1059C00029F08130C1F70E94EB26F5CF0E945327C2
:1059D000F2CF193019F01C3009F0E5CE8DE080933C
:1059E0000D0108EC13E0FF24FA94D80114968C9171
:1059F0001497882309F49EC01E968C911E978111DE
:105A000099C011968C911197877009F047C01B9629
:105A10008C911B97813009F0BDC012968C918F3FFD
:105A200009F4D3C08130D1F5F80147805080E5807A
:105A3000F8E1FE150CF011C187EE8E0DD801159618
:105A40008C93159781E0850D8C93D8018C91895F9B
:105A50008C8B11968C918983BE016F5F7F4FCE0135
:105A600044960E945C1969803C88662D832D0E94B3
:105A70009324813009F0F6C0F8018385882309F466
:105A8000FCC0F80147825082E5828281813009F0B2
:105A900000C1F282F80180815812D486F801808119
:105AA0008770843009F046C0D8011B968C911B97F3
:105AB000813009F015C113968C918F3F09F42AC1EA
:105AC0008130C1F5F80150846180E680F8E1FE156F
:105AD0000CF051C187EE8E0DD80116968C93169757
