:020000040000FA
:100000000C94B8110C94E0110C94E0110C94E011D4
:100010000C94E0110C94E0110C94E0110C94E0119C
:100020000C94E0110C94E0110C94E0110C94E0118C
:100030000C94E0110C94E0110C94E0110C94E0117C
:100040000C94E0110C94E0110C94E0110C94E0116C
:100050000C94E0110C94E0110C94E0110C94CB2959
:100060000C94E0110C94E0110C94E0110C94E0114C
:100070000C94E0110C94E0110C94E0110C94E0113C
:100080000C94E0110C94E0110C94E0110C94E0112C
:100090000C94E0110C94E0110C94E0110C94E0111C
:1000A0000C94E0110C94822D0C94E01108080000CF
:1000B000000000000000005500550055005500FFED
:1000C00000FF00FF00FFAAFFAAFFAAFFAAFFFFFF91
:1000D000FFFFFFFFFFFFFFAAFFAAFFAAFFAAFF0083
:1000E000FF00FF00FF0055005500550055000408B3
:1000F00003000003010000010000000002010001F4
:10010000010008030F0E14090E1505030E05170450
:1001100007010D0503130E04030F0606020F0E045C
:10012000190F1512040E010D0503050E0405170F16
:1001300012140804130F0D050601141401030B0615
:10014000010D0F150E1406040506050E040514080E
:10015000010E0B07100C0119090E070000040D0F0A
:1001600012050007050E050D090513040D091313EB
:10017000050516051219000000011B011C011D01D7
:100180001E011F012001210122012301240125015B
:1001900026012701280129012A012B012C012D010B
:1001A0002E012F01300131013201330134013501BB
:1001B000360137013800010100011302140F031941
:1001C0000F150514080512050604010E070512088F
:1001D000120513140F12051303010C0C041301165E
:1001E000050810120F071205131303151305050553
:1001F00011150910040914050D050C0516050C024E
:10020000151002090E03140805020913030109124F
:10021000070D0F0E131405120301120507120F012B
:100220000D090E0708051115091010050405131412
:10023000011413020810020D1003051810020C1609
:100240000301140B0304050603131004031905131B
:10025000020E0F020F06050914050D1306170501FE
:10026000100F0E0501120D0F1206010D150C0514CD
:10027000050110100C0505030904051205010E09FE
:10028000130508010213090E14080504040F170EC4
:1002900000000005130C090E07050B0E09060506E4
:1002A0001201100905120513170F12040301180596
:1002B000050C010E030505131005011205020C01C2
:1002C000040504170F0F0C050C090E050E070C058D
:1002D000011408051204020F0E0506030F10100585
:1002E000120602120F0E1A050409120F0E0513143E
:1002F00005050C051701140512040C05010604067A
:1003000009120507160903140F121904070F0C042C
:10031000040C01131406051303011005050715014C
:100320001204030F1512040C010E04040F0E0C1915
:1003300004080F1005032525250500000000000313
:100340000E0F1702070F060205060F120502091409
:10035000040C01140507031205040914130F1309F3
:10036000050706120905040003120F05130B070108
:1003700016090E0001140B090E0D0A0F1E120900BA
:1003800007010E140F0913030D0110070E0F1408B7
:10039000090E070414010B0503060F1205131401BF
:1003A0001214040F160512000303010E030E0F149E
:1003B0000605130301100503070F140401170119A3
:1003C00006130106050C1905FEFEFEFEFE05060FCE
:1003D000150E0402010E0300000002FEFE020000E2
:1003E0000717050C030F0D05090112041516090C5A
:1003F0000C050810120F1005121419041408091323
:1004000004120F0104060609050C04130513170155
:100410000D1006060F120513140703010E190F0E17
:100420001304120F030B030801130613190D020F17
:100430000C0A120513050D020C090E07050C09071D
:100440000814040205010D06050D05120705040632
:10045000120F0D050D010709030613150D0D0F0EE3
:1004600005140805130504020F0F0B040C0F0F0BE6
:100470000413010D05020D050307101306090E13E1
:10048000090405031905140417090C0C040E0505CD
:10049000040109031301170413080F1005051814AC
:1004A000120106140F07070C050701120415020FAD
:1004B000190B1405010D00012512250725030F0E48
:1004C000050D0F0C09160905120008150112040587
:1004D000020C01040505100905030504020F13139E
:1004E00005030112041300050C0501041300071095
:1004F000120513050E140615100C0F010407030F47
:100500000E0E050314021003040B0505100810124B
:10051000051313090E07030B05190613050C050334
:100520001403010E04041708050E05120501041931
:100530000712050C05011305040C0F131404170F03
:10054000120D04020F150704130E010B04130512FC
:10055000100416090E0504120F0F1404060C010DE9
:100560000804050605011405040801101005011210
:10057000050404000000000413050C060205040431
:1005800017050E14030C160C0803120914090301B5
:100590000C05131001120B040301131404060F07BA
:1005A0000C041415120C040112020F040401070EAE
:1005B0000412051314030215190F86A0A1020003EB
:1005C000A10486A18C27A100D10BA3003D00A4FEAD
:1005D000A5005C868608A2C5A1C6A10000D00D07B3
:1005E000000828A2869D9DFE8686E609095DA14633
:1005F000A152A190A1C3075B0090009E00BD1D7D8C
:100600002A318600A153A22A86A2A154A22A86A238
:10061000A1FE55003D005600492A86A21056002A28
:1006200086A1572A86FE582A86FE592A8605520038
:100630005C8686035AFE5B055EA15FA160044500EF
:1006400047280446005E280446005F2804460060F0
:1006500028035B005D045B005E3C035B005F045BA2
:1006600000603C0641001C1B0053064100201B009B
:10067000530641001C1B0054064100201B00540679
:1006800040004E00802700000C3E009E004B007E84
:10069000FEC900CA27040C000D86040E000D860555
:1006A000B5007900B405B5007A00B405B5007B004B
:1006B000B40A0F003E003E0093FE10270000000920
:1006C0003E009E003A00C9FECA0F3F004C0040FEAB
:1006D0004A004B004D8500862F0F4E3C004F0050C6
:1006E000FE8100823C8586A22F0D3E004F008100D6
:1006F00083FE848686862F0E8700880089008A29DB
:100700003CFE3D008B270DE68CA1008FA1A28EA19F
:1007100000C8A18D075B00BB00B400BC03030095BB
:100720000B91003F0093FEBA003D00920D000CA01B
:10073000EDE6E6FE007FA0450047083E009A009BDC
:10074000009C27083E00970098009927093E009ECC
:100750008686FE0D2A860C3E009E009F00472AA03A
:10076000FE86860C3E009E003A005E2AA2FE868629
:100770000A3E009E005F2A86FE86860B3E009E0093
:100780009F00602AFE86860BA600A700CE003DFED5
:100790004B86860C4B00AC00AD00AE3CFEAF8686AF
:1007A0000E3A00B0B100B23CFEB300070060851104
:1007B0004200B600B73C00B8FE4B00B9003D00BA9D
:1007C00085044300442804C40004280609000700E7
:1007D00003280643004A00C33C08C900CA3C009EE7
:1007E0002AA208CB00CC009E2AA1A1163E00BE0082
:1007F000BF003A009027FEC000C100C7004A003A7F
:1008000000B70A532AA02BE6542AA02BA017D20027
:100810000700C5FE3D004B00D32500D4FED5004B9C
:100820000065FED6251CD70007000300D8FED125A1
:1008300000D900D1FE4C00DA2600DBFE4B0065003B
:10084000D62F0486DCE653053E00E48627053AE60B
:10085000A2E52704860C3C27043E000C27038616DD
:10086000E806860E3C008AE708E63C005800E900EE
:100870004906E6FEEA0028A2073E0048E8004927AC
:1008800006BF001300542702EB27053E00EDA0A091
:10089000030EE8850486FEA054053E00BF00F20565
:1008A000BF0013007D04F30047280C080001010776
:1008B000040F037F54FF57FF077F347F3B7F003FC8
:1008C0000103000100000019187F45FF5AFF0B7F4C
:1008D000137F5AFF45FF187F001900000001010334
:1008E000003F3B7F347F077F57FF54FF037F040F98
:1008F000010700010000001B1B7F18FF07FF167F88
:100900001B7F50FF45FF1C7F001C00000000000102
:100910000103025F43FF5BFF19FF247F023F0E1FAD
:10092000000E00000000005B43FF54FF177F167F9E
:10093000037F18FF19FF047F001C00000000003334
:10094000317F337F057F2D7F2DFF35FF037F050F1F
:100950000007000000000019187F41FF5AFF167FB2
:10096000167F5AFF41FF187F0019000000010007A1
:10097000050F037F35FF2DFF2D7F057F337F317FEF
:10098000003300000000001C047F19FF18FF037FE4
:10099000167F177F54FF43FF005B00000000000E2E
:1009A0000E1F023F247F19FF5BFF43FF025F01031D
:1009B000000100000000001C1C7F45FF50FF1B7F52
:1009C000167F07FF18FF1B7F001B00000C0800D8D4
:1009D000C8FC1CFEA4FE5AFFDEFFEEFF5EFFBCFE5D
:1009E00034FEC8FC00D8001C1CFEDAFF6CFEDEFFE3
:1009F0003EFFBEFF7EFFF4FE68FC0068000000685A
:100A000068FCF4FEFCFEFEFFFEFFFEFFFEFFFCFEA8
:100A1000FCFE68FC00680000006868FCF4FE7EFFD5
:100A2000BEFF3EFFDEFF6CFEDAFF1CFE001C060868
:100A30007E3F1F3F7E3E0610FFFFFF00FEFF0F3F81
:100A4000FF003F0F601800F0FFFFFFFFF00000FE07
:100A5000FEFC8E8EFEFCF800ECFCFC1C3CFCF8F06E
:100A600000F8F8F80000F8F8F80078F8F80100F855
:100A7000F87800FBFBFB38333B3800F8F8F8F1C09E
:100A800000F8F8F8003838F8F870383800FCFCFC4A
:100A90000000FCFCFC00F6FEFE8E8EFEFCF800FB67
:100AA000FFFF8F8F8F8FDCFFFF7171FFFFFC00FF57
:100AB000FFFF071FFFFDF000FFFF7FE0F0FF7F3F1C
:100AC000001F3F7F70707F3F1E00000F7F3F7F7FC2
:100AD0000F00006F7F7F73737373007F7F7F010749
:100AE0001F7F7F7B0000007F7F7F0000003F7FFF34
:100AF000E0E0FF7F3700FFFFFF071FFFFDF000FF73
:100B0000FFFFC787C7C703030300000303030001F8
:100B10000101000009F90900F828D000F028F000D0
:100B2000F800F88080000000000070887000F8284D
:100B3000080000FFFFF708FB0B00F820F800F8A8FA
:100B4000880000000000F8A85000F8808000F0281D
:100B5000F000F8887000F9A9890000010101000384
:100B60000303030303030810020F595252590F02E3
:100B700000005555555500001808197DE2DF3F3B30
:100B800015111F9FD9D212D99F1F11153B3FDDE2CE
:100B90007D190F0F010F100F10010E00010E000E36
:100BA0000F01121603021819040201140E010C1091
:100BB000030401190504000F0F0F1010100E0F0091
:100BC000110F00000E0E031E0102111E0302171E5C
:100BD00001020A1F0201071F01010F1F0101001E70
:100BE0002003C8F0FFFF3A0D03966962E8D0636CFA
:100BF00025830C43B194CC59ABA6636502A030E9C0
:100C000068B503E047836A5810A888499BADAA409D
:100C100042A43A545F85814980B0FFFF379ED3D00C
:100C2000FFBF498A29A2118A828B7B8938885BAAF7
:100C300025CA010030927BF7ABA9518841A1058BF1
:100C40004A8C4FA292BB498FAC86219229B049951C
:100C500080A449904D8EFFFFFFFF08008E00000426
:100C600000001816050017181D1E00051C1D05069E
:100C70000505050005050500050515051F050614F4
:100C80001315060514121816050017111D1E000570
:100C90001C19050605001F19050505000519150590
:100CA0000505061913150605141218181110181841
:100CB0001D1D17161D1D05061C1E0500050505003A
:100CC0000505150505050614131506051412181853
:100CD0001818111F1D1D1D1D1711050600051C19D3
:100CE0000505050005191505050506191315060561
:100CF0001412051B05001718101600051C1D1B1EDD
:100D0000050505001B1F000005051B05050506144C
:100D10001315060514121016050017111B1E0005E9
:100D20001C191B06050500191B05050005191B00EC
:100D3000050506191315060514121F1F05061018C0
:100D40001F061018161D1018161D1E001B1D1E0054
:100D500005051B05050506141315060514120510D7
:100D60001818181110161D1D1D191B1E1F1F0619FE
:100D70001B05051F1F191B05050514121315060574
:100D800019061816050017181D1E00051C1D05065E
:100D9000000505000005050005051A1500050614E7
:100DA00005131A1A1A121816050017111D1E000530
:100DB0001C19050605051F190505141A15191A1A17
:100DC00012051B190500050613121811000510184D
:100DD0001D171818161D051C1D1D1E0505050505EA
:100DE0000505150505050614131A1A1A1A121818FE
:100DF000180911051D1D1D091711050605051C19EA
:100E000005050500051915051F050619131A1A1AF7
:100E10001A121016050017181B1E00051C1D1B06B4
:100E20000505050013150500050505131505061430
:100E30000506131A1A121016050017111B1E0005BD
:100E40001C191B06050505191B00050005191B05C6
:100E500005051412131A1A1A121F10181809181857
:100E60001B1D1D091D1D1B06000605001B05050099
:100E700005051315050506141F131A1A1A12050580
:100E80000505050505050505060505050505050511
:100E90000505050505050506050505050505050501
:100EA0000505097B004300000D0C27347100333425
:100EB000433343330197B493B40090F9EBF3E0B7B5
:100EC000D0CDDCC4D0C07000403300780041343352
:100ED00099BB33334319DFCC90B0719DBE7BD0E713
:100EE000B0D3EDBC00D0C073D0C8091B091B99BB9F
:100EF0002D0E1F7EDFCC343D3C3D3C34117394B34A
:100F000004130011D0C3290B010010031D7C0099AC
:100F1000BB91B90B77DDCCD9EFBC3333033DDCC1DA
:100F20000004734299BB199BB394FDCC0DDCC0D374
:100F3000C07098B007330070D9EBB03340079DFE06
:100F4000EBB43333D9EFFCC304709DFCC793B010EE
:100F5000D8C020D3C000092B0733790B9DBE7B334B
:100F60009DBCD9CF1C34D9CB7D9CB1439DBC99FB92
:100F7000E0B4D9CBDDCCD0C37D1C099BB299BB00BA
:100F80001DDEEBFDCC1197BDDCC73333D9CB42332B
:100F900034202D9EBB93B07777DDCCD3C10090B9C0
:100FA0009BB99BB7D9EFFCEDFECB9DFCE4F3EDBC08
:100FB000D1E9FBE4F9CB99FF9CB3EDBCDDCCD7C301
:100FC000D2C01114150721231718162127241C1D20
:100FD0001E2524030600060703031A1521232123D7
:100FE000171625242524373737373737373737371C
:100FF0003737373737373737373737373737373781
:1010000037373737373737373737050505050501A0
:1010100001052B2B2B0505062B2B2B05050328295A
:101020002804020303030303020201043405000041
:10103000000000000100000001000000212300006A
:101040000000252400000100000001000000010054
:101050000000353435080808332F2F2F2F093208A8
:10106000080808080808080808353636080835341E
:101070003737370037372F2F2F3309333434343293
:101080000832080808080808353435353435353451
:10109000353534353737373737370808083534357D
:1010A0002F092F332F330808083234323608080846
:1010B00008083608080808083737370037372F2F51
:1010C0002F2F2F2F08080808083508080834343453
:1010D000080808080808080808080808373737000B
:1010E0003737373737373737373737373737373790
:1010F0000506053737370505053737370505063740
:101100003737370737371018181818111B1D1D1DD2
:101110001D191B05393805191B05030305191B0586
:1011200005050519131A150014120100000000002E
:101130000005000700010000212223000700252AE6
:101140002400000006000700000000000000050564
:1011500005050505052B2B2B2B05052B2B2C2B050E
:1011600005282829280505030303030505050604AA
:101170000505141A1A1A1A1519050605051B19056D
:101180000505061B1910182E111B17161D2A1716F8
:101190001C1E05061C1E052B2B2B2B05052B2B2D92
:1011A0002B050228282828020328282928040303BD
:1011B00003030303340334033403062B2B2B2123B3
:1011C000012B2B2B2B2403282B2B2B070302282945
:1011D0002804030303030303343401030101372FFD
:1011E0002F2F2F3737343131343737083030083725
:1011F0003708080808372F2F2F2F092F080808084D
:101200000808333333333333323232323232080860
:1012100008080808080808080808360836083608C4
:101220003737373737371008FFFFFFFFE0DB9B9B6F
:10123000ADB097A7DBE3FFFFFFF1F6F8FCFCFCF293
:10124000ECE0F2ECF0F6F9FFDFAFBF674051555527
:10125000435F58466DA6A8DFFFFFDFAEBE7E7C6110
:101260006C7274BAADDFFFFFFFBF7F933405314965
:101270001136967ABCFFFFFFFFFFFF9FAEAC908C4C
:1012800078600CAE9FFFFFFFC3A1F0A3C08763F19E
:101290006380C7A1F3A1C7FF0E08FFFFFF1FAFEFD9
:1012A000AFEF1FFFFFFFFFFFFFFF0F577BDBF5F1E6
:1012B0000FFFFFFFFFFFFFF1852BBDBD6DFDFB05A0
:1012C000F1FFFFFFE7EB81AD3E2E76FEF20DEDEB79
:1012D000E7FFFFFF3FDFEFAFE767572F1FFFFFFF7E
:1012E000FFFF9F4FF7F75373B32B17CFFFFFFFC7D6
:1012F000935DDD757DBD99051BEBF7FFD385464EEC
:101300007E76BADE89051BBBD7CFFFFFFF1FAFF785
:10131000B7F7F76F1FFFFFFFFFFF0FD77BFBDBFB6D
:101320007B77370FFFFFFF874BFD7DCD7DFD7D3B3D
:101330007B378FFF8743ED7DFE6EC6F67E3E7D3B9D
:101340001B871818FFFFFFFFE7D72F272B2D6D5E98
:1013500056D68E8E06E5ED9B47BFFFFFDFED2DC312
:10136000D7B1A603A7222415CACEE4F0D130B9A381
:10137000C335EDDBFFFFFFFFFFFFF9F4F9FCF88455
:101380006701F7F6F9FBFCFFFFFFFFFFFF7FBFBF21
:10139000BFBF7F7FFF7FBF3F7F7FBFBFBF7FFFFF9D
:1013A000FFFFFFFFFFFC7AF872E1E16502020A0528
:1013B000950D0AAAD4E4FBE71FFFFFFFFFF2EDDA69
:1013C000D5B6AEADAEAEADAEAEA6A7A7A3A3A9B738
:1013D000D4DBEDF3FFFFFFFF8F77EF8703C7F3E168
:1013E00080E3C77B87FF7FBF7FBF7FFFFF7FBFDFBC
:1013F000572885E7F7EFCFAFCF77FF906F60454B6A
:10140000A7C3F5F8FCFBF4E9D2CCD8D9CCD9B8BD48
:10141000788EDFC7ECEBF7FFFFFFFFFFFFFFFFFF5B
:10142000FFFFFF9F2F7FFF3F0601031F3F7F3F17F7
:101430000F3FFFFF7FBF1F43850F0741E0E0F0F044
:10144000707030E0E0D2A4697E78B6C1F8F6EFEFB4
:10145000ECE6C0C5AC47474C44654667B3DCE1F8F1
:10146000FEFFFFFF0600000A001200150020002CFE
:10147000000102000240509D0E41FAFD3F039F40D3
:101480003041FFFD14049F40009F2BAF32AF2EAFC1
:101490002EA72DA7FEFC054CFEFC054C02FC054DBD
:1014A000FE05DFFE0400003E003F00580000010181
:1014B000019E00010101403041F85005019D18FDD9
:1014C00001024CFEFD01024C00FD01024CFEFD013B
:1014D000024C00FC034CFCFC034CFEFC034C00FDE6
:1014E00001034CFCFC034CFEFC034C00FC039F9FDF
:1014F00019A30DA315A30DA314A30DA312A30DA34C
:1015000014A30DA315A30DA3FE0DA319A3A30DA34F
:1015100019ABA3FE76BB6346BB2114BC420D9902F6
:1015200004000003000B001A000000010040009FAF
:10153000403F9D10FD3F029F41F8FD01034CF9FC27
:10154000034CFBFC034DFE31A735A738A735A7FE9A
:101550000A0000100018002000210025003C004176
:101560000048004F00000102039E000102034018E2
:101570009D1A4E060BFD03059F401841FAFD030519
:101580009F403041F4FD06089F9F12DFDFFE4C00B4
:10159000FD03064C03FD03064C00FD03064C05FD50
:1015A0000206FC07FE06A712A7FE10A30FA30DA7B5
:1015B000FEDFFD0209C700FE2AA7FE090000230086
:1015C00029002C003000370047004F005600010270
:1015D00000039E01020003E07F41FA4010FC084036
:1015E00020FC084030FC084CFF4020FC084010FC68
:1015F000083BA34D9F9D10FD03049FFC059FFD0329
:10160000079F403041FF02DFFEFC064CFCFC064C0D
:10161000FBFC064CF9FC064DFEAF402041FF15CF08
:10162000FECF41F84020AFFE3BA337A3FE080000E9
:101630000D00130018001B0030003C0044000002A5
:1016400001039E00020103402041FCFD1F079F9DF6
:1016500030FD07049FFD3F06009F40009FFD0105F0
:101660004B03FD01054BFFFD01054B03FD01054B40
:10167000FBFE31403F41F0AF401041FCCFFE014046
:10168000204E011FDFFE19AF20AF1CA71BA719AF0B
:10169000DFFE0400000300120021000100000040F2
:1016A000009F9D249E01000000403041F4FD3F0258
:1016B0009FFD03034CF9FD01034CFEFD01034DFEAC
:1016C0000EA70EA30EA3FE10100000000000C080A5
:1016D000F878FCBCFE5EFFEEFFEEFF5EFFBCFE781E
:1016E000FC80F800C00000000000000003030702B7
:1016F00007000301030207030703070207010300B2
:101700000302070307000300000000001810F8D0D0
:10171000FC2CFEAEFF3EFFBEFFBEFF3EFFAEFF2C29
:10172000FED0FC10F80018000000000000000000CF
:101730000100010103030703070307030701030077
:101740000100010000000000000000000000808097
:10175000F000F8A8FCBCFE7CFE7CFEBCFEA8FC00F1
:10176000F880F0008000000000000000000001018F
:101770000300030107050F060F060F050F01070001
:101780000301030001000000000000000000808051
:10179000F020F8D8FC7CFEFCFEFCFE7CFED8FC2091
:1017A000F880F0008000000000000000000001014F
:1017B000030007060F0D7F3D7F3D7F1D3F061F0085
:1017C0000701030001000000000C080006060F00DE
:1017D00006000000000000000000000000000606F7
:1017E0000F00060A080000007F3CFF38FF007F283A
:1017F0007F38FF3CFF007F00000000007F40FF10AB
:10180000FF207F207F10FF40FF007F0000000000CE
:101810007F6CFF58FF50FF50FF58FF6CFF007F00A8
:1018200000006060FF7CFF78FF70FF70FF78FF7C36
:10183000FF60FF00600808C7C3018D151DD5FFE3D9
:10184000E1C0064ACEEAFFE3E2C0460A8EEAFFC7DD
:10185000C5000D941D94FF0808AA00800080008038
:1018600000FF9F87B9FEF9E79FFFF3E1A080A0E1A9
:10187000F32244442222444422F5CAF5FFD72BD751
:10188000FFFF83C1E1F1F983FFFFF1CCA8A0A8CC51
:10189000F1FF87B381919387FFFFFDFFBFFFFFF744
:1018A000FF215D515D15634B87098D339339A55732
:1018B000AB6F69B16F75758D7569A57B21933963C0
:1018C000453F4B45210945032709637B8D69274522
:1018D0000921876F8DA545270357889F6AB10A099B
:1018E0000A336351750F99459F758D99999F99A5F5
:1018F000097B0FB12D7B3F099915BF2DBF45BF5DFA
:10190000BF75BF8DBF3F09101000009068C4B44A76
:1019100042224284946890000000000162FF969A7F
:10192000E8F8CACEBF620100008D14A1C881CFD9EA
:10193000F102AF12000003000B002200290030006A
:1019400037003E0050005200650068006B006E00DA
:101950007100780089008F000701000E40009F9DF4
:10196000304030FD0F029F41FE9C02FD03039C02AC
:10197000FD03049C02FD03059C02FD0306FE25AF4A
:1019800028AF2CAFFE25AF28AF2DAFFE25AF2AAF75
:101990002EAFFE25AF2AAF2FAFFE4000FD0F08FD92
:1019A0000E09559D20403041FFFC0A9FCFFE40208C
:1019B00041015403FD030AFD030BFD030CFD030D60
:1019C000FE01CFFE04CFFE06CFFE0BCFFEFD1F08AB
:1019D000FD370F9F4030FC104020FC104020FC11D0
:1019E0004020FC10FE41F8A543C9FE41FFBF43AFB4
:1019F000FE0700000A00120015001E0025002A0044
:101A000000010202403041FF9D18FD3F039F401836
:101A100041FDFD3F049F40009F01CF06CF05CF0A47
:101A2000CFFEFD0206FD0205FE2DA72AA7FE2DA76B
:101A300029A7FE1010FFFFFFFFFFFFFFFFFFFFFFC3
:101A4000FFFFFFFFFFFFFFFFFFFFFFFFFFFFFFFFA6
:101A5000FFFFFFFFFFFFFFE3C7FFE7F3FFFFFFFF0E
:101A6000FFFFFFFFFFFFFFFFFFFFFFFFFFFFE3C7DA
:101A7000FFE7F3FFFFFFFFE7E79999E7E7FFFFF9CC
:101A8000F3FFE3F1FFFFFFE3C7FFE7F3FFFFF3F32C
:101A9000CCCCF3F3FFAF7B7F7D7F7DABFFEBBD7FD6
:101AA0007D7F7DABFFAB7D7F7D7F7BAFFFAB7D7FA0
:101AB0007D7FBDEBFFAB7D7F7D7F7DABFFFFE3C710
:101AC000FFE7F3FFFFAB7D7F7F7D7BAFFFEBBD7F4C
:101AD0007D7F7DABFFFFFFFFFBFFFFBFFFFFFFFE33
:101AE000FFFFFFF7FFFFFBFFFFFFDFFF7FFFFFFFB2
:101AF000FDFFFFFFBFFFFF7F7FFBFFEFC7DBDBDBF0
:101B0000D6CFFFFFDFFEDCFDFDFCFDDFFFF7E3EDE1
:101B10006DEDF3F7FFFFFFFFFFFFFFFFFFFDF1E9B3
:101B2000D5DBD7CFFFFFFFCFD7DBD5E9F1FDFFFF37
:101B3000FFFFFFFFFFFEFDFBF7E7DBBD7EFEFDFBCA
:101B4000F7E7DBBD7EFEFDFBF7E7DBBD7EFEFDFBC1
:101B5000F7E7DBBD7E00FFFF0066EEEEEEEEEEEE99
:101B60006600FFFF0000FFFF0066EEEEEEEEEEEE19
:101B70006600FFFF00FFFFDDDD7777FFFFFFFFDD82
:101B8000DD7777FFFFFFFFDDDD7777FFFFFFFFDD0D
:101B9000DD7777FFFFFFDDDDFFFF7777FFFFDDDD1F
:101BA000FFFF7777FFFFDDDDFFFF7777FFFFDDDDED
:101BB000FFFF7777FFCF87397D7DFEFEFEEE66550E
:101BC000113377FFFFFFFFDDDD7676FEFED68AA9B3
:101BD000B91B47FFFFCF85397D7DFEFEFEEE6655C2
:101BE00031BB7777FFFFDDDDFFFE7676FED688A975
:101BF000BB9B4777FFAE57AE5DAE5DAE57AE57AB02
:101C000057AB57AB57AB57AB57AE57AE5DAE5DAEAC
:101C100057AE57AB57AE57AB57AB57AB57AE57AEA8
:101C20005DAE5DAE57AE5DAE57AE57AB57AB57AB83
:101C300057AE57AE5D3FCFF7FBFDFDFEFE7EBE5EAD
:101C40003E5E3E5E3E00FFFFFFFFFFFF0201409051
:101C500028102054025E3E5E3E5EBE5EBE7EFEFDED
:101C6000FDFBF7CF3F042250AA14A0400001FFFF64
:101C7000FFFFFFFF0020542E17289482C0E0FFFFD3
:101C8000FFFFFFBF003F5F3F5F3F5F3F5F3F5FAFD3
:101C900097CBE5F2FC007FFFFFFFFFFFE0C08295DE
:101CA00028172E5420FCF1EBD7AF9F3F5F3F5F3FDB
:101CB0005F3F5F3F5FFF3F87DBCDDD2D85C956CEA0
:101CC000162A56355300A552391AA04B0502F1FCCD
:101CD000FEFEFFFF7F3355366A16CE56C9852DDDD1
:101CE000CDDB873FFF7FFFFFFEFEFCF102054BA02F
:101CF0001A3952A5002F5F2F170B058240A05502FD
:101D0000D4CF952A00D6CC960C50395AA99408E124
:101D1000F3E5AA4500002A95CFD40255A0408205DC
:101D20000B172F5F2F0045AAE5F3E10894A95A3954
:101D300050844ED4CE5E3E5E3E5E3E5E3E5E3E5E75
:101D40003E5E3E5E3EE4EAE44010281C2A5C3A54C3
:101D5000288048D6CC00946AE70C52A50000FFFF0B
:101D6000FFFFFFFF000052295C18A5520000FFFF93
:101D7000FFFFFFFF0035762A062A76367135662A80
:101D8000162A7636513F5F3F5F3F5F3F5F3F5F3FC1
:101D90005F3F5F3F5F00FFFFFFFFFFFF0000A552B7
:101DA0000CE76A940000FFFFFFFFFFFF00005225D1
:101DB000185C2952000051A275E2440B17AF97AF8F
:101DC00006A059BA79FFFEFCFDFCF0EAD5CFD7CBCF
:101DD000C3AC5E3C5DF275B2610896AF9F2F5F2F7A
:101DE000168871FA792C598094AB9F2F5F2F5FAEC4
:101DF00084A0592A59BA79BA5106AF97AF970B44C4
:101E0000E275A251003C5C2E9CC3CBD7CFD5EAF043
:101E1000FCFDFCFEFFFFFF3F8F77FBFBFDFDAD539D
:101E2000ABD78F3FFFE1CA952A5D2E572B552B5517
:101E30002B95AA95C0FFCE1821FF2118CEFF3F7F1A
:101E4000D5ABD57F3FFF7FFFAA57AAFF7FFFE78C67
:101E500010FF108CE7FFFF7F3F8F57278BD9FDFDC9
:101E6000FEFEFEFEFD77089D0FFE3DFAF4E1D7EB86
:101E7000D1A7DF8FC7FDFEFEFEFEFEFEFDFDFEFECE
:101E8000FEFEFEFEFDAF1FBF4FA7C79F3F9FCF9F28
:101E90004FA75F9F1FFDFEFEFEFEFDFDD9AB5787DE
:101EA0004FBF7FFFFFA74F9FCFA1D3E7D1EAFC3AF7
:101EB000FD0F5D8877A7CF67D1EB7769F51BB07A07
:101EC0009CE6DDE2FC29502884C9D4CAE4E9F3FF8A
:101ED000FFFFFFFFFFFCE3DEE59E7DB813E97167BE
:101EE000D3E947EFD7FFFFFFFFFFFFF3E5E8D4CAD1
:101EF000D588502851A7CF67118B572189D9FCFC71
:101F0000FEFEFEFEFC21089D0FFE3DFAF4E1D7EB3C
:101F1000D1A7DFAFD7FCFEFEFEFEFDFCD9A951879D
:101F200043A947EFD7A74F9FCFA1D3E7D1EAFC3A08
:101F3000FD0F5D885100FDFDFDFD0515151515050D
:101F4000FDFDFDFD00006F6F6F6C1A6A6A6A6A1A08
:101F50006C6F6F6F00FDFD01F97901F9F9F9F90175
:101F6000F9F901FDFD7F7F80BCB981B8BFBFBF809B
:101F7000BFBF807F7F0FF70B05050505050505052C
:101F800005050BF70F007F80C0C0E0E0E0E0E0E077
:101F9000C0C0807F0002F2A252A252F20202F2A25C
:101FA00052A252F202003F6A556A553F00003F6A52
:101FB000556A553F00027222522252720202722268
:101FC00052225272027F5355657F4177417F635D94
:101FD000637F41757B027222522252720202722288
:101FE00052225272027F417F417B776F417F417B5A
:101FF000776F417F7F5E3E5E3E5E3E5E3E5E3E5E52
:102000003E5E3E5E3E007F7F730D72336F33731F03
:102010006E717F7F007AFA7ABA7AFA7AFA7AFA7A65
:10202000BA7AFA7AFA6F6F6F6E6F6F6F6F6F6F6F4A
:102030006E6F6F6F6F00BDBF7FFFFFFFFFFFFFFF82
:10204000FF7FBFBD00807E7E819A9A9A1A9A9A9AE3
:102050009A817E7E8001DADAC115E5E5E4E4E5E502
:1020600015C1DADA0100DDEEEEEEEEEEEEEEEEEEAA
:10207000EEEEEEDD0000FF203636363234323036FA
:10208000303620FF00805F509B989B9B189B989B4D
:10209000989B505F0001BEBEBEBEBEBEBEBEBEBEF1
:1020A000BEBEBEBE0100FF406C606C6C606C606CBC
:1020B000606C40FF0001FEFEFEFEFEFEFEFEFEFE28
:1020C000FEFEFEFE01F08B6B6B8BCB8B4BCBCBCB39
:1020D0008B6B6B8B70FEFDFB37C7EBEDEEEEEDEB24
:1020E000D727DBBD7EFEFDFBF4C2D5A565E5E5D5B2
:1020F000C2E4DBBD7EFE0DA34159BCBCA4A4B4BCAC
:102100005941A30D7EFEF0C790AF5E405E5E405E1B
:10211000AF90C7B07E00000000000000000000008B
:1021200000000000000000000000000000000000AF
:102130000000000000FF03FBFB5B5BD97A5A59DB10
:102140005BFBFB03FFFFFCFBFBFBFB83737383FB6E
:10215000FBFBFBFCFF007E7E006A6A6A6A6A6A6AB1
:102160006A007E7E00007D017979716D51516D713B
:102170007979017D0000FE02160A160A160A160A6F
:10218000160A02FE00007D017979716D51516D7161
:102190007979017D00A61B631BF01FB31FE71F05A4
:1021A0001BE221841C7F1A802996196C199A209AA7
:1021B000209A209A20BD1DDB25AE1F381E9D1A8156
:1021C00019811981198B214F20861D8E25DA1A005D
:1021D0000006011501260137014A015D01720188DF
:1021E000019F01B801D201EE010B022A024B026EDF
:1021F000029302BA02E40210033F037003A403DC5B
:1022000003170455049704DD0427057505C8052048
:10221000067D06E0064907B8072D08A9082D09B96B
:10222000094D0AEA0A900B400CFA0CC00D910E6F92
:102230000F5A1053115B1272139A14D41520178081
:1022400018F519801B231DDE1EB420A622B5240517
:102250000800000000001E0505051E1F1515150AC3
:102260000E1111110A1F1111110E1F151515111F35
:10227000050505010E1111151D1F0404041F001191
:102280001F110010110F01001F04040A111F10106C
:1022900010101F0204021F1F0204081F0E1111114B
:1022A0000E1F050505020E111109161F05050D1259
:1022B000121515150901011F01010F1010100F0350
:1022C0000C100C031F0804081F110A040A11010254
:1022D0001C020111191513110E1915130E00121FEE
:1022E00010001915151512111515150A0704041EED
:1022F0000417151515090E15151508010119050303
:102300000A1515150A021515150E0000100000001B
:10231000201000000000170000000115030000005D
:1023200003000000120000001008040201001F1F3B
:102330000E04040E1F1F000C0E0F0E0C060E1E0EB8
:1023400006040E1F0E04040E1515041010101010B4
:10235000000A040A0000000E11000000110E000027
:10236000040E04000004040400FFFFFFFFFF002E22
:1023700011241FBECFEFDAE0DEBFCDBF11E0A0E039
:10238000B1E0E2E6F9E602C005900D92A239B1078C
:10239000D9F727E0A2E9B1E001C01D92AE35B2073E
:1023A000E1F711E1C8EBD1E104C02197FE010E94E1
:1023B000A934C73BD107C9F70E940E2E0C94AF3445
:1023C0000C940000982FEEE5F3E091119FEF8FEF52
:1023D00091939193919391938150D0F70895909117
:1023E0005903982329F490915803982381E009F424
:1023F00080E008956F927F928F929F92AF92BF92EA
:10240000CF92DF92EF92FF920F931F93CF93DF93C0
:10241000DC01FA011491319654913196C12FD0E02C
:10242000222309F1CC24C394D12C852F877011F479
:10243000D12CC12CE52EE694E694E694EC0CFD2C10
:10244000F11CEC9EC001ED9E900DFC9E900D1124A0
:10245000033011F4880F991F289F7001299FF00CF9
:102460001124EE0DFF1D7D01EC0EFD1E1E141F0438
:102470000CF06BC0A038B1050CF067C0CB01850F24
:10248000911D181619060CF060C0603471050CF02F
:102490005CC0309709F459C0362F3770CB0177FDF7
:1024A000079623E0959587952A95E1F7282F77FFE2
:1024B00004C0332311F02FEF280F662777276A1BFC
:1024C0007B0BB7FD02C070E060E090E89A1B40E82B
:1024D000E416F1040CF4912F961BE22E022E000C50
:1024E000FF08DE2CD0942F3F0CF0D12C41E0852F3B
:1024F000877009F440E0B52EB694B694B6944B0DAF
:10250000E40EF11C89E0E816F10414F048E0421BE7
:10251000B42EBD182D0D40E8240370011124AE0D1A
:10252000BF1DA60FB71F1D9D600D711D1124AF01AA
:10253000460F571FC32E032E000CDD08033009F48D
:10254000C7C090F4023009F474C0DF91CF911F919D
:102550000F91FF90EF90DF90CF90BF90AF909F9042
:102560008F907F906F9008950A3FA1F1B20E0B3FBC
:1025700061F72B1551F3BD01625A7C4F10E000E06A
:10258000091708F09FC0FA01E00FF11FE491F0E095
:102590004F010C2C02C0880C991C0A94E2F727FD0D
:1025A00006C0FB018081F82CF0948F2180833323B7
:1025B00061F0273054F47B01F0E8EF0EF11CA92CF8
:1025C000A094F70180818A2180830F5F1F4F6F5F86
:1025D0007F4FD6CFB20E2B1509F4B7CFBD01625A8B
:1025E0007C4F10E000E0091708F066C0FA01E00F28
:1025F000F11FE491F0E04F010C2C02C0880C991CF3
:102600000A94E2F727FD04C0FB01808188298083BA
:10261000332351F0273044F47B01F0E8EF0EF11C36
:10262000F7018081892980830F5F1F4F6F5F7F4F84
:10263000DACF6FEF70E0032E02C0660F771F0A94A7
:10264000E2F760957095972E8B2C820E281509F471
:102650007CCF8D01025A1C4FF12CE12CE91630F58C
:10266000FA01EE0DFF1DE491F0E03F010C2C02C0D9
:10267000660C771C0A94E2F727FD05C0F8018081FB
:10268000862386298083332359F027304CF4580160
:10269000F0E8AF0EB11CF501808189218729808384
:1026A000FFEFEF1AFF0A0F5F1F4FD8CF2F5F4C0FBE
:1026B0005D1FA058BF4FCACF2F5F4C0F5D1FA058A2
:1026C000BF4F89CF2F5F4C0F5D1FA058BF4F51CF19
:1026D000E92EF12CFA01E60FF71FA25ABC4F60E871
:1026E00070E06E197F09CE19DF098E01000F111FEE
:1026F00041E050E07A01032E01C0EE0C0A94EAF7A3
:10270000592F4B2D892E932ECF93DF93ED01EF960A
:10271000EF962296A590C590992059F0AE9C500155
:10272000CE9C600127302CF4F880D094FD20FB284B
:10273000F99222233AF0FC90C094FC20FA28FD92F2
:102740000C94A31311965A9529F74A9551F0582DD8
:1027500023951124E00FF11DA60FB11DC60FD11D49
:10276000D9CFDF91CF911124F0CEAFE4B3E02FB7F2
:10277000F8947D918D919C9166B52FBFA89B05C063
:102780006F3F18F47F5F8F4F9F4F22E0660F771FD8
:10279000881F991F2A95D1F7089590E0880F991FF7
:1027A000E0916C02F0916D02E80FF91F8591949110
:1027B00020916E0230916F02820F931F08950F9344
:1027C00003E00E94FA110F9108950F930AEF0E94FF
:1027D000FA110F9108950F930BEF0E94FA110F91C8
:1027E0000895FF920F931F93CF93DF93182FD62F47
:1027F000042FF22EC12FD01798F46D2F70E08C2F7C
:1028000090E028E34FE452E2F11007C00E94EB137E
:10281000CB5FCE3780F3D85FEDCF0E94E513F8CFC2
:10282000DF91CF911F910F91FF9008950F9302E0D8
:102830000E94FA110F910895E82FF0E00E94B5135D
:10284000319728F068517C4F8F4F9F4FF9CFAB01E4
:10285000FC010E94B513641775078E079F07C8F324
:1028600008958FB18095807F669B88601C9B8460F3
:10287000089510926B023E98579808953E9A579A81
:1028800081E080936B020895089520915603309162
:1028900057032F703327232B59F490916A0221E0BC
:1028A000922790936A02909169029F5F90936902C8
:1028B00090916A0291110C94E211089580E80E94AF
:1028C000EF11882321F081E080930A01089588E1C7
:1028D0000E94EF11811110920A0108958091B501B3
:1028E000863018F48F5F8093B5018091B50190E038
:1028F0002091D701283011F02D3029F4865B9E4FAE
:10290000FC01808108958D5B9E4FFACFE82FE695FC
:10291000E695E695660F660FE60FFF27FF1FEE515F
:10292000F44FE491877021E030E001C0220F8A95D6
:10293000EAF7E22381E009F480E008950F931F9302
:10294000CF93DF9322E93BE070E0A82FB0E0C62FE1
:10295000D0E0F9014491042F10E031969491319622
:1029600044913196E491A017B10784F0400F512FA4
:10297000511DA417B50754F4492F50E0C417D507CB
:102980002CF04E0F511DC417D50734F07F5F2C5F1C
:102990003F4F7431F1F67BE0872FDF91CF911F918C
:1029A0000F9108950F931F93CF93DF9390E2699F48
:1029B00090011124280F311D233092E0390709F4CA
:1029C00058C00CF08BC0213D310509F43BC00CF020
:1029D00056C02B33310509F443C00CF035C0213209
:1029E000310509F4B2C03CF52630310509F4BFC009
:1029F000162F082F0E949E14843108F06FC1E82F13
:102A0000F0E0E95FFA4E612F802F0C94A93436165E
:102A10003616301636164316431649164F16DF156E
:102A2000DF15DF15DF1507165516551655165F16F7
:102A3000651665166B162A32310509F498C02B32DB
:102A40003105B1F68DEA16C02B3A310591F054F4F8
:102A50002D33310509F479C02435310509F0C8CF8B
:102A600082EA08C0243B310521F0203C310509F001
:102A7000BFCF8AEADF91CF911F910F910895203740
:102A800091E03907B1F394F4283391E0390789F3E1
:102A900024F42D3F310521F3ABCF243591E03907E4
:102AA000F9F22136314009F0A3CFE3CF253E91E082
:102AB0003907F9F254F42B3791E0390709F457C07C
:102AC0002A38314009F094CFD4CF2D3E91E0390718
:102AD00081F22130324009F4B5CF8ACF213E92E015
:102AE000390739F2A4F5233792E0390711F2A4F43B
:102AF000223392E0390709F4BCCF2CF4283032405D
:102B000009F4AECF75CF2A3392E03907F1F02D35B5
:102B1000324009F06DCFADCF253C92E0390739F155
:102B20005CF4273792E0390709F4A3CF2F383240FD
:102B300009F05ECF82E99ECF2C3C92E0390709F480
:102B400098CF2E3C324009F053CF8CEA93CF2232FB
:102B500093E0390709F484CFBCF4243F92E03907AD
:102B600009F470CF34F4223F324009F041CF8BEAB0
:102B700081CF283093E0390709F47BCF21323340ED
:102B800009F036CF8EEA76CF213793E0390709F482
:102B900070CF54F42B3493E0390709F461CF293610
:102BA000334009F025CF65CF2E3893E0390709F47B
:102BB00060CF233F334009F01BCF87EA5BCF0E94F1
:102BC0008614811151C0612F81E0800F0E9486140C
:102BD000C82F6FEF610F802F0E948614D82F612FAE
:102BE0008FEF800F0E948614DD0F24E0829FC001CA
:102BF0001124D82BCD2B61E0610F802F0E94861409
:102C000028E0829FC00111248C2B805F33CF0E946B
:102C10008614882311F08FE02DCF612F81E0800F83
:102C20000E948614C82F6FEF610F802F0E948614B8
:102C3000D82F612F8FEF800F0E948614DD0F24E0C4
:102C4000829FC0011124D82BCD2B61E0610F802F12
:102C50000E94861428E0829FC00111248C2B0ACF89
:102C60000E9486148823E1F18FE104CF0E9486142C
:102C70008111FACF612F802F0E949E14982F990FF7
:102C8000990F890FC2CF0E948614882321F282E215
:102C9000F1CE0E9486148111E7CF8AE1EBCE0E942B
:102CA00086148111F4CF83E2E5CE0E94861481114F
:102CB00019C0612F802F0E949E14895EDBCE0E9476
:102CC0008614882389F080E3D5CE0E948614882359
:102CD00081F381E2CFCE0E948614FBCF80E0CACE82
:102CE00080E2C8CE8FE2C6CE87E2C4CEEF92FF92DA
:102CF0000F931F93CF93DF93AC01813F9B4008F06C
:102D00009EC061348CE0780708F099C0CB01E4E004
:102D100096958795EA95E1F7E0ECE89F9001E99FA9
:102D2000300D1124CA01F4E096958795FA95E1F7E4
:102D3000280F391F273F87E4380709F490C008F0AF
:102D40006DC025348FE0380709F49EC008F04CC0F0
:102D5000293586E0380709F480C02931374009F465
:102D600083C0CB019A01E0E6F0E0BF010E9481340C
:102D7000D62F7C01C901BF010E948134C62F8C016E
:102D80006D2F8C2F0E94D214982F9F7724E0F694F9
:102D9000E7942A95E1F726E02E9DF0012F9DF00D96
:102DA000112434E0169507953A95E1F7E00FF11FED
:102DB0009F3008F085C024E2929FE00DF11D1124A0
:102DC000EE59F34F14918F3708F491C01C3009F479
:102DD000D4C008F0C9C01A3009F4CFC01B30B1F418
:102DE00080910701181B12C0233485E4380709F4C9
:102DF00046C0263F87E4380781F12931344109F084
:102E0000B0CF8091420286FF38C01AE3812FDF9154
:102E1000CF911F910F91FF90EF9008952D358DE583
:102E20003807D9F070F423318AE4380711F12D39CD
:102E30003C4509F096CF8091420280FD92CF1FE180
:102E4000E5CF2B3488E8380721F12C328DE838079C
:102E500019F12B3C354709F084CF18E3D7CF809187
:102E6000420281FD7ECFEBCF8091420282FD79CF7D
:102E7000E6CF8091420285FDC8CF19E3C7CF80918C
:102E8000420284FFFACFC1CF8091420287FFF5CF83
:102E9000BCCF80914102F5CF20913D02E22FE69513
:102EA000E695E695F0E0E65DFD4F858990E02770B8
:102EB00002C0959587952A95E2F780FFDECFA5CFD2
:102EC000903208F042C0492F50E0983170F524E26A
:102ED000929FE00DF11D1124EE59F34F14911F70D4
:102EE000183008F470CF185E8F3708F08FCF6D2F31
:102EF0008C2F0E949E14883008F468CF8A3038F1F5
:102F00008A3009F063CF1F31B8F51123D1F11330A6
:102F100009F43DC08FEF810F823028F0143019F092
:102F2000173009F053CF1AE028C04850510994E2F5
:102F3000949F9001959F300D1124E20FF31FEE59DD
:102F4000F34FE4911E2F1295CACF985034CF1F3102
:102F5000D0F41230D1F08DEF810F8230C0F01730F5
:102F600009F034CF12E052CF1E3039F008F438CFD8
:102F70001F3009F04BCF34CF1EE080910701180FAE
:102F800045CF1CE0FACF10E241CF10E03FCF15E073
:102F90003DCF8091C401811106C08091BF0182950F
:102FA0008F708352089580913D028E520895409112
:102FB000C5015091C6012091C7013091C801FA01A5
:102FC00031978E179F0774F0425F5F4F8417950704
:102FD0004CF46217730734F0205F3F4F81E06217B3
:102FE00073070CF080E00895AF92BF92CF92DF920A
:102FF000EF92FF920F931F93CF93DF93C0902A021B
:10300000D0902B02E82FF0E0EE0FFF1FDF01AA0F98
:10301000BB1FA059BE4FCC91CC0DDD2DD11DE09032
:103020002C02F0902D0211960C910E0D1F2D111DEA
:10303000EE0FFF1FEE58FE4FB080A180B801CE0109
:103040000E9476168E3060F080E0DF91CF911F9164
:103050000F91FF90EF90DF90CF90BF90AF900895C9
:10306000CB0CD11CEA0CF11CB701C6010E947616EC
:103070008E3050F7B801CE010E94D7178111E4CFEE
:10308000B701C6010E94D7178111DECF81E080937E
:103090002802809135028D3028F48091CC018F5F19
:1030A0008093CC0181E0D1CFEAE2F2E0808191818E
:1030B000C8979093610280936002828193814897C0
:1030C000909363028093620208954091530250E00E
:1030D00030E020E090E0FC01E20FF31FE652FE4FEB
:1030E0002417350764F4D901A65DBD4F9A966C91FB
:1030F00060832F5F3F4F2730310569F708951082B5
:10310000F8CF8091CA0128E0829FC00111248E3B34
:103110009105ECF48E33910514F48EE390E08E5318
:103120008093D6018091CB0128E0829FC0011124B9
:103130008E3C910574F48E31910514F48EE190E08B
:103140008E51809308018AE080936802089580E898
:10315000E7CF80EBF6CFBF92CF92DF92EF92FF9254
:103160000F931F93CF93DF93082FC62FB42EC090D9
:10317000CD01CC2079F010920B0184E00E94EF1178
:103180002091DA019091B201882339F1921708F564
:103190002093B201EE24E394D12CF12CD0E010E086
:1031A0008E2D90E02091B201C11002C02091DA0171
:1031B00030E02F5F3F4F821793073CF586529E4FBA
:1031C000FC0120812E3F79F4F6E0DF0EF12CE39430
:1031D000E7CF81E080930B01DDCF9217D8F69F5F98
:1031E0009093B201D7CFBE016D0D711DC8018F0D37
:1031F000911D4FE452E2BB2029F00E94E51386E0C6
:10320000F80EE5CF0E94EB13FACFDF91CF911F911B
:103210000F91FF90EF90DF90CF90BF900895CF93E4
:10322000DF93662339F09091010198131092B20157
:10323000809301016093CD0170E060E0FB01E754F1
:10324000FA4F882339F0E491F0E031966E0F7F1F3A
:103250008150F4CF44916F5F7F4F460F572F511D20
:10326000641775070CF033C0FB01E754FA4F9491D3
:103270009E3F49F4E82FF0E0E652FE4F91838F5FC6
:103280006F5F7F4FEDCF30E020E0D901F901E050D2
:10329000FF4F992339F0E491F0E031962E0F3F1F54
:1032A0009150F3CF2491FD0131962E0F3F2F311D08
:1032B0001196A217B30724F7FD01E050FF4FE491E8
:1032C000C82FD0E0C652DE4FE9838F5FF1CF8093E5
:1032D000DA01DF91CF91089581E00E94E21120E0B0
:1032E00047E059E16EE170E088E390E00E94EB1363
:1032F00061E08BE20E940F1940E060E185E20C94EE
:10330000AB1820E040E460E380E00E94F11380917C
:10331000680261E08C5D0E940F1941E062E384E085
:103320000E94AB1881E08093660208956F927F92AD
:103330008F929F92AF92BF92CF92DF92EF92FF92C5
:103340000F931F93CF93DF9381E00E94E21180914E
:10335000420283FFCCC0809135028D3008F0B0C0AE
:1033600040E8742E30E4632E872C912CE090D60137
:10337000F12CE701C80DD91D83E0D595C7958A9535
:10338000E1F7C0900801D12CA62CB12C86010A0DC2
:103390001B1D93E0159507959A95E1F78C2F86955F
:1033A00086958695902F969596959695990F990F57
:1033B000282F290F3327331FF90123E0F595E795CF
:1033C0002A95E1F7E65DFD4F27A530E0890F87706C
:1033D00002C0359527958A95E2F720FF6FC0602FD0
:1033E0008C2F0E94D214602F87FD58C08C2F0E9412
:1033F000861481113DC028E0B601687F6A0D7B1DEF
:103400006C197D09C701887F880D991D47E558E132
:103410008E199F090E94161438EF630E6312A6CF0F
:10342000730E73129FCF20915F0223706091CB01C6
:1034300088E0689FB00111246C197D098091CA0150
:1034400038E0839FC001112445E358E18E199F099C
:10345000DF91CF911F910F91FF90EF90DF90CF9070
:10346000BF90AF909F908F907F906F900C941614A8
:10347000602F8C2F0E949E148A3040F424E0863006
:1034800008F0BACF843040F023E0B6CF8A30E1F3C1
:1034900021E08C3009F4B0CF22E0AECF8C2F0E9417
:1034A000D21425E08A3A09F4A7CF26E08C3A09F431
:1034B000A3CF27E0823909F09FCF9DCF20E09CCF9A
:1034C00061E08AE20E940F1940E06DE187E0DF9140
:1034D000CF911F910F91FF90EF90DF90CF90BF9011
:1034E000AF909F908F907F906F900C94AB1861E09D
:1034F00085E00E940F1940E06DE180E1E8CF20E017
:1035000040E460E083E50E94F11360E08AE00E94FD
:103510000F1941E065E08DE50E94AB1860915D02F6
:103520008CE0689FB00111246B5F7F4F2CE24FE469
:1035300052E286E590E00C94E5131F93CF93DF935E
:1035400081E00E94E211D0E011E1CCE0DF5F612F69
:1035500070E02D2F4FE452E28C2F90E00E94EB138D
:10356000C45FC83710F0165FCCE0D43279F760E062
:1035700083E00E940F198DE00E94651840E063E02F
:103580008CE00E94AB1860915D022AE0629FB0015E
:1035900011246F5E7F4F80915C022CE0829FC001FE
:1035A00011242CE24FE452E20696DF91CF911F9155
:1035B0000C94EB1380E00E94E21160E081E40E9431
:1035C0000F1941E068E084E00E94AB1860E082E4FB
:1035D0000E940F1941E062E284E00E94AB180E9451
:1035E000311484FF04C0F8940C94012A089588E0F3
:1035F0000E94EF11882341F081E08093680280915E
:103600000C018E5F80935D02089580E00E94E211BC
:1036100060E089E20E940F1941E06BE082E10C94C6
:10362000AB1860E088E00E940F198AE00E946518DC
:1036300041E062E084E00E94AB1821E040E46AE0EF
:1036400080E00C94F1130F931F93CF93DF93B0E0BE
:10365000A0E09D0120503F4FF901662341F02491E5
:1036600030E02F5F3F4FA20FB31F6150F2CFC491E4
:10367000FD013196682F811101C061E070E050E0DA
:1036800040E0CE0FDF2FD11D66527E4F8A010F5FC3
:103690001F4FF801EA0FFB1FEC17FD075CF4F9015F
:1036A000E00FF11F9491460F572F511DFA0190839F
:1036B000A801ECCF811102C04093DA01DF91CF91D4
:1036C0001F910F910895CF93DF93D0910C01C8E023
:1036D000D111C2E080E00E94E21160E080E00E942F
:1036E0000F19D11104C061E081E00E94231B809179
:1036F0006B02882341F166E08BE10E94231B41E0CD
:103700006C2F88E20E94AB1880915D028250990B69
:103710004CE0489F9001499F300D1124C20FD32FD8
:10372000D11D2CE24FE452E2BE0180E290E00E9403
:10373000E5132DE24FE452E2BE018AE590E0DF910D
:10374000CF910C94E51365E08AE1D7CFCF9380E069
:103750000E94E211C0915E02CE3F70F460E082E010
:103760000E940F1941E061E18FE10E94AB18CF5F29
:10377000C0935E02CF91089520E048E75BE060E1EE
:1037800070E084E390E00E94E51320E046E65BE011
:1037900070E060E08CE390E00E94E51320E044E4F8
:1037A0005AE068E170E080E190E00E94E51320E0DB
:1037B00046E35AE060E370E08DE390E00E94E51399
:1037C000809156039091570364E670E00E94813423
:1037D000C29780F620E04EE25AE064E370E08DE3A9
:1037E00090E00E94EB1364E980E00E94231B41E01B
:1037F00065E381E3CF910C94AB18E0915F02EF7128
:10380000E43008F0E0E0F0E0E450FF4F249170E095
:103810004EEE50E090E00C94E513EF92FF920F9380
:103820001F93CF9380912802882309F465C080916B
:1038300056039091570387709927892B31F4809113
:10384000B3018F5F83708093B3018091B301909136
:103850002902C92FCC0FC90FE82FF0E0E15CFE4F21
:103860009081C90FE0906202F090630200916002C3
:10387000109161022BEAC29F212D1124269560919F
:103880002C0270912D026E197F09482F417050E073
:10389000641B750B6F5F7F4F80912A0290912B0202
:1038A000801B910B4CEC59E002960E94DF13609153
:1038B0002C0270912D026E197F09685F7F4F8091F5
:1038C0002A0290912B02801B910B2C2F4AEA58E080
:1038D00002960E94DF13C13089F460912C02695F67
:1038E0006E1980912A028A5F801BCF911F910F91E0
:1038F000FF90EF900C94FD1B81E0A5CFCF911F911D
:103900000F91FF90EF9008950E940D1C20E040E47D
:1039100060E083E50E94F11360E084E00E940F19EB
:1039200041E065E08DE50E94AB1860915D028CE09E
:10393000689FB00111246B5F7F4F2CE24FE452E28D
:1039400086E590E00C94E513209156039091B10127
:10395000290F2093B1014AE0249F90011124482FA0
:10396000429FC001439F900D112460E07AE00E94C5
:103970008134862F0895CF92DF92EF92FF920F93BA
:103980001F93CF93DF93082FD62E142FC22ED091E2
:103990003502F8EFEF2EED0ECE2DCC0F8C2FC83068
:1039A00008F087E00E94A41CF82ED092C001C092BB
:1039B000B90184E08093C201D950D1102BC081E0BD
:1039C000E81250C0802F063008F085E00E94A41C49
:1039D0008093C00183E00E94A41C182F8091C00135
:1039E0008F5F9D2F990F9D0F990F890F8093C001B5
:1039F0009F2D96959093B90167E00E947534912FA1
:103A0000990F990F890F90E1F99E90011124822B53
:103A10008093BF013091C00183E0389FA001112441
:103A20005093BB014093BA01932F990F930F90933A
:103A3000BC019093BD01692F660F6093BE01232FD7
:103A4000220F220F230F2093C101113069F0123091
:103A500021F1DF91CF911F910F91FF90EF90DF90B7
:103A6000CF9008958C2FB2CFC250892F8C1B80939A
:103A7000BC01C90FC093BD016D2F70E0660F771FA9
:103A8000461B570B5093BB014093BA019C0F909378
:103A9000BE01931B9093C101DCCFC250892F8C0FC4
:103AA0008093BC019C1B9093BD018D2F90E0880FEB
:103AB000991F840F951F9093BB018093BA016C1BD3
:103AC0006093BE012C1B2093C101C3CF1F93CF93E2
:103AD000DF93D8E3C8E717E080916902612F0E9465
:103AE00075346D2F70E0292F4CEA50E08C2F90E058
:103AF0000E94EB13C850C7FFEFCFD850D13420F04D
:103B0000DF91CF911F910895C8E7E6CFCF938091C1
:103B10002F0280932E028091310280933002809197
:103B200025028823D1F020E040E460E380E00E9499
:103B3000F11361E082E50E940F1941E062E384E045
:103B40000E94AB181092260280916902873018F00B
:103B500086E080936802CF910895C09169020E9427
:103B6000661D80915603909157038F709927892B7A
:103B700059F7CF5FC0936902E7CFCF93DF930E94DD
:103B8000661D809156039091570387709927892B62
:103B900029F4809169028F5F8093690280916902A4
:103BA00090916A02911156C0843009F053C081E0AF
:103BB00080936A028091290281111FC0E0913D0229
:103BC000F0E0EE0FFF1FEF55F74E849120E1829F4A
:103BD000C001112490932B0280932A023196E49124
:103BE00040E1E49FF00111243C96F0932D02E09314
:103BF0002C02DF91CF910C945418D091CB01C0913D
:103C0000CA016D2F8C2F0E94D2148F77823269F4F3
:103C100080E591E090932B0280932A0288EE9BE04E
:103C200090932D0280932C02E4CF6D2F8C2F0E9455
:103C3000D2148F77482F4A52550B9A0140E851E031
:103C4000249FC001259F900D349F900D1124805317
:103C50009D4FE0CF873048F0109269021092CC015E
:103C600086E08093680210926A02DF91CF910895F6
:103C7000CF93C091690261E085E28C0F0E940F1919
:103C8000C230B1F487E10E94651880E00E94E21121
:103C900020E040E460E380E00E94F11341E062E351
:103CA00084E00E94AB180E940D1CCF910C94541814
:103CB000C43058F30E94661D8091560390915703BB
:103CC00066E070E00E948134892B19F4CF5FC093C5
:103CD000690280916902883030F31092690286E0AF
:103CE00080936802E0CF10925D0210925C0208950A
:103CF00010927200E1E7F2E088EDDF011D928A95F3
:103D0000E9F780EF80930D010895EF92FF920F93F2
:103D10001F93CF93DF938C010E94781E81E090E087
:103D2000909394018093930129E12093700221E7FD
:103D300032E030939601209395019093A8018093EF
:103D4000A701909339038093380382E48093C000E5
:103D500081E08093C1008FEF8093D10080E8809351
:103D6000CF0095E49093C2008093D200E8012196A1
:103D7000F8010491D0936D02C0936C0210E0000F23
:103D8000111FC00FD11F7E01F4E0EF0EF11CF09265
:103D90006F02E0926E0201E712E0FE0184910E9440
:103DA000CD13F8019183808321960A5C1F4FCE15B5
:103DB000DF0599F784E080937200DF91CF911F9126
:103DC0000F91FF90EF900895CF9384EA94E10E94C1
:103DD000851E1092C3011092260281E18093680231
:103DE00089E08093D7011092D401109269028091EA
:103DF000C401882309F48AC08091490283FB882783
:103E000080F991E0892780930201109203018EE1ED
:103E10008093D00180E880930401809132029091D8
:103E200033024E96909333028093320220913D02EA
:103E3000822F8C51990BAC0181E090E0A0E0B0E0C2
:103E400004C0880F991FAA1FBB1F4A95D2F78095FF
:103E500090913E02892380933E02809136022D315B
:103E6000C9F12E31D9F12C31E9F520E040E065E0CF
:103E70000E94BB1C80913D0294EE980F9093BF016D
:103E80008B51990B4AE5489F9001499F300D1124B1
:103E90008091BA019091BB01820F931F9093BB0157
:103EA0008093BA010E94731E80914A02823031F0E1
:103EB000843009F44EC0813009F04DC08093B801C0
:103EC000E091B801F0E0EF59FE4F80818093D50179
:103ED000CF91089521E042E060E1CACF22E040E0C6
:103EE00068E1C6CF23E041E063E20E94BB1C809101
:103EF000460287FDBFCF8FEF8093BC018093BD0149
:103F00001092C20188EC8093BE01B4CF24E044E05B
:103F100060E0809136020E94BB1C10920201C091A9
:103F2000C00183E00E94A41CC89F802D11248F5FD4
:103F30008093CF0190E89093030120913202309159
:103F40003302820F932F911D90933302809332029C
:103F5000A9CF83E0B3CF1092B801B2CF81E08093B4
:103F6000C4010C94E41E109229021092CC0110920C
:103F7000280281E3EEE0F1E0AAE2B2E001900D92C6
:103F80008A95E1F784E18093680280E295E10C94E0
:103F9000851ECF9380916B02811116C00E943E1442
:103FA000C0916B0282E090E00E945F34C81729F054
:103FB0006C2F82E090E00E94673480910C018E5F4C
:103FC00080935D02CF9108950E943914E9CF80E07B
:103FD0000E94E2110E94C91F81E080936802089547
:103FE0000F931F93CF93DF930AE212E0C1E1D0E079
:103FF000CE010E945F34F80181938F012196C23473
:10400000D105B1F786E080936802DF91CF911F91CF
:104010000F910C94781EFF920F931F93CF93DF9311
:1040200000D000D000D0CDB7DEB7F82ECB014AE0EB
:104030008E010F5F1F4FB8010E942A34F8010190D2
:104040000020E9F73197E01B4F2DF11001C041E04E
:1040500050E020E06E2FEE0F770B822F90E0861756
:1040600097076CF4DC01A652BE4FA40FB51F800F5A
:10407000911FFC01808185518C932F5FEECFF11051
:1040800002C02093DA0126960FB6F894DEBF0FBE69
:10409000CDBFDF91CF911F910F91FF900895CF93E6
:1040A000DF9381E00E94E21120E048E060E080E0E0
:1040B0000E94F11320E040E469E380E00E94F113E4
:1040C0001092CD01DBE1C3E061E66C0F80E00E945D
:1040D000231B40E06D2F8CE00E94AB18EC2FF0E02A
:1040E000E857FE4F608170E080E00E940B2040E0C6
:1040F0006D2F8EE60E94AB18C150D650CF3F21F7EE
:1041000060915D0286E0689FB0011124675F7F4F78
:104110002CE24FE452E285E090E00E94EB1362EC67
:1041200080E00E94231B41E060E084E0DF91CF91BA
:104130000C94AB18AF92BF92CF92DF92EF92FF92A6
:104140000F931F93CF93DF9381E00E94E21120E051
:1041500048E060E080E00E94F11320E040E46FE27C
:1041600080E00E94F1131092CD01D0E0C0E000E0A9
:104170002EE0B22E36E0C32EDC2EA09068028A2DEF
:104180008C50990B7C01EE0CFF1CF701E65DFD4F96
:104190007F01818D90E00C2E02C0959587950A9441
:1041A000E2F780FF6BC06A2D660F660F660F6F5FC8
:1041B0006C0F80E00E94231B102F110F100F110FA6
:1041C000175F40E0612F8CE00E94AB182CE0A21238
:1041D0002FC00C9DB0011124675F7F4F28E14FE491
:1041E00052E28CE590E00E94EB13FE01E65DFD4F8C
:1041F00061A170E080E00E940B2040E0612F84E725
:104200000E94AB1880915D02081337C0809168024C
:10421000D092CE0160E08D30F1F08E3009F470C0A4
:104220008C3009F076C083E18D0D0E940F1920C0FB
:10423000F701828D90E00C2E02C0959587950A9427
:10424000E2F780FFDFCF61E580E00E94231B40E0C2
:10425000612F88E4D5CF8BE10E940F19BC9EB0017D
:10426000BD9E700D11246F5F7F4F8FE00E940B2069
:1042700041E061E384E00E94AB180F5F2196C830F3
:10428000D10509F079CF10916802812F8C50990BDC
:10429000EC01CC0FDD1FC65DDD4F898D81110AC099
:1042A00060E083E0810F0E940F1940E06DE182E23F
:1042B0000E94AB18898D882379F060915D0296E0A9
:1042C000699FB0011124675F7F4F2CE24FE452E2F7
:1042D00085E090E00E94EB1361E5610F80E00E94B1
:1042E000231B41E060E084E0DF91CF911F910F91AB
:1042F000FF90EF90DF90CF90BF90AF900C94AB18F1
:104300008CE10E940F19CC9EB001CD9E700D11243E
:10431000AACF8DE189CFFF920F931F93CF93DF93A5
:1043200080E00E94E2110E94111B60E08DE30E9478
:104330000F1980913E02807F60E0882329F0982F3A
:104340009170690F8695F9CF70E084E10E940B208F
:1043500040E06EE084E00E94AB1860E08EE30E94D3
:104360000F19C3E0D8E184E0F82ECD9F800111241D
:1043700020E043E35AE168E270E0C80144960E94FD
:10438000EB1380913E0290E00C2E02C0959587952C
:104390000A94E2F780FD0AC02F2D2C1B47E558E157
:1043A0006CE270E0C80148960E94E513C150E8F63F
:1043B00040E06CE184E0DF91CF911F910F91FF907D
:1043C0000C94AB184F925F926F927F928F929F9254
:1043D000AF92BF92CF92DF92EF92FF920F931F9313
:1043E000CF93DF9386E08093D801C0902C02D090C9
:1043F0002D02A0902A02B0902B0220E831E0C601E5
:10440000B9010E948134E62FEE0FEE0FEE0FC501C9
:10441000B9010E9481346053E60F512CEB3020F437
:10442000F0E0EB59FE4F5080252D220F250D30E096
:10443000F901EC5EFA4EE49140E1E49F8001112421
:104440001093C6010093C501F901EB5EFA4EE491A9
:1044500070E1E79FE0011124D093C801C093C70128
:10446000F901EA5EFA4E54905092C90120E630E01C
:10447000C501B9010E949534462F6093CA01C60157
:10448000B9010E949534462E6093CB01842F0E947F
:104490009E1480933502833120F5E82FF0E0ED5A29
:1044A000FD4D0C94A934662242234D2366224223FB
:1044B0004223662266226E23662242234D2358231E
:1044C0007122712271227122712263238091C301B2
:1044D000813039F081E08093C30182E996E10E9446
:1044E000851E8091CC01893C80F0809135028950F5
:1044F000843048F48AE00E94A41C873020F4109293
:10450000C4010E94E41E1092CC0180915603909148
:1045100057038F71992721E0409708F020E02093FE
:104520000701C0905F02D12CC3FAEE24E0F8F12C11
:1045300080916002909161025801A81AB90A809195
:104540006202909163024E01881A990A252D277004
:10455000B401675F7F4F43EE57E1C50103960E94A8
:10456000DF13B401655F7F4F85E0C80ED11CC3FA2D
:10457000662460F8712C6619770920E049EC57E150
:10458000C50102960E94DF13252D30E065E03595C8
:1045900027956A95E1F7B701680D791D47EC56E15B
:1045A000C5010E94DF1367E06E0D680D86E08A0D7D
:1045B0000E94FD1B0E940D1C20912C0230912D02A7
:1045C000C0902A02D0902B0221349BE0390744F599
:1045D000E0E0F3E0C60180599F4FBF010E9495348F
:1045E000462FC90180599F4FBF010E949534660F25
:1045F000660F842F860F9927991FFC0153E0F595CC
:10460000E7955A95E1F7E65DFD4F640F677041E06D
:1046100050E001C0440F6A95EAF787A5842B87A76D
:10462000F0902902F0FC6AC081EA98E160E0FC01A8
:104630004491F0E14F9FA0011124FC013196E491D7
:10464000DA011397CA16DB060CF453C0495F5F4FBB
:10465000C416D5060CF04DC040E1E49FF0011124D2
:104660002E173F070CF445C03A962E173F070CF063
:1046700040C072E0F71202C060933D0280E1809377
:1046800068023CC08091C301823009F42ACF82E0E5
:104690008093C3018DE296E122CF8091C3018330E4
:1046A00009F41FCF83E08093C3018BEB95E117CF13
:1046B0008091C301843009F414CF84E08093C30156
:1046C00080E595E10CCF8091C301853009F409CFD5
:1046D00085E08093C30181EF99E101CF8091C3010F
:1046E000863009F4FECE86E08093C30180E295E136
:1046F000F6CE6F5F0296633309F099CF0E9454188B
:1047000020912A0230912B02EF2DF0E0C90103978E
:10471000EE0FFF1FE058FE4FE080E80EF92EF11C6F
:1047200080912C0290912D02AC0141505109C18021
:10473000C40ED52ED11C40912502442309F440C05B
:10474000A80148505109E416F50684F1085E1F4F90
:10475000E016F1065CF5CC16DD0644F1A096CC1609
:10476000DD0624F541E04093260210922702E0E89E
:10477000F1E0BF010E949534462F440F440F440FCF
:10478000C901BF010E949534640F6A3351F06C3344
:1047900081F0603309F06EC061E08FE30E940F1971
:1047A00005C01092260289E18093680210922502CA
:1047B00007C0109226028AE1809368021092690273
:1047C000809127028823B1F1B601C7010E947616B5
:1047D0008F3109F05DC02091350280914A0290E04E
:1047E000022E02C0959587950A94E2F780FF45C096
:1047F00081E090E0A0E0B0E004C0880F991FAA1FFC
:10480000BB1F2A95D2F720914202822B809342024D
:1048100061E087E30E940F1981E08093640281E0E8
:104820008093260280912602811102C00E94811885
:104830001092270280912602882309F45EC120E0AD
:1048400040E460E380E00E94F11341E062E384E031
:10485000DF91CF911F910F91FF90EF90DF90CF905C
:10486000BF90AF909F908F907F906F905F904F9090
:104870000C94AB1861E08CE391CF61E086E30E9479
:104880000F1960913502675881E20E94231BC7CF40
:10489000803340F2873331F28833C1F0893381F1BC
:1048A000823309F027C18091420283FD0AC08860EB
:1048B0008093420261E081E30E940F1960E987E181
:1048C000E4CF61E088E30E940F19A9CF80913502FF
:1048D000883041F461E081E00E940F1982E20E9479
:1048E00065189DCF8EE161E0841510F487E1EBCF70
:1048F00085E30E940F1960913502675588E1C5CFA5
:104900008091350297EF980F943020F58550990BE0
:1049100041E050E060E070E004C0440F551F661FA6
:10492000771F8A95D2F780913E02842B80933E02B6
:1049300090914202492B40934202807F803F41F494
:10494000809145028068809345028AE161E0BBCF97
:1049500084E2FCCF80913D0294EE980F9430E8F40D
:1049600020913E02203FA9F08C51990B30E0082E97
:1049700002C0359527950A94E2F720FD0AC02091E0
:10498000490230E002C0359527958A95E2F720FD6F
:10499000B1C082E18093680242CF8B3281F4809172
:1049A0004702816080934702809141028061809339
:1049B000410261E083E30E940F1961E780CFE82F95
:1049C000E695E695E695F0E0E65DFD4F982F977049
:1049D00041E050E060E070E004C0440F551F661FE6
:1049E000771F9A95D2F79589942B958B65E00E9455
:1049F0007534082F000F11E0100FC12FD0E061E0D7
:104A000091111AC080E30E940F196DE78BE00E949C
:104A1000231B9AE0199FE0011124BE018CE10E9442
:104A20000B208091320290913302C80FD91FD0938E
:104A30003302C0933202F3CE9130A1F480E30E949E
:104A40000F1980914302816080934302BE018CE183
:104A50000E940B20C0914B02C10FC0934B0261E634
:104A60008BE013CF923099F480E30E940F1980916C
:104A70004302846080934302BE018CE10E940B20BC
:104A8000C0914D02C10FC0934D0263E6E9CF933050
:104A9000D9F482E30E940F19BE016F5F7F4F7595B5
:104AA000679581E090E0A0E0B0E0062E04C0880F9A
:104AB000991FAA1FBB1F0A94D2F720914502822B8F
:104AC000809345026759FBCE83E30E940F1981E072
:104AD00090E0A0E0B0E004C0880F991FAA1FBB1FA0
:104AE0001A95D2F720914702822B8093470262E702
:104AF000600FE5CE61E08CE2E6CEDF91CF911F91B1
:104B00000F91FF90EF90DF90CF90BF90AF909F906C
:104B10008F907F906F905F904F900895CF93DF9329
:104B20001092260280E00E94E211C0916902D0E05A
:104B3000FE01EE5FFE4F8081882351F08130F1F05D
:104B40001092690286E080936802DF91CF91089508
:104B500061E080E30E940F19C153DE4F688170E06D
:104B60008CE10E940B206DE78BE00E94231B41E04B
:104B700060E288E0DF91CF910C94AB1861E084E3B0
:104B80000E940F1960913D02862F8C51990B9C0158
:104B900081E090E0A0E0B0E004C0880F991FAA1F58
:104BA000BB1F2A95D2F720914902822B809349029C
:104BB000635A86E1DACF0F931F93CF9380916902F6
:104BC000863038F481E080936502CF911F910F9178
:104BD0000895863009F07AC380E00E94E21121E056
:104BE0004CE268E080E00E94F1138091D4018E31A4
:104BF00050F09091B701992331F09091D701963000
:104C000011F480FD24C060E08BE40E940F190E9423
:104C1000C917682F81E00E94231BC091BF018091BA
:104C2000C401882309F431C00E946E14682F880FD4
:104C3000770B605F7F4F2C2F42E453E184E390E0D9
:104C40000E94161440E06FE085E00E94AB1820E05F
:104C500040E46CE280E00E94F113E091D701EE3075
:104C600008F020C3F0E0E95CF94D0C94A9346C26FF
:104C7000B7266027752782278527AC275528B728B0
:104C8000D028EC280F2922293B290E946E14082FD6
:104C9000880F110B2C2F2F70B801605F7F4F48E9F0
:104CA00052E189E390E00E9416142C2F30E044E09A
:104CB000359527954A95E1F7B801685E7F4F46E242
:104CC00052E188E390E00E9416146091C00170E008
:104CD0008AE00E940B20B6CF90913B028091C101E7
:104CE000891780F489E10E94A41C823068F4109234
:104CF000B70181E08093B60186E08093D7011092DE
:104D0000D4018CC084E1EFCF833178F182E08093CD
:104D1000B601909137022091380230E0899F200D32
:104D2000311D112440913602429FC001439F900DD6
:104D300011246091BC0170E00E9481346F3F7105C5
:104D400019F014F06FEF70E06093B7018091BA0131
:104D50009091BB01861B910997FF02C090E080E013
:104D60009093BB018093BA01C7CF81E0D0CFA091CF
:104D7000360220913802709137028091B80134E0F8
:104D80008302F00111249091B901EF5AFE4FE90F0F
:104D9000F11D97FDFA9560816093B601472F50E0B1
:104DA0005595479590E00196489FF001499FF00D79
:104DB000589FF00D11242E0F3F2F311D769F200D8F
:104DC000311D1124A29FC001A39F900D1124609159
:104DD000BD0170E00E9481346F3F710519F014F03D
:104DE0006FEF70E06093B7018091BA019091BB01C1
:104DF000861B910997FF02C090E080E09093BB0171
:104E00008093BA0186E08093D7011092D4018091FB
:104E100030029091D501891B8093300260E080E4DC
:104E20000E940F198091D701873051F48091B7010A
:104E3000882331F08091D4018E3110F080FD06C0BE
:104E400060912E0270E084E00E940B2060912F029E
:104E500070E088E00E940B206091300270E08FE0EB
:104E60000E940B206091310270E083E10E940B20D0
:104E70008091D7018D3021F48091D401837029F085
:104E800041E062E080E00E94AB1860E081E50E94B2
:104E90000F196091B801662309F416C2685881E0C1
:104EA0000E94231B6091D50170E087E00E940B20D7
:104EB00040E06FE08CE5CF911F910F910C94AB18FF
:104EC00080913502823151F061E08EE20E940F192B
:104ED00041E064E384E00E94AB18A0CF81E08093BE
:104EE000090184E08093D70199CF0E94731E8AE064
:104EF0008093D701809168028093D8018CE08093E1
:104F000068028CCF61E08FE2E1CF1092D401C091B2
:104F1000C201CC23E9F084E10E94A41C8430C0F4D7
:104F2000C150C093C2018CE08093D7019091BC0125
:104F3000892F86958695890F8093BC019091BD013C
:104F4000892F869586958695890F8093BD0166CFBA
:104F50001092B50187E0C6CF8091D4018F5F809316
:104F6000D4018D3308F45DC08091BA019091BB01EA
:104F7000892B09F04EC020913602213208F045C03D
:104F80008091C0013EE1839FC00111244091350210
:104F90004850550B249FB001259F700D11240E948D
:104FA000953480913402680F711D8091C40188236B
:104FB00011F06C597F4F683C71052CF1685C7109E8
:104FC0002F5F2093360280912F02895F80932F02FA
:104FD00080932E02809131028C5F80933102809306
:104FE0003002809137028D5F8093370280913902C1
:104FF0008A5F8093390280913B028B5F80933B02F2
:1050000081E08093B401609334021092B50188E08E
:1050100074CE80910901882311F085E063CF8BE085
:1050200061CF8F3150F19091B601913051F060E035
:1050300080E5891B0E940F1940E06AE086E40E9427
:10504000AB18C091B70161E0CC2379F083E40E94F2
:105050000F190E94C917682F81E00E94231B6C2F33
:1050600070E08BE00E940B2010C088E40E940F19B2
:105070006EE382E00E94231B08C08091D30161E0AF
:10508000811107C087E40E940F1941E064E380E0CA
:1050900022CF8FE40E940F196091B801662319F0A6
:1050A00068588AE0E7CF6CEEFCCF8091D4018F5F27
:1050B0008093D4018E3189F590913B028091C1019A
:1050C000891748F184E11092B7010E94A41C843032
:1050D000F8F08091BE0190913602899FC0011124A1
:1050E0006091390220913A02620F7727771F0E9460
:1050F00095341616170614F061E070E06093B7015E
:1051000080912E02861B990B97FD80E080932E02E2
:1051100061E086E412C08FE0D6CF8C33A8F48F31E3
:10512000B8F3C091B70161E0CC2331F083E40E9471
:105130000F196EE382E091CF88E40E940F190E945C
:10514000C917682F81E096CF80912E02882339F00D
:1051500080910901811163CF8091D301C3CE8BE08F
:105160008093680284E694E10E94851E57CE809168
:10517000D401823360F48F5F8093D40161E084E4D2
:105180000E940F190E94C917682F8EE073CF80917B
:10519000B401882309F480C01092B4018DE0ADCD34
:1051A0008BE08093D701C091D401C23308F036CE92
:1051B00061E085E40E940F190E94C917682F83E0FF
:1051C0000E94231B41E064E380E00E94AB18CF5FA4
:1051D000C093D40189E086CE60E08DE20E940F1971
:1051E0006091B8016623C9F0685880E10E94231BD2
:1051F00060915D0286E0689FB00111246C5C7F4F76
:1052000080915C0226E3829FC00111242CE24FE4CE
:1052100052E203960E94E5135BCE6CEEE6CF9091CE
:105220003B028091C101891758F08FE00E94A41CB5
:1052300091E0883008F490E0909309018AE052CE22
:1052400084E1F4CFC091D401CF5FC093D401CC33BB
:1052500008F07ECF60E08AE40E940F19CE3120F47E
:1052600061E089E40E940F190E94C917682F81E04C
:105270000E94231B2DCEC091D401CF5FC093D401D7
:1052800061E08CE40E940F1941E064E384E00E9435
:10529000AB18CD3308F4C2CD809169028F5F809343
:1052A0006902BCCD61E08DE40E940F1941E064E326
:1052B00080E00E94AB188091D4018F5F8093D4016D
:1052C0008D3308F4ABCDBACF6CEEE9CD8BE1809392
:1052D00068021092690279CCCF93DF93C82FD42F44
:1052E00070E00E940B206BE283E08C0F0E94231B76
:1052F0006D2F70E084E08C0FDF91CF910C940B2028
:10530000CF93DF9380E00E94E2110E94111B60E0C6
:1053100086E00E940F19CAE2D2E06885798587E0AD
:105320000E940B204D816C8184E10E946C294F8189
:105330006E8182E20E946C2948EC6A8589E30E94B2
:105340006C2940E06EE084E00E94AB1860E087E0EA
:105350000E940F196C8570E085E00E940B206D851E
:105360008E85680F7727771F80E10E940B206F855D
:105370008889680F7727771F8AE10E940B20698947
:1053800070E084E20E940B2040E06EE084E5DF9153
:10539000CF910C94AB180F920FB68F939F93EF930E
:1053A000FF9380914A038D5F8D3708F08D5780936E
:1053B0004A03EBE4F3E080818E4F808391819F4F1D
:1053C000918382818F4F828383818F4F8383EFE428
:1053D000F3E080818F5F808381818F4F8183828121
:1053E0008F4F828383818F4F83838FB18F606699C4
:1053F0001C9B88278F3681F480914903981B963037
:1054000068F0E0E0F8E087E78083818388E18093BB
:105410006000F0936000FFCF90934903FF91EF91FC
:105420009F918F910FBE0F9018952F923F924F92A0
:105430005F926F927F928F929F92AF92BF92CF9224
:10544000DF92EF92FF920F931F93CF93DF9337E991
:10545000E32E31E0F32EC1E7D2E010E000E0552466
:10546000539449E0A42E4DE3B42E22242A94322CE6
:1054700069E4662E63E0762EEEA5EE23A9F08FA5F3
:105480009E2F9370891708F49BC0F0E0F595E7957F
:10549000F595E795EE0FFF1FE153FE4D8591949131
:1054A000F701928381831FA69CA99923F9F08DA906
:1054B000292F2F77022E000C330B821713060CF4C2
:1054C00089C08A8197FF7FC081508A838A81811138
:1054D0007CC081E08A83EA81F0E0EE0FFF1FE15398
:1054E000FE4D859194919EA38DA31DAA58A5552389
:1054F00021F13AA529A5311119C0422F407426FF88
:105500006CC08DA19EA1850F911D57FD9A9527FD19
:1055100069C097FD65C0442309F466C0863BF4E288
:105520009F0714F085EB94E29EA38DA381E0830F87
:105530008AA72F73321708F01AA69BA5992371F03A
:10554000EA81EE2359F08DA52CA5482F4F71322FFB
:105550003F71431708F04AC08F5F8DA749A94423C4
:1055600011F13AA9632F607436FF6CC08DA19EA122
:105570002BA950E027FF69C0840F951F97FD68C0D5
:10558000662309F469C0863B44E2940714F085EB76
:1055900094E29EA38DA33F71822F8F71831708F031
:1055A0005DC02F5F2BAB89A19AA1009709F45DC064
:1055B0008F3F980709F49CC001979AA389A398C0CC
:1055C0008F5F8FA771CF8F5F80CF803408F483CF38
:1055D0008FE380CF8F5F8DAB89CF8FA190E093CF8A
:1055E00090E080E04111A0CF8FA3A0CF807EF1F4A6
:1055F00080E28DA78DA5807E51F09F3F09F1292F74
:1056000022952F70E20F803411F49F70E90F88A962
:10561000F0E0E80FF11D87FDFA95EE0FFF1FE15353
:10562000FE4D859194919EA38DA398CF803231F445
:1056300026FD04C09F3F11F080E4DBCF1DA6DACF2A
:10564000E0E0E1CF8FA190E093CF841B950B96CF44
:1056500090E080E061119DCF8FA39DCF27FF02C016
:105660001BAAA1CF80E88BAB9ECFC8010496452C26
:1056700001C0440C8A95EAF7FBE1F09F4001F19FDD
:10568000900C112426E3209FC001219F900D11242E
:10569000FC01EF58FD4F6F0188819981BC016F5F5C
:1056A0007F4F79836883FC014491403408F078C0CF
:1056B0004A83442319F088A9480F4A83EA81F0E01D
:1056C000EE0FFF1FE153FE4D859194919EA38DA394
:1056D00089A5811102C08FA58FA38CA585FD1DA66C
:1056E00089A19AA10097C1F28F3F980709F064CF72
:1056F00020910D01822F90E0002E02C09595879594
:105700000A94E2F780FD0AC0033009F0F0C18091ED
:105710003A0390E0959587958093A601207F19F52F
:10572000809191029091C702890F9091FD02890F9B
:1057300090913303890F09F4E2C181E7C82E82E01A
:10574000D82EF60180A10E94CD13F60191838083AB
:1057500012A211A2F6E3CF0ED11C6C147D0489F7BE
:1057600080EF80930D010F5F1F4FE69625E0E20E5C
:10577000F11C0430110509F07FCEDF91CF911F910C
:105780000F91FF90EF90DF90CF90BF90AF909F90E0
:105790008F907F906F905F904F903F902F900895E3
:1057A000403A08F009C1E42FE054FF0BEC30F1055A
:1057B00009F4BFC00CF04CC0E530F10509F4A2C0FB
:1057C000F4F4E230F10509F49DC094F4309709F443
:1057D00091C0319709F084CF029699838883FB01A9
:1057E000649168A780E0413409F080E489A778CF0C
:1057F000E330F10509F493C0349771F371CFE830C9
:10580000F10509F462C0A4F4E630F10509F487C09B
:10581000379709F065CFFB0164916BA79C012D5F61
:105820003F4F39832883FC013296E491ECA758CF8F
:10583000EA30F10509F47BC002963B970CF471C085
:1058400099838883FB01849168A9680F68AB48CF6E
:10585000E331F10509F477C064F5EF30F10509F49F
:1058600070C0DCF4ED30F10509F469C03E9709F031
:1058700037CFFB012591349129AB9C012D5F3F4F20
:1058800039832883FC0132962591349180E04E348F
:1058900009F080E4820F8AAB23CFE131F10509F4EE
:1058A00050C03CF3029699838883FB0164916CABF2
:1058B00017CFEC35F10509F451C04CF4E431F10592
:1058C00009F443C0759709F00BCF1BA609CFEE353D
:1058D000F10509F45CC00CF454C0EF35F10509F092
:1058E000FFCE80910D01842580930D011FA23AA265
:1058F00029A2F6CE029699838883FB0164916FA357
:105900006FA7EECEFB01649168A79C012D5F3F4F0E
:1059100039832883FC013296E491E9A7E1CE18A6E9
:10592000DFCE99838883FB0164916EA7D9CE1EA632
:10593000D7CE029699838883FB01649187CF18AAFA
:10594000CFCE19AACDCE1CAACBCEFFEFFBA70296D5
:1059500099838883FB0164916CA7C2CE02969983D8
:105960008883FB016491E09170026E0F6093700276
:1059700070E0C5010E949534709396016093950183
:10598000AFCE029699838883FB016491EFCFA1E7A4
:10599000B2E021E030E0FC01E20FF31FE4919096C9
:1059A000EC9390972F5F3F4FD6962530310599F7AE
:1059B00005969983888394CE403E28F44F59550B21
:1059C0005AA349A38DCE403EA9F4DE0190E080E0C9
:1059D0009695982F882797958795ED91FD91E4915D
:1059E0002E2F2F77822BE7FDF3CF8F5B9F4F9AA34C
:1059F00089A376CE4C3F08F473CE24E0240F2230E6
:105A000008F039C04C3FA9F1029699838883FB01C5
:105A10006491E881F9819F012F5F3F4F398328838B
:105A2000E4915CA15E1701F14F8D842F90E07BA182
:105A3000D601A80FB91F51967C93519758965C9345
:105A4000D401A80FB91FAA0FBB1FAF58BD4F80913B
:105A50006E0290916F02281B390B14963C932E9383
:105A600013974F5F4F8FECA36BA38CA10E94CD13B4
:105A7000A0CF60E0CECFDE0190E080E04E3F29F580
:105A80008BA181111FC0EF8DEE2379F3E150EF8FD1
:105A9000F0E0D401AE0FBF1FAA0FBB1FAF58BD4F20
:105AA00080916E0290916F0213962D913C91820F1E
:105AB000931F99838883EC0DFD1D81898BA3808DB5
:105AC0008CA30ECE81508BA3D0CF9695982F88278C
:105AD00097958795ED91FD91E4913E2F3F77832B2C
