:020000040000FA
:100000000C9481100C94A9100C94A9100C94A910B4
:100010000C94A9100C94A9100C94A9100C94A9107C
:100020000C94A9100C94A9100C94DF1F0C944E2072
:100030000C94A9100C94A9100C94A9100C94A9105C
:100040000C94A9100C94A9100C94A9100C94A9104C
:100050000C94A9100C94A9100C94A9100C94802253
:100060000C94A9100C94A9100C94A9100C94A9102C
:100070000C94A9100C94A9100C94A9100C94A9101C
:100080000C94A9100C94A9100C94A9100C94A9100C
:100090000C94A9100C94A9100C94A9100C94A910FC
:1000A0000C94A9100C9437260C94A9101010002061
:1000B000D020C070587C34BC2838B02040000000EC
:1000C0007D0242447530007864510E1C000000002F
:1000D0000070888000A818B8C8E020000000000068
:1000E0000007080041691D0A376E1C3000008000BF
:1000F00040A05048B430C8D05020C00000000001DB
:1001000003060C09446C540A1B516E4F1C00128CE0
:100110002DD665D0258E676EC5D23A702800000FA7
:10012000068076FEC48F3DF06FC30700000000001C
:1001300000A090D878106070B8787830000000186F
:100140003C3C91CEDFDF2E01B7DBDCDE8C00000013
:10015000109A54A42E982EA4549A10000000285CE3
:100160005D542A54555555345A6061405020000062
:10017000B0286CC41206B7A884A0C00040000414C4
:100180009449E9241403095D391870000000440CF7
:10019000814E1CB8045A5A44589C0E418C24044089
:1001A0001EA0DFC09EA1ADA986D08E0013800014D2
:1001B000330A3FDEEB51B8B8B440201000002010E5
:1001C000A05008040E66F9FDCE672210385C0000CE
:1001D00080E05038783850E68F38C000C0E0C0600A
:1001E0004B106590A09065300B60CF030F1A000094
:1001F0000080C06020A0502868C8F830E0C0100817
:100200000D251408A99AC990B8EFDA5B391F804010
:1002100000C0A0408090E496772F9F8EC070013977
:100220004A06396D455D43273E03062C1800000041
:1002300008F400E01A24022102E1554A428000003D
:10024000067906045B405028011E5423030000A0D9
:10025000B0703CF2E5AD023805369005AA100001F9
:10026000403C4E7F1F7E3D72410002010000A040D5
:100270003810880428042880CC902840A000040B63
:1002800003406C050800015369420C0F1200008006
:100290004060100884049208784482400000000006
:1002A000010608102010204020464DD0A00040B08C
:1002B0000804A21244100A020824480000000205A3
:1002C0001828402145122A782A1400000000000056
:1002D000000080C0601014F8621CFC380000020CA2
:1002E000121C16090000070D080C06030102C0A02D
:1002F00000F04A2A3385D1DA6C601EFE0CF000153E
:100300000E0814A22796608D06976EC4408380D095
:10031000B07060D8CC96B696CCD860B0B0900100E2
:100320000100041004A9BD6D280A0000010140204D
:10033000D030ACDC986038DE1EEC18F0000003C151
:1003400034CE3F83BD7E7C089061000700000080B2
:1003500060C060A4AE5A22F03CAE2A0A8A020105AF
:100360004320436A3615190C475A5E3C0807008043
:10037000C0E0405090B064485628A4C0E010060287
:1003800005830041563A0B060300000100010202FA
:1003900086D6DCE8602C262A2A6BEBD20501000009
:1003A0000307074F8C9C98F66502010000003C385B
:1003B000000000000080F8FE0FE3FB1B0B0B8BFB23
:1003C000F3F7F6F6F60606ECECECECECECECECEC09
:1003D000ECECECECECEEE6F6F6F6F7F3FBFBCBCB55
:1003E000FBE30FFEF8801E332121339E00000080C6
:1003F000F8FF0FE0F8F9F9F9F9F9F9F9F1F3F3F386
:10040000F3F0F0FFFFFFFFFFFFFFFFFFFFFFFFFF26
:10041000FFFFFFFFFFFFFFFFFFFFFFFF7F7FFEE00C
:100420000FFFF880060600000000000F3FF0C6072F
:100430000404070707070707070707070707FFFF62
:10044000FFFFFFFFFFFFFFFFFFFFFFFFFFFF0707AC
:10045000070707078787070726860707C6F03F1F96
:1004600000808000000000000000030784C4E4E472
:10047000E4E4E4E4E4E4C49C000FE7E7E7E7E7E74B
:10048000E7E7E7E7C7870F1F0FC7E7E0ECE4E4E41F
:10049000E5E5E4C4040404070300C040C3031100FD
:1004A0000000000000000000FFFFFFFFFF393939A6
:1004B000FFFFFF0FE0E0EFEF0FFFFF183879FFFFBE
:1004C000F703E0E0EFEF0FFFF9F0F0FCFDFDFD0DAD
:1004D000ECE0E0E00000012101000000000080C02D
:1004E000602060C080000000000C0C007EFE803C9C
:1004F0003E1C1C1C1C1C0C0C0E0C0C0C0C0E1E1C94
:100500001C1C1C3C3E80FE7E00000000C0E0E0C0E1
:1005100000000000030300000E1B3166C680D0609F
:10052000311B0E00003828380001471E38202020DB
:1005300020301010D0D01010901030202020203803
:100540001E07010000060600000101000000000077
:100550000000000048454C5020504C415920494E65
:10056000464F20434F4E46004040FFFFFF0707E73E
:10057000E7676767676767E7E70707FFFF7F7F67EB
:10058000671F1F9F9F0707878767670707FFFFFF93
:10059000FF878707077F7FFFFF0707E7E767676733
:1005A000676767E7E70707FFFFFFFFFFFF00007FC1
:1005B0007F6060606060607F7F0000FFFF7E7E98EC
:1005C000986060F9F97E7E9F9F181886866767E7B6
:1005D000E7070780801818FFFF00007F7F606060DA
:1005E0006060607F7F0000FFFFFFFFFFFF86868661
:1005F0008686861E1E666686866666676700007942
:100600007980808787F8F8E1E1FEFEE1E1808001F2
:1006100001F8F8E7E7000007070606FEFE7E7E9E6B
:100620009E66667E7E1E1EFFFFFFFFFFFF07071F01
:100630001F9999FEFE060661616666000080801EB5
:100640001E7F7F19190707E1E1F9F9F9F98787009A
:10065000001F1FE7E7E0E086860606E7E7FEFE816B
:10066000819E9E60600606FFFFFFFFFFFF7E7E808B
:100670008081818181F8F81E1E6666606099999874
:10068000989E9E8686F8F87979E7E7F9F91919E0D6
:10069000E0FEFEFFFF0101070786861F1FF9F979BB
:1006A000799F9F60600606FFFFFFFFFFFF66667988
:1006B000797F7F676761617E7E6666F8F81F1F99A4
:1006C000996161191907079E9E7F7FE7E780808106
:1006D0008119197F7F0606E6E66767E6E607077871
:1006E000789F9F18181E1EFFFFFFFFFFFF0000FEF0
:1006F000FE060606060606FEFE0000FFFF6060819D
:100700008166668686F8F879798080F9F98787E1CD
:10071000E1E6E6FEFE60608787E6E6676700006662
:1007200066FFFF98981E1EFFFFFFFFFFFFE0E0E758
:10073000E7E6E6E6E6E6E6E7E7E0E0FFFFE0E0E73B
:10074000E7FEFEF9F9E7E7FEFEFFFFE1E1E1E1E1A7
:10075000E1F9F9E1E1E0E0E7E7E1E1E6E6E0E0E642
:10076000E6FFFFE1E1E6E6FFFFFF323031372054DC
:10077000524F444F5353202D204A4F335249005378
:100780004F554E4420204F464620204F4E00030434
:1007900012FF030412FF030412FF030412FF0305F8
:1007A00013040305130403051304030614020306CC
:1007B0001402030715FF030816FF030917FF0004BF
:1007C0000000000400000004000000040000000518
:1007D00001050005010500050105000602FF0006F0
:1007E00002FF000703FF000804FF000905FF0104E2
:1007F00006FF010406FF010406FF010406FF0105D0
:1008000007040105070401050704010608030106A2
:100810000803010709FF01080AFF01090BFF020491
:100820000C0102040C0102040C0102040C0102057B
:100830000D0402050D0402050D0402060EFF02065A
:100840000EFF02070FFF020810FF020911FF202010
:10085000000000008080000000008080E0E0F8F8E8
:100860009898F8F86060E0E08080000000000000E8
:1008700000000606F9F9060678781F1F99991F1FD0
:100880000707676706068787676706061818000068
:1008900000000000F9F906060606181899998080EC
:1008A0000000E0E0181881817E7EF8F8000000006A
:1008B000000000001F1F0000181818181F1F07074E
:1008C00000001F1F1E1E191900000101000000007A
:1008D000000000000000C0C03030000000003030D8
:1008E000F0F0F0F0303000000000000000000000E8
:1008F000000000000000CFCF30303030C0C0F3F334
:10090000C0C03333FCFC3F3F030300000000000085
:100910000000000000000F0F3030000000003030F9
:10092000FCFC3333CFCF3F3FFCFCC0C000000000D5
:100930000000000000000000000000000C0C0F0F81
:100940000000000003030F0F00000303000000007D
:100950000000000000000000008080606098988027
:100960008060608080808000000000000000000047
:100970000060608080989866661919989867670784
:100980000778787979999986867878808000000050
:10099000000000010107071E1E78786161181878B1
:1009A0007898986666E7E781817E7E7F7FF8F80019
:1009B0000000000000000000000000000018181EE9
:1009C0001E19190000010119191E1E181801010035
:1009D000000C0CF0F0F3F33C3C333300003333FCF9
:1009E000FC3F3FFCFC33330C0CCCCC0000C0C000FF
:1009F000000303C0C00C0CF3F33C3CF3F30C0CC03D
:100A0000C03C3C3C3CF0F0F3F30F0F3F3F0C0C00BC
:100A1000000000FFFF3C3C00003C3CFCFC3030FF91
:100A2000FFF3F30000FFFF0F0F3F3F000000000047
:100A300000000000000000C0C03F3FFFFFF0F0C01A
:100A4000C00F0FFFFF3C3CF0F00000000000000072
:100A5000000000000000808060607878F8F8606036
:100A60008080E0E0F8F8F8F8F8F8E0E00000000036
:100A7000000000000000191978789E9EE7E7E0E08A
:100A800087876767F9F9E7E70707818100000000BA
:100A900000007878FEFEFEFE60601F1F7F7F7F7F74
:100AA0009F9F0000E7E779797E7E7F7F1E1E000012
:100AB000000000000101010118181E1E1E1E1E1E4E
:100AC0000101000019191E1E1E1E1E1E181800000E
:100AD000000000000000CCCC30303030FCFCC0C046
:100AE000FCFC30303030CCCC0000000000000000B6
:100AF000000000000303C3C33333CCCC0C0CC3C3CE
:100B00000C0CCCCC3333C3C3030300000000000043
:100B1000C0C0F0F0F3F33030CCCC3030333333336B
:100B200033333030CCCC0000030300000000000061
:100B30000C0C3333333333330C0C33333333333321
:100B400033330F0F33333C3C3C3C303033330C0CED
:100B500000000000000000C0C0F0F030300C0C3C81
:100B60003C3F3FC0C03030000000000000000000EB
:100B70000000000000CFCF0C0C3C3CF0F003030061
:100B800000CFCFCCCCC0C0CCCCF0F00000303000D7
:100B900000303030303030C3C3C3C3303030300F5A
:100BA0000FC3C3F3F3C3C3C0C000000000000000C4
:100BB0000000000303C3C33030FCFC0C0C03030033
:100BC00000000033330F0F03033F3F00000000001D
:100BD0003030F0F00303FCFCF0F0C0C03030CCCC7F
:100BE000CCCC3030C0C0F0F0FCFC0303F0F030306F
:100BF00030300000C0C030300303CFCF00003333AB
:100C0000333330303333C3C300003030C0C00C0C3A
:100C100030300000FCFC0000FFFF0000FCFC030380
:100C2000F3F3C3C33C3C0000FCFC00000F0F0000CA
:100C3000000030300303CCCCF3F3F0F0C3C3CCCCD2
:100C4000CCCCCCCCC0C0F3F3C0C000000303C0C008
:100C5000000030300F0FCCCCFFFFFCFCCFCF0303E4
:100C6000C0C0C0C030300000000000000000000024
:100C7000000003030F0F00000F0FF3F3FCFC3333EE
:100C8000CFCFCFCFCFCF30300C0C0303000000000C
:100C90000000000000000000C0C03030FCFC3C3C04
:100CA000C3C3F3F3FCFC3F3F0C0C0000C0C0F0F0EA
:100CB0000C0C0303CCCC33330000000000003C3CA0
:100CC000FFFFFFFFF0F03C3C0C0C03030F0F33332E
:100CD00000000000000000000000C0C0C0C0C0C094
:100CE00000003C3CFFFFC0C000000000000000000E
:100CF00000000000C0C0FCFC33330F0F3F3F0F0F5C
:100D00003333FCFCC0C00F0FF0F00000F0F0FCFC2F
:100D100000000000CFCF00003333000000000000CF
:100D200033330000CFCF0000FFFF0F0FFFFFCCCC0D
:100D3000F0F03C3C303003033C3CC3C3CCCCC3C3D9
:100D40003C3C0F0F00003C3CF0F0000000000303AF
:100D50000000000000000000000080808080808093
:100D60006060989898981818F8F8E0E08080000083
:100D700000000000606078781E1E07076161999985
:100D8000666601010707FEFE9F9FE1E17F7FFEFE91
:100D9000606018181E1E86866666181898987979FD
:100DA00018186060F8F89F9F79797979F8F87F7F53
:100DB00000000000000001010000000019191818CF
:100DC0001E1E181819191F1F1E1E060601010000FD
:100DD0000000000000000000000000000000000013
:100DE000606078787E7EFEFEFEFEF8F8000000006F
:100DF000808060600000E0E0989860608080868677
:100E0000F8F886867E7E191987878181E0E07E7EEC
:100E100007078686989879798787E6E66767E7E720
:100E20001F1F7F7FF8F81E1E7979E1E181810000A4
:100E300000001F1F616100001F1F797960606767F4
:100E4000606018181F1F0000000019190707000034
:100E500000008080606000000000989860601818B2
:100E6000060618180606666698981818000000000E
:100E700000000101FEFE0000F8F807071818000046
:100E800018180000F8F866666161606080800000F4
:100E9000000078788787787861619E9E0000000066
:100EA00080800606F9F960601E1E1E1E010100000A
:100EB000000000007F7F00000000676760606666DA
:100EC00019190000070766661818000000000000E6
:100ED00000000000000000E0E018186666E6E61872
:100EE0001880806666787800006666989800000032
:100EF0000098989E9E7E7E1F1FFEFEF8F89999002E
:100F0000001F1F00001E1E8686000099990606001D
:100F10000007070101E0E0F8F8FFFFFFFFF9F9E63D
:100F2000E61818060600001919060601010000005F
:100F300000000060601F1F61617F7F07077F7F1FC8
:100F40001F7E7E60600000000000000000000000C6
:100F50000000000000E0E080806060181860601809
:100F600018606000007878808060600000000000F9
:100F70000066669898878701016060808006060099
:100F8000008686E0E0F8F8616106069898666600DB
:100F90000018186767070700007878191960600063
:100FA00000010187876161060678787F7F86860069
:100FB0000000000000000018181E1E0000000000C5
:100FC00000000019191E1E18180000000001010081
:100FD00000000000000000008080606018181818F1
:100FE00086866060E0E01818060600000000000039
:100FF0000000606098981E1E010100006060000003
:10100000616100001F1F1818E0E0181800000000C0
:101010000000000001011E1E6060808000008080D2
:101020000000000000001E1E797980800000000092
:1010300000000000000000000000010106060101A0
:10104000060618180606181818187979666600003A
:1010500000000000000000C0C030300C0C0C0C3050
:10106000300000CCCC0C0CC0C03030C0C000000040
:101070000000003030CFCF00000000CCCC030330A4
:101080003003030000000000000C0C3030000000B2
:101090000000000C0C3333C0C0C0C0000003033399
:1010A000330C0CCCCCC0C0CCCC30300000000000E5
:1010B0000000000000000003030C0C30300C0C306A
:1010C0003003030C0C3F3F0C0C0303000000000036
:1010D0000000000000000000000000000000000010
:1010E000C0C000003030C0C0C0C000000000000020
:1010F00000000000000000000000C0C0F0F00C0C78
:101100000C0CFFFFF0F00F0FFFFF3F3F000000004F
:101110003030C0C03030C0C0F3F30F0F000000000B
:10112000FCFCCFCF0000C0C0F3F33C3C0C0C3030D3
:10113000000003030C0C0F0F0C0C03030000000055
:10114000000003030303030300000000000000008D
:101150000000000000000000CCCCCCCC0F0F3333DB
:101160000303CCCCF0F00000FCFCFCFCF0F0000031
:10117000F0F0CCCC0000FFFF30300C0C0F0FC0C0E3
:10118000F3F3F3F33C3C3C3C0303FFFF0000FFFFA1
:1011900000003333FCFCC0C030300C0C3F3F3C3C03
:1011A0000000F3F33C3C3F3FFCFC303000000F0FED
:1011B00000000303000000000303CCCC0C0CC3C3ED
:1011C0003C3CC0C00000C3C33C3CF0F03030C0C069
:1011D00000008080808080800000E0E078789E9E23
:1011E0009E9E9E9E7878E0E00000808080808080D7
:1011F000E0E07979E7E71F1F1E1E79797878E1E151
:10120000E7E7E1E1787879791E1E6767E7E7E1E1D2
:1012100001010000010100001818808018186161A8
:10122000F9F979796060666600000000010101014A
:1012300000000000000000000000010100006666E0
:1012400067671E1E06060000000000000000000088
:10125000000000000000808080807878F8F8E0E0EE
:101260000000E0E0FEFEFEFE7878E0E08080000016
:1012700000009898868679790707E6E6F9F9E1E1B2
:101280001E1E070779790101FEFE0101FFFF000024
:1012900000000707010198987E7EFFFF0707F9F914
:1012A000FEFEF8F860608080010100001F1F000052
:1012B00000000000787807077878070760606767A4
:1012C0001F1F1F1F000061611E1E000000000000A4
:1012D000000000000000000000003030FCFCCCCC1E
:1012E0000C0C0000F0F0FCFCCCCCCCCCCCCC0C0C2E
:1012F0000000C0C03C3CF0F03C3CCCCCCCCC333308
:101300000C0CFFFF0F0FCCCC0C0C0000C0C0000079
:10131000030333330F0F00000F0FCCCC3C3C3333AF
:10132000C3C3F0F03F3FCCCCFCFCF0F0C0C03F3F6B
:101330000000000030300C0C30303C3C0F0F030339
:10134000030300003030333333330F0F000000004D
:10135000000000000000000000008080808080808D
:10136000181860609E9E6060181800000000808061
:1013700000006060F8F8FEFE1818999961616767CF
:101380009E9E1818999906066666F8F87E7E8181F9
:101390001E1E060619190707000001019E9EE6E6BB
:1013A00067671E1E07070000000001010000010121
:1013B00000000000000060600000181819190707FD
:1013C000000000000000000000000000000000001D
:1013D0000C0C0C0C3C3C3C3CF0F0C0C00000F0F0AD
:1013E0003C3CCCCCCCCCCFCFCFCF0C0C3333030395
:1013F00000000000C0C0F3F3F3F3FCFC3C3C0C0C19
:101400000C0C0C0C0C0C3C3CFCFCF3F3000000003E
:10141000000000000F0F3F3F3F3FFFFFF0F0F0F0F4
:10142000C0C03C3C33330C0C030300000000000040
:10143000000000000000000000003030C0C0C3C346
:10144000C3C3FFFF3C3C00000000000000000000A0
:10145000080800302826FFFF2000004F8F8989F9F7
:101460007100007CFE8B89F970000001C1F13D0F15
:1014700003000076FF8989FF7600008E9F91D17F5F
:101480003E00080800FF00FF00FF00FF00FF00FF14
:1014900000FF00FF00F0F0F8F8FC0CFE06FF06FF6E
:1014A00003FF03FF03FF03FF07FF07FF0DFFFBFF22
:1014B000F3FF0BFF0BFF0BFF0BFF0BFF0BFF0BFFF4
:1014C0000BFF0BFF0BFFF3FFFBFF0DFF07FF07FFFA
:1014D00003FF03FF03FF03FF06FF06FF0CFEF8FCFC
:1014E000F0F800F000FFEFFFDFFF30FFE0FF60FFEC
:1014F000C0FFC0FFC0FFC0FF60FF60FF30FF1FFFE5
:101500000FFF00FF00FF0FFF1FFF30FF60FF60FFB6
:10151000C0FFC0FFC0FFC0FF60FFE0FF30FFDFFF84
:10152000EFFF00FF00FFFFFFFFFF00FFFFFF00FFD7
:1015300000FF00FF00FF00FF00FFFFFF00FFFFFFB5
:10154000FFFF00FF0102030303040506070000007C
:1015500008090A00000000000B0A00000000000B50
:101560000A00000000000B0A00000000000B50728F
:1015700065737320427574746F6E20746F20506CA5
:1015800061790050617373207468652041726475DD
:10159000626F79206F6E20746F003220506C617919
:1015A0006572204D6F6465003120506C6179657201
:1015B000204D6F64650053656C65637420506C61E9
:1015C000796572204D6F6465003E00416476616EFE
:1015D0006365640042617369630053656C6563749D
:1015E0002047616D65204D6F64650080100000002C
:1015F00000F0FE3E2626260680D0D84848F8F8009F
:1016000000F0F8180898F8F80000C8FE7E08088076
:10161000D0D84848F8F80000307868C8D898003822
:10162000F880C0F038080000000000F0FE7E62E2A2
:10163000F63E1C80D0D84848F8F80000F0F81808AA
:10164000D8F8300898F8F80000F0F8180818F8F8FA
:101650000080D0D84848F8F80000F0F8180898F84A
:10166000F80000F0F848487878000000000000001A
:101670000003030000000000010303020303030052
:101680000203030000030300000001030303000141
:1016900003030203030300010303020303011818F9
:1016A0000F0F030000000000000000030300000112
:1016B000030300010303020303030002030300000A
:1016C00003030000030300000E0F030303030300E2
:1016D000000103030203030300040D1B1B190F0F7A
:1016E0000000000103030303010000000030203C60
:1016F0002C3C1C2C2C2C1C0C2C081A00221C2A10F4
:1017000020100000100A0B000021211B0C201211D8
:101710000F1C193C0C290A3010300020030408006B
:101720000606000F09090F0F080A080105010F41FD
:101730007265617320576F6E20627900426F6F731C
:10174000746572004030B0F0F0F0DFAF5EAF56AFBE
:1017500056AF56AF7EBF50B050B05FAFD6EBD66B32
:10176000F6FFFEFF7EFF86878687FE7FFEDFEEDFC9
:10177000FEFF5EAF5EBF50B070F07FE4D9A0414085
:101780008100010001AAAAFFFFFFF7AA55AA55FA96
:1017900085868786FDFAFD7A7D7F7FEF77BB66EFD2
:1017A000FE0F0D0E0FFCFDFFFFFDFEFFFCFDFFC356
:1017B000C3C3C3FEFDFEFDFEF5EAF5AA55AB57FF18
:1017C000FCFB0C08080AB05050505F5F5D2A2D2EBC
:1017D00017171717172F5FB8B858B87FFFF7FBFD1B
:1017E000F3B7DFBFFFFFC3C3C3C37FBFBF5F2F2FED
:1017F0002F2F2F17172F505050502F2F2F2E1717D6
:101800000B0B0D030355AA604080003C42BF4343CD
:10181000C3C2FCF8E0C0C080808000010E19679F41
:101820007FFFE1E1E1E1FFFFE39C63800000002036
:10183000D0F808080808F0D0A0A0A04040A0A0D090
:10184000E8F80C0C0C0D43C3C342FD72EC906183AD
:10185000041B0B17172F505050506F18000000003A
:10186000010202050D133F212161617F7C00000010
:1018700000C33DC3FFFFF0F0F0F0FF7FBFD80ED9EB
:10188000BF7FFFFFFF5555FF7AF56AD56BD76EFD19
:101890007AFA0D0D0A0AF4F474E868E868F474F44E
:1018A0007AFE43C343C37EB448B0008000800EB1CB
:1018B0004DFE0F0F0F0FFFFF7FFF7EFC7AF661F6E4
:1018C0007AFC0E0F0F0D537461727420526F756E97
:1018D0006420210041747461636B730007081E1F4C
:1018E00033732F730C34794C02473C194C3E3978D2
:1018F000662410102858380402010822085D0822C6
:10190000080207060810606048756E74004D616734
:1019100069630053706561720053776F6F700042A6
:1019200075726E00546F786963000608040E040037
:10193000011F1E332D2D331E04040400011F040457
:1019400004001D17506F776572000808D8B655ED72
:10195000957B463D384C96BDBA944830307C980C07
:1019600002877C380105173F6FC70501456C656D1F
:10197000656E74000808000000000000000002030B
:1019800002020303030200000000000072FFFF7266
:1019900000000000000040C04040C0C0C040020144
:1019A0000101010101010302000000000000000329
:1019B0000200000000000000030200000000000020
:1019C00000030200000000000000030204040404FD
:1019D00004040403546865204361726420596F75E0
:1019E0002044726577005069636B20612043617207
:1019F0006420746F20506C617900506C617965646B
:101A000000544945202100506C61796572203200F4
:101A1000436F6D7075746572000A00000F0010004E
:101A2000110018001F00300045004700570000015A
:101A3000020340309D1941FFFC05FC0941F4FC06FE
:101A40009F9F9F4000FC07FC089F402041F0A1435E
:101A5000FE12B600A012A600A012A200A012A200C0
:101A6000A0FE0DA200A00DA200A40DA200A40DA234
:101A700000A00DA200A4FEDFFEFC04A1FC04A5FC56
:101A800004A5FC04A1FC04A5FE0DB7FEEB00506C00
:101A900061796572203100506C61796572001818A7
:101AA0000B010001002040E030180C06010000008E
:101AB0000000F0000100010B7E80B0800A59B1C027
:101AC000EA53EAC0208840AC20190701300000002A
:101AD000D08307830000C0EBEB14EBC100079B40F1
:101AE000311E0000000080D00B01C0F178B4C0E0CE
:101AF0003010C88080C0000080E4F838F1C0010BCD
:101B0000003EC70100170F182480C40DA1CC84012A
:101B10006D350000C03F0F00D0800081020000241E
:101B20002F1D2100100D151300000403000080D0AC
:101B300057494E5320210008000003000F001B00EE
:101B40001C00310034003D00000102039D189F403D
:101B50003041FF5004015403FC059F403041FF4ECB
:101B600006014018FC049F9F2AA300A32AA331B3B7
:101B700000A331A338A336A334A336ABFE06DFFEA1
:101B800006A200A006A200A0FE06A200A0FE191850
:101B900000FFFFFF00FF00FFB0FF6CFFAAFFDAFFAE
:101BA0002AFFF6FF8CFF7AFF00FF00FF70FF98FF0F
:101BB0002CFF7AFF34FF88FF70FF00FF00FFFFFF5C
:101BC00000FF00FFFFFF00FF00FFC1FFF1FF60FF0C
:101BD00031FF09FF1CFFF0FFE0FF00FF08FF28FFB7
:101BE000B8FFF9FF79FF39FF28FF08FF00FF00FF6A
:101BF000FFFF00FF00FF07FF08FF08FF08FF09FFC6
:101C00000AFF08FF08FF0AFF09FF08FF08FF08FF97
:101C100008FF08FF09FF09FF0AFF08FF08FF08FF88
:101C200008FF07FF00FF1708FE0101010101010184
:101C30000101010101010101010101010101FE593F
:101C400045532020204E4F0057616E7420746F2042
:101C500051756974203F00446F20596F752052659B
:101C6000616C6C7900000006011501260137014AFC
:101C7000015D01720188019F01B801D201EE010BE3
:101C8000022A024B026E029302BA02E40210033FE0
:101C9000037003A403DC03170455049704DD042731
:101CA000057505C80520067D06E0064907B8072D1D
:101CB00008A9082D09B9094D0AEA0A900B400CFA47
:101CC0000CC00D910E6F0F5A1053115B1272139AC4
:101CD00014D41520178018F519801B231DDE1EB49F
:101CE00020A622B524F0F89C8E8783878E9CF8F07E
:101CF0000000FEFF0303030303070EFCF80000FED1
:101D0000FF0303030303070EFCF80000FFFF0000BE
:101D10000000000000FFFF0000FEFF838383838339
:101D2000C7EE7C380000F8FC0E07030303070EFC27
:101D3000F800003F7FE0C08080C0E07F3FFFFF01F0
:101D4000010101010101FFFF0000FFFF0C0C0C0C61
:101D50001C3E77E3C100007FFFC0C0C0C0C0E07080
:101D60003F1F00001F3F70E0C0C0C0E0703F1F0079
:101D7000007FFFC1C1C1C1C1E3773E1C00001F3F0E
:101D800070E0C0C0C0E0703F1F000000000001FF15
:101D9000FF010000008D14A1C881CFD9F102AF1B53
:101DA0000000110012003200380049004A006700AC
:101DB0006B0071007A00810088008B009600A10002
:101DC000AC00B500C200CF00DA00E700F40001016A
:101DD0001001130123010001020340249E040506A3
:101DE0000741FC54029D18FD06099F9F404041FA9F
:101DF000FD0118FC0DFC0EFC0FFC10FC11FC12FC8C
:101E000013FC10FC14FC15FC16FC179FFC1AFD0CAF
:101E1000199F40249E0405060741FC54029D18FDAD
:101E200005099F9F404041FAFC0DFC0EFC0FFC1081
:101E3000FC11FC12FC13FC10FC14FC15FC16FC1726
:101E40009FFD0B199F4020A04000FEFC0AFC0BFCEC
:101E50000AFC0CFE04AB04AB04ABFE02A302A3021B
:101E6000A3FE07ABFE28AB28AB28AB28A72AA3FE0E
:101E70002FAB2FAB2FAB2FA72DA3FE2BAB2BAB2B59
:101E8000AB2BA72DA3FE26AB26AB26AB26ABFE3491
:101E9000AB34AB34AB34A332A32BA3FE2DAB2DABB1
:101EA0002DAB2DA32FA328A3FE2BAB2BAB2BAB2B42
:101EB000A72DA3FE34AB34AB34AB34A337A339A383
:101EC000FE3BAB3BAB3BAB3BA33EA337A3FE39ABE7
:101ED00039AB39AB39A337A332A3FE34AB4024343A
:101EE000AB401834AB400C34ABFE00CFFEFC08AA6C
:101EF000FC08AAFC08AAFC08A6FC08A2FECFFE2645
:101F00001945177C16691934177418A01FD21E9F23
:101F100019080B000202020000090400000102027D
:101F2000000005240010010524010101042402061B
:101F30000524060001070581031000400904010083
:101F4000020A0000000705020240000007058302A4
:101F50004000000403090412010002EF02014041A5
:101F600023368000010102030141726475696E6FBE
:101F7000204C4C43004142413131303600040800CE
:101F80000000001700000003000300140E1C0A16D6
:101F90001D170D120804121F151F18030000000E54
:101FA000110000110E000002050200040E040018CA
:101FB0000000000404040010000000100804021FC8
:101FC00011111F00121F101D1515171115151F07D0
:101FD00004041F1715151D1F15151D0101011F1FD5
:101FE00015151F1715151F000A0000001A00000420
:101FF0000A11000A0A0A0A110A0400011505071F3E
:102000001117171F09091F1F15151B1F1111111F6C
:1020100011110E1F1515111F0505011F11151D1F8B
:1020200004041F00111F111010101F1F04041B1F98
:102030001010101F06031F1F02041F1F11111F1F66
:102040000505070705051F1F0909171715151D01A8
:10205000011F011F10101F0F1008071F0C181F1B56
:1020600004041B07041C07191515131F1100000297
:10207000040810111F0000020102001010101001CE
:102080000200001A16160C1F1414080C1212120863
:1020900014141F0C1A1A16041E05010416160E1F1E
:1020A000040418000D10000810100D1F080814007B
:1020B000111F101C06061C1E02021C0C12120C1C06
:1020C0000A0A04040A0A1C1E04020414161A0A004E
:1020D000021F020E10101E0E1008060E10180E160B
:1020E0000808160608180E1A1A1616041B11000006
:1020F0001F0000111B0400020201011F1F1F1F000F
:10210000E82611241FBECFEFDAE0DEBFCDBF11E01D
:10211000A0E0B1E0ECE8F5E502C005900D92A63331
:10212000B107D9F727E0A6E3B1E001C01D92A936B7
:10213000B207E1F710E1C1E8D0E104C02197FE0148
:102140000E94B72AC038D107C9F70E940E270C9405
:10215000C42A0C94000090916407982329F490916C
:102160006307982381E009F480E008956F927F92DD
:102170008F929F92AF92BF92CF92DF92EF92FF9297
:102180000F931F93CF93DF93DC01FA0114913196E3
:1021900054913196C12FD0E0222309F1CC24C3946D
:1021A000D12C852F877011F4D12CC12CE52EE6940B
:1021B000E694E694EC0CFD2CF11CEC9EC001ED9E27
:1021C000900DFC9E900D1124033011F4880F991F7F
:1021D000289F7001299FF00C1124EE0DFF1D7D0139
:1021E000EC0EFD1E1E141F040CF031C1A038B10509
:1021F0000CF02DC1CB01850F911D181619060CF09E
:1022000026C1603471050CF022C1309709F41FC15A
:10221000362F3770CB0177FD079623E0959587958C
:102220002A95E1F7282F77FF04C0332311F02FEF11
:10223000280F662777276A1B7B0BB7FD02C070E06B
:1022400060E090E89A1B40E8E416F1040CF4912F4A
:10225000961BE22E022E000CFF08DE2CD0942F3F9E
:102260000CF0D12C41E0852F877009F440E0B52EA9
:10227000B694B694B6944B0DE40EF11C89E0E816C2
:10228000F10414F048E0421BB42EBD182D0D40E8B7
:10229000240370011124AE0DBF1DA60FB71F1D9D95
:1022A000600D711D1124AF01460F571FC32E032E61
:1022B000000CDD08033009F47EC00A3F09F441C078
:1022C000023009F0C4C06FEF70E0032E02C0660F49
:1022D000771F0A94E2F760957095972E8B2C820EEB
:1022E000281509F4B4C08D01035F1C4FF12CE12CBB
:1022F000E91608F054C0FA01EE0DFF1DE491F0E07C
:102300003F010C2C02C0660C771C0A94E2F727FDF3
:1023100005C0F8018081862386298083332359F004
:1023200027304CF45801F0E8AF0EB11CF501808164
:10233000892187298083FFEFEF1AFF0A0F5F1F4F64
:10234000D7CFB20E2B1509F482C0BD01635F7C4F5D
:1023500010E000E0091748F5FA01E00FF11FE491E1
:10236000F0E04F010C2C02C0880C991C0A94E2F793
:1023700027FD04C0FB01808188298083332351F02D
:10238000273044F47B01F0E8EF0EF11CF701808167
:10239000892980830F5F1F4F6F5F7F4FDBCF2F5FD8
:1023A0004C0F5D1FA058BF4F9BCF2F5F4C0F5D1F81
:1023B000A058BF4FC7CFE92EF12CFA01E60FF71F47
:1023C000A35FBC4F60E870E06E197F09CE19DF098A
:1023D0008E01000F111F41E050E07A01032E01C071
:1023E000EE0C0A94EAF7592F4B2D892E932ECF939A
:1023F000DF93ED01EF96EF962296A590C590992078
:1024000059F0AE9C5001CE9C600127302CF4F8802E
:10241000D094FD20FB28F99222233AF0FC90C0943E
:10242000FC20FA28FD920C94161211965A9529F761
:102430004A9551F0582D23951124E00FF11DA60F58
:10244000B11DC60FD11DD9CFDF91CF911124DF91DE
:10245000CF911F910F91FF90EF90DF90CF90BF90A1
:10246000AF909F908F907F906F900895EDE0F3E094
:1024700030EB20E146E05C983EBD4A95F1F72EBD79
:1024800020E8239507C0449140815C9A4EBD81119C
:10249000412D419344912A95B1F73395383B49F743
:1024A0000DB40895FC0180910C03882311F13FB70E
:1024B000F89482E08093E9002091F200822F90E06E
:1024C0001816190614F481E090E0882339F0289852
:1024D00044E640930B034091F1004083222339F0FE
:1024E0002091F200211103C02BE62093E8003FBFAA
:1024F00008958FEF9FEF08952FB7F89483E08093AE
:10250000E9009091E800892F807295FF04C09091B6
:10251000F20080E4891B2FBF08958091030381118D
:102520000DC082E08093FF0284E08093000310924C
:1025300002031092010381E0809303038FEF92E086
:102540000895CF93DF931F92CDB7DEB76983DC0187
:10255000ED91FC910280F381E02D41E050E0BE015D
:102560006F5F7F4F09950F90DF91CF91089583E0C2
:102570008093E9008091F200882319F08AE3809328
:10258000E80008950E947C1290E00895CF93DF93B5
:102590001F92CDB7DEB7FC018485958597FD08C0F5
:1025A0002FEF3FEF358724870F90DF91CF9108956C
:1025B000CE0101960E945212019719F4898190E090
:1025C000F3CF8FEF9FEFF0CF0F931F93CF93DF9356
:1025D0001F92CDB7DEB78C01FC018485958597FFEE
:1025E0000BC0CE0101960E945212019771F48981AD
:1025F00090E0F80195878487F801848595850F9090
:10260000DF91CF911F910F9108958FEF9FEFF1CF41
:10261000FC018485958597FD0BC09FB7F89482E0F7
:102620008093E9008091F2009FBF90E001960895A9
:102630009FB7F89482E08093E9008091F2009FBFF9
:1026400090E008954091F9025091FA022091F7022A
:102650003091F80242175307B4F49091E800957056
:10266000E1F39091E80092FD19C08093F100809110
:10267000F9029091FA0201968F739927892B19F428
:102680008EEF8093E8008091F9029091FA02019612
:102690009093FA028093F90281E0089580E0089512
:1026A000DF92EF92FF920F931F93CF93DF93D82E79
:1026B0008A01EB017B01E40EF51ECE15DF0559F012
:1026C000D7FE12C0FE0184910E942213219681112F
:1026D000F4CF0FEF1FEFC801DF91CF911F910F9142
:1026E000FF90EF90DF9008958881EECF0F931F93B6
:1026F000CF93DF931F92CDB7DEB782E0898342E4A8
:1027000050E061E17FE180E80E9450130E948D1249
:10271000DC0112960D911C910115110589F0D8016B
:10272000ED91FC910280F381E02DBE016F5F7F4F40
:10273000C801099597FD04C0F80100851185ECCF0B
:1027400089810F90DF91CF911F910F910895615072
:1027500030F02091F100FC0120830196F8CF2898F9
:1027600084E680930B0308950895FC010E944C14A5
:10277000319728F068517C4F8F4F9F4FF9CFAB01B5
:10278000FC010E944C14641775078E079F07C8F35D
:1027900008958F929F92AF92BF92CF92DF92EF9265
:1027A000FF920F931F93CF93DF936C017B018A01FC
:1027B00080911101882309F45AC080910C03882369
:1027C00009F455C08091FE0280FF05C08091E000B1
:1027D00082608093E000E801B12C8AEFA82E93E09C
:1027E000892E2AE3922E209711F4BB20C9F10E9472
:1027F0007C12811108C0AA94AA20C9F181E090E05E
:102800000E94B513F0CF8C171D0611F00CF08C2F21
:102810009FB7F8948092E9002091E80025FD02C05E
:102820009FBFE1CF282F30E0C21BD30BF7018150AF
:1028300020F041914093F100FACFE20EF31EBB204D
:1028400021F09092E800B12CEBCF8091E80085FD5B
:10285000E7CF9092E800BB24B394209709F3F3CF1D
:102860005D9884E68093FD02101611063CF081E02D
:1028700090E0F6019383828310E000E0C801DF91CD
:10288000CF911F910F91FF90EF90DF90CF90BF906D
:10289000AF909F908F900895AEEEB2E02FB7F8946E
:1028A0007D918D919C9166B52FBFA89B05C06F3F10
:1028B00018F47F5F8F4F9F4F22E0660F771F881FAE
:1028C000991F2A95D1F7089590E0880F991FE091FC
:1028D0000F02F0911002E80FF91F85919491209159
:1028E000110230911202820F931F08950F9303E09B
:1028F0000E94B6100F9108950F930AEF0E94B61030
:102900000F9108950F9302E00E94B6100F91089561
:102910002D9A089590E00C94B5138FB18095807F27
:10292000669B88601C9B8460089510920E023E98FE
:10293000579808953E9A579A81E080930E02089521
:10294000FC019C012B5F3F4F85E091919F3F09F473
:102950008150E217F307C9F70895AC01FC0120E0AC
:1029600081918F3F21F02F5F2530D1F720E09091AA
:10297000DA01E92F092E000CFF0BE655FE4F80818E
:10298000420F511D27FD5A95FA0180839F5F909356
:10299000DA01903319F491E09093DB01089587FDFB
:1029A00015C094E0890290011124F901E257F84F13
:1029B0006491F901E157F84F7491F901E057F84F2C
:1029C0008491F901EF56F84F9491089590E080E0DA
:1029D00070E060E008958F929F92AF92BF92CF9285
:1029E000DF92EF92FF920F931F93CF93DF93C82F45
:1029F000062F842FF22E0E94CF14B62E972EA82ECB
:102A0000E92EC0900602002E000C110B0C2E000CBB
:102A1000DD0B31E0C31219C081E0909104029B11DB
:102A200080E08F0D8F3F09F43EC0813021F08E3F52
:102A300061F423E001C020E04AE259E1B8016750A7
:102A40007109CE01C1960E948214D12CF12C47E06D
:102A5000842E8F2D90E0D89C800D911D11248A9793
:102A600024F586E08F1510F4D394F12C8F2D90E08F
:102A7000FC01D89CE00DF11D1124EC5BFA4E249171
:102A800038E0D39EB0011124600F711F33E0880F2E
:102A9000991F3A95E1F742E854E18C0F9D1F0E947F
:102AA0007614F394D6CF22E0C7CF2CEF290D40E562
:102AB00054E1480184E0880E911CB401CE010496D3
:102AC0000E9482142B2D4AE459E1B401CE018C9668
:102AD0000E9482142A2D4EE458E0B801605F7F4FB7
:102AE000CE010C960E94821431E0C31228C0E7FC8C
:102AF00026C0B801695F7F4F2E2D4CED58E1CE0105
:102B000044960E948214B801685F7F4FCE014D96B3
:102B10002CEF2E0D223088F423E04AE259E1DF91B8
:102B2000CF911F910F91FF90EF90DF90CF90BF90CA
:102B3000AF909F908F900C94821422E0EECFDF91A3
:102B4000CF911F910F91FF90EF90DF90CF90BF90AA
:102B5000AF909F908F9008959F92AF92BF92CF9227
:102B6000DF92EF92FF920F931F93CF93DF937C013D
:102B700004E010E0B12CCB2D0B2C000CDD0BC017AA
:102B8000D10724F56701CC0EDD1EF60180810E947D
:102B9000CF14962EA72E2196CE0DDF1D88810E9480
:102BA000CF1480910602813041F480910402891192
:102BB00001C0A394861301C07F5FA7162CF4F60111
:102BC0008081988190838883B394D5CF0150110977
:102BD00089F6DF91CF911F910F91FF90EF90DF90D9
:102BE000CF90BF90AF909F900895CF92DF92EF92D9
:102BF000FF920F931F93CF93DF9300D01F92CDB717
:102C0000DEB784EE91E00E94AC1584EE91E00E9464
:102C1000A0148983809302018091E30181111BC07C
:102C20008091E401809308028FEF8093E40180910A
:102C30000502813009F05EC088E0809312010F9098
:102C40000F900F90DF91CF911F910F91FF90EF9018
:102C5000DF90CF900895809107020E94CF14E62E56
:102C6000D92E7B83F090060281E0F81207C0809194
:102C700004028E1103C0872F8F5F8B83898181505F
:102C80008A83082F880F110B8CEF8D0D8983C02E3E
:102C900007FD1CC0F801EC51FE4F808187FD24C068
:102CA0000E94CF1481E0F8120DC0809104028613B7
:102CB00001C07F5FD7FC06C0E61621F08981823013
:102CC00088F472508B81871794F4CA828A81E82F26
:102CD000880FFF0BEC51FE4F8081809308028FEF2D
:102CE0008083A5CF7150EECF8A8181508A830150B5
:102CF0001109CDCF8AE0A1CF20E048E655E070E091
:102D000060E080E290E00E947C148CE00E94AB10B6
:102D1000882319F081E08093F6020895EF92FF92E4
:102D20000F931F93CF93DF935091A5014091A6017C
:102D3000C5E5D1E0FE01F12CA0EFBFEF88E1E82E60
:102D400000E910E02081318187E08F15C8F1215022
:102D50003109203F8FEF38071CF03183208309C0F1
:102D600011830083448381E0840F6E2D0E94832AA7
:102D7000492FF394359680E1F812E4CF5093A501E2
:102D80004093A60120E04BEE55E165E170E090E054
:102D900080E00E947C146A817B812C814CEA50E0A7
:102DA000888199810E947C14259681E0C53AD807D4
:102DB00091F7DF91CF911F910F91FF90EF900895C0
:102DC0002F5F3F4F2139310544F2B183A0835483F3
:102DD00081E0850F6E2D0E94832A592FCACFEF9272
:102DE000FF920F931F93CF93DF93D82F7A01C0E008
:102DF000062F10E0F701EC0FF11DC7FDFA952081B9
:102E0000222359F020524DE75FE1B8018D2F90E069
:102E10000E947C14DB5FCF5FEDCFDF91CF911F91DC
:102E20000F91FF90EF900895EF92FF920F931F93F1
:102E3000CF93C82F7A01062F10E0F70124912223A7
:102E400069F0FFEFEF1AFF0A20524DE75FE1B8018A
:102E50008C2F90E00E947C14CB5FEFCFCF911F911D
:102E60000F91FF90EF9008950E948E164AE657E06A
:102E700066E28EE00E9414178CE00E94AB1088235B
:102E800019F081E08093F60208950F931F93CF937A
:102E90000E948E1644E555E066E28EE00E9414170B
:102EA000C09101012C2F2250330BC90129E1289F29
:102EB0008001299F100D112420E046E25CE164E2CC
:102EC00070E0C8010C960E947C1420E04EE85BE1A3
:102ED0006CE270E0C8010B960E94761480E40E94B8
:102EE000AB10882329F0C53018F4CF5FC0930101DF
:102EF00080E20E94AB10882339F080910101833079
:102F000018F081508093010184E00E94AB10882367
:102F100021F0809101018093F602CF911F910F91D2
:102F20000895EF92FF921F93CF93DF93CDB7DEB753
:102F300028970FB6F894DEBF0FBECDBF182F7B01C8
:102F40006A30710554F420E14DE75FE170E060E024
:102F5000812F90E00E947C141B5F4AE0BE016F5FEE
:102F60007F4FC7010E94D529AC0160E0812F0E94EC
:102F7000EF1628960FB6F894DEBF0FBECDBFDF91D7
:102F8000CF911F91FF90EF900895809109028111D8
:102F90001BC047E95AE160E00E94141740E15AE182
:102FA00060E089E40E94141760910C02062E000C68
:102FB000770B8EE20E94911760910B02062E000C97
:102FC000770B87E70C9491174EE85AE160E080E0B8
:102FD0000E94141747E05AE1E3CF0F931F93CF935A
:102FE000DF93CDB7DEB728970FB6F894DEBF0FBEDC
:102FF000CDBF182F062FCA014AE0BE016F5F7F4F79
:103000000E94D529AC01602F812F0E94EF162896CF
:103010000FB6F894DEBF0FBECDBFDF91CF911F91E9
:103020000F910895CF9343E855E164E089E00E9451
:10303000141747E95AE162E18CE20E9414174091AB
:10304000EA01042E000C550B4F5F5F4F62E18FE4E5
:103050000E94ED17C0E08091A801C81774F420E128
:10306000C202C001112421E04AE259E16CE270E0A1
:1030700084960E947C14CF5FEECF84307CF49091D4
:10308000A9019F5F903124F49093A901CF910895F5
:103090001092A9018F5F8093A801F8CF4EE655E109
:1030A00060E28EE00E9414178CE00E94AB1088232F
:1030B00069F38091DB01811104C082E080931201E9
:1030C000E5CF8091EA01811102C085E0F7CF813020
:1030D000E9F686E0F3CF1092A9011092A8018DE0E5
:1030E000809312010C941218CF93DF930E948E16D6
:1030F0004FE757E066E28DE10E941417C0910E027F
:1031000087E1C89FE001112420E046E25CE164E22F
:1031100070E0CE01CB960E947C1420E04EE85BE18B
:103120006CE270E0CE01CA960E94761480E40E94A0
:10313000AB1081110E949A1480E20E94AB108111A1
:103140000E9495148CE00E94AB10882381F0C091FE
:103150000E0282E090E00E940A2AC81729F06C2F24
:1031600082E090E00E94122A81E08093F602DF91D3
:10317000CF91089510927200E4E1F2E088EDDF0152
:103180001D928A95E9F780EF809304010895EF92EC
:10319000FF920F931F93CF93DF938C010E94BA1875
:1031A00081E090E0909338018093370129E12093EA
:1031B000130221E732E030933A01209339019093D2
:1031C0004C0180934B019093DC028093DB0282E4FC
:1031D0008093C00081E08093C1008FEF8093D10085
:1031E00080E88093CF0095E49093C2008093D20052
:1031F000E8012196F8010491D0931002C0930F02C8
:1032000010E0000F111FC00FD11F7E01F4E0EF0E80
:10321000F11CF0921202E092110204E112E0FE01B0
:1032200084910E946414F8019183808321960A5C42
:103230001F4FCE15DF0599F784E080937200DF9170
:10324000CF911F910F91FF90EF900895CF93DF934F
:10325000C091A701CF5FC093A70120E04EEA53E0E1
:1032600064E070E082E290E00E947C14C93720F1B3
:1032700081E08093F6028FE99DE10E94C718E5E5A1
:10328000F1E050E040E080E090E020E06EE270E0AD
:10329000A2E0B0E0283098F451834083B383A28346
:1032A00094839F5F2F5F4C5E5F4F3596203191F77F
:1032B0009093A6018093A501DF91CF910895EA0133
:1032C000C05AD109D183C0837383628384838F5FA3
:1032D000E9CF86E08093F6020C94BA18809103023D
:1032E0008F5F80930302893124F51092E3018FEF01
:1032F0009FEF90930802809307028093DC018093F4
:10330000DD018091DB01811106C08EED91E00E940C
:10331000AD148093DC018091DB01811106C084EE45
:1033200091E00E94AD148093DD0181E08093120151
:1033300008958CE08093120110920A020895EF9292
:10334000FF920F931F93CF93DF9388E08093F60251
:10335000E0911201EF3008F0B1C00E2E000CFF0B0F
:10336000EC54F64E0C94B72AC319CB19961AAC1B21
:103370003B1C901B9E1B601BC61CE81C1D1D761D64
:10338000EB1D7B1E831EDF91CF911F910F91FF904C
:10339000EF900C946E190E94C5178091060246ECBE
:1033A00058E1813009F0B1C068E080E20E94141752
:1033B00020E044E457E160E170E090E080E00E94AA
:1033C00082144CE357E162E184E40E9414174CE656
:1033D00059E16AE184E40E941417209104024AE44E
:1033E00059E165E170E088E790E00E9482144FE2C5
:1033F00057E168E284E40E94141780910902811168
:1034000064C047E95AE160E384E40E941417C09164
:1034100005012C2F4DE157E160E370E08BE790E070
:103420000E947C1440E15AE168E384E40E9414178E
:1034300022E02C0F4DE157E168E370E08BE790E06C
:103440000E947C140BEE11E0D0E0C0E0F801219165
:103450008F0127FD18C0FE01E351F94E8491FE0152
:10346000E251F94E6491220F90910501290F062E29
:10347000000C770B605F7F4F4DE157E1082E000C89
:10348000990B0E947C142296C033D105F9F60E9454
:103490008D1487FF03C08EE0809312018CE00E94A0
:1034A000AB10882359F080910902811133C08091BB
:1034B000DB01811100C182E080931201DF91CF9185
:1034C0001F910F91FF90EF9008954EE85AE160E34D
:1034D00084E40E941417C09105012C2F4DE157E19F
:1034E00060E370E086E790E00E947C1447E05AE1D8
:1034F00068E384E40E94141722E02C0F4DE157E1A9
:1035000068E370E086E790E09BCF6DE180E20E9487
:103510001417BDCF809105028093EA01DF91CF910E
:103520001F910F91FF90EF900C946B1844ED59E1AF
:1035300060E086E10E941417E091EA010E2E000C73
:10354000FF0BE452FE4FC0818091060220E04C2F19
:1035500060E1813009F0D9C080E00E94EB148C2F2B
:103560000E94CF14F62E072FC92F10E0D0E049E0BB
:10357000E42E8D2F90E01E9D800D911D1124C69785
:1035800004F5D93010F01F5FD0E08D2F90E0FC01E2
:103590001E9DE00DF11D1124E256F64E2491F8E037
:1035A0001F9FB0011124605F7F4F33E0880F991F88
:1035B0003A95E1F744E759E1CD960E948214DF5F26
:1035C000D8CF4CE659E165E187E40E9414172F2D0E
:1035D0004AE459E163E170E083E790E00E948214DD
:1035E00044E459E16DE187E40E941417402F000F75
:1035F000550B809104026DE1F8126AC08DE60E94BD
:10360000ED1720E04AE259E16DE170E084E790E0D7
:103610000E947C14C7FD3EC0C23009F46DC00CF09E
:103620005BC0CC2309F465C04FE159E1C13009F416
:103630005BC02C2F4CED58E164E270E088E690E02E
:103640000E947C14C45023E0C23008F022E04AE219
:1036500059E165E270E081E790E00E947C1444ED5E
:1036600058E16DE280E50E941417D0E0C0E01CE054
:10367000FC1669F0D19FC00111242C2F4AE459E1B6
:1036800064E370E08F5A9F4F0E947C14DF5FCF5F2E
:10369000C43071F70E948D1487FF03C08EE08093C1
:1036A00012018CE00E94AB10882309F407CF8091AF
:1036B000090281112EC080910502813009F086C176
:1036C000DF91CF911F910F91FF90EF900C94F51522
:1036D00085E70E94ED179ECFC430A1F084F048E04A
:1036E00059E1C53009F0A5CF65E28BE40E941417BB
:1036F000A0CF44E259E1F8CF49E159E1F5CF43E1E8
:1037000059E1F2CF4DE059E1EFCF84E20E94EB1492
:10371000C1CF8091E301882309F489C189E0CCCE2F
:103720001092E9018EED91E00E94AC158EED91E0D2
:103730000E94A0148093030183E0BECE1092E901A1
:1037400084EE91E00E94AC1584EE91E00E94A014FA
:103750008093020184E0B0CE46EE59E160E081E161
:103760000E941417D0E085E0E82EF12CC091E90109
:1037700010910301DC17CCF4ED2F0D2E000CFF0B84
:10378000E252FE4F9701211B310917FD33958D2F12
:10379000880F820F880F880F880F20E0408168E132
:1037A0008C5F0E94EB14DF5FE1CFDFEFD10F85E08C
:1037B00090E07C01E11AF10817FDF394DC17BCF0EE
:1037C0008D2F880F8E0D880F880F880F8C5FED2F3F
:1037D0000D2E000CFF0BE252FE4F408120E068E10D
:1037E000CD170CF060E10E94EB14D150E7CF0E949E
:1037F0008D1487FF03C08EE08093120180E40E9445
:10380000AB10882329F0C1171CF4CF5FC093E901E6
:1038100080E20E94AB10882339F08091E9011816EC
:103820001CF481508093E9018CE00E94AB10882346
:1038300009F444CEE091E9010E2E000CFF0BE25298
:10384000FE4F8081809307028FEF80838091050275
:1038500090910902911109C0813011F48AE02CCEB7
:1038600081E08093E30187E027CE8130B9F381E0E6
:103870008093E30151CE46EE59E160E081E10E9480
:103880001417D0E005E010E0C091E901DC17DCF48A
:10389000ED2F0D2E000CFF0BEC51FE4F809103011C
:1038A0009801281B310987FD33958D2F880F820FD2
:1038B000880F880F880F20E0408168E18C5F0E94AC
:1038C000EB14DF5FE1CFF0900201DFEFDF0DEF2CB3
:1038D000EE0C05E010E0DC1704F1ED2F0D2E000CCE
:1038E000FF0BEC51FE4F4081809103019801281B92
:1038F000310987FD3395C90182508E0D880F880FDD
:10390000880F8C5F20E068E1CD170CF060E10E9429
:10391000EB14D150EA94EA94DECF0E948D1487FF15
:1039200003C08EE08093120180E40E94AB108823D4
:1039300029F0CF151CF4CF5FC093E90180E20E940B
:10394000AB10882339F08091E90118161CF48150DE
:103950008093E9018CE00E94AB10882309F4AECD7E
:10396000E091E9010E2E000CFF0BEC51FE4F80811F
:10397000809308028FEF808380910502813009F0E7
:103980006DCF8093E3011092EA01C8CD40E15AE186
:1039900060E08AE10E9414174AEF59E160E088E490
:1039A0000E94141720E04091080260E184E20E9426
:1039B000EB140E948D1487FF03C08EE080931201E8
:1039C0008CE00E94AB10882309F478CD85E074CD9B
:1039D000C1E08091EA01813009F4C0E047E95AE191
:1039E00060E08AE10E941417D0E0AE014F5F5F4FA4
:1039F00060E08DE30E94ED174AEF59E160E088E452
:103A00000E941417C95FDD4F20E0488160E184E225
:103A10000E94EB140E948D1487FF03C08EE08093F8
:103A200012018CE00E94AB10882309F447CD8091ED
:103A3000EA01813059F686E03FCD809107020E946D
:103A4000CF14162FD92FC72F809108020E94CF14B0
:103A5000872F209106022130C9F42091040212130D
:103A600001C0CF5F97FD06C0161721F09450923029
:103A700008F5C250621302C081E0870FD7FD06C06F
:103A8000161721F0D450D230B8F48250E0910302DE
:103A90000E2E000CFF0BE651FE4FC81318C080918C
:103AA000050281110BC080910C028F5F80930C0284
:103AB00010820BC0C150DECF8150E8CF80910B0245
:103AC0008F5F80930B0281E080838BE0F5CC8C17B5
:103AD0001CF410920502E7CF91E0909305028091CB
:103AE0000B028F5F80930B029083EFCF80910702D0
:103AF0000E94CF14F62EC92F809108020E94CF1485
:103B0000062FD92F0E94C51710910602113099F483
:103B1000C7FD0CC0F01679F0C450C23008F03CC1AB
:103B2000CEEFD7FF0BC0D0E0CEEF0DC0D7FD03C066
:103B3000C0E0F01203C0D0E0C0E005C0D450D230E5
:103B400008F047C0DEEF8091070287FD11C0809129
:103B50000502811106C040E35BE168E081E10E945B
:103B600014172D2F4091070260E180E00E94EB14B2
:103B70008091080287FD11C080910502813031F4E7
:103B800040E35BE168E089E50E9414172C2F409127
:103B9000080260E188E40E94EB140E948D1487FF04
:103BA00003C08EE0809312018CE00E94AB1088234A
:103BB00009F484CC113051F40E947D2924E030E0D6
:103BC00040E050E00E94202A60930402109212010B
:103BD00075CCDFEFB8CF0E94C51790910C02809191
:103BE0000B028917E4F580910A02811107C087E36F
:103BF0009BE10E94C71881E080930A0240E35BE1E9
:103C000068E383E30E94141720E04EE95AE16AE179
:103C100070E084E390E00E947C148091090281119D
:103C200019C047E95AE160E181E30E9414178CE072
:103C30000E94AB10882309F441CC81E08093F60206
:103C40008FE99DE1DF91CF911F910F91FF90EF9050
:103C50000C94C7184EE85AE160E18CE2E6CF981761
:103C60008CF540E35BE168E383E30E94141721E0F5
:103C70004EE95AE16AE170E084E390E00E947C142E
:103C8000C0910A028091090281110CC0C11107C0C4
:103C900089E19AE10E94C71881E080930A0240E11D
:103CA0005AE1DACF47E05AE160E18CE20E94141752
:103CB000C111BDCF87E39BE10E94C71881E08093CB
:103CC0000A02B5CF41E05AE160E186E30E94141791
:103CD00020E04EE95AE16AE170E08AE190E00E945A
:103CE0007C1421E04EE95AE16AE170E08EE490E054
:103CF0000E947C149CCFDF91CF911F910F91FF9078
:103D0000EF900C94121847E55CE168E080E20E94B5
:103D1000141748E45CE160E18DE10E9414174FE361
:103D20005CE16CE18CE20E94141710910D0201E03D
:103D3000C12FC0273AE1C39FE001112420E046E2F1
:103D40005CE16AE170E0CE0188960E947C1420E07C
:103D50004EE85BE162E270E0CE0187960E94761445
:103D60000E948D1485FF03C000930D02A7CB0E9413
:103D70008D1486FF03C010920D02A0CB8CE00E9430
:103D8000AB10882309F49ACB80915D07113009F0BC
:103D900093CB1093F60254CFCFEFD7FFCFCED0E026
:103DA000CFEFD1CECF92DF92EF92FF92CF93DF93FE
:103DB00020E04BEE55E164E070E090E080E00E948E
:103DC0007C1446EB55E168E183E10E94141748EA50
:103DD00055E164E280E20E9414174AE955E160E38C
:103DE00080E20E94141780E80E94AB1081111092AB
:103DF000090280E10E94AB10882319F081E08093D2
:103E000009028CE00E94AB10882309F487C048E1C6
:103E100050E06FEF7FEF8BEE91E00E94BD2A109291
:103E2000DA01EAEAF1E080E3DF011D928A95E9F721
:103E3000EF0180E081938F5F8033E1F780E3C82E4C
:103E4000D12CE12CF12C0E947D29A70196010E9422
:103E5000202A8FEF8C0D861749F08FA5E62F660F6D
:103E6000FF0BE655FE4F90819FA78083B1E0CB1AF0
:103E7000D108E108F108219781E0C816D104E104D6
:103E8000F10409F780910602813051F40E947D29E6
:103E900024E030E040E050E00E94202A60930402D9
:103EA0008FEF8093DC018093DD011092030210926A
:103EB000E9011092050210920C0210920B0210926E
:103EC000E3011092DB0185E08093030180930201FE
:103ED00045E050E06FEF7FEF8EED91E00E94BD2A4C
:103EE00045E050E06FEF7FEF84EE91E00E94BD2A45
:103EF0008FEF9FEF9093080280930702C4E08EED4E
:103F000091E00E94AD1484EE91E00E94AD14C15086
:103F1000B1F70E946E1988E08093F6026091090261
:103F20008CE0689F602D11246C5D49EC55E18AE1BD
:103F3000DF91CF91FF90EF90DF90CF900C9414170A
:103F400020E04BEE55E164E070E090E080E00E94FC
:103F50007C144AED55E168E188E10E94141744EDB4
:103F600055E164E280E20E9414174BEC55E160E3F6
:103F700080E20E94141780E80E94AB108111109219
:103F8000060280E10E94AB10882319F081E0809343
:103F900006028CE00E94AB10882329F00E94D21EFA
:103FA00087E08093F602609106028CE0689F602DA6
:103FB00011246C5D49EC55E18AE10C9414171F92B1
:103FC0000F920FB60F9211248F939F938091E1006F
:103FD0009091E100937F9093E10083FF0FC01092D6
:103FE000E90091E09093EB001092EC0092E3909343
:103FF000ED0010920C0398E09093F00082FF22C035
:1040000093E09093E9009091F200992319F09AE3DC
:104010009093E8009091FD02992341F09091FD0268
:1040200091509093FD02911101C05D9A90910B0304
:10403000992341F090910B03915090930B039111B0
:1040400001C0289A84FF18C08091E2008E7E8160B2
:104050008093E2008091E1008F7E8093E100809167
:10406000FE028E7E80618093FE029F918F910F9061
:104070000FBE0F901F90189580FFF7CF8091E20040
:104080008E7E80618093E2008091E1008E7E80933D
:10409000E1008091FE028E7E8160E5CF1F920F923B
:1040A0000FB60F921124CF92DF92EF92FF920F93EF
:1040B0001F932F933F934F935F936F937F938F93B0
:1040C0009F93AF93BF93EF93FF93CF93DF93CDB7BE
:1040D000DEB76C97DEBFCDBF1092E9008091E8009B
:1040E00083FF25C068E0CE0145960E94A71382EFAA
:1040F0008093E8008D8987FF39C09091E80090FF98
:10410000FCCF982F907609F034C19E894F89588D45
:104110002F89F88C911131C0803861F58091FC02B3
:104120008093F1001092F1008EEF8093E8006C967E
:104130000FB6F894DEBF0FBECDBFDF91CF91FF91D8
:10414000EF91BF91AF919F918F917F916F915F910F
:104150004F913F912F911F910F91FF90EF90DF9022
:10416000CF900F900FBE0F901F9018959EEF9093D9
:10417000E800C7CF1092F100D5CF913059F48111EA
:10418000D3CF4130510581F68091FC028D7F809321
:10419000FC02CACF933049F48111C6CF413051059A
:1041A00019F68091FC028260F2CF953041F4809143
:1041B000E80080FFFCCF20682093E300B5CF963065
:1041C00009F0A9C00B8D1C8D22E01092E90010921D
:1041D000FA021092F902F2122EC01092F802109216
:1041E000F7020E9476131F8299E09983FA8291E088
:1041F0009E8390EA98879AEF99872091F9023091EF
:10420000FA02275F3F4F3C832B838D831092E90096
:104210001092FA021092F9021093F8020093F7023A
:1042200049E050E0BE016F5F7F4F80E00E94501375
:104230000E94761379CF1093F8020093F7020E9440
:104240008D12DC0112960D911C910115110509F4D6
:1042500051C1D801ED91FC910480F581E02DBE01A2
:104260006B5E7F4FC8010995009709F03EC1F801C8
:1042700000851185EACFF3E0FF120EC08F898823F5
:1042800009F440C0823061F440E867E085E79FE1CF
:104290000E94B526811148CF81E28093EB0047CF81
:1042A000813029F440E86BE089E69FE1F1CF83306B
:1042B00099F70E948D12DC011296ED90FC908E0110
:1042C0000F5F1F4F6801E114F10479F0D701ED9100
:1042D000FC910680F781E02DB801C7010995080F10
:1042E000111DF701E084F184EECFD8011C92F60194
:1042F00001900020E9F73197BF016C197D0940E07A
:10430000C601C6CF63E57FE1FB01449150E080E840
:104310000E94501309CF973009F4BECF983021F492
:1043200081E08093F10000CF993009F0FDCE8370D9
:1043300009F0B2CFE8E1F1E081E031E096E32191CC
:10434000222371F08093E9003093EB00DF01119795
:104350002C912093EC009093ED008F5F873079F7DC
:104360008EE78093EA001092EA008F8980930C0315
:10437000DBCE8B8D9C8D1092E9001092FA02109288
:10438000F9029093F8028093F702898D811192C00F
:104390008E899D89913A49F4813209F07DCF47E0B9
:1043A00050E06AE071E080E0B3CF913209F074CF61
:1043B000833269F48F89988DB0E0A0E08093060184
:1043C00090930701A0930801B0930901ADCE80320C
:1043D00069F48091E80082FFFCCF67E08AE091E019
:1043E0000E94A7138BEF8093E8009ECE823209F0E3
:1043F0009BCE8F8980931101EEEFFFE78591949119
:104400008B3F9C4D51F1E0E0F8E080910A019091E2
:104410000B01A0910C01B0910D01803B9440A105CE
:10442000B105F1F48091110180FD1AC0EE3F8AE0E0
:10443000F80789F587E797E791838083809160008B
:104440008093FB0288E19BE00FB6F894A8958093D7
:1044500060000FBE9093600067CEEEEFFAE0D5CF1C
:10446000808191818737974709F05ECEA89580912A
:1044700060008861809360008091FB0280936000FF
:10448000EE3F2AE0F20789F08091FE0A9091FF0A40
:104490009183808349CE808191818737980751F23B
:1044A0009093FF0A8093FE0AC5CF1092FF0A1092E4
:1044B000FE0A3ACE0E948D12DC0112960D911C91DB
:1044C0000115110509F4E8CED801ED91FC91019098
:1044D000F081E02DBE016B5E7F4FC801099581110F
:1044E00023CEF80100851185EBCF181619060CF4C0
:1044F0001BCED2CEF1E0FF12BECE67E57FE104CF46
:104500000F920FB68F939F93EF93FF938091ED02DD
:104510008D5F8D3708F08D578093ED02E2EFF2E06A
:1045200080818E4F808391819F4F918382818F4FB5
:10453000828383818F4F8383EEEEF2E080818F5FF1
:10454000808381818F4F818382818F4F828383819A
:104550008F4F83838FB18F6066991C9B88278F361E
:1045600081F48091EC02981B963068F0E0E0F8E06E
:1045700087E78083818388E180936000F093600007
:10458000FFCF9093EC02FF91EF919F918F910FBE1F
:104590000F9018952F923F924F925F926F927F9259
:1045A0008F929F92AF92BF92CF92DF92EF92FF9243
:1045B0000F931F93CF93DF933BE3E32E31E0F32E72
:1045C000C4E1D2E010E000E05524539449E0A42E69
:1045D0004DE3B42E22242A94322C6CEE662E62E037
:1045E000762EEEA5EE23A9F08FA59E2F9370891746
:1045F00008F49BC0F0E0F595E795F595E795EE0F8B
:10460000FF1FEB59F34E85919491F70192838183BB
:104610001FA69CA99923F9F08DA9292F2F77022E87
:10462000000C330B821713060CF489C08A8197FFA4
:104630007FC081508A838A8181117CC081E08A8316
:10464000EA81F0E0EE0FFF1FEB59F34E8591949154
:104650009EA38DA31DAA58A5552321F13AA529A5EE
:10466000311119C0422F407426FF6CC08DA19EA14C
:10467000850F911D57FD9A9527FD69C097FD65C06F
:10468000442309F466C0863BF4E29F0714F085EBEF
:1046900094E29EA38DA381E0830F8AA72F73321724
:1046A00008F01AA69BA5992371F0EA81EE2359F030
:1046B0008DA52CA5482F4F71322F3F71431708F05D
:1046C0004AC08F5F8DA749A9442311F13AA9632FEE
:1046D000607436FF6CC08DA19EA12BA950E027FF0E
:1046E00069C0840F951F97FD68C0662309F469C0EF
:1046F000863B44E2940714F085EB94E29EA38DA3DD
:104700003F71822F8F71831708F05DC02F5F2BAB35
:1047100089A19AA1009709F45DC08F3F980709F419
:104720009CC001979AA389A398C08F5F8FA771CF70
:104730008F5F80CF803408F483CF8FE380CF8F5F8B
:104740008DAB89CF8FA190E093CF90E080E04111B5
:10475000A0CF8FA3A0CF807EF1F480E28DA78DA59E
:10476000807E51F09F3F09F1292F22952F70E20F93
:10477000803411F49F70E90F88A9F0E0E80FF11D73
:1047800087FDFA95EE0FFF1FEB59F34E859194913B
:104790009EA38DA398CF803231F426FD04C09F3FA5
:1047A00011F080E4DBCF1DA6DACFE0E0E1CF8FA1EE
:1047B00090E093CF841B950B96CF90E080E0611141
:1047C0009DCF8FA39DCF27FF02C01BAAA1CF80E85A
:1047D0008BAB9ECFC8010496452C01C0440C8A9532
:1047E000EAF7FBE1F09F4001F19F900C112426E3D2
:1047F000209FC001219F900D1124FC01EC5EFD4F14
:104800006F0188819981BC016F5F7F4F79836883D5
:10481000FC014491403408F078C04A83442319F0E5
:1048200088A9480F4A83EA81F0E0EE0FFF1FEB5999
:10483000F34E859194919EA38DA389A5811102C009
:104840008FA58FA38CA585FD1DA689A19AA1009790
:10485000C1F28F3F980709F064CF20910401822FA5
:1048600090E0002E02C0959587950A94E2F780FDAE
:104870000AC0033009F0F0C18091DD0290E0959507
:10488000879580934A01207F19F580913402909199
:104890006A02890F9091A002890F9091D602890F28
:1048A00009F4E2C184E1C82E82E0D82EF60180A18D
:1048B0000E946414F6019183808312A211A2F6E390
:1048C000CF0ED11C6C147D0489F780EF8093040116
:1048D0000F5F1F4FE69625E0E20EF11C0430110534
:1048E00009F07FCEDF91CF911F910F91FF90EF9054
:1048F000DF90CF90BF90AF909F908F907F906F9000
:104900005F904F903F902F900895403A08F009C172
:10491000E42FE054FF0BEC30F10509F4BFC00CF0BC
:104920004CC0E530F10509F4A2C0F4F4E230F10521
:1049300009F49DC094F4309709F491C0319709F0BF
:1049400084CF029699838883FB01649168A780E0F5
:10495000413409F080E489A778CFE330F10509F408
:1049600093C0349771F371CFE830F10509F462C058
:10497000A4F4E630F10509F487C0379709F065CF54
:10498000FB0164916BA79C012D5F3F4F3983288306
:10499000FC013296E491ECA758CFEA30F10509F416
:1049A0007BC002963B970CF471C099838883FB010E
:1049B000849168A9680F68AB48CFE331F10509F429
:1049C00077C064F5EF30F10509F470C0DCF4ED3028
:1049D000F10509F469C03E9709F037CFFB01259135
:1049E000349129AB9C012D5F3F4F39832883FC0113
:1049F00032962591349180E04E3409F080E4820FA4
:104A00008AAB23CFE131F10509F450C03CF30296A3
:104A100099838883FB0164916CAB17CFEC35F1056A
:104A200009F451C04CF4E431F10509F443C0759721
:104A300009F00BCF1BA609CFEE35F10509F45CC0D8
:104A40000CF454C0EF35F10509F0FFCE809104015C
:104A50008425809304011FA23AA229A2F6CE0296D1
:104A600099838883FB0164916FA36FA7EECEFB014E
:104A7000649168A79C012D5F3F4F39832883FC0117
:104A80003296E491E9A7E1CE18A6DFCE9983888318
:104A9000FB0164916EA7D9CE1EA6D7CE029699834C
:104AA0008883FB01649187CF18AACFCE19AACDCEF7
:104AB0001CAACBCEFFEFFBA7029699838883FB014C
:104AC00064916CA7C2CE029699838883FB0164919E
:104AD000E09113026E0F6093130270E0C5010E9413
:104AE000A32A70933A0160933901AFCE029699835D
:104AF0008883FB016491EFCFA4E1B2E021E030E0D4
:104B0000FC01E20FF31FE4919096EC9390972F5FD6
:104B10003F4FD6962530310599F7059699838883BE
:104B200094CE403E28F44F59550B5AA349A38DCE3D
:104B3000403EA9F4DE0190E080E09695982F88270A
:104B400097958795ED91FD91E4912E2F2F77822BEC
:104B5000E7FDF3CF8F5B9F4F9AA389A376CE4C3F9F
:104B600008F473CE24E0240F223008F039C04C3F03
:104B7000A9F1029699838883FB016491E881F98108
:104B80009F012F5F3F4F39832883E4915CA15E171B
:104B900001F14F8D842F90E07BA1D601A80FB91FA2
:104BA00051967C93519758965C93D401A80FB91FE6
:104BB000AA0FBB1FAC5EBD4F8091110290911202F3
:104BC000281B390B14963C932E9313974F5F4F8FEE
:104BD000ECA36BA38CA10E946414A0CF60E0CECFA5
:104BE000DE0190E080E04E3F29F58BA181111FC0CE
:104BF000EF8DEE2379F3E150EF8FF0E0D401AE0FAB
:104C0000BF1FAA0FBB1FAC5EBD4F809111029091D8
:104C1000120213962D913C91820F931F99838883E2
:104C2000EC0DFD1D81898BA3808D8CA30ECE815050
:104C30008BA3D0CF9695982F882797958795ED9140
:104C4000FD91E4913E2F3F77832BE7FDF3CF680F73
:104C5000791F79836883F9CD8DA19EA1F701928395
:104C600081838FA180830FCE0E94BA1831CE2F93FB
:104C70002091360120FD05C02FEF209336012F91A2
:104C800018950F921F922F922FB6EF93FF93EBE39D
:104C9000F1E021E000881188000C111C17FC0226AD
:104CA00016FC0226008A118A278517FC2195122EF0
:104CB00001802381200D238302802481201D2483F1
:104CC0000080203C10F00194100C26810084020E1C
:104CD000008627810184021E0186258107FC21951B
:104CE000120E23850584020E058604842685201D68
:104CF0002687E285F0910001F10D27FD2095220F16
:104D000020582E02110C1F0E1092CF001092D200CC
:104D1000F0913801E0913701319721F4F0913A0197
:104D2000E0913901F0933801E0933701B1F47894C0
:104D30003F934F935F936F937F938F939F93AF9323
:104D4000BF9311240E94CA22BF91AF919F918F916E
:104D50007F916F915F914F913F91FF91EF912FBEA6
:104D60002F901F900F9020E088CFEF92FF920F932B
:104D70001F93CF93DF93F82E192FE62E042F81E097
:104D8000860F880F0E94221383E00E942213CF2DEA
:104D9000D12FEC0EFD2EF11CCE15DF05B9F007FF6B
:104DA00013C0FE0184910E942213182F80E00E94FC
:104DB0002213812321968111EFCFDF91CF911F9193
:104DC0000F91FF90EF9008958881EDCF81E0F5CFAE
:104DD000EDE0F7E01382128288EE93E0A0E0B0E00D
:104DE00084839583A683B78382E291E09183808355
:104DF0008FEF9FEF95878487EEE5F7E084E391E0FE
:104E0000918380831582168280E1878314821382C6
:104E100011868091120180935D070895789483E054
:104E200084BD83E085BD81E080936E00E1E8F0E021
:104E300083E08083E0E881E08083E1E983E08083B0
:104E4000E0E981E08083E1EC87E08083E3EC81E0CE
:104E50008083E0EC82E08083E2EC81E08083EAE71B
:104E600087E080838068808310920C031092FC029C
:104E70001092FE028091D70081608093D70080EA73
:104E80008093D80089B5806189BD89B5826089BD6C
:104E900009B400FEFDCF81E090E00E94B51380913F
:104EA000D8008F7C80618093D8008091E000807F63
:104EB0008093E0008091E1008E7E8093E1008DE0A0
:104EC0008093E200559A209A81EC80937C0081E7E0
:104ED00085B987E684B985E38BB98FE38AB9769A79
:104EE0006E9880EF81BB10BA80E58CBD81E08DBDEE
:104EF00085E00E948A14599A85E00E948A145C9881
:104F0000E5E9FDE185918EBD00000DB407FEFDCF02
:104F1000EF39C1F75C9A81E88093640081E0809367
:104F200065000E9436120E948D1487FF15C05C98A0
:104F300085EA8EBD00000DB407FEFDCF5C9A2E9869
:104F400058982D988091640080628093640081E07D
:104F500083BF889513BEFCCF0E948D1482FF45C08D
:104F60002D980E948D1484788438D9F40E94881476
:104F700088EC0E948A14589882E090E00E940A2AE5
:104F80008F3F29F06FEF82E090E00E94122A84EFB9
:104F900091E00E94B513589A0E948D148478843849
:104FA000D9F30E948D1484718431D9F40E9488143D
:104FB00088EC0E948A142E9882E090E00E940A2ACF
:104FC000882329F060E082E090E00E94122A84EFBA
:104FD00091E00E94B5132E9A0E948D148471843141
:104FE000D9F388EC0E948A14B7CF0E94881482E01B
:104FF00090E00E940A2A882309F47CC00E949A1437
:1050000081E090E00E940A2A182F147081E090E05D
:105010000E940A2A81FF0CC011112E98C1EFDFEF08
:105020000E948D1486FF69C02E9A589A0E94881497
:1050300082E30E948A140E948D148111F9CF81E2CB
:1050400080936507809164008E7F809364008091D7
:105050007A00806480937A0080917A0086FDFCCF8C
:10506000C0917800D09179000E944C14AB01BC0132
:10507000CE01B0E0A0E0DC01992788278C019D01DA
:10508000040F151F261F371FC901B80120916400A6
:10509000216020936400611571058105910511F06F
:1050A0000E94CC298FE99DE10E94C718BB24B394CC
:1050B00001E617E09DE0E92E93E0F92E23E0C22EF1
:1050C000D12CC0E0D0E0AA24A3949091F202809168
:1050D0006607292F281B822F90906707992009F4D3
:1050E00079C02093680710926707209771F30E9498
:1050F0000000EBCF0E94951483CF112329F0C43018
:10510000D10511F42E9A589881E00E9436120C2F86
:105110000770A02EAE0163E0559547956A95E1F7BB
:10512000CA019695982F882797958795835F9C4FFE
:1051300070E060E04E3F2FEF520769F130E020E071
:10514000DB01AB51B34E7C01E0E8EE0EF11CFD013A
:10515000E20FF31FE491F0E04F010A2C02C0880C2B
:10516000991C0A94E2F74F3F540739F06C01C20EC4
:10517000D31EF601B488B828B48AAA2039F0670192
:10518000C20ED31EF60104890929048B2F5F3F4FFD
:1051900028353105E1F64F5F5F4F80589F4F685AC1
:1051A0007F4F603B710531F680E00E9436128FE040
:1051B0000E948A142196C931D10509F031CF1123FB
:1051C00011F0589A2D9880E991E00E94B5130E9441
:1051D00088142ECF20916507821740F48F5F8217C5
:1051E00008F083CFB3BE889513BE7FCFA092670728
:1051F00090936607F8018081918101968083918365
:1052000080916307809364070E948D1480936307E5
:10521000992DF70191119FEF8FEF919391939193B6
:1052200091938150D0F7E091F602F0E0EE0FFF1F6E
:10523000E150F14E85919491FC01099580E00E9426
:1052400036128091610790916207B6010E948F2A01
:10525000892B09F04ACF809105018B2580930501A8
:1052600044CF8F929F92AF92BF92CF92DF92EF92F4
:10527000FF92CF93DF93EC01688179818A819B81D2
:10528000611571058105910521F464E279ED8BE5E5
:1052900097E02DE133EF41E050E00E94202A4901E0
:1052A0005A019B01AC01A7EAB1E40E943F2A6B01BD
:1052B0007C01ACEEB4EFA50194010E944D2AC60E0C
:1052C000D71EE81EF91EF7FE06C081E0C81AD108F5
:1052D000E10880E8F80AC882D982EA82FB82C70125
:1052E000B6019F77DF91CF91FF90EF90DF90CF9045
:1052F000BF90AF909F908F9008958F929F92AF92A2
:10530000BF92CF92DF92EF92FF9260911301709162
:1053100014018091150190911601611571058105A7
:10532000910521F464E279ED8BE597E02DE133EF0F
:1053300041E050E00E94202A49015A019B01AC0142
:10534000A7EAB1E40E943F2A6B017C01ACEEB4EF06
:10535000A50194010E944D2AC60ED71EE81EF91E13
:10536000F7FE06C081E0C81AD108E10880E8F80A13
:10537000C0921301D0921401E0921501F09216012F
:10538000C701B6019F77FF90EF90DF90CF90BF905D
:10539000AF909F908F9008956093130170931401C4
:1053A00080931501909316010895BB274A3031F47C
:1053B000992322F4BDE2909581959F4F0C94E129A9
:1053C000BB27FB015527AA27880F991FAA1FA417DF
:1053D00010F0A41B83955051B9F7A05DAA3308F0D3
:1053E000A95DA193009779F7B111B1931192CB0107
:1053F0000C94FA29DC01FC01672F71917723E1F706
:10540000329704C07C916D9370836291AE17BF0791
:10541000C8F30895F999FECF92BD81BDF89A9927F6
:1054200080B50895262FF999FECF1FBA92BD81BD90
:1054300020BD0FB6F894FA9AF99A0FBE0196089516
:10544000052E97FB1EF400940E94372A57FD07D0C3
:105450000E94522A07FC03D04EF40C94372A509530
:105460004095309521953F4F4F4F5F4F0895909550
:105470008095709561957F4F8F4F9F4F08950E9443
:10548000742AA59F900DB49F900DA49F800D911D2F
:1054900011240895B7FF0C943F2A0E943F2A821BD3
:1054A000930B0895A1E21A2EAA1BBB1BFD010DC090
:1054B000AA1FBB1FEE1FFF1FA217B307E407F507C4
:1054C00020F0A21BB30BE40BF50B661F771F881FA0
:1054D000991F1A9469F760957095809590959B0136
:1054E000AC01BD01CF010895A29FB001B39FC001DF
:1054F000A39F700D811D1124911DB29F700D811D00
:105500001124911D0895991B79E004C0991F9617E5
:1055100008F0961B881F7A95C9F780950895AA1BF5
:10552000BB1B51E107C0AA1FBB1FA617B70710F08E
:10553000A61BB70B881F991F5A95A9F780959095C0
:10554000BC01CD01089597FB072E16F4009407D0F7
:1055500077FD09D00E948F2A07FC05D03EF4909574
:1055600081959F4F0895709561957F4F0895EE0F37
:10557000FF1F0590F491E02D0994DC0101C06D93AB
:1055800041505040E0F70895F894FFCF800305059F
:10559000F001FFFFFFFF00E100000000000002013A
:1055A00000000000C1808100000000000000A11286
:1055B000C913C212B7120813C612E4120000000089
:0255C000B41322
:1074000080E189BD82E189BD09B400FEFDCF089508
:10741000CAD569F08091E9008F931092E9009FD45A
:1074200083FF01C01ED58F9187708093E900089576
:107430008EEF0090E10008220092E1000895F20131
:10744000F999FECFF2BDE1BD0895F9DFF89A80B554
:1074500008C0F5DF1FBA80BD0FB6F894FA9AF99A02
:107460000FBE31962F010895E0E0F0E085919491F0
:10747000019608958AE28BB98BEA34D01092890084
:107480008AEF8093880082E080936F0083E080938E
:107490008100E7E5F7E785913AD0E336E1F781E04F
:1074A0008093D7008AE482BF1092D8001092E20045
:1074B0001092DA001092E10080E808D019BC1EBAE0
:1074C0001092E00062D489E053D481E98093D8001F
:1074D0000895A3E6B1E090E81AD08D939A95E1F76C
:1074E000089586E008D010C083E005D08F2F0FD01C
:1074F0008E2F0DD080E05B9A5A9809C005D085E0A8
:10750000FADF05D080FDFDCF5A9A5B9808958EBDB5
:107510008DB587FFFDCF8EB508958FE08221E9F705
:10752000F3DFE3E6F6E090EB5C98892FF0DF80E193
:10753000EEDF5C9A8191EBDF83E68E278F77D1F7C0
:107540009395983B89F70895E3E6F1E097FC36C000
:1075500094FC4DC092FE089596849920D1F3F8943E
:10756000C089D78520E030E080E090E4AFEFBFEF46
:10757000119689199040E0F72D01BD4F8D0127FD2F
:1075800013C0E0E0F8E011928EE7819392E4E117F6
:1075900091939AE508F092E4E334C9F7819310825D
:1075A000BFDFFE012196A0DF94DFF901FFD4205850
:1075B0003F4F040D151D9A9411F712C28301282D17
:1075C00060906C0170906B0143D019F48823C1F76F
:1075D0000895380188243CD0C9F580916A0182174A
:1075E00009F4830160906E0170906D01F4CF80E129
:1075F000982E60906E0170906D012AD059F4882306
:10760000B1F708959FEF95FC03C096FE089591E0B1
:1076100097FB890E662477248301222719D0B1F4C1
:107620008823A1F380916A0136F0881650F48217FE
:1076300030F0213003C0881520F4281710F483019E
:10764000282F60906E0170906D01E8CF3801822E76
:10765000F3014ADF3EDFC3E6D1E0E0E5F7E709905A
:107660008591081621F4E735D1F7088080104CCFBA
:10767000C9E031DFCA95E9F7D0E197FC55C094FC29
:1076800037C096FE1AC0C3E6D2E0E3E6F6E098E023
:1076900088E78E0F00840192E817E1F7884F099080
:1076A0000192E817E1F7C858DF4F9A9589F735DF5F
:1076B000C85FD340C33E49F749C0C3E6D6E0EBE517
:1076C000FAE098E08E2F885702900086E817E1F7DD
:1076D00038960A900292E817E1F73897C857D040D9
:1076E0009A9581F71ADFC850DC4FC33E41F72EC090
:1076F000A3EEB6E0E3E6F6E09AE0C6E00D90808106
:107700008025807F802582958193A336B90709F46F
:10771000B2E0E336F90709F4F2E0E336FC0771F76B
:10772000FCDEDA9529F712C0A3EEB9E0E3E6FAE051
:1077300092E00E90829180258F70802582958083C3
:10774000E336F907B1F7E9DEDA9571F7882708958E
:1077500041524455424F59D5F08D14A1C881CFD91B
:10776000F1AF020000FFFFCFCFFFFFFFFFCFCFFF42
:10777000FF0000FE067E7E06FE46565616FE0656A4
:10778000461EFE3F61E9E3FFE3EBE3FFE3EBE3FFCC
:10779000E16B3F0012011001020000084123360096
:1077A00001000000000109023E00020100803209D0
:1077B000040000010202010005240010010424025B
:1077C000040524060001070582030800FF090401DF
:1077D00000020A00000007050402100001070583EB
:0477E0000210000192
:1078000011241FBE04B714BE88E18093600010925B
:1078100060008EEF9AE09EBF8DBF222433242101A9
:107820003101410180E88AC00F928F939F931F928C
:107830000FB60F9211244F936F938091DA0080FF5F
:1078400037C023C00F920FB68F939F93EF93FF9390
:1078500088278093850080938400E0E5F1E09281A1
:10786000907261F490818917980B908309F45D9A66
:1078700091818917980B918309F4289A239411F424
:107880008315381EFF91EF9154C08091D80080FF7E
:107890000FC08091DA008E7F8093DA008091D9004A
:1078A00080FF04C0ADDD81E08EBB02C019BC1EBAF2
:1078B0008091E10080FF0BC055D280FF08C055D2F7
:1078C0008091D800806202DE19BC85E08EBB809179
:1078D000E10084FF1AC046D284FF17C091DD809179
:1078E000D8008F7DF3DD8FEEA4DD3CD28F7E8160EA
:1078F0003FD280915301882331F48091E30087FDCA
:1079000002C081E001C084E08EBB8091E10083FF72
:107910000CC028D283FF09C087EF8BDD82E08EBBCD
:107920001092530185DD21D230D26F914F910F908B
