:020000040000FA
:100000000C94E5140C940D150C940D150C940D1511
:100010000C940D150C940D150C940D150C940D15D8
:100020000C940D150C940D150C94EB2D0C945A2E6C
:100030000C940D150C940D150C940D150C940D15B8
:100040000C940D150C940D150C940D150C940D15A8
:100050000C940D150C940D150C940D150C948C30FE
:100060000C940D150C940D150C940D150C940D1588
:100070000C940D150C940D150C940D150C940D1578
:100080000C94D6300C940D150C940D150C940D1584
:100090000C940D150C940D150C940D150C940D1558
:1000A0000C940D150C940D150C940D150008FC0006
:1000B00008F80008FC0129E04008C040180C40087E
:1000C0001E40087F7C08470C2C17066636F303E6B3
:1000D00011020F99837FCD803CC9C08063C0C021CD
:1000E00046E43740E017603F1760010778C0070813
:1000F00000030E307602929510B5059504750292B4
:100100003417B41192901101700F85500A50096F85
:100110000F85AE11AC084C036B08076B0007AA00F3
:10012000480D87628306A1128051C000FF007C0049
:10013000007F04FF0340FF0100C020800200000296
:1001400000F0C03FF0D93F0018000002000000009E
:10015000000100000000000300000300017F000018
:100160007F000000800101E00100E0017804007FD1
:1001700000007F000015019463B30573008B926348
:100180006F10CAAE10A80567090367080386E66604
:10019000018D451745158526650194C500A413A357
:1001A0000F830DA20D828A21014012FF0000000082
:1001B0000000000000F7103C9007101E0490060499
:1001C0001004FC31050011240199062411000033AC
:1001D000018011AC2A99FE3F10FC3F3079F81303DF
:1001E000FF93FFFF13FFFF330000000000800000BB
:1001F00080FFC4F816017517D4B213B00A90098FA6
:1002000037AF164D0C4D0A4D084D064D046C009746
:100210008B3388512805A8016800978737A512837A
:1002200048420CC201A10FFF0060000060000060A6
:1002300000806100806100FCE107FCE12780610033
:10024000816110830100BF6108BFE10180E101808D
:10025000E10380610080610880010080612080618D
:100260000000000C00000F00000FFFF30FFFFF0F56
:10027000770B14770A14550E550C1502B009700847
:100280008D4E13AD0C8B31A90E69088D896288ECF7
:10029000680085A7098762241184E944064405C4DF
:1002A000044402A316630DC3A2088227FF9EFFFF2A
:1002B00000007040007000C07004E07000F07040FA
:1002C000F870400C70FFFF73001070001070040095
:1002D00070040070FCFF7F00007000007000A071CF
:1002E000A0EA71E0CE7F0F007E00006000000700F2
:1002F000800F1FE0FF771714770403B507B40131AF
:1003000012510A5106500E6F14D48CACAC0A8CA357
:100310006B14D28B036A14D28A0DA901470E470DC4
:10032000A70C07008625850B4302C117A000FFF02C
:10033000FFF1F0FFF13000E03000E07074F1707414
:10034000F17077F07074F07074F07074F0F075F014
:100350007074F07060F07074F07037E07034E070BA
:1003600034E07034E1F0B5E10000E40000E00000AA
:10037000E89A97EA9A97EB56107609127608127661
:100380000712510F9127B007AF0E8F288D28AC0CA4
:100390008B27C9104908A907680E846714C48728E9
:1003A000660E848528A3144310230C430AA3060178
:1003B00001FFFFFF071F400470400697400697406B
:1003C0000197400097C001B700009700F8D70F7859
:1003D00001000821000821000CFFCF9F0000000051
:1003E000000000CC0088CE0000C00C00C00C00C093
:1003F0000C00C07C00C03800F000770D17770C1798
:1004000075160C5416B4085113B003AC144C0B4CB5
:100410000A4C098C446C00966B00968A57AA016AB4
:1004200000962716A60543100200A111C105FFFF83
:10043000FFFF0003F0000300FCFB07FCFBFFE4F3FD
:10044000FFE4F30764F00764F00764F0076400401A
:1004500064510064D00764D04764D007E4D117E446
:10046000D10700D34700D00300D0130000009FFE47
:10047000071FFE071FFE07750A127504107503108B
:10048000540754045403B307700883AB178B6F6B86
:100490000883AB076A16C5AA0DA70186CB86E4863A
:1004A000E3C503231783E183E04210420F420EA20B
:1004B0000C0206FF0000FC00001C00007800007029
:1004C000000000000000000000010000000000002B
:1004D0000006FFFF7FFFFF7F00000000000000001C
:1004E0000000C00000C0800180810180818007E0A1
:1004F0008007E08FC7E18FE7E18FF761B60C550DFC
:100500005410140172108572008D711085B105B1FF
:100510000471008D70170CB013CE0E894E892AA974
:1005200009892729016700944116A115FF867F7F5D
:10053000C6FFFFC60F0CCE0F0CC68F0DE68F1DC673
:100540009F8DC88F0DC0CF1DE08F0DC79F8DC78FAA
:100550000DC7CF1DC78F0DC79F8DC08F0DC0CF1D7D
:10056000FE8F0DFE9F8D06800D02C01D008001468E
:10057000880D06808D771703B515B50890054F0EC9
:100580008CAC4B14090186EE45F7241484ECA4E0EE
:100590004310430FC21781E5A100A017A00F80C32D
:1005A000FF00060300060300060300060B302603C7
:1005B000300603F00627F4060330061330264330D6
:1005C0000603300603B40703B027033006033006E2
:1005D00003300603342603300603300603300000E0
:1005E0003020003F2603BF2603770D1777070F77CC
:1005F0000213760D1676020F750D1535031500AE34
:1006000002AD0E8B274816C815A813880D8807A8B9
:1006100006471445154512A40EA40C83EF83EB4244
:1006200013FF1F03301E037030036336036366033A
:1006300066663E66C63C63CC18318C993198811849
:1006400018C31830C30C30660C306606003C060038
:100650003C03C01803C0991180810100C30000C38E
:1006600000006600077E07073C077700137600123C
:10067000551235115501B40BB1035014AF144F0787
:100680008B31CB078A1089328811671405040BA2BD
:1006900002A1118100A00BFFFDFF07FFFF77000003
:1006A00074FEFF75FEFF753E804506805DB6BF5D3A
:1006B000B6BF5DB63140B6F57FBEF57FBEB57106FB
:1006C000B471F6B77DF6B77D36BC7116A07116AD64
:1006D0007136AD7116AD7186BD71B60170B6FD7320
:1006E000771115770E125505940CB10C510A8F0B2A
:1006F0006E09062D13CD0E8C0E8A03A90B4605A696
:100700000385F7451485E0A200A0170015A041FF5E
:10071000FE8FFFFFBFFF003898001098FE9399FEF0
:10072000BB991893991B939943BB994F93997F93C6
:10073000991FBB99DF9301C79301F1BB1FFC931F66
:100740000E93110EBB117893116383110F83113037
:10075000831106FF01FFFF3B77151577111577070A
:1007600011770014760E16760A16150CB50054048F
:100770005302B117D104B0138EF54E038D714D05A0
:10078000AA0B4905486284F684F584F284F1A21527
:10079000200CA080FFDC1D40DCFD7F0C1C40001CF9
:1007A00040000C401F18F83F183EFB007F0B006311
:1007B000013860037C6003FE6001FE70C10070C3FD
:1007C0000078FF007F7F007F0F0070030040033C34
:1007D00040017E0001FF0081FF01FFFFFF77171737
:1007E000B61596D11603730D0D4E124C07AB04A926
:1007F00013A9018862A61646104607650005C417AE
:100800002415A40C8441834D401380418080FF0057
:1008100000000000E00000E01C0000380000F13F94
:1008200000E07F0007E0E707E0E7E0E7E7F8E7E759
:1008300018E8E700E0C720F0CFF0FFCF18FCCF03A7
:10084000C0CF0B84CFFF8FCF18980100C00120D0FC
:1008500001F7FFFFF7FFFF770B1777041776140FE9
:10086000351295E41501540CB408540591E4500A6E
:10087000B00750038E94AD088DE44CEC4C85AA0172
:10088000879487B3A017C016A015FFFFFFFFFF00D6
:10089000FF3F00FC0F00F007C0E0C7FFE0C71FC02C
:1008A0003F00C03F00870118870118BF01FFBF0349
:1008B000038001008019008019F08F03F6CFC33642
:1008C000C0C730E0073CE0010CF03900FCFF00FF3E
:1008D000FFFFFF1501520B520AB10B700E09902653
:1008E0006F110C6F0E088F298EECCD0E8CECAB16B1
:1008F000AA164A0F4A0E4A0D864D26E384E6A3093E
:10090000FF00FC1F00FEFF7067F0386600BC660049
:100910003E6E037E6F03386603B16603336603776A
:100920006703376603B16603306603380003382077
:1009300003FEFF03FEFF1F00C03F00000000008019
:10094000004080C7FFFFC7FFFF771214770C1477B2
:10095000081777071777061795AF95E61501B411B5
:10096000940EB40993EE92E64F0F4F0E8FC62F01EF
:10097000AB164B07A7164707A316A30B4307C016D2
:10098000FF00000000000043FE0718FEC718FEC766
:10099000180006F80F06F80F7E180C7E000C1E00DB
:1009A0000CC6000CF6180CF6F83FC6F83F1F180CE2
:1009B0007E184C66180C06180CC7000CF6004C305C
:1009C000000C003A0C073A0E8F7717117713117746
:1009D00009077701147601141504B417521451163F
:1009E000B017D013AF054E164D14AC132C0C8C85DC
:1009F000AB094A144916A8178673853685458320A6
:100A0000FF00000047443407003007003007003083
:100A1000070030070830FFFF3FFCFF3F80013080B8
:100A200001308319309119328019308419388019B6
:100A30003081193280193084593080193090193141
:100A4000001800C0193CC0193C5304510EAF134D9F
:100A5000028CEA8CE94B11AB0DAA168A738A2BCA59
:100A6000062A00A91386EC660B0486E3A511A545AA
:100A7000400A0001FF00000000000000000000002C
:100A80000007002007004C00000C00000C60C30CA5
:100A900060C30C60C30C60C34C01C00C01C00C39B6
:100AA000C00C39C00C38C00C00C02C00C00C00C0F9
:100AB0000C00C00000C00C00DF6C00DE6C77161468
:100AC00077151476161476151476080A150AB410DC
:100AD000B3089215B202AC118C856C0005CA2BA725
:100AE0001547084705861685152301A20AFF300021
:100AF000383F80393080390080B90780990F80599C
:100B00002F825900901900901900C01900C01900D7
:100B1000E11908E019008039030078030058FFFF4D
:100B200019FFFF190000B80000B800000000000025
:100B30000300FC0700FC76171776161776151715B5
:100B400013B4019016B0158D164A0DAA0389578962
:100B500075A908A717871645094505441644038358
:100B6000242301A111400FC001FF81FF7F80FF7F7F
:100B700098C160FEC160FEC16286C36684C162B175
:100B8000E17231E062FBFF66FB3F6210A27310224C
:100B9000631E67673E226302B273FA2363F86767D6
:100BA000F823633DB273303203007607FF0703FF7B
:100BB000FFAB7717177603167602167601167600C6
:100BC00016B515150752029101AE134D052C0AAC4E
:100BD000086B1007AB038B204A10480348018702BB
:100BE000A613A50B856344098374C20D8100FF0021
:100BF0000070F80070FCFC7F06FC0F067E00E67FAC
:100C0000E0E671F87670FE76F0077EFF031EFF01C6
:100C1000DE8101C681E1F619ECF619ECF681EDF6FC
:100C200081EDF681ED86C1EDBEC1EDBE83E10080B0
:100C3000E1FF8FEDFF8FFD77140A760013551274D4
:100C40000907D10EAF0C4E0F4C124C0B4C05AC03E8
:100C50002B164A07AA05080AA803870F86116517ED
:100C60000585138415A411A40F82298108FFE001D2
:100C700030E70130C70130DFFF379FFF37BF073054
:100C80003F0030FF503CFFFF3FFFFF2300E020000C
:100C9000E034409E290F9E210F1E230F1E270F1E9A
:100CA00026EF0728EF07200F66300FE0310FF80717
:100CB000FFFFFFFFFFFF7604059412540C931071A1
:100CC00008055006AE17AE062C018B13CB0B4B86D6
:100CD000AA14681305A70DA616864C46064405639C
:100CE000090482E94203A10E0001FF020000030093
:100CF000000000FC0000FED402FE003800013800B5
:100D0000003000241D00001C0001D82000D8000481
:100D1000D80800D80001C002F1C100FFFF08FFFFA2
:100D200000C00720000000000080000080FF27C9ED
:100D3000FF07C0760804760604B513B510B50D9507
:100D400086150293868E84C869A70B4708470585D8
:100D50004A6417054211A20E2115A000FF000300EE
:100D600001830180838100830911830300833F0293
:100D7000337C003300383EFE7800FF008003001F04
:100D800000803F00803100C06000C06800E0E000EB
:100D90007EC21B3E821B308801000800002000300C
:100DA00020C07980C477120577E00556129600B509
:100DB000059410B4099311CD0A0A0A270AA213A1B7
:100DC00017A1E74010400FA000FFC40040C0008002
:100DD000C00000C85615090600FF0780FE079138BD
:100DE000000000600000E00000C0004182010093AC
:100DF000030403030003001047000000C00400D1F7
:100E00000000000100000100000300000BA2E40349
:100E100000E01516B509B503701704B014CE0A6BBF
:100E2000000DA600830583248322A212A20E2017A0
:100E30008001FF0000700000F00000F00000F000F2
:100E4000F3FF00F3FF00F30702F30388F33180F3AD
:100E50003880738C8033868033C3FC83C1FCC3E04D
:100E60000060E00030F00018F0FE0FF8FE07F80018
:100E700000FC0000FC00E0FF01F0FF770C0A7700A7
:100E80000A150EB506531251134F148F0C4D15ADA4
:100E90000E8D0C6D0607AC0BAC0A4B168B10491768
:100EA0008912670106A615C60384EB84EA2311A004
:100EB00017FFE00300E0030000000007D8F607D8A2
:100EC000F60018F0E01FF0F8FFFFF8FFFFC0000089
:100ED000C0C000C7C021C78703C0070780000EF845
:100EE000000CF800C00000C000006007806007042C
:100EF00000070080FF01C0FF03C176040E73010EDE
:100F0000B217AE062B098A85A91667100446B246A9
:100F100010460E660A05660804660604A510854696
:100F2000A30AA3E7C216822B82660201800AFF0091
:100F30003C30001CE0000CC00F0CC00F0C000CACCF
:100F4000E10CCC010E8C010E9C050C8C010C8C016B
:100F50000C8C110C80010CFC010CFC41FCFF01FC11
:100F6000FF110080010780010780050780C107008D
:100F7000D00700C0D7A9CA771315770405B317B2F5
:100F80000CB20872000B4E094E084E074E064E0575
:100F90004E046D0E0C6D0D0C6D0C0BAC05890C87A1
:100FA0000E860D2601C417820C0201810DA017A028
:100FB00016800EFF0000000000000000000783C143
:100FC0000700000300000100000100000100000113
:100FD00000000138000338801B7CB03DFE783DFEE8
:100FE000781938303DEE783DFE781938303DEE788E
:100FF0003DFE781938303D7C787D7C7C7712147703
:10100000061496129606B513B505B20EB20AAF0EC7
:10101000AF0A6D0C0AC92C2217421042080201FFC8
:10102000807F00000000070000070000FFFF1FFF97
:10103000FF1F000000000000000000F8E1FFF8FFC3
:10104000FF001F00000E00000000C01818FFFF1F67
:10105000FFFF1F00000000000000000080C100C072
:10106000C101FF80FFFF08FF770B06761608B62B3D
:1010700015E3350191896F01064E0EAE0D4E0A4EF5
:1010800008AB17691605492C4909880D8884860E16
:10109000A60D640A0383E7A20EA20781E7C101FF40
:1010A000016700FF610001E01F30E63F3006607815
:1010B0000600FFE7FFFFE7FF03E600016600E067C9
:1010C000F8F067FE1C00FF0C0000000000FFE73F87
:1010D000FFE73F0060000060000060FE0060FE006F
:1010E00060C0FFE7FFFFFFFF770C17770B17760F46
:1010F0000D962BD515551215E2731605B3466F00E4
:10110000054E124E068B104B038A00A816A80766E0
:10111000080445122501A411420481AFA012A002C7
:10112000FF0018C00018C00E1FF09F07E1FF0780E6
:10113000FF3F04FF3F000000100000000000C0005F
:1011400000C00000FEFF87FFFF8701380600100681
:101150000000067800FE7F82F80700000000000013
:10116000000000FFCFCCFFCFCC77170A77040776BB
:10117000040695E0B304710B089107AF07AF010BAC
:1011800001A90DC40C8311A20E2102A00F804DFFF6
:10119000C0C1FFE0CDFFB0CD0087CD0007CD0080FE
:1011A000CD03FCDD03FCCD0F0CCC8F0CCC800CCC24
:1011B000C08CCFC08CCFF08CEFF18CCF018CCF03E3
:1011C0008CCF039CCF0F8CCF8F8C0F80800FC08073
:1011D0000FC0FFFFF3FFFFF37606067104085012FD
:1011E0008C0D4B15AB0D6B090A8B86A912A90488CF
:1011F000844612850C2410A40CA4078346A303C2C2
:10120000160201FF60FEE760FEE76100006000007B
:10121000600018E0CF1FE0CF8F7486816000C0604F
:1012200000C0E0FFCFE0FFCF66000060000060007C
:10123000006000006000007460F86070F860780082
:10124000007C00007E00FF7FF8FFFFF8770F067636
:1012500000055504B31671040610169002AE11AEC7
:10126000026C01088B024911892CA801C711A7083B
:1012700067040786022411440884E0A100FF0000EF
:1012800000000000000F00FFFF07FFFF3FFFFF3FD0
:10129000003E00001C000000800000C000FFFFFCBA
:1012A000FFFFFCFF010C00000C00000C00000C0014
:1012B000000C00F00C00F00C00F00000F00000F05A
:1012C0003F7FFE7FFFFF771010770F0F77060A76BC
:1012D000010AB10B3016AD06AC13AB00C90F490DB6
:1012E0004909A51782100201410AA106FF0000006A
:1012F000000000000006AFFE0F0FFE1D0F00C00033
:1013000000C00000F00000F8F855FFF000060300F0
:10131000000300000700000FFC011FFE0F18060E5F
:1013200000001C0000000000C00060C08061F0FFF1
:10133000FFFFFFFFFF1501B308B014AC08AC05A612
:101340000D630703630503C2022200A006FF100815
:101350002060606060400000000000181C0E070361
:1013600030707070706000000000001C1E0F0703DA
:1013700040404040404000000000001008040201CE
:10138000000000000000000000000000000000005D
:101390000000000000000001000203030200000042
:1013A0000000000000000001000203030200000032
:1013B0000608001C1E1E0E00000C1E1E0C00001C49
:1013C0001E1F0F06040C1810000000000000000093
:1013D0000508060E0E0C0002060E0C00060F0F0785
:1013E0000303060C000000000000000000000000E5
:1013F00000000000000000000000000000000000ED
:1014000000000000010203040404012040FFFFFE6D
:10141000F8E0C08FFF7F7F3F3F1F1F0F0F0F0F0FA1
:101420000F1F1F3F7FFFFFFFFFFFFFFFFF070703A8
:1014300003010100000000000000000000000000A7
:10144000000000000000C3FFFFFFFFFFFF000000DF
:10145000000000000000000000000000000080C04C
:10146000E0F0F8FCFEFFFFFFFFFFFFFFFF008080C2
:1014700000000000000000000000000C1E3F3F7F45
:101480007F7F7F3FBF9FCF67331B99FDFC00030722
:10149000070000101818180800000000F0FCFEFEFD
:1014A000FEFFF7F3FBFFFCFCFEFFFFFFFF0080C029
:1014B000C0E0E0F0F0F0B8B838787878F8F3E7CF2B
:1014C000DF9FBF3F7F7F63C383A3A78FFF0F1F3FB4
:1014D0007FFFFFFFFFFFFFFFFFFFEF8E1EDC9DB9C9
:1014E000B3A78FFFFEF8C0E0F0F8FCFE3E808080DE
:1014F000C0C0E1E1F3E7EFECECE1F3F7F6F0FFFF5A
:10150000FFFFFFFFFFFF7F3F1F0F030000FCF0E026
:10151000C08001071F3F7FFFFFFFFFFFFFFFFFFFAF
:10152000FFFCF0E0C08081071F7FFFFFFFFFFFFF90
:10153000FFFFFFFEFCFCF8F8F9F3F7F7FFDFDF9F92
:10154000BFBFFFFFFFFFFFFFFFFFFFFFFFFFFF7FAB
:101550007F7F7F7F7F7F7FFFFFFFFFFFFFFFFFFF1B
:10156000FFFFFFFFFFFF7F3FBFBF1F5F4FFCC000BC
:101570007CFEC7D3732386FCF9F3E78F1F7FFFFF41
:1015800003F9FDDD9DBCB83333000EE7F3FF7F3F69
:101590001E1E8E8ECEFFFFFFFFFFFFFF3E80F3F18A
:1015A000E4ECC99B33E3033F7F7E3C3C1CFDF9FB2D
:1015B0007F7F7F3FBF9FDF4F6F2733181E4FCFC7FF
:1015C0008783030918183A3A7A7A7AFBF90E0606E5
:1015D00006030301010000000000000000000001FC
:1015E000010303030206060404048484840000004B
:1015F000C0701C06033119010302020206740404C0
:101600000CF8000000C0F0FCF6E7E7E7EF00003F51
:10161000FFFFFF3F9FCF603080C60F1F3FFFFFFFE0
:10162000FFFF7FFF7FDF77DD77DD77DD77FFF8E096
:10163000830F3F7FF9CCE63399CC6600801F373D9E
:10164000371D1F0D0703010101010307076F27B7AE
:1016500093DBC006EC4903078F9C1E3B396C66F296
:10166000D8C8E0B090C040008080008080F336741D
:10167000E18F3FFCF8FAFBF9FCFFFFFFFEFEFCFCEC
:10168000FCF8797979393919190901018180FE004D
:10169000E7F3F8FFFFFFFFFFFBFBF9F9F9F9F8F8B3
:1016A000F8FCFCFCFCFCFC7E7E7E7F3F3FFDFCF6F4
:1016B000F7E7E7E7C7C7C7C74743030303030301C8
:1016C00001010101000000000000000000C0C0C1D5
:1016D000E1E1E1F1F1F0F8F8F8F870302060C08055
:1016E00000000000000000000000000000FFFFFFFD
:1016F000F7F3F3F1F9FDFFFF0F0100000000000315
:1017000006000000000000000000000000DD7FC7B0
:1017100003010000000000000000000080FFFFFF48
:10172000FF1F0080FF0080C0E0F0FCFFFF050707FF
:1017300003000000000000000080E0F87F3F0F037E
:10174000C0F0FCFFFFFFFFFF7F1F0F0701C040003D
:1017500040607070381804060383C1E0F0F87E7FA3
:101760003F9F8FCFC7E3E1707038F8FCFC80C0C0AA
:10177000E0E0F0F0F818CC66331B190D0C060607F4
:1017800007030301010000000000031FFF3F1F1FAC
:101790001F0F0F0703000FF80000000000000000FB
:1017A0000000000000000000000000000000000039
:1017B00000000000000000010F0800000000000011
:1017C0000000000000000000000000000000000019
:1017D0000000000000000000000000000000000009
:1017E00000000000000000000000000000000000F9
:1017F00000000000000000000000000000000000E9
:10180000000000000000000000000000003C380064
:101810000000000080F8FE0FE3FB1B0B0B8BFBF3BB
:10182000F7F6F6F60606ECECECECECECECECECEC9B
:10183000ECECECECEEE6F6F6F6F7F3FBFBCBCBFBD1
:10184000E30FFEF8801E332121339E00000080F854
:10185000FF0FE0F8F9F9F9F9F9F9F9F1F3F3F3F316
:10186000F0F0FFFFFFFFFFFFFFFFFFFFFFFFFFFFA6
:10187000FFFFFFFFFFFFFFFFFFFFFF7F7FFEE00F88
:10188000FFF880060600000000000F3FF0C60704C6
:1018900004070707070707070707070707FFFFFFF3
:1018A000FFFFFFFFFFFFFFFFFFFFFFFFFF07070730
:1018B0000707078787070726860707C6F03F1F0029
:1018C000808000000000000000030784C4E4E4E41A
:1018D000E4E4E4E4E4C49C000FE7E7E7E7E7E7E7D4
:1018E000E7E7E7C7870F1F0FC7E7E0ECE4E4E4E5AD
:1018F000E5E4C4040404070300C040C3031100006E
:1019000000000000000000FFFFFFFFFF393939FF32
:10191000FFFF0FE0E0EFEF0FFFFF183879FFFFF751
:1019200003E0E0EFEF0FFFF9F0F0FCFDFDFD0DEC43
:10193000E0E0E00000012101000000000080C06044
:101940002060C080000000000C0C007EFE803C3E49
:101950001C1C1C1C1C0C0C0E0C0C0C0C0E1E1C1C41
:101960001C1C3C3E80FE7E00000000C0E0E0C00089
:10197000000000030300000E1B3166C680D06031FA
:101980001B0E00003828380001471E382020202078
:10199000301010D0D0101090103020202020381E91
:1019A0000701000006060000010100000000000021
:1019B0000000001B2801FCFE02FA2222FA02FAAA09
:1019C000AA8A02FA82BEBE02FA2AAABA82FEFC01E2
:1019D00000FFFF06F656567606F6067E7E06F6965B
:1019E00096F6067646C77707FFFF0000FFFF0C2D2F
:1019F000EC2F0FEC4D8D0DED0CEDACAC2D0CEF2C58
:101A00002DEC0FFFFF0000FFFF18DA5B5A181BD800
:101A10005859DB18DB981EDE18DB5A5A5B18FFFF9B
:101A200000C0CF9F90171415151017145457505716
:101A3000D0D1D7D0D7D15D5C5F1F0F004020FFFF12
:101A4000FF0707E7E7676767676767E7E70707FF76
:101A5000FF9F9FFFFF8787FFFF6767E7E7FFFF9F06
:101A60009F67679F9FE7E76767E7E7FFFF0707E76E
:101A7000E7676767676767E7E70707FFFFFFFFFF3E
:101A8000FF00007F7F6060606060607F7F0000FF1C
:101A9000FF1919818179799F9F1818F9F901019F20
:101AA0009F7E7E81816161E6E60101FFFF00007F8C
:101AB0007F6060606060607F7F0000FFFFFFFFFF6E
:101AC000FF060666666666E6E606067E7E6666E7EC
:101AD000E70606E1E11818E1E19E9E8787666679D0
:101AE00079181887879E9E8181989887879E9E8601
:101AF000861E1EE6E6FEFEE6E69E9EFFFFFFFFFF59
:101B0000FF8686FEFE98989F9F1E1E00006666193F
:101B10001986860707E6E67F7F61618787606060D8
:101B2000601E1E87877F7F818179791F1F9F9F811C
:101B3000819898E7E70707F9F99F9FFFFFFFFFFFED
:101B4000FF1919E1E1F9F961618080E6E6666698BE
:101B50009861610606E7E7E0E09E9E1F1F7E7E60BB
:101B600060808067671E1E999998989E9E1F1F79B6
:101B7000799F9F1F1F0606F9F99F9FFFFFFFFFFF39
:101B8000FF60607F7F7F7F7E7E616161616666E767
:101B9000E71E1E1E1E19197F7F6161F8F8E6E67EBA
:101BA0007E19198686989819190707E7E76666E08F
:101BB000E001011E1E060681818787FFFFFFFFFFF0
:101BC000FF0000FEFE060606060606FEFE0000FFFB
:101BD000FF0606FEFE1E1EE0E09E9E1F1F191960F6
:101BE000601E1E878781819898E0E0070766660778
:101BF0000760600000666601018787FFFFFFFFFF47
:101C0000FFE0E0E7E7E6E6E6E6E6E6E7E7E0E0FF56
:101C1000FFE0E0FFFFE6E6FFFFE1E1F8F8E6E6F8C7
:101C2000F8F8F8E7E7FFFFE7E7F9F9FEFEF8F8E074
:101C3000E0E6E6E0E0E6E6F8F8FFFFFFFFFF0F1062
:101C4000FDFD3131FDFD01C9DDDDEDED4D01FE0490
:101C50000406060404060404040404040603021033
:101C6000FE0103060910FE01C9DDDDEDED4D0103A6
:101C700006040404040406063010864D49CBC30054
:101C800000CF494D4D00CF4545CF00C7C84847005C
:101C90004FCB4B09C04F42C40F40CF49094F808AF8
:101CA0004F08C0CACF4800CD0D0B61D392B23000AF
:101CB00000438282F200F39191F30092B2B3F300F9
:101CC000F05350B00391F1910002030200030000B1
:101CD0000300030202020003020207100010389002
:101CE0000004060000010301000010107C10100029
:101CF0001C000000000000000010381000040E005E
:101D00000000010000000000008004040700000142
:101D100003010000000090C0840E070001030703C8
:101D200001002A18FE03F9FD0DFDF90DFDF9C3D9D7
:101D3000DDDDD1F1FD7D01C9DDDDEDEDED410D0D07
:101D4000FDFD0D01EDED0179FDCDCD4903FEFF0057
:101D50007E7E7A6E6C38007C7E1A1A7E7C007E7ED7
:101D600060600E7E606C6E0E7E663C427E7E663CDF
:101D7000007E7E067E7C01FF010302020202020257
:101D80000302020202020203020202020302020230
:101D90000203020203020202020203020202020220
:101DA0000301232001FCFE02BAAAAAEA02FA2AAA27
:101DB0008A028ADA72DA8A22FEFEFEFEFEFC0180C8
:101DC000C00F1B1E1B0E0FFCF9FBFAFA7A3A9A029F
:101DD000FEFEFFFFFE06F61616F606F75757170724
:101DE000F7545514C4FDFDFCF800017CFEEECEDE78
:101DF000DC9900FFFFFFFFFFFCFD0DED2D2CED0C2E
:101E0000EF4F9C0DEC0FFFFFFFFFFFFF00F2F6E42A
:101E1000CD1971011F30270F8F8FCF6F0FE8EBEABD
:101E2000EAEBE8EBE8ECE9EBE8EFEFEFEFEFE7F0F8
:101E3000211000F8F0FCF8FCE8FCC8FCF0FC00FB0A
:101E4000020302030203020302030203020302036A
:101E5000020302030203020302030203020302035A
:101E6000020302030203020302030203020302034A
:101E7000FCFF00FE000100030107037F01070007CC
:101E8000020F020E020E020E020E020E020E020ED1
:101E9000020E020E020E020E020E020E020E020EC2
:101EA000020E020E020E020E020E020E020E020EB2
:101EB000030F010F00071B1801FCFE02FA82BEBED1
:101EC00002FA8A8AFA02FA4A4AFA02FA8A8AF20676
:101ED000FEFC0100FFFF06F6264E86F606F6565675
:101EE0001606F686CE86F606FEFEFEFFFF00F063BF
:101EF00007348584969485C445653585F4F5F5F4F5
:101F0000F5F5F6F7F7F7F7F3F007081E3F31313F25
:101F10001E8000323F3F3080C0103B3B373732805D
:101F20003135353F3F1E80CE8F0C3C3F3F803237EE
:101F3000373B3B90C01E3F37353D19808203333B12
:101F40003F8F801E3F35353F1E80123735353F1E8F
:101F5000801118FEFF01FDFDC1C3C11D7DE1E17DC2
:101F60003D81FFFEFF800000000000000000000037
:101F700000000000FF01030202020202020202024C
:101F80000202020203010710010101010101010423
:101F90000404040404040210FE03030603FE060303
:101FA0003410FE01FDFD35353DD9E53D75FDD921E6
:101FB000FDF5D5DD5981DDDDEDED419DDDEDED4139
:101FC0000301FDFD3179EDC539FDF5D5DD5985DD1F
:101FD000D1D1FD7D01FE03060404040606040404B9
:101FE00006040406040404040604040404040604A9
:101FF000040404040604040406040404060404049B
:10200000040604040404040406030C10FE07F30988
:10201000E5D5F5E509F307FE7FF0E3C4C8C9C9C8F3
:10202000C4E3F07FFE0FF7FBFDFDFDF58BF70FFE20
:102030007FFEFCF9F38787E3F1F8FC7F2418FE03A9
:10204000F9FD0DFDF90379FDFDD5D5DDD9C3C1ED50
:102050007D397DEDC10D0DFDFD0DEDE1FBF3E74E8D
:1020600018F0FF007E7E606C0E7E6A6A6E2C001E89
:102070003E70703E1E003C7E6A6A6E2C007E7E6062
:102080006B690CFE0301010302020202020202025A
:10209000020203020202020203020202020202031D
:1020A0000202020202020301000083918B9883ACBA
:1020B000C8BCD5FF1010FF00FEFAFE0E060606068D
:1020C0000EFEFAFE00FFFF00FFBFFFCFC6C0C0C676
:1020D000CFFFBFFF00FFFF00FE020202020202026A
:1020E0000262626200FFFF00DFC0C0D8D8D8DBDB2D
:1020F000DBDBDBDB00FF1010037D3E1E3E7E3E1E61
:102100003E7E3E1E3E7E3D03803A6E3B6E3A6E3B07
:102110006E3A6E3B6E3A2E80037D3E1E3E7E3E1E24
:102120003E7E3E1E3E7E3E1E803A6E3B6E7A6E3B8B
:102130001E0E466370386C3E008FC6E3F1B8ECBEED
:10214000EFBBEEBBEEFB6E00803B6E3B6E3B6E3B2F
:102150001E0F466371382C80008FC6E3F1B8ECBEC9
:10216000EFBBEEBBEEFB6E3B803B6E3B6E3B6E3BD4
:102170001E0F466371386C3E3E7E3E1E3E7E3E1E06
:102180003E7E3E1E3E7E3D036E3A6E3B6E7A6E3B59
:102190001E0E466370382C803E7E3E1E3E7E3E1EE6
:1021A0003E7E3E1E3E7E3E1E6E3A6E3B6E7A6E3B1D
:1021B0001E0E466370386C3E1E8FC6E3F1B8ECBE4F
:1021C000EFBBEEBBEEFB6E006F3B6E3B6E3B6E3BC0
:1021D0001E0F466371382C801E8FC6E3F1B8ECBE2B
:1021E000EFBBEEBBEEFB6E3B6F3B6E3B6E3B6E3B65
:1021F0001E0F466371386C3E037D3E1E3E7E3E1EC2
:102200003E7E3E1E3E7E3D0300BAEEBBEEFA6E3BC6
:102210001E8EC6E3F0B8EC00037D3E1E3E7E3E1EE1
:102220003E7E3E1E3E7E3E1E00BAEEBBEEFA6E3B8A
:102230001E8EC6E3F0B8ECBE008FC6E3F1B8ECBE6C
:10224000EFBBEEBBEEFB6E0000BBEEBBEEFB6E3BEE
:102250001E8FC6E3F1B8EC00008FC6E3F1B8ECBE08
:10226000EFBBEEBBEEFB6E3B00BBEEBBEEFB6E3B93
:102270001E8FC6E3F1B8ECBE3E7E3E1E3E7E3E1E85
:102280003E7E3E1E3E7E3D03EEBAEEBBEEFA6E3B58
:102290001E8EC6E3F0B8EC003E7E3E1E3E7E3E1E25
:1022A0003E7E3E1E3E7E3E1EEEBAEEBBEEFA6E3B1C
:1022B0001E8EC6E3F0B8ECBE1E8FC6E3F1B8ECBAD2
:1022C000EFBBEEBBEEFB6E00EFBBEEBBEEFB6E3B7F
:1022D0001E8FC6E3F1B8EC001E8FC6E3F1B8ECBE6A
:1022E000EFBBEEBBEEFB6E3BEFBBEEBBEEFB6E3B24
:1022F0001E8FC6E3F1B8ECBEFFFFFFFFFFDFBF7F1D
:10230000BFDFFFFFFFFFFFFFFFFFFFFFFFFDFEFF40
:10231000FEFDFFFFFFFFFFFF08088FE1CED29ED238
:102320001E21211ED29ED2CEE18F84784B794B7331
:1023300087F1F187734B794B7884101003397D64F2
:10234000E2E2E2E28E8E8E8E4C7D3903C09F3F7EAC
:10235000006C6C6C6C006C6C000099C003397D7C67
:10236000F6929282929292DE7C7D3903C09F3F7EEC
:10237000006C6C6C6C006C6C000099C003397D4C77
:102380008E8E8E8EE2E2E2E2647D3903C09F3F7E54
:10239000006C6C6C6C006C6C000099C003E9EC0E76
:1023A000EEEE0E06F0FCFE06060CF107C08D0D40A9
:1023B0004D0D00400F3060607F3F8FE003E9EC0E71
:1023C000EEEE0E06F01C1E7E0E1CF107C08D0D40B9
:1023D0004D0D00400F38707F78388FE003E9EC0E28
:1023E000EEEE0E06F00C0606FEFCF107C08D0D4069
:1023F0004D0D00400F3F7F6060308FE007F1FCFE25
:1024000006060CF00200B0B202B0B103E08F3060FB
:10241000607F3F0F60707777703797C007F11C1EA1
:10242000FE0E1CF00200B0B202B0B103E08F3870B3
:102430007E78380F60707777703797C007F10C0699
:1024400006FEFCF00200B0B202B0B103E08F3F7FA5
:102450006060300F60707777703797C0080800961B
:10246000CDCDEBEBEBF73F4F713E410F3F7FF7EBED
:10247000EBEBCDCD9600FCF28E7C82F0FCFE0A10D8
:1024800003F90472EAFA7204F903FCF9F2F4F4F4C1
:10249000F4F2F9FCFF0371F872060CF903FFFFFC7C
:1024A000F8F0F4F6F3F9FCFFFFFFFF00060600FF6B
:1024B000FFFFFFFFFFF0F4F4F0FFFFFFFF03F90C55
:1024C0000672F87103FFFFFCF9F3F6F4F0F8FCFF75
:1024D000FF813C66C2C2663C81FFFFFFFF007F7F39
:1024E000286B03FF010803101040C03EFE81FF9CD3
:1024F000FFBEFF3EFF76FFF6FF7CFFF9FF72FE7422
:10250000FC74FC08F8F0F0808080FF3FFF67FF6BF1
:10251000FF73FF7FFF78FF73FF76FF76FF70FF3357
:10252000FF81FF4C7F5E7F407F0000FEFE01FF3C8D
:10253000FF7EFF7EFFF6FFF6FF7CFFF9FF72FE7461
:10254000FC74FC08F870F040C07F7F80FF3EFF679E
:10255000FF67FF7EFF78FF73FF76FF76FF30FF8017
:10256000FF4C7F9EFFBFFF80FF8080F0F008F87473
:10257000FC74FC72FEF9FF7CFFF6FF76FF3EFFBEA7
:10258000FF9CFF81FF3EFE40C0407F5E7F4C7F810D
:10259000FF33FF70FF76FF76FF73FF78FF7FFF73D7
:1025A000FF6BFF67FF3FFF80FF40C070F008F874CB
:1025B000FC75FD73FFF9FF7CFFF6FFF6FF7EFF7EE3
:1025C000FF3CFF01FFFEFE000080FFBFFF9EFF4CAF
:1025D0007F80FF30FF76FF76FF73FF78FF7EFF6717
:1025E000FF67FF3EFF80FF7F7F0C103EE38101010C
:1025F0001903868C8888700000FD93988EA0F31EC6
:102600000000007CC602020232060C181010E0FE28
:10261000939F80D054F6B2B39FF1003EE381010155
:102620001903868C8888700000FD93988EA0F31E95
:102630000000007CC602020232060C181010E06E88
:1026400093B37A68CC90B39F7507007CC682020A68
:102650001A020684C44C78FCB29399CCE080CF79FE
:102660000000003EE3810121311B8AEEBC88780026
:10267000001F202161474D643C00007088888C86D3
:102680000319010181E33E0000001EF3A08E989320
:10269000FD0000E01010180C0632020202C67C0099
:1026A000F19FB3B2F654D0809F93FE7088888C86D9
:1026B0000319010181E33E0000001EF3A08E9893F0
:1026C000FD0000E01010180C0632020202C67C0069
:1026D00007759FB390CC687AB3936E784CC4840628
:1026E000021A0A0282C67C00000079CF80E0CC99F1
:1026F00093B2FC7888BCEE8A1B31210181E33E0055
:10270000003C644D476121201F00003CFFFFFFFF9C
:10271000FFFEFCFCFCF8F06CFEFFFFFFFFFFFFFF7D
:102720007F0500F0F8FCFCFCFEFFFFFFFFFF3C0014
:10273000057FFFFFFFFFFFFFFFFE6C0A1000F8F8A8
:10274000FCFCFEFEFFFEFFFEFFFAFFC4FEF8FC00ED
:10275000F80000000101030307077F070F030701CB
:1027600003000100000508819D8181819B81818199
:102770009F85859191919D95818181E1E7818181FD
:1027800091918585858191858585F9F98181818101
:10279000958181819195818181E34181C5E3EBBF81
:1027A000FDBFEBC38D8581C3F1918585F10808FFDD
:1027B000FFFFFFFFFFFFFF2218FE0379FDFD85B538
:1027C000F57103F9FD3535FDF903F9FD0DFDF90D41
:1027D000FDF90379FDD5D5DD5903FEFF017E7E1A93
:1027E0001A1E0C707E1A1A7E7C027E60607E3E404D
:1027F0006E6E7676200C7E6A6A6E2C01FF010302F3
:1028000002020303030202020202020302020202A4
:102810000302020202020203020202020203012276
:1028200018FE0379FDFD85B5F57103F9FD3535FD1C
:10283000F903F9FD0DFDF90DFDF90379FDD5D5DDA0
:102840005903FEFF013C7E7E7E7E663C001E3E708C
:1028500060703E1E003C7E7E6A6A6E2C007E7E1A90
:102860003E7E6C01FF010302020202020202030229
:102870000202020202030202020202020302020236
:10288000020302020203018D14A1C881CFD9F10213
:10289000AF5810F0F89C8E8783878E9CF8F000006C
:1028A000FEFF0303030303070EFCF80000FEFF0313
:1028B00003030303070EFCF80000FFFF0000000005
:1028C000000000FFFF0000FEFF8383838383C7EEC9
:1028D0007C380000F8FC0E07030303070EFCF80029
:1028E000003F7FE0C08080C0E07F3FFFFF0101012B
:1028F00001010101FFFF0000FFFF0C0C0C0C1C3E4E
:1029000077E3C100007FFFC0C0C0C0C0E0703F1FC0
:1029100000001F3F70E0C0C0C0E0703F1F00007F9C
:10292000FFC1C1C1C1C1E3773E1C00001F3F70E081
:10293000C0C0C0E0703F1F000000000001FFFF01A9
:10294000000000D71B881BB11A311BE0289B2D17F4
:102950002A591D111ABE29261C231A080B0002022F
:10296000020000090400000102020000052400101A
:1029700001052401010104240206052406000107C3
:1029800005810310004009040100020A000000074D
:10299000050202400000070583024000000403090D
:1029A0000412010002EF02014041233680000101C0
:1029B00002030141726475696E6F204C4C43004103
:1029C00042413131303600006A3111241FBECFEF51
:1029D000DAE0DEBFCDBF11E0A0E0B1E0EAE9FBE65E
:1029E00002C005900D92AE37B107D9F727E0AEE7E8
:1029F000B1E001C01D92AB39B207E1F714E1C5EEB9
:102A0000D4E104C02197FE010E94C535C43ED10720
:102A1000C9F70E947E320C94CB350C940000809153
:102A2000CD01089590919607982329F490919507E8
:102A3000982381E009F480E008956F927F928F924D
:102A40009F92AF92BF92CF92DF92EF92FF920F933D
:102A50001F93CF93DF93DC017A014115510509F4EF
:102A60009CC0FA01149131965491F2E0EF0EF11CE2
:102A7000C12FD0E0222309F1CC24C394D12C852F7F
:102A8000877011F4D12CC12CE52FE695E695E695DB
:102A9000EC0DFD2DF11DEC9FC001ED9F900DFC9FF5
:102AA000900D1124033011F4880F991F289FF00115
:102AB000299FF00D1124EE0EFF1EFD01EC0FFD1FEE
:102AC0001E161F060CF069C0A038B1050CF065C0D9
:102AD000CB01850F911D181619060CF05EC06034ED
:102AE00071050CF05AC0E114F10409F456C0362FF8
:102AF0003770CB0177FD079623E0959587952A954A
:102B0000E1F7282F77FF04C0332311F02FEF280FB0
:102B1000662777276A1B7B0BB7FD02C070E060E079
:102B200090E89A1BE038F1050CF4912F961BE22FE8
:102B3000022E000CFF0BDE2ED0942F3F0CF0D12C78
:102B400041E0852F877009F440E0B52EB694B69425
:102B5000B6944B0DE40FF11D399714F048E0421B79
:102B6000B42EBD182D0D40E82403F0011124AE0F42
:102B7000BF1FA60FB71F1D9D600D711D1124A7015A
:102B8000460F571FC32E032E000CDD08033009F437
:102B9000C7C090F4023009F474C0DF91CF911F9147
:102BA0000F91FF90EF90DF90CF90BF90AF909F90EC
:102BB0008F907F906F9008950A3FA1F1B20E0B3F66
:102BC00061F72B1551F3BD0162507E4F10E000E01C
:102BD000091708F09FC0FA01E00FF11FE491F0E03F
:102BE0004F010C2C02C0880C991C0A94E2F727FDB7
:102BF00006C0FB018081F82CF0948F218083332361
:102C000061F0273054F47B01F0E8EF0EF11CA92CA1
:102C1000A094F70180818A2180830F5F1F4F6F5F2F
:102C20007F4FD6CFB20E2B1509F4B7CFBD0162503E
:102C30007E4F10E000E0091708F066C0FA01E00FCF
:102C4000F11FE491F0E04F010C2C02C0880C991C9C
:102C50000A94E2F727FD04C0FB0180818829808364
:102C6000332351F0273044F47B01F0E8EF0EF11CE0
:102C7000F7018081892980830F5F1F4F6F5F7F4F2E
:102C8000DACF6FEF70E0032E02C0660F771F0A9451
:102C9000E2F760957095972E8B2C820E281509F41B
:102CA0007CCF8D0102501E4FF12CE12CE91630F53E
:102CB000FA01EE0DFF1DE491F0E03F010C2C02C083
:102CC000660C771C0A94E2F727FD05C0F8018081A5
:102CD000862386298083332359F027304CF458010A
:102CE000F0E8AF0EB11CF50180818921872980832E
:102CF000FFEFEF1AFF0A0F5F1F4FD8CF2F5F4C0F68
:102D00005D1FA058BF4FCACF2F5F4C0F5D1FA0584B
:102D1000BF4F89CF2F5F4C0F5D1FA058BF4F51CFC2
:102D2000E92EF12CFA01E60FF71FA250BE4F60E822
:102D300070E06E197F09CE19DF098E01000F111F97
:102D400041E050E07A01032E01C0EE0C0A94EAF74C
:102D5000592F4B2D892E932ECF93DF93ED01EF96B4
:102D6000EF962296A590C590992059F0AE9C5001FF
:102D7000CE9C600127302CF4F880D094FD20FB28F5
:102D8000F99222233AF0FC90C094FC20FA28FD929C
:102D90000C94CB1611965A9529F74A9551F0582D57
:102DA00023951124E00FF11DA60FB11DC60FD11DF3
:102DB000D9CFDF91CF911124F0CEEEEFF1E030EBDF
:102DC00020E146E05C983EBD4A95F1F72EBD20E833
:102DD000239507C0449140815C9A4EBD8111412DDD
:102DE000419344912A95B1F73395383B49F70DB497
:102DF0000895FC018091FD01882311F13FB7F894FB
:102E000082E08093E9002091F200822F90E0181672
:102E1000190614F481E090E0882339F0289844E6FC
:102E20004093FC014091F1004083222339F020912E
:102E3000F200211103C02BE62093E8003FBF089564
:102E40008FEF9FEF08952FB7F89483E08093E90008
:102E50009091E800892F807295FF04C09091F20054
:102E600080E4891B2FBF08958091F40181110DC06A
:102E700082E08093F00184E08093F1011092F301ED
:102E80001092F20181E08093F40180EF91E00895C7
:102E9000CF93DF931F92CDB7DEB76983DC01ED914D
:102EA000FC910280F381E02D41E050E0BE016F5FB4
:102EB0007F4F09950F90DF91CF91089583E0809324
:102EC000E9008091F200882319F08AE38093E800FA
:102ED00008950E94231790E00895CF93DF931F92E7
:102EE000CDB7DEB7FC018485958597FD08C02FEF2F
:102EF0003FEF358724870F90DF91CF910895CE0162
:102F000001960E94F916019719F4898190E0F3CF98
:102F10008FEF9FEFF0CF0F931F93CF93DF931F920D
:102F2000CDB7DEB78C01FC018485958597FF0BC07A
:102F3000CE0101960E94F916019771F4898190E003
:102F4000F80195878487F801848595850F90DF9136
:102F5000CF911F910F9108958FEF9FEFF1CFFC015B
:102F60008485958597FD0BC09FB7F89482E0809388
:102F7000E9008091F2009FBF90E0019608959FB70D
:102F8000F89482E08093E9008091F2009FBF90E086
:102F900008954091EA015091EB012091E8013091B0
:102FA000E90142175307B4F49091E8009570E1F3FA
:102FB0009091E80092FD19C08093F1008091EA01A0
:102FC0009091EB0101968F739927892B19F48EEF5D
:102FD0008093E8008091EA019091EB010196909333
:102FE000EB018093EA0181E0089580E00895DF928B
:102FF000EF92FF920F931F93CF93DF93D82E8A0106
:10300000EB017B01E40EF51ECE15DF0559F0D7FE6E
:1030100012C0FE0184910E94C91721968111F4CF3C
:103020000FEF1FEFC801DF91CF911F910F91FF901C
:10303000EF90DF9008958881EECF0F931F93CF9389
:10304000DF931F92CDB7DEB782E0898342E450E080
:103050006BE579E280E80E94F7170E943417DC01E3
:1030600012960D911C910115110589F0D801ED9171
:10307000FC910280F381E02DBE016F5F7F4FC8019C
:10308000099597FD04C0F80100851185ECCF898171
:103090000F90DF91CF911F910F910895615030F003
:1030A0002091F100FC0120830196F8CF289884E656
:1030B0008093FC0108950895FC010E94F318319754
:1030C00028F068517C4F8F4F9F4FF9CFAB01FC0127
:1030D0000E94F318641775078E079F07C8F30895B9
:1030E0008F929F92AF92BF92CF92DF92EF92FF9218
:1030F0000F931F93CF93DF936C017B018A01809123
:103100000C01882309F45AC08091FD01882309F439
:1031100055C08091EF0180FF05C08091E000826082
:103120008093E000E801B12C8AEFA82E93E0892E6D
:103130002AE3922E209711F4BB20C9F10E94231795
:10314000811108C0AA94AA20C9F181E090E00E94F0
:103150005C18F0CF8C171D0611F00CF08C2F9FB768
:10316000F8948092E9002091E80025FD02C09FBFFD
:10317000E1CF282F30E0C21BD30BF701815020F0A4
:1031800041914093F100FACFE20EF31EBB2021F0F3
:103190009092E800B12CEBCF8091E80085FDE7CF5D
:1031A0009092E800BB24B394209709F3F3CF5D9885
:1031B00084E68093EE01101611063CF081E090E069
:1031C000F6019383828310E000E0C801DF91CF9184
:1031D0001F910F91FF90EF90DF90CF90BF90AF9035
:1031E0009F908F900895AEEDB1E02FB7F8947D9148
:1031F0008D919C9166B52FBFA89B05C06F3F18F4B9
:103200007F5F8F4F9F4F22E0660F771F881F991FA8
:103210002A95D1F708952091D501E091D301F0913D
:10322000D401CF0102969093D4018093D30122233D
:1032300019F0859194910895808191810895CF929C
:10324000DF92EF92FF92CF93DF930E940B198115CB
:1032500020E8920791F4809171008D7F8093710036
:103260001092910046985F981092D201DF91CF9111
:10327000FF90EF90DF90CF90089521E02093D2014E
:10328000813020E8920751F48091D0019091D101D2
:103290009093D4018093D3010E940B1997FD05C030
:1032A0002091CF01222309F454C02091CE01211195
:1032B00050C021E02093D601EC01DF77209709F080
:1032C0004BC081E08093D70146983FE9C32E3FE091
:1032D000D32EE12CF12CCAEFD0E0E0915C06F09106
:1032E0005D060995811103C081E08093D70180912B
:1032F000D601882329F08091D701882309F43FC0A3
:103300005F980E940B190097F1F19C01DE010E9469
:103310008235DC01CB0129E0B595A7959795879576
:103320002A95D1F7109290002AE020939100D09234
:103330009900C09298008093D8019093D901A093EE
:10334000DA01B093DB01809171008260809371009B
:103350008DCF1092D601B0CF9E0150E040E060E4E6
:1033600072E48FE090E00E942E3569017A0181E0DD
:10337000C81AD108E108F1081092D701AECF4699DA
:10338000BFCF5F9ABECF8FEF9FEFDC01CBCF9C0109
:10339000E1E7F0E090819D7F90831092D501EEE40B
:1033A000F6E0F093D401E093D301F093D101E093E0
:1033B000D001318320837383628380E090E895831A
:1033C00084830C941F190F9303E00E941D150F9125
:1033D00008950F930AEF0E941D150F9108950F9302
:1033E0000BEF0E941D150F9108950F9302E00E94AC
:1033F0001D150F91089590E00C945C188FB1809585
:10340000807F669B88601C9B846008951092CD012C
:103410003E98579808953E9A579A81E08093CD013F
:10342000089520E047EB57E261E170E08FE290E021
:103430000E94E9198CE00E941215882319F087E098
:103440008093E70108951092CC011092C20110926E
:10345000C7011092C6011092C8011092C9011092C2
:10346000CA011092CB011092860183E080937A0703
:1034700086E08093E7011092C501109287010895BC
:1034800080917A07882381F010927407815080938D
:103490007A0764E670E084EA91E00E94C71981E04F
:1034A00080936F07109277070895883140F568314F
:1034B00040F5A091CC01B0E0AA0FBB1FAF5EBE4F9C
:1034C000E82F082E000CFF0B23E0F595E7952A95D1
:1034D000E1F79F0193E06902200D311D1124ED9168
:1034E000FC91E20FF31FE491F0E087709F0102C0AE
:1034F000359527958A95E2F7C9018170089581E095
:10350000089580E00895EF92FF92CF93C5E05CE1CB
:103510005C9FF0011124E25AF94FDF015A96328D77
:1035200031111CC07C0184E0EE0CFF1C8A95E1F790
:1035300094E0660F771F9A95E1F771836083F382B9
:10354000E28280E1489FA0011124518F408F81E0E9
:103550008C93238FCF91FF90EF900895C150C0F6C8
:10356000F9CF20E04CE35AE170E060E080E290E0C7
:103570000E94E91921E04CE35AE160E270E080E248
:1035800090E00E94E9198CE00E941215882349F00E
:1035900081E08093E70164E170E089EA91E00C94B6
:1035A000C71908950F931F93CF93DF9380919307CB
:1035B0009091940787709927892B31F48091840129
:1035C0008F5F8F718093840110E000E0C0E02C2FAA
:1035D0004BE054E170E060E0C8010E94E919CF5F60
:1035E000005E1F4FC43099F720E042E25DE16DE2DA
:1035F00070E085E590E00E94E9192091E6014AED2E
:103600005CE16BE270E08FE490E00E94E919C09108
:103610008401D0E08E0105511C4EF801249140ED4B
:1036200053E169E070E089E090E00E94E919F80157
:10363000249140EB53E16DE070E08FE090E00E9458
:10364000E919FE01E057FC4E24914EE453E162E299
:1036500070E08DE690E0DF91CF911F910F910C9477
:10366000E919CF930E94D21A20E046EB5EE162E1B5
:1036700070E085E390E00E94F51980E10E94121548
:10368000882349F081E08093850164E170E08CE259
:1036900091E00E94C71980E80E941215882341F02A
:1036A0001092850164E170E08CE291E00E94C719FC
:1036B000C091850189E0C89FB00111246E5E7F4FE3
:1036C00020E040E35EE180E390E00E94E31984E0C3
:1036D0000E941215882359F0C65FC093E70110922B
:1036E000850164E170E089EA91E00E94C71988E0F1
:1036F0000E941215882351F081E08093E70164E174
:1037000070E089EA91E0CF910C94C719CF910895A8
:103710000E94D21A20E043EB59E169E070E083E3B4
:1037200090E00E94F51980E10E941215882369F04B
:1037300080910001853048F48F5F8093000164E13F
:1037400070E08CE291E00E94C71980E80E94121597
:10375000882369F080910001833048F08150809384
:10376000000164E170E08CE291E00E94C7198CE0F6
:103770000E941215882351F0809100018093E70187
:1037800064E170E089EA91E00E94C719809100012C
:103790008150990B29E0289FB001299F700D1124B9
:1037A00020E040E35EE18EE290E00C94E319CF93D9
:1037B000C0918601CF5FC0938601C03A50F420E0EB
:1037C0004DE058E164E070E082E290E0CF910C942B
:1037D000E9190E94D21ACB3F28F48CE00E941215FE
:1037E000882351F081E08093E70164E170E089EA89
:1037F00091E0CF910C94C719CF9108950C9418358E
:10380000CF92DF92EF92FF920F931F93CF93DF93AC
:10381000EB017B0124E0E20EF11C8B016C01C61A66
:10382000D70AC601800F911F0E941835F8018193B5
:103830008F01EE15FF05A9F7CE01DF91CF911F9102
:103840000F91FF90EF90DF90CF90089584E490E087
:103850000E94FE1B8093CC0185E490E00E94FE1B39
:103860008093C7011092C2011092C60168EC71E00A
:1038700087E490E00E94001C1092860183E0809310
:103880007A0786E08093E7011092C50110928701C4
:1038900008958091930780FD0FC00E945A3424E15F
:1038A00030E040E050E00E942E35CB01805C9E4F1E
:1038B0006EE170E00C94C71908954F925F926F9279
:1038C0007F928F929F92AF92BF92CF92DF92EF92B0
:1038D000FF920F931F93CF93DF93CDB7DEB72A9755
:1038E0000FB6F894DEBF0FBECDBF842E522EE62E4B
:1038F000F12C082F10E0380182E0681A7108FE01EF
:1039000031966F01F2E02F1709F47BC06091C80176
:103910007091C9018091CA019091CB012AE0A60162
:103920000E94BD34F60101900020E9F73197EC19AF
:10393000FD099E2E86E0582E5E1A570182E0A81AD5
:10394000B10820E046E95FE1B501C3010E94E91931
:1039500045E0742E57E0652E20E046E85FE1B501B2
:10396000C801769C800D911D11240E94E9197A945A
:103970009FEF7912F1CF21E046E95FE1B501C8017F
:1039800089960E94E919712CA52C052C000CBB0806
:1039900027E0622E36E0432E7A141B040CF44AC052
:1039A000E52DF6E0EF02000D111D1124A00EB11E51
:1039B000512C692C990C770887E0982E96E0492EB7
:1039C000852D90E0861597050CF05CC08C0D9D1D33
:1039D000FC01208121330CF448C020532A3008F028
:1039E00044C0F2E08F1609F442C045E657E2B70141
:1039F000C801549C800D911D11240E94F519539407
:103A0000DFCF8091CC0190E04AE0B60101960E94A0
:103A1000B234F60101900020E9F73197EC19FD0965
:103A20009E2E5E1A20E041E55FE1B7016950710901
:103A3000C301A7CF82E020E0881661F045E657E297
:103A4000B701C801749C800D911D11240E94F519C5
:103A50007394A2CF49E05FE1B701C801769C800D65
:103A6000911D11240E94E919F3CF20E0BACF49E05B
:103A70005FE1B701C501599C800D911D11240E9481
:103A8000E919BDCF2A960FB6F894DEBF0FBECDBFA1
:103A9000DF91CF911F910F91FF90EF90DF90CF902A
:103AA000BF90AF909F908F907F906F905F904F905E
:103AB00008952F923F924F925F926F927F928F92D2
:103AC0009F92AF92BF92CF92DF92EF92FF920F93AD
:103AD0001F93CF93DF93CDB7DEB728970FB6F89437
:103AE000DEBF0FBECDBF80917A07882309F4AAC03C
:103AF00010925F0710925E071092610710926007A4
:103B0000109271070E94FE1984FFABC380EF9FEFF4
:103B1000909361078093600780917607811144C07C
:103B20000E94FE1985FFAFC380E190E090935F078C
:103B300080935E0781E08093700780917207811106
:103B400097C380917407811193C38091730781118A
:103B50008FC36091640770916507685F7F4F34E0A1
:103B6000759567953A95E1F78091620790916307A3
:103B7000019744E0959587954A95E1F70E94551A7B
:103B8000811109C080916607909167078097909393
:103B900067078093660781E0809371078FEF9FEF3F
:103BA00090936B0780936A07109276070E94FE1924
:103BB00083FF07C00E94FE1984FFAFC388E0809393
:103BC000E70184E00E941215882379F180916C0747
:103BD00090916D07892B09F0ADC380917207811117
:103BE000A9C3809173078111A5C364E670E088ECD6
:103BF00090E00E94C7191092710781E080937207CC
:103C0000109275078BE08093780788E290E090939C
:103C10006D0780936C070E94FE1986FF84C380E2C3
:103C200090E090936B0780936A070E94FE1982FDD3
:103C300009C01092740780917207882319F081E0FF
:103C40008093750780916F07882391F08091930787
:103C500080FD06C080916E0791E0892780936E07F2
:103C6000809177078F5F8D3308F074C38093770757
:103C700080917107811105C080917607882309F42E
:103C800071C3809193079091940787709927892B2E
:103C900079F4809179078F5F982F937090937907CB
:103CA00080FD06C064E170E086E990E00E94C719DB
:103CB00080916C0790916D0720917407211155C375
:103CC000181619060CF051C321E0209372071092C8
:103CD00073072091750721110CC0209178072223CA
:103CE00041F0059690936D0780936C0721502093C7
:103CF000780760916407709165078B01085F1F4F1B
:103D0000F4E015950795FA95E1F740916207509117
:103D100063074A5F5F4FA4E055954795AA95E1F781
:103D20005A834983605F7F4FB4E075956795BA9574
:103D3000E1F789810E94551AD82E20916A073091A7
:103D40006B078091660790916707820F931F15E0BC
:103D5000959587951A95E1F70197121613060CF0C1
:103D60000CC32EE030E0820F931F5C0154E0B59449
:103D7000A7945A95E1F760916407709165076E5FAB
:103D80007F4FE4E075956795EA95E1F78A2D0E94EB
:103D9000551AE82E81110FC0609164077091650774
:103DA000635F7F4F44E0759567954A95E1F78A2DEB
:103DB0000E94551AE82E80916C0790916D07A09093
:103DC0006807B0906907A81AB90A35E0B594A794B6
:103DD0003A95E1F797FFD4C281E190E0A80EB91EB1
:103DE00014E0B594A7941A95E1F780916207909139
:103DF0006307029624E0959587952A95E1F76A2D49
:103E00000E94551AF82E81110EC080916207909180
:103E100063070A96B4E095958795BA95E1F76A2D00
:103E20000E94551AF82E30917A0780916C07909174
:103E30006D07332309F4A7C2181619060CF4A7C29C
:103E4000DD2009F4A0C280916C0790916D071816CF
:103E500019060CF4AEC2F11003C0DD2009F4A9C2AA
:103E600080917307882331F06EE170E080E590E087
:103E70000E94C71910926D0710926C0710926B0781
:103E800010926A07109273071092720710927407CB
:103E90008091680790916907F5E095958795FA9567
:103EA000E1F70C96A4E095958795AA95E1F7880F20
:103EB00010926807809369070E94FE198076803609
:103EC00009F445C0C0906407D090650770E1C70E43
:103ED000D11C54E0D594C7945A95E1F780916207BC
:103EE00090916307049664E0959587956A95E1F74C
:103EF0006C2D0E94551AB82E80916207909163072D
:103F0000089674E0959587957A95E1F76C2D0E9457
:103F1000551AA82E80916207909163070B96E4E0F2
:103F200095958795EA95E1F76C2D0E94551A91E0D9
:103F3000B91609F46FC2882309F46CC28091660730
:103F40009091670744979093670780936607602F67
:103F500089810E94551A811118C080916207909141
:103F6000630734E0959587953A95E1F7602F0E94B5
:103F7000551A882309F46FC28091660790916707EC
:103F80000896909367078093660780916C079091DD
:103F90006D0720917A07222321F0F11072C2009759
:103FA00051F02091680730916907281B390B309335
:103FB00069072093680720916A0730916B072115E4
:103FC000310561F0E1107BC280916607909167072F
:103FD000820F931F9093670780936607809168070D
:103FE00090916907F5E095958795FA95E1F720910D
:103FF000660730916707A5E035952795AA95E1F703
:10400000309363072093620790936507809364075A
:104010008091760781110E94491C80917A0788233C
:1040200009F457C080915E0790915F071816190632
:104030000CF05FC2019790935F0780935E078091B9
:10404000600790916107181619060CF057C2019786
:10405000909361078093600760915A0770915B07A6
:1040600040915C0750915D078091600790916107D6
:10407000840F951F2091640730916507281B390B29
:10408000285131093595279535952795E0915E079B
:10409000F0915F07E60FF71F809162079091630729
:1040A0008E1B9F0BCA979595879595958795860F3B
:1040B000971F90935B0780935A07240F351F213475
:1040C000B1E03B0714F020E431E030935D0720932A
:1040D0005C07E8E0E98310E1E12EF12C2981F0E1B1
:1040E0002F9F8001112435E03B835B8140E1549F89
:1040F000F001112480915C0790915D07805C9F4FD7
:104100009595879595958795B7010E94B135E81BE0
:10411000F90B80915A0790915B0795958795959536
:104120008795B7010E94B13520E146EF50E2BF010B
:10413000D801A81BB90BCD010E94E919BB81B15070
:10414000BB83BF3F91F6E981E150E983EF3F31F650
:1041500000915A0710915B0774E0159507957A95C1
:10416000E1F75801FFEFAF1ABF0A6801E4E0CC0C99
:10417000DD1CEA95E1F7E0915A07F0915B07209189
:104180005C0730915D073A832983CF0164E0959500
:1041900087956A95E1F70896801791070CF4BCC1E2
:1041A00054E0359527955A95E1F73A832983EE2413
:1041B000EA94E00E80915C0790915D0744E095954C
:1041C00087954A95E1F7049649815A8184179507A6
:1041D0000CF499C16981802F0E94551A8823D9F166
:1041E00069818E2D0E94551A982E69816150802F09
:1041F0000E94551AF82E69818A2D0E94551A882E20
:1042000069816F5F802F0E94551A2F2D220F64E065
:10421000969EA0011124242B282978E0879FC001B5
:104220001124282B80915C0790915D0769817A8128
:1042300034E0660F771F3A95E1F7681B790B8091A0
:104240005A0790915B0746EF50E2D601A81BB90BC5
:10425000CD010E94F519E981FA813196FA83E9834B
:10426000A9CF0E94FE1987FF57CC80E190E050CC87
:1042700080916A0790916B07813E2FEF92070CF4B3
:1042800093CC02978DCC0E94FE1986FF8DCC80EFD7
:104290009FEF90935F0780935E0710927007809165
:1042A0007207811130C08091740781112CC08091F8
:1042B0007307811128C06091640770916507685F7A
:1042C0007F4F04E0759567950A95E1F78091620745
:1042D000909163070C9624E0959587952A95E1F7D0
:1042E0000E94551A811109C0809166079091670755
:1042F0008096909367078093660781E080937107AB
:1043000081E090E04DCC80916A0790916B078032FC
:1043100091050CF049CC029643CC1092740781E0D1
:10432000809376074ECC0E94FE1985FF7ECC80EEEE
:104330009FEF77CC80917A07882309F476CC81E0CF
:104340008093740790E190937B071092720780939B
:1043500073076BCC1092770710926F0781E0809300
:104360006E0786CC10927907A3CC97FFC2CC10922F
:10437000720781E080937307BCCC30E020E0F3CC7F
:1043800090E080E02BCD813A5FEF95079CF1039799
:1043900090936D0780936C0720917407222339F066
:1043A00020917B07222349F1225020937B07311172
:1043B0004ACD80916A0790916B079C0197FF04C0DA
:1043C00022273327281B390B223031050CF43EC03D
:1043D000209193073091940723703327232B09F002
:1043E000B6CD181619066CF5019790936B0780935C
:1043F0006A07ADCD80EA9FEFCBCF632F6550770B77
:10440000AB01681779070CF4AC0150936D0740932A
:104410006C07CDCFA1109BCD80916207909163076F
:1044200044E0959587954A95E1F76C2D0E94551AC1
:10443000882309F48CCD8091660790916707449694
:1044400082CD009709F483CD0196CFCF10926B07F0
:1044500010926A077CCD80916207909163070B965A
:1044600024E0959587952A95E1F7602F0E94551ACB
:10447000882309F48ACD8091660790916707089791
:1044800080CD181619060CF096CD80916407909196
:104490006507089614E0959587951A95E1F7880FBA
:1044A000109268078093690710926D0710926C074D
:1044B0006EE170E080E590E00E94C7197CCD10921B
:1044C0006B0710926A0780916207909163070696C6
:1044D000807F2091700731E02327A4E02A9F90017C
:1044E0001124820F931FB5E0880F991FBA95E1F749
:1044F00071CD009709F4A3CD01969DCD009709F4E5
:10450000ABCD0196A5CD0F5F1F4FFFEFAF1ABF0ACE
:1045100020E1C20ED11C2FCE60918E0770918F07C3
:1045200049815A81641B750B80918C0790918D078E
:1045300020913B0744EB50E28E1B9F0B0E94F51924
:10454000809193079091940787709927892B61F444
:1045500080918B018F5F817080938B0180918A01A4
:104560008F5F837080938A0180913A078823C9F016
:10457000609138077091390780915C0790915D07D1
:10458000681B790B8091360790913707E0915A07A5
:10459000F0915B0724E04EE754E28E1B9F0B0E94D4
:1045A000F519A5E0DA2EB9E09B2E9D9CB0011124EF
:1045B00064577E4F7A836983DB011896BC90189705
:1045C000B2FE56C00D911C91119780915A0790919F
:1045D0005B07081B190B1296ED90FC9080915C070D
:1045E00090915D07E81AF90ABB2DB370CB2E2B2FE3
:1045F0004CE554E2B701C8010E94F519B0FC1CC09B
:10460000F8E0AF2EB12CE981FA813696FA83E9837E
:10461000A981BA818D919C91A816B9064CF5B50176
:104620006E0D7F1D2C2D4CE554E2C8010E94F5193A
:10463000B8E0AB0EB11CECCFE8E0AE2EB12CE981B6
:10464000FA813496FA83E983A981BA818D919C918C
:10465000A816B90668F42C2D4CE554E2B701C80140
:104660008A0D9B1D0E94F519B8E0AB0EB11CECCF72
:10467000DA94EFEFDE1299CF80919307909194072F
:1046800083709927892B41F4809189018F5F63E0C2
:104690000E949135909389010EE516E04CE3E42EDB
:1046A00047E0F42E56E0452E57E0552E66E0662E84
:1046B00067E0762E75E0A72ED8015A968C91882354
:1046C00009F482C08091930780FD5EC06801B12C1F
:1046D000F60166817781D80158968D909C90681577
:1046E00079054CF56A5F7F4FF601778366834091C9
:1046F0005C0750915D0720905A0730905B07D80106
:104700005B969C905B9712962D913C9113978D919F
:104710009C91A481B581992009F1E1E09E1609F4EC
:1047200098C1205F3F4F2A1B3B0BD901A41BB50B3F
:10473000861B970B98C1959487949594879460E015
:1047400070E0CB018114910479F20E945A349401F3
:10475000990C440B550B0E942E35C6CFF901E61B70
:10476000F70BBF01641B750B8A0F9B1F20E044EE03
:1047700054E2821993090E94EF19B394F4E0CF0E2A
:10478000D11C24E0B212A4CFD8015B968C915B9728
:10479000282F220F280F80918901280F12966D91E2
:1047A0007C91139780915C0790915D07681B790B52
:1047B0008D919C91E0915A07F0915B074AE353E297
:1047C0008E1B9F0B0E94F519F2018781882309F443
:1047D0004BC08091930780FD27C08581181624F572
:1047E0008681811121C06281738184E0759567950E
:1047F0008A95E1F78081918104962481FA2D2F0218
:10480000800D911D112424E0959587952A95E1F757
:104810000E94551A882309F42BC1D20114968C9159
:104820001497819514968C93F201858122E01816D5
:104830000CF420E080918B01280FD20112966D912B
:104840007C91139780915C0790915D07681B790BB1
:104850008D919C91E0915A07F0915B0748E153E2FA
:104860008E1B9F0B0E94F519F70184818823B1F0FC
:104870006281738180915C0790915D07681B790B61
:1048800080819181E0915A07F0915B0720918A0124
:104890004EE754E28E1B9F0B0E94F519045E1F4FDA
:1048A000F5E0EF0EF11C28E0420E511C6016710677
:1048B00009F002CF80916E07882309F4A0C000910F
:1048C00062071091630780915A0790915B07081B5C
:1048D000190BE0906407F090650780915C07909158
:1048E0005D07E81AF90A31E7E316F104CCF080918C
:1048F0008807909189079093670780936607809156
:104900008A0790918B0790936907809368070E94AC
:10491000401A80917A07811103C089E08093E701F2
:10492000809174078823B9F1209170074AEF420300
:1049300060011124C00ED11E50917B07652F6E0DB2
:104940007F2D711D7A83698380917A078230C0F050
:1049500020E04BE357E26B507109C60101960E94BB
:10496000E31980917A07833058F020E04BE357E257
:1049700069817A816C507109C60107960E94E3191A
:1049800069817A816950710920E04BE357E2C601E1
:1049900004960E94E3192091700780917607811197
:1049A00091C0245F49EE55E2B701C8010E94E919A0
:1049B00080917007282F220F280F220F80917907EE
:1049C000280F8091720774E0879FC00111243091F5
:1049D0007307311102C030917407A5E03A9F800D32
:1049E000911D11249091760731E09327989F200D17
:1049F000112449EE55E2B701C8010E94EF19FFE00A
:104A0000F98320E04DEA57E270E060E0A98138E0E8
:104A1000A39FC00111240E94E919B981B150B98343
:104A2000BF3F79F7198280917A07E981E81708F08A
:104A3000C8C0F7E0EF9FC00111242AE045E657E225
:104A400070E060E002960E94F51929812F5F2983AA
:104A5000EACF205F3F4F2A1B3B0BD901A41BB50BAC
:104A60004096860F971F20E044EE54E2BD0181CEB0
:104A7000F20162817381A4E075956795AA95E1F7CB
:104A80006F5F8081918104962481FA2D2F02800D21
:104A9000911D1124B4E095958795BA95E1F70E9490
:104AA000551A882309F4B9CED20114962C91149783
:104AB0008D919C911197820F911D27FD9A958D9351
:104AC0009C93B2CE220F80918B01280F47EE54E2C7
:104AD000B701C80102970E94E319E2E6F7E0FA8302
:104AE000E9836EE6462E67E0562E70E1C72ED12C84
:104AF000EDE08E2E912CA12CB12C3701FAE06F0E37
:104B0000711C78012FE0E20EF11CA981BA815C963C
:104B10008D919C915D978330910584F101975D960D
:104B20009C938E935C97A981BA815A968D919C91A2
:104B30005B97029797FD2CC05B969C938E935A9738
:104B4000E981FA81648D758D660D771D828D938D57
:104B500020917007222379F120E044EE54E2D8013D
:104B6000A81BB90BCD010E94EF19E981FA81349697
:104B7000FA83E9834E165F0641F641CF8E3FBFEFC1
:104B80009B078CF60196E981FA81958F848FCBCFB4
:104B9000E981FA81D38EC28E0E945A34A501940114
:104BA0000E942E3564507109A981BA815D967C936B
:104BB0006E935C97C5CF20E044EE54E28E0D9F1DAE
:104BC000D2CF21E041E060E08BE50E945D1C35E042
:104BD000398306E010E0498156E0459FC001112469
:104BE00088962091C301B801621B71094617170608
:104BF0000CF4F1C02BE045E657E270E060E00E9463
:104C0000F5197981715079837F3F29F780913B07AE
:104C1000882349F02DE045E657E270E060E08CE142
:104C200090E00E94F51980917A07882309F4A2C2C6
:104C30008091620790916307E0906407F0906507A8
:104C4000D7011296B887AF835091700741E0252FA6
:104C50002427B0E12B9F90011124280F391F19013F
:104C6000E0E15E9F2018310811248C010E5F1F4F78
:104C70002091360730913707B901685F7F4F0617DB
:104C8000170720F50A962817390700F5809138078D
:104C9000909139079C01205F3F4F6F8178856217A3
:104CA0007307A4F49701225F3F4F8217930774F4B0
:104CB00080913A07882351F010923A0740933B07BE
:104CC00068EC70E084EA91E00E94C71980918C073B
:104CD00090918D079C012C5F3F4F0C960817190788
:104CE00088F5C80108962817390760F580918E0766
:104CF00090918F079C01205F3F4FAF81B885A2172D
:104D0000B30704F59701225F3F4F82179307D4F44E
:104D100080E80E9412158823A9F080913B07882320
:104D200089F080917A078093C60181E08093C50164
:104D30001092C4018091CC018F5F8093CC0186E0FA
:104D40008093E70145E0742E55E0652E2801B8E018
:104D50004B0E511C5701EEE0AE0EB11C9101205FCD
:104D60003F4F3C832B83A701405F5F4F5E834D83A2
:104D7000C72CD12C6C9CF0016D9CF00D1124E45CCF
:104D8000F84F8481882309F46CC08081918122814D
:104D9000338140917607442301F16B817C81861732
:104DA0009707D8F4AC01465F5F4F24163506A8F488
:104DB000AD81BE812A173B0784F4A901445F5F4F90
:104DC0006F8178856417750744F42091700721116D
:104DD00045C0019744C02CE00ECF8415950508F01E
:104DE00040C00A9608171907E0F52A153B05CCF5CF
:104DF000245F3F4F8F8198858217930794F56C9CB1
:104E0000F0016D9CF00D1124E45CF84F1482809148
:104E1000C30181508093C3018091C2018F5F809351
:104E2000C2018091C7018F5F8093C70168EC70E079
:104E300080E991E00E94C7192091C3018091C801C7
:104E40009091C901A091CA01B091CB01222309F42C
:104E500099C088539F4FAF4FBF4F98C00196918321
:104E60008083D60133E0AA0FBB1F3A95E1F7BA83DE
:104E7000A983FD01EA5FF84F8781882309F466C0A2
:104E800080809180E280F3802B813C8182169306A2
:104E9000A8F4C40108962816390680F44D815E8175
:104EA000E416F5065CF4C70108966F8178856817EB
:104EB000790724F480917607811171C0E981FA8124
:104EC000EA5FF84F16828414950408F03FC088E02A
:104ED000880E911C08151905C8F5EA14FB04B4F5F1
:104EE00098E0E90EF11CAF81B885AE15BF0574F5E9
:104EF000E981FA81EA5FF84F7F018581181634F560
:104F000080916F07811122C00E94401A28E230E090
:104F100030936D0720936C0780916207909163072F
:104F2000D7012D913C91821B930B97FD94C0863045
:104F3000910514F085E090E0029725E0880F991F15
:104F40002A95E1F790936B0780936A078CE18C9D1B
:104F5000F0018D9DF00D1124E25AF94F828D8823C6
:104F600009F4BFC0A38D4081518122813381808D9E
:104F7000918DAA2309F472C0A13009F49CC0481B8A
:104F8000590B9BC08C509E4FAF4FBF4F8093C801B1
:104F90009093C901A093CA01B093CB0162CF8581E0
:104FA0008150858371E0768318160CF48CCF809144
:104FB00062079091630720917007222361F19401A9
:104FC0002F5F3F4F318320830797281739070CF451
:104FD0007ACF178280917A07833040F58F5F809374
:104FE0007A078091C8019091C901A091CA01B0913E
:104FF000CB01C296A11DB11D8093C8019093C90138
:10500000A093CA01B093CB0164E670E088EC90E015
:105010000E94C71958CF9401215031093183208350
:105020000F96821793070CF44ECFD3CF8091C8010F
:105030009091C901A091CA01B091CB018C599F4FA9
:10504000AF4FBF4F8093C8019093C901A093CA018D
:10505000B093CB01C6CF80EA9FEF74CF281B390BEA
:1050600060E170E044155505E0F5460F571F041741
:105070001507B8F52A153B05A4F5820F931FEF819C
:10508000F885E817F9076CF580917407882349F1D2
:10509000AA23B9F030916A0720916B07A13009F477
:1050A00082C0832F922F8F3CFFEF9F0714F48FEC69
:1050B0009FEF059780C0405F5F4FBC0180E190E0AB
:1050C000D1CF80916C0790916D078C35910514F0CC
:1050D0008BE590E0059690936D0780936C070E9496
:1050E000491C80916F07811141C0E9E0EC9DC0012E
:1050F000ED9D900D11249C0124573E4F7901D9015B
:1051000018968C9182FF32C07E9EF0011124E457E4
:10511000FE4F808191818415950540F5248135816C
:10512000820F931F0817190708F5828193818A154A
:105130009B05E4F426813781820F931FEF81F88568
:10514000E817F9079CF40E94401A209164073091F7
:105150006507D70112968D919C912817390734F471
:10516000E8E2F0E0F0936D07E0936C077A94FFEFCC
:105170007F12FECD28960FB6F894DEBF0FBECDBFCE
:10518000DF91CF911F910F91FF90EF90DF90CF9023
:10519000BF90AF909F908F907F906F905F904F9057
:1051A0003F902F900895832F922F8233910514F012
:1051B00081E390E0059690936B0780936A078FCF09
:1051C00020E042E25DE162E070E08BE290E00E946C
:1051D000E9192091E6014AED5CE170E060E085E2CA
:1051E00090E00E94E91920E048E75CE160E370E0AC
:1051F00088E290E00E94E91968EC71E08BE490E0AD
:105200000E94001C86E490E00E94FE1B20E08A3E83
:1052100029F544E65CE16CE170E085E190E00E94F4
:10522000E91920E04EE35CE16CE170E08EE190E092
:105230000E94E91921E042E06EE187E30E945D1CD3
:105240008CE00E941215882381F081E08093E701B1
:1052500064E170E089EA91E00C94C7194EE55CE1E5
:105260006CE170E08CE190E0DACF0895FF920F934B
:105270001F93CF93DF93EC01F62E08811981C801AB
:105280000E941835F81621F06F2DC8010E942035B4
:10529000CE01DF91CF911F910F91FF9008950F9351
:1052A0001F93CF93DF9300D0CDB7DEB78C0184E49A
:1052B00090E09A838983F8016081CE0101960E9473
:1052C000362985E490E09A838983F8016181CE01D3
:1052D00001960E943629C8010F900F90DF91CF915F
:1052E0001F910F910895AF92BF92CF92DF92EF92EC
:1052F000FF920F931F93CF93DF9300D0CDB7DEB70C
:105300008B016B0124E0C20ED11C7B015C01A61A4B
:10531000B70AC5018E0D9F1D9A838983F70161919C
:105320007F01CE0101960E943629EC14FD0489F715
:10533000C8010F900F90DF91CF911F910F91FF90B7
:10534000EF90DF90CF90BF90AF9008950F931F9391
:10535000CF93DF9300D0CDB7DEB78B019A838983DB
:10536000FB016081CE0101960E943629C8010F9091
:105370000F90DF91CF911F910F910895CF93DF93FD
:1053800000D000D0CDB7DEB78091CC01873208F0D5
:105390004CC022E042E06AE18EE40E945D1C83E2A0
:1053A00020E04FE158E261E170E090E00E94E919ED
:1053B00021E042E061E38BE20E945D1C19821A82C7
:1053C0001B821C82BE016F5F7F4F8BE490E00E94C6
:1053D000001C4091C8015091C9016091CA017091AF
:1053E000CB0189819A81AB81BC8184179507A6077F
:1053F000B70760F467EC71E086E490E00E94A629AC
:1054000068EC71E08BE490E00E9473298CE00E94CC
:105410001215882319F081E08093E7010F900F9017
:105420000F900F90DF91CF9108958FE2B9CF2F9217
:105430003F924F925F926F927F928F929F92AF9224
:10544000BF92CF92DF92EF92FF920F931F93CF9371
:10545000DF93CDB7DEB760970FB6F894DEBF0FBE0F
:10546000CDBF809193079091940764E170E00E9412
:105470009D35892B69F51092C4018091C201E0919C
:105480008801882309F474C081508093C2018091FF
:10549000C8019091C901A091CA01B091CB01449675
:1054A000A11DB11D8093C8019093C901A093CA01A9
:1054B000B093CB0181E08E0F80938801F0E0E65538
:1054C000FF4DE49166E970E08E2F90E00E94C719CD
:1054D0006CEC71E084E490E00E94A62967EC71E036
:1054E00085E490E00E94A62968EC71E087E490E0F2
:1054F0000E9473298091CC01873208F071C020E0AE
:105500004CE350E264E070E083E290E00E94E9192D
:1055100022E042E06DE08EE40E945D1C21E042E06A
:1055200061E38BE20E945D1C8091C501882309F430
:1055300069C0D090C201E090C601ED0C2E2D39EF6C
:105540003203800111240F5B1F4FF12CFE1409F46C
:1055500059C020E0FD1408F021E04AE050E26BE180
:1055600070E0C8010E94F519F394025F1F4FEECF5F
:105570008091C601882379F081508093C601809183
:10558000C8019091C901A091CA01B091CB014E967A
:10559000A11DB11D87CF91E09093C4011092C50168
:1055A00080918701892780938701EA3080F481E028
:1055B0008E0F80938801F0E0E655FF4D849168ECF2
:1055C00070E090E00E94C7198AE080938801809182
:1055D000CC01873208F47CCF89E08093E70178CF53
:1055E0001A821982CE0101960E944F2919821A82CD
:1055F0001B821C82BE016F5F7F4F87E490E00E9498
:1056000073298CCF8091C401882309F47BC28091D7
:105610008701882349F020E040EA5FE16DE170E016
:1056200086E290E00E94F5198CE00E941215882312
:1056300009F468C21092880164E170E089EA91E09F
:105640000E94C719109263071092620710926507B3
:105650001092640780E890E0909367078093660754
:10566000109269071092680710926B0710926A07F0
:1056700010926D0710926C0781E080936E07809303
:105680006F071092770710927807109270071092A8
:10569000710710927207109273071092740780932B
:1056A00075071092760783E080937A0710927B0744
:1056B00002E617E090E1C92ED12CE12CF12C0E94DA
:1056C0005A344B015C010E945A34A70196010E9492
:1056D0002E35F801738F628FC501B401A7019601C1
:1056E0000E942E35F801758F648F0C5F1F4FF7E015
:1056F0000E361F0721F710925B0710925A0780E4BD
:1057000091E090935D0780935C0710925F07109281
:105710005E0710926107109260071092C30115E0B6
:10572000D12E00E1402E512C612C712C80E1282ECD
:10573000312CED2CF12C2CE12E9DF0012F9DF00D44
:105740001124E25AF94F11821082138212828F01C2
:10575000B4E0CB2E0E945A344B015C010E945A34B3
:10576000A30192010E942E35F80175836483C5015F
:10577000B401A30192010E942E35F801778366835C
:10578000CA940C5F1F4FC110E5CF2CE12E9DF00194
:105790002F9DF00D1124E25AF94F118E108E128EAA
:1057A000138E39E03E9DF0013F9DF00D1124E4572A
:1057B000FE4F118210821382128235822482378238
:1057C000268241E04087F701A3E0EE0FFF1FAA9574
:1057D000E1F7EA5FF84F118210821382128217827A
:1057E0008EE185834483168295E09E9DF0019F9D06
:1057F000F00D1124E45CF84F1182108213821282A2
:105800001482DA94EFEFDE1294CFE091CC01F0E055
:10581000EE0FFF1FEF5EFE4FA080B180F8E4AF0EE9
:10582000B11CF501849190E044244394E8E06E2E8D
:10583000712C8F3F09F463C1F501E90FF11D8491CB
:1058400004910F7162E0562E590EE1E0E90FEA0D66
:10585000FB2DF11D14911F71E52DF0E0807E803449
:1058600009F465C0D0F48823C9F1803209F44EC030
:1058700020E1129FF0011124F0933707E0933607DF
:1058800030E1039F800111241093390700933807FA
:1058900040923A0710923B0733C0803809F488C021
:1058A000803A09F403C1803619F743E0542E590EAB
:1058B000EA0DFB1DE491812F90E010E0E03408F048
:1058C0005FC09E838D8318870F8320E04E2F6D81EC
:1058D0007E818F8198850E94831A12C0110F1092C9
:1058E000880710938907000F10928A0700938B078F
:1058F0001092660710936707109268070093690774
:10590000F501E50DF11D8491952D93CF20E1129FB6
:10591000F0011124F0938D07E0938C0730E1039F91
:105920008001112410938F0700938E07E9CFE6E0E2
:10593000F7E090E080E0278121111CC053E0880F40
:10594000991F5A95E1F7DC01AA5FB84F40E1149F17
:10595000F00111241196FC93EE9380E1089F8001E1
:105960001124085F1F4F13961C930E9312971796DE
:105970004C92C6CF0196389686309105E1F6C0CF9D
:105980004E2F4F73E03C50F49A8789871C870B8712
:1059900021E069857A858B859C859DCF9E878D8743
:1059A000188B0F8722E06D857E858F85988993CF30
:1059B0003197EA0DFB1DE490ECE8F1E090E080E027
:1059C000208522FD6CC0F12C25E0F594E7942A9502
:1059D000E1F7EFEFEE1AFE0A34E0EE0CFF1C3A9509
:1059E000E1F7F0E11F9F1001112449E0489F900169
:1059F000499F300D1124C90184579E4F6C01FC0151
:105A000031822082F0E10F9F40011124FC0193823A
:105A100082826FEF600F812F0E94551A882341F018
:105A200027E0F6012087F582E4827782668268CFDC
:105A300061E0600F812F0E94551A882369F025E0EC
:105A4000F6012087F582E4827782668238E0830E51
:105A5000911C9382828254CF602F8FEF810F0E941E
:105A6000551A882341F024E0F6012087758264826C
:105A7000F782E68245CF602F81E0810F0E94551AA0
:105A8000882309F43DCF26E0F601208775826482E1
:105A9000F782E682C10108969183808331CF019617
:105AA00039968630910509F08BCF2ACF85E035E015
:105AB000389FD0011124A45CB84F9D012C5F3F4F4B
:105AC00014969C911497911117C08091C3018F5F18
:105AD0008093C30140E1049FF00111241396FC93CD
