:020000040000FA
:100000000C94880E0C94B00E0C94B00E0C94B00EA0
:100010000C94B00E0C94B00E0C94B00E0C94B00E68
:100020000C94B00E0C94B00E0C94A02B0C940F2CCE
:100030000C94B00E0C94B00E0C94B00E0C94B00E48
:100040000C94B00E0C94B00E0C94B00E0C94B00E38
:100050000C94B00E0C94B00E0C94B00E0C94412E77
:100060000C94B00E0C94B00E0C94B00E0C94B00E18
:100070000C94B00E0C94B00E0C94B00E0C94B00E08
:100080000C948B2E0C94B00E0C94B00E0C94B00EFD
:100090000C94B00E0C94B00E0C94B00E0C94B00EE8
:1000A0000C94B00E0C94B00E0C94B00E11082030CD
:1000B0000000020B0F0600085A7EE7818118180025
:1000C00000020702000000004A7EE78181BD7E3CFD
:1000D0000203000020B0F060001042C389BD6642F8
:1000E0002400002070200000000042082C7EC34243
:1000F00000180808241C2C3018081010080C0736AB
:1001000018604000203060D8300C02001608000251
:1001100005020000000060909060003C428D8581E7
:1001200081423C0000205020000000000609090622
:10013000003C428D858181423C000F08E087F3F945
:10014000890103FEFFFFFFFF7CC281E087F7F38395
:100150000307FEFFFFFFFF7CC683C88FC7E7870743
:100160000FFEFFFFFFFF7CCE87989F1F1F1F1F3FC3
:10017000FEFFFFFFFF7C9E8F382000000080C0C084
:10018000E0F0589CBC7E6E4E2E6EDAB28DDC9898F4
:1001900058D8D8D89890B0608000000000000000C7
:1001A000000000000000000000000000000000004F
:1001B0000000007CFFF1E71F3FC7000303010101BE
:1001C0000103030303030301010079FBF7EFDDB330
:1001D00002040888808080C0C0A0B0101010000009
:1001E0000000000000000000000080E0F07D0378C7
:1001F000FEF9E0D4F4AC2C6CDC3CFC9C8C8CCC7C0C
:100200003C80F870656B57D7D7D7C7E6E2F1F1FBB2
:10021000FBFBF3F3F3F6E4D8C0E0E0C0C00000005D
:10022000000003070F88D3D6CEDDBDBFBFBFBBFA2A
:10023000D8DCCDCDD5D5D8DCDCEEEEEFE7C383221C
:100240007275E3F7FFFFFFFFFF7F7F3FBF9B0B89C7
:1002500089C5C16161333018180C00000080C0C02E
:10026000E0F05898BCBCBEAEAE1E768EDADC9C9830
:1002700018B8B0B090888C8C0830000000000000E6
:10028000000000000000000000000000000000006E
:10029000000000387FF9F72F5F8F00030301010191
:1002A00001030303030303010100397BF347E7CF95
:1002B000CDD1818182808080A0A0606070686070F4
:1002C000F0E00000000000000000000000F833C073
:1002D000FCE3D4F4ECEC6C2C2C5C3C9C8C8CCC7C47
:1002E0003C80FCFAF4F3F6E5EBEBF77737F7F7F33E
:1002F000F3F1E1E1E0C0C080000100000080E00017
:10030000000000000E9FD8C5CBDBD7B7B7B7B7B694
:10031000BABAB9BDDDDECECEC4E9E9EDEDCD8E0EC3
:100320000646667378FFFFFFFFFF7F7FBFBF3FAFCB
:100330009FDFDF6F6F373318180C00000080C0C0DC
:10034000E0F058BCBC7E6E4E2EAEDEB68EDC9C9CC1
:10035000383060C080000000800000008000000095
:10036000000000000000000000000000000000008D
:1003700000000078FFFDFB772F1F00030301010140
:100380000103030303030301010079FAF4C52DED12
:10039000ECCECEC5C0C0C0C0C0C0C0C080A03018A8
:1003A00018080800000000000000000060F9F3E0F9
:1003B000068D78F4EC6C5C5C5C3CFC9C8C8CCC7C9E
:1003C0003C80FBF6F5F3FBF6F5F5F7FBFBFBFBFBDF
:1003D000FBFBF9F1F0E0E0C080000000000000004D
:1003E000000000000080CFDFD8D7CFDF9F9EACACED
:1003F000B4B1B9B9B9BDDCDCDEDEEEECE5C1891B18
:10040000373717213F1F070F1F3F3F3FBF9F1F9FDA
:100410008FC7C66C6C343018180C00000080C0C048
:10042000F0F81CBC7E6ECEAE6EEEEAD9D5CC9C98B0
:100430001838B0B02040800000000000000000002C
:1004400000000000000000000000000000000000AC
:10045000000000FCFFF9F72F1FCF0003030100008D
:1004600000020303030303010100F9FBF3E6CC9B45
:1004700048C8E8E0E0E0C0D0B030202000000080B4
:100480008040000000000000000000F0F9FD338013
:100490003EF9F8F4ECEC5CBC7CFCFC9C8C8CCC7CD9
:1004A0003C80F0F5EBEBEFE7F7F6F2F3F9F9FBFB45
:1004B000FBFBFBFBF3F3E1E1C0C0800000000000A8
:1004C00000000000018FDCDBD7EEDFDFDEDCDCECE0
:1004D000CDCCD5D5D9D9DCECEEEEE6E6E6C6854B3B
:1004E000978FFFFFFFFF7F7F3F1F0F1F9B9B339364
:1004F0008FCFC7676E343018180C30180000DFEF4C
:10050000F3F5F6EFCF87DBEDF7F7F7F7F7EFDFDD82
:1005100083BF3F077BFF7F7FBC80C0C060603030FF
:10052000CCFCFE7F7F3F3F1E01010000C0FCFBF7BB
:10053000EFEF0F2FF7FB7B77AFAFCFCF6F6737337F
:100540001B1B0C0C06060B7BFDFD8EF4F8FCFEFE5F
:100550003E0E000000000000000000000303030343
:100560000300000002020303010100000000020278
:10057000030302000000000003030303030303015D
:100580000000000000000000000000001910C0F092
:10059000F8FCFEFEFFFFFFC70100000000000000A6
:1005A0000000008080C060039FFFFFFFFFFFFFFF90
:1005B000FF8F80E0F0F8FC7E7E3F3F1F0F070100B9
:1005C0001F180000000000000000C0F0380C0404F8
:1005D0000404040404040405078383C140400000AC
:1005E0000000000000000000808FDFC0606030303D
:1005F00018080C0406020301010080C0E0E060203E
:10060000180C0C06060303010100060E18302060CA
:10061000404040602030180C060100010000003C02
:1006200038000000000080F8FE0FE3FB1B0B0B8B73
:10063000FBF3F7F6F6F60606ECECECECECECECEC87
:10064000ECECECECECECEEE6F6F6F6F7F3FBFBCBC1
:10065000CBFBE30FFEF8801E332121339E00000008
:1006600080F8FF0FE0F8F9F9F9F9F9F9F9F1F3F386
:10067000F3F3F0F0FFFFFFFFFFFFFFFFFFFFFFFFC0
:10068000FFFFFFFFFFFFFFFFFFFFFFFFFF7F7FFE7B
:10069000E00FFFF880060600000000000F3FF0C6E4
:1006A000070404070707070707070707070707FFE8
:1006B000FFFFFFFFFFFFFFFFFFFFFFFFFFFFFF0742
:1006C00007070707078787070726860707C6F03F3C
:1006D0001F00808000000000000000030784C4E4C5
:1006E000E4E4E4E4E4E4E4C49C000FE7E7E7E7E7DC
:1006F000E7E7E7E7E7C7870F1F0FC7E7E0ECE4E4AA
:10070000E4E5E5E4C4040404070300C040C30311A6
:10071000000000000000000000FFFFFFFFFF39396C
:1007200039FFFFFF0FE0E0EFEF0FFFFF183879FF11
:10073000FFF703E0E0EFEF0FFFF9F0F0FCFDFDFD48
:100740000DECE0E0E000000121010000000000806D
:10075000C0602060C080000000000C0C007EFE80A5
:100760003C3E1C1C1C1C1C0C0C0E0C0C0C0C0E1E01
:100770001C1C1C1C3C3E80FE7E00000000C0E0E013
:10078000C000000000030300000E1B3166C680D0CD
:1007900060311B0E00003828380001471E38202029
:1007A0002020301010D0D0101090103020202020A9
:1007B000381E0701000006060000010100000000CD
:1007C00000000000004040FFFFFF0707E7E7676702
:1007D00067676767E7E70707FFFF1F1F9F9F878719
:1007E000FFFFFFFFFFFF9F9F87871F1F7F7F878779
:1007F0006767FFFFFFFF0707E7E7676767676767E9
:10080000E7E70707FFFFFFFFFFFF00007F7F606054
:10081000606060607F7F0000FFFF0606E1E1070780
:10082000FFFF01019F9F61618787666686860707D4
:1008300098987979FFFF00007F7F6060606060605A
:100840007F7F0000FFFFFFFFFFFF868666669E9E9C
:1008500086861E1E7E7E6666070718189F9FF8F81C
:10086000010106066767E0E0E7E7E6E619191818F0
:10087000616118181F1F8686E6E666661E1E66669C
:1008800066669E9EFFFFFFFFFFFF9F9F00009999F6
:1008900079796060606066667878F8F89999E1E146
:1008A0000000F8F818186161E1E1E1E186861818A6
:1008B00086866666868667676161FEFEE0E01818D8
:1008C00060606767FFFFFFFFFFFF7F7FF8F86767E4
:1008D0006060FEFE606066668080818107070707B2
:1008E0007878070786861E1EF9F99F9F0101FEFE94
:1008F000E7E7606007079E9E7E7EF9F96161FEFE74
:1009000060601E1EFFFFFFFFFFFF66667F7F66665B
:100910007E7E61617E7E6666FFFF1F1F06069898D9
:100920009E9EF8F8FFFF9898F9F99F9FF8F8E7E77F
:10093000F9F90606E6E66161E6E60707FEFE878747
:1009400018189898FFFFFFFFFFFF0000FEFE060645
:1009500006060606FEFE0000FFFF9E9E181807070B
:100960009F9F0707FFFFF9F9E7E7E1E16767F9F9FB
:100970009F9FE0E087878686E7E700000707797991
:1009800086866161FFFFFFFFFFFFE0E0E7E7E6E645
:10099000E6E6E6E6E7E7E0E0FFFFE1E1E0E0E6E6E5
:1009A000E7E7F8F8E1E1E1E1F9F9FFFFE0E0F9F963
:1009B000F9F9E1E1E7E7F9F9E7E7E0E0FEFEFEFE3D
:1009C000E1E1FEFEFFFFFF3818008080800000118B
:1009D0001F11801F91110E801F959591801F89898D
:1009E0009F8080008484840080001F09891F001F6D
:1009F0000909178081819F01800A00800080808022
:100A000080070C080B03000408080F000F08080FEC
:100A1000000B0A0A0E0000000F000000080F08007B
:100A20000F0102040F0008080808000F080808005A
:100A300003020E03000F04040BF888888800F8886E
:100A400088F800F888887000F8A8A888005000008E
:100A50000000000070C888B83000408080F800F8BE
:100A60008888F80088A8A8F800F84848B80088F8EE
:100A7000883E101C3E6743C3C38386870000000086
:100A800010F0F0100010F0F010101030F0E0001135
:100A9000F3F71716141010300010F0F030E080005B
:100AA000000000F0F00010F0F01010101010101006
:100AB00030F8E060C0C0C0C0C1E37F7E3C0080FF72
:100AC000FF800080FFFF00043C76C7830082FFFFA9
:100AD0008282828080C00080FFFF000001070C3806
:100AE00060FFFF0082FFFF82828280808080E010B2
:100AF0000800080808080808083E6B49492A2A081F
:100B00000014087F417777417F4155555D7F415FF4
:100B10005F7F417575717F7F417575717F415F5F43
:100B20007F417575417F717747717F7F5D415D7F43
:100B3000417B77417F4175757D7F415D5D417F7F61
:100B4000415D5D5D7F415D5D417F417B77417F41DF
:100B500075757F7F515555457F4175757D7F497707
:100B600077497F000000007F415D5D417F417575E1
:100B70007D7F4175757D7F000000007F415D5D4197
:100B80007F417B77417F00000000000000000008EB
:100B900008000F060F060F000F000F000F000F00D8
:100BA0000F000F060F060F060F000F000F000F00BB
:100BB0000F000F060F060F060F060F000F000F00A5
:100BC0000F000F060F060F060F060F060F000F008F
:100BD0000F000F060F060F060F060F060F060F0079
:100BE0000F04080C1E1E0C000C0C0000040000007A
:100BF00000000000000000000000000000000000F5
:100C0000000000101040E868FCE8FCD8FCF0FCBCD8
:100C1000FE5EFFEEFF8EFFF6FFFAFF8AFF26FF66FD
:100C2000FFE0F640E000000004042F257F357F46FA
:100C3000FFC2F7F2FFEFFFECFF72FF0C7F0C1E000C
:100C40000E040F040E007070F8C0F0E0F0F0FCBC71
:100C5000FE5EFFEEFF8EFFF6FFFAFF8AFF66FFC320
:100C6000E7C0E360F000000004044F45EF65FF8734
:100C7000EF82F7F2FFEFFFECFF72FF0C7F0C1E001C
:100C80000D040F040E006060F0C0E0C0F0F0FCBC8A
:100C9000FE5EFFEEFF8EFFF6FFFAFF8AFF44EE8650
:100CA000CF80C6C0E00000008080C9C9FFC9FF8DA9
:100CB000DF86FFF2FFEFFFECFF72FF0C7F0C1F01DE
:100CC0000F091F000900E0C0E0C0E0E0F0F0FEDE28
:100CD000FF2FFF77FFC7FF7BFF7DFF45FFA2FFCC04
:100CE000FE80CC00800000004141E3C1EBC9FF4C15
:100CF000FF46FF7BFF77FF76FF397F063F060F0138
:100D00000F081D000840E0C0E060F0E0F0F0FEDEFB
:100D1000FF2FFF77FFC7FF7BFF7DFF45FF22FFCC43
:100D2000FE80CC0080000000C141E361FB68FD4C07
:100D3000FF46FF7BFF77FF76FF397F063F060F00F8
:100D40000F081D000860F0B0F8D0F8D0F8F0FEDE13
:100D5000FF2FFF77FFC7FF7BFF7DFF45FF22FFE6E9
:100D6000FFC0E600C0000101030127247F74FF4695
:100D7000FF43FF79FF77FF76FF397F063F060F00BD
:100D800007040F0004080800000018180000000005
:100D90000024000024000081667E3C3C7E66818148
:100DA0000000000000008111196918C0188618C0E1
:100DB00018FB1869186118691857182D1811196946
:100DC000186118691857180218FB18691861186912
:100DD0001857182D188616281984188317F41682A8
:100DE000182B17E5168218D516C616B6168C16C619
:100DF000168916000104070C101416171613100B91
:100E00000703010B070301000104070C1014161758
:100E1000161310261538160715E914071538165B32
:100E200016BE1406087EFF8181FF7E0082FFFF80D0
:100E300000C2E3B1998F8642C38989FF76181C10DE
:100E4000FFFF104FCF8989F9717EFF8989F97003FF
:100E500003F1F90F0776FF8989FF7646CF8989FF6D
:100E60007E1F0866EF89FB72000101FFFF01010090
:100E7000F8FE13FEF8007EFF81897BFA00FFFF89F0
:100E80008981082001FFF5FF05FFF4FFF5FF05FF4D
:100E9000F5FFF5FF00FFDFFF00FFDFFFDFFF00FFD3
:100EA000DFFFDFFF00FF7FFF00FFFFFF7FFF00FF8F
:100EB0005FFFABFF000F050F001F0A1F050F0007A4
:100EC000010300010818F1FF05FFF5FFE5FF45FFED
:100ED000A1FF04FFA1FFDFFF00FFDFFFDFFF55FFE2
:100EE0008AFF00FF8AFF153F003F153F0A1F050FCD
:100EF0000207000300010F080103070F1F3F7FFFD8
:100F0000FEFCF8F0E0C0800102070A1F2A5FAA5E1B
:100F1000A858A04080000102040A012A04AA00A8DF
:100F200000A0008000030800FF0EFF00FF08080873
:100F300028686B6B6828082008006060606060604B
:100F4000B0B0B0B0B0B0D8D8DBDBD8D8E8ECECECBF
:100F5000ECECF6F6F6F6F60600201000003FFF7FF8
:100F6000FFFFFFFFFFFF7CFE1BA1019919C37C7CE3
:100F7000FFFFFFFFFF0F1F3F030400000000000002
:100F80000003070F1103060E03776F5F1F030602AE
:100F9000070F1F1F3F2000000000000078FF3FFFE9
:100FA000FFFFFFFFFF7FFC1EA3019919C1737CFCAB
:100FB000FFFFFFFF3F0F3F0307000000000000009E
:100FC00003070F1807060E03076F5F5F030602078C
:100FD0000F1F1F3F2000000000000000E0FF7FFF08
:100FE000FFFFFFFFFFFF7CFE2B81119909E37C7C53
:100FF000FFFFFFFF1F3F070F01000000000100017E
:10100000070F1F01070F06020F5F5F470307020E5E
:101010001F1F3F010000000000000000007FFF7F55
:10102000FFFFFFFFFFFF7CFE1BA1019919C37C7C22
:10103000FFFFFFFFFF1F7F070F0000000000000001
:1010400003070F1F03070E1E074F5F5F070306020C
:101050000F1F3F0F030000000000003020F0F000E1
:101060008080800000000000000000000000000000
:101070000000000000000000000000000000000070
:101080000002DEC2C2DEC2C2DEC2C2DEC2073FF85A
:10109000C53D7DFBFBFBF6F6F6ECCCBC7CE0C0C6A8
:1010A000868280AFAFAFA9A6868686828680C0F092
:1010B0003C0FF3FC0642FA4246FEFEFE0100000130
:1010C0000F7EF08E7D7BFBF7F7EFEFEFDF06669587
:1010D0009565DD0565959565DD0565959565DDDCB1
:1010E000DF00DFDFD8D8DFD8D8DFDF000000000066
:1010F000000001070E19362E5D5DBBBBFB767676D0
:10110000F6EEEFEEEEAE8E0E0F2E2EAEEEEEEFF70B
:10111000F7F6767A3A1A0C6470780000001008012D
:1011200001020206040C0C1818183070F0F00006CA
:101130000800282A4A890800282AC9080000282A05
:101140004A890800282AC908001020000004F88CE9
:10115000B6B7C5FD3C0CBEB6F2A22030307C0F8382
:1011600081A1B1F0B4FE7E6F4D05000000021A3B74
:101170003BBFBBFFDFFB5B0000000000000000087E
:10118000B87CE6D65DC9E37F2D08002010C0E0E002
:10119000E06060B0D010D0F0F0F8FCFEFEFFFFF190
:1011A000F0E0E0C08080C00080C0E070100001036B
:1011B00013273226322733A7BF3F271F3F7FFFE782
:1011C0009F1F0F0F070F1B07070F1D200000C0E018
:1011D000E0E06060B0D010D0F0F8FCFEFFFFF1F06E
:1011E000E0E0C08080C000C0E0F0380000000001F6
:1011F0000313273226322733A7BF3F271F3F7FFF26
:10120000C71F0F070F1B07070F1E100000C0E0E0ED
:10121000E06060B0D010D0F0F0F8FCFEFEFFFFF10F
:10122000F0E0E0C08080C00080C0E07010000103EA
:1012300013273226322733A7BF3F271F3F7FFFE701
:101240009F1F0F0F070F1B07070F1D2000C0E0E0B7
:101250006060B0D010D0F0F0F0F8FCFEFFFFF1F0CD
:10126000E0E0C08080C0008080C0602000000103FA
:10127000173226322733A7BF3F271F3F7FFFE79F45
:101280001F0F0F070F13070F1F3B4000001070E0E8
:10129000C08000C08080C0E0E0F0F1FFFFFEFEFCF7
:1012A000F8F0F0D010D0B06060E0E0E0C000201DA9
:1012B0000F07071B0F070F0F1F9FE7FF7F3F1F271A
:1012C0003FBFA7332732263227130301000000381F
:1012D000F0E0C000C08080C0E0E0F0F1FFFFFEFC65
:1012E000F8F0D010D0B06060E0E0E0C00000001086
:1012F0001E0F07071B0F070F1FC7FF7F3F1F273F4B
:10130000BFA733273226322713030100001070E0F5
:10131000C08000C08080C0E0E0F0F1FFFFFEFEFC76
:10132000F8F0F0D010D0B06060E0E0E0C000201D28
:101330000F07071B0F070F0F1F9FE7FF7F3F1F2799
:101340003FBFA73327322632271303010000206056
:10135000C0808000C08080C0E0E0F0F1FFFFFEFCB4
:10136000F8F0F0F0D010D0B06060E0E0C0000040D5
:101370003B1F0F07130F070F0F1F9FE7FF7F3F1F35
:10138000273FBFA733273226321703010008080082
:101390000664F79DAF6701100872277F33731B1F28
:1013A0001F0F1E1E1A5212000072277F33735B5FDD
:1013B0000F0E0E1A1A1A10120072277F33731B4F6A
:1013C0004E4E4A020A0818181272277F33731B1FE9
:1013D0001F1E1E5A50100000081010000000383860
:1013E000FCF8FCFCFEF6FFCBFFB5FFB5FFCBFFFF23
:1013F000FFBFFF1FBF0E1F000E00000002020F0CF8
:101400005F5FFFA1FF1FBF317F6DFF03FF9FFF30B5
:10141000FF6DFF43FF9EFF009E0000008080F838B4
:10142000FCF8FCFCFEF6FFCBFFB5FFB5FFCBFFFFE2
:10143000FFBFFF9FFF8EDF008E00000D1F023F3BAE
:101440007F41FF1F7F337F257F017F4FFF197F3251
:101450007F247F247F093F337F063F000000F83858
:10146000FCF8FCFCFEF6FFCBFFB5FFB5FFCBFFFFA2
:10147000FFBFFF1FBF0E1F000E0000041F13BF8C15
:10148000FF27FF317F1F3F017F41FF9FFF33FF2475
:101490007F297F113F123F22770267000000383812
:1014A000FCF8FCFCFEF6FFCBFFB5FFB5FFCBFFFF62
:1014B000FFBFFF1FBF0E1F000E0000000C0C3E30D0
:1014C000FF9FFF019F1F7F71FF09FF87FF3FFF60A5
:1014D000FF4DFF53FF227F0C3E000C101000000058
:1014E000F0F0FC0CFE42FFEDFFE5FFE1F7E1F3E178
:1014F000F3E1F342FF0CFEF0FC00F00000000000FE
:101500000000010103013F3F7F00FFFFFF1FFF00BD
:101510003F3F7F013F010300010000000000787899
:10152000FC84FE82FFAEFFE5FF71FFF1FBF1FB7172
:10153000FBE1F3A2F782E784FE78FC00780000006C
:1015400000001D1C3F021F0103007F7FFF0F7F0073
:101550000F0103021F1C3F001D00000000387C44E7
:10156000FE42FF6EFF65FFF1FF31FBF1FBF1FB3146
:10157000FBF1FB61F362F742FF44FE387C000000A0
:1015800006060F010701030001003F3F7F073F00F0
:1015900007000101030107060F0006000038FC44A4
:1015A000FE42FF6EFF75FFF1FF31FBF1FBF1FB31F6
:1015B000FBF1FB71FB62F742F744FE38FC000101CE
:1015C000030103010301030001001F1F3F031F006C
:1015D0000300010103010301030103000100707016
:1015E000FC8CFE82FFADFFE5FF71FFF1FBF1FB71AB
:1015F000FBE1F3A3F782FF8CFE70FC00700000009B
:1016000008081D081D040F0307007F7FFF0F7F00E0
:101610000F0307040F081D081D000800001010002C
:101620008080C0C0E060F0B0F8D8FC18FEFAFFFB84
:10163000FF7BFFB7FF60FFC0E080C0C0F0F0F80C98
:101640001F0D1F1B3F173F1A3F167F5FFF4FFFD134
:10165000FFDBFF8BDF048F03070307070F0C1F005F
:101660008080C040E0A0F0D0F818FCF8FEFAFF7BC4
:10167000FFF7FFE1F7C0E100C080C0C0E000E00C70
:101680001F0B1F173F1A3F163F1F7F4FFFD1FFD77A
:10169000FF86DF01870307071F1F3F397F0079009F
:1016A0008080C0C0E060F0B0F8D8FC18FEFAFFFB04
:1016B000FF7BFFB7FF60FFC0E080C0C0F0F0F80C18
:1016C0001F0D1F1B3F173F1A3F167F5FFF4FFFD1B4
:1016D000FFDBFF8BDF048F03070307070F0C1F00DF
:1016E00000008080C0C0E060F0B0F8D8FE1AFFFBB8
:1016F000FFFBFFBBFFD0FF20F0C0E0E0F878FC006C
:101700000E0C1F0D1F1B3F173F1A3F167F5FFF4F29
:10171000FF51FF5DFF6DFF06EF03070307060F1084
:1017200008007050F8B8FCECFED6FFDAFFE2FF7E4E
:10173000FF9EFF7DFFBBFF91FB38FD6CFE00EE00BE
:1017400000007030F8E8FCD4FEDAFFE2FF7EFF9E76
:10175000FF7DFFBBFF91FB70F9D8FC00DC000000AF
:1017600000007050F8B8FCECFED6FFDAFFE2FF7E16
:10177000FF9EFF7DFFBBFF91FB38FD6CFE00EE007E
:1017800000007050F8D8FCBCFEECFED6FFDAFFE299
:10179000FF7EFF9DFF7BFFB0FB18FE367F007700CA
:1017A0000010100000000080E0F0F0F0E0E08000A9
:1017B0000000000000000003070F0F0F07070300E1
:1017C00000000000000000000080C0C08000000099
:1017D0000000000000000000000103030100000001
:1017E000000000000000B0F8FCFCF8F0F8F8F8F099
:1017F0008000000000070F0F1F3F3F3F3F1F0707FC
:101800000300000000B8FCFEFEFE7C38FCFCFCF887
:10181000C0800000070F0F3F7F7E787C7E3F0F0F58
:101820000F0700008E9F9F7F6E081C1C081C5E1E09
:101830008C8000070F0F0F070064F0F0F06C0C07AE
:101840000F0F070003030020000004000000000643
:101850000600000606000000000000C0C0000800EE
:101860000003030808B47E7EF7EF7E7E2D187E7697
:10187000F3CF6E7E183C76F3C9C7E6FE7C46DDBE2C
:101880003E3E1D018208080C1E1E3F3E7F7CFE3E30
:101890007F1E3F0C1E000C1F3F217F41FF81FFBDBB
:1018A000FF5DFF217F1F3F80CE4EFF327F317F499A
:1018B000FF44FF60FC187C3C7E42FF8DDF8DDF81A2
:1018C000CF81C342FF3C7E80F0D0FCD4FF5BFF2A77
:1018D000FF28FEE0F880E070F8F8FCE4FFF3FFF882
:1018E000FFFCFE70FE007004EE6CFE3C7F1F3F1F8D
:1018F0003F3C7F6CFE04EE03083E223E223E203237
:101900002A24222A140E083C2E2A1A3C2A3A023A89
:10191000063E2A3E2E2A1E081C0808080609112227
:1019200011090600060F1F3E1F0F0600271E271E67
:10193000F91DA11ED41D771D771D741E271EF91DCC
:10194000271E8F1EF91DD41DAE1D741EAE1D271E31
:10195000771DAA1E271E771D001D6316ED15271E75
:10196000271EF91D861EF91DD41D271E741EF91D84
:10197000F91DD41DA11ED41DAE1D001D741E001D19
:10198000771D3F1DAA1E771D3F1D001D6316ED1517
:10199000501C8C1CC91CA11E3F1D771D061C741EEB
:1019A000061C771D3F1DAA1EC91C8C1C501C741ED2
:1019B0008C1C3F1D771D8F1E771D061C8A19F11583
:1019C000ED15C71B271EC71BAA1E271E851BF91D49
:1019D000741E851B271EC71B7D1E271E851B001D11
:1019E000741E061C501C851B981E001DC71B271E3D
:1019F0006316ED15201B201B5C1B861E851B3F1DDF
:101A0000771D741E3F1D501C201BA11E5C1B851BD7
:101A1000851B741E8C1CC91C3F1DAA1E201B5C1B31
:101A2000851B6316ED15271EF91DD41DAA1EAE1DBC
:101A3000771D3F1D741E001DC91C8C1C8F1E501C61
:101A4000061CC71B741E851B5C1B201B981E5C1B81
:101A5000851B7019F115ED15C71B851BC71BAA1E29
:101A6000501CF21A851B741EC71B501C061C7D1EC1
:101A7000061C001DF21A741E061C501C851BA11E9C
:101A8000001DC71B271E6316ED15001D5C1BB71A32
:101A9000861EF21AD41D271E741E851BC71BD41D5B
:101AA000AA1EF21AB71AF21A741E001D771D501CD6
:101AB0007D1E8C1C3F1D001D6316ED15F21AB71A12
:101AC0006E1A981EAE1D771D3F1D741E001DC91C89
:101AD000F21AAA1EB71A6E1AC71B741E5C1B201BB3
:101AE000F21AAA1EB71A6E1A5619F115E315220832
:101AF000FFFF11111F0E00F8FE1313FEF8007FFF09
:101B00008080FF7F0066EF8989FB7200FFFF898973
:101B100089811C087EFF8181FF7E00030F3CF03C21
:101B20000F0300FFFF8989818100FFFF1111FFF67C
:101B30001C087EFF81897BFA00F8FE1313FEF80073
:101B4000FFFF1C701CFFFF00FFFF8989898126159C
:101B50000715E91407153816A314381698142E081B
:101B60000101FFFF010100FFFF0808FFFF00FFFF69
:101B700089898181000000000000FFFF898981813F
:101B800000FFFF1E78FFFF00FFFF8181FF7E3A0804
:101B9000FFFF0808FFFF00FFFF007EFF81897BFA3F
:101BA00000FFFF0808FFFF0066EF8989FB72007ED7
:101BB000FF8181C342007EFF8181FF7E00FFFF1114
:101BC00011FFEE00FFFF898981812615381638162E
:101BD0009814F0F89C8E8783878E9CF8F00000FEA6
:101BE000FF0303030303070EFCF80000FEFF0303DB
:101BF000030303070EFCF80000FFFF0000000000D5
:101C00000000FFFF0000FEFF8383838383C7EE7C19
:101C1000380000F8FC0E07030303070EFCF8000071
:101C20003F7FE0C08080C0E07F3FFFFF01010101F6
:101C3000010101FFFF0000FFFF0C0C0C0C1C3E77A4
:101C4000E3C100007FFFC0C0C0C0C0E0703F1F0004
:101C5000001F3F70E0C0C0C0E0703F1F00007FFF6A
:101C6000C1C1C1C1C1E3773E1C00001F3F70E0C08D
:101C7000C0C0E0703F1F000000000001FFFF010036
:101C800000008D14A1C881CFD9F102AFA620232175
:101C90009420361579206D214520C522AC1494225C
:101CA0006B22080B0002020200000904000001027E
:101CB0000200000524001001052401010104240292
:101CC00006052406000107058103100040090401F0
:101CD00000020A0000000705020240000007058319
:101CE000024000000403090412010002EF02014057
:101CF0004123368000010102030141726475696E5F
:101D00006F204C4C430041424131313036001F2F8F
:101D100011241FBECFEFDAE0DEBFCDBF11E0A0E09F
:101D2000B1E0ECE3F4E602C005900D92A43CB107EB
:101D3000D9F727E0A4ECB1E001C01D92A93DB2079C
:101D4000E1F71EE0C8E8DEE004C02197FE010E9432
:101D50001632C738D107C9F70E945E2F0C941C3287
:101D60000C94000080915A0208959091D407982312
:101D700029F49091D307982381E009F480E0089535
:101D80009091C206E3ECF6E040E051E067E0268186
:101D900025FD25C0208131812038310504F571856C
:101DA00071111DC05187699FD0011124A657B94FE9
:101DB00015965C9315972E5F3F4F11963C932E938B
:101DC0002281338113963C932E931297283131054B
:101DD0006CF416961C929F5F983008F090E04F5F6D
:101DE0003A968413D4CF9093C206089516965C93C6
:101DF000F2CFEAE8F2E030EB20E146E05C983EBD4D
:101E00004A95F1F72EBD20E8239507C04491408103
:101E10005C9A4EBD8111412D419344912A95B1F7B1
:101E20003395383B49F70DB40895E3ECF6E020E034
:101E3000968195FD15C09F70692F6550770B6230B4
:101E4000710530F4428153814250510953834283DA
:101E5000973030F04281538141505109538342837E
:101E60002F5F3A968213E4CF0895FC018091890296
:101E7000882311F13FB7F89482E08093E900209124
:101E8000F200822F90E01816190614F481E090E019
:101E9000882339F0289844E6409388024091F10065
:101EA0004083222339F02091F200211103C02BE658
:101EB0002093E8003FBF08958FEF9FEF08952FB75D
:101EC000F89483E08093E9009091E800892F807274
:101ED00095FF04C09091F20080E4891B2FBF089504
:101EE0008091800281110DC082E080937C0284E0A9
:101EF00080937D0210927F0210927E0281E0809397
:101F000080028CE792E00895CF93DF931F92CDB7C4
:101F1000DEB76983DC01ED91FC910280F381E02D55
:101F200041E050E0BE016F5F7F4F09950F90DF9158
:101F3000CF91089583E08093E9008091F200882397
:101F400019F08AE38093E80008950E945F0F90E003
:101F50000895CF93DF931F92CDB7DEB7FC01848540
:101F6000958597FD08C02FEF3FEF358724870F90A9
:101F7000DF91CF910895CE0101960E94350F019710
:101F800019F4898190E0F3CF8FEF9FEFF0CF0F939B
:101F90001F93CF93DF931F92CDB7DEB78C01FC0167
:101FA0008485958597FF0BC0CE0101960E94350F61
:101FB000019771F4898190E0F80195878487F80191
:101FC000848595850F90DF91CF911F910F91089592
:101FD0008FEF9FEFF1CFFC018485958597FD0BC0B6
:101FE0009FB7F89482E08093E9008091F2009FBF50
:101FF00090E0019608959FB7F89482E08093E900FD
:102000008091F2009FBF90E0089540917602509138
:102010007702209174023091750242175307B4F48D
:102020009091E8009570E1F39091E80092FD19C05D
:102030008093F100809176029091770201968F73E0
:102040009927892B19F48EEF8093E800809176020E
:10205000909177020196909377028093760281E0C7
:10206000089580E00895DF92EF92FF920F931F93FF
:10207000CF93DF93D82E8A01EB017B01E40EF51E8E
:10208000CE15DF0559F0D7FE12C0FE0184910E94E3
:10209000051021968111F4CF0FEF1FEFC801DF91DA
:1020A000CF911F910F91FF90EF90DF90089588815D
:1020B000EECF0F931F93CF93DF931F92CDB7DEB771
:1020C00082E0898342E450E062EA7CE180E80E9499
:1020D00033100E94700FDC0112960D911C910115B6
:1020E000110589F0D801ED91FC910280F381E02D7A
:1020F000BE016F5F7F4FC801099597FD04C0F801CD
:1021000000851185ECCF89810F90DF91CF911F91D0
:102110000F910895615030F02091F100FC0120836F
:102120000196F8CF289884E6809388020895089550
:10213000FC010E942F11319728F068517C4F8F4F7E
:102140009F4FF9CFAB01FC010E942F116417750757
:102150008E079F07C8F308958F929F92AF92BF9208
:10216000CF92DF92EF92FF920F931F93CF93DF9363
:102170006C017B018A0180911001882309F45AC007
:1021800080918902882309F455C080917B0280FFE9
:1021900005C08091E00082608093E000E801B12CEE
:1021A0008AEFA82E93E0892E2AE3922E209711F42D
:1021B000BB20C9F10E945F0F811108C0AA94AA2018
:1021C000C9F181E090E00E949810F0CF8C171D06B5
:1021D00011F00CF08C2F9FB7F8948092E9002091B9
:1021E000E80025FD02C09FBFE1CF282F30E0C21BD1
:1021F000D30BF701815020F041914093F100FACFC9
:10220000E20EF31EBB2021F09092E800B12CEBCF40
:102210008091E80085FDE7CF9092E800BB24B3945D
:10222000209709F3F3CF5D9884E680937A02101625
:1022300011063CF081E090E0F6019383828310E088
:1022400000E0C801DF91CF911F910F91FF90EF90B7
:10225000DF90CF90BF90AF909F908F900895ABE6A6
:10226000B2E02FB7F8947D918D919C9166B52FBF08
:10227000A89B05C06F3F18F47F5F8F4F9F4F22E0F0
:10228000660F771F881F991F2A95D1F7089520910F
:102290006202E0916002F0916102CF010296909398
:1022A000610280936002222319F085919491089530
:1022B000808191810895CF92DF92EF92FF92CF9328
:1022C000DF930E944711811520E8920791F48091D5
:1022D00071008D7F809371001092910046985F98F5
:1022E00010925F02DF91CF91FF90EF90DF90CF903F
:1022F000089521E020935F02813020E8920751F495
:1023000080915D0290915E029093610280936002E1
:102310000E94471197FD05C020915C02222309F419
:1023200054C020915B02211150C021E02093630230
:10233000EC01DF77209709F04BC081E080936402C5
:1023400046983FE9C32E3FE0D32EE12CF12CCAEF93
:10235000D0E0E0917B07F0917C070995811103C0E3
:1023600081E08093640280916302882329F0809148
:102370006402882309F43FC05F980E9447110097C8
:10238000F1F19C01DE010E94D331DC01CB0129E097
:10239000B595A795979587952A95D1F710929000B6
:1023A0002AE020939100D0929900C09298008093E7
:1023B000650290936602A0936702B09368028091D1
:1023C00071008260809371008DCF10926302B0CF54
:1023D0009E0150E040E060E472E48FE090E00E94F3
:1023E000923169017A0181E0C81AD108E108F10847
:1023F00010926402AECF4699BFCF5F9ABECF8FEFE7
:102400009FEFDC01CBCF9C01E1E7F0E090819D7F65
:10241000908310926202EDE6F7E0F0936102E093A0
:102420006002F0935E02E0935D0231832083738348
:10243000628380E090E8958384830C945B114F92D3
:102440005F926F927F928F929F92AF92BF92CF9244
:10245000DF92EF92FF920F931F93CF93DF934C0184
:102460005901FC2DC02FD0E0CE01880D991D181602
:1024700019060CF06CC020E8821691040CF067C0BD
:102480009B012E0D311D121613060CF060C0603436
:1024900071050CF05CC04115510509F458C0E62FD8
:1024A000E770FE2EDB0177FD179633E0B595A79513
:1024B0003A95E1F73A2F77FF04C0FF2011F03FEF84
:1024C0003A0F662777276819790997FC02C070E0F0
:1024D00060E0803891050CF44BC090E89819961B89
:1024E000A32F032E000CBB0B1A2F10953F3F0CF0AF
:1024F00010E021E08E2D877009F420E0E694E69448
:10250000E694E20EAE0DB11D19971CF028E0E22E04
:10251000E31AE11A310F20E83203D0011124A80D8B
:10252000B91DA60FB71F019F600D711D1124460F25
:10253000571F0F2D0F2C000C110BF33009F41CC189
:10254000C8F4F13009F4D0C0F23009F47CC0DF9156
:10255000CF911F910F91FF90EF90DF90CF90BF90A0
:10256000AF909F908F907F906F905F904F90089565
:10257000902FB5CFFA3FB1F1232F2E0DFB3F39F746
:10258000321729F3BD0166577D4FD12CC12CC916D6
:1025900008F0A4C0FA01EC0DFD1DE491F0E04F013C
:1025A000002E02C0880C991C0A94E2F737FD06C081
:1025B000FB018081E82CE0948E218083FF2061F074
:1025C000373054F45B01F0E8AF0EB11CE92CE09415
:1025D000F50180818E218083FFEFCF1ADF0A6F5FC4
:1025E0007F4FD5CF232F2E0D321709F4B0CFBD0169
:1025F00066577D4FD12CC12CC91608F069C0FA016D
:10260000EC0DFD1DE491F0E04F01002E02C0880C9E
:10261000991C0A94E2F737FD04C0FB0180818829E8
:102620008083FF2051F0373044F45B01F0E8AF0EB7
:10263000B11CF501808189298083FFEFCF1ADF0A61
:102640006F5F7F4FD9CF6FEF70E00F2C02C0660F26
:10265000771F0A94E2F760957095772E232F2E0D41
:10266000321709F474CFFD01E657FD4F6F01B12C0D
:10267000A12CA91638F5FA01EA0DFB1DE491F0E052
:102680002F01002E02C0440C551C0A94E2F737FDBE
:1026900005C0F6018081862384298083FF2059F0BC
:1026A00037304CF44601F0E88F0E911CF401808124
:1026B000872185298083FFEFAF1ABF0A8FEFC81AE1
:1026C000D80AD7CF3F5F4C0F5D1FA058BF4FC8CF70
:1026D0003F5F4C0F5D1FA058BF4F86CF3F5F4C0F31
:1026E0005D1FA058BF4F4CCF6A0D7B1D232F2E0DB1
:1026F000321709F42CCFFD01E657FD4F6F01B12CC5
:10270000A12CA91688F5FB01EA0DFB1D8490912CE4
:10271000002E02C0880C991C0A94E2F780949094D1
:10272000FA01EA0DFB1D6490712C002E02C0660CAC
:10273000771C0A94E2F737FD05C0F60180818821F5
:1027400086298083FF2049F037303CF4F601E058B9
:10275000FF4F8081892187298083FFEFAF1ABF0A4D
:102760008FEFC81AD80ACDCF3F5F4C0F5D1F6C0F9B
:102770007D1FA058BF4FBCCFC92ED12CFA01E60F48
:10278000F71FA657BD4F00E810E00C191D09CC1922
:10279000DD09BE01660F771F41E050E06A010F2C92
:1027A00001C0CC0C0A94EAF7592F2E2D792ECF9325
:1027B000DF93ED01EF96EF9622968590A590FF208E
:1027C00059F08C9C4001AC9C500137302CF4E880CF
:1027D000B094EB20E928E99233233AF0EC90A094EE
:1027E000EA20E828ED920C94F61311965A9529F7F1
:1027F0002A9551F0572D33951124E60FF11DA00FA6
:10280000B11DC00FD11DD9CFDF91CF9111249FCE23
:10281000CF92EF920F93FA0104913196E4904E5FBC
:102820005F4F2223F9F0A1E0B0E03E2D377011F4A4
:10283000B0E0A0E0EE2DE695E695E695EA0FFB2FD9
:10284000F11D0E9FD0010F9FB00D112430E0220F1B
:10285000331FA29FF001A39FF00DB29FF00D112432
:102860004E0F5F1F23E0C22E30E020E00E941F12B7
:102870000F91EF90CF900895CF92EF920F93411563
:10288000510541F1FA0104913196E4904E5F5F4F9A
:102890002223D1F0A1E0B0E03E2D377011F4B0E07A
:1028A000A0E0EE2DE695E695E695EA0FFB2FF11DEB
:1028B0000E9FD0010F9FB00D11242A9FF0012B9F76
:1028C000F00D11244E0F5F1F2AEFC22E30E020E0E2
:1028D0000E941F120F91EF90CF9008952D9A0895A6
:1028E00090E00C9498108FB18095807F669B8860F3
:1028F0001C9B8460089510925A023E985798089540
:102900003E9A579A81E080935A0208958091590225
:1029100091E0892780935902EDE4F2E087818F5F8F
:1029200087830895EDE4F2E087818F5F87830895C0
:102930008CE00E94B50E882329F081E08093730219
:1029400010924C02089581E080934B0280914C02DA
:102950008F5F80934C02089520E04EEE5AE168E1CB
:1029600070E08FE290E00E943C1488E00E94B50E77
:10297000882319F087E080937302089587E080939D
:10298000730210924C02809147028F5F809347023E
:1029900080EE9FEF90934A028093490284E98093EE
:1029A0004802E9E3F2E081E08483158210924B0251
:1029B00080932502EFE1F2E08CE190E09183808347
:1029C0008CE590E09383828380E890E09783868310
:1029D0000895809173022FE1863009F427E28091F7
:1029E000490290914A02281719065CF404979093C3
:1029F0004A0280934902809148028C5F809348028A
:102A0000089580914C028F5F80934C0208958091CD
:102A100073022FE1863009F427E2809149029091F8
:102A20004A022817190661F05CF0049690934A0256
:102A3000809349028091480284508093480208950F
:102A400080914C028F5F80934C02089580917302B5
:102A5000893041F410924B0280914C028F5F809339
:102A60004C02089581E080934B02F6CF109247020A
:102A70001092190210921A0210921B0210921C025C
:102A800010923F02109243021092440210924502AB
:102A9000EDE7F7E08EEC97E01482168239968E17F8
:102AA0009F07D1F789E0E1E1F1E0A0EDB1E001900D
:102AB0000D928A95E1F789E0EAE1F1E0A9EDB1E054
:102AC00001900D928A95E1F789E0E3E2F1E0A2EE50
:102AD000B1E001900D928A95E1F789E0ECE2F1E036
:102AE000ABEEB1E001900D928A95E1F789E0E5E364
:102AF000F1E0A4EFB1E001900D928A95E1F789E051
:102B0000EEE3F1E0ADEFB1E001900D928A95E1F7CF
:102B100089E0E7E4F1E0A6E0B2E001900D928A9549
:102B2000E1F789E0E0E5F1E0AFE0B2E001900D927D
:102B30008A95E1F7109226021092C206E3ECF6E0C5
:102B400080E020E830E0868317823183208311867D
:102B50008F5F3A968930B9F710928F0610929606D9
:102B600010929D061092A4061092AB061092B20627
:102B70001092B9061092C00680E18093390288E174
:102B800080933A0210923B0281E080933C0284E001
:102B900080934102109240021092530230934E02F1
:102BA00020934D0210924C021092180280EE9FEF7B
:102BB00090934A028093490284E98093480286E018
:102BC000809373020895E9E3F2E080E1808380E27C
:102BD00081838AE080937302089586E08093730274
:102BE0000895A3ECB6E024E030E0C9018F70992786
:102BF000FC01ED5FF14FE491F0E0EC5AFF4F1196CC
:102C0000FC93EE938D50924FFC01849190E00396DB
:102C1000880F991F13969C938E931297295F3F4FAD
:102C20001A962C33310509F78091D1079091D2077C
:102C300062E170E00E94EE31892BC9F480911802A4
:102C4000E82FE7709AE0E99FF0011124ED53F94F66
:102C500090E396838F5F803118F480931802089573
:102C600010921802809146028F5F80934602089569
:102C70008091D1079091D20783709927892B29F4ED
:102C8000809118028F5F8093180280911802813121
:102C900058F080917302873041F4809146028F5F33
:102CA0008093460210921802089580914C028F5F23
:102CB00080934C02F7CF80914B0291E0892780935B
:102CC0004B020C9438160C943816E3ECF6E080E0D6
:102CD0009681991F9927991F890F3A9697E0ED31B0
:102CE000F907B1F7811105C0809146028F5F80938B
:102CF000460208958091460290911D02891721F0A5
:102D000080931D0281E0089580E00895109254029E
:102D1000089510925402089520911E02422F50E00F
:102D2000440F551F81E090E0841B950B880F991F7D
:102D300040914D0250914E02840F951F90934E0288
:102D400080934D0281E0282720931E028091580233
:102D50008F5F863018F480935802089510925802BD
:102D6000809154028F5F80935402089580914D02A8
:102D700090914E028C3E2FEF920734F00A97909379
:102D80004E0280934D0208950C94921480914D024E
:102D900090914E028734910534F4019690934E023F
:102DA00080934D0208950C94921480914F0290915B
:102DB0005002863F2FEF920734F002979093500213
:102DC00080934F0208950C94921480914F02909139
:102DD00050028C30910534F002979093500280930A
:102DE0004F0208950C94921480914D0290914E02DE
:102DF0008134910534F0019790934E0280934D02F7
:102E000008950C949214ADE4B2E018969C91189732
:102E10008AE0989FF0011124ED53F94F8681807D5F
:102E20008061868384E080872D913C911197205F9B
:102E30003F4F3183208312962D913C9113972C5E46
:102E40003F4F3383228321E030E0358324839F5F2B
:102E500018969C93089580911E028823E9F0809132
:102E60004F02909150028B3E9F4F0CF440C08091D6
:102E7000D1079091D20762E170E00E94EE31892B78
:102E800011F40E94031780914F0290915002029713
:102E90009093500280934F0280911E0281111BC0BB
:102EA00080914F0290915002889724F58091D1072C
:102EB0009091D20766E170E00E94EE31892B11F407
:102EC0000E94031780914F029091500202969093B6
:102ED000500280934F0280915802853038F0109252
:102EE0005802809154028F5F80935402089510928B
:102EF0001E02D2CF81E080931E02809158028F5F24
:102F000080935802E8CFCF93DF93C091D107D0913F
:102F1000D207CE0168E270E00E94EE31892B29F5DC
:102F2000909155028AE0989FF0011124ED53F94FDA
:102F300086818F7D8061868385E0808720914D0228
:102F400030914E022E5F3F4F3183208320914F02FC
:102F500030915002205F3F4F3383228321E030E0E5
:102F6000358324839F5F90935502CE0166E070E025
:102F70000E94EE31892BC9F4809158028F5F8093B3
:102F800058028930A8F480914D0290914E02019729
:102F900090934E0280934D0280914F029091500287
:102FA00001979093500280934F02DF91CF91089543
:102FB000813130F480914D0290914E020196E8CF1C
:102FC000893178F480914D0290914E020196909350
:102FD0004E0280934D0280914F02909150020196D3
:102FE000E0CF893230F480914D0290914E020197EA
:102FF000EECF813338F38933E8F2813420F2109236
:103000005802D3CF80914F02909150022091CF016E
:1030100030E0821793072CF402969093500280932D
:103020004F0280914F0290915002281739072CF4DB
:1030300002979093500280934F0280914D0290919D
:103040004E02893D2FEF920734F0059790934E0280
:1030500080934D0208950C94861480914F029091B4
:1030600050022091CF0130E0821793072CF4029692
:103070009093500280934F0280914F0290915002A2
:10308000281739072CF402979093500280934F022F
:1030900080914D0290914E028838910534F4059646
:1030A00090934E0280934D0208950C948614809163
:1030B0003A028093CF01EDE4F2E087818F5F87834E
:1030C000089510921E02EDE4F2E087818F5F8783FE
:1030D00008958091D1079091D20783709927892B09
:1030E00029F48091CE018F5F8093CE018091CE0133
:1030F000813138F0809154028F5F80935402109296
:10310000CE0108950C9469180C94691880914D02B1
:1031100090914E022091D1073091D207237033272E
:10312000232B19F52091390228171906F1F0ECF03C
:1031300020914F023091500240913A0250E0241702
:10314000350734F42F5F3F4F3093500220934F02E6
:1031500020914F02309150024217530734F421500E
:1031600031093093500220934F028838910534F48E
:10317000029690934E0280934D0208950C9486140B
:1031800080914D0290914E022091D1073091D2074B
:1031900023703327232B51F0893D2FEF92074CF1F9
:1031A000029790934E0280934D0208952091390228
:1031B000281719068CF720914F0230915002409148
:1031C0003A0250E02417350734F42F5F3F4F309315
:1031D000500220934F0220914F023091500242172B
:1031E0005307D4F6215031093093500220934F02F7
:1031F000D7CF0C94861481E080931E0280915302F5
:1032000080648093530280914D0290914E0297FF0B
:1032100006C0019690934E0280934D0208950C943F
:10322000921481E080931E02809153028064809307
:10323000530280914D0290914E028136910534F0F7
:10324000019790934E0280934D0208950C9492142E
:103250000C94111910922502EDE4F2E080E98683C6
:103260001782118613861092CE0181E080931E0290
:103270001092590280E890E0918380838091470208
:103280008150990B63E070E00E940232DB01A85884
:10329000BE4F8C9190E093838283DB01A756BE4F93
:1032A0008C9190E095838483628708950E947A16BA
:1032B00081110E942A19E0915402F0E0EE0FFF1FE5
:1032C000E352F24F85919491FC010995809153024C
:1032D00087FD05C0809146028F5F80934602089566
:1032E0000E947A1681110E942A19E0915402F0E09E
:1032F000EE0FFF1FE952F24F85919491FC01099561
:103300008091530287FD05C0809146028F5F8093B4
:10331000460208950E947A1681110E942A19E091AE
:103320005402F0E0EE0FFF1FE955F24F85919491A2
:10333000FC0109958091530287FD05C080914602EA
:103340008F5F8093460208959AE0899FF0011124CF
:10335000ED53F94F50E0861708F04AC0968195FD6D
:1033600039C020813181241B350B31832083D90161
:10337000A956B1091F9740F4A281B381AD30B105C0
:103380001CF01297B383A283D901AA54B1095F97A5
:1033900040F4A281B381A433B1051CF41296B38327
:1033A000A283D9019B975F9740F4A281B381AD308E
:1033B000B1051CF01297B383A283D9011B97909794
:1033C00060F4228133812433310524F42E5F3F4F92
:1033D000338322838F5F3A96BECF2B303105D4F7EB
:1033E0002281338121313105ACF322503109F0CFF4
:1033F00008959AE0899FF0011124ED53F94F50E0B0
:10340000968195FD1BC020813181241B350B3183B2
:1034100020832834310594F4228133812032310510
:1034200024F42F5F3F4F3383228322813381203264
:10343000310524F021503109338322838F5F3A967E
:103440006813DECF08959AE0899FF0011124ED53AF
:10345000F94F50E0861760F4968195FD06C02081F3
:103460003181241B350B318320838F5F3A96F2CF55
:103470000895CF92DF92EF92FF920F931F93CF9315
:10348000DF939AE0699FF0011124ED53F94FD901C0
:103490009801082F10E00E581E4F6417B0F4962FB5
:1034A000906996838087B183A08333832283E80168
:1034B0009881C92FD0E0D583C48311866F5F3A9677
:1034C000AE0DBF1D2C0D3D1DE8CFDF91CF911F919B
:1034D0000F91FF90EF90DF90CF900895CF92DF9201
:1034E000EF92FF920F931F930E947A16882301F1A7
:1034F000D12CC12C80ECE82EF12C0AE010E020E861
:1035000030E043E060E083E00E94391A00E310E01D
:1035100020E830E046E063E083E00E94391A0DE1E4
:1035200010E020E231E049E066E081E00E94391AD3
:1035300042E066E080E00E94231A43E069E086E012
:103540000E94231A8091D1079091D20762E370E024
:103550000E94EE31892B19F486E00E94C00E1F9163
:103560000F91FF90EF90DF90CF900C946516CF9263
:10357000DF92EF92FF920F931F930E947A16882397
:10358000B9F0D12CC12C80ECE82EF12C0AE010E02F
:1035900020E830E044E060E083E00E94391A00E374
:1035A00010E020EC30E048E064E083E00E94391A4B
:1035B00042E068E080E00E94231A8091D107909158
:1035C000D20762E370E00E94EE31892B19F488E0A3
:1035D0000E94C00E1F910F91FF90EF90DF90CF904F
:1035E0000C946516CF92DF92EF92FF920F931F9388
:1035F0000E947A168823B9F0D12CC12C80E8E82EDD
:10360000F12C0CE010E020E830E044E060E083E0E2
:103610000E94391A04E210E020EB30E048E064E058
:1036200083E00E94391A41E068E080E00E94A4191A
:103630001F910F91FF90EF90DF90CF900C94651643
:10364000CF92DF92EF92FF920F931F930E947A1610
:103650008823E9F080E2C82ED12C90E5E92EF12CE8
:1036600000E410E020E830E046E060E082E00E9404
:10367000391AD12CC12C20E6E22EF12C0CE010E0FE
:1036800020E231E049E066E081E00E94391A86E0FC
:103690000E94150F42E066E080E00E94231A42E09B
:1036A00069E086E00E94A4191F910F91FF90EF90AE
:1036B000DF90CF900C946516CF92DF92EF92FF923D
:1036C0000F931F930E947A16882379F080E1C82E09
:1036D000D12C98E2E92EF12C00E410E020E830E053
:1036E00049E060E082E00E94391A89E00E94150FEB
:1036F00042E069E080E00E94231A1F910F91FF9041
:10370000EF90DF90CF900C946516CF92DF92EF92FE
:10371000FF920F931F930E947A16882369F180E12C
:10372000C82ED12C98E2E92EF12C00E410E020E123
:1037300030E043E060E082E00E94391AD12CC12CD5
:1037400020E3E22EF12C0CEA10E020E230E045E02C
:1037500063E082E00E94391A30EFC32EDD24DA9450
:1037600048E2E42EF12C00E011E020E130E048E0F6
:1037700065E082E00E94391A88E00E94150F1F91CF
:103780000F91FF90EF90DF90CF900C946516CF9241
:10379000DF92EF92FF920F931F930E947A16882375
:1037A00019F1D12CC12C80E6E82EF12C0EE110E0AD
:1037B00020E830E043E060E081E00E94391AE12C2B
:1037C000FF24F3940CE010E020E031E046E063E0F9
:1037D00081E00E94391A00E310E020E031E049E086
:1037E00066E081E00E94391A41E063E080E00E94D7
:1037F000A41942E069E083E00E94231A1F910F910F
:10380000FF90EF90DF90CF900C946516CF92DF92EF
:10381000EF92FF920F931F930E947A16882349F12B
:10382000D12CC12CE12CFF24F3940FE110E020E80F
:1038300030E042E060E081E00E94391A0AE010E0E6
:1038400020EC30E044E062E081E00E94391A00E3BD
:1038500010E020E431E046E064E081E00E94391AA3
:103860000FE110E020E031E048E066E081E00E94F6
:10387000391A42E062E080E00E94231A42E066E0EA
:1038800082E00E94F91942E068E086E00E94A419F3
:103890001F910F91FF90EF90DF90CF900C946516E1
:1038A000CF92DF92EF92FF920F931F930E947A16AE
:1038B000882301F1D12CC12C80E9E82EF12C00E104
:1038C00010E020E830E043E060E081E00E94391A37
:1038D0000CE210E020E830E046E063E081E00E9486
:1038E000391A0EE110E028EC30E049E066E081E0B2
:1038F0000E94391A41E069E086E00E94A41941E083
:1039000066E080E00E94231A1F910F91FF90EF90D4
:10391000DF90CF900C946516CF92DF92EF92FF92DA
:103920000F931F930E947A16882331F1D12CC12C5A
:1039300080E9E82EF12C0CE010E020E830E042E0D5
:1039400060E081E00E94391A98E4E92EF12C0EE142
:1039500010E020E830E046E062E081E00E94391AA1
:1039600020E9E22EF12C00E310E028EC30E048E002
:1039700066E081E00E94391A42E069E080E00E943E
:10398000231A1F910F91FF90EF90DF90CF900C942E
:103990006516CF92DF92EF92FF920F931F930E94D2
:1039A0007A16882301F1D12CC12CE12CFF24F39449
:1039B0000CE010E020E830E043E060E081E00E94AD
:1039C000391A00E310E020E031E046E063E081E0F6
:1039D0000E94391A0FE110E020EC30E049E066E087
:1039E00081E00E94391A42E069E080E00E94F91902
:1039F0001F910F91FF90EF90DF90CF900C94651680
:103A0000CF92DF92EF92FF920F931F930E947A164C
:103A1000882319F1D12CC12C80ECE82EF12C0CE07C
:103A200010E020E830E043E060E080E00E94391AD6
:103A300000E310E020E830E046E063E080E00E9430
:103A4000391AE12CFF24F3940AE110E020EC30E075
:103A500049E066E081E00E94391A42E066E080E0D9
:103A60000E94231A43E069E086E00E94231A1F9116
:103A70000F91FF90EF90DF90CF900C946516CF924E
:103A8000DF92EF92FF920F931F930E947A16882382
:103A900009F1D12CC12C80E2E82EFF24F3940CE034
:103AA00010E020E830E043E060E081E00E94391A55
:103AB00000E210E020E431E046E063E081E00E94B3
:103AC000391A00E310E020EE30E049E066E081E0E2
:103AD0000E94391A43E069E080E00E94231A1F9196
:103AE0000F91FF90EF90DF90CF900C946516CF92DE
:103AF000DF92EF92FF920F931F930E947A16882312
:103B000001F1D12CC12C88E1E82EF12C0CE010E061
:103B100020E830E043E060E081E00E94391A0EE1E5
:103B200010E020E830E046E063E081E00E94391ACE
:103B300000E310E020E830E049E066E081E00E9428
:103B4000391A41E069E080E00E94231A1F910F9129
:103B5000FF90EF90DF90CF900C946516CF92DF929C
:103B6000EF92FF920F931F930E947A16882379F0A9
:103B700086E0C82ED12C98E2E92EF12C0CE010E062
:103B800020E830E048E060E080E00E94391A43E03D
:103B900068E080E00E94231A1F910F91FF90EF9040
:103BA000DF90CF900C946516CF92DF92EF92FF9248
:103BB0000F931F930E947A16882371F0D12CC12C89
:103BC00084E2E82EF12C00E210E020E830E049E049
:103BD00060E080E00E94391A43E069E080E00E94E2
:103BE000A4191F910F91FF90EF90DF90CF900C944C
:103BF0006516CF92DF92EF92FF920F931F930E9470
:103C00007A168823B9F0D12CC12C80E6E82EF12C4D
:103C10000CE010E020E830E044E060E080E00E944A
:103C2000391A04E310E020EB30E048E064E080E083
:103C30000E94391A43E068E080E00E94F9191F9160
:103C40000F91FF90EF90DF90CF900C946516CF927C
:103C5000DF92EF92FF920F931F930E947A168823B0
:103C600001F1D12CC12C80ECE82EF12C0CE010E0FD
:103C700020E830E043E060E080E00E94391A00E292
:103C800010E020E031E046E063E080E00E94391A75
:103C900000E310E020EC30E049E065E080E00E94C5
:103CA000391A43E069E080E00E94231A1F910F91C6
:103CB000FF90EF90DF90CF900C946516E7E2F2E072
:103CC000838380E890E0918380838091CD01A82F49
:103CD000B0E0A659BE4F9C91928391E095838F5F8F
:103CE00087708093CD01089586E00E945E1E8091CA
:103CF00046028F5F80934602089585E00E945E1E13
:103D0000809146028F5F80934602089584E00E946E
:103D10005E1E809146028F5F80934602089583E085
:103D20000E945E1E809146028F5F80934602089536
:103D300082E00E945E1E809146028F5F8093460261
:103D4000089581E00E945E1E809146028F5F8093FD
:103D50004602089580E00E945E1E809146028F5FB9
:103D60008093460208952091CC012F5F223050F5B8
:103D70002093CC01E091CC0126E0E29FF0011124D8
:103D8000E35DFD4F6083418393838283092E000CA2
:103D9000AA0BBB0B4091190250911A0260911B02B1
:103DA00070911C02840F951FA61FB71F80931902E4
:103DB00090931A02A0931B02B0931C0281E08583AA
:103DC000848308951092CC01D5CF64E170E080E740
:103DD00093E00E94031280914402282F30E099E082
:103DE000899FF0011124E358F84F948191112AC062
:103DF0009581923009F0168290913B0249E0429FF2
:103E0000F001439FF00D1124E358F84F958321E012
:103E1000248320913902285F208320913A0230E0E8
:103E20002A5F3F4F32832183A92FB0E0AA59BE4FAA
:103E30002C912383933061F490914302920F9383EA
:103E4000109243028F5F8930D8F480934402089522
:103E50009230B1F790914502A92FB0E0AA0FBB1F95
:103E6000A05ABE4F2D913C913087278396839F5F48
:103E7000933018F490934502E3CF10924502E0CFBF
:103E8000109244020895CF92DF92EF92FF920F9327
:103E90001F93CF93DF9380913E02882329F1C0EDD9
:103EA000D1E002EE11E02885822F90E0FC01ED5078
:103EB000F24F6491FC01ED5FF14FE491237080912A
:103EC0003A028750990B680F792F711D8091390242
:103ED0008750990B45E85DE08E0F911D0E943C14C0
:103EE00029960C171D07F9F680913C02882361F092
:103EF00060913A0270E0809139022091420243E0E1
:103F00005CE090E00E94081480913F02882309F44D
:103F100046C0C0EDD1E088E1C82E82E0D82E2885C9
:103F20002770E0903A02F12C422F50E000913902C4
:103F300010E06A817B816E0D7F1DEE81FF814E9FB7
:103F4000C0014F9F900D5E9F900D1124680F791F47
:103F500088819981800F911FAC81BD814A9FF001BA
:103F60004B9FF00D5A9FF00D112441EE5BE08E0F38
:103F70009F1F0E943C142996CC16DD0681F62091E5
:103F800043024FE85BE0B701C801DF91CF911F9179
:103F90000F91FF90EF90DF90CF900C940814DF9179
:103FA000CF911F910F91FF90EF90DF90CF900895E8
:103FB0002091D1073091D20780913D028823E9F00A
:103FC000C90163E070E00E94EE31892B59F48091C1
:103FD00040028F5F8093400280913C0291E08927EC
:103FE00080933C02809140028F3138F01092400261
:103FF00010923D0281E080933C0280913E02882332
:10400000B9F0C90163E070E00E94EE31892B29F418
:10401000809140028F5F80934002809140028B3FED
:1040200038F01092400210923E0281E080933C02F0
:1040300080914102823030F484E88093480289E024
:1040400080937302C9016AE070E00E94EE31892B0F
:1040500041F4809142028F5F66E00E94E2319093CA
:104060004202C90165E070E00E94EE31892B61F4E3
:10407000E0EDF1E028E132E080858F5F8F7080878E
:1040800039962E173F07C1F708950E94D81F0E9446
:10409000431F109246028FEF80931D0280915302BE
:1040A0008F7E8093530280914B028823B9F020E0E9
:1040B00041E65EE06CE170E08091490290914A0235
:1040C0000E943C14209147022F5F8091480243E2F6
:1040D0005EE06CE170E090E00E943C14E0914C02E4
:1040E000F0E0EE0FFF1FED5EF14F85919491FC0122
:1040F000099420E041E75AE06AE070E081E290E054
:104100000E943C1420E047EC59E06FE170E084E24B
:1041100090E00E943C148CE00E94B50E882319F0B8
:1041200081E080937302089520E045EC57E070E051
:1041300060E080E290E00E943C148CE00E94B50EAA
:10414000882319F081E0809373020895CF93C09182
:104150001802CF5FC093180220E04FE156E064E000
:1041600070E082E290E00E943C14C53B28F010927F
:10417000180281E080937302CF910895CF9320912C
:10418000D1079091D207822F6AE070E00E94EE3151
:10419000892B29F48091CB018F5F8093CB0120FD87
:1041A00005C08091CA018F5F8093CA018091CA01C6
:1041B0008D3310F01092CA01C091CA01C73008F0C7
:1041C000C0E08091CB01843010F01092CB0120E050
:1041D00041E75AE061E070E084E290E00E943C1424
:1041E00020E040EC55E065E170E08BE390E00E9458
:1041F0003C1420E04CE855E060E370E08EE390E092
:104200000E943C1420E04AEF54E06EE270E084E04B
:1042100090E00E943C142091CB0148E751E06EE011
:1042200070E083E090E00E943C14EC2FF0E0E75A4D
:10423000FE4F20814AE351E068E170E08AE090E0BF
:10424000CF910C943C140F931F93CF930E94BE20E8
:1042500000E210E0C0E02C2F41E05BE0B8018CE60A
:1042600090E00E943C14CF5F085F1F4FC43099F765
:10427000C09100016C2F70E06E5F7F4F83E0660F8E
:10428000771F8A95E1F720E04FEE5AE08CE590E049
:104290000E943C1480E10E94B50E882329F0C530AD
:1042A00018F4CF5FC093000180E80E94B50E882308
:1042B00039F080910001833018F081508093000123
:1042C00084E00E94B50E882321F080910001809344
:1042D0007302CF911F910F910895CF930E94BE203A
:1042E00024E041E05BE068E270E08CE690E00E9450
:1042F0003C1425E041E05BE060E370E08CE690E098
:104300000E943C1426E041E05BE068E370E08CE64C
:1043100090E00E943C1460915A0270E06A5F7F4F07
:1043200083E0660F771F8A95E1F720E04FEE5AE0B1
:104330008CE590E00E943C1480E10E94B50E811152
:104340000E94801480E80E94B50E81110E947B14A7
:104350008CE00E94B50E882381F0C0915A0282E061
:1043600090E00E947C31C81729F06C2F82E090E029
:104370000E94843181E080937302CF9108956F92FF
:104380007F928F929F92AF92BF92CF92DF92EF92E5
:10439000FF920F931F93CF93DF93CDB7DEB72A978A
:1043A0000FB6F894DEBF0FBECDBF982E60911902F4
:1043B00070911A0280911B0290911C022AE0AE01BA
:1043C0004F5F5F4F7A010E943B31F701019000205F
:1043D000E9F73197EE19FF09AE2E07E00E1B10E04A
:1043E000C02E002E000CDD0827E0B22E35E0832E13
:1043F0001C151D04A4F155E00502600111248FE590
:10440000C80ED11CE7E00E0280011124085D1F4F89
:10441000812C0A2C000CBB0887E0782E95E0692ED1
:10442000882D90E08A159B050CF040C08E0D9F1DD5
:10443000FC012081213374F120532A3058F5F1E03A
:104440009F1651F147EF58E170E060E0C601869C8D
:10445000800D911D11240E943C148394E1CFF1E062
:104460009F1671F0189DC001112420E047EF58E11C
:1044700070E060E0815A9F4F0E943C141F5FB8CFEC
:104480001B9DC001112420E043E25EE068E270E081
:104490008896F2CF20E0D3CF43E25EE068E270E09E
:1044A000C801879C800D911D1124D5CF2A960FB687
:1044B000F894DEBF0FBECDBFDF91CF911F910F915A
:1044C000FF90EF90DF90CF90BF90AF909F908F9034
:1044D0007F906F900895E0914C02F0E0EE0FFF1F87
:1044E000E653F44E85919491FC01099580914B021D
:1044F0008823C9F00E94D81F0E94431F20E04EE885
:104500005BE16CE170E083E290E00E943C1420E00B
:104510004EE55BE160E170E089E290E00E943C14CE
:1045200081E00C94BF210895E0914C02F0E0EE0F81
:10453000FF1FE25BF44E85919491FC01099520E008
:1045400040E35BE160E170E08091490290914A02B2
:104550000E943C148091480220E042E15BE160E16E
:1045600070E090E00E943C1480914B02882361F03F
:1045700020E04EE85BE16CE170E083E290E00E94B5
:104580003C1481E00C94BF2108952F923F924F92EA
:104590005F926F927F928F929F92AF92BF92CF92D3
:1045A000DF92EF92FF920F931F93CF93DF93CDB7DC
:1045B000DEB768970FB6F894DEBF0FBECDBF80910F
:1045C0003902282F30E0388B2F872E5F3F4F3C8BEE
:1045D0002B8B80913A02482F50E05A8B498B4E5FCB
:1045E0005F4F5E8B4D8B00914D0210914E024090BB
:1045F0004F025090500252E0450E511C6DE777E09B
:104600007D876C876B017CE07E8780E28B87D6019B
:1046100014968C911497882309F4CDC01596EC91CB
:104620001597F0E0E357FE4FA0808C91A80EBB24B5
:10463000BB1C11968D909C9033ECE32E36E0F32E4C
:104640001501B8E02B0E311C3401E8E06E0E711C30
:10465000D70116962C91169724FF51C025FD4FC007
:104660006D917C911197621573050CF048C01896F6
:104670008C91189790E0FC01E957FE4F4081460F5E
:10468000572F511DA416B506D4F512964D915C9185
:1046900046155705A4F58F579E4FFC018081840F66
:1046A000952F911D8816990654F526FD23C06AE0C2
:1046B00070E08BE092E00E940312D60113962C91D9
:1046C000F70184819581821B9109958384832681DA
:1046D00020642683181619066CF0E085F0E0E55892
:1046E000FE4F8081D70112964C9112976C9190E009
:1046F0000E94B31EF6018581833009F01482FAE02E
:10470000EF0EF11C2DE1E21627E0F20609F0A0CF32
:104710008091530284FF4FC0807609F04CC0809195
:104720005702813009F4AEC108F49CC1823009F40B
:10473000BBC1C501089608171907ECF5C801EB8540
:104740008E0F911DA816B906B4F5C4010896481637
:1047500059068CF5C201FE858F0F911D88169906AA
:1047600054F56AE070E08BE092E00E9403128091C1
:104770005302806480935302D60114961C921497BE
:1047800013968C91E0905102F0905202E81AF108D1
:10479000F0925202E0925102442D602F8AE090E0A4
:1047A0000E94B31E1E141F0434F0442D602F88E8AD
:1047B00093E10E94B31EB9E0CB0ED11CEEECF7E002
:1047C000EC15FD0509F023CF93EC692E96E0792EC8
:1047D0002DE1822E27E0922E53012F843888FEE0AF
:1047E0002F0E311CE988FA882EE0E20EF11CD5016B
:1047F00016968C91169784FF46C085FD44C06D9136
:104800007C91119762157305F4F518962C91189701
:1048100030E0F901E957FE4F4081460F572F511DF7
:10482000EB89FC89E417F50774F512964D915C91BC
:104830004E155F0544F52F573E4FD9012C91240F9B
:10484000352F311DED89FE89E217F307E4F49091CD
:104850003D0291110CC090913E02911108C0F1E00F
:10486000F0933D029091410291509093410286FD58
:104870000AC08062D50116968C936FE070E08DE2DD
:1048800099E00E940312BAE0AB0EB11C8A149B049B
:1048900009F0ADCF8AE8882E86E0982E1401EF84C7
:1048A000F888EEE0EE0EF11C29893A89225F3F4F2D
:1048B000388F2F8BD10115968C9115978823C9F1CC
:1048C0008D919C9111979C012F5F3F4F2E153F05B5
:1048D00084F50796EB89FC89E817F90754F51296D9
:1048E0008D919C919C012F5F3F4F4F89588D2417CC
:1048F0003507FCF407966D897E8968177907CCF433
:1049000080913D02811115C080913E02811111C03C
:104910006FE070E08DE299E00E94031271E0709305
:104920003D0280914102815080934102D101159650
:104930001C92B7E02B0E311CE2ECF6E0E215F30519
:1049400009F0B8CF8091530284FF50C085FD4EC05E
:1049500090915702913009F4C9C008F4B7C0923061
:1049600009F4D6C02F853889225F3F4F02171307FD
:10497000ECF5BB850B0F111DEB89FC89E017F107E6
:10498000ACF529893A89225F3F4F4216530674F5E8
:10499000FE854F0E511C2D893E892415350534F5B1
:1049A00086FD14C06FE070E08DE299E00E94031272
:1049B00080915302806480935302809151029091C0
:1049C00052020197909352028093510280913D02CE
:1049D00081110CC080913E02811108C081E080935A
:1049E0003D028091410281508093410280912C02CE
:1049F000882309F4D0C06091270270912802409169
:104A000029028F8598890E96681779070CF0C3C024
:104A1000CB010896AB89BC89A817B9070CF0BBC0BD
:104A2000242F30E089899A890E96281739070CF0CF
:104A3000B2C0285F3F4FED89FE89E217F3070CF003
:104A4000AAC0E0912A02E73008F07CC0F0E0E55D02
:104A5000FA4D0C9416329A2508280C280F28132892
:104A60001528172800914D0210914E0240904F02D8
:104A70005090500232E0430E511C4CE04E8750E201
:104A80005B8757CE00914D0210914E020E5F1F4F73
:104A900040904F025090500262E0460E511C76E06A
:104AA0007E8786E08B8745CE00914D0210914E02A5
:104AB0000A5D1F4F40904F02509050029FE0490EF8
:104AC000511CA5E0AE87B5E0BB8733CE00914D0207
:104AD00010914E0240904F0250905002F2E04F0E63
:104AE000511C2CE02E8730E23B873CCF00914D02D9
:104AF00010914E020E5F1F4F40904F025090500297
:104B000042E0440E511C5CE15E876CE06B872ACF6B
:104B100000914D0210914E020D5E1F4F40904F02CA
:104B2000509050027AE0470E511C98E29E87AEE208
:104B3000AB8718CF80914102853008F064C28F5F47
:104B40008093410210922C026FE070E08DE298E0B9
:104B50000E94031264E170E080E090E0AB01FC0190
:104B60000E942F1141505109E109F10928F06851C3
:104B70007C4F8F4F9F4FF6CFAB01FC010E942F114E
:104B8000641775078E079F07C8F36EE170E08AE52A
:104B900090E10E9403120E94731484FF07C0809169
:104BA0003A02843318F48F5F80933A020E947314A0
:104BB00085FF07C080913902882319F081508093C6
:104BC00039020E94731487FF07C080913A0288233C
:104BD00019F0815080933A020E94731486FF07C037
:104BE00080913902803718F48F5F8093390288E012
:104BF0000E94B50E882319F088E08093730284E048
:104C00000E94B50E882321F190913B02292F30E0BC
:104C1000F901EF5FFE4F80812B563E4FD9012C9159
:104C2000821316C0911105C08150809301010E942A
:104C3000E51E80913B02823059F48091030181503E
:104C4000809303010E94E51E0E94E51E0E94E51E5E
:104C50000E94731482FF2AC080913B02813049F484
:104C600080910201883029F487E0809302010E943C
:104C7000E51E80913B028330C9F481E080933F02BE
:104C80008091D1079091D2076EE170E00E94EE31E1
:104C9000892B29F4809143028F5F80934302809196
:104CA0004302853018F084E0809343020E9473141D
:104CB00082FD13C080913B02833079F480913F02E2
:104CC000882359F010923F02809104018150809313
:104CD00004010E94E51E1092430280913B0290E085
:104CE000FC01EF5FFE4F20818B569E4FDC019C91B3
:104CF000291728F48FEF820F09F49CC180838091DB
:104D0000D1079091D207FC01E170FF2763E070E0CA
:104D10000E94EE311DE7E12E17E0F12ED701159626
:104D20004C911597242F30E06C91413009F084C1EB
:104D3000009709F091C151E016967C91711150E0F5
:104D4000D70116965C932F563E4FD9012C91620FD6
:104D5000D7016C93423071F411962D913C911297CA
:104D600017964D915C911897240F351F12963C931E
:104D70002E931197613848F4D70111962D913C91EB
:104D8000295F3F4F2834310518F0D70114961C9243
:104D9000B9E0EB0EF11CEC14FD0409F0BFCF0E944A
:104DA000D81F2091D1073091D207C90166E070E089
:104DB0000E94EE316C01892B79F5EAE8F6E041E0DA
:104DC00050E080819181883F6FEF96073CF06281CF
:104DD0007381685F7F4F6934710508F015826581C2
:104DE0006623B1F0029791838083868190E0880FDB
:104DF000991FBA01681B790B82819381860F971FD7
:104E00009383828384818F5F843008F031C18483EF
:104E100037962E163F06A9F6C90163E070E00E949E
:104E2000EE31FC0103EC16E040E1D80114968D91BF
:104E30009C911597181619064CF016968C9116979A
:104E400085FD04C0807B806216968C93D8011696EF
:104E50008C91169786FF0FC0309719F48427169609
:104E60008C93D80117968C9117978F5F853108F036
:104E700001C117968C93D80116968C91169785FDD3
:104E80001BC0C114D10419F48F5F16968C93D801FE
:104E900016968C911697982F9F7018965C9118977C
:104EA000523009F445C4807F943008F046C4D801DC
:104EB00016968C9185FF0FC0309721F48F5FD80133
:104EC00016968C93D80116968C9116978F70863013
:104ED00010F016961C92D8018D919C91803E9F4FA8
:104EE0003CF0D80112968D919C91803E9F4F1CF40E
:104EF000D80116961C92065F1F4FA016B10609F046
:104F000094CF9091530294FF29C08091550286302E
:104F100010F010925502A3ECB6E080E016964C918A
:104F2000169745FD17C04D915C911197415051095D
:104F300011965C934E9318964C911897453051F406
:104F4000309741F4823009F4A5C008F09EC081304A
:104F500009F4A7C08F5F1A96863001F7409151027D
:104F600050915202141615069CF095FD11C0A3EC49
:104F7000B6E016968C911697806216968C931697CB
:104F80001A960A171B07A9F7907B90629093530219
:104F90008091530286FF15C0309721F490E1892754
:104FA00080935302809156028F5F809356028A311C
:104FB00040F080915302109256028F7B8061809363
:104FC000530240915302C9016AE070E00E94EE3141
:104FD0006C0144FF7EC045FDD5C18091570281110F
:104FE0006BC080911E02682F660F680F660F6C5FA2
:104FF00070E0C9010E94EE31892B09F061C04F5F5A
:10500000409353025DC088EE93E00E94B31E9ACD98
:1050100081E080933E0296CD10923B0293CD81E0D9
:1050200080933B028FCD82E0FBCF83E0F9CF84EC0D
:1050300099E0EBCF908363CE433009F084CE309774
:1050400031F416965C9116975F5F16965C93D701C4
:1050500016965C91543040F42F563E4FD9012C9156
:10506000620FD7016C9386CED70116961C926BCE39
:105070001482CECE17961C92179716968C9116977F
:105080008F7B806116968C93F6CE843051F08530FC
:1050900009F060CF12964D915C9113974F5F5F4F6F
:1050A00006C012964D915C91139741505109139689
:1050B0005C934E9312974ECFC114D10409F49FCF45
:1050C00080915302982F9F70943018F0807F8093C6
:1050D0005302CD2899F480912102909122024091AF
:1050E0001F025091200241505109509320024093D9
:1050F0001F0201979093220280932102EF2B49F423
:10510000809123029091240201979093240280932E
:10511000230280911F0290912002883F9F4F34F418
:1051200080E890E09093200280931F0280912102FA
:1051300090912202883F9F4F34F480E890E0909352
:105140002202809321028091230290912402803FC9
:105150009F4F34F480E890E09093240280932302E0
:1051600080912C02F901E170FF27882309F1C90120
:1051700065E070E00E94EE31892B31F480912B02C2
:1051800091E0892780932B02309749F48091270280
:105190009091280201979093280280932702809192
:1051A000270290912802883F9F4F14F410922C02FE
:1051B00080913202882389F080912E028150809361
:1051C0002E029091310221E0922790933102823099
:1051D00020F410923202109231028091380288231A
:1051E00089F080913402815080933402909137028B
:1051F00021E0922790933702823020F410923802F7
:1052000010923702EF2BB9F4809147028150990B2D
:1052100049E1489F9001499F300D1124E0914602D9
:10522000E20FF32FF11DEE0FFF1FE45DF64E8591A7
:105230009491FC01099580912502882309F461C0AD
:1052400020E046EF5EE070E060E080E290E00E94E7
:105250003C1421E046EF5EE068E070E088E290E018
:105260000E943C1422E046EF5EE060E170E080E3E3
:1052700090E00E943C1420E046EF5EE070E060E0C9
:105280008FE290E00E943C1421E046EF5EE068E08F
:1052900070E087E390E00E943C1422E046EF5EE07D
:1052A00060E170E08FE390E00E943C1420E044EC69
:1052B0005EE06CE170E080911F02909120020E94FC
:1052C000081420E044EC5EE06CE170E08091210283
:1052D000909122020E940814C0902302D0902402D0
:1052E00020E042E85EE062E170E0C6010E9408143E
:1052F00020E044EC5EE062E170E0C60108960E94A6
:1053000008142091510230915202121613062CF506
:105310009BEA299FB12C1124B694E0915702F0E04A
:10532000E756FE4F8081899F812D1124869570E27A
:10533000C72ED12CC81AD108CC0CDD1CA12C20E022
:1053400045E25FE06CE370E0C6010E940814A3949C
:10535000F4E0CF0ED11CBA1490F7209153022B87A2
:1053600024FF25C025FF1CC02F7060914F02709153
:10537000500241EA57E180914D0290914E020E9405
:105380003C1415C0309719F44F5F4093530280913D
:1053900053028F70863008F49CCE1092530299CE3F
:1053A00080915702813029F1B0F08230D9F1D301D8
:1053B00016962C91169724FF7BC025FF6CC02F708A
:1053C00012966D917C91139741EA57E18D919C91D2
:1053D0000E943C146DC020915902220F220F8B8530
:1053E0008F70280F60914F02709150024BE851E18D
:1053F000C2CFC0904F02D0905002A0904D02B0900A
:105400004E0220E049E451E1B601C5010E943C147E
:105410002B852F70B601615F7F4F4FE251E1C501CF
:105420000C96ADCFC0904F02D0905002A0904D028C
:10543000B0904E02B601695E7F4F20E04DE151E130
:10544000C5010E943C14B601685E7F4F20E04BE529
:1054500050E1C50140960E943C14250138E1430EFD
:10546000511C2B852F70B601605F7F4F49E55FE0CF
:10547000C2010E943C14B601685F7F4F20E047E301
:105480005FE0C2010E943C1420E04DE25FE0B60103
:10549000C501849674CFF3018085823009F4DDC0A4
:1054A00008F0B9C0882309F4C4C0813009F4CBC026
:1054B000FAE06F0E711C6016710609F078CFD40106
:1054C00015968C911597882369F012966D917C91B1
:1054D000139714962C91149743E658E18D919C9163
:1054E0000E943C14B7E08B0E911C8214930439F790
:1054F0000E94431FEC85FD8584818823A1F0E5810E
:10550000F0E0EE0FFF1FE456FE4F40815181AC8565
:10551000BD8511966D917C9112978C9116962C9168
:1055200090E00E943C14EC85FD853996FD87EC8760
:10553000EE15FF05F9F680912C02882389F0809101
:105540002B02882369F06091290270E020912A02E1
:1055500045E858E180912702909128020E940814A2
:105560000DE212E049E3642E42E0742E9E012F5FAB
:105570003F4F590155E0452ED80115968C9115974E
:10558000882309F48CC014968C911497882309F40D
:1055900086C012966D917C91072E000C880B990B9A
:1055A0002AE0A5010E943B31F50101900020E9F7B6
:1055B0003197EE2EEA18F8018180912CC080D12C11
:1055C0002AE047EF58E1B401C6010E943C14512C77
:1055D0000E2C000CFF08F4E0CF0ED11C852D90E0BE
:1055E0008E159F050CF05BC08A0D9B1DDC012C9174
:1055F00021330CF452C020532A3008F04EC047EF3C
:1056000058E1B401C601549C800D911D11240E94E3
:105610003C145394E3CF8430C1F188F1853009F014
:1056200047CF6281738120E04DE853E18081918111
:10563000CFCE2F7012966D917C9113974FE157E169
:105640008D919C9107C02F70628173814DE156E16D
:10565000808191810E9408142BCF2F70253060F437
:1056600020932602D30112966D917C91139720917D
:1056700026024BED54E1E4CF10922602F3CF2F70B7
:105680006281738149ED53E1E3CF2F7012966D91E2
:105690007C91139747E953E199CE20E0B0CF0A5FA0
:1056A0001F4F6016710609F067CF10E000E020E0A0
:1056B0004AE159E170E060E0C8010E943C14085FD3
:1056C0001F4F0032110599F710E0812F90E02091D3
:1056D00041022150330B8217930774F421E04AE111
:1056E00059E170E060E033E0880F991F3A95E1F7E7
:1056F0000E943C141F5FE9CF80E00E94BF216896A2
:105700000FB6F894DEBF0FBECDBFDF91CF911F91D2
:105710000F91FF90EF90DF90CF90BF90AF909F9050
:105720008F907F906F905F904F903F902F90089553
:105730009B3008F4BCCB807FD80116968C93B7CBF6
:105740001F920F920FB60F9211248F939F93809107
:10575000E1009091E100937F9093E10083FF0FC0FF
:105760001092E90091E09093EB001092EC0092E32C
:105770009093ED001092890298E09093F00082FFE0
:1057800022C093E09093E9009091F200992319F0E0
:105790009AE39093E80090917A02992341F09091D6
:1057A0007A02915090937A02911101C05D9A909182
:1057B0008802992341F09091880291509093880239
:1057C000911101C0289A84FF18C08091E2008E7E5A
:1057D00081608093E2008091E1008F7E8093E10000
:1057E00080917B028E7E806180937B029F918F915E
:1057F0000F900FBE0F901F90189580FFF7CF8091EC
:10580000E2008E7E80618093E2008091E1008E7ED6
:105810008093E10080917B028E7E8160E5CF1F92B4
:105820000F920FB60F921124CF92DF92EF92FF9258
:105830000F931F932F933F934F935F936F937F9398
:105840008F939F93AF93BF93EF93FF93CF93DF9388
:10585000CDB7DEB76C97DEBFCDBF1092E900809167
:10586000E80083FF25C068E0CE0145960E948A10BB
:1058700082EF8093E8008D8987FF39C09091E8001E
:1058800090FFFCCF982F907609F034C19E894F8904
:10589000588D2F89F88C911131C0803861F5809135
:1058A00079028093F1001092F1008EEF8093E8006E
:1058B0006C960FB6F894DEBF0FBECDBFDF91CF91CF
:1058C000FF91EF91BF91AF919F918F917F916F91D8
:1058D0005F914F913F912F911F910F91FF90EF900A
:1058E000DF90CF900F900FBE0F901F9018959EEFF6
:1058F0009093E800C7CF1092F100D5CF913059F4C2
:105900008111D3CF4130510581F6809179028D7F8D
:1059100080937902CACF933049F48111C6CF4130C8
:10592000510519F6809179028260F2CF953041F4E9
:105930008091E80080FFFCCF20682093E300B5CF82
:10594000963009F0A9C00B8D1C8D22E01092E90061
:105950001092770210927602F2122EC01092750207
:10596000109274020E9459101F8299E09983FA8262
:1059700091E09E8390EA98879AEF9987209176022A
:1059800030917702275F3F4F3C832B838D831092AA
:10599000E90010927702109276021093750200933C
:1059A000740249E050E0BE016F5F7F4F80E00E94CB
:1059B00033100E94591079CF10937502009374022E
:1059C0000E94700FDC0112960D911C9101151105BA
:1059D00009F451C1D801ED91FC910480F581E02DCD
:1059E000BE016B5E7F4FC8010995009709F03EC16B
:1059F000F80100851185EACFF3E0FF120EC08F8910
:105A0000882309F440C0823061F440E867E086E012
:105A10009DE10E94EC2E811148CF81E28093EB0042
:105A200047CF813029F440E86BE08AEF9CE1F1CF69
:105A3000833099F70E94700FDC011296ED90FC9074
:105A40008E010F5F1F4F6801E114F10479F0D70157
:105A5000ED91FC910680F781E02DB801C701099511
:105A6000080F111DF701E084F184EECFD8011C92DC
:105A7000F60101900020E9F73197BF016C197D090B
:105A800040E0C601C6CF64EE7CE1FB01449150E0EA
:105A900080E80E94331009CF973009F4BECF9830C8
:105AA00021F481E08093F10000CF993009F0FDCE20
:105AB000837009F0B2CFE5EAF1E081E031E096E3EE
:105AC0002191222371F08093E9003093EB00DF01F4
:105AD00011972C912093EC009093ED008F5F87300D
