:020000040000FA
:100000000C942A0A0C94520A0C94520A0C94520A28
:100010000C94520A0C94520A0C94520A0C94520AF0
:100020000C94520A0C94520A0C9400220C946F22E5
:100030000C94520A0C94520A0C94520A0C94520AD0
:100040000C94520A0C94520A0C94520A0C94520AC0
:100050000C94520A0C94520A0C94520A0C94A12447
:100060000C94520A0C94520A0C94520A0C94520AA0
:100070000C94520A0C94520A0C94520A0C94520A90
:100080000C94EB240C94520A0C94520A0C94520ACD
:100090000C94520A0C94520A0C94520A0C94520A70
:1000A0000C94520A0C94520A0C94520A05A84CCD96
:1000B000B2D44EB93836A9020C50B9918688083CA2
:1000C000A6AAAA2ABE000000803F0300030803047A
:1000D00003080300020203000203030002020302FA
:1000E00002020302010103040203030401010304E9
:1000F00001020306020203060101000000000000E5
:1001000002080000020600000203020103010203CC
:1001100003010205030102070301000003020000BE
:10012000040203010501030305010305050103079B
:1001300005010000000000000108000002030100AA
:100140000301020003020300030301020301020290
:100150000302030203030104030102040302030474
:100160000303010603010206030203060303000062
:100170000000000002080000020702000203020063
:10018000020402000402020003020203020302034B
:100190000202010305010203050102050203020533
:1001A0000102010505010205050100000000000033
:1001B0000208000001020000010300000105030025
:1001C0000101030001020002010503010101030115
:1001D00001020302010103020102030301010303FF
:1001E00001020304010103040102030501010305E7
:1001F00001020306010103060102030701010307CF
:1002000001020000000000000208010102010107D4
:1002100002010201020302070203020401020000BC
:1002200003010000000000000201000002050300BD
:100230000501030105010302050103030501030490
:10024000050103050501030605010307050100007B
:100250000000000001060200010202020102020485
:100260000102020601020301030103030301030566
:100270000301030703010000000000000208020060
:10028000020402000203020001020204020402044A
:100290000303020404030302040203060402000031
:1002A0000000000002080100020601000205010032
:1002B0000304010004040000000000000208000024
:1002C0000207000003060000040600000000000012
:1002D00002080000020702000203020402030000F9
:1002E00000000000010500010105000002070000F8
:1002F00002080000020100000202000002030000E8
:1003000000000000010600010106000002040000D8
:1003100002050000000000000208000002070000C3
:1003200001040000000000000208000002070000B5
:10033000020400000000426967536869656C64004C
:10034000486F6C79506F72740053687572696B6591
:100350006E00547269706C65506F776572005371EE
:10036000756172466C6F7765720046616365005314
:10037000756E456E657267790053686172706E655F
:100380007373005477696E456C656D656E74004CCF
:10039000756E61506F77657200486F6C794865784B
:1003A000005477696E466F7263650053696D706CB7
:1003B000654D616769630053756E4C6967687400C9
:1003C00053696D706C65526563740053696D706C30
:1003D00065436972636C6500202020202020202066
:1003E000202062792040696E615F616E6900202083
:1003F0002020202020202020202020205665722030
:10040000312E32002020202041505052454E544978
:1004100043452057495A41524400202020202020A3
:100420002020594F555220504C4159212100544809
:10043000414E4B20594F5520464F5200414C4C20C5
:10044000434C454152002020202020202020202005
:1004500062792040696E615F616E69002020202012
:100460002020202020202020202056657220312EA0
:1004700032002020202041505052454E54494345DF
:100480002057495A41524400F0445F9569518E68A3
:10049000448C4E6A480909414C4C20434C4541521A
:1004A00000434C45415200467265657374796C6532
:1004B000004E6F7468696E6720746F2074656163A5
:1004C000682E2E2E002020422B19203A204D6F76C8
:1004D0006520646F776E002020422B18203A204D53
:1004E0006F7665207570002D204C4553534F4E207C
:1004F00034202D002020422B1B2C1A203A20526F32
:1005000074617465002D204C4553534F4E203320A9
:100510002D0020201B201A203A204368616E676559
:10052000207368617065002D204C4553534F4E2059
:1005300032202D002020422B41203A205265736545
:1005400074002020412020203A20447261772073DB
:1005500068617065002020182019203A20436861E6
:100560006E67652073697A65002D204C4553534FA3
:100570004E2031202D00F04C594A8D556A716C6D1A
:10058000846C46F059617A48564D5B2020422B1806
:10059000203A00F0484A7A48564D5B2020422B18FA
:1005A000203A00F05F48577D487D483DF04D466851
:1005B000952020422B1B2C1A203A00F05F48577DD3
:1005C000487D483CF05C5346944F8C4D4A8D20202A
:1005D0001B2C1A203A00F05F48577D487D483BF0BD
:1005E000868C6C4C5BF1211A00F05C5346944A4EA9
:1005F00051F0634657515B8DF04C4C4F515B8DF081
:100600005F48577D487D483ACB03C003B703AB032F
:10061000A10399038F03830379036F036A035E03C6
:100620005203490340033603535441474500DB005E
:100630004C616E67756167653A2000467265657347
:1006400074796C650054696D652041747461636BE5
:1006500000417263616465200062792040696E61C7
:100660005F616E69000F2041505052454E5449431E
:10067000452057495A415244200F00F0549556F0F6
:100680004C4A4D4FF0B499D597B4B8A4F097EEA664
:10069000EEBE62792040696E615F616E6900F08133
:1006A0006C8B46F100F0807D48664D4600000000EE
:1006B000000000002040000000000000205020004A
:1006C00000000000503000000000000060600000EA
:1006D000000000000000181800000000000036367E
:1006E000000000000000563600000000000201512A
:1006F000090906000000005F000000000000000083
:100700007F41410041417F00000000000000003FA8
:10071000010101004040407E0000000000003F2138
:100720003D05070070505E427E00000000000000A2
:100730007F63410041637F00000000000808087FDC
:100740000808080008080808080808004444445F2E
:100750004444440041221408142241000808082A95
:100760000808080014141414141414001434141C6D
:10077000141614000808141414222200222214143F
:10078000140808000205023C42422400002B2C7889
:100790002C2B000000242A7A2F2A1200001C62321F
:1007A0002E23140020545E254142200042251208C9
:1007B0002452210020623E633E2302002056495508
:1007C000225840000022147F142200001C22595598
:1007D0004D120C0000004A555529000004643C17D6
:1007E0003C64040004643C1F3C6404001C2241413E
:1007F00041221C001C3E7F7F7F3E1C001C225D5559
:100800005D221C000814224122140800081C3E7FAF
:100810003E1C08007F41414141417F007F7F7F7F37
:100820007F7F7F0040704C434C70400040707C7F65
:100830007C704000010719611907010001071F7F43
:100840001F07010049221449142249000505057DAE
:1008500005050500080808082A1C0800081C2A08C5
:10086000080808000004027F020400000010207F36
:1008700020100000003E414141413E000000427F07
:1008800040000000006251514949460000224149A0
:100890004949360000302824227F2000002F45459A
:1008A00045453900003E494949493200000101618E
:1008B00019050300003649494949360000264949CF
:1008C00049493E000020547E3414600020527F2AA3
:1008D0001A4A3000003C4020041800001E2040202E
:1008E0000204180000104A4A2A100000000845457A
:1008F0004525180000482A3A4A40000000442515C2
:100900003D45400000247E145024000022527F0AFE
:10091000484A340044344F443804180044344F44A7
:1009200039041900002A5A4B4E5A0800002A5A4B23
:100930004E5B080000081414224100000008141443
:10094000224504003F0004443F0404003F000444E7
:100950003F04050000205242424240000020524223
:100960004342410000245444475C040000245444A2
:10097000475C050000003F404040200000003F4031
:100980004140210002020A563F02020002020A56BA
:100990003F02030004043F44545F440004043F4406
:1009A000545F45000008093D4B4908000008093D17
:1009B0004B490A00423A072254444400423A072273
:1009C000554445000002124E4B4A32000002124EBE
:1009D0004B4A330000101048483000000404022243
:1009E00022221C000404022223221D000002021AFB
:1009F000254341000002021A2543450000205748C4
:100A0000484444000020574849444500120A2752F0
:100A1000503A24007F00205242424000304E385469
:100A20000F64780024147F0422523C001824124ED4
:100A3000422418007F002454543F44007F00245473
:100A4000543F45007F002454563D4600023A47403B
:100A5000413E0400023A4740413E0500023A474009
:100A6000433D06004030404D321060004030404D64
:100A7000321161004030404D32156200080402041A
:100A800008101000080402040910110008040204F0
:100A90000A1512007F006A6A7E2A4A007F006A6A8D
:100AA0007F2A4B007F006A6A7E2D4A00006A6A6ACC
:100AB0007F2A4A0030291D4B483C1000122A7F42F1
:100AC00040422400304E38540F443800000A3E4B58
:100AD0004A4A300000080E384614080004071C6219
:100AE000030A0400001C483E241800001E04523F64
:100AF00012120C00002050503E48000000205050C0
:100B00003F244400001C51494A483000000F424134
:100B1000211E00000010696D4B49300024147F0431
:100B2000023E40000010494D4B4930000028187E1D
:100B30000844380024147F0442423C003049251FF9
:100B4000245438004028255735284000100A2E5BD1
:100B5000724A480040300C33404020000004443CBE
:100B6000140C00000001413D090503000020201085
:100B700078040000001010087C0201000018484CA6
:100B8000281800000006424322120E000040487858
:100B9000484000002022223E22222000002828581F
:100BA0007C0800002222124A7F0202000042221F1B
:100BB00002427E000042221F02427F000012121FEA
:100BC000721210000012121F72131000000844432A
:100BD00022120E000008444322120F00080742228E
:100BE0001E020200080742221F0203000042424286
:100BF00042427E000042424243427F0002024F4294
:100C0000221F020002024F42231E030000454A40F9
:100C100020100C0000454A4021100D0040422222C5
:100C20001A264000404222221B26410004043F4471
:100C300044544C0004043F4445544D0000014640D8
:100C400020100F000001464020110F000008444B07
:100C50002A120E000008444B2A120F00080A4A3ECE
:100C600009090800080A4A3E090809000018405806
:100C700020180000020C424C20100E00020C424CC6
:100C800021100D000405453D050504000405453D02
:100C90000504050000007F080810000000007F0820
:100CA000091001000444241F04040400202222220D
:100CB0002222200040412515192700002022127B06
:100CC00006122000404020100807000040300E00AF
:100CD000020C700040300E00020D710040300E001A
:100CE000020D7200003F484848444400003F484815
:100CF00049444500003F48484A45460000024242F8
:100D000022120E000002424223120F000002424251
:100D100022150E0008040204081020000804020432
:100D200009102100080402040A1522002414447F3B
:100D3000041424002414447F051425002414447F43
:100D40000615220002021222520A0600002125295D
:100D50004A42000040704C4350204000404424145C
:100D6000083700000008093F4949480000101C6886
:100D70000818000004040F74020A060000404848E6
:100D800078400000202222223E202000000044540F
:100D9000547C000000424A4A4A4A7E00000445450D
:100DA00025150C00000F4040201F000040201E00B1
:100DB0007F20100000007F4020100800007E42428B
:100DC00042427E00000C4444241C000000064242C3
:100DD00022120E0010121E12127F12002022223A3E
:100DE000262220000001454525150F000041424004
:100DF00020100C000006424322120F000048281C5D
:100E00004878000000100C48380800000804040866
:100E10001010080008000008000008000408080876
:100E2000080808000808080808080808000000006A
:100E3000003E5B4F5B3E3E6B4F6B3E1C3E7C3E1C60
:100E4000183C7E3C181C577D571C1C5E7F5E1C00A6
:100E5000183C1800FFE7C3E7FF0018241800FFE75D
:100E6000DBE7FF30483A060E2629792926407F0520
:100E70000507407F05253F5A3CE73C5A7F3E1C1C36
:100E800008081C1C3E7F14227F22145F5F005F5FF6
:100E900006097F017F006689956A606060606094E2
:100EA000A2FFA29408047E040810207E20100808E7
:100EB0002A1C08081C2A08081E101010100C1E0CF2
:100EC0001E0C30383E3830060E3E0E060000000084
:100ED0000000005F00000007000700147F147F146B
:100EE000242A7F2A122313086462364956205000B0
:100EF00008070300001C2241000041221C002A1C9C
:100F00007F1C2A08083E0808008070300008080886
:100F10000808000060600020100804023E514945A6
:100F20003E00427F400072494949462141494D33C4
:100F30001814127F1027454545393C4A494931412B
:100F4000211109073649494936464949291E0000F9
:100F5000140000004034000000081422411414144E
:100F60001414004122140802015909063E415D593A
:100F70004E7C1211127C7F494949363E4141412243
:100F80007F4141413E7F494949417F090909013E6D
:100F9000414151737F0808087F00417F4100204094
:100FA000413F017F081422417F404040407F021CA6
:100FB000027F7F0408107F3E4141413E7F090909BD
:100FC000063E4151215E7F09192946264949493289
:100FD00003017F01033F4040403F1F2040201F3F4F
:100FE0004038403F631408146303047804036159D4
:100FF000494D43007F414141020408102000414116
:10100000417F0402010204404040404000030708C1
:101010000020545478407F284444383844444428BD
:10102000384444287F385454541800087E09021864
:10103000A4A49C787F0804047800447D40002040EC
:10104000403D007F1028440000417F40007C047830
:1010500004787C080404783844444438FC18242478
:101060001818242418FC7C080404084854545424F8
:1010700004043F44243C4040207C1C2040201C3C75
:101080004030403C44281028444C9090907C44646C
:10109000544C4400083641000000770000004136FF
:1010A000080002010204023C2623263C1EA1A16185
:1010B000123A4040207A38545455592155557941B7
:1010C0002154547841215554784020545579400C8E
:1010D0001E5272123955555559395454545939556F
:1010E0005454580000457C410002457D42000145B2
:1010F0007C40F0292429F0F0282528F07C5455451F
:10110000002054547C547C0A097F493249494932B1
:101110003248484832324A4848303A4141217A3AC6
:1011200042402078009DA0A07D39444444393D4090
:1011300040403D3C24FF2424487E4943662B2FFC3D
:101140002F2BFF0929F620C0887E090320545479EB
:10115000410000447D413048484A32384040227ABC
:10116000007A0A0A727D0D19317D2629292F282639
:101170002929292630484D40203808080808080841
:101180000808382F10C8ACBA2F102834FA00007B9A
:10119000000008142A142222142A140895002200A0
:1011A00095AA005500AAAA55AA55AA000000FF005A
:1011B000101010FF00141414FF001010FF00FF1097
:1011C00010F010F0141414FC001414F700FF0000C9
:1011D000FF00FF1414F404FC141417101F10101F48
:1011E000101F1414141F00101010F0000000001F36
:1011F000101010101F10101010F010000000FF1041
:101200001010101010101010FF10000000FF14003C
:1012100000FF00FF00001F10170000FC04F414146E
:101220001710171414F404F40000FF00F71414143A
:1012300014141414F700F7141414171410101F10BA
:101240001F141414F4141010F010F000001F101FDD
:101250000000001F14000000FC140000F010F0104B
:1012600010FF10FF141414FF141010101F000000C2
:1012700000F010FFFFFFFFFFF0F0F0F0F0FFFFFFC6
:101280000000000000FFFF0F0F0F0F0F384444381D
:10129000447C2A2A3E147E02020606027E027E0258
:1012A00063554941633844443C04407E201E200677
:1012B000027E020299A5E7A5991C2A492A1C4C72B4
:1012C00001724C304A4D4D303048784830BC625A3B
:1012D000463D3E494949007E0101017E2A2A2A2ACB
:1012E0002A44445F444440514A444040444A5140A7
:1012F0000000FF0103E080FF000008086B6B083668
:1013000012362436060F090F0600001818000000D8
:101310001010003040FF0101001F01011E00191DC7
:101320001712003C3C3C3C0000000000F0F89C8E92
:101330008783878E9CF8F00000FEFF0303030303FE
:10134000070EFCF80000FEFF0303030303070EFC77
:10135000F80000FFFF00000000000000FFFF000099
:10136000FEFF8383838383C7EE7C380000F8FC0E86
:1013700007030303070EFCF800003F7FE0C08080F6
:10138000C0E07F3FFFFF01010101010101FFFF00FC
:1013900000FFFF0C0C0C0C1C3E77E3C100007FFF2C
:1013A000C0C0C0C0C0E0703F1F00001F3F70E0C061
:1013B000C0C0E0703F1F00007FFFC1C1C1C1C1E3D9
:1013C000773E1C00001F3F70E0C0C0C0E0703F1FB0
:1013D000000000000001FFFF010000008D14A1C803
:1013E00081CFD9F102AF080B00020202000009040C
:1013F0000000010202000005240010010524010183
:1014000001042402060524060001070581031000DB
:101410004009040100020A00000007050202400022
:1014200000070583024000000403090412010002C2
:10143000EF020140412336800001010203014172A5
:101440006475696E6F204C4C43004142413131302C
:101450003600C42511241FBECFEFDAE0DEBFCDBFBA
:1014600011E0A0E0B1E0E6EFF8E502C005900D92D2
:10147000AC3BB107D9F727E0ACEBB1E001C01D925E
:10148000A03EB207E1F71AE0CAE2DAE004C0219711
:10149000FE010E94732CC932D107C9F70E945B2656
:1014A0000C94792C0C9400008091D60108959091B1
:1014B0006206982329F490916106982381E009F44B
:1014C00080E008954F925F926F927F928F929F92E9
:1014D000AF92BF92CF92DF92EF92FF920F931F9342
:1014E000CF93DF93803891050CF074C0802E912C3F
:1014F000F401E60FF71F1E161F060CF06BC06034D8
:1015000071050CF067C030E0E62FE7707E2EE3E057
:1015100095948794EA95E1F7F3E075956795FA95C8
:10152000E1F7062E000C770BDB01B695BA2FAA2740
:10153000B795A795A80FB91FA850BE4FEA0150E074
:1015400040E0E0E8F0E07F01E81AF90A8A01060FBE
:10155000171F083011050CF03DC00F3FFFEF1F07AC
:101560007CF190E080E05D01E0E8AE0EB11CFC0192
:10157000EC0FFD1FE491F0E02F01072C02C0440C9A
:10158000551C0A94E2F70F3F1007A9F16D01C80E30
:10159000D91EF601608064286082772051F0073000
:1015A000110539F06501C80ED91EF6016080652865
:1015B00060820196821793071CF4E816F906B9F6C3
:1015C0004F5F5F4FA058BF4FC20FD31F84169506C1
:1015D00009F0BCCFDF91CF911F910F91FF90EF9059
:1015E000DF90CF90BF90AF909F908F907F906F9043
:1015F0005F904F9008957110D5CFDBCF90E0E8EF6A
:10160000F1E091119FEF8FEF9193919391939193CB
:101610008150D0F7E8E5F6E0128A118A108A178621
:101620000895EF92FF920F931F93CF93DF93CDB75F
:10163000DEB72A970FB6F894DEBF0FBECDBF6B831F
:101640007C83088719876B817C81E885F985633005
:101650007105A9F4E430F105C1F441110EC0E110A7
:101660001CC082131AC0252F30E02C5F3F4F27701B
:10167000332791E0F216130641F190E026C0643062
:10168000710559F4E330F10541F36E177F07A9F7AF
:101690004E11F3CF5F11F1CF36C06E177F0769F798
:1016A0006230710561F1F8F491E06115710569F03E
:1016B0006130710511F74111EBCFE110DECF8213DC
:1016C000DCCF952F9F2590959170892F2A960FB684
:1016D000F894DEBF0FBECDBFDF91CF911F910F9168
:1016E000FF90EF9008956530710590F265307105B7
:1016F00021F64E11C2CF91E05F11BFCFE6CF41116D
:10170000C7CFE110BACF91E08213B7CFDECF480F39
:10171000592F511D1416150684F5803891056CF566
:1017200097FF02C090E080E04138510514F040E896
:1017300050E0481BFB01E770FF2721E001C0220FAA
:10174000EA95EAF777FF02C0695F7F4FFB0133E05C
:10175000F595E7953A95E1F7F695FE2FEE27F79583
:10176000E795E80FF91FE850FE4F415030F08191A6
:10177000DF011197822B8C93F8CF0895E8EFF1E009
:1017800030EB20E146E05C983EBD4A95F1F72EBD76
:1017900020E8239507C0449140815C9A4EBD811199
:1017A000412D419344912A95B1F73395383B49F740
:1017B0000DB40895FC018091F201882311F13FB727
:1017C000F89482E08093E9002091F200822F90E06B
:1017D0001816190614F481E090E0882339F028984F
:1017E00044E64093F1014091F1004083222339F017
:1017F0002091F200211103C02BE62093E8003FBFA7
:1018000008958FEF9FEF08952FB7F89483E08093AA
:10181000E9009091E800892F807295FF04C09091B3
:10182000F20080E4891B2FBF08958091E9018111A6
:101830000DC082E08093E50184E08093E601109280
:10184000E8011092E70181E08093E90185EE91E0E3
:101850000895CF93DF931F92CDB7DEB76983DC0184
:10186000ED91FC910280F381E02D41E050E0BE015A
:101870006F5F7F4F09950F90DF91CF91089583E0BF
:101880008093E9008091F200882319F08AE3809325
:10189000E80008950E94040C90E00895CF93DF9330
:1018A0001F92CDB7DEB7FC018485958597FD08C0F2
:1018B0002FEF3FEF358724870F90DF91CF91089569
:1018C000CE0101960E94DA0B019719F4898190E00C
:1018D000F3CF8FEF9FEFF0CF0F931F93CF93DF9353
:1018E0001F92CDB7DEB78C01FC018485958597FFEB
:1018F0000BC0CE0101960E94DA0B019771F4898129
:1019000090E0F80195878487F801848595850F908C
:10191000DF91CF911F910F9108958FEF9FEFF1CF3E
:10192000FC018485958597FD0BC09FB7F89482E0F4
:101930008093E9008091F2009FBF90E001960895A6
:101940009FB7F89482E08093E9008091F2009FBFF6
:1019500090E008954091DF015091E0012091DD0178
:101960003091DE0142175307B4F49091E80095706E
:10197000E1F39091E80092FD19C08093F10080910D
:10198000DF019091E00101968F739927892B19F45B
:101990008EEF8093E8008091DF019091E001019645
:1019A0009093E0018093DF0181E0089580E0089545
:1019B000DF92EF92FF920F931F93CF93DF93D82E76
:1019C0008A01EB017B01E40EF51ECE15DF0559F00F
:1019D000D7FE12C0FE0184910E94AA0C21968111AB
:1019E000F4CF0FEF1FEFC801DF91CF911F910F913F
:1019F000FF90EF90DF9008958881EECF0F931F93B3
:101A0000CF93DF931F92CDB7DEB782E0898342E4A4
:101A100050E066EE73E180E80E94D80C0E94150C3D
:101A2000DC0112960D911C910115110589F0D80168
:101A3000ED91FC910280F381E02DBE016F5F7F4F3D
:101A4000C801099597FD04C0F80100851185ECCF08
:101A500089810F90DF91CF911F910F91089561506F
:101A600030F02091F100FC0120830196F8CF2898F6
:101A700084E68093F10108950895AF92BF92CF92CA
:101A8000DF92EF92FF920F931F93CF93DF936C013E
:101A90007B018B01040F151FEB015E01AE18BF081F
:101AA000C017D10759F06991D601ED91FC910190D1
:101AB000F081E02DC6010995892B79F7C501DF91E9
:101AC000CF911F910F91FF90EF90DF90CF90BF903B
:101AD000AF900895FC010E94010E319728F06851E3
:101AE0007C4F8F4F9F4FF9CFAB01FC010E94010E3D
:101AF000641775078E079F07C8F308958F929F920A
:101B0000AF92BF92CF92DF92EF92FF920F931F930B
:101B1000CF93DF936C017B018A0180910B018823B5
:101B200009F45AC08091F201882309F455C08091CC
:101B3000E40180FF05C08091E00082608093E000B6
:101B4000E801B12C8AEFA82E93E0892E2AE3922E89
:101B5000209711F4BB20C9F10E94040C811108C028
:101B6000AA94AA20C9F181E090E00E946A0DF0CF0A
:101B70008C171D0611F00CF08C2F9FB7F8948092F3
:101B8000E9002091E80025FD02C09FBFE1CF282F8A
:101B900030E0C21BD30BF701815020F041914093FC
:101BA000F100FACFE20EF31EBB2021F09092E80084
:101BB000B12CEBCF8091E80085FDE7CF9092E80053
:101BC000BB24B394209709F3F3CF5D9884E6809308
:101BD000E301101611063CF081E090E0F6019383DA
:101BE000828310E000E0C801DF91CF911F910F9137
:101BF000FF90EF90DF90CF90BF90AF909F908F902D
:101C00000895A2EDB1E02FB7F8947D918D919C914C
:101C100066B52FBFA89B05C06F3F18F47F5F8F4F3D
:101C20009F4F22E0660F771F881F991F2A95D1F7D3
:101C300008952091F701E091F501F091F601CF01AF
:101C400002969093F6018093F501222319F0859175
:101C500094910895808191810895CF92DF92EF92BF
:101C6000FF92CF93DF930E94190E811520E892070F
:101C700091F4809171008D7F80937100109291009A
:101C800046985F981092C901DF91CF91FF90EF9035
:101C9000DF90CF90089521E02093C901813020E8A2
:101CA000920751F48091F3019091F4019093F60121
:101CB0008093F5010E94190E97FD05C02091C8017F
:101CC000222309F454C02091C701211150C021E002
:101CD0002093CA01EC01DF77209709F04BC081E027
:101CE0008093CB0146983FE9C32E3FE0D32EE12CF1
:101CF000F12CCAEFD0E0E0915606F0915706099515
:101D0000811103C081E08093CB018091CA018823B7
:101D100029F08091CB01882309F43FC05F980E948D
:101D2000190E0097F1F19C01DE010E949129DC015E
:101D3000CB0129E0B595A795979587952A95D1F779
:101D4000109290002AE020939100D0929900C092C6
:101D500098008093CC019093CD01A093CE01B093D5
:101D6000CF01809171008260809371008DCF1092BD
:101D7000CA01B0CF9E0150E040E060E472E48FE021
:101D800090E00E943D2969017A0181E0C81AD108DA
:101D9000E108F1081092CB01AECF4699BFCF5F9A10
:101DA000BECF8FEF9FEFDC01CBCF9C01E1E7F0E0EE
:101DB00090819D7F90831092F701E8E4F6E0F09324
:101DC000F601E093F501F093F401E093F301318320
:101DD000208389E190E09383828375836483978372
:101DE000868380E090E8918780870C942D0E9C017B
:101DF000E1E7F0E090819D7F90831092F701E8E4A5
:101E0000F6E0F093F601E093F501F093F401E0932E
:101E1000F301318320837383628380E090E89583AC
:101E200084830C942D0E2D9A089590E00C946A0DE5
:101E30008FB18095807F669B88601C9B846008952D
:101E400080389105B8F460347105A0F490E121E088
:101E500061FD24E060FD220F62FD2295687F969F60
:101E6000D0011124A80FA850BE4F0C90022A40FFA9
:101E700002260C9208952F923F924F925F926F929A
:101E80007F928F929F92AF92BF92CF92DF92EF920A
:101E9000FF920F931F93CF93DF93EC018B017A0195
:101EA0006901C61AD70AD7FE03C0D194C194D108DC
:101EB00047018C1A9D0A97FE03C091948194910862
:101EC0008C149D0454F49E2D8F2D7901292F382FC9
:101ED0009C2F8D2FE801092F182FEC16FD0654F4C6
:101EE000902F812F8901292F382F9C2F8D2FE701CB
:101EF000E92EF82E17012C1A3D0A2901401A510A21
:101F000057FE03C0519441945108310137FE03C07C
:101F10008FEF681A780A759467948FEF021713078A
:101F20000CF481E0A82E880FBB08EC16FD06A4F087
:101F300041E0BE01C8018C149D0414F0B801CE012B
:101F40000E94200F6418750877FE04C00A0D1B1D3F
:101F5000620C731C2196E9CFDF91CF911F910F91F5
:101F6000FF90EF90DF90CF90BF90AF909F908F90B9
:101F70007F906F905F904F903F902F9008952F9299
:101F80003F924F925F926F927F928F929F92AF9209
:101F9000BF92CF92DF92EF92FF920F931F93CF9356
:101FA000DF9300D000D0CDB7DEB77C018B01242FAA
:101FB00030E03C832B8381E090E05C01A21AB30AFD
:101FC0001901319421943108220C331CB901600F9E
:101FD000711F41E0C7010E94200FB8018B819C81D5
:101FE000681B790B41E0C7010E94200F41E0B80156
:101FF0008B819C818E0D9F1D0E94200F41E0B801B6
:10200000C7012B813C81821B930B0E94200FD12C96
:10201000C12C81E090E09A8389832B813C81C21698
:10202000D3060CF05DC0B7FC09C0215031093C83D8
:102030002B8332E0230E311CA20CB31C8FEFC81A85
:10204000D80A29813A812E5F3F4F3A832983A20E15
:10205000B31E37016C0C7D1C41E08B809C80800E90
:10206000911EB401C3010E94200F27014C185D0886
:1020700041E0B401C2010E94200F41E048018B8180
:102080009C81881A990AB401C3010E94200F41E083
:10209000B401C2010E94200F4601800E911E41E052
:1020A000B4016B807C806E0C7F1CC3010E94200FEA
:1020B00041E0B40127012B813C81421A530AC2013D
:1020C0000E94200F48018C189D0841E0B401C30113
:1020D0000E94200F41E0B401C2010E94200F9DCF59
:1020E0000F900F900F900F90DF91CF911F910F9154
:1020F000FF90EF90DF90CF90BF90AF909F908F9028
:102100007F906F905F904F903F902F900895DF9257
:10211000EF92FF920F931F93CF93DF937C01D22E08
:102120008B01040F111DEB0177FF02C0D0E0C0E06E
:10213000C8010134110514F080E490E0C817D907F4
:102140003CF44D2DBE01C7010E94200F2196F0CF17
:10215000DF91CF911F910F91FF90EF90DF90089545
:10216000EF92FF920F931F93CF93DF937C018B012C
:10217000C42FD22F0E94870BB8016D0F711D6150C3
:1021800071096034710524F44C2FC7010E94870B3C
:1021900021E04D2FB801C7010E948710C7018C0FA5
:1021A000911D21E04D2FB8010197DF91CF911F9133
:1021B0000F91FF90EF900C9487102F923F924F92C7
:1021C0005F926F927F928F929F92AF92BF92CF92C7
:1021D000DF92EF92FF920F931F93CF93DF93CDB7D0
:1021E000DEB72A970FB6F894DEBF0FBECDBF9A8335
:1021F00089836A3061F5DC0155968C91B8E08B9F3C
:1022000090011124E981FA8181899289820F931FBB
:10221000928B818B108A178681E090E02A960FB608
:10222000F894DEBF0FBECDBFDF91CF911F910F910C
:10223000FF90EF90DF90CF90BF90AF909F908F90E6
:102240007F906F905F904F903F902F9008956D30EA
:1022500019F329813A813A872987D9011F96AD90D0
:10226000BC90B0E8AB16B1040CF07BC0F901C1889A
:10227000D288F0E4CF16D1040CF073C0D901559682
:102280006C90559745E09501649E200D311D1124F9
:10229000121613060CF065C0262C312C910153E068
:1022A000220F331F5A95E1F72C0D3D1D1216130610
:1022B0000CF057C05496BC91BB83E985FA85F3892D
:1022C000FC83649FB00111249B01245D314F3A834C
:1022D0002983712CE981FA818491F5E07F1201C094
:1022E00080E0460138E0532E282F30E03E832D83D6
:1022F0004C8080FF4B80411004C03B818C8138179B
:10230000E1F010E000E00615C0F4D501A00FB11F08
:10231000B887AF83F12CE12CE61460F4B701680DA7
:10232000791D442D8F8198850E94200FBFEFEB1AF5
:10233000FB0AF2CF0F5F1F4FE6CF8D819E819595EF
:1023400087955A94820C931C5110CECF7394E981D7
:10235000FA813196FA83E983A20CB31CF6E07F126E
:10236000B9CFA985BA8555962C915597422F50E043
:102370001F968D919C91B6E02B9F800D911D11248D
:10238000E985FA85908B87872689222309F444CF33
:102390006AEF64039001659F300D112420583F4F70
:1023A000281739070CF038CFDF010190F081E02DBC
:1023B0000190F081E02D6AE0CD0109952DCF0F93BA
:1023C0001F93CF93DF938C01D0E0C0E0F801EC0FB6
:1023D000FD1F6491662341F088E596E00E94DD10C0
:1023E000892B11F02196F2CFCE01DF91CF911F9171
:1023F0000F9108950895089590E080E00895CF9298
:10240000DF92EF92FF920F931F93CF93DF93182FDA
:10241000F62EE22ED42EEA01FE01449180E1840FD3
:10242000833038F1F0EFCF1216C0403FA0F41937D7
:1024300018F088E0F80E10E0E8E04E9FA0011124AB
:102440004455594F6F2D70E008E028E0812F90E04F
:102450000E94620A185F21968C2F8D198E15E0F26A
:10246000DF91CF911F910F91FF90EF90DF90CF9070
:102470000895C42EF0CF88E00E94570A882349F0BF
:1024800064E670E080E793E00E94F70E83E090E05E
:10249000089590E080E008952F923F924F925F92CE
:1024A0006F927F928F929F92AF92BF92CF92DF9264
:1024B000EF92FF920F931F93CF93DF93EC011C01D8
:1024C00088EB281A8EEF380AD101CD90DD90ED907F
:1024D000FC9020E030E0A901C701B6010E94B02BBA
:1024E000181634F52AE037ED43E25CE3C701B60184
:1024F0000E94B02B181634F52DEC3CEC4CEC5DE34F
:10250000C701B6010E94A0292B013C0146015701D9
:10251000A5019401C701B6010E94172AA3019201E7
:102520000E94B52BF10160837183828393830AC07B
:102530002AE037ED43E25CEBC701B6010E940D2AA9
:1025400087FD8CC03E01FBEA6F1AFEEF7F0AD301C4
:102550008C91811130C0B12CA12C25E0522E912CF0
:10256000812C5A9C60015B9CD00C1124CC0EDD1E8A
:10257000B2EACB0ED11C589CD001599CB00D11244D
:10258000AC0FBD1FFD0132961296EC90F1800281D6
:1025900013812481F601408151816281738184819C
:1025A0000E94110B81114DC1FFEF8F1A9F0A80E22B
:1025B0008816910401F788E00E94570A882309F4DD
:1025C000DAC10E94180F82FF5AC0809171008D7F7E
:1025D000809371001092F70188E496E09093F601E1
:1025E0008093F5019093F4018093F30180E793E0E9
:1025F000909349068093480684E690E090934B06BA
:1026000080934A0628EB31E030934D0620934C0628
:1026100090934F0680934E062CED30E03093510698
:102620002093500690935306809352060E942D0EDD
:10263000FE01CE0180569F4F158214823596E81711
:10264000F907D1F7FE01EC5BFE4F1082D3018C91AC
:10265000882309F490C181E090E070C146015701E0
:10266000B7FAB094B7F8B0942DEC3CEC4CEC5DE3C9
:10267000C501B4010E94A0292B013C0149CF5E0194
:10268000BCEBAB1ABEEFBB0AF5015080FFE1F515BC
:1026900008F471C1652C712C85E0589EF00111245D
:1026A0006F0192E0C90ED11CCC0EDD1EEC0FFD1F98
:1026B000DE01AE5BBE4F8D919C9111979583848313
:1026C00013968D919C9111979383828312968C918E
:1026D0008683912C812C85E0482E851408F041C119
:1026E000489CD001499CB00D1124AC0FBD1FFD01C9
:1026F00032961296EC90F180028113812481D601EA
:102700004C9111965C91119712966C9112971396B9
:102710007C91139714968C910E94110BBFEF8B1A2A
:102720009B0A8823D1F2469CF001479CF00D1124AE
:10273000EC0FFD1F158214821EC18F5F80832CC198
:10274000E95BFE4F8081883049F481E0808362E359
:1027500070E088EB91E00E94F70E24C18F5FF6CF06
:10276000815030C1E95BFE4F8081813049F488E0BF
:10277000808362E370E088EB91E00E94F70E29C14C
:102780008150F6CF815038C1EE5BFE4F8081918140
:102790008330910501F178F481309105A1F0029721
:1027A000B9F088E0D8018C9362E370E088EB91E0A7
:1027B0000E94F70E31C18430910581F0059789F7A9
:1027C00081E090E002C082E090E091838083E9CFD5
:1027D00083E090E0FACF84E090E0F7CF85E090E0EE
:1027E000F4CF8F5F80833AC1EE5BFE4F8081918191
:1027F0008330910501F178F481309105A1F00297C1
:10280000E9F088E0D8018C9362E370E088EB91E016
:102810000E94F70E32C18430910551F0059789F777
:1028200084E090E002C085E090E091838083E9CF6E
:1028300083E090E0FACF82E090E0F7CF81E090E093
:10284000F4CFBFEFAB1ABB0AE0E2AE16B10409F059
:1028500086CEB12CA12C95E0592E912C812C5A9C1E
:1028600060015B9CD00C1124CC0EDD1E92E0C90EE1
:10287000D11C589CF001599CF00D1124EC0FFD1F48
:10288000EE55FF4FD601EC901196FC9011971296E1
:102890000C91129713961C91139714962C914081CA
:1028A00051816281738184810E94110B811108C062
:1028B000BFEF8B1A9B0AE0E28E169104D1F67BCE15
:1028C000FFEFAF1ABF0A80E2A816B10431F680917B
:1028D00071008D7F809371001092F70188E496E07B
:1028E0009093F6018093F5019093F4018093F301A6
:1028F0008BE092E0909349068093480688EC90E044
:1029000090934B0680934A0627E134E030934D06BE
:1029100020934C0690934F0680934E068DE298E0EC
:10292000909351068093500680E991E0909353066E
:10293000809352060E942D0E84E090E0DF91CF91AB
:102940001F910F91FF90EF90DF90CF90BF90AF90CD
:102950009F908F907F906F905F904F903F902F90BF
:10296000089564E670E080E793E00E94F70ED501D9
:102970008C918F5F8C9380E80E94570A882391F096
:102980000E94180FFE0182FFDBCEEB5BFE4F8081C1
:10299000833009F0D2CE108268EB71E08CED90E0CC
:1029A0000E94D50E80E10E94570A882391F00E9470
:1029B000180FFE0182FFD6CEEB5BFE4F80818111A6
:1029C000CFCE83E080836CED70E088EB91E00E94D5
:1029D000D50E80E40E94570A8E010C5A1E4F8823A0
:1029E000D9F00E94180FFE0182FFCECEEA5BFE4FA7
:1029F00080818111C7CE87E0808380E090E0A0E8ED
:102A0000BFE3F10180839183A283B3836CED70E017
:102A100088EB91E00E94D50E0E94180F86FF0DC032
:102A20000E94180F82FD09C088E0F801808362E3EC
:102A300070E088EB91E00E94F70E80E20E94570A56
:102A40008823D9F00E94180FFE0182FFCDCEEA5BE9
:102A5000FE4F8081873009F0C4CE108280E090E084
:102A6000A0E8BFEBF10180839183A283B38368EB7D
:102A700071E08CED90E00E94D50E0E94180F85FF4A
:102A80000DC00E94180F82FD09C088E0F801808304
:102A900062E370E088EB91E00E94F70EFE01E05BDC
:102AA000FE4F80818F5F808339968081882339F043
:102AB000C95ADE4F88819981019699838883D8010C
:102AC0008C91882311F081508C9390E080E036CF78
:102AD000FC01EB5BFE4F108231961082319624E0B0
:102AE0002083E62FF0E0EE0FFF1FE05FFE4F5081E6
:102AF0004181FC01EC55FF4F9C012C5B3E4F118244
:102B000010823596E217F307D1F7252F342FDC0119
:102B1000AE55BF4F8E5B9E4FF90174913196649113
:102B20003196449150E03196E4914115510589F078
:102B30007C9311966C93119713965C934E93129716
:102B40001496EC9314972C5F3F4F1596A817B9076E
:102B500019F708951F93CF93DF93EC0188E00E944B
:102B6000570A882309F469C08B819C81FC01E85BCA
:102B7000FE4F10821182128213821A81113059F194
:102B800048F0123009F445C0133009F448C090E011
:102B900080E01DC0FC01EF5AFE4F60810E94681565
:102BA0008B819C81FC01EB5AFE4F1082349610827F
:102BB0008E5B9E4F22E030E0FC013183208364E68F
:102BC00070E080E793E00E94F70E82E090E0DF91F2
:102BD000CF911F910895FC01EF5AFE4F60810E9432
:102BE00068158B819C81FC01EB5AFE4F1082349654
:102BF00010838E5B9E4F22E030E0FC013183208306
:102C000064E670E080E793E00E94F70E83E090E0D6
:102C1000DECFFC01EB5AFE4F21E02083EACFFC011E
:102C2000EA5AFE4F808191E08927808364E670E054
:102C300080E793E00E94F70EAACF80E80E94570A2F
:102C4000882359F08A81882341F081508A8362E386
:102C500070E088EB91E00E94F70E80E10E94570A35
:102C6000882359F08A81833040F48F5F8A8362E33E
:102C700070E088EB91E00E94F70E0B80DC81C02DA4
:102C8000C85BDE4F2DEC3CEC4CEC5DE36881798158
:102C90008A819B810E94A129688379838A839B838F
:102CA00076CF60E00C946815FC01248135812F5F9C
:102CB0003F4F3583248390E080E00895FC0101902C
:102CC0000020E9F73197AF01481B590BBC0188E59B
:102CD00096E00C943D0D8FE891E00C945E16CF9336
:102CE000DF930E94DF11EC010E946B168C0F9D1F79
:102CF000DF91CF910895CF93DF93EC010E94FE0AFC
:102D00008A819B81DC01ED91FC910480F581E02DAD
:102D10000995E8E5F6E0108A1786128A118A81EA99
:102D200094E0DF91CF910C946F168F929F92AF92A7
:102D3000BF920F931F93CF93DF93CDB7DEB7A197C9
:102D40000FB6F894DEBF0FBECDBF19A2423008F413
:102D50004AE08E010F5D1F4F842E912CB12CA12CC7
:102D6000A50194010E946F29E62FB901CA01EA303A
:102D7000F4F4E05DD801EE938D01232B242B252B59
:102D800079F790E080E0109719F0CD010E945E166F
:102D9000A1960FB6F894DEBF0FBECDBFDF91CF91E5
:102DA0001F910F91BF90AF909F908F900895E95C15
:102DB000E1CFCF93DF930E945E16EC010E946B1669
:102DC0008C0F9D1FDF91CF9108952F923F924F92CC
:102DD0005F926F927F928F929F92AF92BF92CF92AB
:102DE000DF92EF92FF920F931F93CF93DF93CDB7B4
:102DF000DEB7A9970FB6F894DEBF0FBECDBF7C013A
:102E0000122FD32E4B835C83FC01E45BFE4F80804A
:102E10009180A280B380262E312CB101032C000CAE
:102E2000880B990B0E94C12A20E030E040EE50E46C
:102E30000E94B52BA50194010E94B52B2B013C01EA
:102E4000F701EA5BFE4F80812D2D281B330BB90162
:102E5000072E000C880B990B0E94C12AF701E85B32
:102E6000FE4F20813181428153810E94A02920E0C0
:102E700030E040E050E40E94A0299B01AC010E9498
:102E8000A12920E030E040E05EE30E94B52B6B0119
:102E90007C012BED3FE049E450E40E94B52B6A87AA
:102EA0007B878C879D870E94122A6E8B7F8B888FF1
:102EB000998F6A857B858C859D850E94222C6A8FDF
:102EC0007B8F8C8F9D8F38E0139FB0011124072ECC
:102ED000000C880B990B0E94C12AA50194010E9445
:102EE000B52B6E837F83888799879B01AC016E89A0
:102EF0007F89888D998D0E94B52B6A877B878C8707
:102F00009D872E813F81488559856A8D7B8D8C8D6B
:102F10009D8D0E94B52B6E837F8388879987005E85
:102F20008B819C818330910509F49BC200F581302F
:102F3000910509F4ABC0029709F448C2A9960FB6EF
:102F4000F894DEBF0FBECDBFDF91CF911F910F91DF
:102F5000FF90EF90DF90CF90BF90AF909F908F90B9
:102F60007F906F905F904F903F902F9008958430A6
:102F7000910509F485C3059709F720E030E0A90120
:102F8000C501B4010E94B52B6E877F87888B998B12
:102F900020E030E040E051E4C501B4010E94B52BCF
:102FA0006B017C01AC019B016A8D7B8D8C8D9D8DAD
:102FB0000E94B52B2E813F81488559850E94A12909
:102FC00020E030E040E052E40E94A1290E94892ADA
:102FD0006A8B7B8B8C8B9D8B602F000F770B880B04
:102FE000990B0E94C12A4B015C01A70196016E89D1
:102FF0007F89888D998D0E94B52B2A853B854C85CC
:103000005D850E94A129A50194010E94A1290E9429
:10301000892A6B012E853F85488959896A8D7B8D68
:103020008C8D9D8D0E94B52B2E813F8148855985C1
:103030000E94A12920E030E040E052E40E94A12952
:103040000E94892A2B012E853F85488959896E89DE
:103050007F89888D998D0E94B52B2A853B854C856B
:103060005D850E94A129A50194010E94A1290E94C9
:10307000892A4B012A893B89A601B201C4010E9419
:103080003B0F9201A4016A897B8985C120E030E071
:1030900040E05FE3C701B6010E94A1292BED3FE0AC
:1030A00049E450E40E94B52B4B015C010E94122AB6
:1030B0006A8B7B8B8C8B9D8BC501B4010E94222C6B
:1030C0006E877F87888B998B20E030E040E85FE354
:1030D000C701B6010E94A1292BED3FE049E450E46D
:1030E0000E94B52B4B015C010E94122A6E8F7F8FCC
:1030F00088A399A3C501B4010E94222C4B015C0155
:1031000020E030E040EC5FE3C701B6010E94A12956
:103110002BED3FE049E450E40E94B52B6B017C01AC
:103120000E94122A6AA37BA38CA39DA3C701B601A8
:103130000E94222C6B017C012E8D3F8D48A159A14C
:10314000C301B2010E94B52B23EF34E045EB5FE3EE
:103150000E94172A2A853B854C855D850E94A129FE
:103160006E8F7F8F88A399A3A5019401C301B2013B
:103170000E94B52B23EF34E045EB5FE30E94172A52
:103180002E813F81488559850E94A1296EA37FA386
:1031900088A799A72AA13BA14CA15DA1C301B201B7
:1031A0000E94B52B23EF34E045EB5FE30E94172A22
:1031B0002A853B854C855D850E94A1296AA37BA356
:1031C0008CA39DA3A7019601C301B2010E94B52B58
:1031D00023EF34E045EB5FE30E94172A2E813F8105
:1031E000488559850E94A1294B015C012E853F85A8
:1031F00048895989C301B2010E94B52B23EF34E0FD
:1032000045EB5FE30E94172A2E813F81488559854F
:103210000E94A12920E030E040E052E40E94A12970
:103220000E94892A6E877F87888B998B602F000F79
:10323000770B880B990B0E94C12A6B017C012A89AC
:103240003B894C895D89C301B2010E94B52B23EFF4
:1032500034E045EB5FE30E94172A2A853B854C85C5
:103260005D850E94A129A70196010E94A1290E94C3
:10327000892A6A8B7B8B8C8B9D8B2A8D3B8D4C8D09
:103280005D8DC301B2010E94B52B23EF34E045EB05
:103290005FE30E94172A2E813F81488559850E944D
:1032A000A12920E030E040E052E40E94A1290E94E0
:1032B000892A6E837F83888799872E893F89488DE5
:1032C000598DC301B2010E94B52B23EF34E045EBC9
:1032D0005FE30E94172A2A853B854C855D850E9405
:1032E000A129A70196010E94A1290E94892A6A8723
:1032F0007B878C879D872E853F854A895B896E8178
:103300007F818A859B850E943B0F20E030E040E072
:1033100052E46EA17FA188A599A50E94A1290E94CF
:10332000892A6E8B7F8B888F998FA70196016E8D6E
:103330007F8D88A199A10E94A1290E94892A2B0131
:103340002E893F89AB016E857F858A899B890E9482
:103350003B0F20E030E040E052E4C501B4010E94A0
:10336000A1290E94892A4B01A70196016AA17BA18C
:103370008CA19DA10E94A1290E94892A6B01940120
:10338000AB016E897F89C2010E943B0F2E813F8174
:103390004A855B85B401C601A9960FB6F894DEBFD5
:1033A0000FBECDBFDF91CF911F910F91FF90EF9096
:1033B000DF90CF90BF90AF909F908F907F906F9055
:1033C0005F904F903F902F900C943B0FB101660F90
:1033D000771F660F771F072E000C880B990B0E9432
:1033E000C12AA50194010E94B52B0E94902AF62EB5
:1033F00020E030E040E052E46E817F81888599854D
:103400000E94A1290E94892A4B01602F000F770B8F
:10341000880B990B0E94C12A2A853B854C855D85C6
:103420000E94A1290E94892ACB014F2DB401A9969F
:103430000FB6F894DEBF0FBECDBFDF91CF911F91C5
:103440000F91FF90EF90DF90CF90BF90AF909F9043
:103450008F907F906F905F904F903F902F900C9443
:10346000BF0F2BEA3AEA4AE25FE3C701B6010E94C6
:10347000A1292BED3FE049E450E40E94B52B4B011C
:103480005C010E94122A6A8B7B8B8C8B9D8BC50101
:10349000B4010E94222C6E877F87888B998B2BEA40
:1034A0003AEA4AEA5FE3C701B6010E94A1292BED7F
:1034B0003FE049E450E40E94B52B6B017C010E947F
:1034C000122A4B015C01C701B6010E94222C6B013C
:1034D0007C01A5019401C301B2010E94B52B23EF29
:1034E00034E045EB5FE30E94172A2A853B854C8533
:1034F0005D850E94A1296E8F7F8F88A399A3A70164
:103500009601C301B2010E94B52B23EF34E045EBD5
:103510005FE30E94172A2E813F81488559850E94CA
:10352000A1294B015C012E853F8548895989C3013A
:10353000B2010E94B52B23EF34E045EB5FE30E941C
:10354000172A2E813F81488559850E94A12920E0B4
:1035500030E040E052E40E94A1290E94892A6E874F
:103560007F87888B998B602F000F770B880B990BC7
:103570000E94C12A6B017C012A893B894C895D89A3
:10358000C301B2010E94B52B23EF34E045EB5FE3AA
:103590000E94172A2A853B854C855D850E94A129BA
:1035A000A70196010E94A1290E94892A6A8B7B8B20
:1035B0008C8B9D8B2A8D3B8D4C8D5D8DC301B20113
:1035C0000E94B52B23EF34E045EB5FE30E94172AFE
:1035D0002E813F81488559850E94A12920E030E055
:1035E00040E052E40E94A1290E94892A6E837F83D1
:1035F000888799872E893F89488D598DC301B201EB
:103600000E94B52B23EF34E045EB5FE30E94172ABD
:103610002A853B854C855D850E94A129A7019601DD
:103620000E94A1290E94892A2B012E853F854A8963
:103630005B896E817F81C2010E943B0F20E030E0F8
:1036400040E052E4C501B4010E94A1290E94892AE8
:103650004B01A70196016E8D7F8D88A199A10E94D3
:10366000A1290E94892A6B019401AB016E857F8597
:103670008A899B890E943B0F2E813F81A2018ACEBD
:103680002BEA3AEA4AEA5EE3C701B6010E94A129A1
:103690002BED3FE049E450E40E94B52B4B015C0167
:1036A0000E94122A6E877F87888B998BC501B4018F
:1036B0000E94222C6A8B7B8B8C8B9D8B2BEA3AEAA7
:1036C0004AE25FE3C701B6010E94A1292BEA3AEA68
:1036D0004AEA5EE30E94A1292BED3FE049E450E471
:1036E0000E94B52B4B015C010E94122A6A8F7B8FCE
:1036F0008C8F9D8FC501B4010E94222C6E8B7F8B15
:10370000888F998F2BEA3AEA4AEA5FE3C701B6014C
:103710000E94A1292BEA3AEA4AEA5EE30E94A12923
:103720002BED3FE049E450E40E94B52B6B017C0196
:103730000E94122A4B015C01C701B6010E94222C93
:103740006B017C01A5019401C301B2010E94B52B5C
:1037500023EF34E045EB5FE30E94172A2A853B857F
:103760004C855D850E94A1296E8F7F8F88A399A3C8
:10377000A7019601C301B2010E94B52B23EF34E0EB
:1037800045EB5FE30E94172A2E813F8148855985CA
:103790000E94A1294B015C012E893F89488D598DDA
:1037A000C301B2010E94B52B23EF34E045EB5FE388
:1037B0000E94172A2E813F81488559850E94A129A0
:1037C00020E030E040E052E40E94A1290E94892AD2
:1037D0006E8B7F8B888F998F602F000F770B880BF4
:1037E000990B0E94C12A6B017C012A8D3B8D4C8D67
:1037F0005D8DC301B2010E94B52B23EF34E045EB90
:103800005FE30E94172A2A853B854C855D850E94CF
:10381000A129A70196010E94A1290E94892A6A8FE5
:103820007B8F8C8F9D8F2A893B894C895D89C30151
:10383000B2010E94B52B23EF34E045EB5FE30E9419
:10384000172A2E813F81488559850E94A12920E0B1
:1038500030E040E052E40E94A1290E94892A6E8350
:103860007F83888799872E853F8548895989C30139
:10387000B2010E94B52B23EF34E045EB5FE30E94D9
:10388000172A2A853B854C855D850E94A129A701C1
:1038900096010E94A1290E94892A2B012E893F8925
:1038A0004A8D5B8D6E817F81C2010E943B0F20E0BB
:1038B00030E040E052E4C501B4010E94A1290E9419
:1038C000892A4B01A70196016E8D7F8D88A199A150
:1038D0000E94A1290E94892A6B019401AB016E8983
:1038E0007F898A8D9B8DC6CEEF92FF920F931F9397
:1038F000CF93DF93EC010E94FE0AF12CE12C15E03E
:103900008B819C811E9DF0011F9DF00D1124E80FFD
:10391000F91FEE55FF4F0FE3208131814281538122
:1039200064810E94E5162FEFE21AF20A80E2E8169F
:10393000F10431F7EB81FC81EA5AFE4F808110924D
:1039400068061092670610926A061092690688232C
:1039500009F49BC02EE04EE956E060E080E00E9452
:10396000FF1129E030E044E650E069E070E090E0CB
:1039700080E00E943B0F80E390E090936806809384
:10398000670686E390E090936A068093690682E971
:1039900096E00E94DF1108E010E0109368060093A3
:1039A000670682E190E090936A068093690626E0BC
:1039B0004CE856E062E188E00E94FF11109368062F
:1039C000009367068BE190E090936A068093690606
:1039D00028E044E856E06BE188E00E94FF11109374
:1039E00068060093670684E290E090936A068093ED
:1039F000690625E04FE756E064E288E00E94FF1187
:103A000010936806009367060DE210E010936A06B3
:103A10000093690624E04BE756E06DE288E00E94DF
:103A2000FF1188E290E090936806809367061093F8
:103A30006A0600936906EB81FC81EA5AFE4F808199
:103A4000882301F182E991E00E94D9168A8129E058
:103A5000829FC00111244296109268061092670658
:103A600090936A068093690680915F0680FD5CC032
:103A70008EE296E0DF91CF911F910F91FF90EF9032
:103A80000C94DF1185E991E0DFCF85E696E00E9496
:103A9000DF1180E390E0909368068093670686E3E9
:103AA00090E090936A068093690689E596E00E940B
:103AB000DF1108E010E0109368060093670682E1CA
:103AC00090E090936A068093690681E596E00E94F3
:103AD000DF1110936806009367068BE190E09093E6
:103AE0006A068093690685E496E00E946F1610933B
:103AF00068060093670684E290E090936A068093DC
:103B000069068BE396E00E946F1610936806009397
:103B100067068DE290E090936A068093690680E3E1
:103B200096E00E94DF1187CFDF91CF911F910F9117
:103B3000FF90EF9008954F925F926F927F928F92D5
:103B40009F92AF92BF92CF92DF92EF92FF920F932C
:103B50001F93CF93DF936C0188E00E94570AD60130
:103B60001296CD91DC918E01085B1E4FFE01E45B45
:103B7000FE4F7F01882309F44DC0D8011D921D928C
:103B80001D921C92139780E090E0A0E8BFE3808331
:103B90009183A283B383FE01CE0180569F4F15828D
:103BA00014823596E817F907D1F7FE01EC5BFE4F5A
:103BB00010823D9660816F5F608385E090E06031A8
:103BC000C1F0CE010E946815D6011296ED91FC91CC
:103BD0001397EE5AFE4F81E0808315961C921E9239
:103BE000149764E670E080E793E00E94F70E82E0AD
:103BF00090E0DF91CF911F910F91FF90EF90DF90B8
:103C0000CF90BF90AF909F908F907F906F905F907C
:103C10004F900895F601648175816F5F7F4F7583C2
:103C2000648390E080E00E94BF2A2B013C0120E0E9
:103C300030E048E453E40E94172A4B015C012DEC6C
:103C40003CEC4CE45EE30E94B02B181644F48DEC7F
:103C5000882E8CEC982E8CE4A82E8EE3B82EA5012D
:103C60009401D8016D917D918D919C910E94A12923
:103C7000F80160837183828393832BED3FE049E4F5
:103C80005EE3C301B2010E94B52B0E94222C20E00A
:103C900030E040E05FE30E94B52B2DEC3CEC4CE4BF
:103CA0005FE30E94A129D7016D937D938D939C932F
:103CB0001397CE5ADE4F188290E080E09ACF2F9271
:103CC0003F924F925F926F927F928F929F92AF92AC
:103CD000BF92CF92DF92EF92FF920F931F93CF93F9
:103CE000DF9300D000D01F92CDB7DEB77C010E94D9
:103CF000FE0A20E440E870E060E090E080E00E948E
:103D0000B010B12CA12C15E047018BEA881A8EEF78
:103D1000980A1A9D60011B9DD00C1124CE0CDF1C4B
:103D2000F601329600E0D60112962C913181428143
:103D300053816481C7010E94E516F40180818111DD
:103D40000CC0F601EE55FF4F00E420813181428125
:103D500053816481C7010E94E516FFEFAF1ABF0AC5
:103D600080E2A816B104A9F6D4018C91882371F0E1
:103D700088E490E0909368068093670610926A0644
:103D80001092690687EA94E00E946F161701B0EB63
:103D90002B1ABEEF3B0AF101808180FDCAC032962A
:103DA0008081882309F4C5C0709780819181482F54
:103DB0008B839C834701FBEB8F1AFEEF9F0AD40194
:103DC0008C9111969C91282F89839A83F701E95B46
:103DD000FE4F60816701B8EBCB1ABEEFDB0AF6013C
:103DE000408051806280738010821182128213821F
:103DF00000E0392F5C81C7010E94E516F601408280
:103E000051826282738242E060E270E080E290E080
:103E10000E94BF0FF701EA5BFE4F608170E0719571
:103E200061957109072E000C880B990B0E94C12A1D
:103E3000D6012D913D914D915C910E94A02920E0E9
:103E400030E040E050E40E94A0292BED3FE049EC37
:103E500050E40E94B52B20E030E040E05EE30E9499
:103E6000B52B2B013C010E94222C5B016C01C3018C
:103E7000B2010E94122A2B013C0120E030E040E018
:103E800051E4C601B5010E94B52B20E030E040E0CE
:103E900052E40E94A1290E94892A5B0120E030E0BF
:103EA00040E051E4C301B2010E94B52B20E030E0B4
:103EB00040E052E40E94A1290E94892A9501AB01A9
:103EC00060E270E080E290E00E943B0FF4018081AC
:103ED00094E0C92ED12CC81AD10823E0CC0CDD1CEB
:103EE0002A95E1F74601F1E08F1A910821E043E0BD
:103EF000B40180E290E00E94871021E041E0B60129
:103F000081E290E00E94871021E043E0B40180E26A
:103F100090E00E94871021E041E0B6018FE190E03F
:103F20000E94871021E043E0B40180E290E00E940B
:103F30008710F701E75AFE4F80818823A1F081E0C6
:103F400090E0909368068093670687E390E09093F3
:103F50006A068093690632976081718190E080E003
:103F60004AE00E949516F701EC5AFE4F80818823A3
:103F700009F481C0D12CC12C20E040E260E170E066
:103F8000C6010E9487108FEFC81AD80AA0E8CA1687
:103F9000D10491F720E240E860E170E090E080E039
:103FA0000E94B0101982F701EA5BFE4F30813A831C
:103FB00081E0482F82E08D8300EF20E050E062E056
:103FC000C7010E94E51682E0482F08E029813A8166
:103FD00050E06D81C7010E94E51683E0482F00E2A2
:103FE00029813A8150E06D81C7010E94E51684E085
:103FF000482F08E329813A8150E06D81C7010E9472
:10400000E51685E0482F8B831C8200E529813A81E3
:1040100050E06D81C7010E94E516F101808180FDAD
:104020002AC0F701EE5BFE4F20813181215031091A
:1040300048E1429FC001439F900D112428E164E1B3
:1040400070E004960F900F900F900F900F90DF91FB
:10405000CF911F910F91FF90EF90DF90CF90BF9085
:10406000AF909F908F907F906F905F904F903F9018
:104070002F900C94B0100F900F900F900F900F9006
:10408000DF91CF911F910F91FF90EF90DF90CF9034
:10409000BF90AF909F908F907F906F905F904F9068
:1040A0003F902F900895CF93DF93EC010E94FE0A7A
:1040B000EA81FB81EA5AFE4F8081109268061092D5
:1040C000670610926A06109269068823B9F187E99B
:1040D00094E00E946F16EA81FB81E75AFE4F8081CF
:1040E000882379F088E991E00E945E16EA81FB81DD
:1040F000E95AFE4F6081718190E080E04AE00E94C1
:1041000095160E946B162FE048E854E068E180E0C5
:104110000E94FF110E946B160E946B160E946B1684
:1041200082E794E00E946F168CE594E00E946F167F
:1041300086E494E0DF91CF910C946F168CE394E0C9
:104140000E946F16EA81FB81E75AFE4F8081882327
:1041500079F088E991E00E945E16EA81FB81E95AD4
:10416000FE4F6081718190E080E04AE00E949516E8
:104170000E946B168EE294E00E946F168AE194E032
:104180000E946F160E946B1684E094E00E946F16E6
:104190008EEE93E00E946F1688ED93E0CBCF0C94E7
:1041A00027290F931F93CF93DF93CDB7DEB7A09747
:1041B0000FB6F894DEBF0FBECDBF8C010E94FE0A81
:1041C000109268061092670610926A0610926906AD
:1041D00088E296E00E94DF11D80113966C9170E09E
:1041E0006F5F7F4F072E000C880B990B4AE00E94EF
:1041F00095166AE388E596E00E94DD10D8011396D3
:10420000EC91F0E0EE0FFF1FE85FF94F65917491BC
:10421000CE0101960E942029CE0101960E94D91656
:10422000D8011496ED91FC911597EA5AFE4F8081C2
:10423000882309F4A0C0109268061092670688E1EE
:1042400090E090936A068093690613968C9184306F
:1042500070F4823008F07EC0882331F1813009F497
:1042600069C02DE046E755E060E188E04EC084304B
:10427000C1F729E043EA55E060E188E00E94FF11C0
:104280008BE995E00E946F1628E043E955E068E16C
:1042900088E20E94FF118BE895E00E946F1628E0EB
:1042A00043E855E060E230C029E04FEF55E060E1BF
:1042B00088E00E94FF118FE991E00E94D91627E063
:1042C00048EF55E068E188E20E94FF1186EA91E03C
:1042D0000E94D91627E041EF55E060E288E20E9493
:1042E000FF118DEA91E00E94D9162CE045EE55E0D1
:1042F00068E288E20E94FF1184EB91E00E94D916E7
:1043000026E04FED55E060E388E20E94FF112BE2CA
:1043100048E76EE070E084E090E00E94B010A09664
:104320000FB6F894DEBF0FBECDBFDF91CF911F91C6
:104330000F91089529E046ED55E060E188E00E9484
:10434000FF118EEC95E00E946F162AE044EC55E0D8
:1043500068E1DACF29E04BEB55E060E188E00E94AC
:10436000FF1181EB95E00E946F1625E04CEA55E0C5
:1043700068E180E3CACF8CE090E090936806809378
:10438000670680E190E090936A0680936906F801E1
:104390008381843048F4823060F5882391F0813045
:1043A00009F181EB94E01BC08430D9F787EE94E0EB
:1043B0000E946F1687ED94E00E946F1685EC94E0E2
:1043C0000EC089E695E00E946F1685E595E00E9493
:1043D0006F1682E495E00E946F1684E395E00E94D8
:1043E0006F1695CF87E295E00E946F1682E195E007
:1043F000F6CF85E095E00E946F1684EF94E0EFCF52
:104400001F920F920FB60F9211248F939F9380915A
:10441000E1009091E100937F9093E10083FF0FC052
:104420001092E90091E09093EB001092EC0092E37F
:104430009093ED001092F20198E09093F00082FFCB
:1044400022C093E09093E9009091F200992319F033
:104450009AE39093E8009091E301992341F09091C1
:10446000E30191509093E301911101C05D9A909105
:10447000F101992341F09091F10191509093F10154
:10448000911101C0289A84FF18C08091E2008E7EAD
:1044900081608093E2008091E1008F7E8093E10053
:1044A0008091E4018E7E80618093E4019F918F91E1
:1044B0000F900FBE0F901F90189580FFF7CF80913F
:1044C000E2008E7E80618093E2008091E1008E7E2A
:1044D0008093E1008091E4018E7E8160E5CF1F92A0
:1044E0000F920FB60F921124CF92DF92EF92FF92AC
:1044F0000F931F932F933F934F935F936F937F93EC
:104500008F939F93AF93BF93EF93FF93CF93DF93DB
:10451000CDB7DEB76C97DEBFCDBF1092E9008091BA
:10452000E80083FF25C068E0CE0145960E942F0D6C
:1045300082EF8093E8008D8987FF39C09091E80071
:1045400090FFFCCF982F907609F034C19E894F8957
:10455000588D2F89F88C911131C0803861F5809188
:10456000E2018093F1001092F1008EEF8093E80059
:104570006C960FB6F894DEBF0FBECDBFDF91CF9122
:10458000FF91EF91BF91AF919F918F917F916F912B
:104590005F914F913F912F911F910F91FF90EF905D
:1045A000DF90CF900F900FBE0F901F9018959EEF49
:1045B0009093E800C7CF1092F100D5CF913059F415
:1045C0008111D3CF4130510581F68091E2018D7F79
:1045D0008093E201CACF933049F48111C6CF4130B4
:1045E000510519F68091E2018260F2CF953041F4D5
:1045F0008091E80080FFFCCF20682093E300B5CFD6
:10460000963009F0A9C00B8D1C8D22E01092E900B4
:104610001092E0011092DF01F2122EC01092DE0122
:104620001092DD010E94FE0C1F8299E09983FA82AC
:1046300091E09E8390EA98879AEF99872091DF0115
:104640003091E001275F3F4F3C832B838D83109295
:10465000E9001092E0011092DF011093DE01009357
:10466000DD0149E050E0BE016F5F7F4F80E00E94B6
:10467000D80C0E94FE0C79CF1093DE010093DD016F
:104680000E94150CDC0112960D911C91011511056B
:1046900009F451C1D801ED91FC910480F581E02D20
:1046A000BE016B5E7F4FC8010995009709F03EC1BE
:1046B000F80100851185EACFF3E0FF120EC08F8963
:1046C000882309F440C0823061F440E867E08AE45E
:1046D00094E10E944C25811148CF81E28093EB0048
:1046E00047CF813029F440E86BE08EE394E1F1CFCD
:1046F000833099F70E94150CDC011296ED90FC9026
:104700008E010F5F1F4F6801E114F10479F0D701AA
:10471000ED91FC910680F781E02DB801C701099564
:10472000080F111DF701E084F184EECFD8011C922F
:10473000F60101900020E9F73197BF016C197D095E
:1047400040E0C601C6CF68E274E1FB01449150E04D
:1047500080E80E94D80C09CF973009F4BECF98307A
:1047600021F481E08093F10000CF993009F0FDCE73
:10477000837009F0B2CFE1E3F1E081E031E096E34C
:104780002191222371F08093E9003093EB00DF0147
:1047900011972C912093EC009093ED008F5F873060
:1047A00079F78EE78093EA001092EA008F89809370
:1047B000F201DBCE8B8D9C8D1092E9001092E0010E
:1047C0001092DF019093DE018093DD01898D8111CC
:1047D00092C08E899D89913A49F4813209F07DCF4A
:1047E00047E050E064E071E080E0B3CF913209F03F
:1047F00074CF833269F48F89988DB0E0A0E0809304
:10480000000190930101A0930201B0930301ADCE8A
:10481000803269F48091E80082FFFCCF67E084E099
:1048200091E00E942F0D8BEF8093E8009ECE8232A4
:1048300009F09BCE8F8980930B01EEEFFFE7859106
:1048400094918B3F9C4D51F1E0E0F8E080910401A0
:1048500090910501A0910601B0910701803B944021
:10486000A105B105F1F480910B0180FD1AC0EE3F66
:104870008AE0F80789F587E797E79183808380913D
:1048800060008093E10188E19BE00FB6F894A89561
:10489000809360000FBE9093600067CEEEEFFAE069
:1048A000D5CF808191818737974709F05ECEA89553
:1048B000809160008861809360008091E101809325
:1048C0006000EE3F2AE0F20789F08091FE0A9091A5
:1048D000FF0A9183808349CE808191818737980731
:1048E00051F29093FF0A8093FE0AC5CF1092FF0AFF
:1048F0001092FE0A3ACE0E94150CDC0112960D9120
:104900001C910115110509F4E8CED801ED91FC9137
:104910000190F081E02DBE016B5E7F4FC8010995CB
:10492000811123CEF80100851185EBCF18161906E9
:104930000CF41BCED2CEF1E0FF12BECE6CE274E1DD
:1049400004CF0F920FB68F939F93EF93FF938091B5
:10495000D1018D5F8D3708F08D578093D101E7ED40
:10496000F1E080818E4F808391819F4F918382817E
:104970008F4F828383818F4F8383E2EDF1E08081CB
:104980008F5F808381818F4F818382818F4F82836C
:1049900083818F4F83838FB18F6066991C9B88279B
:1049A0008F3681F48091D001981B963068F0E0E05A
:1049B000F8E087E78083818388E180936000F0934B
:1049C0006000FFCF9093D001FF91EF919F918F9165
:1049D0000FBE0F9018951F920F920FB60F921124D1
:1049E0002F933F934F935F936F937F938F939F93F7
:1049F000AF93BF93EF93FF938091CC019091CD0142
:104A0000A091CE01B091CF01892B8A2B8B2B09F479
:104A100040C08091CB0181110BC088B190E48927FF
:104A200088B98091CA01882319F08BB180588BB95D
:104A30008091CC019091CD01A091CE01B091CF0198
:104A4000181619061A061B069CF48091CC01909149
:104A5000CD01A091CE01B091CF010197A109B1097B
:104A60008093CC019093CD01A093CE01B093CF0160
:104A7000FF91EF91BF91AF919F918F917F916F9136
:104A80005F914F913F912F910F900FBE0F901F900C
:104A900018950E942D0EECCFEF92FF920F931F936B
:104AA000CF93DF93F82E192FE62E042F81E0860F87
:104AB000880F0E94AA0C83E00E94AA0CCF2DD12F50
:104AC000EC0EFD2EF11CCE15DF05B9F007FF13C06B
:104AD000FE0184910E94AA0C182F80E00E94AA0C6B
:104AE000812321968111EFCFDF91CF911F910F91FB
:104AF000FF90EF9008958881EDCF81E0F5CF0F937F
:104B00001F93CF93DF938C0181E090E00E94CF2030
:104B100080FF32C08AE090E00E94CF209FEF980F84
:104B20009E3F50F522E330E0D80150963C932E93FF
:104B30001F9728E330E052963C932E935197CBE099
:104B4000D0E0D801ED91FC910190F081E02D682F2B
:104B5000C8010995CE010E94CF202196C131D1050F
:104B600081F780E00E94BE0B88EE93E0DF91CF9149
:104B70001F910F910C946A0DDF91CF911F910F91AE
:104B8000089504970C947F25E8EFF5E013821282D4
:104B900088EE93E0A0E0B0E084839583A683B7839A
:104BA0008BE391E0918380838FEF9FEF95878487DC
:104BB00084E59AE0909357068093560680E090E84B
:104BC000909355068093540646983E9A5F98579A5C
:104BD00089E891E09093DC078093DB078FE791E011
:104BE0009093D6078093D50781E691E090937C0659
:104BF00080937B0682E090E09093BE078093BD0790
:104C00001092BF071092C0071092C10781E08093F5
:104C1000C2071092C3071092C4071092C5071092E2
:104C2000C60740E050E060E87FE34093C707509339
:104C3000C8076093C9077093CA071092CC07809386
:104C4000CD071092CE071092CF071092D007109286
:104C5000D1071092D3071092D2071092D407E5E73C
:104C6000F6E025E731E03183208315821482EFE6F8
:104C7000F6E02BE631E03183208315821482E8E5EB
:104C8000F6E0138212821186128690E193871086D5
:104C9000178215862DE431E0318320832BE531E046
:104CA00035832483108A1786128A118A838B148A8B
:104CB000858B168A0895789483E084BD83E085BD52
:104CC00081E080936E00E1E8F0E083E08083E0E83B
:104CD00081E08083E1E983E08083E0E981E0808313
:104CE000E1EC87E08083E3EC81E08083E0EC82E02C
:104CF0008083E2EC81E08083EAE787E0808380685C
:104D000080831092F2011092E2011092E4018091EE
:104D1000D70081608093D70080EA8093D80089B55E
:104D2000806189BD89B5826089BD09B400FEFDCF6F
:104D300081E090E00E946A0D8091D8008F7C8061B4
:104D40008093D8008091E000807F8093E000809184
:104D5000E1008E7E8093E1008DE08093E200559A21
:104D6000209A81EC80937C0081E785B987E684B93D
:104D700085E38BB98FE38AB9769A6E9880EF81BB11
:104D800010BA80E58CBD81E08DBD85E00E94150FD5
:104D9000599A85E00E94150F5C98ECEDF3E185913E
:104DA0008EBD00000DB407FEFDCFE63EC1F75C9A54
:104DB00081E88093640081E0809365000E94BE0BCF
:104DC0000E94180F87FF15C05C9885EA8EBD000011
:104DD0000DB407FEFDCF5C9A2E9858982D988091BF
:104DE000640080628093640081E083BF889513BE75
:104DF000FCCF0E94180F82FF45C02D980E94180F0B
:104E000084788438D9F40E94130F88EC0E94150F1F
:104E1000589882E090E00E9427298F3F29F06FEF99
:104E200082E090E00E942F2984EF91E00E946A0DB9
:104E3000589A0E94180F84788438D9F30E94180F6A
:104E400084718431D9F40E94130F88EC0E94150FED
:104E50002E9882E090E00E942729882329F060E0C4
:104E600082E090E00E942F2984EF91E00E946A0D79
:104E70002E9A0E94180F84718431D9F388EC0E9415
:104E8000150FB7CF0E94130F82E090E00E94CF2051
:104E9000882309F486C03E9A579A81E08093D60110
:104EA00081E090E00E94CF20182F147081FF0CC089
:104EB00011112E98C1EFDFEF0E94180F86FF76C008
:104EC0002E9A589A0E94130F82E30E94150F0E9497
:104ED000180F8111F9CF81E2809363068BE796E08A
:104EE0000E945116CBE7D6E0D093DF07C093DE07D0
:104EF0000E94C82820E130E040E050E00E943D29B7
:104F0000CE010E9468151092DD07D093DA07C09396
:104F1000D90784E68093D707D0937806C0937706A5
:104F200010927A0610927906109274061092730607
:104F3000D0937206C09371068BED97E09093DC01DD
:104F40008093DB019FE5E92E96E0F92E20E1422EC9
:104F5000512C612C712C35ED232E37E0332E45E793
:104F6000C42E46E0D42E8E015FE6A52E56E0B52E67
:104F700080E0882E80E0982E9091D7018091640681
:104F8000292F281B822F209165062223E1F180938F
:104F90006606109265068114910471F30E94000068
:104FA000E7CF1092D6013E9857987ACF112329F077
:104FB000C430D10511F42E9A589881E00E94BE0B9E
:104FC00000E128E54CE253E1BE0184E190E00E945B
:104FD000620A80E00E94BE0B8FE00E94150F2196AE
:104FE000C931D10509F068CF112311F0589A2D98D5
:104FF00080E991E00E946A0D0E94130F88E596E017
:105000000E947F2561CF20916306821740F48F5F55
:10501000821708F681E083BF889513BEBCCFA1E05C
:10502000A093650690936406F701808191810196B3
:105030008083918380916106809362060E94180F9D
:10504000809361068091DB019091DC01DC01ED91A0
:10505000FC910280F381E02D0995EC018091DB0148
:105060009091DC01DC01ED91FC910480F581E02D53
:105070000995C230D10569F1E0F4209731F121970B
:1050800009F089CF1093DF070093DE070E94C8283C
:10509000A30192010E943D298BE796E00E946815CA
:1050A0001092DD078BED97E09093DC018093DB019C
:1050B00072CFC430D105D9F0A8F0259709F06BCF95
:1050C000B092DC01A092DB0166CF80E00E94BE0BB3
:1050D00062CF8091CC078093D8073092DC01209278
:1050E000DB0159CF1093DC010093DB0154CFD09248
:1050F000DC01C092DB014FCF8F929F92AF92BF92A3
:10510000CF92DF92EF92FF92CF93DF93EC01688111
:1051100079818A819B81611571058105910521F451
:1051200064E279ED8BE597E02DE133EF41E050E06B
:105130000E943D2949015A019B01AC01A7EAB1E453
:105140000E945C296B017C01ACEEB4EFA5019401D7
:105150000E946A29C60ED71EE81EF91EF7FE06C079
:1051600081E0C81AD108E10880E8F80AC882D9822B
:10517000EA82FB82C701B6019F77DF91CF91FF9052
:10518000EF90DF90CF90BF90AF909F908F90089559
:105190008F929F92AF92BF92CF92DF92EF92FF9247
:1051A00060910C0170910D0180910E0190910F01A1
:1051B000611571058105910521F464E279ED8BE5B6
:1051C00097E02DE133EF41E050E00E943D29490195
:1051D0005A019B01AC01A7EAB1E40E945C296B0172
:1051E0007C01ACEEB4EFA50194010E946A29C60EC1
:1051F000D71EE81EF91EF7FE06C081E0C81AD108C6
:10520000E10880E8F80AC0920C01D0920D01E0920A
:105210000E01F0920F01C701B6019F77FF90EF904A
:10522000DF90CF90BF90AF909F908F900895609344
:105230000C0170930D0180930E0190930F0108955E
:10524000FB01DC0105900D920020E1F70895F9992A
:10525000FECF92BD81BDF89A992780B50895262F7B
:10526000F999FECF1FBA92BD81BD20BD0FB6F8944B
:10527000FA9AF99A0FBE01960895052E97FB1EF42F
:1052800000940E94542957FD07D00E946F2907FC03
:1052900003D04EF40C9454295095409530952195A7
:1052A0003F4F4F4F5F4F0895909580957095619552
:1052B0007F4F8F4F9F4F08950E949129A59F900D7A
:1052C000B49F900DA49F800D911D11240895B7FFE8
:1052D0000C945C290E945C29821B930B0895A1E227
:1052E0001A2EAA1BBB1BFD010DC0AA1FBB1FEE1F60
:1052F000FF1FA217B307E407F50720F0A21BB30BAB
:10530000E40BF50B661F771F881F991F1A9469F726
:1053100060957095809590959B01AC01BD01CF0182
:105320000895A29FB001B39FC001A39F700D811D7E
:105330001124911DB29F700D811D1124911D08959E
:105340005058BB27AA270E94B8290C94622B0E94B0
:10535000292B38F00E94302B20F039F49F3F19F4AC
:1053600026F40C94262B0EF4E095E7FB0C94202BEE
:10537000E92F0E94872B58F3BA1762077307840737
:10538000950720F079F4A6F50C94A92B0EF4E0957E
:105390000B2EBA2FA02D0B01B90190010C01CA01EF
:1053A000A0011124FF27591B99F0593F50F4503E9A
:1053B00068F11A16F040A22F232F342F4427585F8C
:1053C000F3CF469537952795A795F0405395C9F7A4
:1053D0007EF41F16BA0B620B730B840BBAF091505C
:1053E000A1F0FF0FBB1F661F771F881FC2F70EC0FB
:1053F000BA0F621F731F841F48F4879577956795CE
:10540000B795F7959E3F08F0B0CF9395880F08F0B9
:105410009927EE0F9795879508950E94FC2A08F426
:1054200081E008950E94392BE3950C94732B0E9420
:105430002B2A0C94622B0E94302B58F00E94292BAF
:1054400040F029F45F3F29F00C94202B51110C946B
:10545000AA2B0C94262B0E94872B68F39923B1F377
:10546000552391F3951B550BBB27AA27621773078A
:10547000840738F09F5F5F4F220F331F441FAA1F1E
:10548000A9F335D00E2E3AF0E0E832D091505040DA
:10549000E695001CCAF72BD0FE2F29D0660F771F88
:1054A000881FBB1F261737074807AB07B0E809F06E
:1054B000BB0B802DBF01FF2793585F4F3AF09E3FF3
:1054C000510578F00C94202B0C94AA2B5F3FE4F349
:1054D000983ED4F3869577956795B795F7959F5F36
:1054E000C9F7880F911D9695879597F90895E1E082
:1054F000660F771F881FBB1F621773078407BA07E1
:1055000020F0621B730B840BBA0BEE1F88F7E0953B
:1055100008950E94902A6894B1110C94AA2B0895C2
:105520000E948F2B88F09F5798F0B92F9927B75179
:10553000B0F0E1F0660F771F881F991F1AF0BA9537
:10554000C9F714C0B13091F00E94A92BB1E00895C1
:105550000C94A92B672F782F8827B85F39F0B93FB3
:10556000CCF3869577956795B395D9F73EF49095EA
:105570008095709561957F4F8F4F9F4F0895E89468
:1055800009C097FB3EF490958095709561957F4F8B
:105590008F4F9F4F9923A9F0F92F96E9BB27939539
:1055A000F695879577956795B795F111F8CFFAF449
:1055B000BB0F11F460FF1BC06F5F7F4F8F4F9F4F7A
:1055C00016C0882311F096E911C0772321F09EE8D8
:1055D000872F762F05C0662371F096E8862F70E03E
:1055E00060E02AF09A95660F771F881FDAF7880F18
:1055F0009695879597F90895990F0008550FAA0B6E
:10560000E0E8FEEF16161706E807F907C0F01216D5
:105610001306E407F50798F0621B730B840B950BD8
:1056200039F40A2661F0232B242B252B21F408952D
:105630000A2609F4A140A6958FEF811D811D0895CA
:1056400097F99F6780E870E060E008959FEF80EC35
:10565000089500240A9416161706180609060895D8
:1056600000240A94121613061406050608950C94D5
:10567000262B0E948F2BD8F3E894E0E0BB279F579E
:10568000F0F02AED3FE049EC06C0EE0FBB0F661FBD
:10569000771F881F28F0B23A62077307840728F043
:1056A000B25A620B730B840BE3959A9572F78038AC
:1056B00030F49A95BB0F661F771F881FD2F790486A
:1056C0000C942C2C092E0394000C11F4882352F016
:1056D000BB0F40F4BF2B11F460FF04C06F5F7F4F1E
:1056E0008F4F9F4F0895EF93E0FF07C0A2EA2AED86
:1056F0003FE049EC5FEB0E94B8290E94622B0F90BB
:10570000039401FC9058ECEAF0E00C94382C57FD1F
:105710009058440F551F59F05F3F71F04795880F1F
:1057200097FB991F61F09F3F79F0879508951216B6
:1057300013061406551FF2CF4695F1DF08C0161662
:1057400017061806991FF1CF869571056105089413
:105750000895E894BB2766277727CB0197F908952A
:105760000E94FC2A08F48FEF08950E94C82B0C9425
:10577000622B0E94292B38F00E94302B20F09523B9
:1057800011F00C94202B0C94262B11240C94AA2B92
:105790000E94872B70F3959FC1F3950F50E0551F22
:1057A000629FF001729FBB27F00DB11D639FAA2776
:1057B000F00DB11DAA1F649F6627B00DA11D661FC5
:1057C000829F2227B00DA11D621F739FB00DA11DE6
:1057D000621F839FA00D611D221F749F3327A00DA0
:1057E000611D231F849F600D211D822F762F6A2F3C
:1057F00011249F5750409AF0F1F088234AF0EE0FA1
:10580000FF1FBB1F661F771F881F91505040A9F7CD
:105810009E3F510580F00C94202B0C94AA2B5F3FE7
:10582000E4F3983ED4F3869577956795B795F79509
:10583000E7959F5FC1F7FE2B880F911D9695879581
:1058400097F908959F930E94392B0F9007FCEE5F04
:105850000C94732B9F3F31F0915020F487957795EE
:105860006795B795880F911D9695879597F9089537
:105870009F938F937F936F93FF93EF939B01AC0163
:105880000E94B52BEF91FF910E944C2C2F913F91DC
:105890004F915F910C94B52BDF93CF931F930F9390
:1058A000FF92EF92DF927B018C01689406C0DA2EA2
:1058B000EF010E94C82BFE01E894A5912591359136
:1058C00045915591A6F3EF010E94B829FE01970179
:1058D000A801DA9469F7DF90EF90FF900F911F9184
:1058E000CF91DF910895EE0FFF1F0590F491E02D09
:1058F0000994F894FFCFFFFFFFFF00E100000000D4
:10590000000001000000260316030203E202CE029B
:10591000BA02A2027A02520226020602AE01720105
:105920003601FE00CA0000C18081000000000000B6
:1059300000290C7E0D4A0C3F0C900C4E0C6C0C0098
:10594000000000DD103D0DFC11FB117F25FCFF0068
:1059500000C1250000000051164C125F1E0000001F
:1059600000FB115416532000000000FB119B1D7B0F
:105970001600000000FB113B12D12000000000FBCC
:1059800011AA15741C0D0A004A5000454E005469B6
:105990006D653A200020201820203A002020192090
:1059A000203A0020204120203A002020422B413A7A
:0259B0000000F5
:1074000080E189BD82E189BD09B400FEFDCF089508
:10741000CAD569F08091E9008F931092E9009FD45A
:1074200083FF01C01ED58F9187708093E900089576
:107430008EEF0090E10008220092E1000895F20131
:10744000F999FECFF2BDE1BD0895F9DFF89A80B554
:1074500008C0F5DF1FBA80BD0FB6F894FA9AF99A02
:107460000FBE31962F010895E0E0F0E085919491F0
:10747000019608958AE28BB98BEA34D01092890084
:107480008AEF8093880082E080936F0083E080938E
:107490008100E7E5F7E785913AD0E336E1F781E04F
:1074A0008093D7008AE482BF1092D8001092E20045
:1074B0001092DA001092E10080E808D019BC1EBAE0
:1074C0001092E00062D489E053D481E98093D8001F
:1074D0000895A3E6B1E090E81AD08D939A95E1F76C
:1074E000089586E008D010C083E005D08F2F0FD01C
:1074F0008E2F0DD080E05B9A5A9809C005D085E0A8
:10750000FADF05D080FDFDCF5A9A5B9808958EBDB5
:107510008DB587FFFDCF8EB508958FE08221E9F705
