:020000040000FA
:100000000C94FD140C9425150C9425150C942515B1
:100010000C9425150C9425150C9425150C94251578
:100020000C9425150C9425150C948D290C94FC2901
:100030000C9425150C9425150C9425150C94251558
:100040000C9425150C9425150C9425150C94251548
:100050000C9425150C9425150C9425150C942E2C18
:100060000C9425150C9425150C9425150C94251528
:100070000C9425150C9425150C9425150C94251518
:100080000C94782C0C9425150C9425150C9425159E
:100090000C9425150C9425150C9425150C942515F8
:1000A0000C9425150C9425150C9425151008C601E3
:1000B000FFFF0FC003C003C003C013C003C003C0D1
:1000C00003C003C013C003C003C003C00FC0FFFFC1
:1000D00001F60C6908830003FF03FF03FC03F00330
:1000E000C003C043C003C003C043C003C003C04338
:1000F000C003C003C0FFCFFFCF03C003C003C0FFD6
:10010000CFFFCF03C003C003C0FFCFFFCF03C003A7
:10011000C003C043C003C003C00000AA3A0030AA15
:100120003A0000AA0E000CAA0E0000AA030003AABF
:1001300003000000000000000000000000000000BC
:1001400000AA030003AA0300000000000000000052
:10015000000000000000000000000000000000009F
:10016000000000AA030003AA030000000000FC0333
:10017000CF033303CF033303CF033303CF0333035F
:10018000CF033303CF03FF03C003C03FC3FFC3FF4D
:10019000C3FFC003C003C043C003C003C043C003C8
:1001A000C003C043C003C003C0193507350A910E10
:1001B000C112C117C11CB721B725B729B72D142EFD
:1001C0003236B7381439323B32422442B7453247CF
:1001D000B749B74A4259A35A356135645F0886006A
:1001E000FFC0FFC0FFC0FFC0FFC0FFC0FFC0FFC017
:1001F000FFC03FC00FC003C043C003C003C043C023
:1002000003C003C043C003C003C003CC03FC03FC12
:1002100003FC03FC03FC03F003C003C043C003C0A2
:1002200003C000000000AA0E000CAA0E000000008F
:100230000303030F033F03FF03FC03F003C043C0AA
:1002400003C003C003C043C003C003C003C043C016
:1002500003C003F003FC03FF03F003FF03FF033FAE
:10026000030F030303030303030303030300030058
:10027000030303030300030003030303030003005A
:1002800003030303033003C00303030303C303C3D4
:1002900003C30303030303030303030303031B3524
:1002A000033506A61533163319C11E632BC131C1A0
:1002B00035A43CA53C323F824A834C0446824E839F
:1002C00050044A82528354044E8256835804523258
:1002D000574658325A2408860000C000C000C000AB
:1002E000C004C000C000C000C000C004C000C00006
:1002F000C000C0C0FFC0FFC0FFC0FFC0FF00FF00C4
:10030000FF03FF03FF03FC03FC0FFC0FFC0FF00FC8
:10031000F03FF03FF03FC03FC0FFC0FFC0FFC0FF55
:10032000C0031504230962101008C601FFFF00C0B6
:1003300000C000C000C000C000C000C000C000C0BD
:1003400000C000C000C000C000C0FFFF01E10E5CA3
:100350000845003FF03FF03FF03FF00FFC0FFC0F6F
:10036000FC3FF0FFC0FFC0FFC03FF03FFC3FFC3F41
:10037000C03FC03FD00FC00FFC0FFC0FFC0FC03FB1
:10038000D03FC03FC03FFC3FFD3FFC3FFD3FFC3F37
:10039000FD3FFC0FFC03F000C0000000080000005F
:1003A0000000200000000000080000000000200005
:1003B000200000000000000000000000000002001B
:1003C000AA00AA00AA00020000000000000000002D
:1003D000000000000200AA00AA00AA00020000001B
:1003E00000000000000000000000AA008A000200D7
:1003F0008A00AA008A0002008A00AA008A0002007D
:100400008A00AA008A0002008A00AA123305350970
:100410007611331376184127912E053191343237F6
:10042000143A904232421445734E32513255325989
:1004300060080600FFC0FFC0FFC0FFC0FFC0FFC0D4
:10044000FFC0FFC0FFC0FFC0FFC03FC00FC003C060
:10045000CFC00300000003C000D003C00FC003C022
:1004600003C303CF03CF43CF0FCF03CD03CF03CFBE
:1004700003CF03CF0FC00FF003F403F003F003F03A
:100480000FF003C003C000C00000000003C0030061
:100490000F003FC003D003C0CFC003C003C00300A0
:1004A00000000300000000C003C003C00FD003C061
:1004B00003C0CFC003C003C003F000FC03F000C0C2
:1004C00000C200C000D000C200C000C000C200C016
:1004D00000C000C200C000C003FF03FF43FF03FFD2
:1004E00003FF03FF03FF03FC03F00FF03FF03FF0B7
:1004F0003FF03FF0133505350966153619361D6393
:100500001F6524342866320636423A353D3540832D
:100510004E83518354325373553256300844000A87
:10052000A80AA802A002A002A00280028002800203
:1005300080028002A002A002A002A80AA80AAA00C3
:10054000000000000000000000000000FF00FF00AD
:10055000FF00FC00F000C000C000C000C000C000F0
:10056000D000C000C000C000C000D003C000C00F59
:10057000C003C0FFC33FC0FFC3FFCFFFCFFFC00614
:10058000C107141084218623862E86311008C501E8
:10059000FFFF03F003C013C303C003C013C003C0B5
:1005A00003C013C003C003C013C303C003F0FFFFA5
:1005B00001D60D6508430000FF00FF40FF00FF006B
:1005C000FF00000000000200020002000200000024
:1005D0000000FF40FF00FF00FF00FF40FF00FF00A2
:1005E000FC00F000F400F000F000F000F000F0007B
:1005F000F000F000F200F280F680F080F080F080F1
:10060000F080FA00FA00F800F000F000F000F400CA
:10061000F000F000000000000000000000000000FA
:1006200000000000000000000000000000000000CA
:10063000FF00FF00FF0000000000000000000000BD
:100640000000FF40FF00FF00FF000000000000006E
:100650000000000000000300034003000300CF007F
:10066000FF00F000C00000000000000000000000DB
:100670000000AA00AA00AA00AA0AAA0AAA0AAA0AAC
:10068000AA17320363104017651935213522352327
:1006900062243524063005340438323D0441534881
:1006A000044B32503253045504570459045B325EF4
:1006B0006508460000C000C000C000C000C000C007
:1006C00000D000C000C000C000D000C000C000C00A
:1006D00000C000C000C000C000C000D000C000C00A
:1006E00000C000F000FC0000000000FC00FC00FC6A
:1006F00000FC00F000C000C000C000C000D000C07E
:1007000000C000C000C000C000D000C000C000C0D9
:1007100000C000C000D000C000C000C000C000C0C9
:1007200000C000F000F000F000C000C000C000D029
:1007300000C000C000C000C000C000C000D000C0A9
:1007400000C000C000D000C000F000FC00FD00FCB4
:1007500000FC00C000C000D000C000C000C000C04D
:1007600000C000C000D000C000C000C000C000F049
:1007700000FC00FF00FF00FF00FF00FF00FF163538
:10078000053508560F35114514541E8629862C351B
:1007900029352C66343438663E8547854A644E33A5
:1007A0005066543556355986623262180845000045
:1007B000F000F000F000F000F400F000F000FC00A9
:1007C000FD00FC00F000F000F000C000D000C00010
:1007D000F000F400F000C000C000D000C000C00075
:1007E0000808000C0C1E1E3F0C3F123F0C1E000C94
:1007F0000000000C0C1E1E3F1E3F0C1E000C0C1EA9
:10080000000C08080030207050F818FE0A1F060F70
:10081000040E000C0038183C0C1E081C081C041E9A
:100820001C3E183C08080C1E043F1E3F0C1E0C1EEC
:100830000C1E040E00060006040E0C1E0C1E0C1EE0
:100840001E3F043F0C1E08080018183C247E7AFF47
:100850007AFF3C7E183C001800000000007E7EFFFE
:100860007EFF007E000000000C100303DFDFFFFFAF
:10087000FEFEFFFFFFFFFFFFFEFE7F7F3F3F1F1FCC
:100880000F0F000001010D0D0F0F0F0F07070303DE
:10089000010100000000000000000070307830F816
:1008A00010F888FC40F858FEA6FF1AFF027F043EAD
:1008B000001C00000000000000000001000303070E
:1008C00002070107040F00040000001C0C1E0CBEF0
:1008D00084FE42FFE0FE7CFEBCFE5CFEB8FC70F8CD
:1008E0000070000000010103020701070007020772
:1008F00000030103000100000000000302DFC6FF47
:1009000068FE16FF56FFAAFF44FE327F1A3F0A1FF9
:10091000000F00000001000D040F030F0207010388
:10092000000100000000000000000F0F1F1F3F3FEC
:100930007F7FFEFEFFFFFFFFFFFFFEFEFFFFDFDF0B
:10094000030300000000000000000101030307078B
:100950000F0F0F0F0D0D01010000001C043E027F60
:100960001AFFA6FF58FE40F888FC10F830F83078DF
:10097000007000000004040F0107020703070003D2
:1009800000010000000000000000007070F8B8FCDA
:100990005CFEBCFE7CFEE0FE42FF84FE0CBE0C1E34
:1009A000001C000000000001010300030207000713
:1009B00001070207010300010000000F0A1F1A3F90
:1009C000327F44FEAAFF56FF16FF68FEC6FF02DF15
:1009D0000003000000000000000000010103020706
:1009E000030F040F000D000100001820008000809C
:1009F0000080008000800080008030B078F870F0C7
:100A0000F0F0F0F0F8F8F8F8F8F8F8F8F0F0F0F0A6
:100A1000F0F07878303000000000000000FFFFFFA9
:100A200001FFFDFFFDFF01FF01FF01FFFFFF00FFD1
:100A3000FFFFFFFFFFFFFFFFFFFFFFFFFFFFFFFFC6
:100A4000FFFF7E7EFCFCF8F8E0E0C0C0001F1F3F07
:100A5000207F40FF80FFBFFF5FFFA0FFDFFFE0FFC1
:100A6000F0F0F9F9FFFFFFFFFFFFFFFFFFFFFFFFC0
:100A7000FFFFFCFCFEFE7F7F3F3F1F1F00000000CA
:100A800000000000000100018383FFFFFFFFFFFF64
:100A9000FFFFFFFFFFFFF3F3070707070F0FFFFF3E
:100AA000FFFFFFFFFFFFFEFEF8F8E0E000800080A0
:100AB0000080008000800080008000B030F860F08E
:100AC00060F0A0F070F8B0F870F8B0F860F060F086
:100AD00060F03078003000000000000000FFFFFFF1
:100AE00001FFFDFFFDFF01FF01FF01FFFFFFE0FF31
:100AF00053FFA8FF50FF40FF54FF57FF4BFFA5FFD8
:100B00003CFF1C7E68FCE0F8C0E000C0001F1F3FF7
:100B1000207F40FF80FFBFFF5FFF20FF9FFF40FF60
:100B200020F010F9E1FFE8FFE8FF21FFD5FF12FFF9
:100B300080FF28FC70FE2E7F1F3F001F000000007A
:100B40000000000000010001018382FFD5FFDEFFED
:100B5000BDFFFAFF70FF01F303070007060F05FF53
:100B6000A2FFD5FFDEFFD8FEA0F800E000000000E5
:100B7000000000000000000000000018183C30F8E1
:100B8000B0F850F838FC58FC38FCD8FCB0F8B0F895
:100B900030F8183C0018000000000000000000FFC2
:100BA000FEFF02FFFAFFFAFF02FF02FF02FFFEFF55
:100BB00001FF54FFA8FF20FF2AFFABFFA5FF52FF54
:100BC0001EFF0E3F347E70FCE0F000E00000003FAE
:100BD0003F7F40FF81FF01FF7EFFBEFF40FF3F7F61
:100BE00000FF68FC70FF14FF44FF90FF3AFF193FBD
:100BF000001F143E387F173F0F1F000F000000003A
:100C000000000000000101030103000100000000DA
:100C100000000007078F88FFC5FFD6FFFFFFFCFF1E
:100C200000FCF0F800F000000000000000000000F0
:100C300000000000000000000000006060F0C0E064
:100C4000C0E040E0E0F060F0E0F060F0C0E0C0E064
:100C5000C0E060F000600000000000000000000044
:100C60000000FEFEFEFEFEFEFEFEFEFEFEFEFEFF9F
:100C7000FEFFFFFFFEFF81FFA8FFAFFF56FF62FFF1
:100C8000B8FFB8FC30F800300000000000000000A1
:100C900000007F7FFFFFFFFFFFFFFFFFFFFFFFFF62
:100CA000FFFFFFFF7FFF14FF42FF56FFA6FF67FF16
:100CB00003670103000100000000000000000000C5
:100CC00000000000000001010303070707070303FA
:100CD00001030007048F88FFC5FFD2FFFCFFF8FC6B
:100CE00000F8F0F800F00000000000000000000034
:100CF000000030307878F0F0F0F0F0F0F8F8F8F824
:100D0000F8F8F8F8F0F0F0F070F078F830B0008013
:100D1000008000800080008000800080C0C0E0E093
:100D2000F8F8FCFC7E7EFFFFFFFFFFFFFFFFFFFFE9
:100D3000FFFFFFFFFFFFFFFF00FFFFFF01FF01FFBE
:100D400001FFFDFFFDFF01FFFFFF00FF1F1F3F3FF2
:100D50007F7FFEFEFCFCFFFFFFFFFFFFFFFFFFFFAB
:100D6000FFFFFFFFF9F9F0F0E0FFDFFFA0FF5FFFFB
:100D7000BFFF80FF40FF207F1F3F001FE0E0F8F82B
:100D8000FEFEFFFFFFFFFFFFFFFF0F0F0707070735
:100D9000F3F3FFFFFFFFFFFFFFFFFFFFFFFF838373
:100DA0000001000100000000000000000000000041
:100DB00000000030307860F060F060F0B0F870F85B
:100DC000B0F870F8A0F060F060F030F800B000808B
:100DD00000800080008000800080008000C0C0E0B3
:100DE000E0F868FC1C7E3CFFA5FF4BFF57FF54FF5B
:100DF00040FF50FFA8FF53FFE0FFFFFF01FF01FF8F
:100E000001FFFDFFFDFF01FFFFFF00FF001F1F3F70
:100E10002E7F70FE28FC80FF12FFD5FF21FFE8FF28
:100E2000E8FFE1FF10F920F040FF9FFF20FF5FFF88
:100E3000BFFF80FF40FF207F1F3F001F00E0A0F8A2
:100E4000D8FEDEFFD5FFA2FF05FF060F0007030750
:100E500001F370FFFAFFBDFFDEFFD5FF82FF0183C4
:100E60000001000100000000000000000000000080
:100E700000000018183C30F8B0F8B0F8D8FC38FC86
:100E800058FC38FC50F8B0F830F8183C0018000056
:100E900000000000000000000000000000E0E0F0A2
:100EA00070FC347E0E3F1EFF52FFA5FFABFF2AFFF2
:100EB00020FFA8FF54FF01FFFEFF02FF02FF02FF19
:100EC000FAFFFAFF02FFFEFF00FF0000000F0F1FF6
:100ED000173F387F143E001F193F3AFF90FF44FF31
:100EE00014FF70FF68FC00FF3F7F40FFBEFF7EFFE6
:100EF00001FF81FF40FF3F7F003F00000000000036
:100F0000000000F0F0F800FCFCFFFFFFD6FFC5FF7B
:100F100088FF078F000700000000000000010103A8
:100F200001030001000000000000000000000000BC
:100F30000000006060F0C0E0C0E0C0E060F0E0F001
:100F400060F0E0F040E0C0E0C0E060F00060000071
:100F50000000000000000000000000000000000091
:100F6000003030F8B8FCB8FF62FF56FFAFFFA8FFB3
:100F700081FFA0FF01FFFCFF04FF04FE04FEF4FE5E
:100F8000F4FE04FEFCFE00FE000000000000000075
:100F9000000000010103036767FFA6FF56FF42FF41
:100FA00014FFC6FF80FF7FFF80FF7CFFFCFF03FF75
:100FB00003FF80FF7FFF007F0000000000000000B3
:100FC000000000F0F0F800F8F8FCFCFFD2FFC5FFCD
:100FD00088FF058F010700030001010302070207D4
:100FE00001030001000000000000000000000000FC
:100FF0000000000000000000000000C0C0E080C051
:1010000080C080C0C0E0C0E0C0E0C0E080C080C060
:1010100080C0C0E000C0000000000000000000F838
:10102000F0F810F8D0F8D0F810F810F810F9F1FF37
:101030000DFFA2FF41FF02FF51FF5EFF2DFF85FF65
:1010400051FF70F970F8E0F000E00000000000FFD0
:10105000FFFF00FF0FFF15FFCAFFD4FF0CFFEDFFDE
:1010600008FF24FF5DFF4DFF49FF54FFABFF1BBF8F
:10107000071F03070003000100010000000000013A
:1010800001030207040F089F8BFFD5FFDAFFBDFFA6
:10109000F8FF73FF0FFF0EFF51FFADFFA5FFD0FF5D
:1010A00064FE78FCB8FCD8FCF0F800F0000000000A
:1010B00000F8E8FC94FE2CFE083C00080000000C40
:1010C00008DC50F828FC18FC28FC08FCD8FC90F838
:1010D00060F060F060F02070103000000000000050
:1010E000000101030007050F0E1F061F0A1F041E43
:1010F00000FF54FFA8FF20FF2AFFABFFA5FF52FF10
:101100001EFF0E3F347E70FCE0F000E000000000A7
:1011100000000000000000000000000000E0E0F01F
:1011200090F808FD70FFF4FFF4FF18FFEAFF29FFB5
:1011300080FF14BE387F173F0F1F000F0000000014
:101140000000000000000000008080FCD4FFDDFFF4
:10115000BCFFFBFF70FF00F101030007060F05FF56
:10116000A2FFD6FFDCFED8FCA0F800E00C0800D8F7
:1011700058FC60F858FD61FF5DFF5DFF61FF58FDA1
:1011800060F858FC00D806080038287C74FE74FE0D
:10119000287C00380030307A7AFF7AFF307A0030CD
:1011A00008087878FEFEFFFFFFFFFFFFFFFFFFFF4D
:1011B0007E7E007838FE56FF3EFF52FF4AFF26FF34
:1011C000007E006C4CFE46FF4EFF44FF48FF26FFAA
:1011D000007E080878783C3C3F3F7F7F7F7F7F7FA1
:1011E0007F7F3F3F3078183C183F277F317F197F42
:1011F000297F123F000C0C1E06EFEEFF72FFBEFFB0
:101200007EFF3C7E3F3F7F7F7F7F7F7F7F7F3F3FB3
:101210003C3C7878123F297F197F317F277F183F28
:10122000183C30783C7E7EFFBEFF72FFEEFF06EF7B
:101230000C1E000C08081414BEBEFFFFFFFFFFFFCA
:10124000FFFF5E5E0C0C001414BEBEFF9EFFB6FFD7
:101250005EFF0C5E000C001A1A7F4FFF8FFF9BFF92
:101260004FFF367F00360C101818FCFCFEFEFEFE09
:10127000FEFEFEFEFEFEFCFCF8F8E0E0C0C0000052
:10128000000000006161F3F3FFFFFFFFFFFFFFFFBE
:101290009F9F0F0F07070303001818FCC4FEDCFE16
:1012A000C4FE98FE64FE28FCC0F8C0E000C0000048
:1012B00000000000006160F392FF0AFF60FF96FFEC
:1012C0000A9F020F030700030000000C0C7E62FF60
:1012D0006EFF62FF4CFFB2FF14FE60FCA0F000E066
:1012E0000000000C0C1E001F11BFA9FF45FF20FFCE
:1012F000C4FF0ADF010B00010B100C0C1E1E7F7FC8
:10130000FFFFFFFFFFFFFEFEFCFCE0E0C0C08080AF
:101310000C0C1E1E1F1FBFBFFFFFFFFFFFFFFFFFC5
:10132000DFDF0B0B01010018183C24FEACFEBCFEF5
:101330005CFE18FC40F880C00080000000000060E7
:1013400060F292FF0AFF60FF96FF0A9F020F0307F9
:101350000003000C081E067F48FF4AFF1EFF8CFE9C
:1013600020FC40E080C00080000C0C1E001F11BF5C
:10137000A9FF45FF20FFC4FF0ADF010B0001001891
:10138000183C24FEACFEBCFE5CFE18FC00FE8CFE8D
:1013900074FE007C000E06EFE0F712FF0A1F021F2A
:1013A0001D3F20FFC0E100C000000508004C4CFFBD
:1013B000F3FF4CFF004C005C5CFEF6FF5CFE005C43
:1013C000180800FF01FF00FF01FF00FF03FF03FFFC
:1013D00000FF03FF07FF07FF07FF07FF07FF07FFE8
:1013E00003FF00FF03FF03FF00FF01FF00FF01FFFA
:1013F00000FF10087FFF41FF7DFF7DFF7DFF7DFF28
:101400007FFF00FF7FFF41FF7DFF7DFF7DFF7DFFB1
:101410007FFF00FF80FFBEFF82FF82FF82FF82FF0F
:1014200080FFFFFF80FFBEFF82FF82FF82FF82FFFF
:1014300080FFFFFF03063F213F03063F3F3F0700BA
:1014400000000F0000000707000007070000070763
:1014500000000F0F00000707000F0F0F0F0007001D
:1014600007000700000007000F0007000F00080832
:1014700077777077770777775727502552057275FA
:10148000030100012F010B010101030117010001FC
:101490002B572697271B158B235726886675B3482D
:1014A00067EB47976B77334515C8E1620D4AA65045
:1014B000FC2A09212903FEFC000F9F50A802050009
:1014C000FC828181818182FC08080000006060F854
:1014D000B8FDB1FB60F100600000004040E0E0F4C6
:1014E000E4FEE0F4E0F040E000400000007070FD39
:1014F0009DFF9EFF70FE0070000008080C1E043F58
:101500001E3F0C1E0C1E0C1E040E00060006040ED0
:101510000C1E0C1E0C1E1E3F043F0C1E1003020767
:101520000207020702070207020702070207020773
:101530000207020700070207000702070002100364
:10154000000202070007020700070207020702075E
:101550000207020702070207020702070207020743
:101560001010000000000000008080D0D0F8E8FCDF
:10157000DCFEBCFE6CFE7CFE08FC000800000000E7
:10158000000000000000000000E3E3F7F5FF36FF75
:10159000183F063F16FFF8FFA3FF80E300C00000DE
:1015A000000000000000000000000000000000003B
:1015B000008000800080008000000000000000002B
:1015C00000000000006060F070F8B8FC5CFEDAFF1C
:1015D000D7FF2FFF5BFF5FFF02FFE8FEA0F880E070
:1015E0000080000000000000000000C8C8FCE4FE0D
:1015F000EEFF5EFFB6FFBEFF04FE00040000000029
:1016000000000000000000000000000101E3E3F71B
:10161000F5FF96FF40FF367F003F0000000000000E
:1016200000000000000000000000000000000000BA
:1016300000800080008000800000000000000000AA
:101640000000000000C0C0E040F8B8FC7CFE7AFF5B
:1016500097FF4FFFDBFFDFFF02FF000200000000EB
:10166000000000F0F0F818FC183C307848FC24FE2C
:101670006EFFDEFFB6FFBEFF44FEC0E480C0008008
:10168000000000030307040F008480E0A0F030FF97
:10169000173F061F021F14FFF0FFA1F381E3008133
:1016A000000000000000008000800000000000003A
:1016B000008000800080008000000000000000002A
:1016C0000000003E3E7F43FF03C786CF44EECAFFC3
:1016D000D7FF2FFF5BFF5FFF02FFE0F2A0F080E08B
:1016E0000080000000000000008080C0C0E2E2F73F
:1016F000E4FEEEFFDEFFDEFFDEFFC4FE20F460F05E
:10170000207000000000000303E7E2F7B1FB93FF45
:101710000B9F030F0B1F1BFFF1FFA0F180E0008068
:10172000000000000000000000000000008080C0F9
:10173000008080C080C080C080C0008000000000A9
:10174000000000000000003030F8A8FC5CFEBCFF88
:10175000BDFF3BFFB7FFAFFF4FFFA1FF60F160F0A0
:10176000207000000000000000C0C0E8E8FCF4FEAB
:10177000EEFF5EFF36FFBEFF84FE00840000000027
:1017800000000000000000000032327F093F1D3FD2
:101790000C1F011F0D1F040F0107000100000000B6
:1017A000000000000000008080C0C0FAEAFFDCFFFB
:1017B000BCFE5CFE5CFE18FC00980000000000000F
:1017C00000000000000000030307076F217F287F4F
:1017D0001A3F1B7F7AFFB1FF83F7008300000000F0
:1017E00000000000000000000000000000000000F9
:1017F00000000000000000000000000000000000E9
:10180000000060F020F030F850F828FC58FE64FE2C
:101810000CFE5CFE0CFE34FE40FC4CFF2AFF6CFE0E
:1018200000FC000000000000000808FC7CFE6CFECC
:10183000BCFEDCFEE8FCD0F880D000800000000098
:1018400000000000000000C080E3A3FFF8FF16FFC7
:10185000063F183F36FFF5FFE3F700E30000000006
:101860000000000000000000000000000080008078
:101870000080008000000000000000000000000068
:101880000000008080E0A0F8E8FE02FF5FFF5BFF41
:101890002FFFD7FFDAFF5CFEB8FC70F860F0006045
:1018A0000000000000000000000404FEBEFFB6FFC0
:1018B0005EFFEEFFE4FEC8FC00C800000000000070
:1018C00000000000000000000000003F367F40FFE5
:1018D00096FFF5FFE3F701E30001000000000000C0
:1018E00000000000000000000000000000800080F8
:1018F00000800080000000000000000000000000E8
:101900000000000000000000000202FFDFFFDBFF1C
:101910004FFF97FF7AFF7CFEB8FC40F8C0E000C0A4
:1019200000000000008080C0C0E444FEBEFFB6FF9F
:10193000DEFF6EFF24FE48FC3078183C18FCF0F8FF
:1019400000F00000008181E3A1F3F0FF14FF021F0B
:10195000061F173F30FFA0F080E00084040F03074C
:101960000003000000000000000000000080008074
:101970000080008000000000000000800080000067
:101980000000008080E0A0F0E0F202FF5FFF5BFF5C
:101990002FFFD7FFCAFF44EE86CF03C743FF3E7F2A
:1019A000003E207060F020F4C4FEDEFFDEFFDEFFAC
:1019B000EEFFE4FEE2F7C0E280C00080000000001D
:1019C00000000000008080E0A0F1F1FF1BFF0B1F72
:1019D000030F0B9F93FFB1FBE2F703E70003000047
:1019E0000000000000000000008080C080C080C0B7
:1019F00080C0008080C00080000000000000000067
:101A00000000207060F060F1A1FF4FFFAFFFB7FF53
:101A10003BFFBDFFBCFF5CFEA8FC30F800300000BF
:101A20000000000000000000008484FEBEFF36FFBE
:101A30005EFFEEFFF4FEE8FCC0E800C0000000001E
:101A4000000000000000000000010107040F0D1F4E
:101A5000011F0C1F1D3F093F327F003200000000B4
:101A600000000000000000000000009818FC5CFE70
:101A70005CFEBCFEDCFFEAFFC0FA80C00080000014
:101A80000000000000000000008383F7B1FF7AFF30
:101A90001B7F1A3F287F217F076F03070003000089
:101AA0000000000000000000000000000000000036
:101AB0000000000000000000000000000000000026
:101AC000000000FC6CFE2AFF4CFF40FC34FE0CFEC4
:101AD0005CFE0CFE64FE58FE28FC50F830F820F046
:101AE00060F00B060C041E0C0C0400003B043B7859
:101AF00010000000000000000000000000000000D6
:101B00000000000000000000000000000000804015
:101B10008040C080000000000000000000000000C5
:101B20000000000000000000000000008000804075
:101B300020102050E0C08000000000000000804025
:101B4000804080C080000000000000000000000015
:101B5000000000000000000000000000A87C8040A1
:101B60008040A8FC00F000000000800080808080A1
:101B70008080804020108804A854E8D8B070E040ED
:101B800020100804820180412A172E55E3C18B17CB
:101B90002EDCF8F8F0C08080C0C0C04080402050EB
:101BA00028140A0502018040A07060400005AB7552
:101BB000EADCB874E2C18040A0D1EA77AF170A042A
:101BC00002018255EEDCB874E8D0B870E040A04065
:101BD0008040E0D08A151F111F152A1F2A7FE0C000
:101BE0008003083E211F223F2039252211251B0694
:101BF000043F0725191E2538013D033A251B0729F7
:101C00001E0508004CF34C00005CF65C0000000070
:101C10000200090F0000030401000C000000000096
:101C200000000000000000000000000000000000B4
:101C3000240027002A002D00300004080201104073
:101C40008040102040804080080204018040201025
:101C500002011080102040402000000000250028D4
:101C6000002B002E003100040404040403040502C8
:101C70000202020403020202020606060606060427
:101C80000402020204041A06222518003E0501007F
:101C9000330C33001200003E211F003E0501003EC0
:101CA00005011606222518003E050100330C3300FD
:101CB0001200003E211F003F013E0F063E041F00A0
:101CC0003E2511003F2010003F09060F063F090680
:101CD000003F2010003E051F00033C0322063E216A
:101CE00019003E051F003F023F003E251100000085
:101CF000003E211F000F300F003E2511001F093646
:101D00000808777770777707777757275025520538
:101D10007275030100012F010B010101030117017D
:101D200000012B572697271B158B2357268866758E
:101D3000B34867EB47976B77334515C8E1620D4AA7
:101D4000A650FC2A09212903FEFC000F9F50A8027F
:101D50000500FC828181818182FC1010000000005E
:101D60008060E4EAEE5EBEC480000000000000CEA9
:101D7000DF1F1616160BCFCF9F1E0C0000000000B1
:101D80008060F4F2F66EBEC48000000000001CDE2D
:101D9000DF0F0E0A1617DFDF9F0E0000301867EB0B
:101DA00047976B7733452B572697271B158B67EB88
:101DB00047976B7733452B572697271B158B67EB78
:101DC00047976B773345000000000000000015C8FE
:101DD000E1620D4AA650235726886675B34815C898
:101DE000E1620D4AA650235726886675B34815C888
:101DF000E1620D4AA65000000000000000002357D9
:101E000026886675B34815C8E1620D4AA650235767
:101E100026886675B34815C8E1620D4AA6500000D1
:101E2000000000000000000000000000000078102A
:101E300000000000000000000000000000000000A2
:101E40000000000000000000000000000080408052
:101E500040C0800000000000000000000000000002
:101E60000000000000000000000000800080402012
:101E7000102050E0C0800000000000000080408082
:101E80004080C08000000000000000000000000052
:101E90000000000000000000000000A87C804080DE
:101EA00040A8FC00F000000000800080808080805E
:101EB00080804020108804A854E8D8B070E040200A
:101EC000100804820180412A172E55E3C18B172E7A
:101ED000DCF8F8F0C08080C0C0C0408040205028AE
:101EE000140A0502018040A07060400005AB75EA4D
:101EF000DCB874E2C18040A0D1EA77AF170A0402CF
:101F0000018255EEDCB874E8D0B870E040A04080A3
:101F100040E0D08A151F111F152A1F2A7FE0C080BC
:101F20001B06023E01003E041F003E25110000007A
:101F300000003E2511003F011E003F211E28100019
:101F4000000000000000000000000000003E051F2F
:101F5000001F093600023E010000000000000000E2
:101F600000000000000000182A221C00223E210070
:101F70003C043800382410003C04080018342800C1
:101F80003C083C00183428003C043800083F042872
:101F9000100000000000000000000000003E2113BF
:101FA000003E211F003D211E003E251100000000C3
:101FB0000000000000000000003054443800724A65
:101FC000460030487800F8483000F8483000306863
:101FD000500070483E007C4226007048380078204F
:101FE000781F103E051F00000018A4780018243C3C
:101FF000003C083C001834280000001F243800185A
:10200000207C00000000000000000064544C007CB4
:102010004444001038100010381000000000000088
:10202000001720F8080808C8881020408000000029
:1020300000000000000000000000FF0050003F20F2
:102040001F00C0201F00E0F010F0E00070F080F0F2
:10205000F0FF00FF00FF413E817E817E0003070408
:102060000703000000000F070F080B0A0A0A050209
:10207000010000000000000000000000000000203F
:1020800020804020100A8F0A1020408000000000AD
:102090000000000000000000000000000000000040
:1020A00000FF005000FF0027B494F4E70060F090B8
:1020B000B0201010FCFE101000FCFE00E0F090F0CC
:1020C000E0FF00FF007F807317D413F700020604BF
:1020D000070300000F070000000F070003070406B6
:1020E00002000102052A7A2A050201000000000010
:1020F00000000000000000000000000000000000E0
:10210000000B0246000601460000008C004100184A
:102110000100008C004100180100008C00410018F3
:102120000100008C0000008C0000008C0000008C7E
:10213000000601180106014600060146004100188C
:102140000100008C0083008C0000008C004100180E
:102150000100008C004100180100008C0000008C80
:102160000000008C004100180101800B06060F1FC3
:102170003E1F0F06003B043B2307047C0200447C07
:1021800042007E047E007C4A22000201444A300064
:102190000000003E407C007E120C00005E13062210
:1021A0002518003E2113003E211F001F0936003E66
:1021B00025111010000000000000008080D0D0F831
:1021C000E8FCDCFEBCFE6CFE7CFE08FC00080000A7
:1021D0000000000000000000000000E3E3F7F5FF4E
:1021E00036FF183F063F16FFF8FFA3FF80E300C04D
:1021F00000000000000000000000000000000000DF
:1022000000000080008000800080000000000000CE
:10221000000000000000006060F070F8B8FC5CFE98
:10222000DAFFD7FF2FFF5BFF5FFF02FFE8FEA0F89A
:1022300080E00080000000000000000000C8C8FC32
:10224000E4FEEEFF5EFFB6FFBEFF04FE00040000EA
:10225000000000000000000000000000000101E399
:10226000E3F7F5FF96FF40FF367F003F00000000D8
:10227000000000000000000000000000000000005E
:10228000000000800080008000800000000000004E
:1022900000000000000000C0C0E040F8B8FC7CFE78
:1022A0007AFF97FF4FFFDBFFDFFF02FF0002000016
:1022B0000000000000F0F0F818FC183C307848FCF2
:1022C00024FE6EFFDEFFB6FFBEFF44FEC0E480C00A
:1022D0000080000000030307040F008480E0A0F0EA
:1022E00030FF173F061F021F14FFF0FFA1F381E329
:1022F000008100000000000000800080000000005D
:1023000000000080008000800080000000000000CD
:1023100000000000003E3E7F43FF03C786CF44EE2F
:10232000CAFFD7FF2FFF5BFF5FFF02FFE0F2A0F0C5
:1023300080E00080000000000000008080C0C0E25B
:10234000E2F7E4FEEEFFDEFFDEFFDEFFC4FE20F478
:1023500060F0207000000000000303E7E2F7B1FB2B
:1023600093FF0B9F030F0B1F1BFFF1FFA0F180E0FA
:10237000008000000000000000000000000000805D
:1023800080C0008080C080C080C080C0008000000D
:102390000000000000000000003030F8A8FC5CFEE7
:1023A000BCFFBDFF3BFFB7FFAFFF4FFFA1FF60F1D9
:1023B00060F0207000000000000000C0C0E8E8FCF1
:1023C000F4FEEEFF5EFF36FFBEFF84FE00840000D9
:1023D000000000000000000000000032327F093FD2
:1023E0001D3F0C1F011F0D1F040F010700010000FE
:1023F0000000000000000000008080C0C0FAEAFF7A
:10240000DCFFBCFE5CFE5CFE18FC009800000000D7
:10241000000000000000000000030307076F217F99
:10242000287F1A3F1B7F7AFFB1FF83F700830000EC
:10243000000000000000000000000000000000009C
:10244000000000000000000000000000000000008C
:102450000000000060F020F030F850F828FC58FE32
:1024600064FE0CFE5CFE0CFE34FE40FC4CFF2AFFBA
:102470006CFE00FC000000000000000808FC7CFE70
:102480006CFEBCFEDCFEE8FCD0F880D000800000D2
:10249000000000000000000000C080E3A3FFF8FF80
:1024A00016FF063F183F36FFF5FFE3F700E3000095
:1024B000000000000000000000000000000000809C
:1024C000008000800080000000000000000000008C
:1024D00000000000008080E0A0F8E8FE02FF5FFF3F
:1024E0005BFF2FFFD7FFDAFF5CFEB8FC70F860F0EF
:1024F00000600000000000000000000404FEBEFFB9
:10250000B6FF5EFFEEFFE4FEC8FC00C8000000005E
:10251000000000000000000000000000003F367FC7
:1025200040FF96FFF5FFE3F701E300010000000024
:10253000000000000000000000000000000000801B
:10254000008000800080000000000000000000000B
:1025500000000000000000000000000202FFDFFF9A
:10256000DBFF4FFF97FF7AFF7CFEB8FC40F8C0E02E
:1025700000C000000000008080C0C0E444FEBEFF38
:10258000B6FFDEFF6EFF24FE48FC3078183C18FCD6
:10259000F0F800F00000008181E3A1F3F0FF14FFE8
:1025A000021F061F173F30FFA0F080E00084040FD9
:1025B000030700030000000000000000000000808E
:1025C000008000800080000000000000008000808B
:1025D00000000000008080E0A0F0E0F202FF5FFF5A
:1025E0005BFF2FFFD7FFCAFF44EE86CF03C743FF31
:1025F0003E7F003E207060F020F4C4FEDEFFDEFF70
:10260000DEFFEEFFE4FEE2F7C0E280C000800000E3
:10261000000000000000008080E0A0F1F1FF1BFF3F
:102620000B1F030F0B9F93FFB1FBE2F703E70003C0
:1026300000000000000000000000008080C080C09A
:1026400080C080C0008080C00080000000000000CA
:1026500000000000207060F060F1A1FF4FFFAFFFAD
:10266000B7FF3BFFBDFFBCFF5CFEA8FC30F80030AD
:1026700000000000000000000000008484FEBEFF97
:1026800036FF5EFFEEFFF4FEE8FCC0E800C000008D
:102690000000000000000000000000010107040F1E
:1026A0000D1F011F0C1F1D3F093F327F003200002C
:1026B000000000000000000000000000009818FC6E
:1026C0005CFE5CFEBCFEDCFFEAFFC0FA80C000805E
:1026D00000000000000000000000008383F7B1FF4D
:1026E0007AFF1B7F1A3F287F217F076F03070003B4
:1026F00000000000000000000000000000000000DA
:1027000000000000000000000000000000000000C9
:102710000000000000FC6CFE2AFF4CFF40FC34FE71
:102720000CFE5CFE0CFE64FE58FE28FC50F830F8EF
:1027300020F060F0130622251800023E01003E053D
:102740001F003E2119003E25114F28000000000007
:102750000000000000000000000000000000000079
:10276000000000000000FE010501F117551557118A
:102770005111111151511111111111515111F10139
:102780000501FE0000000000000000000000000045
:10279000000000000000000000007E0834007E02FF
:1027A0007C00447C42007C0A02007C4A220000201B
:1027B00020202040807F000000FF004040685C68CF
:1027C0004800084040406060786C706000FF000086
:1027D00000FF0000000000000000000000000000FA
:1027E00000000000000000000000000000E000E029
:1027F00000C0A0E000E0000000E080400000000019
:10280000000000007D02C4C8C1B97979B9C1C1C155
:10281000010101010101010101010181810040204B
:10282000AF20202020202000007E207E007C083E5B
:1028300000447C42007E120C0000000007020700EA
:102840000700030007040200070003000001010164
:10285000010101BD402313031D1E1E1D03030300C0
:10286000000000000C1E1E0C204347474340405F01
:10287000404040404040000040C02000E000C00018
:10288000E040E000E020C0000000007A423C003E52
:10289000407C007C4226007E0834000004040404CE
:1028A00002017E80A08080808080808080F090D037
:1028B00090D090F08080808080808080A0807F0099
:1028C00000000000000000040300000304070007EC
:1028D0000007000701001E2C00000000000000009F
:1028E00080C0E0F0F8FCFEFFFEFCF8F0E0C08000E5
:1028F0000000000000008040E0F0F8FCFEFFFFFF59
:10290000FFFFFFFFFFFFFFFFFFFFFFFFFFFFFEFCDB
:10291000F8F0E0C0070F9EFDFBF70FDFBF7FFFFF62
:10292000FFFFFFFFFFFFFFFFFFFFFFFFFF1F0F077F
:102930001F0F1E3F7FF3E1C000FFFF0F1E3D7BF71F
:102940000FFFFF1F0F071F0FFFC3E180C0E07E3F97
:10295000000000000103000F1F3C78F0E0C000C33E
:10296000E180C0E07E3F1F0F070301000000000070
:10297000000000000000000000000103000F07033A
:10298000010000000000000000000000080B000231
:1029900002020000090400000102020000052400F8
:1029A000100105240101010424020605240600018A
:1029B0000705810310004009040100020A0000001D
:1029C00007050202400000070583024000000403DF
:1029D000090412010002EF02014041233680000188
:1029E0000102030141726475696E6F204C4C430013
:1029F0004142413131303600D92C11241FBECFEF76
:102A0000DAE0DEBFCDBF12E0A0E0B1E0ECEBF7E62C
:102A100002C005900D92AA30B107D9F728E0AAE0CC
:102A2000B2E001C01D92A430B207E1F714E1CDEF8E
:102A3000D4E104C02197FE010E94D633CC3FD107D8
:102A4000C9F70E94252D0C94DC330C940000809172
:102A500054030895CF93DF93AAEFB7E0CD91DC91B3
:102A600011978881E0E0F8E09081892B8883CD91EF
:102A7000DC91119788819081892B8883C091FC0714
:102A8000D091FD07988180910108809589238883E2
:102A90000D90BC91A02D9C918081809589238C9371
:102AA000DF91CF910895CF92DF92EF92FF920F9333
:102AB0001F93CF93DF93480F591F260F371FEE2424
:102AC000E394F12C841795077CF5EB01F90121348F
:102AD000310514F0E0E4F0E0CE17DF071CF5803894
:102AE0009105D8F4EC2FE695E695E695A0E8EA9FE7
:102AF000F0011124E80FF91FDE01A770BB27670161
:102B000002C0CC0CDD1CAA95E2F7D601ED51FC4FBA
:102B10001389002321F0A12BA38B2196D7CFA09559
:102B2000A123FACF0196CECFDF91CF911F910F91C4
:102B3000FF90EF90DF90CF9008954FB18CB123B10B
:102B400090E08095909533E0959587953A95E1F7DB
:102B5000887030E0209530953595279535952795E7
:102B60002470822B942F9095907F892B0895CF937A
:102B7000C82F0E949D15809103088C2329F4809111
:102B80000208C82381E009F480E0CF9108957F9284
:102B90008F929F92AF92BF92CF92DF92EF92FF926D
:102BA0000F931F93CF93DF937C01EA01209709F4E1
:102BB0008FC1FA0114913196549122962223F1F09B
:102BC000A1E0B0E0852F877011F4B0E0A0E0E52F20
:102BD000E695E695E695EA0FFB2FF11D1E9FC001D5
:102BE0001F9F900D1124033011F4880F991F289F07
:102BF000F001299FF00D1124CE0FDF1FA12F012E10
:102C0000000CBB0BF701EA0FFB1F1E161F060CF092
:102C10005FC180E8E816F1040CF05AC1CB01850FC2
:102C2000911D57FD9A95181619060CF051C1603484
:102C300071050CF04DC1209709F44AC1CB0177FF13
:102C400004C088279927861B970B382F3770CB0134
:102C500077FD079623E0959587952A95E1F7282F2C
:102C600077FF07C0332329F02FEF280F88E0831B5D
:102C7000382FAA24BB24AE18BF08F7FC02C0B12C21
:102C8000A12C90E89E19E038F1050CF4912F9A19C7
:102C9000622F022E000C770B462F40952F3F0CF031
:102CA00040E0852F877887FF03C08150886F8F5F52
:102CB0009924939418160CF0912C57FD595F559553
:102CC00055955595950E690D711D693071051CF06E
:102CD00058E0952E921A941A240F50E82503B0015B
:102CE00011246E0D7F1D6A0D7B1D1403F00111244C
:102CF000EA0DFB1DAE014E0F5F1FE32E032E000CED
:102D0000FF08033009F48FC00A3F09F448C00230BD
:102D100009F0DEC0CFEFD0E00E2C02C0CC0FDD1FDB
:102D20000A94E2F7C095D0958D2EA058B109461BA4
:102D3000570B920E291509F4CBC08B01E02FE61B2F
:102D4000E91708F064C0F801E40FF51FA490B12C56
:102D50000E2C02C0AA0CBB1C0A94E2F727FD0AC085
:102D6000E091E103F091E203E00FF11FD080DC225B
:102D7000DA28D082332381F0273074F4E091E10324
:102D8000F091E203680180E8C80ED11CEC0DFD1D36
:102D9000D080D820DB28D0820F5F1F4FCFCFA05824
:102DA000B109461B570B920E921609F491C0EB0124
:102DB0008C2F861B891788F5FA01EC0FFD1FE49113
:102DC000F0E05F010E2C02C0AA0CBB1C0A94E2F7D3
:102DD00027FD0AC00091E1031091E2030C0F1D1FB3
:102DE000F80180818A298083332379F027306CF4BD
:102DF000C090E103D090E2038E0100581F4F0C0DEC
:102E00001D1DF80180818B2980832196D1CF2F5FF2
:102E100060587F4F4A0F5B1F8DCF2F5F60587F4FE9
:102E20004A0F5B1FC1CFE090E103F090E203C92F8E
:102E3000D0E0E40FF51F8701060F171F60587F4F82
:102E40006E0D7F1D40E850E04C1B5D0BAC1BBD0BB5
:102E50007D01EE0CFF1CC1E0D0E0032E01C0CC0FC1
:102E60000A94EAF7D92FB12C90E080E0D12CC12C44
:102E70007D2E892CD801AC2ECF93DF93C62FD72F70
:102E8000C5908591332361F0CA9CC02CD12C8A9DBA
:102E9000802D27302CF4B8801094B120BD28B99231
:102EA000BC9022231AF08095B822BC28BD92DA95F6
:102EB00039F79A9451F0D72D23951124EE0DF11D79
:102EC000A40FB11DC40FD11DDBCFDF91CF91112411
:102ED000DF91CF911F910F91FF90EF90DF90CF90F6
:102EE000BF90AF909F908F907F9008950F9302E0D6
:102EF0000E94C7150F9108950F9303E00E94C71514
:102F00000F910895E1E0F0E00E949717319728F0C3
:102F100068517C4F8F4F9F4FF9CFAB01FC010E944E
:102F20009717641775078E079F07C8F30895ABE4DA
:102F3000B3E02FB7F8947D918D919C9166B52FBF2A
:102F4000A89B05C06F3F18F47F5F8F4F9F4F22E013
:102F5000660F771F881F991F2A95D1F70895FC01E6
:102F600080917E03882311F13FB7F89482E080932B
:102F7000E9002091F200822F90E01816190614F44F
:102F800081E090E0882339F0289844E640937D035F
:102F90004091F1004083222339F02091F200211169
:102FA00003C02BE62093E8003FBF08958FEF9FEF0B
:102FB00008952FB7F89483E08093E9009091E8009A
:102FC000892F807295FF04C09091F20080E4891BE4
:102FD0002FBF08958091750381110DC082E0809309
:102FE000710384E080937203109274031092730350
:102FF00081E08093750381E793E008958F929F921B
:10300000AF92BF92CF92DF92EF92FF920F931F93F6
:10301000CF93DF936C017B018A0180910B018823A0
:1030200009F458C080917E03882309F453C080912D
:10303000700380FF05C08091E00082608093E00013
:10304000E801B12C8AEFA82E93E0892E2AE3922E74
:10305000209711F4BB20B9F10E94D917811106C045
:10306000AA94AA20B9F10E948217F2CF8C171D06EC
:1030700011F00CF08C2F9FB7F8948092E90020910A
:10308000E80025FD02C09FBFE3CF282F30E0C21B20
:10309000D30BF701815020F041914093F100FACF1A
:1030A000E20EF31EBB2021F09092E800B12CEBCF92
:1030B0008091E80085FDE7CF9092E800BB24B394AF
:1030C000209709F3F3CF5D9884E680936F03101681
:1030D00011063CF081E090E0F6019383828310E0DA
:1030E00000E0C801DF91CF911F910F91FF90EF9009
:1030F000DF90CF90BF90AF909F908F900895CF9327
:10310000DF931F92CDB7DEB76983DC01ED91FC91AF
:103110000280F381E02D41E050E0BE016F5F7F4F00
:1031200009950F90DF91CF91089583E08093E90096
:103130008091F200882319F08AE38093E8000895D3
:103140000E94D91790E00895CF93DF931F92CDB7D7
:10315000DEB7FC018485958597FD08C02FEF3FEF12
:10316000358724870F90DF91CF910895CE01019686
:103170000E94AF17019719F4898190E0F3CF8FEF88
:103180009FEFF0CF0F931F93CF93DF931F92CDB795
:10319000DEB78C01FC018485958597FF0BC0CE01BD
:1031A00001960E94AF17019771F4898190E0F801B0
:1031B00095878487F801848595850F90DF91CF915D
:1031C0001F910F9108958FEF9FEFF1CFFC01848540
:1031D000958597FD0BC09FB7F89482E08093E90036
:1031E0008091F2009FBF90E0019608959FB7F894F8
:1031F00082E08093E9008091F2009FBF90E0089503
:1032000040916B0350916C032091690330916A03E4
:1032100042175307B4F49091E8009570E1F3909150
:10322000E80092FD19C08093F10080916B039091AA
:103230006C0301968F739927892B19F48EEF809375
:10324000E80080916B0390916C03019690936C035E
:1032500080936B0381E0089580E00895EF92FF92E0
:103260000F931F93CF93DF93F82E192FE62E042F81
:1032700081E0860F880F0E94001983E00E940019E8
:10328000CF2DD12FEC0EFD2EF11CCE15DF05B9F0A0
:1032900007FF13C0FE0184910E940019182F80E0DF
:1032A0000E940019812321968111EFCFDF91CF91E8
:1032B0001F910F91FF90EF9008958881EDCF81E0ED
:1032C000F5CFDF92EF92FF920F931F93CF93DF938F
:1032D000D82E8A01EB017B01E40EF51ECE15DF0529
:1032E00059F0D7FE12C0FE0184910E940019219668
:1032F0008111F4CF0FEF1FEFC801DF91CF911F9124
:103300000F91FF90EF90DF9008958881EECF0F939B
:103310001F93CF93DF931F92CDB7DEB782E08983EF
:1033200042E450E06CE879E280E80E9461190E9472
:10333000EA17DC0112960D911C910115110589F017
:10334000D801ED91FC910280F381E02DBE016F5F09
:103350007F4FC801099597FD04C0F80100851185CC
:10336000ECCF89810F90DF91CF911F910F9108953C
:10337000615030F02091F100FC0120830196F8CFDC
:10338000289884E680937D030895AF92BF92CF92F0
:10339000DF92EF92FF920F931F93CF93DF936C0115
:1033A0007B018B01040F151FEB015E01AE18BF08F6
:1033B000C017D10759F06991D601ED91FC910190A8
:1033C000F081E02DC6010995892B79F7C501DF91C0
:1033D000CF911F910F91FF90EF90DF90CF90BF9012
:1033E000AF900895282F30E0F901E35FF34E9491F8
:1033F000F901E65CF34E84912959334EF901249189
:10340000222309F430C09923E9F091509F30D0F481
:10341000E92FF0E0E25FF54E0C94D6333C1A401AE7
:103420001D1A341A381A221A221A221A431A491A51
:103430004D1A511A571A221A5B1A909180009F77E1
:1034400090938000E22FF0E0EE0FFF1FE75AF34E5B
:10345000A591B4919FB7F894EC91611132C0809519
:103460008E238C939FBF0895909180009F7DE8CF1D
:1034700090918000977FE4CF94B59F7794BDE2CF81
:1034800094B59F7DFBCF909190009F779093900093
:10349000D9CF909190009F7DF9CF90919000977F28
:1034A000F5CF9091C0009F779093C000CBCF9091C3
:1034B000C0009F7DF9CF9091C200977F9093C2008A
:1034C000C1CF8E2BCECFCF93DF9390E0FC01E65C93
:1034D000F34E24918959934EFC0184918823C9F0BD
:1034E00090E0880F991FFC01E45DF34EA591B49123
:1034F000FC01E75AF34EC591D49161110DC09FB7FD
:10350000F8948C91209582238C938881282328839A
:103510009FBFDF91CF910895623051F49FB7F89427
:103520003C91822F809583238C93E8812E2BEFCFC3
:103530008FB7F894EC912E2B2C938FBFEACFAB0171
:10354000FC010E94971741505109E109F10928F047
:1035500068517C4F8F4F9F4FF6CFAB01FC010E940B
:103560009717641775078E079F07C8F30895FF9292
:103570000F931F93CF93DF93F82EAB01FB01849140
:10358000CF2DD0E0259693E0CC0FDD1F9A95E1F783
:103590008695082F10E020E0BE0180E490E0801BBB
:1035A000910B0E947617809155038F111BC0F090EC
:1035B000650322972F2D41E05CE1BE0187E390E097
:1035C000801B910B0E9476172F2D41E05CE1BE011C
:1035D000C8018C5B9F4FDF91CF911F910F91FF909E
:1035E0000C947617DF91CF911F910F91FF90089562
:1035F0001092660310925C038CE380936303109235
:10360000550381E08093640385E080935E0310920C
:10361000460380935D031092600310925F03109243
:103620004503089590914403E62FF0E0899FE00D53
:10363000F11D1124CF019595879595958795E0917A
:103640004003F0914103E80FF91FE491637070E0CB
:10365000660F771F83E090E0062E02C0880F991F47
:103660000A94E2F7F0E08E239F2302C09595879598
:103670006A95E2F708953F924F925F926F927F9220
:103680008F929F92AF92BF92CF92DF92EF92FF9272
:103690000F931F93CF93DF93EA0128816C01C21A25
:1036A000D108D7FC97C08981681B862E062E000C96
:1036B00099082B81280D392D311DC901019797FDDE
:1036C000079633E0959587953A95E1F7482E87FF61
:1036D00013C080E0DF91CF911F910F91FF90EF9089
:1036E000DF90CF90BF90AF909F908F907F906F9022
:1036F0005F904F903F900895082E000C990B2091F9
:1037000044032817190629F324F38A818C0D9D2D73
:10371000911D8C010150110917FF02C0095F1F4F55
:1037200023E0159507952A95E1F78091430390E0F2
:10373000081719071CF08C0101501109760193E05C
:10374000F594E7949A95E1F767FD695F562E5594D5
:103750005594559457FC512C570183E0AA0CBB1C7F
:103760008A95E1F70E151F050CF4B3CF352C350102
:1037700088E0680E711C431434F1632D8E2D0E9475
:10378000121B909142038917E0F08A818C0D9D2DC8
:10379000911DA816B906ACF4C614D70494F4832D71
:1037A000880F880F880F082E000C990B2B81280D8D
:1037B000392D311D8217930724F40896881699062F
:1037C0004CF03394D8CF8FEFE81AF80A88E0A80EAF
:1037D000B11CC8CF81E07ECFBF92CF92DF92EF9233
:1037E000FF920F931F93CF93DF93E82E192F6B0156
:1037F000B42EF22E84E0289FA001112400E027E0DF
:1038000030E08E2D0E945315CE2DD12F10E044E3D1
:1038100054E11B1510F449E354E10AEF20E0B6012E
:10382000CE010E94C7151F5F2496F112F0CFDF91E1
:10383000CF911F910F91FF90EF90DF90CF90BF90AD
:1038400008956F927F928F929F92AF92BF92CF9284
:10385000DF92EF92FF920F931F93CF93DF93E801D4
:103860007C01E40EF11C47FDFA94962E920EE9E2DB
:10387000F2E009E213E080E099E0892EC92C092CDE
:10388000000CDD08358136FF53C09081933008F07D
:103890004FC048815701A41AB108899ED001112454
:1038A000A05DBE4F6C9141815281461B51096A81D6
:1038B0006A0D7B2D711D46175707D4F512966C9132
:1038C0001297460F511DA416B50694F573801196F4
:1038D0006C901197672D6619062E000C770B4981A5
:1038E000592D541B452F042E000C550BAB80A40EF4
:1038F000B52EB11C6A157B05DCF41396AC916A0FEA
:10390000711D46175707A4F4911106C0213011F418
:103910003062358381E00CC0213051F4472D770CA3
:10392000550B461951094F5F5F4FC416D50691F3E9
:1039300038960E171F0709F0A5CFDF91CF911F9181
:103940000F91FF90EF90DF90CF90BF90AF909F903E
:103950008F907F906F900895BF92CF92DF92EF92F9
:10396000FF920F931F93CF93DF93EC01E62E6A0132
:10397000B22EFF24F394161614F0FF24FA94EE20CE
:1039800031F16A816F0DA601888199810E943B1BEC
:10399000882359F081E0DF91CF911F910F91FF9023
:1039A000EF90DF90CF90BF900895B11005C08A814D
:1039B0008F0D8A83EF18E3CF86012F2D40E06A81B7
:1039C000888199810E94211C882389F3E3CF80E0BC
:1039D000E2CFE9E2F2E030E020E09581911125C0EC
:1039E00093E0220F331F9A95E1F7F901E75DFD4F50
:1039F000808372836183438399E0899FD00111247E
:103A0000A05DBE4F16969C91948380EC8583DF0168
:103A1000169681E0911101C080E08C93275D3D4FA7
:103A2000D90117961C92CF0108952F5F3F4F38960A
:103A30002032310591F6F0E0E0E0F5CF20915B0314
:103A4000E0915903F0915A03CF01029690935A03E3
:103A500080935903222319F08591949108958081D0
:103A600091810895CF92DF92EF92FF92CF93DF93EF
:103A70000E941E1D811520E8920791F4809171002B
:103A80008D7F809371001092910046984798109214
:103A90001402DF91CF91FF90EF90DF90CF900895C7
:103AA00021E020931402813020E8920751F48091A4
:103AB00057039091580390935A03809359030E949F
:103AC0001E1D469897FD05C020911302222309F47C
:103AD00054C020911202211150C021E02093150200
:103AE000EC01DF77209709F04BC081E0809316024C
:103AF00046983FE9C32E3FE0D32EE12CF12CCAEFCC
:103B0000D0E0E091DD03F091DE030995811103C05F
:103B100081E08093160280911502882329F080911C
:103B20001602882309F43FC047980E941E1D009783
:103B3000E1F19C01DE010E949333DC01CB0129E01D
:103B4000B595A795979587952A95D1F710929000EE
:103B50002AE020939100D0929900C092980080931F
:103B6000170290931802A0931902B0931A02809141
:103B700071008260809371008CCF10921502B0CFDB
:103B80009E0150E040E060E472E48FE090E00E942B
:103B9000523369017A0181E0C81AD108E108F108BD
:103BA00010921602AECF479AC0CF8FEF9FEFDC0185
:103BB000CDCFEF92FF920F931F93DC01E1E7F0E08E
:103BC00090819D7F908310925B03EFECF3E0F09384
:103BD0005A03E0935903F0935803E0935703B183DA
:103BE000A08373836283558344833783268311873D
:103BF0000087F386E2861F910F91FF90EF900C945F
:103C0000321DEF92FF920F931F9380914703909183
:103C10004803892BD9F086E08093660380E5809382
:103C200063038EE5E82EFF24F39408E811E026E90B
:103C300030E044EC50E064E670E082E690E00E9400
:103C4000D91D1F910F91FF90EF90089585E080930B
:103C5000660388E280936303F4CFEF92FF920F93A1
:103C60001F93CF93DF9310923E0382E0809366030D
:103C7000E9E2F2E089E293E0158238968E179F0719
:103C8000D9F71092210210922002E0914603F0E051
:103C9000EE0FFF1FE45FFE4FC081D181FE018491D2
:103CA000809343033196E491E0934403FE013296FE
:103CB0008491182F107C87FF83C093E09093420378
:103CC0001092260291E09093270210922402909382
:103CD00025021092230299E0909328029AE0909393
:103CE000220210923703FE013396E49198E0E99F97
:103CF000F00111243496F0933C03E0933B03E82F4A
:103D0000EF70EF5FEE0FEE0FEE0FE0933D0381E0FB
:103D100080933403109235031092310380933A0359
:103D200010921F021092300380932E0310922D03E5
:103D30001092360310922F0310921C02109233033C
:103D400010921E0210921D0210922C032496D09302
:103D50004103C09340038091430390914403899FA2
:103D6000C00111249595879595958795C80FD91F02
:103D7000FE01F490109248031092470300E0F01601
:103D800009F442C0FE01319684912296FE016491AD
:103D9000482F4F704F5F440F440F440FF8E06F9F60
:103DA000B00111246C5F7F4F82958F700E94E91CD7
:103DB000103C21F490934803809347030F5FDFCFBB
:103DC00092E09093420325E02093260297E090939F
:103DD00027021092280286FF10C094E090932402DC
:103DE00096E09093250291E09093370398E09093AA
:103DF000220291E09093230276CF209324029093A5
:103E0000250210923703F2CF109239031092380333
:103E100010923F038091470390914803892B99F0BA
:103E200084E8E82E83E0F82E02E610E02CE231E090
:103E300044EC50E06CE271E088E891E00E94D91D0A
:103E400088E780933F03DF91CF911F910F91FF90FF
:103E5000EF900895DC01E1E7F0E090819D7F908391
:103E600010925B03EFECF3E0F0935A03E0935903F5
:103E7000F0935803E0935703B183A0837383628365
:103E8000558344833783268380E090E89187808739
:103E90000C94321D9C01E1E7F0E090819D7F9083BE
:103EA00010925B03EFECF3E0F0935A03E0935903B5
:103EB000F0935803E0935703318320837383628325
:103EC00080E090E8958384830C94321D5F926F921A
:103ED0007F928F929F92AF92BF92CF92DF92EF929A
:103EE000FF920F931F93CF93DF934C01C9E2D2E06F
:103EF00080E099E0792E6401C40ED11CE62E660F95
:103F0000FF085701A20EB11C6624639413E09D8143
:103F100096FF81C0292F2F7009F07DC06881769EA1
:103F2000F0011124E05DFE4F2681222309F473C0C5
:103F300049815A812081DA01A21BB1099D01AC158A
:103F4000BD050CF068C07281270F311D82169306E3
:103F50000CF061C02B813181231B022E000C330B2E
:103F60002A153B050CF057C07381270F311DE2164F
:103F7000F3060CF050C06D3009F048C020913B03AF
:103F800030913C035524539495FF39C024173507CD
:103F9000CCF1512C1E839F609D836FE070E088E61A
:103FA00090E00E944A1F8D8185FF03C09E819C5F27
:103FB0009E8389608D83552069F18C81081708F4F0
:103FC0005CC080915F039091600328812350223070
:103FD00008F051C02D81207F2D836E820A96909328
:103FE000600380935F038D818F7B8D831C821F8292
:103FF0006EE170E08BE890E80E944A1F0BC0421708
:1040000053073CF690619D831E82CDCF6E3011F533
:1040100094FF17C081E02896B3E0C932DB0709F0AE
:1040200076CFDF91CF911F910F91FF90EF90DF90AE
:10403000CF90BF90AF909F908F907F906F905F9048
:104040000895892F86958695869584708E839961CB
:104050009D83B3CF6F3061F45524539495FD04C014
:10406000512C1E838D81A5CF1E8299619D83FACF2D
:104070001E829960EDCF4996B2CF801B8C836FE092
:1040800070E0B8CF61E085E00E94631A61E08DE0E6
:104090000E94631A81E080935403089508958EBDB1
:1040A00000000DB407FEFDCF8EB50895089590E091
:1040B00080E008958F929F92AF92BF92CF92DF924D
:1040C000EF92FF920F931F93CF93DF93CDB7DEB79D
:1040D0002A970FB6F894DEBF0FBECDBF5C016B010F
:1040E000022FBA0190E080E02AE0AE014F5F5F4FFF
:1040F0007A010E94FB32F70101900020E9F7AF013D
:10410000415051094E195F09142F842F8195880F52
:10411000013041F0023011F080E004C0842F81951D
:10412000880F880FA80EB11C87FDBA945527440F3D
:10413000551F440F551F4F5F5F4F00E027E030E0F1
:10414000B601C50101970E9453154701882D8E19AC
:10415000811790F4F40121914F0120532A3008F087
:1041600020E00AEF41EE5BE1B601C5010E94C715F0
:10417000F4E0AF0EB11CEACF2A960FB6F894DEBF7A
:104180000FBECDBFDF91CF911F910F91FF90EF90A8
:10419000DF90CF90BF90AF909F908F9008955F92E7
:1041A0006F927F928F929F92AF92BF92CF92DF9247
:1041B000EF92FF920F931F93CF93DF9380913F0372
:1041C000882309F495C0815080933F0380913E037A
:1041D000811125C08091610390916203009729F0BD
:1041E0000197909362038093610320913B03309188
:1041F0003C03245031098091430348E0849FC0016F
:104200001124821793070CF07FC6809146038F5FBD
:10421000809346030E94011E81E080933E0320911B
:1042200038033091390380913B0390913C03A901FD
:10423000495E5F4F481759070CF4ABC6489797FD86
:10424000A3C69093390380933803C0913803D0916B
:10425000390380913703882389F0CE016CE170E047
:104260000E94C233FB0120E04FEE5AE164E070E0AF
:1042700080E190E08E1B9F0B0E947617CE01D7FD48
:10428000079633E0959587953A95E1F7982E99270B
:104290006C01A0E1CA0ED11CA92CB12CCA14DB04FC
:1042A0000CF4BEC623E0AA0CBB1C2A95E1F7AC1A9D
:1042B000BD0AE12C10E000E0F12CB92DB1708B2E7D
:1042C00080914403E81608F0A9C66E2D892D0E943E
:1042D000121B81117BC6111187C6102F002309F410
:1042E00083C600E022E0882009F475C623E073C687
:1042F00080913603882369F08150809336038111C1
:1043000008C01092330380915E03811102C01092A5
:104310003A0380912F03882341F0815080932F032B
:10432000811103C081E080932E0380913A0388239A
:1043300009F434C28091360381113FC08091350366
:10434000811115C084E00E94B715882309F469C063
:10435000109231038EE0809335036AE070E08FE9BC
:1043600091E00E944A1F80913603811126C08091FE
:1043700035039091300391119CC781111EC080912B
:104380003403882381F088E00E94B715882359F010
:104390001092340381E080931F0284EE93EF909398
:1043A0001E0280931D0280913403882321F00E9415
:1043B0009D15829581708093300380913003C8E20F
:1043C000D1E0811102C0CCE2D1E080911C028823AF
:1043D00009F444C0815080931C0210913603E09090
:1043E000350311110CC0E11079C70E949D1585FF9E
:1043F00071C78FEF8093330381E080932D03F0909A
:104400003303FF2009F4B4C08091E9039091EA03DB
:1044100011117EC02091300364E021117DC062E063
:104420007BC080E80E94B715882309F4A0CF809153
:104430004503882371F081508093450381E0809388
:1044400031038EE0809335036AE070E08FE393E000
:1044500088CF65E070E082E690E083CF80911D0216
:1044600090911E0282549F4F20911F0290931E0232
:1044700080931D022223A9F097FD08C010921E020E
:1044800010921D0210921F0284E0A5CF68EE73E027
:104490000E94C23321E0AE018BE393E00E94AC1C8A
:1044A0009CCF68EE73E00E94C2331616170694F490
:1044B00021E0AE018BE393E00E94AC1C80933403B7
:1044C00080913403882309F488CF10921E02109241
:1044D0001D0283CF8E0121E040E060913D03809179
:1044E0003B0390913C030E94211C8111E7CF609116
:1044F0003D036F5FAE0180913B0390913C030E94AE
:104500003B1BDCCF81E08093330310922D0377CFE8
:1045100061E0123108F483CF70E00E94AE33892B42
:1045200039F58E0120E04F2D60913D0380913B03D2
:1045300090913C030E94211C81111AC00F2DFF0C89
:10454000110B80913B0390913C03AE0160913D03C0
:10455000800F911F0E943B1B81110AC080913B0379
:1045600090913C03080F191F10933C0300933B03E9
:10457000EE2079F160913D038FEF8E0D809335032E
:10458000893038F590913103992309F432C188308C
:1045900001F581E080932C0380913B0390913C03D3
:1045A00020912D0342EF5FEF211102C046E050E061
:1045B000840F951F90932A038093290380913003E1
:1045C000882309F414C186E0681B60932B032093B1
:1045D0001B0280913D03813514F010923A038091C3
:1045E0002C038823D9F18091290390912A032091EB
:1045F0001B02222309F41AC12DEF3FEF820F931FF4
:1046000090932A038093290360912B03615001E06A
:1046100024E048E00E94661F811110922C03009153
:10462000290310912A0344E251E060912B03C80151
:104630000E943B1B811110922C03809138039091B2
:1046400039039801285F3F4F281739072CF080580D
:104650009F4F8017910714F410922C038B80AA802F
:10466000E0903D038981E81A8881C0903B03D09097
:104670003C03C81AD10809E212E0D0E0C0E029E00A
:10468000722EAC0CBD2CB11C0E2C000CFF088E0C35
:104690009F2C911CD80115968C91159786FFF8C018
:1046A0008F7009F0F5C08C919DEF980F923008F44F
:1046B000EFC0789EF0011124E05DFE4F90811196CD
:1046C0002D913C911297291B31092A153B050CF0BD
:1046D000DFC09281290F311DC216D3060CF0D8C05D
:1046E00013962C9113979181291B022E000C330BEA
:1046F000281539050CF0CCC09381290F311DE21625
:10470000F3060CF0C5C0803109F4ACC008F091C0CC
:10471000833008F4BDC093E0CC0FDD1F9A95E1F71C
:10472000C75DDD4F80915E038823C1F190912F0317
:10473000911134C0209791F149815A8120913B0316
:1047400030913C0391E0421753070CF090E09093B6
:104750002D0391E0421753070CF09FEF9093330322
:1047600098E19093360310921F0210921C0210924F
:104770003503815080935E03882319F088E7809386
:104780002F0382E0809367032FE030E044EC50E099
:1047900069E170E080ED90E00E942A1FC9E2D2E05A
:1047A00061E1662E70E1572E0CE010E0EAE0CE2EBB
:1047B000D12CF9E08F2EA3E07A2E99249394B6E1C0
:1047C000AB2EB12C83E0E82EF12C2D8127FF9FC06A
:1047D000822F8F7009F474C08150207F282B2D8385
:1047E000811195C08C8181115DC01E82FCC28EE05A
:1047F000EBCE809130038823A1F084E0681BE09128
:104800003B03F0913C0380912D03882361F088EEF7
:104810009FEF02E022E048E18E0F9F1F0E94661F7B
:10482000D8CE8BE0EBCF90E080E0F3CF23E030E018
:10483000E5CE813109F06FCF809145038D5F809384
:10484000450380915F039091600388539F4F90933D
:10485000600380935F0315961C9228E230E04AEAD9
:1048600058E010C0F801158280915F0390916003B9
:104870008C599F4F9093600380935F0328E230E050
:104880004AE252E06EE170E085E594E00E942A1F62
:104890002196085F1F4FC032D10509F0FBCED0E052
:1048A000C0E040CF88818D3021F425FFACC185E088
:1048B00043C18E3009F034C025FF7FC287E03CC180
:1048C00026FF09C34881443110F5E42FF0E0E55993
:1048D000FB4D0C94D6337F2492249224DB24DB24DA
:1048E000F824F824F82450258325DB25C424052644
:1048F0002D267226DF26E824E8244027402725FFBE
:1049000006C08F818F5F8F83883241F41D82289685
:1049100023E0C932D20709F058CF58CC8C30B9F710
:104920009E82F5CF8091E9039091EA03B7010E943E
:10493000AE33892B61F7322F307269817A81413031
:1049400081F44FEF5FEF311102C041E050E0460FBC
:10495000571F5A8349838F818F5F873169F08F8317
:10496000D6CF81E090E0311102C08FEF9FEF860F2C
:10497000971F9A838983EFCF1F82332319F02F7DEE
:104980002D83C5CF2062FCCF8B818F5F8B838434D6
:1049900039F48091470390914803892B49F01D8297
:1049A0008091E9039091EA03B8010E94AE3309C0F7
:1049B0008CEF8B83F5CF8091E9039091EA038770A8
:1049C0009927892B09F0A3CF8E818F5F8170B4C0A6
:1049D000489DA0011124405D5E4F20E062E0CE01C1
:1049E00001960E94AC1C8881813109F490CFD8CF08
:1049F0008091E9039091EA03B7010E94AE33892BBD
:104A000091F48F8124FF14C08F5F8F838A3071F4FB
:104A10004B814A5069817A8182E10E94E91C8D8133
:104A20008F7E8D831F828D8184FF14C07E826FCF25
:104A3000E981FA81922F907261E070E025FD02C059
:104A40006FEF7FEF6E0F7F1F7A8369838F5F8731F0
:104A500081F08F838091E9039091EA038770992711
:104A6000892B09F054CF8E81823009F4CCC082E0CA
:104A700063C01F82992319F02F7D2D83D4CF463038
:104A800059F480913B0390913C03681B790B6E3580
:104A9000710514F420612D838D8180628D83C3CFD5
:104AA00025FD0DC089819A8140913B0350913C03C3
:104AB000841B950B8A35910514F420622D838D811A
:104AC00085FF25CF2091E9033091EA0320FD15C031
:104AD00089819A8101979A838983883F9F4F0CF43B
:104AE0001D828F818F5F8F8364E10E94A23391E0EA
:104AF00080FF9FEF8B81890F8B8327703327232BB8
:104B000009F4B1CF04CF8F8124FD2DC08C33B0F4D4
:104B10008F5F8F838091E9039091EA03B6010E9431
:104B2000AE33892B09F0F3CE9D818E8195FF9CCF0A
:104B3000853009F0BCCE84E08E83E9CE89819A81EC
:104B400040913B0350913C03BC016F5371094617E0
:104B5000570704F3815B9F4F84179507DCF22061B0
:104B60002D831F82D7CF49815A81922F907261E0A5
:104B700070E025FD02C06FEF7FEF460F571F5A838D
:104B800049838F5F8F83883631F4992381F02F7D9D
:104B90002F7E2D831F829F81892F837009F4BACFC6
:104BA0008B81943330F491E0890F8B83B3CF2062F3
:104BB000EFCF9FEFF9CF8091E9039091EA03B7011E
:104BC0000E94AE33892BD9F48F818E3110F48F5F20
:104BD0008F838F818E3199F469817A8180913B0333
:104BE00090913C03FB01E81BF90BEE35F1050CF04D
:104BF0003ECF4B81445083E10E94E91C1F828F818C
:104C0000843108F034CF81E097CF80913B039091BD
:104C10003C03039649815A818417950714F020625A
:104C20002D838D8185FF73CE20E04CE951E061E05A
:104C3000CE0101960E94AC1C882309F468CE8D81B8
:104C40008F7B8D832FE030E044EC50E069E170E031
:104C500080ED90E00E942A1F5ACE4091E9035091C6
:104C6000EA03CA0183709927892B09F524FF0BC039
:104C7000822F8F7E8D8325FF2AC02F7C2D839F81DD
:104C800087E5891B8F8329813A819D81892F8072D5
:104C900061E070E095FD02C06FEF7FEF260F371FD8
:104CA0003A8329832F812F5F2735A1F02F83CA01F3
:104CB000B5010E94AE33892B09F029CE9D818E81EA
:104CC00095FFD2CE863009F4F2CD86E035CF8062F2
:104CD0008D83D5CF1F82882319F09F7D9D83E7CFD9
:104CE0009062FCCF8091E90380FD42C049815A81E6
:104CF000922F907261E070E025FD02C06FEF7FEFB0
:104D0000640F751F7A8369838F818F5F8F838836E5
:104D100099F4992309F43FC02F7D2D831F82809140
:104D200021028F5F80932102833031F424FF02C07F
:104D30002F7E2D831092210280912102823068F50E
:104D40008C8190E00896209120022F5F2093200212
:104D500028171906A1F09CF04B818BE00E94E91CFA
:104D60001092200269E170E088E891E00E944A1FF9
:104D700080912102823018F08F818433D8F08091A5
:104D8000E9039091EA038F709927892B09F0BFCD31
:104D90008E819D8195CF2062C0CF9F81892F8370A6
:104DA00059F38B81943320F491E0890F8B83E0CF0A
:104DB0009FEFFBCF8D8185FD81CD83E0BDCE24FFAC
:104DC00006C02F7C2D83109221021F829E829D811E
:104DD0008F8195FF0AC08F5F8F83843609F097CD4E
:104DE0009F7D9D839E821F8292CDE0912002F8E0FC
:104DF000EF9FA00111249C8128E130E0973010F052
:104E000030E020E0E0912102E770E40FF52FF11D82
:104E1000E20FF31FE25CFB4EE491EE2319F098E001
:104E20008D3008F491E09E838F5F8F83803109F08D
:104E30006ECDEE2369F04B814E1B69817A8183E14F
:104E40000E94E91C69E170E088E891E00E944A1F35
:104E50001F82809121028F5F80932102883109F0A7
:104E600056CD8D8180628D838E8210922102809139
:104E700020028F5F672D0E94A2339093200247CDBE
:104E800029813A81215031093A832983E091E9034C
:104E9000F091EA03423189F44F819EEF940F8B81A8
:104EA000890F8B83483048F4CF01B6010E94AE339E
:104EB000892B19F481E0840F8F838B81853444F42E
:104EC00080913803909139030897281739070CF41B
:104ED0001D82CF0169CD8F818F5F8F83883009F06C
:104EE00016CD8E818F5F8E83833009F07CCF8881D1
:104EF000833021F4588220642D8377CC843011F4E0
:104F00006882F9CF1D826FCFE0914703F09148038B
:104F1000309721F08481882309F477C98091610357
:104F20009091620320913A03222319F0009709F02F
:104F300076C910923A03109245030097C9F4109273
:104F40005D0387E0809366038CE8809363035EE5EE
:104F5000E52EFF24F39401E310E026E930E042E679
:104F600050E064E670E084EC90E00E94D91D54C9E2
:104F70008C579C4F909362038093610380915D03F3
:104F8000815080935D03DDCF109239031092380376
:104F90005CC9265D3F4F281739070CF056C98A9720
:104FA0009093390380933803209143032051330BAE
:104FB00043E0220F331F4A95E1F7281739070CF019
:104FC00044C930933903209338033FC9823071F4C8
:104FD00020912802F12CE8E0EE9EB00111244EE66B
:104FE00054E1C5010E947617E3946AC9833081F4C5
:104FF000811002C0E0FC7AC120912402F1102091BE
:105000002602F0902302F11007C0FF24F394E3CFAF
:105010002091220200E0DFCF0F2DDDCF93943CC919
:1050200009E212E089E2E82E83E0F82E99E0D92E19
:10503000D80115963C91159737FF26C016962C91EE
:10504000169713966C911397062E000C770B1196FA
:105050008D919C9112973F7409F414C1EC91DE9EDE
:10506000F0011124E05DFE4F478150853581631BBF
:10507000710937FD73953481831B910937FD939531
:105080008C1B9D0B0E947C17085F1F4FE016F106DA
:1050900079F6E091E903F091EA0380913A032AE07E
:1050A000882339F18091360329E0811122C02091B3
:1050B00035032111EDC080913403882309F4F4C035
:1050C00080913303882389F0CF016CE070E00E9467
:1050D000AE33892B31F48091320391E0892780939C
:1050E0003203809132038111DBC080913003811142
:1050F0002F5FE370FF27EF2B71F48091360381114E
:105100000AC080912F03882331F080912E0391E013
:10511000892780932E0380912E03882309F447C0AA
:1051200010912D038BE0111101C080E0280F6091D8
:105130003D03062E000C770B6051710980913B03F3
:1051400090913C03089740E655E18C1B9D0B0E9413
:105150007C17809135038150873048F58091310369
:10516000811125C04EE355E1111102C04CE155E11A
:1051700060913D03062E000C770B8091300388234D
:1051800009F494C084E090E0681B790B80913B03A4
:1051900090913C0328EE3FEF111102C028E030E06F
:1051A000820F931F20E08C1B9D0B0E947C17809127
:1051B0002C03882389F060912B03062E000C770BBB
:1051C0008091290390912A0320912D034AEF54E105
:1051D0008C1B9D0B0E947C1725E040915E0370E0C4
:1051E00060E090E080E00E94EC1B00E027E030E00F
:1051F0004DE050E070E060E086E390E00E945315DF
:105200000AEF20E042EE5AE170E060E087E390E0D0
:105210000E94C7154091450350E020E070E060E037
:1052200084E490E00E945A2080916103909162038F
:105230006CE370E00E94AE33AB0122E070E060E00E
:1052400080E890E00E945A20E0914703F0914803E3
:10525000309709F452C02CE044816AE370E088E2A0
:1052600090E0DF91CF911F910F91FF90EF90DF9031
:10527000CF90BF90AF909F908F907F906F905F90F6
:105280000C94EC1B6A507109049748EC54E1F8CE79
:1052900080913103811102C0283020F426E025CF0F
:1052A00022E023CF24E021CF28E023CF8CE090E040
:1052B0006BCF811182C80E949D1584FD7EC84CE28F
:1052C00051E060913D0380913B0390913C030E942B
:1052D0003B1B71C80E949D1586FD14C98091340343
:1052E000882309F48CC81092330389C820912702BF
:1052F000F11087CE2091250284CEDF91CF911F91AE
:105300000F91FF90EF90DF90CF90BF90AF909F9064
:105310008F907F906F905F9008951F920F920FB6BD
:105320000F9211248F939F938091E1009091E1005F
:10533000937F9093E10083FF0FC01092E90091E00A
:105340009093EB001092EC0092E39093ED0010929A
:105350007E0398E09093F00082FF22C093E0909348
:10536000E9009091F200992319F09AE39093E800F4
:1053700090916F03992341F090916F039150909316
:105380006F03911101C05D9A90917D03992341F0C3
:1053900090917D03915090937D03911101C0289AC3
:1053A00084FF18C08091E2008E7E81608093E200CD
:1053B0008091E1008F7E8093E100809170038E7E6A
:1053C0008061809370039F918F910F900FBE0F901B
:1053D0001F90189580FFF7CF8091E2008E7E80614C
:1053E0008093E2008091E1008E7E8093E1008091C5
:1053F00070038E7E8160E5CF1F920F920FB60F92E1
:105400001124CF92DF92EF92FF920F931F932F936D
:105410003F934F935F936F937F938F939F93AF933C
:10542000BF93EF93FF93CF93DF93CDB7DEB76C9726
:10543000DEBFCDBF1092E9008091E80083FF25C058
:1054400068E0CE0145960E94B81982EF8093E8008B
:105450008D8987FF39C09091E80090FFFCCF982F8D
:10546000907609F034C19E894F89588D2F89F88C28
:10547000911131C0803861F580916E038093F10005
:105480001092F1008EEF8093E8006C960FB6F894BE
:10549000DEBF0FBECDBFDF91CF91FF91EF91BF91E6
:1054A000AF919F918F917F916F915F914F913F91BC
:1054B0002F911F910F91FF90EF90DF90CF900F9061
:1054C0000FBE0F901F9018959EEF9093E800C7CFE6
:1054D0001092F100D5CF913059F48111D3CF4130E2
:1054E000510581F680916E038D7F80936E03CACF44
:1054F000933049F48111C6CF4130510519F680919E
:105500006E038260F2CF953041F48091E80080FF15
:10551000FCCF20682093E300B5CF963009F0A9C0F6
:105520000B8D1C8D22E01092E90010926C031092FA
:105530006B03F2122EC010926A03109269030E944C
:1055400087191F8299E09983FA8291E09E8390EAFD
:1055500098879AEF998720916B0330916C03275FAE
:105560003F4F3C832B838D831092E90010926C0394
:1055700010926B0310936A030093690349E050E0B3
:10558000BE016F5F7F4F80E00E9461190E94871902
:1055900079CF10936A03009369030E94EA17DC0134
:1055A00012960D911C910115110509F451C1D801F4
:1055B000ED91FC910480F581E02DBE016B5E7F4F83
:1055C000C8010995009709F03EC1F80100851185D1
:1055D000EACFF3E0FF120EC08F89882309F440C0A0
:1055E000823061F440E867E080EF99E20E942E1972
:1055F000811148CF81E28093EB0047CF813029F4BD
:1056000040E86BE084EE99E2F1CF833099F70E9495
:10561000EA17DC011296ED90FC908E010F5F1F4F90
:105620006801E114F10479F0D701ED91FC91068055
:10563000F781E02DB801C7010995080F111DF70189
:10564000E084F184EECFD8011C92F6010190002095
:10565000E9F73197BF016C197D0940E0C601C6CF5B
:105660006EEC79E2FB01449150E080E80E94611900
:1056700009CF973009F4BECF983021F481E08093B0
:10568000F10000CF993009F0FDCE837009F0B2CF60
:10569000E5EEF1E081E031E096E32191222371F023
:1056A0008093E9003093EB00DF0111972C91209358
:1056B000EC009093ED008F5F873079F78EE7809351
:1056C000EA001092EA008F8980937E03DBCE8B8DF7
:1056D0009C8D1092E90010926C0310926B039093D2
:1056E0006A0380936903898D811192C08E899D8997
:1056F000913A49F4813209F07DCF47E050E064E00F
:1057000071E080E0B3CF913209F074CF833269F455
:105710008F89988DB0E0A0E0809300019093010103
:10572000A0930201B0930301ADCE803269F4809161
:10573000E80082FFFCCF67E084E091E00E94B819A6
:105740008BEF8093E8009ECE823209F09BCE8F894A
:1057500080930B01EEEFFFE7859194918B3F9C4D79
:1057600051F1E0E0F8E08091040190910501A091F1
:105770000601B0910701803B9440A105B105F1F409
:1057800080910B0180FD1AC0EE3F8AE0F80789F591
:1057900087E797E7918380838091600080936D0312
:1057A00088E19BE00FB6F894A895809360000FBE47
:1057B0009093600067CEEEEFFAE0D5CF80819181C3
:1057C0008737974709F05ECEA89580916000886181
:1057D0008093600080916D0380936000EE3F2AE02B
:1057E000F20789F08091FE0A9091FF0A91838083ED
:1057F00049CE808191818737980751F29093FF0AB3
:105800008093FE0AC5CF1092FF0A1092FE0A3ACE8C
:105810000E94EA17DC0112960D911C9101151105E9
:1058200009F4E8CED801ED91FC910190F081E02DD2
:10583000BE016B5E7F4FC8010995811123CEF8012F
:1058400000851185EBCF181619060CF41BCED2CEAD
:10585000F1E0FF12BECE62ED79E204CF0F920FB6F7
:105860008F939F93EF93FF9380914A038D5F8D37C2
:1058700008F08D5780934A03E0E5F3E080818E4F76
:10588000808391819F4F918382818F4F8283838117
:105890008F4F8383EBE4F3E080818F5F808381818E
:1058A0008F4F818382818F4F828383818F4F838348
:1058B0008FB18F6066991C9B88278F3681F4809109
:1058C0004903981B963068F0E0E0F8E087E78083B2
:1058D000818388E180936000F0936000FFCF909314
:1058E0004903FF91EF919F918F910FBE0F901895F3
:1058F0001F920F920FB60F9211242F933F934F9345
:105900005F936F937F938F939F93AF93BF93EF9327
:10591000FF938091170290911802A0911902B09103
:105920001A02892B8A2B8B2B09F440C08091160216
:1059300081110BC088B190E4892788B98091150244
:10594000882319F088B1805888B980911702909106
:105950001802A0911902B0911A02181619061A0617
:105960001B069CF48091170290911802A0911902D5
:10597000B0911A020197A109B1098093170290937F
:105980001802A0931902B0931A02FF91EF91BF91F0
:10599000AF919F918F917F916F915F914F913F91C7
:1059A0002F910F900FBE0F901F9018950E94321DDF
:1059B000ECCFEFE7F3E01382128288EE93E0A0E0F1
:1059C000B0E084839583A683B7838FEE91E09183C3
:1059D00080838FEF9FEF95878487E3EEF3E0138258
:1059E000128281E092E0918380838CE38583178229
:1059F000168280E1808711861286138614861586AA
:105A000016861786108A118A128A1092020810923E
:105A10000308AFEDB3E01196FC93EE9386EF93E0AD
:105A200013969C938E93129787E295E19093DE03F1
:105A30008093DD0380E090E89093DC038093DB03A8
:105A400046983E9A47983F9A0895789483E084BD9B
:105A500083E085BD81E080936E00E1E8F0E083E0C3
:105A60008083E0E881E08083E1E983E08083E0E90E
:105A700081E08083E1EC87E08083E3EC81E0808358
:105A8000E0EC82E08083E2EC81E08083EAE787E07B
:105A900080838068808310927E0310926E03109240
:105AA00070038091D70081608093D70080EA809353
:105AB000D80089B5806189BD89B5826089BD09B486
:105AC00000FEFDCF0E9482178091D8008F7C8061FC
:105AD0008093D8008091E000807F8093E0008091E7
