:020000040000FA
:100000000C94C2090C94EA090C94EA090C94EA09CC
:100010000C94EA090C94EA090C94EA090C94EA0994
:100020000C94EA090C94EA090C9440220C94AF2237
:100030000C94EA090C94EA090C94EA090C94EA0974
:100040000C94EA090C94EA090C94EA090C94EA0964
:100050000C94EA090C94EA090C94EA090C94E12442
:100060000C94EA090C94EA090C94EA090C94EA0944
:100070000C94EA090C94EA090C94EA090C94EA0934
:100080000C942B250C94EA090C94EA090C94EA09C7
:100090000C94EA090C94EA090C94EA090C94EA0914
:1000A0000C94EA090C94EA090C94EA090000000097
:1000B000F87FF87FFCFF4CC2FCFF54BAFCFF5CBA2F
:1000C000FCFF5CBAFCFF5CA0FCFF5CACFCFF5CAC22
:1000D000FCFF5CA0FCFF5CBAFCFF5CBAFCFF54BAFE
:1000E000FCFF4CC2F87FF87F000000000000000019
:1000F0000000000000000000F007F007F047F047A4
:10010000F087B086F007B006FCFFB4F6FCFFB4F64B
:10011000F007B006F087B086F047F047F007F00729
:1001200000000000000000000000000000000000CF
:10013000000000000000000000380038007C00448F
:1001400038FE38BAF8FFE8BDFCFF0CBCFCFF0CBC65
:10015000F8FFE8BD38FE38BA007C004400380038AB
:10016000000000000000000000000000000000008F
:1001700060006000E00FE00DF03FF03DF17FF17DA9
:10018000FBFFFBFDFFFFFEFDFFFFFEFDFFFFFEFD92
:10019000FFFFFEFDFBFFFBFDF17FF17DF03FF03D3A
:1001A000E00FE00D60006000000000000020000093
:1001B000007000000070000000F80000C0FFC03FA9
:1001C00000F9000900F9000900F9000900F9000927
:1001D00000F9000900F90009C0FFC03F00F8000065
:1001E000007000000070000000200000040000000B
:1001F0000E0000000E0000001F000000FF03FC03C3
:100200009F0090009F0090009F0090009F00900032
:100210009F0090009F009000FF03FC031F00000060
:100220000E0000000E0000000400000001000200AB
:1002300004000800100020004000800000010002BF
:1002400000040008001000200040008001020408A3
:10025000102040800F00080F0004080C0F0002055A
:10026000080A0D0F00020406080A0C0E0F00010315
:10027000040608090B0C0E0F00010204050608090C
:100280000A0C0D0E0F0001020304050608090A0BF3
:100290000C0D0E0F000102030405060708090A0BE6
:1002A0000C0D0E0F0F0000010203040506070808DD
:1002B000090A0B0C0D0E0F0F0000010203040405C8
:1002C00006070808090A0B0C0C0D0E0F0F000001A1
:1002D00002020304050506070808090A0A0B0C0DAB
:1002E0000D0E0F0F000001020203040405060607AD
:1002F0000808090A0A0B0C0C0D0E0E0F0F00000166
:1003000001020303040405060607080809090A0B8D
:100310000B0C0C0D0E0E0F0F000001010202030466
:10032000040505060607080809090A0A0B0C0C0D46
:100330000D0E0E0F0F00000101020203030404055D
:1003400005060607080809090A0A0B0B0C0C0D0D17
:100350000E0E0F0F00000101020203030404050545
:1003600006060707080809090A0A0B0B0C0C0D0DF5
:100370000E0E0F0F0FD60932041403020060005650
:10038000091E05140302016000D60814070A0200C2
:1003900000500156080A07050100003200FFFFFF68
:1003A000FFFFD1FFFFF9FFF9FFC1EBC1FFD3C1E5AB
:1003B000FFCDF7D9FFCBD5EBFFFFF9FFFFFFE3DD63
:1003C000FFFFDDE3FFEBF7EBFFF7E3F7FFDFEFFF07
:1003D000FFF7F7F7FFFFDFFFFFCFF7F9FFC3DDE11F
:1003E000FFDBC1DFFFCDD5D3FFDDD5EBFFE1EFC7ED
:1003F000FFD1D5E5FFC3D5E5FFCDF5F9FFC3D5E1C5
:10040000FFD3D5E1FFFFEBFFFFDFEBFFFFF7EBDDF6
:10041000FFEBEBEBFFDDEBF7FFFDD5F9FFE3DDD302
:10042000FFC3F5C1FFC3D5E9FFE3DDDDFFC1DDE3B8
:10043000FFC3D5D5FFC3F5F5FFE3DDC5FFC1F7C1A8
:10044000FFDDC1DDFFEFDDE1FFC1F7C9FFC1DFDF88
:10045000FFC1FBC1FFC1FDC3FFE3DDE3FFC1F5F356
:10046000FFE3CDC1FFC3F5C9FFDBD5EDFFFDC1FD46
:10047000FFE1DFC1FFE1DFE1FFC1EFC1FFC9F7C964
:10048000FFF9C7F9FFCDD5D9FFFFC1DDFFF9F7CFE0
:10049000FFFFDDC1FFFBFDFBFFDFDFDFFFFFFDFB3C
:1004A000FFE7DBC3FFC1DBE7FFE7DBDBFFE7DBC128
:1004B000FFE7CBD3FFC3EDFBFFB7ABC7FFC1F7CF60
:1004C000FFFFE5DFFFBFCBFFFFC1F7CBFFFFE1DFA2
:1004D000FFC3F7C3FFC3FBC7FFE7DBE7FF83DBE730
:1004E000FFE7DB83FFC3F7FBFFD7D3EBFFE1DBDFE6
:1004F000FFE3DFC3FFC3DFE3FFC3EFC3FFCBF7CBF4
:10050000FFF3AFC3FFDBCBD3FFF7C1DDFFFFC1FFBD
:10051000FFDDC1F7FFFBFDFBFFE3EDE3FF8D14A162
:10052000C881CFD9F102AF00000000000000000038
:10053000000000000000000000000000000000F0CB
:1005400000B000FC7F9C5EFA7F9A5EF000B0000075
:10055000000000000000000000000000000000009B
:10056000000000000000000000000000000000008B
:10057000000000000000000000000000000000F08B
:1005800000B000F87F985EFD7F9D5EF000B0000037
:10059000000000000000000000000000000000005B
:1005A000000000000000003E006F6666006F6E00F5
:1005B000536F756E643A00537461727400627920EF
:1005C000406A616D657368686F776172640043416A
:1005D0005441434F4D4253204F46205448452044F8
:1005E000414D4E454400456E746572696E672066E4
:1005F0006C6F6F720000000000C0070000F00F0079
:1006000000F81F0000FC3F0002FE3F0001FE7F904B
:1006100001FE7FE003FE7FC007FE7F8009FC7F8034
:1006200000FC3F4000F81F0000F00F0000E0030056
:1006300000000000000000000000000000F000F0DA
:1006400000F801F801FC03FC03FC07DC07FC073C95
:1006500007FC173C16F8077804F02FF02CE00FE0A9
:100660000F001E001E8018801800220022000000CB
:1006700000000000001C1C00000000000000000042
:10068000000006060F0E1F1C7E78FCF4FEE8FC90AE
:10069000F860F080E0008000000000000000000032
:1006A000000000000000000000000000000000004A
:1006B0000C0C1E1C3E387C70F8E0F0C0E080C0805E
:1006C000C080C7C7FFFFFFFFFFF8FFFFFFE0FFFC91
:1006D000FE00FC0000000000000000000000000020
:1006E000000000000000000000000000000000000A
:1006F000000003030F0F1F1F3F3F7F7FFFFFFFFF20
:10070000FFFFFFFFFFFFFFFFFFFEFFF0FE60F04077
:10071000E000C000800000000000000000000000B9
:1007200000000000000000000000000000000000C9
:1007300000000000000001010F010F010F000F0079
:100740000F000F000F000F000F000F000F000F0031
:100750000F000F000E000C1C1B000000000000002A
:1007600000003838FCF8FCE0F880E0008000FFFE74
:10077000FFFCFEC0FC00F0F0F8F0F800F0C0E00074
:10078000C0000000000000000000000000000000A9
:100790000000000000000000000000000000030353
:1007A0000F0FFFFEFFFCFFFFFFFFFFFFFFF8FFFF44
:1007B000FFFFFFFCFFFFFF1FFF001F000000000006
:1007C0000000000000000000000008081C183C1891
:1007D0003C183C183C183C1C3E3E7F3F7F7FFF7F0F
:1007E000FF7FFFFFFFFFFF7FFF3FFF1FFF1FFF0F89
:1007F000FF0EFF00FE00F000F000E000E000C0008F
:10080000C000000000000000000000000000000028
:1008100000000000000000000000000001000100D6
:100820000700070007000700070007000700070090
:100830000700070007000700077CCEB69AB6CE7CFB
:10084000007CE6C68EC6E67C0046494E414C2053ED
:10085000434F52453A0000000000DC0FDC0F7800E7
:100860004800F07F007FF8817880FC1FFC1EFC2789
:100870007C27FC0F540FFC0F6C0FFC277C27FC1F00
:10088000FC1EF8817880F07F007F78004800DC0F44
:10089000DC0F0000000000000000B007B007F00807
:1008A0009008E03F003EF043F040F83FF83DF84F3D
:1008B000F84EF81FA81EF81FD81EF84FF84EF83F44
:1008C000F83DF043F040E03F003EF0089008B007EC
:1008D000B007000000000000000080070000C00317
:1008E0000000E0030000C0070000C0010000F00F9E
:1008F0008000E0070000E0070000F00F8000C0016A
:100900000000C0070000E0030000C00300008007F3
:100910000000000000000000000040010000C003D3
:100920000000C00700008007000080030000E01FF7
:100930000001C00F0000C00F0000E01F0001800395
:10094000000080070000C0070000C0030000400155
:1009500000000000000000000000000E000C000F6E
:10096000000980078003F807F803FCFF0477FE3FC7
:100970005626FE3FF636FE3FF636FE3F5636FC7FE5
:100980000437F803F803800180011C1E1C0CF67F5D
:10099000F66D000000000000000000000000000CE8
:1009A000000C800F800BF007F003F87F0836FC3F47
:1009B000AC24FC3FEC35FC3FEC35FC3FAC34F8FF9D
:1009C0000876F003F00300030003383C3818ECFF0E
:1009D000ECDB0000000000000000003F003F007F53
:1009E0000041007F005D007F005DFC7F7C41FE7F59
:1009F0006E3FFE3F0E00FE1F0E1BFEFF6EFBFCFF58
:100A00007CFB801F0011801F0004FC1FFC15000EE2
:100A10000004000E000000000000003F003F007FC7
:100A20000041007F005D007F005DF8FFF8C1FCFF22
:100A3000DCBFFC3F1C00FC3F1C36FC7FDC76F87FF3
:100A4000F876001F0002001F0008F83FF82B001C7A
:100A50000008001C00004B494C4C533A00000000B9
:100A600000000000000060006000F000D000F00016
:100A7000D080FF80DFC07F4075C07F4075C07F4061
:100A800075807F807F00FC00D400FC00D400FC0057
:100A9000D400780078000000000000000000000092
:100AA000000C000C003C9C309CFCFF846FFCFFFCA5
:100AB0008DFCFF5CEFFCFF5CEDFCFF7CEDFCFF5C64
:100AC000EDFCFF5CEDFCFF5CEDFCFFDCEDFCFF5C96
:100AD000EFFCE3FCE37860786000000000000000B9
:100AE0000000000000C03FC02F807E805E007C00C0
:100AF0005C00FC00BC20FF20BFF0FFF0B9F0FFF06D
:100B0000B920FF20BF00FC00BC007C005C807E8020
:100B10005EC03FC02F000000000000000000000089
:100B200000F07FF07FF8FF18C2F8FFE8BAF8FFF88E
:100B3000BAF8FFF8BAF8FFF8A0F8FFF8ACF8FFF839
:100B4000ACF8FFF8A0F8FFF8BAF8FFF8BAF8FFE839
:100B5000BAF8FF18C2F07FF07F000000004C4F4F42
:100B6000543A004B696C6C65642062792061207393
:100B70007069646572206F6E206C6576656C004BE1
:100B8000696C6C6564206279206120626174206FF9
:100B90006E206C6576656C004B696C6C65642062D8
:100BA000792061206B6E69676874206F6E206C65B8
:100BB00076656C004B696C6C6564206279206120FD
:100BC0006D616765206F6E206C6576656C00596F8E
:100BD0007520657363617065642074686520636166
:100BE0007461636F6D6273210047414D45204F561C
:100BF00045520031010700000015008D010700007B
:100C00000007003C03070019020700380207005ADA
:100C1000020700800007005A021D007E0007005AEC
:100C20000207003802070028020700190207007DAA
:100C3000000E008D0107002801070020010700F8C1
:100C4000000700EF0007007D000700AC0007009BD5
:100C5000000700930007008E0007008B0007008745
:100C6000000700840007007D0007008100070000E6
:100C700080466F756E6420616E20616E6369656E7B
:100C800074207363726F6C6C00466F756E642061C4
:100C9000206A6577656C20656E6372757374656430
:100CA0002063726F776E00466F756E6420736F6D90
:100CB0006520676F6C6420636F696E7300447261B6
:100CC0006E6B206120706F74696F6E206F66206894
:100CD00065616C696E670095010700000015008D65
:100CE00001070000000700160407007F000700004E
:100CF000000E007701070000001D004601070040BC
:100D00000107003B01070000004700E7000700E47F
:100D1000000700000015009F0007009D000700006D
:100D200000880088000700008051010700000015BE
:100D3000008D010700000007004B01070036010786
:100D40000046010700690107009E0107007F0007B8
:100D50000085010700280207006D020700FC02075A
:100D600000E0020700FD010700190207003C03072D
:100D700000E7000700810207006D020E002D050E3E
:100D800000DA040E001C0107008703070060030758
:100D9000003C03070087030700AD020E00C60207F0
:100DA000000C010E00E0020700C602070096020ECA
:100DB0000081020700AD020700C6020700E002073B
:100DC00000E10007001B03070048020700190207A3
:100DD00000F1010700D9010E00F10107000B020725
:100DE00000AD020700D100070048020700380207E3
:100DF000001902070028020E000B020700E5010798
:100E000000D90107000080E002070000001500E2A1
:100E100003070000000700DA041500B4000700D93A
:100E200001070000000700F1010E0080000700F13B
:100E300001070000000E005A020700E4000700004E
:100E4000001500C100070000000E00E501070000CA
:100E5000000700AC0007000000150091000700002B
:100E60008010010700000015008D01070000000739
:100E700000D9010700FD0107000B020E0028020E39
:100E80000038020700480207006D020700810232A5
:100E9000006D0215004802070038020700B0010784
:100EA000007E010700690107004B010700360107BA
:100EB000003101070002010700F8000700F20007F7
:100EC00000E9000700E4000700D8000700BD0007A4
:100ED00000AB0007009D0007009600070094000784
:100EE00000920007008E0007008B0007008A0007B1
:100EF00000890007008800070087000700860007B8
:100F000000850007008400070083000700820007B7
:100F10000081000E0081000700800007007E0007AE
:100F2000007D0007007D00070000004000900032B7
:100F3000000080080B00020202000009040000010A
:100F4000020200000524001001052401010104240F
:100F5000020605240600010705810310004009046C
:100F60000100020A00000007050202400000070518
:100F700083024000000403090412010002EF020191
:100F8000404123368000010102030141726475690A
:100F90006E6F204C4C4300414241313130360001EC
:100FA00003070F1F3F7FFFFFFEFCF8F0E0C0800546
:100FB000002B802B005580552B002B2B552B555586
:100FC000405540804162616E646F6E20616C6C20A0
:100FD000686F70652079652077686F20656E74652D
:100FE000722100466F756E642061206368657374BA
:100FF0002066756C6C206F66207472656173757203
:101000006521002001070000001500E9000700002D
:10101000000700560115000000320085011D000088
:101020000040000B0215000000320087032400007E
:1010300000400087032B0000004000B20332000094
:1010400080000006000C00120019001F0025002B74
:1010500000310038003E0044004A00500056005C59
:1010600000610067006D00730078007E00830088D7
:10107000008E00930098009D00A200A700AB00B076
:1010800000B500B900BD00C100C500C900CD00D148
:1010900000D400D800DB00DE00E100E400E700EA55
:1010A00000EC00EE00F100F300F400F600F800F9A7
:1010B00000FB00FC00FD00FE00FE00FF00FF00FF43
:1010C00000FF00FF00FF00FF00FE00FE00FD00FC2F
:1010D00000FB00F900F800F600F400F300F100EE68
:1010E00000EC00EA00E700E400E100DE00DB00D8ED
:1010F00000D400D100CD00C900C500C100BD00B9B9
:1011000000B500B000AB00A700A2009D00980093BE
:10111000008E00880083007E00780073006D0067F9
:101120000061005C00560050004A0044003E003858
:101130000031002B0025001F00190012000C0006D2
:10114000000000FAFFF4FFEEFFE7FFE1FFDBFFD551
:10115000FFCFFFC8FFC2FFBCFFB6FFB0FFAAFFA4CE
:10116000FF9FFF99FF93FF8DFF88FF82FF7DFF7830
:10117000FF72FF6DFF68FF63FF5EFF59FF55FF5071
:10118000FF4BFF47FF43FF3FFF3BFF37FF33FF2F7F
:10119000FF2CFF28FF25FF22FF1FFF1CFF19FF1652
:1011A000FF14FF12FF0FFF0DFF0CFF0AFF08FF07E0
:1011B000FF05FF04FF03FF02FF02FF01FF01FF0124
:1011C000FF01FF01FF01FF01FF02FF02FF03FF0418
:1011D000FF05FF07FF08FF0AFF0CFF0DFF0FFF12BF
:1011E000FF14FF16FF19FF1CFF1FFF22FF25FF281A
:1011F000FF2CFF2FFF33FF37FF3BFF3FFF43FF472E
:10120000FF4BFF50FF55FF59FF5EFF63FF68FF6D07
:10121000FF72FF78FF7DFF82FF88FF8DFF93FF99AC
:10122000FF9FFFA4FFAAFFB0FFB6FFBCFFC2FFC82D
:10123000FFCFFFD5FFDBFFE1FFE7FFEEFFF4FFFA93
:10124000FFCE010700000015008D01070000000718
:10125000001604070091040700B2030700DA040730
:10126000002D051500DA04070091040700E00207CD
:1012700000960207005A020700F101070019020751
:101280000000000700CE0107007C000E005C010793
:10129000007D000E00200107007D000E00EF00071A
:1012A00000D5000700CA00070000000700C10007C2
:1012B00000B9000700B3000700A90007007D000780
:1012C000007E000700930007007E00070000000773
:1012D00000890007008500070082000700800007E2
:1012E000007E0007007D0007000080B001070000BD
:1012F000001500C800070000000700B203070060E7
:10130000030700E0020700960207004802070019E1
:10131000020700FD01070050040700CE010700B9D5
:10132000010700A7010700500407007E01070063C2
:10133000010700400107002D050700100107000903
:1013400001070002010700F8000700DA040700CADD
:10135000000700BB000700B30007009104070096D8
:10136000000700D800070000001D009602070000DB
:10137000002B002802070000002400FB000E0000E4
:1013800080008C2511241FBECFEFDAE0DEBFCDBF79
:1013900011E0A0E0B1E0E6ECFCE602C005900D92A1
:1013A000AE32B107D9F72AE0AEE2B1E001C01D923A
:1013B000AA32B207E1F719E0C2ECD9E004C02197E4
:1013C000FE010E944C36C13CD107C9F70E94BE25E0
:1013D0000C9461360C9400008091C103089590E054
:1013E000E4EEF4E091119FEF8FEF9193919391933D
:1013F00091938150D0F70895CF93DF939C01EB0137
:1014000050E2459FC001112464E670E00E94383626
:10141000962FD90150E040E0FE01E40FF51FE49162
:10142000ED934F5F5F4F48305105B1F7985F86EC01
:10143000E92FE61B6150E20FF32FF11D6F3F59F4C6
:10144000D901A90FB11D8EEFE1E0E90F983228F420
:101450008D939E2FF9CF8083EBCF8EEF8C93E20F8D
:10146000F32FF11D1082DF91CF910895FC0180913F
:10147000E203882311F13FB7F89482E08093E900FA
:101480002091F200822F90E01816190614F481E0E2
:1014900090E0882339F0289844E64093E103409196
:1014A000F1004083222339F02091F200211103C082
:1014B0002BE62093E8003FBF08958FEF9FEF08953C
:1014C0002FB7F89483E08093E9009091E800892F8A
:1014D000807295FF04C09091F20080E4891B2FBFB9
:1014E00008958091D90381110DC082E08093D503C6
:1014F00084E08093D6031092D8031092D70381E042
:101500008093D90385ED93E00895CF93DF931F92E5
:10151000CDB7DEB76983DC01ED91FC910280F381E8
:10152000E02D41E050E0BE016F5F7F4F09950F90C5
:10153000DF91CF91089583E08093E9008091F200DC
:10154000882319F08AE38093E80008950E94600AD6
:1015500090E00895CF93DF931F92CDB7DEB7FC01E3
:101560008485958597FD08C02FEF3FEF3587248749
:101570000F90DF91CF910895CE0101960E94360A17
:10158000019719F4898190E0F3CF8FEF9FEFF0CFAF
:101590000F931F93CF93DF931F92CDB7DEB78C01CC
:1015A000FC018485958597FF0BC0CE0101960E94B2
:1015B000360A019771F4898190E0F8019587848754
:1015C000F801848595850F90DF91CF911F910F9140
:1015D00008958FEF9FEFF1CFFC018485958597FDEE
:1015E0000BC09FB7F89482E08093E9008091F200ED
:1015F0009FBF90E0019608959FB7F89482E0809392
:10160000E9008091F2009FBF90E008954091CF03E0
:101610005091D0032091CD033091CE034217530750
:10162000B4F49091E8009570E1F39091E80092FD98
:1016300019C08093F1008091CF039091D00301965F
:101640008F739927892B19F48EEF8093E80080918E
:10165000CF039091D00301969093D0038093CF0352
:1016600081E0089580E00895EF92FF920F931F9319
:10167000CF93DF93F82E192FE62E042F81E0860FEB
:10168000880F0E94060B83E00E94060BCF2DD12FFE
:10169000EC0EFD2EF11CCE15DF05B9F007FF13C0CF
:1016A000FE0184910E94060B182F80E00E94060B19
:1016B000812321968111EFCFDF91CF911F910F915F
:1016C000FF90EF9008958881EDCF81E0F5CFDF9214
:1016D000EF92FF920F931F93CF93DF93D82E8A013F
:1016E000EB017B01E40EF51ECE15DF0559F0D7FEA8
:1016F00012C0FE0184910E94060B21968111F4CF45
:101700000FEF1FEFC801DF91CF911F910F91FF9055
:10171000EF90DF9008958881EECF0F931F93CF93C2
:10172000DF931F92CDB7DEB782E0898342E450E0B9
:1017300063E37FE080E80E94670B0E94710ADC018E
:1017400012960D911C910115110589F0D801ED91AA
:10175000FC910280F381E02DBE016F5F7F4FC801D5
:10176000099597FD04C0F80100851185ECCF8981AA
:101770000F90DF91CF911F910F910895615030F03C
:101780002091F100FC0120830196F8CF289884E68F
:101790008093E1030895FC010E94620C319728F0C8
:1017A00068517C4F8F4F9F4FF9CFAB01FC010E94D6
:1017B000620C641775078E079F07C8F308958F9210
:1017C0009F92AF92BF92CF92DF92EF92FF920F93D0
:1017D0001F93CF93DF936C017B018A0180910E01EF
:1017E000882309F45AC08091E203882309F455C084
:1017F0008091D40380FF05C08091E00082608093D7
:10180000E000E801B12C8AEFA82E93E0892E2AE3AC
:10181000922E209711F4BB20C9F10E94600A811119
:1018200008C0AA94AA20C9F181E090E00E94CB0BE5
:10183000F0CF8C171D0611F00CF08C2F9FB7F89489
:101840008092E9002091E80025FD02C09FBFE1CF12
:10185000282F30E0C21BD30BF701815020F04191BB
:101860004093F100FACFE20EF31EBB2021F09092DC
:10187000E800B12CEBCF8091E80085FDE7CF909296
:10188000E800BB24B394209709F3F3CF5D9884E676
:101890008093D303101611063CF081E090E0F6012E
:1018A0009383828310E000E0C801DF91CF911F9104
:1018B0000F91FF90EF90DF90CF90BF90AF909F90EF
:1018C0008F900895A4ECB2E02FB7F8947D918D919C
:1018D0009C9166B52FBFA89B05C06F3F18F47F5F32
:1018E0008F4F9F4F22E0660F771F881F991F2A9501
:1018F000D1F708952091BB02E091B902F091BA02AC
:10190000CF0102969093BA028093B902222319F074
:10191000859194910895808191810895CF92DF926D
:10192000EF92FF92CF93DF930E947A0C811520E80B
:10193000920791F4809171008D7F809371001092D5
:10194000910046985F981092B802DF91CF91FF9076
:10195000EF90DF90CF90089521E02093B80281307E
:1019600020E8920751F48091B6029091B7029093CB
:10197000BA028093B9020E947A0C97FD05C02091AB
:10198000B502222309F454C02091B402211150C0A1
:1019900021E02093BC02EC01DF77209709F04BC0D7
:1019A00081E08093BD0246983FE9C32E3FE0D32EED
:1019B000E12CF12CCAEFD0E0E0911D0AF0911E0A53
:1019C0000995811103C081E08093BD028091BC0222
:1019D000882329F08091BD02882309F43FC05F98D5
:1019E0000E947A0C0097F1F19C01DE010E941536ED
:1019F000DC01CB0129E0B595A795979587952A95A8
:101A0000D1F7109290002AE020939100D092990093
:101A1000C09298008093BE029093BF02A093C00230
:101A2000B093C102809171008260809371008DCF6C
:101A30001092BC02B0CF9E0150E040E060E472E43E
:101A40008FE090E00E94D43569017A0181E0C81AE4
:101A5000D108E108F1081092BD02AECF4699BFCF80
:101A60005F9ABECF8FEF9FEFDC01CBCF9C01E1E708
:101A7000F0E090819D7F908381E08093BB02309362
:101A8000BA022093B9023093B7022093B6020C94A5
:101A90008E0CCF93C82F8091BA09863018F486E057
:101AA0008093BA0988E08093BB098091BD09C8176B
:101AB00040F08BEE92E10E94360D1092BD09CF915D
:101AC000089581E492E10E94360D8091BD098C1B3E
:101AD0008093BD09F4CF4F925F926F927F928F9265
:101AE0009F92AF92BF92CF92DF92EF92FF920F93AD
:101AF0001F93CF93DF934C015901FC2DC02FD0E0F1
:101B0000CE01880D991D181619060CF067C09B01AF
:101B10002E0D311D121613060CF060C060347105D5
:101B20000CF05CC04115510509F458C0262F2770F0
:101B3000F22EDB0177FD179633E0B595A7953A9520
:101B4000E1F73A2F77FF04C0FF2011F03FEF3A0F83
:101B5000662777276819790997FC02C070E060E072
:101B6000803891050CF44BC090E89819961BA32F70
:101B7000032E000CBB0B1A2F10953F3F0CF010E00A
:101B800021E08E2D877009F420E0E694E694E69437
:101B9000E20EAE0DB11D19971CF028E0E22EE31AFB
:101BA000E11A310F20E83203D0011124A80DB91D2C
:101BB000A60FB71F019F600D711D1124460F571FFF
:101BC0000F2D0F2C000C110BF33009F41CC1C8F4BD
:101BD000F13009F4D0C0F23009F47CC0DF91CF912C
:101BE0001F910F91FF90EF90DF90CF90BF90AF903B
:101BF0009F908F907F906F905F904F900895902F5F
:101C0000B5CFFA3FB1F1232F2E0DFB3F39F7321735
:101C100029F3BD016C517B4FD12CC12CC91608F0A2
:101C2000A4C0FA01EC0DFD1DE491F0E04F01002E7F
:101C300002C0880C991C0A94E2F737FD06C0FB012C
:101C40008081E82CE0948E218083FF2061F0373082
:101C500054F45B01F0E8AF0EB11CE92CE094F501FF
:101C600080818E218083FFEFCF1ADF0A6F5F7F4F65
:101C7000D5CF232F2E0D321709F4B0CFBD016C51F3
:101C80007B4FD12CC12CC91608F069C0FA01EC0DAC
:101C9000FD1DE491F0E04F01002E02C0880C991C5C
:101CA0000A94E2F737FD04C0FB0180818829808314
:101CB000FF2051F0373044F45B01F0E8AF0EB11C67
:101CC000F501808189298083FFEFCF1ADF0A6F5FDA
:101CD0007F4FD9CF6FEF70E00F2C02C0660F771FD8
:101CE0000A94E2F760957095772E232F2E0D321708
:101CF00009F474CFFD01EC51FB4F6F01B12CA12C05
:101D0000A91638F5FA01EA0DFB1DE491F0E02F0168
:101D1000002E02C0440C551C0A94E2F737FD05C0A2
:101D2000F6018081862384298083FF2059F0373093
:101D30004CF44601F0E88F0E911CF401808187215C
:101D400085298083FFEFAF1ABF0A8FEFC81AD80A20
:101D5000D7CF3F5F4C0F5D1FA058BF4FC8CF3F5F2D
:101D60004C0F5D1FA058BF4F86CF3F5F4C0F5D1FCC
:101D7000A058BF4F4CCF6A0D7B1D232F2E0D32175D
:101D800009F42CCFFD01EC51FB4F6F01B12CA12CBC
:101D9000A91688F5FB01EA0DFB1D8490912C002EFD
:101DA00002C0880C991C0A94E2F780949094FA017E
:101DB000EA0DFB1D6490712C002E02C0660C771C8E
:101DC0000A94E2F737FD05C0F60180818821862953
:101DD0008083FF2049F037303CF4F601E058FF4F94
:101DE0008081892187298083FFEFAF1ABF0A8FEF97
:101DF000C81AD80ACDCF3F5F4C0F5D1F6C0F7D1FF7
:101E0000A058BF4FBCCFC92ED12CFA01E60FF71F47
:101E1000AC51BB4F00E810E00C191D09CC19DD09CD
:101E2000BE01660F771F41E050E06A010F2C01C030
:101E3000CC0C0A94EAF7592F2E2D792ECF93DF93ED
:101E4000ED01EF96EF9622968590A590FF2059F030
:101E50008C9C4001AC9C500137302CF4E880B0944D
:101E6000EB20E928E99233233AF0EC90A094EA20A1
:101E7000E828ED920C943D0F11965A9529F72A9572
:101E800051F0572D33951124E60FF11DA00FB11D10
:101E9000C00FD11DD9CFDF91CF9111249FCE90E0FB
:101EA0000C94CB0B8FB18095807F669B88601C9BC8
:101EB0008460089580389105BCF460347105A4F401
:101EC00090E121E061FD24E060FD220F62FD22959A
:101ED000687F969FD0011124A80FAC51BB4F0C9086
:101EE000022A40FF02260C920895089590E2699F0D
:101EF000F0011124E80FF11DF595E795EC5CFE4F1C
:101F0000908180FF08C09F7080E1489FA00111244C
:101F1000942B90830895907F492B408308958032BD
:101F200020F4683110F40C94760F0895803290F408
:101F3000683180F490E2699FB0011124680F711D2F
:101F4000FB01F595E795EC5CFE4F808160FD829585
:101F50008F7008958DE00895672F892F0E94960F46
:101F600091E0893008F490E0892F0895AF92BF92F4
:101F7000CF92DF92EF92FF920F931F93CF93DF9355
:101F8000C82EE42EFF24F394F80E0FEF060F1FEF78
:101F9000180FC1E0C60F93E0D92EBF2CBC18D0E0BB
:101FA000AD2EA10E602F8A2D0E94960F8E1519F16D
:101FB0006C2F8A2D0E94960F8E15E9F0AD2EA00E83
:101FC0006A2D812F0E94960F8E15A9F06A2D8F2DF4
:101FD0000E94960F8E1579F0DF5FDD11E1CF82E070
:101FE000D82EDD0EF39401501150CF5F81E4D8124A
:101FF000D4CFBB24BA948B2DDF91CF911F910F9139
:10200000FF90EF90DF90CF90BF90AF90089590E257
:10201000699FB0011124860F972F911DFC01F59542
:10202000E795EC5CFE4F908180FF04C0892F82957C
:102030008F700895892FFCCF0E94960F91E08D300C
:1020400008F490E0892F08950F931F93CF93DF93A7
:10205000182F062FD0E06FEF600F0E941C10C0E019
:10206000882311F0D1E0C1E0602F81E0810F0E9450
:102070001C10882311F0D260CF5F61E0600F812FC8
:102080000E941C10882311F0D460CF5F602F8FEF67
:10209000810F0E941C10882311F0D860CF5F8D2F14
:1020A0009C2FDF91CF911F910F9108952F923F9216
:1020B0004F925F926F927F928F929F92AF92BF9258
:1020C000CF92DF92EF92FF920F931F93CF93DF9304
:1020D0007C016B018A01E90197FF02C081509F4F8B
:1020E000892E992E990C9908C80117FF02C08150BA
:1020F0009F4F292E392E330C33088214930409F490
:102100005FC0821493040CF0DFC054018FEFA81A53
:10211000B80ABA2CAA24AE18BF0844244394512C00
:10212000BE016C197D09072E000C880B990B982FA6
:10213000872F762F662798012E193F0937FF03C096
:10214000319521953109032E000C440B550B0E944B
:10215000D43566246A947FE7772E211580E8380706
:102160004105510554F43901213030484F4F5F4F3C
:1021700024F46624639460E8762E9301D5010E94CE
:10218000523620E031E040E050E00E94D435560164
:10219000A20EB31E840C951C240C351CC501B7FE81
:1021A00002C081509F4FA60CB71C692F882D0E943A
:1021B0001C1081119DC0840C951C2814390471F7E2
:1021C000C601D7FE02C081509F4FA92EB92EBB0C6D
:1021D000BB08CE01D7FF02C081509F4F492E592E18
:1021E000550C5508A414B50409F45AC0A414B50438
:1021F0000CF074C035018FEF681A780A762C6624CB
:102200006C187D0888248394912CB8016E197F097D
:10221000072E000C880B990B982F872F762F662797
:102220009E012C193D0937FF03C0319521953109D5
:10223000032E000C440B550B0E94D435CFEFDFE783
:10224000211580E838074105510544F4E9012130A2
:1022500030484F4F5F4F14F4C1E0D0E89E01D301E6
:102260000E94523620E031E040E050E00E94D43538
:10227000E20EF31EA80CB91C480C591CC701F7FE4E
:1022800002C081509F4FEC0EFD1E6A2D892F0E94C7
:102290001C1081112DC0A80CB91C4A145B0471F7E5
:1022A00081E0DF91CF911F910F91FF90EF90DF9030
:1022B000CF90BF90AF909F908F907F906F905F90E6
:1022C0004F903F902F900895C70160E071E00E9409
:1022D00038365C0144244A94542C22CFC60160E075
:1022E00071E00E9438363C0188248A94982C8DCF66
:1022F00080E0D7CF9091C503981731F08093C50344
:102300001092C4031092C3030895DC01605284E06C
:10231000689FB001112463567C4FFB018491842790
:102320008C933196E491E4271196EC931197FB017D
:102330003296E491E4271296EC931297FB013396C0
:10234000E491E4271396EC930895CF92DF92EF92F5
:10235000FF920F931F93CF93DF9300D000D01F9273
:10236000CDB7DEB720E8629FB0011124460F572F8A
:10237000511DFA01EC51FB4F7F01009739F19E018D
:102380002F5F3F4F6901F90130E020E00AE010E0E3
:102390002F5F3F4FB8010E942436805D8193CB01AF
:1023A0002530310511F0009799F78601020F131FB0
:1023B0000C151D05E9F04FEFF80162918F01C7017F
:1023C0000E948511F4E0EF0EF11CF2CF4FEF60E3B5
:1023D000CF010F900F900F900F900F90DF91CF9142
:1023E0001F910F91FF90EF90DF90CF900C9485118B
:1023F0000F900F900F900F900F90DF91CF911F9142
:102400000F91FF90EF90DF90CF900895EF92FF92A1
:102410001F93CF93DF93122F119520E8629FE00165
:102420001124C40FD11DCC51DB4F7C01F701649105
:10243000FFEFEF1AFF0A662331F0412FCE010E9411
:1024400085112496F3CFDF91CF911F91FF90EF90EC
:10245000089580910001909101019C013695322FE1
:1024600022273795279528273927C901892F9927AA
:10247000869528273927922F88278227932790939C
:102480000101809300010895EF92FF920F931F9333
:10249000CF93DF93FC0120913603822F8E7FC2E31E
:1024A000D3E0C9F030915B03832F8E7FC7E5D3E083
:1024B00091F090918003892F8E7FD1F136952695EA
:1024C000C7E5D3E0321710F0C2E3D3E096952C8134
:1024D0002695921768F1F983E8837B836A838C8160
:1024E00040FB80F98C837E0185E2E80EF11C8E01B1
:1024F0000B5F1F4FE016F106F1F00E9429128F7159
:102500008051F80180830E9429128F718051F80157
:1025100081830E9429128F718051F80182830E9469
:1025200029128F718951F80183830C5F1F4FE2CF0D
:10253000CCE7D3E0D0CF8C8181708C628C83DF912B
:10254000CF911F910F91FF90EF9008952F923F929E
:102550004F925F926F927F928F929F92AF92BF92B3
:10256000CF92DF92EF92FF920F931F93CF93DF935F
:10257000CDB7DEB72C970FB6F894DEBF0FBECDBF38
:10258000982E6C87842E722E102FEB8255245A942D
:10259000580E81E0890D8983A92CB12C462E4A94CE
:1025A000962F9F5F9A83C62ED12C112341F09B81D9
:1025B000992329F040E0692F812F0E948F0F88E036
:1025C000881508F45EC1871508F4B7C11B8681E041
:1025D0009C85923008F480E09B8580FB94F99B8772
:1025E00081E0891508F080E09B8580FB97F99B8747
:1025F000E92CF12C882D90E09E838D836C01CE0C0C
:10260000DF1C81E09EE1C916D1040CF080E09B85BF
:1026100080FB95F99B878C85082F10E0872D90E033
:1026200098878F835C01A00EB11E81E096E1A91608
:10263000B1040CF080E09B8580FB96F99B878C852C
:102640008250898344244A94490C682F842D0E9427
:102650000710682C690C882349F06981862D0E9437
:102660000710882319F09B859F7E9B873C843A94B2
:102670008EEF890D8A83632D0E9407105C84570CAE
:10268000882349F0652D8A810E940710882319F05C
:102690009B859F779B8781E0860D8C83632D0E94AD
:1026A0000710882359F06C856F5F670D862D0E9497
:1026B0000710882319F09B859F7D9B8781E0850DFE
:1026C0008B83682F842D0E940710882349F06B812B
:1026D000862D0E940710882319F09B859F7B9B877E
:1026E0006981842D0E94071081110AC0632D8A819F
:1026F0000E940710811104C08B858F7E8F778B8796
:102700006981862D0E94071081110AC0632D8C817A
:102710000E940710811104C09B859F7E9F7D9B872F
:102720006B81862D0E94071081110AC0652D8C8156
:102730000E940710811104C08B858F7B8F7D8B8752
:102740006B81842D0E94071081110AC0652D8A813A
:102750000E940710811104C09B859F7B9F779B87F8
:10276000632D892D0E940710882349F0632D8FEF78
:10277000860D0E94071022242394811101C0212C70
:102780006C85862D0E940710882349F06FEF650D38
:10279000862D0E94071091E09987811101C019864A
:1027A000652D892D0E940710882349F0652D8FEF34
:1027B000860D0E94071091E09A87811101C01A8648
:1027C0006C85842D0E940710882341F06FEF650D02
:1027D000842D0E94071091E0811101C090E021102A
:1027E00005C08B858F7E8F7D8F778B878985811143
:1027F00005C08B858F7E8F7D8F7B8B878A8581112E
:1028000005C08B858F7D8F7B8F778B87911105C05E
:102810009B859F7E9F7B9F779B87EC14FD040CF02C
:10282000FCC02E2C632D8E2D0E940710811103C039
:102830008B8581608B87652D822D0E940710811109
:1028400003C09B8594609B878C85823048F06981AA
:10285000822D0E940710882319F09B859F7E9B87FD
:1028600086E1A816B1044CF46B81822D0E940710FA
:10287000882319F09B859F7B9B878FEFE81AF80AC6
:10288000CCCF871408F459C00FEF882D8650990BD0
:102890001C019C85970D9B830E942912B1010E9407
:1028A000243693E0F92EF80E015009F48FCE1F2D37
:1028B000190D642D812F0E940710882369F36B8105
:1028C000812F0E940710882339F3EE24EA94E10E49
:1028D000642D8E2D0E9407108823F1F26B818E2DBE
:1028E0000E9407108823C1F266246394610E642D50
:1028F000862D0E940710882379F26B81862D0E9415
:102900000710882349F20E942912272C312CB1018B
:10291000625071090E9424369A81980F9B830C851E
:102920002C0C3D1C021513040CF06CC04DE0602F04
:10293000812F0E948F0F0F5FF5CFEE24EA94872D31
:102940008650990B8C01282C290C0E942912B80161
:102950000E94243623E0F22EF80EEA94EE2009F4C9
:1029600035CE9C859F0D9B83692F852D0E94071076
:10297000882359F36B81822D0E940710882329F345
:102980006B806A94662D852D0E9407108823E9F2DA
:10299000662D822D0E9407108823B9F26B80639404
:1029A000662D852D0E940710882379F2662D822DD1
:1029B0000E940710882349F20E942912282C312CEA
:1029C000B101625071090E9424361981180F092D36
:1029D0002A0C3B1C021513043CF44DE06B81802F44
:1029E0000E948F0F0F5FF6CF2FEF270D2F19EB806F
:1029F000012F482D662D892D0E94A6127F2CF82CC0
:102A00008F2CD3CD4FEF480D4F19EB80012F272D81
:102A10006C85862D0E94A612F3CF0A151B057CF546
:102A2000F02E602F842D0E940710811103C09B851A
:102A300098609B876F2D862D0E940710811103C01F
:102A40008B8582608B8791E0991548F46F2D8A8180
:102A50000E940710882319F08B858F778B879EE162
:102A6000C916D1044CF46F2D8C810E940710882365
:102A700019F08B858F7D8B870F5F1F4FCECF9B8586
:102A800095FB112710F996FB002700F997FBFF240F
:102A9000F0F894FF08C00E94291264E670E00E94DA
:102AA0002436449780F1FF2041F00E94291264E609
:102AB00070E00E9424364497B0F1002341F00E9458
:102AC000291264E670E00E9424364497E0F1112355
:102AD00009F449C00E94291264E670E00E9424367D
:102AE000449708F040C010E000E08F8198850817F7
:102AF0001907CCF56C85600F40E0862D0E948F0F82
:102B00000F5F1F4FF2CF10E000E08D819E8108170C
:102B100019074CF540E0632D892D800F0E948F0F1F
:102B20000F5F1F4FF2CF10E000E08F8198850817EC
:102B30001907CCF46C85600F40E0842D0E948F0F44
:102B40000F5F1F4FF2CF10E000E08D819E810817CC
:102B500019074CF440E0652D892D800F0E948F0FDE
:102B60000F5F1F4FF2CF871037C096E09815A0F582
:102B70008C858F5F898393944DE0682F892D0E9407
:102B80008F0F6A946A944DE06981862D0E948F0FA1
:102B90005A945A944DE0652D862D0E948F0F4DE07A
:102BA000652D892D2C960FB6F894DEBF0FBECDBFD4
:102BB000DF91CF911F910F91FF90EF90DF90CF9019
:102BC000BF90AF909F908F907F906F905F904F904D
:102BD0003F902F900C948F0F2C960FB6F894DEBF79
:102BE0000FBECDBFDF91CF911F910F91FF90EF905E
:102BF000DF90CF90BF90AF909F908F907F906F901D
:102C00005F904F903F902F900895FC01408151813B
:102C1000FB0120813181F901E05CF1094E175F076A
:102C2000BCF020543F4F2417350794F0FC0142813B
:102C30005381FB01828193819C01205C3109421701
:102C4000530734F020583E4F81E0241735070CF429
:102C500080E00895CF93DF93DC018091A603882361
:102C600089F08091AD03882369F18091B4038823B2
:102C700061F18091BB03E6EBF3E0882329F0F0E0FB
:102C8000E0E019C0E1EAF3E012964D915C911397F0
:102C9000CD91DC91119724EE38E090E089E0A03BE3
:102CA000B807D9F48FEF86838FEF8583D183C083F4
:102CB00053834283648381E0EF2B09F480E0DF914A
:102CC000CF910895E8EAF3E0DFCFEFEAF3E0DCCF5D
:102CD0009F5F285F3F4F983139F3A217B307C1F7C1
:102CE0009683E2CFFC012091B0093091B109808137
:102CF0009181281B390B37FF03C03195219531098C
:102D0000932F2091B2093091B30942815381241B42
:102D1000350B37FF03C0319521953109892F931762
:102D200008F4832F08950F931F93CF93DF93EC0143
:102D3000062F142F642F802F0E94960F893090F554
:102D4000612F8E810E94960F893060F56F81802FF0
:102D50000E94960F893030F5E4EEF8E0202F002E27
:102D6000000C330B412F012E000C550BEC17FD0707
:102D700061F084818770843041F086818217130668
:102D800021F487818417150669F0389689E0E43AC2
:102D9000F80761F70E831F8381E0DF91CF911F91C8
:102DA0000F91089580E0F9CFFC0184818770843011
:102DB00039F0FAE08F9FC00111248B589C4F089581
:102DC00090E080E00895CF93DF93C4EED8E09C813B
:102DD0009770943091F4688379834A835B8387701A
:102DE0008C837E835F83CE010E94D4160296FC0101
:102DF00084918D83DF91CF9108952896F9E0C43AAC
:102E0000DF0729F7F7CF20911C03E8ECF2E050E050
:102E100040E0942F4217A0F190911C039C3008F4DD
:102E20007EC0292F2150330BB90127E0269FF001E6
:102E3000279FF00D1124E853FD4F2681281708F035
:102E40004FC080E047E0282F30E0261737070CF00E
:102E50006BC0429FD001439FB00D1124A853BD4FBA
:102E60002F5F3F4F429FF001439FF00D1124E85325
:102E7000FD4F242F01900D922A95E1F78F5FE3CF4C
:102E8000BA0136814F5F5F4F3796831710F62C30AB
:102E900008F531E0320F30931C0337E0239FD00157
:102EA0001124A853BD4FAD014750510937E0FA0135
:102EB00001900D923A95E1F72150DA01921798F3BB
:102EC0009C3009F4A9CF37E0939FC00111248853A7
:102ED0009D4F089580E06150710947E0911103C052
:102EE00090E080E00895282F30E026173707E4F4BB
:102EF000429FD001439FB00D1124A853BD4F2F5FB7
:102F00003F4F429FF001439FF00D1124E853FD4FC6
:102F1000242F01900D922A95E1F78F5FE4CF81E095
:102F2000890F80931C03CFCF9150CDCF2F923F922A
:102F30004F925F926F927F928F929F92AF92BF92C9
:102F4000CF92DF92EF92FF920F931F93CF93DF9375
:102F5000CDB7DEB76C970FB6F894DEBF0FBECDBF0E
:102F60005C01322F330F8E2D90E09F838E83A22F32
:102F7000A150BB0BCD0102C095958795EA94E2F76D
:102F8000889FF001899FF00DF00D1124CF018C5A1C
:102F90009D4F9B878A87862F880F880B962F919548
:102FA0008923E32FF0E0DF01A60FB11D67FDBA957D
:102FB000A138B1050CF4E2C050E8561B5C8F242FF9
:102FC0002195942F990F990B29232F87E40FF11D39
:102FD00047FDFA95E134F10514F030E4341B67FD48
:102FE00060E0D12CAA27BB27AC19BD09BE87AD87ED
:102FF00047FD40E0B0E14B02F0011124DF01A07871
:10300000B370B98BA88B712C612C90E01B8E1A8E3B
:10301000D12CC12C512C412CF12CE12C681B6A8B3A
:10302000682F70E07C8B6B8BAC8DA250BB0BBE8B82
:10303000AD8B632F6250770B788F6F8B21E0240F5D
:103040007F85271B298FAA89A80FBC8D8B1708F0B5
:10305000FAC00A2E000CBB0BFD01EC59FB4F20817E
:1030600051E05887201708F01886201708F0E5C0AF
:10307000EB89FC89E60DF71D6D897E89E617F70758
:103080000CF47EC0992309F4DEC0B7016C217D21C8
:103090007C836B8370E060E0312C212C142F17703F
:1030A000C888D988AC0DBD1DAC51BB4F2C91E12F08
:1030B000F0E0E45BFD4F9491DF84ED2CF12C198658
:1030C000812CF0E01A82912CEC86E31608F0AEC059
:1030D00091109F2ECF88D88CEC14FD040CF092C078
:1030E000F7010E8002C0F595E7950A94E2F7CA84CD
:1030F000DB84EC0DFD1DE491F0E0EE0FFF1FE45DBD
:10310000FD4FC590D490EB81FC81EC21FD2151E075
:103110005D83EF2B09F41D82E1E0E983F201EC21EC
:10312000FD21EF2B09F41982EA8DFB8DCE22DF22DF
:10313000E1E0CD2809F4E0E0CA80CC2009F466C0C3
:10314000882009F46FC0292B1F5F990F183059F49C
:103150002C93998DCC849C0D903414F4A058BF4FBF
:103160002C9191E010E05FEFE51AF50AFD81F987F7
:10317000F82D8E2E9A80C980CA82A6CF3C8F1FCF91
:103180000E8002C0F595E7950A94E2F76A857B8583
:10319000E60FF71F649170E0660F771F660F771FC9
:1031A000F501E60FF71F9923B9F025903490FB0144
:1031B0003296EA0DFB1D65917491ED85FE856E27B3
:1031C0007F27F101E623F723EC20FD206F01CE28B5
:1031D000DF28DC82CB8262CF45905490FB0132968F
:1031E000EA0DFB1DE590F4906D857E856E257F25AB
:1031F0007B8F6A8F642175217C836B836A8D7B8DC5
:1032000012014CCF1D82E0E0198296CFD984D110F3
:1032100009C0911007C05981552309F495CFEE23B9
:1032200009F492CFF92FF0952F238ECF2C93CA8CCF
:10323000DB8C7B8F6A8F720121018F5F2FEF621A07
:10324000720A988500CF6C960FB6F894DEBF0FBE59
:10325000CDBFDF91CF911F910F91FF90EF90DF9045
:10326000CF90BF90AF909F908F907F906F905F9026
:103270004F903F902F900895CF92DF92EF92FF9260
:103280000F931F93CF93213490F4CE2CC42F162F7D
:1032900032E0E32E213238F4422F50E04131510523
:1032A00074F0EE24E3944C2F612F0E949617CF9177
:1032B0001F910F91FF90EF90DF90CF900895E12C38
:1032C000233088F7862F062E000C990BAC014C5941
:1032D0005B4F7A01FA018081223061F5801778F422
:1032E000C62ED12C6C2F70E040E0C6010E945A0F10
:1032F00061E06C0F70E040E0C6010E945A0FF701D8
:1033000081818017A0F61F5F012F10E06C2F70E005
:1033100040E0C8010E945A0F61E06C0F70E040E08D
:10332000C801CF911F910F91FF90EF90DF90CF9048
:103330000C945A0F801708F0BACF6C2F70E040E061
:10334000812F90E0EECF8F929F92AF92BF92CF925B
:10335000DF92EF92FF920F931F93CF93DF93890138
:10336000AEE1B3E02D913C9111977C01E21AF30A92
:1033700012968D919C911397FB01E81BF90B159602
:10338000CD91DC9116971796CD90DC909E01D701D8
:103390000E945236872E982EA92EBB24A7FCBA94E1
:1033A0009601DF010E945236672F782F892F9927C7
:1033B00087FD9A95861A970AD8018D929C92D7011B
:1033C0000E945236C72ED82EE92EFF24E7FCFA942D
:1033D0009E01DF010E945236672F782F892F99278F
:1033E00087FD9A95C60ED71EFA01D182C082DF9161
:1033F000CF911F910F91FF90EF90DF90CF90BF90F2
:10340000AF909F908F9008952F923F924F925F922E
:103410006F927F928F929F92AF92BF92CF92DF92E4
:10342000EF92FF920F931F93CF93DF93CDB7DEB749
:10343000A5970FB6F894DEBF0FBECDBF5A01490164
:103440000F8BEE8EC98E9E012B5F3F4FAE01495F01
:103450005F4F0E94A3199E012F5F3F4FAE014D5F4A
:103460005F4FB401C5010E94A3192B813C8137FF36
:103470000BC089819A81919581959109880F991F37
:10348000281739070CF4F6C3EF81F8858D809E80EC
:103490001E161F063CF4A401440F551F4E175F076C
:1034A0000CF4E8C369817A8140E2841691040CF03F
:1034B000E4C0603271050CF4DDC300E210E0780175
:1034C000E818F9085B01A818B908C7019695982F64
:1034D000882797958795B5010E9438366B872E1BF4
:1034E0003F0B2E9DC0012F9D900D3E9D900D1124F0
:1034F000B5010E943836E60FF71FF887EF831E8369
:103500000D8350E85C871F8AAD80BE80AF81B8858F
:1035100021E430E00E945A3695010B2C000C440B3C
:10352000550B0E94D435390109811A81C901805C8B
:103530009F4F9A878987AB81BC8121E430E00E944C
:103540005A369801012E000C440B550B0E94D435BD
:1035500069019FE3C90ED11CE985FA85EC15FD05CB
:103560000CF088C31C141D040CF084C3E038F10572
:103570000CF080C320E830E2C901B5010E94383662
:103580002B01C901B8010E9438367E876D87F7FF8D
:103590002AC000EC1FEF0619170946018E1A9F0A70
:1035A000092C000CAA08BB084C856B85461B550BE3
:1035B0009A01D8010E945236A50194010E94D43587
:1035C0007B85720F7B872D853E8524193509D801AF
:1035D0000E945236A50194010E94D435420E531E1A
:1035E0001F8A1A861986C601E985FA858E1B9F0BEC
:1035F0009C8B8B8B7C0197FF03C0FFEFEF1AFF0AB8
:10360000F594E7942D853E85421653060CF064C070
:10361000241935093D8F2C8F8824839479857B8FDD
:10362000DA8AC98A80E8C816D10424F0EFE7F0E00E
:10363000FA8BE98BF989FD8B120109851A85282DF2
:10364000082C000C330B39A328A3382D30953AA34E
:10365000F801EC51FC4F40814F8717FD08C0F8017D
:10366000EC59FB4F8081821513040CF4E1C2398DB3
:10367000332309F4F6C020E0E0C26032710544F55E
:1036800000E210E05801A61AB70A861A970A40E825
:10369000B5014603C001479F900D1124B4010E945B
:1036A000383660586C87E21BF30BEA9DC001EB9D36
:1036B000900DFA9D900D1124B4010E943836260F0A
:1036C000371F3C832B831A8309831B861E8E1CCFD6
:1036D00070E87C871B8618CFA2016D857E85461B0E
:1036E000570B5D8F4C8F88248A9498CF40E0822DB1
:1036F00091E4291631040CF080E46F85680F9F84F3
:10370000981A5801BB2469150CF439C067FD37C0FD
:10371000EFE3E915A4F1E92D97FCE0E0862F603492
:103720000CF08FE3F0E1EF9FD0011124A078B3708B
:1037300095012C513B4FA20FB31F50E1859F3001E3
:10374000112470E8672273E07722260D371DE77099
:10375000F0E0E955F04F877090E08156904FA21746
:10376000B30709F062C02491FC018491E82FE223A1
:103770008E2F80959C918923E423E82BEC9370E0B5
:1037800040E0C5010E945A0F692D70E040E0C5017C
:103790000E945A0FF801EC59FB4F8081811105C03E
:1037A0008091E3038F5F8093E3032FEF22163104B0
:1037B00009F00CF454C03FEF308377247394C016A3
:1037C000D10609F45CC08C8D9D8DE81AF90A88A198
:1037D00099A1820D931D6F84681A5801BB24EAA138
:1037E0008E0F82199F84980EF7FECBC028A139A1B5
:1037F000220E331E4B895C89E40EF51E772099F06A
:10380000F7FE11C051E2251631046CF4692D620DEA
:1038100070E040E0C5010E945A0F662D70E040E064
:10382000C5010E945A0F6818DFCFE4915E2F5095B2
:103830007C915723E423E52BEC93A058BF4F2A1724
:103840003B0711F04C93F9CFD901FC018491982FDB
:1038500090952C9192234823492B4C9390CF208212
:10386000ACCF4B8D4017110621F44F5F4B8F712C5D
:10387000A6CF69897A8906171707CCF70D8B6B8D50
:103880007D89671709F4F6C184E0481651040CF4E9
:10389000F1C1ED85FE8534970CF4ECC1FC852B85D8
:1038A000F21709F4E7C14FEA842E4FE0942EF40199
:1038B000649030E03A8B298B5C85452F50E05F8F18
:1038C0004E8F421B530B59A348A36D857E85641907
:1038D00075097E876D879D89892F90E09DA38CA3B4
:1038E000662009F4C7C16A94F40131964491319677
:1038F000149131962491E4E08E0E911CF401D49041
:10390000FB852F1768F33C85341750F3ED2CF12C11
:103910004F17C8F44217E1F150E0A989BA89A41BF6
:10392000B50BB701611B7109A69FC001A79F900D40
:10393000B69F900D1124622F70E0641B750B0E94DE
:103940003836160F4F2F5C85521718F52417B9F02B
:1039500030E0AE8DBF8DA21BB30B612F70E06E19EE
:103960007F09A69FC001A79F900DB69F900D1124BF
:10397000642F70E0621B730B0E943836D60E2C85C4
:1039800008C00F5F1F4F003811050CF461CE77CFD0
:103990004B85842F90E069897A89861B970B9695D1
:1039A000982F88279795879568A179A10E94383626
:1039B000062F822F90E0E989FA898E1B9F0B96953E
:1039C000982F88279795879568A179A10E94383606
:1039D000462F202F30E0AB89BC890E945A3627E061
:1039E00095958795779567952A95D1F7A984BA8497
:1039F000A60EB71E242F30E00E945A3637E0959568
:103A00008795779567953A95D1F729843A84260E5C
:103A1000371E2A143B040CF463CF2D853E85029F8C
:103A2000C001039F900D1124880F892F881F990BC7
:103A3000840D951DB901469F9001479F300D1124BB
:103A4000220F232F221F330B240D351DD29E700110
:103A5000D39EF00C112476E0F594E7947A95E1F783
:103A6000E0E2F0E0E21BF30BEE0EFF1E189F900168
:103A7000199F300D11248901E6E015950795EA9507
:103A8000E1F720E230E0281B390B020F131F17FF6C
:103A9000A4C0F7FC25CF950122193309209FC0014E
:103AA000219F900D309F900D1124B701601B710B69
:103AB0000E943836A60EB71E10E000E030E4E31690
:103AC000F1040CF093C05B8DC52ED12CAC14BD0459
:103AD0000CF0A5C02A143B04A1F0A6014A195B0909
:103AE0009701201B310B429FC001439F900D529FB5
:103AF000900D1124B1016A197B090E943836060F16
:103B0000171FB1016C197D09788B6F875B0177FFF7
:103B100003C07FEFA71AB70AB594A7940E151F0527
:103B20000CF07FC0C701801B910B988F8F8B81E0B9
:103B300096012C513C4F3A8F298F482F082E000CAC
:103B4000550B5D8F4C8F50EE581B5BA32C143D041E
:103B50000CF4C6CE6CA17DA16C157D050CF4C0CE15
:103B6000E98DFA8D7190FA8FE98F0AA396013327B8
:103B70003E8B2D8B60EE600F670D70E040E0C90159
:103B80000E945A0F4F89588DA41AB50A8C8D9D8DAD
:103B9000800F911F5BA1850F6AA1861B780EB7FE6F
:103BA00018C08C8D9D8D080F191FEF85F889AE0EFA
:103BB000BF1EB7FE08C0672D600F70E040E08D8922
:103BC0009E890E945A0F2C143D0449F7E016F10615
:103BD00031F7FFEFCF1ADF0AB9CF40E4E416F10462
:103BE0000CF471CF003411050CF07ACE4FE350E0A5
:103BF0004E195F09950122193309429FC001439F65
:103C0000900D529F900D1124B8016E197F090E94EA
:103C10003836260E371E9FE3E92EF12C54CF65016E
:103C200070CFF801EE19FF09F88FEF8B8FEF80CF7F
:103C3000298D80E0222341F0298DC801809590953F
:103C40008170222309F40DCE5F89552331F06985F7
:103C50007A856017710709F449CD7E8D772321F0AD
:103C6000C016D10609F442CD4FEF882309F43FCDA9
:103C700045E53DCDA5960FB6F894DEBF0FBECDBF8E
:103C8000DF91CF911F910F91FF90EF90DF90CF9038
:103C9000BF90AF909F908F907F906F905F904F906C
:103CA0003F902F900895CF92DF92EF92FF920F9363
:103CB0001F93CF93DF9300D000D0CDB7DEB77A014A
:103CC00069019E012D5F3F4FAE014F5F5F4F0E9424
:103CD000A3190B811C81003211056CF0A981BA81F6
:103CE000B7FF0BC088279927801B910B880F991F5E
:103CF000A817B90754F480E026C0109731F0C80126
:103D0000880F991F8A179B07B4F321E430E00E94C3
:103D10005A369801012E000C440B550B0E94D435E5
:103D2000F7013183208380E890E2B8010E943836A1
:103D3000F60171836083F70180819181805C9F4FE0
:103D40009183808381E00F900F900F900F90DF910F
:103D5000CF911F910F91FF90EF90DF90CF9008953A
:103D6000AF92BF92CF92DF92EF92FF920F931F9389
:103D7000CF93DF9300D000D0CDB7DEB75C01CB018D
:103D8000BA01122F9E012D5F3F4FAE014F5F5F4F73
:103D90000E94531E882309F447C08B819C81189F81
:103DA0006001199FD00C1124D7FE03C02FE7C20E6B
:103DB000D11CCC0CCD2CCC1CDD08F9802F2D3A81E8
:103DC0002038310514F02FE730E037FF02C030E033
:103DD00020E02C513C4FF90110810130C9F198F1DC
:103DE0000330C1F1FC184F2D0F2C000C550B960120
:103DF0003327319521953109220F331F421753077D
:103E00009CF001E0080F802F0E940317FC01892B12
:103E100059F08281B182A082F3821483C582068325
:103E20008E7FE0FA81F982830F900F900F900F90B0
:103E3000DF91CF911F910F91FF90EF90DF90CF9086
:103E4000BF90AF900895180F2C2D220F121BCACFD0
:103E50001C19C8CF181BC6CF5F926F927F928F92AA
:103E60009F92AF92BF92CF92DF92EF92FF920F9309
:103E70001F93CF93DF93E82EF62E0E94960FCF2D3F
:103E8000D0E00E2D10E060912703709128039091EF
:103E90002B03D801A91BB109E0912903F0912A0352
:103EA00090912C03AE01491B51096A9F90016B9FB1
:103EB000300D7A9F300D1124E49F5001E59FB00C26
:103EC000F49FB00C11242A193B0921153E4F0CF424
:103ED0004AC0AE9F9001AF9F300DBE9F300D1124A0
:103EE000649FF001659FF00D749FF00D11242E0F5B
:103EF0003F1F21153E4F0CF436C082508B3008F026
:103F0000F9C0E82FF0E0E957F04E0C944C36921FC0
:103F1000EE1FFC1F18203420422026200A205E209D
:103F20006C2050208091C603E7E2AE2EE5E0BE2E65
:103F300082FF04C077E6A72E75E0B72E6F2D8FEFB6
:103F40008E0D0E941C108823F1F05C2F44274058EE
:103F50005F4F702F66276C5D7F4FE12C01E02BE4F3
:103F6000C5010E94B01EDF91CF911F910F91FF906C
:103F7000EF90DF90CF90BF90AF909F908F907F9009
:103F80006F905F9008956F2D81E08E0D0E941C1040
:103F9000882349F05C2F442740585F4F702F6627D5
:103FA00065527F4FDACF6FEF6F0D8E2D0E941C1080
:103FB0005C2F44274C5D5F4F81110BC061E06F0D9A
:103FC0008E2D0E941C10882371F25C2F44274552CD
:103FD0005F4F702F662760587F4FBFCF5C2F4427FD
:103FE00040585F4F702F662760587F4FE12C03E0E9
:103FF00020E68CEE91E0B5CF5C2F442740585F4F10
:10400000702F662760587F4FE12C00E020E68CEA95
:1040100091E0A7CF5C2F442740585F4F702F662751
:1040200060587F4FE12C00E020E58CE691E099CFCD
:104030005C2F442740585F4F702F662760587F4F92
:10404000E12C00E020E48CE291E08BCF5C2F442750
:1040500040585F4F702F662760587F4FE12C00E07B
:1040600020E48DE99AE07DCF5C2F442740585F4FD4
:10407000702F662760587F4FE12C00E020E48DE52B
:104080009AE06FCF5C2F442740585F4F702F662710
:1040900060587F4FE12C00E020E48DED9AE061CF85
:1040A0005C2F442740585F4F702F662760587F4F22
:1040B000E12C00E020E58CEE90E053CF5C2F44270C
:1040C00040585F4F702F662760587F4FE12C00E00B
:1040D0002BE48DE19BE045CF5C2F442740585F4F98
:1040E000702F662760587F4FE12C00E02BE48CEAAC
:1040F00090E037CF8091E30387FD35CF6F2D8E2D74
:104100000E941C10882309F42ECFB02EAA24DC2F85
:10411000CC27450193943E0173946F2D8FEF8E0D44
:104120000E941C10582E6F2D81E08E0D0E941C10D5
:10413000D82E6FEF6F0D8E2D0E941C10182F61E08E
:104140006F0D8E2D0E941C10F82E511026C08091EC
:104150001E0390911F038A159B05FCF4F11009C002
:10416000EE24E39480912003909121038615970516
:104170000CF0E12C111108C001E080912003909116
:104180002103C817D9070CF000E0CC24C394930195
:10419000A501BE01C5010E94041AF11025C080913D
:1041A00020039091210368167906F4F4D11009C018
:1041B000EE24E39480911E0390911F0388159905C6
:1041C0000CF0E12C511008C001E080911E03909189
:1041D0001F03A816B9060CF000E0C12C9301A4013E
:1041E000B301C5010E94041AD11026C080911E039C
:1041F00090911F0388169906FCF4111109C0EE2452
:10420000E3948091200390912103C817D9070CF003
:10421000E12CF11008C001E080912003909121036E
:10422000861597050CF000E0CC24C3949E01A401F0
:10423000B301C4010E94041A111195CE809120038C
:10424000909121038C179D070CF08DCE511009C061
:10425000EE24E39480911E0390911F03A816B906E3
:104260000CF0E12CD11009C011E080911E03909157
:104270001F03881599050CF010E0C12C012F9E0139
:10428000A501BE01C4010E94041A6DCEE0E4F0E075
:10429000E81BF109FF27EE0FFF1FEF5BFF4E859133
:1042A00094910895AF92BF92CF92DF92EF92FF92D6
:1042B0000F931F93CF93DF93C091B009D091B109B1
:1042C0008091B4090E9446212CE3AC01249FC001D7
:1042D000259F900D112497FF02C081509F4F892F79
:1042E000990F990BC80FD91FE091B409F0E0EE0FB8
:1042F000FF1FEF5BFF4E859194912CE3289F800177
:10430000299F100D112417FF02C001501F4F012FCC
:10431000110F110B8091B2099091B309080F191F69
:10432000CE01D7FF02C081509F4FD92E780117FFD1
:1043300003C05FEFE50EF11C6F2D8D2D0E94960FCF
:104340008A3009F457C08C3009F471C00091B20969
:104350001091B309580180E3A81AB108E090B009A0
:10436000F090B1096701E0E3CE1AD108B501C601AA
:104370000E94AC0FC82F811131C0F0E3EF0EF11C89
:10438000B501C7010E94AC0FC82F811127C0005D85
:104390001F4FB801C7010E94AC0FC82F81111EC06A
:1043A000B801C6010E94AC0FC82F811117C004EEDE
:1043B00018E084EAE82E89E0F82EF80184818770FD
:1043C000843039F060EB79E0C8010E940516811154
:1043D00038C0085F1F4FE016F10679F78C2FDF9188
:1043E000CF911F910F91FF90EF90DF90CF90BF90F2
:1043F000AF9008954BE06F2D8D2D0E948F0F41E0FF
:10440000B801CE010E94441283E090E10E94360D73
:1044100083EE9FE09093A6098093A5098AE5809397
:10442000A4098091AC098F5F8093AC098FCF84EC95
:104430009FE09093A6098093A5098AE58093A4093B
:1044400085CFC82FCBCFCF930E94520FC0E183FFFF
:10445000C0E00E94520F82FDC0620E94520F87FD91
:10446000C4600E94520F84FDC8600E94520F85FDF7
:10447000C1600E94520F86FDC2608C2FCF910895BB
:104480001F920F920FB60F9211248F939F938091DA
:10449000E1009091E100937F9093E10083FF0FC0D2
:1044A0001092E90091E09093EB001092EC0092E3FF
:1044B0009093ED001092E20398E09093F00082FF59
:1044C00022C093E09093E9009091F200992319F0B3
:1044D0009AE39093E8009091D303992341F090914F
:1044E000D30391509093D303911101C05D9A9091A1
:1044F000E103992341F09091E10391509093E103FE
:10450000911101C0289A84FF18C08091E2008E7E2C
:1045100081608093E2008091E1008F7E8093E100D2
:104520008091D4038E7E80618093D4039F918F917C
:104530000F900FBE0F901F90189580FFF7CF8091BE
:10454000E2008E7E80618093E2008091E1008E7EA9
:104550008093E1008091D4038E7E8160E5CF1F922D
:104560000F920FB60F921124CF92DF92EF92FF922B
:104570000F931F932F933F934F935F936F937F936B
:104580008F939F93AF93BF93EF93FF93CF93DF935B
:10459000CDB7DEB76C97DEBFCDBF1092E90080913A
:1045A000E80083FF25C068E0CE0145960E94BE0B5F
:1045B00082EF8093E8008D8987FF39C09091E800F1
:1045C00090FFFCCF982F907609F034C19E894F89D7
:1045D000588D2F89F88C911131C0803861F5809108
:1045E000D2038093F1001092F1008EEF8093E800E7
:1045F0006C960FB6F894DEBF0FBECDBFDF91CF91A2
:10460000FF91EF91BF91AF919F918F917F916F91AA
:104610005F914F913F912F911F910F91FF90EF90DC
:10462000DF90CF900F900FBE0F901F9018959EEFC8
:104630009093E800C7CF1092F100D5CF913059F494
:104640008111D3CF4130510581F68091D2038D7F06
:104650008093D203CACF933049F48111C6CF413041
:10466000510519F68091D2038260F2CF953041F462
:104670008091E80080FFFCCF20682093E300B5CF55
:10468000963009F0A9C00B8D1C8D22E01092E90034
:104690001092D0031092CF03F2122EC01092CE03CC
:1046A0001092CD030E948D0B1F8299E09983FA82AC
:1046B00091E09E8390EA98879AEF99872091CF03A3
:1046C0003091D003275F3F4F3C832B838D83109223
:1046D000E9001092D0031092CF031093CE03009301
:1046E000CD0349E050E0BE016F5F7F4F80E00E9444
:1046F000670B0E948D0B79CF1093CE030093CD03EF
:104700000E94710ADC0112960D911C910115110590
:1047100009F451C1D801ED91FC910480F581E02D9F
:10472000BE016B5E7F4FC8010995009709F03EC13D
:10473000F80100851185EACFF3E0FF120EC08F89E2
:10474000882309F440C0823061F440E867E087E9DB
:104750009FE00E94340B811148CF81E28093EB00EF
:1047600047CF813029F440E86BE08BE89FE0F1CF40
:10477000833099F70E94710ADC011296ED90FC904B
:104780008E010F5F1F4F6801E114F10479F0D7012A
:10479000ED91FC910680F781E02DB801C7010995E4
:1047A000080F111DF701E084F184EECFD8011C92AF
:1047B000F60101900020E9F73197BF016C197D09DE
:1047C00040E0C601C6CF65E77FE0FB01449150E0C1
:1047D00080E80E94670B09CF973009F4BECF98306C
:1047E00021F481E08093F10000CF993009F0FDCEF3
:1047F000837009F0B2CFE0E1F1E081E031E096E3CF
:104800002191222371F08093E9003093EB00DF01C6
:1048100011972C912093EC009093ED008F5F8730DF
:1048200079F78EE78093EA001092EA008F898093EF
:10483000E203DBCE8B8D9C8D1092E9001092D003A9
:104840001092CF039093CE038093CD03898D811175
:1048500092C08E899D89913A49F4813209F07DCFC9
:1048600047E050E067E071E080E0B3CF913209F0BB
:1048700074CF833269F48F89988DB0E0A0E0809383
:10488000030190930401A0930501B0930601ADCEFE
:10489000803269F48091E80082FFFCCF67E087E016
:1048A00091E00E94BE0B8BEF8093E8009ECE823297
:1048B00009F09BCE8F8980930E01EEEFFFE7859183
:1048C00094918B3F9C4D51F1E0E0F8E0809107011D
:1048D00090910801A0910901B0910A01803B944098
:1048E000A105B105F1F480910E0180FD1AC0EE3FE3
:1048F0008AE0F80789F587E797E7918380838091BD
:1049000060008093D10388E19BE00FB6F894A895EE
:10491000809360000FBE9093600067CEEEEFFAE0E8
:10492000D5CF808191818737974709F05ECEA895D2
:10493000809160008861809360008091D1038093B2
:104940006000EE3F2AE0F20789F08091FE0A909124
:10495000FF0A9183808349CE8081918187379807B0
:1049600051F29093FF0A8093FE0AC5CF1092FF0A7E
:104970001092FE0A3ACE0E94710ADC0112960D9145
:104980001C910115110509F4E8CED801ED91FC91B7
:104990000190F081E02DBE016B5E7F4FC80109954B
:1049A000811123CEF80100851185EBCF1816190669
:1049B0000CF41BCED2CEF1E0FF12BECE69E77FE051
:1049C00004CF0F920FB68F939F93EF93FF93809135
:1049D000C3028D5F8D3708F08D578093C302EDEBD6
:1049E000F3E080818E4F808391819F4F91838281FC
:1049F0008F4F828383818F4F8383E4ECF2E0808149
:104A00008F5F808381818F4F818382818F4F8283EB
:104A100083818F4F83838FB18F6066991C9B88271A
:104A20008F3681F48091C202981B963068F0E0E0E6
:104A3000F8E087E78083818388E180936000F093CA
:104A40006000FFCF9093C202FF91EF919F918F91F1
:104A50000FBE0F9018951F920F920FB60F92112450
:104A60002F933F934F935F936F937F938F939F9376
:104A7000AF93BF93EF93FF938091BE029091BF02DB
:104A8000A091C002B091C102892B8A2B8B2B09F413
:104A900040C08091BD0281110BC088B190E489278C
:104AA00088B98091BC02882319F08BB180588BB9EA
:104AB0008091BE029091BF02A091C002B091C1024C
:104AC000181619061A061B069CF48091BE029091D6
:104AD000BF02A091C002B091C1020197A109B10922
:104AE0008093BE029093BF02A093C002B093C10214
:104AF000FF91EF91BF91AF919F918F917F916F91B6
:104B00005F914F913F912F910F900FBE0F901F908B
:104B100018950E948E0CECCFEFEBF9E01382128215
:104B200088EE93E0A0E0B0E084839583A683B7830A
:104B30008AE191E0918380838FEF9FEF958784874F
:104B4000EFE1FAE08CE291E0918380831582168296
:104B500080E187831482138211868CEE99E0909312
:104B60001E0A80931D0A80E090E890931C0A8093AF
:104B70001B0A46983E9A5F98579A0895CDB7DEB7BC
:104B80006297DEBFCDBF789483E084BD83E085BDAE
:104B900081E080936E00E1E8F0E083E08083E0E86C
:104BA00081E08083E1E983E08083E0E981E0808344
:104BB000E1EC87E08083E3EC81E08083E0EC82E05D
:104BC0008083E2EC81E08083EAE787E0808380688D
:104BD00080831092E2031092D2031092D40380914A
:104BE000D70081608093D70080EA8093D80089B590
:104BF000806189BD89B5826089BD09B400FEFDCFA1
:104C000081E090E00E94CB0B8091D8008F7C806186
:104C10008093D8008091E000807F8093E0008091B5
:104C2000E1008E7E8093E1008DE08093E200559A52
:104C3000209A81EC80937C0081E785B987E684B96E
:104C400085E38BB98FE38AB9769A6E9880EF81BB42
:104C500010BA80E58CBD81E08DBD85E00E944F0FCC
:104C6000599A85E00E944F0F5C98EDE1F5E085913F
:104C70008EBD00000DB407FEFDCFE732C1F75C9A90
:104C800081E88093640081E0809365000E94520F68
:104C900087FF15C05C9885EA8EBD00000DB407FE45
:104CA000FDCF5C9A2E9858982D9880916400806270
:104CB0008093640081E083BF889513BEFCCF0E947F
:104CC000520F82FF43C02D980E94520F847884387F
:104CD000D1F42D9A88EC0E944F0F589882E090E012
:104CE0000E94BE358F3F29F06FEF82E090E00E9476
:104CF000C63584EF91E00E94CB0B589A0E94520F68
:104D000084788438D9F30E94520F84718431D1F4AD
:104D10002D9A88EC0E944F0F2E9882E090E00E941E
:104D2000BE35882329F060E082E090E00E94C6351D
:104D300084EF91E00E94CB0B2E9A0E94520F847157
:104D40008431D9F388EC0E944F0FB9CF2D9A81E2BC
:104D50008093260A1092C30380913603817080935A
:104D6000360380915B03817080935B0380918003A5
:104D70008170809380031092A6031092AD0310926D
:104D8000B4031092BB0324EE38E03E832D83AD8143
:104D9000BE8114968C911497887F846014968C93AE
:104DA00014971896BE83AD83A45AB94081F72FB7E4
:104DB000F8948091BD039091BE03A091BF03B09180
:104DC000C0032FBF8093C9039093CA03A093CB0362
:104DD000B093CC038FB7F8944091BD035091BE03BC
:104DE0006091BF037091C0038FBF8091C703909102
:104DF000C803840F951F2091C9033091CA03821BF9
:104E0000930B9093C8038093C7034093C9035093B7
:104E1000CA036093CB037093CC039091BD03809140
:104E2000270AF92FF81B8F2F2091280A222359F0E7
:104E3000F093290A1092280A80E090E0892B51F221
:104E40000E940000C7CF2091260AF21740F48F5F1E
:104E5000821790F781E083BF889513BEEDCF81E084
:104E60008093280A9093270AE2E2FAE080819181F8
:104E700001968083918358E1652E712C8091C50342
:104E80002091C7033091C8032232310514F40C94E9
:104E9000FE309091C6039F5F9093C603813009F462
:104EA000A9C610F40C945030823071F0833011F4A4
:104EB0000C94CF308091C7039091C8038197909351
:104EC000C8038093C703DACF8091A409882349F0EF
:104ED00081508093A409811104C01092A6091092F8
:104EE000A5090E942322F82E81709F2D9270F4FE56
:104EF00074C0982E9194992319F099249394981A38
:104F0000E12C9091BC098091B409992309F470C0F7
:104F100091509093BC098091B9098E150CF0CAC0CC
:104F20008F5F8093B9098091B909982F9595209149
:104F3000B409920F9093B409F2FA882480F8F3FC34
:104F40008A9420913003309131032F5F3F4F30938B
:104F5000310320933003082F000F080F4EE0949E7A
:104F6000000D1124802F811003C010E09920A1F0C2
:104F7000EAE02E9FE02D1124F0E0EE0FFF1FEF5B23
:104F8000FF4E2591349137FF02C021583F4F220F29
:104F9000232F221F330B122F9091BA09992379F0F6
:104FA00091509093BA090E94291283709927019712
:104FB000180F0E9429128F7199274097800F9091A6
:104FC0002D0398170CF07BC09A5F90932D038917DF
:104FD0000CF07DC080932D037AC0E12C882311F062
:104FE0004AEFE42E992311F016E0E10E912C89CFBF
:104FF000F5FE91CF9091BE09943108F48CCF98E0E2
:105000009093BC0996E09093BA090091B009109171
:10501000B109805E0E94462197FD0396959587957C
:1050200095958795080F191F8091B409E0E2E80F64
:10503000F0E0EE0FFF1FEF5BFF4E2591349137FF3D
:1050400002C02D5F3F4F35952795359527954091A7
:10505000B2095091B309240F351F9091A6039923EB
:10506000C1F09091AD039923F9F09091B403992385
:10507000F1F09091BB03E6EBF3E0992361F08091AE
:10508000BE0984518093BE0983EF9BE00E94360DD8
:1050900042CFE1EAF3E09FEF96839583118300838B
:1050A000338322838483EBCFE8EAF3E0F4CFEFEAA3
:1050B000F3E0F1CFE8160CF036CF815032CF8917EC
:1050C00034F4965090932D0398170CF483CF80916D
:1050D0002E03811744F48D5F80932E03181754F428
:1050E00010932E0307C018172CF4835080932E03BF
:1050F0008117B4F38091B4090E9446216C0180911C
:10510000B409E82FF0E0EE0FFF1FEF5BFF4EA59014
:10511000B490805C0E9446217C01E091B409E05C7F
:10512000F0E0EE0FFF1FEF5BFF4E05911491E82DAD
:10513000880CFF0BAE9EC001AF9E900DBE9E900DE1
:105140001124B3010E943836A090B709B090B80975
:10515000A60EB71E292D990C330BCE9EC001CF9EF3
:10516000900DDE9E900D1124B3010E943836E0911F
:10517000B509F091B609E60FF71FE29EC001E39E64
:10518000900DF29E900D1124B3010E943836E60F67
:10519000F71FF093B609E093B509029FC001039F82
:1051A000900D129F900D1124B3010E943836A60E67
:1051B000B71EB092B809A092B709B7FE03C053E07A
:1051C000A50EB11CB594A794B594A794F7FD33969A
:1051D0008F0115950795159507958091B0099091C8
:1051E000B109800F911F9093B1098093B00980910C
:1051F000B2099091B3098A0D9B1D9093B3098093D6
:10520000B2090E945221882381F18091B2099091C4
:10521000B3098A199B099093B3098093B2090E943C
:105220005221882311F18091B0099091B109801B1E
:10523000910B9093B1098093B0098091B20990913C
:10524000B3098A0D9B1D9093B3098093B2090E9404
:105250005221882351F08091B2099091B3098A19A3
:105260009B099093B3098093B2092091B5093091BD
:10527000B60947E0429FC001439F900D112497FD5E
:10528000079643E0959587954A95E1F79093B6097F
:105290008093B5092091B7093091B80947E0429F42
:1052A000C001439F900D112497FD079633E095951B
:1052B00087953A95E1F79093B8098093B709809163
:1052C000BE09843638F49091BC09911103C08F5FF8
:1052D0008093BE098091BB09882319F08150809387
:1052E000BB098091B0099091B10997FF02C081502C
:1052F0009F4FF92E0091B2091091B30917FF02C018
:1053000001501F4FE12E612F8F2D0E94960F863086
:1053100009F4E1C008F0A2C0853009F4BDC001EA7B
:1053200013E025E0222E312CD80115968C9115978B
:10533000882309F466C1815015968C9315971496AD
:105340008C910E94462197FD03962C015594479419
:1053500055944794D8011496EC91F0E0EE0FFF1F9E
:10536000EF5BFF4E8590949097FE03C0B3E08B0EE9
:10537000911C9594879495948794F801A080B180AE
:10538000A40CB51CB182A082C280D380C80CD91CE9
:10539000D382C2828681A0EBEA2EA9E0FA2E8F3F4B
:1053A00041F0F8E08F9FC00111249C012C51374F30
:1053B0007901B601C5010E94AC0F882309F4CCC065
:1053C000B7FE03C03FEFA30EB11CFB2CAB2CD7FEE6
:1053D00003C04FEFC40ED11CBD2C6D2D8A2D0E9431
:1053E000960F893009F0B5C040E06D2D8A2D0E94DE
:1053F0008F0FDC861B86CB84DC8450E8C50ED11C65
:10540000FE861D86ED84FE8480E8E80EF11C41E0F6
:10541000B601C7010E9444120E942912B1010E94E4
:1054200024368130910509F48CC008F484C00297B9
:1054300009F48DC089E29DE00E94360DF801628179
:105440007381681979098081918140E084199509F7
:105450000E944412D80115961C92D3C0873009F4DB
:1054600052C0883009F05BCF40E0612F8F2D0E9441
:105470008F0F83E090E10E94360D81E79CE09093CE
:10548000A6098093A5098AE58093A4098091AE09B5
:105490008F5F8093AE0943CF8091BD09843608F0B9
:1054A0003ECF8C34B0F084E68093BD0940E06E2D91
:1054B0008F2D0E948F0F83E090E10E94360D8DEBBF
:1054C0009CE09093A6098093A5098AE58093A4099E
:1054D00026CF875EE9CF40E0612F8F2D0E948F0F8E
:1054E00083E090E10E94360D87EA9CE09093A60944
:1054F0008093A5098AE58093A4098091AF098F5F05
:105500008093AF090CCF40E0612F8F2D0E948F0F49
:1055100083E090E10E94360D89E89CE09093A60913
:105520008093A5098AE58093A4098091AD098F5FD6
:105530008093AD09F4CEA601B70183E00E94E31683
:1055400079CF45E06B2D8A2D0E948F0F73CF46E0F7
:10555000F9CF87ED9CE070CF90EBE91699E0F90662
:1055600009F0B0C0F4EEEF2EF8E0FF2ED70114964C
:105570008C911497E82FE770E430D1F12D913C9194
:105580001197A90140565109A416B5068CF1205A6D
:105590003F4F2A153B0564F112962D913C911397CC
:1055A000A90140565109C416D50614F1205A3F4F9F
:1055B0002C153D05ECF015969C9115979B3008F045
:1055C00062C0F0E0E955F64F91819F5F9183887F3B
:1055D000846014968C9389E29DE00E94360DF70159
:1055E0006281738141E0808191810E94441226CFC3
:1055F000B8E0EB0EF11CED81FE81EE15FF0509F020
:10560000B5CF095F1F4FB3E00D3B1B0709F08CCEF0
:10561000A2E3B3E061EA73E090E8EFE7FE2E1496B0
:105620008C9114978E7FAD014B5D5F4F882309F4F9
:1056300095C0FD0135964E175F0709F489C080813A
:105640008038F9F023812D5F23833281082F082EC3
:10565000000C110B030F111D37FD1A9501581F4F38
:105660000F3F110568F41181022E000C330B210F3E
:10567000311D17FD3A9521381FEF31070CF05AC044
:1056800090833496D8CF9A5015969C9387ED9CE0E2
:105690000E94360DF7018481877C8861D82E84832F
:1056A000C7010E94D4160696FC0184918295880F4A
:1056B000880F807CFD2DFF73DF2ED82AD70114962A
:1056C000DC92BCCE8091B0099091B1099C0120562A
:1056D0003109A216B3060CF494CF805A9F4F8A1555
:1056E0009B050CF48ECF8091B2099091B3099C0177
:1056F00020563109C216D3060CF483CF805A9F4F2F
:105700008C159D050CF47DCFC7010E94D41600971F
:1057100009F494CE0496FC0184910E94490D809175
:10572000BD0981118BCED70114968C91877080931F
:10573000A70984CE203831051CF012821382F18231
:105740002281820F808381812381820F818399CF7F
:1057500014968C911497825014968C93DA016417E6
:10576000750709F05CCF04EE18E0D80114968C910F
:105770001497982F9770943051F0982F907C99F14E
:105780009091C6039F708054992309F458C0085F14
:105790001F4FB9E0043A1B0741F78091B20990917D
:1057A000B30997FF02C081509F4F692F8091B009C4
:1057B0009091B10997FF02C081509F4F892F0E949D
:1057C000960F843041F4809102018A3009F00DC2B5
:1057D00084E00E947A118091BD0981116BCB84E035
:1057E0000E947A1167CB982F96959695969597700B
:1057F000913041F140F0923009F4F2C1933039F622
:10580000877C88601CC02091B2093091B309409117
:10581000B0095091B109F801628173818081918151
:105820000E945610882309F4B2CF81E69EE00E94C0
:10583000360DD80114968C911497877C8860149645
:105840008C93A5CFF801F780E6806F2D8E2D0E94F6
:105850001C10D82EC8010E94D416D11085C02E2D40
:1058600030E038872F83322E222430E8230E311C7B
:105870004F2D50E05A874987542E442450E8450E56
:10588000511CFC013396E491F0E0EE24FF24EE1A63
:10589000FF0AD801AD90BC90C1018A199B0947014C
:1058A0008E159F052CF04F018E179F070CF44C01AD
:1058B000D8011296CD90DC90C2018C199D098E15ED
:1058C0009F052CF07F018E179F070CF47C01A80C1C
:1058D000B91CF801B182A082CE0CDF1CD382C28237
:1058E00060EB79E0C8010E940516882309F4B2C074
:1058F000C8010E94D416FC013796E491E11127C03B
:105900000496FC0184910E94490D8091BD0981118A
:1059100006C0D80114968C9187708093A709F8016E
:105920008481877CD82E6894D4F8D482C8010E94E0
:10593000D4160596FC0184918295880F880F807C8F
:10594000FD2DFF73DF2ED82AD8011496DC92F801C2
:1059500080819181881999099183808382819381C3
:105960008E199F0993838283C8010E947216A0E159
:10597000FA2E882339F0682F70E080E190E00E94D1
:105980003836F62EC8010E94D4160796FC01849181
:10599000882309F4FCCE0E9429126F2D70E086172F
:1059A000170608F0F4CEE090B209F090B309C09069
:1059B000B009D090B109D8011296AD90BC90139760
:1059C0008D909C909701A601B501C4010E945610CC
:1059D000882309F4DCCEC818D908D7FE03C0BFEF6E
:1059E000CB0ED11C2D2DEA18FB08F7FE03C0EFEFFC
:1059F000EE0EF11C8F2D2111D2C060ECF7FC04C01B
:105A000060E4FF2009F4C3CEC8010E942A1688234F
:105A100009F4BDCE87E09EE00E94360DD8011496B1
:105A20008C911497877CF82E6894F4F81496FC9265
:105A3000C8010E94D4160596FC0184918295880FB6
:105A4000880F807CFF2DFF73FF2EF82AD801149653
:105A5000FC929DCE2A143B0409F086CF4C145D04C1
:105A600009F082CFE090B009F090B109F7FE03C0D1
:105A7000FFEFEF0EF11CEF2CFF0CFF082F81388594
:105A8000E21AF30A1E141F041CF4EE24E394F12C12
:105A9000F7FE03C0EE24EA94FE2CBE2CC090B2099F
:105AA000D090B309D7FE03C03FEFC30ED11CCD2C5D
:105AB000DD0CDD0849855A85C41AD50A1C141D045D
:105AC0001CF4CC24C394D12CD7FE03C0CC24CA949C
:105AD000DC2CAC2C0E942912982EC8010E94D416EE
