:020000040000FA
:100000000C94D6150C94FE150C94FE150C94FE154C
:100010000C94FE150C94FE150C94FE150C94FE1514
:100020000C94FE150C94FE150C94D4240C944325CA
:100030000C94FE150C94FE150C94FE150C94FE15F4
:100040000C94FE150C94FE150C94FE150C94FE15E4
:100050000C94FE150C94FE150C94FE150C9475274B
:100060000C94FE150C94FE150C94FE150C94FE15C4
:100070000C94FE150C94FE150C94FE150C94FE15B4
:100080000C94FE150C94FE150C94FE150C94FE15A4
:100090000C94FE150C94FE150C94FE150C94FE1594
:1000A0000C94FE150C94FE150C94FE154120534C37
:1000B000494D45004120524154004120445241479E
:1000C0004F4E00412057524149544800412053505F
:1000D00041524B4154004120534B454C45544F4EE7
:1000E00000414E204F4343554C4152000D0FE9B3A0
:1000F000EB6CB67295AB5C25674EA7BED5A554EDEB
:100100004AA9CEA5D3E9743A5D0D0F4995CB965215
:1001100095ABFACA56B294CB2BD674253B5795AA09
:100120004A75755757A5AA529DAB643A5D0D0F9954
:10013000969DAB52553255555595EB2A75DEF958BB
:10014000D3E974253BD7B9CE75AE739DEB5CEDD288
:10015000050D0F4995CB55A95EC9AA575529975743
:10016000ECE974253BD7B9CE75AE73954CA7D3E9AE
:10017000020D0FC9964E7DEA73CE29B9DD3AA7A4C8
:1001800073F3A5D395AC643A9D4EA7D3E974BA0036
:100190002020445241474F4E5320202020204C41E4
:1001A000495220202020253A0005041E0425030082
:1001B0002317003217032537031E34011633011AA3
:1001C00038030838010433030A29010A20031225E1
:1001D00001182303251F01212403291301341C01C5
:1001E000311C013325013332033A360342330041D7
:1001F0002601431A033407034309030508031609BC
:100200000107050116041E01182E01013601271FE2
:10021000011C2801012B01362B01492401250A026A
:100220000106020B0B021011021B17023815022ED9
:1002300006024703024512020D1F022927021F2E44
:1002400002103102152102271802230C03270C0388
:100250001F01032B01052310042625052B1504017E
:100260001508652501640F3464072D64251E641686
:100270001E64071E64341E64431E00040700040845
:10028000030202030B010D09020A0D050C092020CF
:100290004352595054204F46202020414E47554943
:1002A00053482020162B0003031E02132706152394
:1002B00001161F020D2A02212906262806082805F4
:1002C000112305262601041F021819011515011610
:1002D00010010710020315020A17022417052B1537
:1002E00006251B06240B0225090527060625020202
:1002F000120A06170706120505180303070101096C
:100300000B0107051B010223011521012121011108
:1003100027020B21022B1B021812020B1202031AD6
:10032000021A1A02211202290302120B0205070502
:1003300017170405150529010410010323150329C6
:1003400012030B0B030105032929030327030D1BCC
:10035000021F1501010D0565070064070F64160FE4
:1003600064250F6416280B05040803080A010948D0
:10037000414C4C57415953204F4620544845204446
:100380004541442020073A00010410050A340501C4
:1003900033050538050829050324060D210608261E
:1003A000010517060B10050B1705041206030406BA
:1003B0000A09050C040503080107021302012F02B4
:1003C0000D2A020329020524020124020B21020B3B
:1003D00019030B15030D150205100309180201027C
:1003E000020B0304030B050C0803080801070102B4
:1003F0000901020B0B01650700030208031C1FA083
:10040000A1EC32DBA94E75AABBAA2FA5B2CAE16D39
:10041000BBCD479754AE539DEA54F7F797AB55AD14
:100420009C72CA29B90D7BD974D6A97295CA669DEA
:100430005255EF3A9555D286F6F576A9E4B0171CD9
:100440001FD0955D6E9797BBD4E56E75B9CBDDEA8D
:100450009297BBE476BD0E876E26F7EEDD5995F2D6
:100460002A2E4F94F53A4FA4DFBD7B6FAD7378DA37
:100470003AEB7EA5DE7DC9F2B2F2447A4BA4735505
:10048000DA55A9AFDFAD94DBB9B19A4E6FD7DBED8A
:1004900076BB5D6EB7E9D0081C1FA894BBD4ADAA8B
:1004A00052A554AF7A55A54AA73BD7D55D9DEBCE53
:1004B0007575E772DDB9552A955AAF1D7E957AC9D3
:1004C0007795AC54552A95AA88FA5295AAFC2ABE6B
:1004D0005E9646A2DAAD64AABEAAEBBBB2ABAAECAA
:1004E0003A59A94F7DAE53BDCEEE9CFAF47A3DBE8B
:1004F000D6EBEDB272B5AC5C2D2B57CBCAD5B27230
:10050000B5AC5C2D2B57CBCAD552C9E56C161FD0A4
:1005100094722A579DAB645757B2AB2BD9D595EC43
:10052000642EE57CB8722A5B36E5DCB7527539A7D4
:10053000A492EA565249A754A95BBA4FB9722AEF5E
:10054000F8A46F59B692954DA7F3E95CA7D3D97477
:100550003A5BC9B2655BA22E9DCEA7D3E974369DE6
:100560000E6D191FD0944EC7BAAC5CADE4AA5C65A1
:1005700043B5F5DB65E75E75B94B2A1B04E494D5FA
:100580006B27B7E97456B9B3EA7295DC56F256B5E3
:10059000DBA69D2BE542623A9D0E1A02281FB099F8
:1005A0004E2A1F9AB2D9CA39E59CAA95B4CA39E92C
:1005B0003A19517053BEB2D9CA5575555D75555D1E
:1005C000B94AE55291F5576DA36B759DDA5E6E5988
:1005D000D5DBA5D2D126D7E1A873D9757659B9BA9A
:1005E0005455D77DD5D57D553B77B9DA39259D73DF
:1005F0004E2A57AB5BC94FAD7AD5EA56A59C734ED0
:100600002A574BA5EE571D440B191FD018EBAE7699
:10061000BBF4AAE34BE7F3E9FC684BF57552755759
:10062000752957CA7EAEAAD4A5EA2AA5BACEF6BACB
:10063000D2D9F0B5DC56A4976A95FB4FE62EB74A9F
:10064000BF53B952F155723DDE9659E796526DA3EC
:100650008B289D8C2EBD956EAD647E14013D375068
:100660005EBB522ABD5EAFD7D12795CB86BE7C5EDE
:10067000E9E8B3CBE5729B2EA56ADA753A34269584
:10068000734AC94B5DF5FD5D9D4A7575B5BAF5AE0A
:10069000957556F96CFD95ABCAD5AA56A5DC5EB921
:1006A0005A3A75CAF99453EA92CA5576B72CA74AB2
:1006B000B9CA557FD9CAE694723BF797EE9395EC89
:1006C0005C2AD5F59DABAAAE5AA9765272A99CFBBD
:1006D000645557D55575E5BE5257AEAA5359B5AABC
:1006E00053952D75E918ABEAB225D7BF924E9D5AA6
:1006F000A52EB922AA72BE4A5979A94B2D9593FF0E
:100700006D2B5BB6AAF2DBB972555795AB72565595
:10071000575557D5559DADAAABEAAA64485364F91D
:100720006CBEE64AD56E5BB95A564E31E52B9B4BF3
:1007300055B5FAADBAD4A54A5DD5557555FBAABADB
:10074000AAEAAA5C39754ADDCBD5A9CA65B3B96CEA
:10075000E5AAAB6A55D95A555755442329EC67BBCE
:10076000AA5CD55575555D55AEEAAAEAAA65E5AB12
:100770002A57E5A473F7AB5FFDA94A3A75C94FB58F
:10078000BAD4DF4BA77CD555C564B3CAA93A55CBBB
:100790006CE5AAEAAAAAABEAAAEAAA5CC8CF56E51F
:1007A000AABAAABAEAAA552EEFDCE752D239E9660C
:1007B000CB5736978A6A972DA7B2E554B6948B2803
:1007C00095CD562E6C45ABE4361D3416FAD3E9A010
:1007D000392A37A0A1743A9D8E329D4E2F955452DE
:1007E00049259D73CE49E7A453F2B2CB6D884E2ABA
:1007F000A59472DB947297BB9554B7BA4AA9D64AAE
:100800002BAD7458DBB9DDCE8DF3AD72B7B2AB5EF4
:10081000AD5AA956AAD5256B7529E554ADBAB74B83
:10082000E5DC7A3B251F86959AAD2A55A5AAFAAA3A
:10083000CA5266ABA2CC2A773B65BBA2AE8AAF6C2C
:1008400057A9AA5455AAAAA8F60A9F7BE9A36BF94F
:10085000365B74557555315655F457156B5D4555D6
:100860007A573A4DD7B2B1BC566E99DD9157D555EE
:10087000C55A571563555D558C5595AB50244BB9EA
:1008800061A1F4D6EEDCD6B9BC727625F3CAD9954F
:10089000CC2FA55232AF9C545B25950CCD322F60E6
:1008A000ACE0A4909C55368C3A57BBCBD5CED9B58D
:1008B000B2CECEBA734AED5CED2E572BA9D2E978B1
:1008C000D3DB9017CEA5BB64259554B27297927C6A
:1008D0005BA7DA3AD5D6A9B64E116EB77129E7D41F
:1008E000F776BD5656D96DD8CD2A1B86D24A76AE3C
:1008F000942AA5BA6C72B7AE6C55AE7295CDA6723D
:1009000095AB5C25575D95BA5C25B751B9B0975D3D
:1009100087FCEC72B95CAE3AB55C2E97DB70955DE6
:100920002E97CB6D7AEBACC360D03832376026653A
:1009300095ADA5724E55E59C54AE56CA2918291D91
:100940002CB595AEDCD5AB564BD5EA5EB99DCB6EDA
:10095000C7E16597CA29A79C72CA29B90D5BC96509
:10096000A74AA96CB9CB9D2E7739952EE53AA79465
:100970004BBAE9AA5255AB6A7575E92B555D555FBF
:1009800015D3D659679D5D56AEBAAAAB72CA29B2C5
:1009900074E874FEDD654BFB34914E7B9D3CF98E13
:1009A0002ABB92D97ED5C9DD2D979D7AB5561FFCFD
:1009B000964EA7D3116E977295750A9D5B59CA4AD8
:1009C000052F66E5AD9DB3DBD8B7CAB999DCD06217
:1009D000B6B2D9CA66439B735BE7F641523737D04C
:1009E0009CCD87C6EC76A75CA953B9CAC694CD073F
:1009F0000FE6F359E5946BBB5535822AA91C917219
:100A0000D2F1E5F359E59C6ABB558E5539E7AE9DA9
:100A10002A752A57D9109B2D756A55D950573B37DF
:100A200093BA9C2A9B52972A5557AE7255B9CA560B
:100A3000572D2B57CAD55555AEAAEB5BC9B33955BF
:100A4000AEB24E3AA5D24959212A9BCDE7E3DF56F3
:100A5000D24965974A2E9D54D2C9AA238AA85475B3
:100A6000AAABBAAA3A555D55DD55ADAA52A552B505
:100A70004C7F4AC94E55A952AAEAAAAAEAAAAEEAE6
:100A80005457AAABAA4E7FC5249554CA29A994727B
:100A90006EBBCE86FEAD56444AE9B452CA274BA57A
:100AA0004A76AAEA56A9565925D5A9D4A9AA5BA57A
:100AB0003A592A5572AD94D269A59E2C05B96D9507
:100AC00074AE942AE574A914912BA2534CAE986E7F
:100AD0002A77BEAED67D9752A594734A0E3B463711
:100AE0009B228B6EB6E8A21BB602281F70E79CDB28
:100AF0006EB7DBAD545239A7E4361DDAD2E9AD92B8
:100B000052E9D09C6E9D4E077BA595545249259580
:100B100054D2B990356C36E2743A9D4EA7A34FA7D4
:100B2000D3E9743ABDDD6EB7DBED76BBDD6EB7DBC6
:100B3000ED76B6ED76BBDD6EA305191FD0944E2A77
:100B4000A9A4726E3B16D3E9AD924A3AA7B34B15EE
:100B50009494DE2A27B7524925B7C3425B2595E412
:100B6000B4E9743A9D4EA7D3492595545249259529
:100B70004EA7D3E9743ABD25043D37D095DD6E9775
:100B80004AA232BD5552C96DE84E6F9554721B3A58
:100B90009554D239E79C93CA6E57721B083DBBDD52
:100BA0004A65B7DBED3AC877E99C73CE3985BBEC73
:100BB000522948388B48A974D062CE39E79C7376A5
:100BC000BBDD6E97CA39E794DC86EEF476ABA4738E
:100BD000CE39E79C73DBED36FA747AABA473CE3969
:100BE000E79C73CE39A7E4361DB4052A37D09BDDC8
:100BF0002E9554524925955452A5D3E958D3E9F07E
:100C0000964E6FB74A2AA924129592A13FADA454DB
:100C10006C3B19CE766E1BF276CEC155E14C8D3809
:100C2000990E1A4C2B892FE7E046DCA59DB3C376BD
:100C30003B177A95740E5BA3339D4EA7D3E974528C
:100C4000492595422A322FB0BC5452492595545219
:100C500049DEB492844B2595545249259554524906
:100C600065B74B259554524965479DDC6EB7DBADA2
:100C70009278B2EB743A9D0E5FE9909B73524925CE
:100C80009554D22962E79C73CE39E7D3E9743A7E52
:100C900074A583D6D25B65B74AEA741892DBED7609
:100CA0003BA5B2C36E2BA9A4DAA6D3D9A57252E193
:100CB0002B9D4EA75B6EC36E76A9D018DEF8B64AA0
:100CC0002AA9A4924A8EDD743A9D4EA7D3E9743ABC
:100CD00074A5D3E9743AFA743A9D0ECD3237E02107
:100CE0001D7F3A9D4E872DFC66974A2AA9A4924AF9
:100CF0002AECEF9CC3B573CED9E9B26FB7DB6DD8E0
:100D0000CA2E95738A4929B94D074B66974A4925DA
:100D100015B2ECD05798B3DBED76BB0DEDE9ED568F
:100D200049259554524925ED76D43965A34D3B8725
:100D30002F25A1BBAC1C655BE7945472CCB9613B19
:100D4000E7A4924A2AA9A4924A2AE794DCA6ED765F
:100D5000BBDD6EB74B25A1243737B0B954CE39E788
:100D60009C73CE49652757CE39B70D5DE9AD73CE7B
:100D70004965475776BBDD6ED7E15F49E7A4C25F9F
:100D8000D0527AE4659748B3A12BBDB5DB2DCC28B2
:100D900095734A2AA9A4924A3A27B593CA6EB7DB3B
:100DA000ED76BB0E16DD39E79C5372AC3A0729AAE3
:100DB0006D3A6829BD754E2ABB4E074DA5B34BE56C
:100DC000DC36E84E49259D734E2AA9A4924A2AE7AB
:100DD0009C73CE39259D73CE39E71CDC041B1000B3
:100DE00058AC5656561056565646565656105656E7
:100DF0000056561056565646565602000201030338
:100E00000303230320032B030B130B000B438B0360
:100E10000B1308032B1B10565646565656105656A3
:100E2000005656105656564656565610565656ACFE
:100E300058002B0308130B038B430B002B132B03BE
:100E40002B0320032303230323012200220502187E
:100E500000000018050200181818000908400D418C
:100E60000D410D410D4009200080C060B018007E8A
:100E7000BF5701FA005EF000DF1F03000F003E03C2
:100E800000F7E00254200400040005030920BF7E9F
:100E90000018B060C280001FDF00F05E00FA01574A
:100EA000E0F700033E002F002303050004000400C8
:100EB00004001720000080C0E0F000FC7E7F7F7FF0
:100EC0007F7F7F7F7F7F7F7F7F7F7FAEB0B73B83DA
:100ED000BDBEBE3FBFBFBFBFBFBF80BFBFBFBFBFE5
:100EE000BFBF06011D387BF70FEFC0DFDFDFDFDF9D
:100EF000DF1FDFDFDFDFDFDFDF00080008000800C3
:100F00000B070F0F0F0F8F0F800F8F0F8F0F8F0F8C
:100F100017207F7F7F7F7F7F7F7F7F7F7F7F7F7FA8
:100F20007EFC00F0E0C0840000BFBFBFBFBFBFBFFA
:100F300080BFBFBFBFBFBF3FBEBEBD833BB7B0AE6C
:100F4000DFDFDFDFDFDFDF1FDFDFDFDFDFDFC0EF80
:100F50000FF77B385D01460F8F0F8F0F8F0F800FBC
:100F60008F0F0F0F0F070B0008000800080009087B
:100F70000401F189C9E9F1010409080401F1090931
:100F800049F101040F1000F50101F50171557101DE
:100F9000F50101F50000230222032202AB02220325
:100FA000220223403D1056564656565610565600BD
:100FB00056561056565646565656105656005656C3
:100FC00010565656465656561056560056561056F9
:100FD00056564656565610565600565610565656A3
:100FE0004656562B0308130B038B430B002B132B76
:100FF000032B0320032303230323002303230323BF
:1010000003A8032303230323400303030323032031
:10101000032B032B132B000B438B030B1308032B06
:101020000E3700000080000880C8E070385C0E00B9
:10103000E070B91C0E570301EA0000FD0000EF004C
:10104000FA0000FF0000FF0000FF0000EF00FF00BB
:1010500000FFF84827FCFCFF0000EF00FF0000F74E
:101060000704E80F0FFF000007001F0000FF00004B
:10107000FF0000FF0000000000000000000007006B
:10108000003F00000E380D025B3870E0C080200089
:10109000220022400000FD0000EA0103570E1CB8A8
:1010A00070E00000FF0000FF0000FF0000FA00EF0A
:1010B0000000FFFCFC2748F8FF0000FF00EF0000E5
:1010C000FF0F0FE80407F70000FF00EF0000FF002C
:1010D00000FF0000FF00001F0007B040DF00000716
:1010E00000000200020002000F38880000008000AB
:1010F0000880C8E0F0F8FCFE00C0E0F0F9FCFE005B
:10110000FFFFFF7F7FBFBF00DFEFEF07F7FBFCFDB7
:10111000FEFE00FFFFFF00EFEFEFE0EFEF0FEFEF5E
:10112000EFE0EFEFEF00F7EFEF1FDFBF007FFFFF14
:10113000FFFFFFFF0003070F003F7FFFFFFEFE01E1
:10114000FDFBFB0000000000000000010307001F82
:101150003F7F000F380DF2FBF8F0E0C08020002246
:101160000022002200BFBF7F7FFFFFFF00FEFCF8D0
:10117000F0E0C000FFFFFF00FEFEFDFCFBF707EF05
:10118000EFDF00EFEFEFE0EFEFEF0FEFEFE0EFEF6C
:10119000EF00FFFFFFFFFFFF7F00BFDF1FEFEFF755
:1011A00000FBFBFD01FEFEFFFF7F3F000F0703B0CA
:1011B0004FDF1F00070301020002000200021418A3
:1011C0000E00060200000000000000000080808089
:1011D0008286000E00000000000080008030B034E5
:1011E000B234B234B23400000000100C1C0D0C0DEF
:1011F0000CAD0C0D0C0D1C0D0C0D408014180E00C8
:10120000E612C808E404740404F404E408C812E60E
:10121000000E0000FF00BD00F7007F0000FEF68218
:1012200082F6FE00000000001F101710171017B004
:10123000101610161016101E4080212000D606F63B
:10124000E606D606060606D606261606D6060606BE
:1012500006D606060606D606E6F606D60000FF0007
:10126000BD8300FF00AEAC00FF0000F84C054CF859
:101270000000FF00ACAE00FF0083BD00FF0000FFD8
:1012800000F77B00FF00460200FF00004F08E8085F
:101290004F0000FF00820600FF007BF700FF000008
:1012A000070606060607060606060706060606578A
:1012B0008606860687068606A647060606060700F1
:1012C0003D38100010000000002000220022002203
:1012D0000022000200020402000200800088008058
:1012E0000080008800080008000800080008008846
:1012F0000088000000800088008800881008001125
:10130000001100110001200020002000000020003A
:101310002000020002000010001000100010000069
:101320000000200020042004000400140014000029
:101330000000200020000000200020000400000029
:101340000400000010000400000000000000000085
:101350000100000000000400040000000000000084
:101360000000000000000008000000000000000075
:1013700000000000000010000400800080400040D9
:10138000000080008000004000400000800000401D
:10139000000000000000000000000000000000400D
:1013A00000008000004000400000800080000040FD
:1013B0000040800080001502048A040045200500DA
:1013C0001408140014021000110011001100110083
:1013D0001100110055001100110011200100010041
:1013E0001100100214001408140005204500048A9E
:1013F0000402150020012000200020002000000031
:1014000000000200020002000200020002000200CE
:10141000025522002200220022012A10820002002E
:101420000200000000002000200020002001200019
:1014300000000000000000020002000200020002A2
:101440004022040200020002000200020002010029
:1014500000000000000000000000010810800000F3
:10146000000000000000000000000000000808B0BC
:10147000B0AC944B27D0CF0808CFD0274B94ACB05A
:10148000B008080D0D3529D2E40BF30808F30BE47E
:10149000D229350D0D200003071F051F1F151B1F27
:1014A00011111F110E1F15111F05011F111D1F0402
:1014B0001F001F0010101F1F041B1F10101F061FEE
:1014C0001F011F1F111F1F05071F311F1F051B179E
:1014D000151D011F011F101F0F100F1F0C1F1B04D4
:1014E0001B071C071915131F111F001F001D1517BF
:1014F00011151F07041F17151D1F151D01011F1FA3
:10150000151F17151F001700002000D5F08D14A11E
:10151000C881CFD9F1AF2000594F552043414E200B
:10152000484541520A412044495354414E540A59B6
:10153000455420434C4F5345520A445241474F4E65
:1015400020524F41520A415320594F552053544580
:10155000500A5448524F554748205448450A444F72
:101560004F522E2E2E003B371019795C9DCD56AE72
:10157000B295AD4E75652B5B5D555DD555D555ABBB
:10158000AAAE5A77D5555557E5AABA2A5795ED54BC
:1015900084B1C71A75288F2F5BB9CA56AE3A5597D2
:1015A000EA4A5D7555B9CA55361B5DD8CB6EB7EBA7
:1015B000F8F3D9CA662B79D555E52A57A94E75AAED
:1015C000B2B186A67014752E57555D555DD5555D23
:1015D000555D55572E2C85BEA4723A1CA59554D244
:1015E00039A9F05695ABAA2B75555D555D95AB1A8B
:1015F00095314655D5559DCA55755575555715A202
:10160000945A49A9A4924A2E9554D975085C4796D4
:10161000764E2A1DFF555D555DD555D9EAAA8A3506
:10162000172A2B5B954BD55575AAAEAA53C598CEF4
:10163000A6D35BBBDFDAD9F1B95D2AA99C1B4D5556
:1016400075AAAEAA535D559DAA684353CC31662B4B
:101650005775555D5557D5558D3F25ED5E49BBDF17
:101660006E9DA2B65B5E3B02ABEAAABAAAAEAAAB7B
:10167000EAAA8A351512E34DAEB295ABEAAABAAA28
:10168000AEAAAB5C5557E52A57D96C5CD96C369B32
:101690008D349BAD5CD5557555575557652BA26458
:1016A000272F5BB9AA5C5557E5AA7295EF542E5BBC
:1016B000B9AAB09604444546454E434500415454AA
:1016C00041434B0043484F4F534520424F4E5553E3
:1016D000004C4556454C200016277494F9A8F27129
:1016E00065974E49E7E4BAB35166A3CE2AB94DE7F0
:1016F000A4924A2AA9A4D2B96E75CE49259554520E
:1017000049256DBA925BBFB77B25EDA5D3FF72A9C2
:101710009C934EAAFF745C2B4A3EC6F43ABD4E56CB
:101720005249E5B89D9395CE6EB3DBF096CE6EB779
:10173000DBED76BBDD6EB7EB74580257454C4C20A1
:10174000444F4E45210A5448452052494348455389
:101750000A554E444552205448450A4D4F554E5463
:1017600041494E0A41524520594F5552530A4E4F56
:10177000572100513760E8BA5255D705B767950D24
:10178000C3E974BB521F51DD95AC6EAA7BE7B7E984
:101790006D7ABB0E16CF2AA79C72CA29E554AD9C60
:1017A00072CAD5B752E57D5545C474D5552B55D76A
:1017B000E5AABA545D4A55ADAC3AE5CA56D2553E93
:1017C000D82D9FCC5E4ED94AEE435456D95067234C
:1017D000AB9C74A95C2AF5F5BD5A55A752A9BEEF7A
:1017E0006455EAAFAABB5A555F95AAAB4E7575AB67
:1017F0007AB9BC5675C595EDAABAAA727555CA666E
:101800002BD529752AF828AB6C2A5BD9AA4E5557D7
:1018100075A5B2D5555DD910955536C2EAAA9DCEAB
:101820002A9B55AE94AB5C29579553F2AAAB56EA66
:1018300054D5A95355A75AD595EAAAAEAAABEAAA98
:10184000BAAA56B5AACA55AED4555D5597EAE43240
:101850009FCD565775555DD55575559553EA56EA42
:10186000568DBEEC5239A7A492DB5823ABCEA6EA24
:101870002A5755575557E5AABAB2A9A4BAEAEBAA0E
:101880002A55F72AD5A5CAA552B9CA76AA3A5597B4
:10189000BAAAEAAA2E559772555D95AB5C2A97CAEB
:1018A000552ED555B9545775555D55ABCA77AAAB6A
:1018B000EA529DAAABBA9453CAD655759593D77D73
:1018C00055572AD7ABD455EFD2A9EE4E27E9B259D6
:1018D000E5D4655395CDA572F96C2E555D954BAD4C
:1018E0002A975A55AE6A55577555AB5AD57279A98C
:1018F000552A95AB5465AB935DDD5597EAEE4A2EBC
:10190000BB77A954EA529DEB5C65ABEBBBAEEFBB7A
:101910002AF75D9DBA54A5AED4AA725557D555E5A0
:10192000AA7295AB4E55AE6A55B9AA5575A52E5BF0
:10193000A94B652B57B9CA55AE7215D7D2A9AA2B98
:10194000D575ABE4052437E8B3D9CAD5AAD4E52ABE
:1019500079B9AAD4AA2B9BAD6CB6AABAAAAEAAB37F
:1019600095CD5672D555A9CB55F272AA94AB656543
:10197000F3715757D55575555D55ABCA56369FCD42
:1019800087B80A85D97C365BABEAAABAAAAEAAABFD
:101990002A575595ABAAABEAAABA4AAD98F6C9E55B
:1019A0007AB9CEAEB3B9AA5C7555E52A5795CD671D
:1019B000D7CBF5F292B3B57255AEAAAEAAABEA2A6E
:1019C000C6ABCAAAF8AA5A2ABBAC4E5DA53AB5ACBA
:1019D0006CAEEAAACAD55555AEAEAA5C5536D555F9
:1019E000D59FCB2E2BBB745531A5A5AB2A1F6FBE3F
:1019F0007295BC5C55EAAAAB52577555755C57D5C4
:101A0000C9DBC96D95B595FC96C9ABCA77B6AABABC
:101A1000AAABD45557A52E57D9CA85BCD966DB9633
:101A200052D6256FE9565A59E5F26AA92A2BE54A9A
:101A300069B754E9E8B6F958C7575AC9E8944E2A25
:101A400032A5930A494A276753644A563A32A59306
:101A5000B356A4250F74D9D3EDCA75BBD25DD7D5C3
:101A6000AD4EA7AAD2EDEAAEEEEAAEEEEAAEEEEAEF
:101A7000AEEEEAAEEE6A575A13E9D2ADAEBB72D7FC
:101A80005DABD3DA57B692FB74369D4EA7D3E9749B
:101A90003A9D4EA7D3E9743A9D4EA7938A4CE974B8
:101AA0003A59E9743AA9C800250F753AF89137BD3B
:101AB00075CE39E79C73CE39E79C73CE39E79C73BA
:101AC000CE39E79C73CE39E79C73CE39E79C73CE51
:101AD00039E79C73CE39E79C730E302F90A5A49202
:101AE0005B2597CEB918B3AA555C69267B3A9D2E23
:101AF000A5AA52559F4EA72DA4A49C734AEE6474C8
:101B000095DC56EE53AB5B39592D7752DACAB9647E
:101B1000AB76B52BA54A55A5AA92D5AEEA6B573A36
:101B2000E7DC4A9E5A49AB94BC9592D239FC6D953C
:101B30005476291569652B57AB54ED9CABAC9432A8
:101B400079259DAB5D2A95AB6CB6E2DD2BB5527F56
:101B5000B2DDC9ABBD52AB6AA5F6AE6C7299EADED6
:101B60004D9545DC76BBDD6E9554D2AE53A953A797
:101B700052E9ECCE49554E9553A5EA72B5ACDD2538
:101B80002F75E5AAAEAA4EE5439C67744377E9AD8D
:101B900092CA3A679DAD5595ABAA56D5A9CAC594C8
:101BA000CFEFF79775522A1DFC67B7F6AB56FD5578
:101BB000AB7ED5EA5EF5AA57BD6A759F7ABB1D302C
:101BC0002F90A5A4924A2AA99C732E74A5D3E974D8
:101BD0003A9D4EA7D3E9743A0D1929E79C736ED844
:101BE0006DBBDD6E95545249259DC3DF5649259541
:101BF000940A1ECD226EBBDD6EB74A2A69D7E974FE
:101C00003A9DDD39A9EC3A1D14E586EED25B2595A7
:101C1000944A87E7B49252E9E03FBBDD6EB7DBED53
:101C200076BBDD6EB7DBED763B4445414C20312081
:101C3000444D470A0020444D470A0054414B45207B
:101C4000002B2FD09DDD2E955472BB5452C9CB5D15
:101C5000EE7297BB9C92CA6E67D2A5D3E974C9D2C3
:101C6000E9745AE3D46D93BB653657A94BF5A7E5E4
:101C7000ADB6A7DE559D73572B2555ABEDB9149125
:101C8000ADBEBECADDAEEA2BA54AD6AE747662A959
:101C9000D2E9743A9DBBDCE52EADAD522BB5F56EA5
:101CA000375B57A77AA54AD575F777AA53FD2D95C7
:101CB000956E22A7574A312D5B12F23B9D4EA7D35A
:101CC000E9743A5DE752D2F7EEEF6E998B6E555D8F
:101CD0005557D5557555755557E52A1B557657AB4C
:101CE00052B5522E9B5C29AEA40AC92B1997524AB1
:101CF0002DE3AAAECA555D5557D5557595CB46E52A
:101D00009454CA29554AD5AE964A2AA7A492DB1004
:101D10002EB3BBEB9592E95C5D555DD555D5555D10
:101D2000555DD555B98AF7A59250122B2FD09DDD60
:101D30002E95545249E59C73CE39E79C73CE39E712
:101D40009C5412D5B874DB60B8B4545249A5ED76F2
:101D5000BBDD6EB7C386BC524925955452492595C3
:101D6000545249A583DE922A24AF6490D05249E5AB
:101D70009C73CE39A7A492DB102ED3E9743A9D4E02
:101D8000A7D3E9743A9D4EA7B34B25A12420444123
:101D90004D414745210A00594F55204445414C0AC1
:101DA00000302F754C4AF6AA3A55C9AE54BF2EE7FB
:101DB000D2E9743A9D4EA7D30EBE4B6F9574D2A94B
:101DC000729FD3BA5DED3A57C9DA75AE92B5EB5C46
:101DD000956CBB52F2569F52523A67B7DBED763B99
:101DE0003C96DEAAB89297AAEEEEAAEA4A5D5DD5C5
:101DF00055D5555D95CBAFAEAA555557ADAAB2CACC
:101E0000A5F2E955EEB2CE5925153CB55552D9ED9E
:101E1000D6395BCB5B55FD555755575D555D555DC7
:101E2000D555B94A5D555775557555B9547CDAE79E
:101E3000A5D2C16FE9F476EB9CDFDA29ABAE2A5765
:101E40007555E52A9FAD7C3EBFEF6429279D5476EA
:101E5000F82D1D7D74D145175D3A9D4E47978E161E
:101E6000302F75F84AA7B74A2AA9A4924A2AA9A4EA
:101E7000924A2AA9243C97DE2AE99C54761D9E9515
:101E8000545249259574CE6EB7DBED76782CBD554E
:101E9000C159E9B4925249054F6D9554524925A54F
:101EA000D2C15352E9E0B7747ABB750E1E4A2BE9D2
:101EB0009C5476F82D9D4EA7D3E9743A9D4EA7D336
:101EC000E9743A9D4EA7A3050704080C0E0F0E0CEB
:101ED00008080FB8549D726F4F7D9DCA2904A5D381
:101EE000D103080F5C2E99CBAA4B3A6573C95C28C5
:101EF0000A4D080FBC54B9AFAF52AA7E771255A154
:101F000009080F74AE56D22957EAAAAE5C25B7E984
:101F1000D007232770E69C73DBAD5A56B25AB5BA88
:101F200064E52AA54AA99295ADD5BD6A59C9724AF8
:101F30006EB7CE39243276AE4FAD5CCAA55CAABE70
:101F40005556C96D7A9B4E6FD35B65D3F7A5EA945E
:101F50004BA9953C752E9D978ADE29A674AE5CCA66
:101F6000A99CCAA93A5547E45CBA929DEB5C25D37B
:101F7000B5AB64EDD2EEE4A99CCAA99CCAA5CAD5AA
:101F80008C6A9D97CA7EEAAAD5C9CAB5F3EAAAABFC
:101F9000AE4A49DDAEBEEABADCA5AA5EB5ABDCE569
:101FA000AE5D9D6BABAA5257FD957F77E53A59FD23
:101FB000A9ED1245E9ED76BBDD86F6F476BBDD6E64
:101FC0004313232770E69C73CE39E7D2E974684B3C
:101FD000A7D369E79C73CE39E79008E54945EF142C
:101FE000A4A7D679A9EC763B1AD3E9D0964E87C53B
:101FF000ED7689A2F476BBDD6E437B7ABBDD6EB7EE
:10200000A1092044414D4147452100594F552054D5
:10201000414B450A002527A0A17476BBDD6EA7CBF6
:102020006E97CA39E59453CE29E5B6D95C7689C155
:10203000EC5239E79453CE29A79C5372E5AEAE4BD0
:10204000A9DAD5AE76B5BA579D4B2B2A395976F910
:10205000A9FED47649B754CE29A7DC72A994534E71
:1020600039E79453CE29A73491D5E94A56B29295CF
:102070004CA7D36D4BEF9473CBE5CE2919AD5452D9
:10208000DD5239A79C53729B0E656E9B4C2E97CBED
:102090009D534E39A79C5372BB0DFA4AA7D3E9A0B2
:1020A000252527A0A17476BBDD6EA7CB6E97CA3914
:1020B00025B7E9D8B34B0C6697CA39E794DC063FDD
:1020C00065B7DB25DD5239A7E448CB6E974AA7D325
:1020D000E9D09CDD3925A3954A2AA9A492CA3925BD
:1020E000B7E950E6B66129BB545239A7E4761BF430
:1020F000954EA7D3414B0A41545441434B532100C1
:102100000C11FF01010161C1E171391901FFFF00EB
:102110000686C1E0E1C1800000FF0101010101016B
:1021200001010101010120202020204152540A20F8
:102130002020435952494C0A47554943484152448B
:1021400000434F44450A53494D4F4E0A484F4C4DAA
:10215000455300253F2B59C94A56B29295AC642588
:102160002B59C94A56B27297AAEAAE4AD5ABCE7578
:10217000AE94B397BB5C252BD929E5AADC95AC645A
:10218000252B59C94A56B29295AC70984DADAA53B9
:10219000D5A95C3ADD29E5E35352EB9667C3523685
:1021A0001FBEF3CAABB295CF2A55A92E9B4EE73A74
:1021B00095EE5CAFDAD5ABD4CA65B339B572A1314F
:1021C000BDAD64E752A954EF2E9DCE66775CD9521F
:1021D000FEB25B6553A9CE75AE939D224CA7D3B9D1
:1021E0004BF52AD5B94A6EA3742ADBEA56A52E37D9
:1021F00099EBFEFFAD3D9D54F64F7D4A524925D5E2
:10220000FFBF748ECB39E794546CCEA952AB5EF508
:102210002ECFE5755AAA2D916EBBD5443A9D6EBB63
:10222000B6443ADD76ABD3443A2D559A48A76F258C
:102230009554447C9E898DC97AEFF9F8F8086D9E13
:10224000892D4D48E7BDF7DE13B989B8AA5495AA80
:102250004A7DB9735DDDB92B59B2EAABACDDFEBF87
:10226000B6DB739DB6A73E9DB5DBB7CB9255B2DC0E
:10227000D575EACB9DFAAAAA5255B20A03051F0EDC
:1022800004713798EDB673E98A301B6384A9543A18
:10229000BDFD2A752B55CED97564CA39E75CBC4A99
:1022A0002AA9A4924A2AA9A4B2DB5DED3AD7B9EDD6
:1022B0005649E7948C31A99CB3736E9D732E5E25AD
:1022C00095545249259554524965B7BB4E6DD3E993
:1022D00052AA942AA54AA9747A9B4AF59FFA7F9537
:1022E000FA94B2EBADDA6ED3E97425D3A954253B49
:1022F000B5AE54322A3BAE78436E9CCBA5724A6E83
:10230000D3B94E77EE757CFC3A9DDD2AC79C558A81
:1023100072B973DB28974AC79456D249B98E8F9FFA
:102320002BAD6AE2A48C975FEDE4D44BA76CA44B71
:1023300034C51C71544BE594730A4F4A5DDB5BF561
:102340002A9DDEFE4AC9DB6D6BB7ADDDB6762FF395
:10235000CBBC52BA92D5AE64A5542D2BBB6BD7AB78
:10236000542A9DEA55AF7A554A9552A5945452493C
:1023700025D5A9539FFA5CB7BADCE52E77B94BA7F0
:10238000EEED36956A7557E9AC74EE569F7AA9A4BE
:10239000924AAA522AF5B94E7DAF4A29A952A954A8
:1023A0002A954AA5A4924AAA52AA57A954AF4AA963
:1023B000524A2AA9A44AA552A9542A954AA552A923
:1023C000D4A73E77B94B6ED7975BC7C79F5652C904
:1023D000CB5DEE72955DE6B3D94A6E2BB9ADE4B62E
:1023E000B2F96CD629994E3B974A292727CAB6AC31
:1023F0005C2DCB662B9BAD6CCBCAD5B26CB6B22D27
:102400009D2AE5E425F7D9F85EA7535FD7CE65B7D7
:10241000EB529F55A72EA74AB95297AD6CB6CAD5B5
:10242000B272F557ADFA2B9BAD6CCBCAD5B25AF54B
:1024300057A953AE56E554D96C65B395CD56365B66
:10244000D96C3E9BDD66B74B2595E354928E309553
:102450004AA79395EB74ACD1C7EB9C5476BD55520B
:10246000492595DCC66BD769E9EC76BB644A27A998
:1024700099AD92CE39E9A45BC7C7C72B974A2AA763
:1024800096CAB9D9795BDDEA56DBF97899964EE9B7
:10249000CE2A2727940A4721287CA5D25BB5B6DB34
:1024A000E425B795AB4A39D7ABCE49259554F2729E
:1024B0004A4AE59C54576DB74BE59CBA753A9D4E18
:1024C0002BE99C5452D9ED76BBDD6EB7DBA592CAE1
:1024D0006EB7DBED76BB54CE4965B7DBED76BBDD81
:1024E0006EB7DBA5924A2AE79494CA6EB7DBED7605
:1024F000BBDD6ED3E9743A9D4EA7D3E9746CD995D0
:10250000545249E59C2A2595549773CEB9CB29ABF3
:102510005C259D734EC94A2AB2747ABBDD6ED3E145
:10252000DD6EEF9C9393D9AD4E67974A39A54A2A41
:10253000AB54AA9595CEA9E510D14EAAEF558C764D
:102540007B5ABA5BC764B777752E26BB3D95924E12
:1025500071D92D533A6DB7A7F35B79293B0C044E23
:102560004F20494E560A534C4F545321005350416B
:1025700043450A4F43435550494544210008081E2E
:102580001E1E3F7FDF15140808787878FCFEFBA834
:102590002806075476A99C93CAAE733C376A9BDC25
:1025A000C62C553A9D4EA7D3E9743A9D4EA7D392B7
:1025B0004AAA743A9D4EA7D3E9743A9D4EA7259531
:1025C00054E9743A9D4EA7D3E9743A9D4E4BBC7AB8
:1025D000FE5CAA93DB65A77261C87BCF9F4B7572C7
:1025E000BBEC542E0C79EFF973A94E6E979DCA85FA
:1025F000218F57A5D3E974BADC95AC64BADC952C6D
:1026000077BADC955239AF52AA2A55F5E972A7CBB1
:102610009D2E7725CB5DC972A74B5749ADCB5D95F4
:10262000AAEB74B9D3E974B9AB52954C975255A53E
:10263000AAD19CCD56F2D2E9E8D2E9E8A28B2EA924
:102640006425D395AC6425D3954C57325DC9742568
:10265000D38A4CC94A56325DC94A56325DC94A5678
:10266000325DC94A5672DCAD4A2D9D72A55CE522E9
:10267000CE2A1B323D8AF29DDC2E3B158EBCF728FC
:10268000CA7772BBEC5438F288932AF7B52BA56A47
:10269000953BC99A5536545A9D4EA76B97AE64BA6E
:1026A000929DAB64252B992E5D5AEB4A56B2929DB2
:1026B000AB64252B99AE5D252B99AE64E9C2D52577
:1026C000F3EB7D3668CAE99CD339C7E564A5E372AC
:1026D00032EBB89CCCCEE674CE71392EC775C94AA0
:1026E0002A5C0147415445204C4F434B530A424515
:1026F00048494E4420594F552100080B0002020260
:10270000000009040000010202000005240010017D
:102710000524010101042402060524060001070521
:10272000810310004009040100020A0000000705AF
:102730000202400000070583024000000403090470
:1027400012010002EF020140412336800001010224
:10275000030141726475696E6F204C4C4300414225
:102760004131313036000A000C11FF0101FDFD0D31
:102770000DFDFD0101FFFF00008FCFE0E0CF8F00D6
:1027800000FF010101010101010101010101FF013E
:1027900001FDFDCDCDCD0D0101FFFF00008FCFEC80
:1027A000ECCC8C0000FF01010101010101010101DC
:1027B0000101FF0101FDFDCDCDCDCD0101FFFF00E8
:1027C000008CCCECECCF8F0000FF01010101010176
:1027D000010101010101FF0101FDFD81C1FDFD01BB
:1027E00001FFFF00008FCFE7E3CF8F0000FF010163
:1027F0000101010101010101010120412053574F55
:102800005244004120534849454C44004120534321
:10281000524F4C4C00485020504F54494F4E00539B
:102820004F4D45204B45595300594F5520464F5564
:102830004E440008080AF403808003F40A101002D2
:10284000050A050201080000080102050A0502AA9E
:10285000550A000000000000000000000A55AA3FD1
:1028600020007F7F7F7F7F7F7F7F7F7F7F7F7F7F56
:10287000007F7F7F7F7F7F7F7F7F7F7F7F7F7F7FE7
:10288000007F7F7F7F7F7F7F7F7F7F7F7F7F7F7FD7
:10289000007F7F7F7F7F7F7F7F7F7F7F7F7F7F0046
:1028A00000BFBFBFBFBFBFBF80BFBFBFBFBFBF00F5
:1028B000BFBFBFBFBFBFBF80BFBFBFBFBFBFBF3FE7
:1028C000BFBFBFBFBFBFBFBF80BFBFBFBFBFBF0016
:1028D000BFBFBFBFBFBFBF80BFBFBFBFBFBF0000C5
:1028E000DFDFDFDFDFDFDF1FDFDFDFDFDFDF00DF97
:1028F000DFDFDFDFDFDF1FDFDFDFDFDFDFDFC0DFC7
:10290000DFDFDFDFDFDFDF1FDFDFDFDFDFDF00DF76
:10291000DFDFDFDFDFDF1FDFDFDFDFDFDF00000F15
:102920000F0F0F0F0F0F000F0F0F0F0F0F000F0FD5
:102930000F0F0F0F0F000F0F0F0F0F0F0F5F8F0FE6
:102940008F0F8F0F8F0FA04F0F0F0F0F0F000F0F55
:102950000F0F0F0F0F000F0F0F0F0F0F00392789E9
:10296000CE55729B4EA7D3E9743A9D4EA7D3E97416
:102970003A9D4EA7D3E9747A5BC9CE11E9743A9DAA
:102980004EA7D3E9743A9D4EA7D3E9743A9DB62A6F
:1029900095EB64F5AF5254F09C87CFF8E0390F9F68
:1029A000F1C1731E3E63739DACEC3A9D4EA7D3E913
:1029B000743A9D4EA7D3E9743A9D4EA7D3E9ECB281
:1029C00072DD56A7D3E9743A9D4EA7D3E9743A9DB8
:1029D0004EA7D3E9743A9D4EA7DB0E0A585020202B
:1029E000000A44462020000A415020200048502080
:1029F0002000040409060609040406090906FF81EB
:102A0000ED05F595D505DD85B1A5ED017F7F405E2E
:102A1000525A4A6A026E425E5455457F7F55057D83
:102A2000415D15545751DD05FD017F7F415D5750D4
:102A3000555D017F405F505E427FFF01DD515515BE
:102A40005754D515F585ED21FF7F40565454505409
:102A5000145654565256407FFF09ED21ADA5B7A03C
:102A6000BFA52DA5AD81FF7F405F505B407E026A10
:102A70004B58535E407F7F01FD416D496F21ADA5ED
:102A80008FA5BD81FF7F415D515D4475155554563D
:102A9000525A407F7F455551DD45751175057515B5
:102AA000FD017F7F415D505B416D016D415F407B6A
:102AB000417FFF01D755DD01FF81BD25ED813DA19E
:102AC000FF7F405F427A426E086B42486F404A7F08
:102AD000FF01EF89B9A1A181A1A1B989EF01FF7F10
:102AE000405E425A4A7803784A5A425E407FFF81EC
:102AF000FD05EDA9ABA0BF81ED05FD01FF7F405AAB
:102B0000525A527E0276525A425B487F7F41DD45DF
:102B10005D511754D595B5A5AD81FF7F405F415BF1
:102B2000497B425A5278525E407FFF41557505D528
:102B30007D04DF01F515DD417F7F445F55505B402B
:102B40007F415C47505F407FFF01FD05DD55550427
:102B5000F711515515457F7F4076445D417F0477DD
:102B60004451555C417F7F417D05DD51555555D51B
:102B7000555575057F7F405F515D405F515D4555FF
:102B8000515F407F7F21BD85B185FD0077C515551B
:102B9000DD417F7F415F405E525650554557547727
:102BA000407F0102040810204080F22711241FBE3C
:102BB000CFEFDAE0DEBFCDBF11E0A0E0B1E0E0E8AA
:102BC000F6E602C005900D92AA3FB107D9F728E0BA
:102BD000AAEFB1E001C01D92A331B207E1F715E100
:102BE000C6EDD5E104C02197FE010E943833C53DF2
:102BF000D107C9F70E9428280C943E330C9400009A
:102C000080389105B0F46034710598F4E2EAFBE293
:102C100090E1969FD001A0781124A80F6770E60F6D
:102C2000F11D9491AD5CBD4F442321F08C91982B04
:102C30009C93089590958C919823FACFDF92EF9210
:102C4000FF920F931F93CF93DF937C01D22E8B01C2
:102C5000040F111DEB0177FF02C0D0E0C0E0C801F6
:102C60000134110514F080E490E0C817D9073CF452
:102C70004D2DBE01C7010E9400162196F0CFDF91B5
:102C8000CF911F910F91FF90EF90DF9008952F92B9
:102C90003F924F925F926F927F928F929F92AF92EC
:102CA000BF92CF92DF92EF92FF920F931F93CF9339
:102CB000DF9300D000D000D0CDB7DEB77A83698330
:102CC000602E4115510509F433C1FA017491319612
:102CD000A4914E5F5F4FE72EF12C222311F1E1E02A
:102CE000F0E03A2F377011F4F0E0E0E00A2F06959B
:102CF000069506950E0F1F2F111D0E9DF0010F9DBD
:102D0000F00D1E9DF00D112413E0C12E6C1002C0B9
:102D1000EE0FFF1F2E9F80012F9F100D1124400FDB
:102D2000511FE80EF91E1E141F040CF001C180385B
:102D300091050CF0FDC029813A812A0F311D121630
:102D400013060CF0F5C029813A81203431050CF0CE
:102D5000EFC04115510509F4EBC037FF03C03195B1
:102D600021953109122F177029813A8137FF02C04E
:102D7000295F3F4FE3E035952795EA95E1F7F22F7C
:102D8000C980DA80D7FE07C0112329F0FFEFF20FC8
:102D900028E0211B122F22273327281B390B97FDF0
:102DA00002C030E020E060E8762E781A60E8E6168F
:102DB000F1040CF4772E721AAF2E0F2E000CBB0804
:102DC000DA2CD094FF3F0CF0D12CE1E06A2F677031
:102DD00009F4E0E0A695A695A695EA0FAE0EB11C03
:102DE000A9E0AA16B10414F0E8E0EF1B0D2D0F0FB7
:102DF00060E80603700111248E0D9F1D820F931F42
:102E0000E12E012E000CFF08A3E062E06A1261E0EF
:102E10007D9D200D311D1124629F202D112430E055
:102E20006A01C20ED31EDE82CD82C62ED12C2C0D9D
:102E30003D1D21503109240F351FAFEFB0E00E2C9E
:102E400002C0AA0FBB1F0A94E2F71D012094309420
:102E50004E2E4F0E7719769F402D1124769EB0018D
:102E60001124DB01A40FB11DBA83A983401609F414
:102E70005FC0DC01AD5CBD4FB12CA12C512C751491
:102E800009F448C0ED81FE81EA0DFB1D649170E0FC
:102E90000E2C02C0660F771F0A94E2F7E2E06E166E
:102EA000B1F1FBEF6F1222C0AB01409550955C83EE
:102EB0004B8370E060E007FD05C09C905B8195222C
:102EC000962A9C92112369F007305CF44D01E0E8EA
:102ED0008E0E911CF4016081FC816F23672BF4013D
:102EE00060835394AC0CBD1C1196C9CFF901EA0D57
:102EF000FB1DE491F0E00E2C02C0EE0FFF1F0A94C0
:102F0000E2F7AF01409550955C834B83D4CF3C8270
:102F10002B82D1CF0F5F4D815E8169817A81460F0F
:102F2000571F5E834D83260F371F80589F4F9ECFBC
:102F300026960FB6F894DEBF0FBECDBFDF91CF91BE
:102F40001F910F91FF90EF90DF90CF90BF90AF90C7
:102F50009F908F907F906F905F904F903F902F90B9
:102F600008950F9302E020E00E9447160F91089504
:102F700080918A0681110AC080918B0680938A060F
:102F800080918C0680938B0610928C0680918B0624
:102F9000811106C080918C0680938B0610928C065E
:102FA0000895A62FE091AD06F091AE069F01285E30
:102FB0003F4F608151819281411102C097FF07C04C
:102FC000861305C0A51303C0892F8F770895339604
:102FD000E217F30771F7882309F452C0AA2309F412
:102FE0004FC0B09193063FE0B39FA0011124415020
:102FF00051098417150609F443C040919406439F74
:10300000A001112441505109A417150609F438C034
:10301000632F0E942C33292FE0918F06F0919006A8
:10302000E80FF11D8A2F0E942C33492FBF018B9F7F
:10303000600D711D1124E091AF06F091B006E60F0E
:10304000F71F8491942F969596959695E22FF0E030
:10305000939FE00DF11D11247EE1879FE00DF11D8E
:103060001124E250F64DE491477081E090E001C0F8
:10307000880F4A95EAF7E82381E019F480E0089583
:1030800081E00895EF92FF920F931F93CF93DF9308
:103090007C018B01EA0140E06C2F802F0E94D11748
:1030A000811141C0E091AD06F091AE069F01285E0E
:1030B0003F4F828187FF0CC08F778456823040F467
:1030C00080818017110621F481818C171D0671F112
:1030D00033962E173F0769F7E3EBF6E085E897E0B4
:1030E000268127FF08C020812017110621F42181A5
:1030F0002C171D06D9F037968E179F0789F7E11414
:10310000F104F1F0F701808180171106C9F4918173
:1031100081E09C171D0651F0DF91CF911F910F9117
:10312000FF90EF900895E114F10411F480E0F4CFE2
:1031300040E06C2F802F0E94D1178636B9F7B2CFAE
:1031400081E0EACFE1E0F0E00E94B718319728F083
:1031500068517C4F8F4F9F4FF9CFAB01FC010E940C
:10316000B718641775078E079F07C8F30895AAE07C
:10317000B2E02FB7F8947D918D919C9166B52FBFE9
:10318000A89B05C06F3F18F47F5F8F4F9F4F22E0D1
:10319000660F771F881F991F2A95D1F70895FC01A4
:1031A00080912F02882311F13FB7F89482E0809339
:1031B000E9002091F200822F90E01816190614F40D
:1031C00081E090E0882339F0289844E640932E026D
:1031D0004091F1004083222339F02091F200211127
:1031E00003C02BE62093E8003FBF08958FEF9FEFC9
:1031F00008952FB7F89483E08093E9009091E80058
:10320000892F807295FF04C09091F20080E4891BA1
:103210002FBF08958091260281110DC082E0809316
:10322000220284E08093230210922502109224024D
:1032300081E08093260282E292E008958F929F922D
:10324000AF92BF92CF92DF92EF92FF920F931F93B4
:10325000CF93DF936C017B018A0180910C0188235D
:1032600009F458C080912F02882309F453C080913B
:10327000210280FF05C08091E00082608093E00021
:10328000E801B12C8AEFA82E93E0892E2AE3922E32
:10329000209711F4BB20B9F10E94F918811106C0E2
:1032A000AA94AA20B9F10E94A218F2CF8C171D0689
:1032B00011F00CF08C2F9FB7F8948092E9002091C8
:1032C000E80025FD02C09FBFE3CF282F30E0C21BDE
:1032D000D30BF701815020F041914093F100FACFD8
:1032E000E20EF31EBB2021F09092E800B12CEBCF50
:1032F0008091E80085FDE7CF9092E800BB24B3946D
:10330000209709F3F3CF5D9884E68093200210168E
:1033100011063CF081E090E0F6019383828310E097
:1033200000E0C801DF91CF911F910F91FF90EF90C6
:10333000DF90CF90BF90AF909F908F900895CF93E4
:10334000DF931F92CDB7DEB76983DC01ED91FC916D
:103350000280F381E02D41E050E0BE016F5F7F4FBE
:1033600009950F90DF91CF91089583E08093E90054
:103370008091F200882319F08AE38093E800089591
:103380000E94F91890E00895CF93DF931F92CDB774
:10339000DEB7FC018485958597FD08C02FEF3FEFD0
:1033A000358724870F90DF91CF910895CE01019644
:1033B0000E94CF18019719F4898190E0F3CF8FEF25
:1033C0009FEFF0CF0F931F93CF93DF931F92CDB753
:1033D000DEB78C01FC018485958597FF0BC0CE017B
:1033E00001960E94CF18019771F4898190E0F8014D
:1033F00095878487F801848595850F90DF91CF911B
:103400001F910F9108958FEF9FEFF1CFFC018485FD
:10341000958597FD0BC09FB7F89482E08093E900F3
:103420008091F2009FBF90E0019608959FB7F894B5
:1034300082E08093E9008091F2009FBF90E00895C0
:1034400040911C0250911D0220911A0230911B02E2
:1034500042175307B4F49091E8009570E1F390910E
:10346000E80092FD19C08093F10080911C029091B8
:103470001D0201968F739927892B19F48EEF809383
:10348000E80080911C0290911D02019690931D020C
:1034900080931C0281E0089580E00895DF92EF920E
:1034A000FF920F931F93CF93DF93D82E8A01EB01E6
:1034B0007B01E40EF51ECE15DF0559F0D7FE12C0D4
:1034C000FE0184910E94201A21968111F4CF0FEF02
:1034D0001FEFC801DF91CF911F910F91FF90EF90E7
:1034E000DF9008958881EECF0F931F93CF93DF93E2
:1034F0001F92CDB7DEB782E0898342E450E06AEFE5
:1035000076E280E80E944E1A0E940A19DC011296A7
:103510000D911C910115110589F0D801ED91FC91D7
:103520000280F381E02DBE016F5F7F4FC8010995D6
:1035300097FD04C0F80100851185ECCF89810F90BB
:10354000DF91CF911F910F910895615030F020913C
:10355000F100FC0120830196F8CF289884E680933F
:103560002E020895AF92BF92CF92DF92EF92FF9218
:103570000F931F93CF93DF936C017B018B01040F9B
:10358000151FEB015E01AE18BF08C017D10759F037
:103590006991D601ED91FC910190F081E02DC60179
:1035A0000995892B79F7C501DF91CF911F910F9173
:1035B000FF90EF90DF90CF90BF90AF900895AB0158
:1035C000FC010E94B71841505109E109F10928F0A6
:1035D00068517C4F8F4F9F4FF6CFAB01FC010E948B
:1035E000B718641775078E079F07C8F3089565E03D
:1035F00070E080E090E00C94DF1A0F930AEF0E94D5
:1036000047160F9108952091850648E657E26BE230
:1036100070E082E490E00C94FD1A0F93CF93DF9357
:10362000EC019E816A3059F48D818C836985960FF7
:103630009E8381E090E0DF91CF910F910895262F36
:103640006A3360F4603300F5613201F16E32D1F01B
:1036500098859D5F8C81890F8C83EBCF21542A3113
:10366000B8F761E0690F062E000C770B8C81082EED
:10367000000C990B3F81313059F447E954E10E9425
:10368000FD1AE6CF25E2EDCF2651EBCF24E2E9CFBC
:103690000BEF47E954E10E944716DACF0F931F93CF
:1036A000CF93DF938C01D0E0C0E0F801EC0FFD1F59
:1036B0006491662341F087EF97E00E940D1B892BF0
:1036C00011F02196F2CFCE01DF91CF911F910F9192
:1036D00008954FB18CB123B190E08095909533E07F
:1036E000959587953A95E1F7887030E0209530956B
:1036F00035952795359527952470822B942F909595
:10370000907F892B089583B7817F83BF83B78160C2
:1037100083BF889583B78E7F83BF0895480F592F45
:10372000511D4138510514F040E850E0481BFB01A1
:1037300077FD379633E0F595E7953A95E1F7F695FD
:10374000FE2FEE27F795E795E80FF91FED5CFD4F8B
:103750006770772781E090E001C0880F6A95EAF7EB
:10376000382F213041F4415078F08191DF011197D9
:10377000832B8C93F8CF8095415030F09191DF01ED
:10378000119798239C93F8CF08951F93CF93DF93BD
:10379000DC0130E020E050E040E011E0C1E0D0E0AA
:1037A0002617370791F114968C911497811115C043
:1037B00014961C93149712968D919C911397ED91EA
:1037C000FC911197E80FF91FE4911596EC9315976A
:1037D000019613969C938E93129714969C9114972E
:1037E00015968C911597892349F0FE01022E02C08F
:1037F000EE0FFF1F0A94E2F74E2B5F2B990F1496E2
:103800009C9314972F5F3F4FCBCFCA01DF91CF918D
:103810001F9108952F923F924F925F926F927F92E5
:103820008F929F92AF92BF92CF92DF92EF92FF92D0
:103830000F931F93CF93DF93CDB7DEB72C970FB6BF
:10384000F894DEBF0FBECDBF5C017B012A875A838F
:1038500049831C821B821D821E8268E070E0CE01BB
:1038600001960E94C51B01969987888768E070E0E1
:10387000CE0101960E94C51B8C0161E070E0CE0173
:1038800001960E94C51B288539852A0D3B1D37FDF1
:10389000E3C020E8A216B1040CF0DEC098012F5F4F
:1038A0003F4FA9014E0D5F1D57FDD6C060E4E616DF
:1038B000F1040CF0D1C08701F7FE04C000271127E6
:1038C0000E191F09077011271701F7FE03C077E0D3
:1038D000270E311C53E0359427945A95E1F7F7FEF3
:1038E00009C091E0291A310848E050E0BA01601B94
:1038F000710B8B01390137FF03C077E0670E711C34
:1039000043E0759467944A95E1F727703327232B9A
:1039100019F09FEF691A790A482E21E02F83512C64
:10392000F12CE12CD12CC12C88E090E0BC01601B73
:10393000710B7C876B87C614D7040CF08DC088246C
:103940008394912C61E070E0CE0101960E94C51B2A
:10395000892B21F472E0870E911CF4CFB401CE01C3
:1039600001960E94C51B01964C0150E040E04815AD
:10397000590508F06AC0442011F08F81582A6F81E0
:10398000660F09F05CC091012C0D3D1DC901019627
:103990000997D8F5C7018A0D9B1D80389105A8F5B8
:1039A000D901B695BA2FAA27B795A795AA0DBB1D21
:1039B000AE0DBF1D2F3F320709F44AC0852D002EE2
:1039C00001C0880F0A94EAF7FD01ED5CFD4F70819C
:1039D0007F837A85772361F17F81872B808301152F
:1039E000110599F02730310581F0852D90E00B8489
:1039F00002C0959587950A94E2F7AD54BD4F5C904F
:103A00002A852223C9F085298C933FEFE31AF30A14
:103A100088859985E816F906ACF09FEFC91AD90A8E
:103A200021E02F83F12CE12C4F5F5F4F562E9FCF6B
:103A300080959F818923D2CF80958521E5CF6F83A3
:103A4000652DF2CF31E03F83EFCF61E0462673CFA3
:103A50000115110551F6D9CF2C960FB6F894DEBF9B
:103A60000FBECDBFDF91CF911F910F91FF90EF90CF
:103A7000DF90CF90BF90AF909F908F907F906F908E
:103A80005F904F903F902F9008950895089590E093
:103A900080E00895CF93DF93EC0181E0840F4C0F19
:103AA0005D2F511DFA014491DB0130E012969C918B
:103AB00012979F7712969C9312973417C8F4FE01C1
:103AC000E80FF11D9491E1E0E80FEC0FFD2FF11DDF
:103AD000E491EC93E2E0E80FEC0FFD2FF11D8D5F18
:103AE000E4911196EC931197906812969C9312971B
:103AF0003F5F13962313DACFDF91CF910895CF93D1
:103B0000DF93C3E8D6E084E18B8382E08C838D83EE
:103B10001F820E94B81718860E94B81719860E9443
:103B2000B81784E08A870E94B81785E08B870E94C7
:103B3000B81781E08093000110921902DF91CF91B4
:103B4000089597E0899FF0011124ED54F94F828187
:103B5000681718F4861B82830895128286818F77F6
:103B6000868308954BE854E170E060E090E080E0E7
:103B70000E94B11741E854E170E060E088E790E00E
:103B80000E94B11747E754E168E370E090E080E0FD
:103B90000E94B1174DE654E168E370E088E790E0D9
:103BA0000E94B11721E040E770E060E088E090E01B
:103BB0000E948E1B21E040E762E070E088E090E028
:103BC0000E948E1B21E040E76DE370E088E090E00A
:103BD0000E948E1B21E040E76FE370E088E090E0F8
:103BE0000E948E1B21E040E368E070E090E080E0FE
:103BF0000E941E1621E040E368E070E082E090E061
:103C00000E941E1621E040E368E070E08DE790E03E
:103C10000E941E1621E040E368E070E08FE790E02C
:103C20000C941E16CF93DF93EC014BE050E0BC01E7
:103C300085E996E00E94C032BE01655F7F4F4BE090
:103C400050E081EA96E00E94C032FE017696E4914F
:103C5000E0938306FE017796E491E0938406FE01EB
:103C60007896E491E0938506FE017996E491E093DD
:103C70009306FE017A96E491E0939406FE017B960A
:103C80007491A3EBB6E04CE160E016968C91169728
:103C90008F7790E0671708F490E8892B16968C933D
:103CA0001697582F551F5527551F09F444C0FE017C
:103CB000E40FF11D9491807C892BE1E0E40FEC0F7F
:103CC000FD2FF11DE491EC93E2E0E40FEC0FFD2FEA
:103CD000F11D4D5FE4911196EC931197992309F42E
:103CE00057C0913009F458C0923009F45AC093304B
:103CF00009F45BC050E0943009F45BC0953009F4DE
:103D00005CC0963009F05DC026E033E095E0129685
:103D10009C93129713969C93139714963C93149725
:103D200015962C9315978F7B90E0511190E4892B79
:103D300016968C9316976F5F17966E3109F0A5CF84
:103D40002EE16DE977E0CE010E944A1D28E0482F60
:103D500065E877E0CE010E944A1DD093B006C0937B
:103D6000AF0625E837E03093AE062093AD0690E02D
:103D7000B0E0A0E080938F0690939006A093910608
:103D8000B093920684E080933202DF91CF91089540
:103D900024E13AE09FE0BBCF50E02AE035E09AE032
:103DA000B6CF28E035E098E0B2CF2CE036E09CE0DA
:103DB000AECF22E33CE099E1AACF23E032E094E0E9
:103DC000A6CF20E030E090E0A2CFCF92DF92EF923A
:103DD000FF920F931F93CF93DF93CDB7DEB7A197D9
:103DE0000FB6F894DEBF0FBECDBF282F30E050E0F5
:103DF00040E019A28E010F5D1F4F8AE0C82ED12C22
:103E0000E12CF12CCA01B901A70196010E94FB32F5
:103E1000605DF80162938F0121153105410551055F
:103E200089F790E080E0309761F001900020E9F799
:103E30003197AF01401B510BB80187EF97E00E940B
:103E4000B21AA1960FB6F894DEBF0FBECDBFDF91B8
:103E5000CF911F910F91FF90EF90DF90CF90089539
:103E6000CF93C62F0E944E1BCA3020F485E994E1FF
:103E70000E944E1B8C2FCF910C94E51E2F923F92E7
:103E80004F925F926F927F928F929F92AF92BF926A
:103E9000CF92DF92EF92FF920F931F93CF93DF9316
:103EA00000D01F92CDB7DEB720918406822F8350B9
:103EB000990B9B838A83312C85E0282E9FE0492E25
:103EC0008091840690E00396EA81FB818E179F071C
:103ED0000CF4B3C0009183060250110B329C3001E8
:103EE00011245301F6E0AF0EB11C27E0620E711CE5
:103EF000512C8091830690E00296801791070CF474
:103F000095C080919306849DC0011124081719075C
:103F100008F067C080919406849DC0011124EA8155
:103F2000FB81E817F90708F05CC0F4E05F1203C0FA
:103F3000332009F456C040E06A81802F0E94D117D7
:103F40008983813009F44DC0E3EBF6E0868187FF79
:103F50000AC080818017110631F481812A813B815A
:103F60008217130699F1379685E897E08E179F0719
:103F700069F7EDE9F7E0828187FF0AC08081801749
:103F8000110631F481812A813B818217130669F180
:103F9000339687EF97E08E179F0769F7529C700161
:103FA0001124670192E6C90ED11C4701E6E68E0E88
:103FB000911CC814D90401F121E044E0B501C60107
:103FC0000E941E16FFEFCF1ADF0AF3CF529CC001EA
:103FD000112420E048EF59E2B5018E599F4F0E940D
:103FE000FD1A53940F5F1F4F84CF529CC0011124C0
:103FF00020E042EF59E2F0CF2981263681F058F4D3
:10400000243678F320E042E0B301C7018D599F4F79
:104010000E941E16E6CF3981373619F7F3CF20E01C
:1040200042E0B301C7018C599F4FF2CF33948A818C
:104030009B8101969B838A8343CF80918506843040
:1040400008F05EC090E0FC01EE52FE4F008182530A
:104050009E4FFC01F081F9833981232F30E03B83AF
:104060002A83B9016A5F7F4F10E00E591F4F6034F9
:1040700071052CF420E042E0C8010E948E1B6A8189
:104080007B81695F7F4F603471052CF420E042E052
:10409000C8010E948E1B86E48093FC078093FB0777
:1040A00088E08093FD07609186068DEE99E20E947C
:1040B000301F6091880687EE99E20E94301F609160
:1040C000870681EE99E20E94301F609189068BED90
:1040D00099E20F900F900F90DF91CF911F910F9168
:1040E000FF90EF90DF90CF90BF90AF909F908F9018
:1040F0007F906F905F904F903F902F900C94301F67
:10410000198200E0A9CF2F923F924F925F926F9257
:104110007F928F929F92AF92BF92CF92DF92EF9257
:10412000FF920F931F93CF93DF9300D000D000D066
:104130001F92CDB7DEB7209183062F83309184067E
:104140003E8380918506813009F45BC208F4F2C198
:10415000823009F414C2833009F42EC2E12C612CA0
:10416000F12C812CD12C1B82712C512C00E01A8255
:10417000B12C1982412C212C312C10E0A12C0E9451
:10418000B21D21E04DE559E264E070E082E490E088
:104190000E940A1C40EC52E164E070E084E090E090
:1041A0000E94B117AA2009F446C06E816B0D40E051
:1041B0008F81820D0E94D1178823E9F18456912CBA
:1041C000C12C212C843068F490E0FC01E256FE4FB3
:1041D0002080FC01E656FE4FC0808A569E4FDC01CF
:1041E0009C9084E0A82EB12CBA2DB170BC831D82A6
:1041F0006C817D81615E7F4F41E0C5010E940016A8
:10420000EFEFAE1ABE0AF1E4AF16B10469F712146B
:1042100094F4E22DEE0FFF0BEE55FE4F40815181DD
:10422000692D990C770B6C5F7F4F8C2DCC0C990B03
:1042300003960E94B1171111FEC110E06B81BE817F
:104240006B0F40E08F81800F0E94D117813009F001
:1042500052C240E15FE062E170E084E090E00E94E1
:10426000B1176E81600F40E08F81870D0E94D117DA
:1042700042EB5EE062E170E0813041F0843611F0A3
:10428000873641F446E65EE063E170E08AE290E062
:104290000E94B11740E06E81680D8F818F0D0E94E2
:1042A000D117D82E8823A9F1E5E6F5E1BF2EA6E1C6
:1042B000CA2E03E08E1789F0E81708F428C2F1E04F
:1042C0006EE0B62EC12C01E08F1739F024E682177C
:1042D00009F429C2B12CC12C0FEF4FE558E262E17D
:1042E00070E083E090E00E94B1170F3F91F0E02F63
:1042F000EE0FFF0BEE55FE4F408151816B2DBB0C35
:10430000770B6C5F7F4F8C2DCC0C990B03960E9422
:10431000B1176E816E0D40E08F81880D0E94D1171C
:1043200043E551E1813031F0843611F0873641F4B4
:1043300044E850E164E070E083E090E00E94B1174F
:104340006E816F0D40E08F81860D0E94D117813004
:1043500009F0EFC148EE50E164E070E083E390E0E3
:104360000E94B117D1103BC08091850653EB852E7A
:1043700056E0952E45E857E0F401282F30E0B901CA
:104380006A577E4F9F81E92EF12C2E573E4FAE810A
:10439000CA2ED12C968197FFD8C10081DB019C9158
:1043A000990F5701A90EB11C97FDBA940A151B0469
:1043B00009F0CBC10181D9019C91990F5601A90E39
:1043C000B11C97FDBA940A151B0409F0BEC14DE358
:1043D00058E269E170E08BE190E00E94B117A3EB35
:1043E000B6E04DE9A42E47E0B42ED12CEF812E2F5C
:1043F00030E0FE814F2F50E01696FC911697F7FFA4
:1044000027C2609183068C91681B770B009184060C
:1044100011968C911197081B110B09F016C27B01A4
:1044200077FF04C0EE24FF24E61AF70A91E0EA942D
:10443000EF2809F090E06115710559F4780117FF34
:1044400004C0EE24FF24E01AF10AE1E0EA94EF2828
:1044500009F0E0E09E1709F4FBC183E01616170689
:104460000CF4C0C181E0672B09F0BCC11016110625
:104470000CF0B4C110928506FF73F98385E00BE060
:10448000F130B1F08AE008E0F23091F083E000E131
:10449000F33071F085E003E0F43051F080E107E1A2
:1044A000F53031F085E006E0F63011F486E10DE0FC
:1044B000B981AB2FB0E0E82EF12C10E0AA0FBB1FA2
:1044C000BD83AC83FD01EC58FE4F4081518120E05B
:1044D000B701C8010E940A1CEC81FD81EA59FE4F18
:1044E0004081518121E0B701C8010E940A1C8091DE
:1044F0003202843019F489E080933202D092310282
:1045000027960FB6F894DEBF0FBECDBFDF91CF91D7
:104510001F910F91FF90EF90DF90CF90BF90AF90E1
:104520009F908F907F906F905F904F903F902F90D3
:104530000C943E1FAA24A3946E81633008F4A12C2E
:1045400011E08E81823008F410E0E12C662463943F
:10455000F12C88248A94BEEFDB2E9FEF9B83772477
:104560007394512C0FEFAEEFAA838DEFB82EBEEFF0
:10457000B98344244394212C33243A9400CEE12C73
:1045800066246A94F12C88248394F2E0DF2EE1E023
:10459000EB8377247A94512C01E0F2E0FA83A3E0D4
:1045A000BA2E22E0298344244A94212C33243394C4
:1045B00011E0AA24A394E3CDAA24A3943F8133302D
:1045C00008F4A12C11E06F81623008F410E0EE24B1
:1045D000E394612CFF24FA94812CD12C81E08B830D
:1045E00077247A945EEF552E0FEF9FEF9A83B12CCC
:1045F000A1E0A9836EEF462E7DEF272EEEEF3E2E33
:10460000BECDEE24EA94612CFF24F394812CD12CAE
:10461000BFEFBB837724739492E0592E01E0E1E071
:10462000EA83B12CFFEFF98322E0422E33E0232E00
:1046300042E0342EBDCF69812E81620F40E08F8130
:10464000830D0E94D117882341F045E15EE06BE1C4
:1046500070E084E090E00E94B1176A812E81620FC1
:1046600040E08F81840D0E94D117882341F04DEDE9
:104670005DE06BE170E086E290E00E94B1176E8130
:104680006D0D40E08F81850D0E94D117882309F4BC
:10469000D4CD8456B12CD12CC12C843070F4282F69
:1046A00030E0F901EE56FE4FC080F901E257FE4FAF
:1046B000D08026573E4FD901BC9044EA5FE06BE1C1
:1046C00070E084E090E00E94B1171C140CF0B6CDAD
:1046D000EC2DEE0FFF0BEE55FE4F408151816B2DFF
:1046E000BB0C770B6C5F7F4F8D2DDD0C990B039608
:1046F0000E94B117A3CD843619F0873609F0B1CDE9
:104700004CE85EE063E170E082E190E0A8CD36E63F
:1047100075E1B72EE6E1CE2E04E0831709F4DDCD76
:1047200067E68613D7CDBEE0BB2E0FE0C02E02E0B9
:10473000D4CD843619F0873609F014CE40E250E12A
:1047400064E070E084E390E00BCE37964E175F078D
:1047500009F020CE111143CE282F30E0B9016A575D
:104760007E4F8F81482F50E02E573E4F9E81092F5C
:1047700010E007C0B7E08B0E911CE815F90509F4AD
:104780002ECED40116968C91169787FFF3CFFC900E
:10479000DB018C91982F990F980FDA01A90FB11DA9
:1047A00097FDBA95FA161B0629F7D4011196FC90CD
:1047B000D9018C91982F990F980FD801A90FB11D8D
:1047C00097FDBA95FA161B06A9F643E358E26CE189
:1047D00070E08EE190E001CE90E030CE012B09F444
:1047E0004BCE82E08093850647CE24E12A8394E174
:1047F000F92E65C032E13A83FACFA981A430B1F035
:104800008AEF97E2A53009F0A1C021E12093FC07CF
:104810002093FB072EE22093FD070E944E1B96C0BB
:104820008FE198E2F2CF8CE098E2EFCF83E098E25C
:10483000ECCF85E198E2E9CFD3941796E3E0AE0E92
:10484000B11CFEE1DF12D8CD5BCE6115710521F2FE
:1048500080913202843011F0873071F7F5011281B6
:1048600017FFEACF8091850690E00081BC016A576E
:104870007E4FFB016081F901E60FF11D67FDFA959E
:104880000E171F06C9F6F50161818E579E4FFC0178
:104890008081FA01E80FF11D87FDFA956E171F065A
:1048A00059F61F771983113009F49FCF812F835058
:1048B000833008F49FCFF3E1FA8327E1F22E0EE074
:1048C00010E020E04BE26BE070E0C8010E941E1691
:1048D0000F5F1F4F07331105A1F70FE010E021E034
:1048E00049E26CE070E0C8010E941E160F5F1F4F86
:1048F00006331105A1F76981E62FF0E0EE0FFF1FE7
:10490000E65AFE4F408151818A81682F70E020E095
:104910008F2D90E00E940A1C1092FE0781E1809387
:10492000FC078093FB078CE08093FD0789E298E207
:104930000E944E1B9981933009F475CF08F05DCF2A
:10494000913009F46DCF923009F473CF81E08093F8
:10495000FE0787E080933202D0923002D1CD0097DB
:1049600069F0FC0101900020E9F73197AF01481B85
:10497000590BBC0187EF97E00C94B21A90E080E0ED
:104980000895E7EFF7E080E5858384838CE28683F2
:1049900085E996E00E94AF2486E697E20E944E1BCE
:1049A00081EA96E00C94AF241F920F920FB60F92FB
:1049B00011248F939F938091E1009091E100937F68
:1049C0009093E10083FF0FC01092E90091E0909373
:1049D000EB001092EC0092E39093ED0010922F0206
:1049E00098E09093F00082FF22C093E09093E9005A
:1049F0009091F200992319F09AE39093E800909136
:104A00002002992341F0909120029150909320022E
:104A1000911101C05D9A90912E02992341F09091DD
:104A20002E02915090932E02911101C0289A84FF7A
:104A300018C08091E2008E7E81608093E2008091B8
:104A4000E1008F7E8093E100809121028E7E806163
:104A5000809321029F918F910F900FBE0F901F9016
:104A6000189580FFF7CF8091E2008E7E8061809361
:104A7000E2008091E1008E7E8093E100809121022E
:104A80008E7E8160E5CF1F920F920FB60F92112498
:104A9000CF92DF92EF92FF920F931F932F933F934A
:104AA0004F935F936F937F938F939F93AF93BF9336
:104AB000EF93FF93CF93DF93CDB7DEB76C97DEBF55
:104AC000CDBF1092E9008091E80083FF25C068E027
:104AD000CE0145960E94A51A82EF8093E8008D8949
:104AE00087FF39C09091E80090FFFCCF982F907617
:104AF00009F034C19E894F89588D2F89F88C911106
:104B000031C0803861F580911F028093F1001092CE
:104B1000F1008EEF8093E8006C960FB6F894DEBF3C
:104B20000FBECDBFDF91CF91FF91EF91BF91AF91BC
:104B30009F918F917F916F915F914F913F912F91B5
:104B40001F910F91FF90EF90DF90CF900F900FBECD
:104B50000F901F9018959EEF9093E800C7CF10928A
:104B6000F100D5CF913059F48111D3CF41305105A7
:104B700081F680911F028D7F80931F02CACF9330F0
:104B800049F48111C6CF4130510519F680911F02B9
:104B90008260F2CF953041F48091E80080FFFCCF35
:104BA00020682093E300B5CF963009F0A9C00B8DA3
:104BB0001C8D22E01092E90010921D0210921C023E
:104BC000F2122EC010921B0210921A020E94741A46
:104BD0001F8299E09983FA8291E09E8390EA9887F8
:104BE0009AEF998720911C0230911D02275F3F4F59
:104BF0003C832B838D831092E90010921D0210924A
:104C00001C0210931B0200931A0249E050E0BE01FF
:104C10006F5F7F4F80E00E944E1A0E94741A79CF16
:104C200010931B0200931A020E940A19DC011296CB
:104C30000D911C910115110509F451C1D801ED9197
:104C4000FC910480F581E02DBE016B5E7F4FC801B1
:104C50000995009709F03EC1F80100851185EACF5A
:104C6000F3E0FF120EC08F89882309F440C0823020
:104C700061F440E867E08EE597E20E94BF2781116A
:104C800048CF81E28093EB0047CF813029F440E8A0
:104C90006BE082E597E2F1CF833099F70E940A1921
:104CA000DC011296ED90FC908E010F5F1F4F6801A2
:104CB000E114F10479F0D701ED91FC910680F781C0
:104CC000E02DB801C7010995080F111DF701E08417
:104CD000F184EECFD8011C92F60101900020E9F793
:104CE0003197BF016C197D0940E0C601C6CF6CE366
:104CF00077E2FB01449150E080E80E944E1A09CF10
:104D0000973009F4BECF983021F481E08093F10010
:104D100000CF993009F0FDCE837009F0B2CFE4E501
:104D2000F1E081E031E096E32191222371F080935C
:104D3000E9003093EB00DF0111972C912093EC00F8
:104D40009093ED008F5F873079F78EE78093EA00CC
:104D50001092EA008F8980932F02DBCE8B8D9C8D81
:104D60001092E90010921D0210921C0290931B02F7
:104D700080931A02898D811192C08E899D89913A02
:104D800049F4813209F07DCF47E050E065E071E001
:104D900080E0B3CF913209F074CF833269F48F8908
:104DA000988DB0E0A0E08093010190930201A09360
:104DB0000301B0930401ADCE803269F48091E80024
:104DC00082FFFCCF67E085E091E00E94A51A8BEF9F
:104DD0008093E8009ECE823209F09BCE8F8980932B
:104DE0000C01EEEFFFE7859194918B3F9C4D51F1C3
:104DF000E0E0F8E08091050190910601A0910701A3
:104E0000B0910801803B9440A105B105F1F4809177
:104E10000C0180FD1AC0EE3F8AE0F80789F587E7AC
:104E200097E7918380838091600080931E0288E1E0
:104E30009BE00FB6F894A895809360000FBE909306
:104E4000600067CEEEEFFAE0D5CF808191818737A1
:104E5000974709F05ECEA8958091600088618093A5
:104E6000600080911E0280936000EE3F2AE0F2070E
:104E700089F08091FE0A9091FF0A9183808349CE48
:104E8000808191818737980751F29093FF0A809330
:104E9000FE0AC5CF1092FF0A1092FE0A3ACE0E9477
:104EA0000A19DC0112960D911C910115110509F4E6
:104EB000E8CED801ED91FC910190F081E02DBE018A
:104EC0006B5E7F4FC8010995811123CEF8010085E3
:104ED0001185EBCF181619060CF41BCED2CEF1E0DB
:104EE000FF12BECE60E477E204CF0F920FB68F932D
:104EF0009F93EF93FF93809109028D5F8D3708F0A8
:104F00008D5780930902EEE0F2E080818E4F80831E
:104F100091819F4F918382818F4F828383818F4FB5
:104F20008383EAE0F2E080818F5F808381818F4F0D
:104F3000818382818F4F828383818F4F83838FB15F
:104F40008F6066991C9B88278F3681F480910802B8
:104F5000981B963068F0E0E0F8E087E78083818373
:104F600088E180936000F0936000FFCF9093080287
:104F7000FF91EF919F918F910FBE0F901895EF9237
:104F8000FF920F931F93CF93DF93F82E192FE62EE6
:104F9000042F81E0860F880F0E94201A83E00E9470
:104FA000201ACF2DD12FEC0EFD2EF11CCE15DF05D2
:104FB000B9F007FF13C0FE0184910E94201A182F38
:104FC00080E00E94201A812321968111EFCFDF918A
:104FD000CF911F910F91FF90EF9008958881EDCFB1
:104FE00081E0F5CFE3E3F6E01382128288EE93E0EE
:104FF000A0E0B0E084839583A683B7838AED91E037
:10500000918380838FEF9FEF95878487E1E0F8E0BD
:105010001582168220E12783948383831486158664
:1050200016861786108A88EF91E091838083E7EFD8
:10503000F7E0138212828CEE91E09183808388E006
:10504000818781E080871582168214828783089584
:1050500000D000D0CDB7DEB7789483E084BD83E084
:1050600085BD81E080936E00E1E8F0E083E080831D
:10507000E0E881E08083E1E983E08083E0E981E0AA
:105080008083E1EC87E08083E3EC81E08083E0ECE7
:1050900082E08083E2EC81E08083EAE787E080833E
:1050A0008068808310922F0210921F0210922102BA
:1050B0008091D70081608093D70080EA8093D800E8
:1050C00089B5806189BD89B5826089BD09B400FE5A
:1050D000FDCF0E94A2188091D8008F7C80618093C0
:1050E000D8008091E000807F8093E0008091E10013
:1050F0008E7E8093E1008DE08093E200559A209AA5
:1051000081EC80937C0085B1806F85B9249884B14F
:10511000866E84B95E9A5F988AB1806D8AB9769AF4
:105120006E9881B3806F81BB899880B38D7080BB8E
:1051300080E58CBD81E08DBD0E94F71A5F9A0E94C8
:10514000F71A5E985C98EBE0F5E184918EBD000063
:105150000DB407FEFDCF319605E1E831F007A9F760
:105160005C9A81E88093640081E0809365000E94EE
:10517000691B87FF13C05C9885EA8EBD00000DB4E3
:1051800007FEFDCF5C9A2E982F982D988091640091
:105190008062809364000E94831BFDCF81E2809334
:1051A0000808809164008E7F8093640080917A006B
:1051B000806480937A0080917A0086FDFCCF009114
:1051C0007800109179000E94B718AB01BC01C801AA
:1051D000B0E0A0E0DC01992788278C019D01040F35
:1051E000151F261F371FC901B801611571058105FB
:1051F000910511F00E94B732809164008160809324
:1052000064000E947F1DF4E04F2E512C612C712C04
:105210002FB7F89480910E0290910F02A091100286
:10522000B09111022FBF10911108112371F020913C
:105230000908821B809312081092110880E090E008
:10524000892B31F30E940000E3CF40910D0850916B
:105250000E0860910F087091100884179507A60733
:10526000B70730F4481B423048F30E94831BE6CF57
:1052700021E0209311088093090890930A08A093D5
:105280000B08B0930C0820910808820F911DA11DF6
:10529000B11D80930D0890930E08A0930F08B09352
:1052A00010088091040890910508019690930508D4
:1052B0008093040880910608809307080E94691B68
:1052C00080930608E3E3F2E011111FEF002411932D
:1052D0001193119311930394D1F7E0913202E431C9
:1052E000F0F4F0E0EA58F64D0C943833BD2DF02D73
:1052F0008A29A829B429622B622B182DB4292D2EB6
:105300002D2E2D2E2D2E2D2E2D2E2D2E0A313431DB
:10531000D031FF311092190283E08093320210E005
:1053200000E0809133028EBDE4E3F2E081910DB4A0
:1053300007FEFDCF8EBD36E0E333F307B9F70DB4BA
:1053400007FEFDCFB80190E080E00E94DF1A76CF23
:10535000E0911902F0E0EE0FFF1FE15CFE4F80814B
:1053600091810E94121EDBCF41E060918406809102
:1053700083060E94D117F82E0E9483200E94031BEF
:1053800080910708809590910608892387FF11C0B6
:1053900080918506813051F008F485C0823009F48F
:1053A00084C000E08330A9F010E014C000E011E0F8
:1053B00011C084FF7CC080918506813049F008F4DB
:1053C00074C0823009F46FC000E0833081F3ECCF09
:1053D00000E01FEF40918406802F002E000C990BF7
:1053E000480F592F511D60918306812F012E000C0B
:1053F000990B680F792F711D83E896E00E9442187F
:10540000882309F45CC080918306180F10938306EB
:1054100080918406080F0093840617E6F11262C09B
:10542000F12CE12C10E000E067EEC62E70E5D72EDF
:10543000ECE2BE2EE091AD06F091AE06EE0DFF1D42
:10544000828187FD18C08F778736A9F48091830603
:10545000882389F080918406882369F0C282D092E3
:10546000FC07D092FB07B092FD0783EE96E20E9404
:105470004E1B0CED15E023E0E20EF11C38E1E316C3
:10548000F104C1F640E060918406809183060E9499
:10549000D117863661F580911902833030F582E1AB
:1054A000809332023ECF0FEF7FCF01E07DCF85FFAB
:1054B00009C08091850681508370809385060E9483
:1054C000C1242DCF86FF04C0809185068F5FF4CF65
:1054D00082FFF5CF809132028093180285E080939D
:1054E0003202EDCF10E000E0CDCF83E1D9CF84E0F0
:1054F0008093320243EBE42E46E0F42E55E8A52ECD
:1055000057E0B52ED70116968C91A82FAA1FAA276F
:10551000AA1F09F46FC086FF6DC0F70160818091FA
:10552000830690E070E0861B970BB0918406D180D3
:105530004D2D50E02B2F30E0241B350B09F077C7A1
:10554000FC0197FF04C0EE27FF27E81BF90B3197FA
:1055500079F4892B09F04EC037FF03C031952195AE
:10556000310981E02130310509F080E0A81342C003
:10557000BD1570F44150510990E080E00E9442183E
:10558000882331F0D70111968C911197815030C04A
:10559000F70141816081809184064817D0F0D701DE
:1055A0006C9180918306681788F1F7016081809182
:1055B00083068617E0F5418150E06150770B90E05B
:1055C00080E00E944218882391F1D7018C9181508C
:1055D0002CC050E04F5F5F4F70E090E080E00E9491
:1055E00042188823E1F2D70111968C9111978F5FB1
:1055F00011968C93E7E0EE0EF11CAE14BF0409F097
:1056000081CF0115110509F45ACF8BCEF7014181E5
:1056100050E070E06F5F7F4F90E080E00E944218A2
:10562000882319F2D7018C918F5F8C93E3CF34E1FB
:10563000C32ED12C0E946832A30192010E94C9326C
:10564000611111C0F70141814150550B608170E03B
:1056500090E080E00E944218811194CFB1E0CB1A13
:10566000D10841F7C7CF623071F4F701418150E0B2
:105670004F5F5F4F608170E090E080E00E944218D1
:10568000882361F3B0CF613071F4F701418150E0BC
:10569000608170E06F5F7F4F90E080E00E94421871
:1056A0008823E1F2BFCF6330C9F6F701418150E0B2
:1056B00060816150770B90E080E00E94421888235F
:1056C00069F283CF0E94B21D21E04DE559E264E00A
:1056D00070E082E490E00E940A1C21E04BE955E270
:1056E00064E070E084E090E00E940A1C0E94031BCA
:1056F0000E943E1F03E816E02BE2222E21E0322E0C
:10570000D80117968C91882331F1F101C080D180A6
:10571000A280B3804601FEE08F0E911C7601E81452
:10572000F90451F020E040E1B501C7010E941E16C6
:105730002FEFE21AF20AF3CFD8011796EC91F0E0BE
:10574000EE0FFF1FE15EFE4F4081518121E0B50168
:10575000C6010E940A1C0F5F1F4FB4E02B0E311CC4
:10576000E6E008381E0761F6E091170204E0E09FCA
:10577000F0011124E55DFE4F62817381655F7F4F0B
:105780008081918120E041E955E203960E940A1C44
:105790001091070810958091060818231092FE07B3
:1057A00003E10093FC070093FB0783E28093FD076E
:1057B000809188060E94E51E0093FC070093FB077A
:1057C0008DE28093FD07809187060E94E51E81E0AF
:1057D0008093FE0780913202853051F1863009F0C6
:1057E0009ECD009116028EE590E0013011F082E529
:1057F00090E021E041E955E268E370E00E940A1C74
:1058000047E855E26DE270E081E590E00E94B11753
:105810004DE755E26DE270E08DE590E00E94B11732
:1058200015FF29C0002339F101500093160277CDEE
:1058300015FF08C080911702882321F081508093C2
:1058400017026DCD16FF06C080911702823010F44A
:105850008F5FF5CF8091180212FD5FCD13FF5FCDF2
:10586000E0911702F0E0ED57F94F8781882309F4A2
:1058700056CD86E052CD16FF06C0011104C081E06E
:10588000809316024CCD12FF02C085E046CD13FF77
:1058900046CD01110DC0E0911702AE2FB0E0AD571B
:1058A000B94F17968C91813049F1823009F481C04B
:1058B00080911602813009F032CD509183064091DB
:1058C0008406EDE9F7E080E090E022812F7709F48B
:1058D00086C02081251384C02181421381C08FE5B9
:1058E0008093FC078093FB078CE28093FD078DE695
:1058F00095E20E944E1B0CED15E013CDB5E8EB2EA2
:10590000B7E0FB2E0E2FEE0F110B0657194F85E057
:10591000D82ED7014C9180918306481B550B1196C8
:105920002C91119780918406281B330B12968C9131
:1059300087FF35C08F779CE9980F923010F087363B
:1059400071F557FF03C051954195510942305105FA
:1059500034F537FF03C031952195310922303105E7
:10596000F4F4843611F4F7018283D70112968C91F6
:105970001297982F9F77953621F480788666129635
:105980008C93F70182818F77873609F48283D8015F
:105990001C920E94B81710921602D0923202B3E005
:1059A000EB0EF11CEDE9EE16E7E0FE0609F0B1CFD3
:1059B0007FCF80918606895F833308F082E38093EE
:1059C00086060E2E000CFF0BED57F94F17820E9432
:1059D000B8171092160285E08093320269CF892FA2
:1059E0009F5F33969E3109F070CF90E0E0911702EF
:1059F0009C01220F331F280F391F2356384FAE2F1B
:105A0000B0E0AD57B94F17969C919068D9011296A6
:105A10009C9312975C9311964C930E2E000CFF0BE7
:105A2000ED57F94F17820E94B817109216022DCF2A
:105A30000E9483201091150284E590E0113011F04E
:105A400088E490E021E041E955E268E370E00E94DB
:105A50000A1C47E855E26DE270E087E490E00E949E
:105A6000B1174DE755E26DE270E083E590E00E94EA
:105A7000B11721E040E16BE270E082E490E00E9427
:105A80001E1680910708809590910608892385FF4E
:105A900044C0112309F441C011501093150282FF34
:105AA00007C0909132029093180295E090933202D1
:105AB00083FF35CCE0911502E1115AC0009130020C
:105AC00010E07801EE0CFF1CD701A00FB11FA35608
:105AD000B84F12968C918F7790918A06992351F046
