:020000040000FA
:100000000C9475110C949D110C949D110C949D11E0
:100010000C949D110C949D110C949D110C949D11A8
:100020000C949D110C949D110C94C61A0C94351BC4
:100030000C949D110C949D110C949D110C949D1188
:100040000C949D110C949D110C949D110C949D1178
:100050000C949D110C949D110C949D110C94671D92
:100060000C949D110C949D110C949D110C949D1158
:100070000C949D110C949D110C949D110C949D1148
:100080000C94B11D0C949D110C949D110C949D1118
:100090000C949D110C949D110C949D110C949D1128
:1000A0000C949D110C949D110C949D11163F1620DB
:1000B00070F87CFEFFFEFFFFFFFFFFFFFEFFFE7CF0
:1000C000F8702000000000070F1F1F1F1F1F1F1FB9
:1000D0001F0F07000000000C1E3E3FFFFFFEFFFF4A
:1000E000FFFFFFFFFEFFFF3F3E1E0C00000000076A
:1000F0000F1F1F1F1F1F1F1F1F0F070000000020C3
:1001000070F87CFEFFFEFFFFFFFFFFFFFEFFFE7C9F
:10011000F8702000000000070F1F1F1F1F1F1F1F68
:100120001F0F07000000000C1E3E3FFFFFFEFFFFF9
:10013000FFFFFFFFFEFFFF3F3E1E0C000000000719
:100140000F1F1F1F1F1F1F1F1F0F07000000000092
:1001500000002070F8702000000000000000000087
:1001600000000000000000A8FCF8FCF8FCA800005B
:1001700000000001000100010000000024FE74AC3A
:10018000DEAC74FE24000001030101030101030140
:1001900000227772200207022072772202070200F3
:1001A0000207020002070222777220020702207271
:1001B0007722020702000207020002070240E0E085
:1001C000F0E4EEFEFFFEEEE4F0E0E040FAFFFFFFB9
:1001D000FFFF7FFF7FFFFFFFFFFFFAC1FFFFFFFE73
:1001E000FEFFFFFFFEFEFFFFFFC10307070F1F1FFC
:1001F0003F3F3F1F1F0F07070320F0E8FC28F0FEDA
:10020000FFFEF028FC28F020F9FFF96E297FFFFFA0
:10021000FF7F296EF9FFF9C0F9FEFFFEFEFFFFFF29
:10022000FEFEFFFEF9C00307070F1F1F3F3F3F1FE2
:100230001F0F07070370F8FCFEFFFFFFFEFEFFFF26
:10024000FFFEFCF87000000103070F1F3F3F1F0F68
:10025000070301000070F8FCFEFFFFFFFEFEFFFF3A
:10026000FFFEFCF87000000103070F1F3F3F1F0F48
:10027000070301000070F8FCFEFFFFFFFEFEFFFF1A
:10028000FFFEFCF87000000103070F1F3F3F1F0F28
:10029000070301000070F8FCFEFFFFFFFEFEFFFFFA
:1002A000FFFEFCF87000000103070F1F3F3F1F0F08
:1002B00007030100000306001600140D2050A85487
:1002C000BA1DFA05F505050505FA1DBA54A8502012
:1002D0000000000007081714151515151417080756
:1002E000000000000C122A2DDD1DFA05F50505059C
:1002F00005FA1DDD2D2A120C000000000708171456
:10030000151515151417080700000000140D2050CE
:10031000A854BA1DFA05F555551505FA1DBA54A885
:1003200050200000000007081714151414141417A7
:100330000807000000000C122A2DDD1DFA05F555F6
:10034000551505FA1DDD2D2A120C000000000708C6
:1003500017141514141414170807000000000B0BD1
:1003600000000000207020000000000000000000DD
:10037000000000000000000000A820D820A8000015
:100380000000000000000000000000000000242029
:10039000008C00202400000000010000010000018A
:1003A00000000022200000020000202200000200C5
:1003B00000000200000002000022200000020000F5
:1003C00020220000020000000200000002000F1EB8
:1003D000004000E0004400FE004400E00040000057
:1003E000FA00FF0052007F005200FF00FA0000C137
:1003F00078EE84D46E3F6ED484EE78C1000003039F
:10040000060B0D1D1D1D0D0B06030300002000E84B
:10041000002000FE002000E800200000F9006E002F
:1004200029007F0029006E00F90000C078EE84D416
:100430006E3F6ED484EE78C000000303060B0915EE
:100440001515090B06030300100E0070E8B4BAEE90
:1004500006FC0CF60EFA748870000000000102071A
:100460000C17160D0603010000000070E8B4BAEE88
:1004700006FC0CF60EFA74887000000000010207FA
:100480000C17160D0603010000000070E8B4BAEE68
:1004900006FC0CF60EFA74887000000000010207DA
:1004A0000C17160D0603010000000070E8B4BAEE48
:1004B00006FC0CF60EFA74887000000000010207BA
:1004C0000C17160D060301000000804055AA55AA1E
:1004D00055AA55AA55AA55AA55AA55AA55AA55AA24
:1004E00055AA55AA55AA55A852A508F00000000023
:1004F00000000000000000000000000000000000FC
:1005000000000000000000000000000000000000EB
:1005100000000000000000000000000000000000DB
:1005200000000000000000000000000000F00BA42C
:1005300051AA55AA55AA55AA55AA55AA55AA55AAC7
:1005400055AA55AA55AA55AA55AA55AA55AA55AAB3
:1005500055AA55AA55AA55AA55AA55AA55AA55AAA3
:1005600055AA55AA55AA55AA017C8201000000008F
:100570000000000000000200000000000000000079
:100580000008000000000000000000000000000063
:10059000000000000000000000000000000000005B
:1005A00000100000000000020020000000C12E909A
:1005B00045AA55AA55AA55AA55AA55AA55AA55AA53
:1005C00055AA55AA55AA55AA55AA55AA55AA55AA33
:1005D00055AA55AA55AA55AA55AA55AA55AA55AA23
:1005E00055AA55AA55AA5582394483000000000037
:1005F00020000000000100000000000000000008D2
:1006000000000000000000000000000000000000EA
:100610000000004000000100000000000000000198
:10062000000000000400000000000000000708F2C5
:1006300005AA55AA55AA55AA55AA55AA55AA55AA12
:1006400055AA55AA55AA55AA55AA55AA55AA55AAB2
:1006500055AA55AA55AA55AA55AA55AA55AA55AAA2
:1006600055AA55AA55AA55A24914E3000000000056
:1006700000000000000000000000008000000000FA
:10068000000000000000000000000000000000006A
:100690000000000000000000000001000000000059
:1006A00000000004000000000000000000C03887C7
:1006B00050AA55AA55AA55AA55AA55AA55AA55AA47
:1006C00055AA55AA55AA55AA55AA55AA55AA55AA32
:1006D00055AA55AA55AA55AA55AA55AA55AA55AA22
:1006E00055AA55AA55AA550AE11C030000000000AE
:1006F00000000000000000000000000000000000FA
:1007000000000000000000000000200000000000C9
:100710008000000000000000000000000000000059
:1007200080000000000000000000000000C72892C8
:1007300045AA55AA55AA55AA55AA55AA55AA55AAD1
:1007400055AA55AA55AA55AA55AA55AA55AA55AAB1
:1007500055AA55AA55AA55AA55AA55AA55AA55AAA1
:1007600055AA55AA55AA55A04F10E0000000000058
:100770000000040000000000000000000000000075
:100780000000000000000000000000000000000069
:100790000000000008000000000000000000000051
:1007A00000000000000000000000000000C1229CCA
:1007B00041AA55AA55AA55AA55AA55AA55AA55AA55
:1007C00055AA55AA55AA55AA55AA55AA55AA55AA31
:1007D00055AA55AA55AA55AA55AA55AA55AA55AA21
:1007E00055AA55AA55AA55A2097483000000000015
:1007F00000000000080000000040000004000000AD
:1008000000000000000000000000000000000000E8
:1008100000000000000000020000000000000000D6
:1008200000000000000020000000000080413E8029
:1008300055AA55AA55AA55AA55AA55AA55AA55AAC0
:1008400055AA55AA55AA55AA55AA55AA55AA55AAB0
:1008500055AA55AA55AA55AA55AA55AA55AA55AAA0
:1008600055AA55AA55AA558A25D00F0000000000A8
:100870000000000000000010000000000000000068
:100880000000000000000000000000000000000068
:100890000000000000000200000000000000000056
:1008A0000000001000000000000000000F10A54A2A
:1008B00015AA55AA55AA55AA55AA55AA55AA55AA80
:1008C00055AA55AA55AA55AA55AA55AA000000002E
:1008D000003E5B4F5B3E3E6B4F6B3E1C3E7C3E1CC6
:1008E000183C7E3C181C577D571C1C5E7F5E1C000C
:1008F000183C1800FFE7C3E7FF0018241800FFE7C3
:10090000DBE7FF30483A060E2629792926407F0585
:100910000507407F05253F5A3CE73C5A7F3E1C1C9B
:1009200008081C1C3E7F14227F22145F5F005F5F5B
:1009300006097F017F006689956A60606060609447
:10094000A2FFA29408047E040810207E201008084C
:100950002A1C08081C2A08081E101010100C1E0C57
:100960001E0C30383E3830060E3E0E0600000000E9
:100970000000005F00000007000700147F147F14D0
:10098000242A7F2A12231308646236495620500015
:1009900008070300001C2241000041221C002A1C01
:1009A0007F1C2A08083E08080080703000080808EC
:1009B0000808000060600020100804023E5149450C
:1009C0003E00427F400072494949462141494D332A
:1009D0001814127F1027454545393C4A4949314191
:1009E000211109073649494936464949291E00005F
:1009F00014000000403400000008142241141414B4
:100A00001414004122140802015909063E415D599F
:100A10004E7C1211127C7F494949363E41414122A8
:100A20007F4141413E7F494949417F090909013ED2
:100A3000414151737F0808087F00417F41002040F9
:100A4000413F017F081422417F404040407F021C0B
:100A5000027F7F0408107F3E4141413E7F09090922
:100A6000063E4151215E7F091929462649494932EE
:100A700003017F01033F4040403F1F2040201F3FB4
:100A80004038403F63140814630304780403615939
:100A9000494D43007F41414102040810200041417B
:100AA000417F040201020440404040400003070827
:100AB0000020545478407F28444438384444442823
:100AC000384444287F385454541800087E090218CA
:100AD000A4A49C787F0804047800447D4000204052
:100AE000403D007F1028440000417F40007C047896
:100AF00004787C080404783844444438FC182424DE
:100B00001818242418FC7C0804040848545454245D
:100B100004043F44243C4040207C1C2040201C3CDA
:100B20004030403C44281028444C9090907C4464D1
:100B3000544C440008364100000077000000413664
:100B4000080002010204023C2623263C1EA1A161EA
:100B5000123A4040207A385454555921555579411C
:100B60002154547841215554784020545579400CF3
:100B70001E527212395555555939545454593955D4
:100B80005454580000457C410002457D4200014517
:100B90007C40F0292429F0F0282528F07C54554584
:100BA000002054547C547C0A097F49324949493217
:100BB0003248484832324A4848303A4141217A3A2C
:100BC00042402078009DA0A07D39444444393D40F6
:100BD00040403D3C24FF2424487E4943662B2FFCA3
:100BE0002F2BFF0929F620C0887E09032054547951
:100BF000410000447D413048484A32384040227A22
:100C0000007A0A0A727D0D19317D2629292F28269E
:100C10002929292630484D402038080808080808A6
:100C20000808382F10C8ACBA2F102834FA00007BFF
:100C3000000008142A142222142A14089500220005
:100C400095AA005500AAAA55AA55AA000000FF00BF
:100C5000101010FF00141414FF001010FF00FF10FC
:100C600010F010F0141414FC001414F700FF00002E
:100C7000FF00FF1414F404FC141417101F10101FAD
:100C8000101F1414141F00101010F0000000001F9B
:100C9000101010101F10101010F010000000FF10A6
:100CA0001010101010101010FF10000000FF1400A2
:100CB00000FF00FF00001F10170000FC04F41414D4
:100CC0001710171414F404F40000FF00F7141414A0
:100CD00014141414F700F7141414171410101F1020
:100CE0001F141414F4141010F010F000001F101F43
:100CF0000000001F14000000FC140000F010F010B1
:100D000010FF10FF141414FF141010101F00000027
:100D100000F010FFFFFFFFFFF0F0F0F0F0FFFFFF2B
:100D20000000000000FFFF0F0F0F0F0F3844443882
:100D3000447C2A2A3E147E02020606027E027E02BD
:100D400063554941633844443C04407E201E2006DC
:100D5000027E020299A5E7A5991C2A492A1C4C7219
:100D600001724C304A4D4D303048784830BC625AA0
:100D7000463D3E494949007E0101017E2A2A2A2A30
:100D80002A44445F444440514A444040444A51400C
:100D90000000FF0103E080FF000008086B6B0836CD
:100DA00012362436060F090F06000018180000003E
:100DB0001010003040FF0101001F01011E00191D2D
:100DC0001712003C3C3C3C00000000008D14A1C800
:100DD00081CFD9F102AF000000000080E7FFFFFFE4
:100DE000FFFFFFFFFFFFFFFFFFFFFFFFFFFFFF0012
:100DF00080C0E0F7FFFFFFFFFFFFFFFFFFFFFFFFE8
:100E0000FFFFFFFFFFFFFFFF00070F1F3F7FFFFFF9
:100E1000FFFFFFFFFFFFFFFFFFFFFFFFFFFFFFFFE2
:100E2000FF0000F0FCFEFFFFFFFFFFFFFFFFFFFFE3
:100E3000FFFFFFFFFFFFFFFFFFFF00001F7FFFFF20
:100E4000FFFFFFFFFFFFFFFFFFFFFFFFFFFFFFFFB2
:100E5000FFFFFF000000E0F1FBFFFFFFFFFFFFFFD0
:100E6000FFFFFFFFFFFFFFFFFFFFFFFF000000008E
:100E700001E3F7FFFFFFFFFFFFFFFFFFFFFFFFFFA4
:100E8000FFFFFFFFFF00000000000187DFFFFFFF03
:100E9000FFFFFFFFFFFFFFFFFFFFFFFFFFFF194007
:100EA00000000000000080E7FBFDFDFEFEFFFFFFED
:100EB000FFFFFFFFFFFFFFFFFF000080C0E0F7FB29
:100EC000FBFFFFFFFFFFFFFFFFFFFFFFFFFFFFFF36
:100ED000FFFF0000070F1F3F7FBFBFFFFFFFFFFFA8
:100EE000FFFFFFFFFFFFFFFFFFFFFF000000F0FC21
:100EF000FEFFFFFFFFFFFFFFFFFFFFFFFFFFFFFF03
:100F0000FFFFFFFF0000001F7FFFFFFFFFFFFFFF4E
:100F1000FFFFFFFFFFFFFFFFFFFFFFFFFF000000DE
:100F200000E0F1FBF7F7EFFFFFFFFFFFFFFFFFFF21
:100F3000FFFFFFFFFFFF000000000001E3F3FDFFE4
:100F4000FFFFFFFFFFFFFFFFFFFFFFFFFFFFFF00B0
:100F500000000000000187DFBFBF7F7FFFFFFFFFB2
:100F6000FFFFFFFFFFFFFFFFFFFFFFFFFFFFFFFF91
:100F7000FFFFFFFFFFFFFFFFFFFBE180000000001E
:100F800000FFFFFFFFFFFFFFFFFFFFFFFFFFFFFF70
:100F9000FFFFFFEFC78000000000FFFFFFFFFFFF24
:100FA000FFFFFFFFFFFFFFFFFFFFFFFFFFDF8F07D9
:100FB000000000FFFFFFFFFFFFFFFFFFFFFFFFFF3E
:100FC000FFFFFFFFFFFFFFFFFEF80000FFFFFFFF37
:100FD000FFFFFFFFFFFFFFFFFFFFFFFFFFFFFFFF21
:100FE0007F3F0F0000FFFFFFFFFFFFFFFFFFFFFF3F
:100FF000FFFFFFFFFFFFFFFFFEFCF8F0E000FFFF39
:10100000FFFFFFFFFFFFFFFFFFFFFFFFFFFFFFFFF0
:10101000FFFFEF07030100FFFFFFFFFFFFFFFFFFE1
:10102000FFFFFFFFFFFFFFFFFFE7010000000000E1
:101030001940FFFFFFFFFFFFFFFFFFFFFFFFFEFE67
:10104000FDFDFBE180000000000000FFFFFFFFFF4F
:10105000FFFFFFFFFFFFFFFFFFFFFFBFCFC78000C6
:1010600000000000FFFFFFFFFFFFFFFFFFFFFFFF8C
:10107000FFFFFFF7EFEFDF8F0700000000FFFFFF2C
:10108000FFFFFFFFFFFFFFFFFFFFFFFFFFFFFFFF70
:10109000FFFEF8000000FFFFFFFFFFFFFFFFFFFF65
:1010A000FFFFFFFFFFFFFFFFFF7F3F0F000000FF7D
:1010B000FFFFFFFFFFFFFFFFFFFFFFFFFFFFFFFD42
:1010C000FDFEFCF8F0E00000FFFFFFFFFFFFFFFF69
:1010D000FFFFFFFFFFFFFFFFFFDFDFEF0703010061
:1010E00000FFFFFFFFFFFFFFFFFFFFFFFF7F7FBF4F
:1010F000BFDFE701000000000000804055AA55AAAC
:1011000055AA55AA55AA55AA55AA55AA55AA55AAE7
:1011100055AA55AA55AA55A852A508F000000000E6
:10112000200000000000000000000000000000009F
:101130002000000000000000000000280000000067
:1011400000000000E00000000000000000000000BF
:10115000E8000000000000000000000000F00BA408
:1011600051AA55AA55AA55AA55AA55AA55AA55AA8B
:1011700055AA55AA55AA55AA55AA55AA55AA55AA77
:1011800055AA55AA55AA55AA55AA55AA55AA55AA67
:1011900055AA55AA55AA55AA017C82010000000053
:1011A000FF000000009000000000000000000000B0
:1011B000FF0000000000F0000000000080000000C0
:1011C00000000000FF000000000000F80000000028
:1011D0000F00000000000000FD00000000C12E9084
:1011E00045AA55AA55AA55AA55AA55AA55AA55AA17
:1011F00055AA55AA55AA55AA55AA55AA55AA55AAF7
:1012000055AA55AA55AA55AA55AA55AA55AA55AAE6
:1012100055AA55AA55AA55823944830000000000FA
:101220000100000000FC0000000000E000000000E1
:10123000040000000000FF00000000004B00000060
:1012400000000000C40000000000007F000000005B
:10125000000000000000000089000000000708F204
:1012600005AA55AA55AA55AA55AA55AA55AA55AAD6
:1012700055AA55AA55AA55AA55AA55AA55AA55AA76
:1012800055AA55AA55AA55AA55AA55AA55AA55AA66
:1012900055AA55AA55AA55A24914E30000FE00001C
:1012A00000008000000100000000000A00000000B3
:1012B00000000000000047000000000000000000E7
:1012C000000000001F0000000000000200002000DD
:1012D000000000FF000000000000000000C0388790
:1012E00050AA55AA55AA55AA55AA55AA55AA55AA0B
:1012F00055AA55AA55AA55AA55AA55AA55AA55AAF6
:1013000055AA55AA55AA55AA55AA55AA55AA55AAE5
:1013100055AA55AA55AA550AE11C03000049000028
:101320000000FF000000000000000000000000803E
:1013300000000000000000000000000000FF0000AE
:1013400000000000000400000000000000000F008A
:101350000000009F000000000000000000C728926D
:1013600045AA55AA55AA55AA55AA55AA55AA55AA95
:1013700055AA55AA55AA55AA55AA55AA55AA55AA75
:1013800055AA55AA55AA55AA55AA55AA55AA55AA65
:1013900055AA55AA55AA55A04F10E000000000001C
:1013A0000000A3000000000000000000000000BFDB
:1013B0000000000000000000E40000000027000022
:1013C00000000000E0000000000000FC0000000041
:1013D0000000007C0000000000FF000000C1229C13
:1013E00041AA55AA55AA55AA55AA55AA55AA55AA19
:1013F00055AA55AA55AA55AA55AA55AA55AA55AAF5
:1014000055AA55AA55AA55AA55AA55AA55AA55AAE4
:1014100055AA55AA55AA55A20974830000000000D8
:10142000000000000000000000F80000000000F8CC
:1014300000000000000000004F000000000100005C
:1014400000000000FF000000000000270000000076
:1014500000800000000000000023000080413E806A
:1014600055AA55AA55AA55AA55AA55AA55AA55AA84
:1014700055AA55AA55AA55AA55AA55AA55AA55AA74
:1014800055AA55AA55AA55AA55AA55AA55AA55AA64
:1014900055AA55AA55AA558A25D00F000000007EEE
:1014A0000000000000000000000400000000001028
:1014B000000000000000000000000000000000002C
:1014C0000000000014000000000000000000000008
:1014D000000F000000000000000E00000F10A54AE1
:1014E00015AA55AA55AA55AA55AA55AA55AA55AA44
:1014F00055AA55AA55AA55AA55AA55AA50415553B9
:101500004500F8FCFCFC7878FC781C3878FCFCF88A
:1015100050F8FCFC78F8FCFC6800FCFEFFFFFFFFC5
:10152000FFFEFC01030100000000000000000000BD
:1015300000000000000000000000000001030303A1
:1015400003030100210A00F8084830007810080061
:10155000304868500050686800506868000000FC1F
:10156000027A526202FC000001000000000000004C
:10157000000000000000000000000000000000006B
:101580000001010101010000484947482053434F31
:1015900052453A0053434F52453A0047414D45208A
:1015A0004F564552007EFFFFFEE0FCFEFFFFC7FFE7
:1015B000FFFE7E3FFFFEFEFF3FFEFFFFFFFFB6FC8C
:1015C000FEFFFFFFFEFCFDFFFFFDFFFFFCF8FCFF41
:1015D000FFFEFCFEFFFDFFFFFC03070703030707F9
:1015E00003030707070303070707030103070703AD
:1015F0000707031A13007EFEC0C0007CFE828282B1
:10160000FE7C00063EF8F83E0600FEFEB6B6000080
:10161000FCFC0CCCFC3000FCFC00FCFC000078FC6A
:10162000CC0C00FCFC60FCFC000003030001030385
:10163000000103030301000303030100000303008F
:10164000030300FCFEFFFFFFFEFCFFFFFFFFFFFFA9
:10165000FFFFFFFFFFFFFFFFFFFFFFFFFFFFFFFF9A
:10166000FFFFFFFFFFFF070F1F1F1F0F07072D00C3
:10167000F402AA02F40000FF00AA00FF0000FF002D
:10168000AA00FF0000FF00AA00FF0000FF00AA0060
:10169000FF000007080A080700307CFEFCF8FCFC8D
:1016A000FEFFFEFCFCF8FCFE7C3002070F0F1F3B28
:1016B0001F0B030B1F3B1F0F0F0702307CFEFCF8B4
:1016C000FCFCFEFFFEFCFCF8FCFE7C30020F1F0B56
:1016D000377B37030303377B370B1F0F02110F00D4
:1016E000304CE83008F01C861CF00830E84C300024
:1016F000000205000A110A0101010A110A0005028F
:101700000000304CE83008F01C861CF00830E84C33
:101710003000000209000231020101010231020021
:101720000902002E7F2E7F2E003E7F3F0F3E7F7EE0
:101730007F3E7F7F2A7F7E7020002E7F2E7F2E2E81
:101740007F2E7F2E003E7F3F0F3E7F7E7F3E7F7F3E
:101750002A7F7E7020002E7F2E7F2E1C07002E00F9
:101760002E0000003E0A02003E203E003E2A003EBF
:1017700020200000002E002E00002E002E00000071
:101780003E0A02003E203E003E2A003E202000008D
:10179000002E002E00534849454C443A0053434F15
:1017A00052453A0000000000000000000000000068
:1017B0000000000000000000000000000000000029
:1017C0000000000000000000000000000000000019
:1017D0000000000000000000000000000000000009
:1017E00000000000000000000000000000000000F9
:1017F00000000000000000000000000000000000E9
:1018000000000000000000000000000000000000D8
:1018100000000000000000000000000000000000C8
:1018200000000000000000000000000000000000B8
:1018300000000000000000001010105050505050E8
:10184000505050505050505050500000F8F8F8F898
:1018500008D000000000C0E0F0F0F878787878F860
:10186000F0F0E0C00838F8F8F8F8C0C0F8F8F8F878
:10187000380840E0F0F8F8787878F87800005050B0
:101880005050505050505050505050505010101018
:101890000000000000000000000000000000000048
:1018A0000000000000000000000000000000000038
:1018B000000000000000000000000000000105051D
:1018C000151555555555555555550000FFFFFFFF4A
:1018D000C0DFE040803FFFFFFFE1C281818181C224
:1018E000E1FFFFFF3F0000873FFFFFFFFF1F0700F3
:1018F00000FC00FFFFFFFF9E9E9EBE9E0000555510
:1019000055555555555515150505010000000000A4
:1019100000000000000000000000000000000000C7
:1019200000000000000000000000000000000000B7
:101930008000C000800000000000000000000000E7
:10194000000000000101010505050000C0C3C3C778
:10195000D7D7D7D08880000103CBD7D7D717171791
:10196000CBC3C1C0000000000384CFC3C0C00000CF
:1019700000C1C4C9D3171717D7D7CFC700000505B3
:10198000050101010000000000000000000000004F
:101990000000008000C00080000000000000000087
:1019A00000000000FC7880C0C0C080004800FC003F
:1019B0004800FF004800FC00480000000000000054
:1019C000000000000000000000000000FFFFFFFF1B
:1019D00003E3E3FFFF7F3E0000FFFFFFFF00000087
:1019E000FFFFFFFF0000003EFFFFFFFFE3C300001B
:1019F00000FFFFFFFFF0F000FFFFFFFF000000000F
:101A0000000000000000000000000000000000488E
:101A100000FC004800FF004800FC00480080C0C0F7
:101A2000C08078FCFFFEFFFFFFDFEFC03F00DF80DC
:101A30008AC0EFC08A80DF003F0000000000000085
:101A40000000000000000000000000003FBFBFBF1A
:101A500080630F3FBFBFBCA080471F1F3FBCBCBC03
:101A6000BF9F4F0700003EBCBCBFBF9F4F07000099
:101A7000003FBFBFBF8040003FBFBFBF80400000EE
:101A80000000000000000000000000000000003F17
:101A900000DF808AC0EFC08A80DF003FC0EFDFFF39
:101AA000FFFFFEFFFFFFFFFFFFAB5482786FDDF00B
:101AB000BA2D272DBAF0DD6F78000000000000007D
:101AC0000000000000000000000000000000000016
:101AD00000000000C040408000C0804000804040C6
:101AE000800080404000804040000000E0109050A6
:101AF0009010E00000000000000000000000000066
:101B0000000000000000000000000000000000785D
:101B10006FDDF0BA2D272DBAF0DD6F7807AFFFFF2C
:101B2000FFFFFFFFFFFFFFFFFFFFFFFEFDFAF4E9EE
:101B3000F5EBF3FBFDFDCEE0F0F8F8F8F8F0E0C0CF
:101B40000000000000000000000000000000000095
:101B5000000000000F00020100030000000102036A
:101B600002000203030002030300000007080B0940
:101B70000B0807000000000000000000000000004B
:101B80000000000000000000C0E0F0F8F8F8F8F0F5
:101B9000E0CEFDFDF3EBF3E9F5EAF5FAFDFEFFFF1C
:101BA000FFFFFFFF70F8FCFEFFFFFFFEFEFFFFFFE1
:101BB000FEFCF87000000103070F1F3F3F1F0F07D7
:101BC00003010000000000F8FCFEFFFEFEFFFEFC2B
:101BD000F800000000000001070F1F3F3F1F0F0724
:101BE000030000000000000000FCFEFFFFFEFC0000
:101BF0000000000000000000000F1F3F3F1F0F000B
:101C000000000000000000F8FCFEFFFEFEFFFEFCEE
:101C1000F800000000000003070F1F3F3F1F0F07E1
:101C20000100000070F8FCFEFFFFFFFEFEFFFFFF5B
:101C3000FEFCF87000000103070F1F3F3F1F0F0756
:101C400003010000100E00708874DAAA4A94140A86
:101C50000A8A748870000000000102050B16150A3C
:101C600005020100000000000000F804020404FA6C
:101C700004F8000000000000000001060C18140B1E
:101C8000040300000000000000000000FCC2C2FCD1
:101C90000000000000000000000000000F1A1A0FF2
:101CA00000000000000000000000F804FA04040234
:101CB00004F8000000000000000003040B14180CDE
:101CC00006010000000000708874DAAA4A94140A21
:101CD0000A8A748870000000000102050B16150ABC
:101CE000050201000000423A43414E43454C004486
:101CF0004F574E3A44454C2E004F5054494D49538E
:101D00004544000080C0E0F0F8FCFEFEFFFFFFFF4E
:101D1000FFFFFFFEFEFCF8F0E0C08000FEFFFFFFCB
:101D2000FFFFFFFFFFFFFFFFFFFFFFFFFFFFFFFFC3
:101D3000FFFFFFFFFE0003070F1FFFFFFFFFFFFF77
:101D4000FFFFFFFFFFFFFFFFFF1F0F070300000064
:101D50000000000F1F3F3F3F3F3F3F3F3F3F3F3FA0
:101D60001F0F00000000003E7F3F1F3E7F3E783087
:101D7000387C78387C3C18387C7878FC7C381000CB
:101D800019280080402090C8E4F2F2F9F9F9F9F935
:101D9000F9F9F2F2E4C89020408000FE0100FEFF55
:101DA000010000000001FFFFFF010000000001FF33
:101DB000FE0001FE0003040813E70E0EFEFE1FFFE7
:101DC000FFFF1FFEFE0E0EE71308040300000000D5
:101DD00000000F1020272720272727202727201043
:101DE0000F0000000000003E0A0E003E0830001008
:101DF0002830003808001028300078281000000033
:101E000080402090C8E4F2F2F9F9F9F9F9F9F9F211
:101E1000F2E4C89020408000FE0100FEFFCFCFCF4B
:101E2000CFCFCFFFFFFFCFCFCFCFCFCFFFFE000170
:101E3000FE0003040813E70F0FFFFF1FFFFFFF1F44
:101E4000FFFF0F0FE7130804030000000000000F5E
:101E5000102027272027272720272720100F0000C2
:101E6000000000003E0A0E003E083000102830003E
:101E7000380800102830007828100000000000000A
:101E80000000000000000000000000000000000052
:101E90000000000000000000000000000000000042
:101EA0000000000000000000000000000000000032
:101EB0000000000000000000000000000000000022
:101EC0000000000000000000000000000000000012
:101ED0000000000000000000000000000000000002
:101EE00000000000000000000000000000000000F2
:101EF00000000000000000000000000000000000E2
:101F000000000000000000000000000000000000D1
:101F100000000000000000000000000000000000C1
:101F20000000000000000000000000808080808031
:101F30008000000000808080808080808000000021
:101F40000000000000000000000000000000000091
:101F50000000000000000000000000000000000081
:101F60000000000000000000000000000000000071
:101F70000000000000000000000000000000000061
:101F80000000000000000000000000000000000051
:101F90000000000000000000000000000000000041
:101FA0000000000000000000020A2AA8A38F3FFFE3
:101FB000FFFEF08000FFFFFFFFFFFFFF07000000B4
:101FC00000000080808080C0C00080000000000011
:101FD0000000000000000000000000000000000001
:101FE00000000000000000000000000000000000F1
:101FF00000000000000000000000000000000000E1
:1020000000000000000000000000000000000000D0
:1020100000000000000000000000000000000000C0
:10202000000000000000000000000000020A0A2872
:10203000A3871F7FFCFFFFFFFFFF7F01F0F8FCFE7F
:1020400006A30B07073F0F23080200000000000053
:102050000000000000000000000000000000000080
:102060000000000000000000000000000000000070
:102070000000000000000000000000000000000060
:102080000000000000000000000000000000000050
:102090000000000000000000000000000000000040
:1020A0000000000000000000000000000000000030
:1020B00000020A28A1871F7FFF1F0080F1F3F3634E
:1020C0006322B21E20280000000000000000000073
:1020D0000000000000000000000000000000000000
:1020E00000000000000000000000000000000000F0
:1020F00000000000000000000000000000000000E0
:1021000000000000000000000000000000000000CF
:1021100000000000000000000000000000000000BF
:1021200000000000000000000000000000000008A7
:102130000808C808884A8A48480888498908CA4857
:102140000948C84808080800000000000000000016
:10215000000000000000000000000000000000007F
:10216000000000000000000000000000000000006F
:10217000000000000000000000000000000000005F
:10218000000000000000000000000000000000004F
:10219000000000000000000000000000000000003F
:1021A000000000000000000000000000000000002F
:1021B000000000030000020303000102010003010C
:1021C000000003000000000000000000000000000C
:1021D00000000000000000000000000000000000FF
:1021E00000000000000000000000000000000000EF
:1021F00000000000000000000000000000000000DF
:1022000000000000000000000000000000000000CE
:1022100000000000000000000000000000000000BE
:1022200000000000000000000000000000000000AE
:10223000000000000000000000000000000000009E
:10224000000000000000000000000000000000008E
:10225000000000000000000000000000000000007E
:10226000000000000000000000000000000000006E
:10227000000000000000000000000000080B000249
:10228000020200000904000001020200000524000F
:1022900010010524010101042402060524060001A1
:1022A0000705810310004009040100020A00000034
:1022B00007050202400000070583024000000403F6
:1022C000090412010002EF0201404123368000019F
:1022D0000102030141726475696E6F204C4C43002A
:1022E0004142413131303600561E11241FBECFEF1E
:1022F000DAE0DEBFCDBF11E0A0E0B1E0EAEDF8E545
:1023000002C005900D92A234B107D9F726E0A2E4ED
:10231000B1E001C01D92A03AB207E1F711E1C5E7B3
:10232000D1E104C02197FE010E94652CC437D1077A
:10233000C9F70E94A81E0C946B2C0C94000080918D
:102340005C01089590919306982329F49091920648
:10235000982381E009F480E00895480F592F511D1A
:102360001416150674F58038910559F197FF02C0CF
:1023700090E080E04138510514F040E850E0481BFF
:10238000FB01E770FF2721E030E001C0220FEA9552
:10239000EAF72095FB0133E0F595E7953A95E1F7EB
:1023A000F695FE2FEE27F795E795E80FF91FE7560C
:1023B000FE4F415030F08191DF01119782238C93C1
:1023C000F8CF089590E0E9E9F1E091119FEF8FEFE8
:1023D00091939193919391938150D0F70895E9E966
:1023E000F1E080E030EB20E146E05C983EBD4A95AC
:1023F000F1F72EBD20E8239507C0449140815C9AF7
:102400004EBD8111412D419344912A95B1F73395E9
:10241000383B49F70DB408952F923F924F925F9247
:102420006F927F928F929F92AF92BF92CF92DF92E4
:10243000EF92FF920F931F93CF93DF9380382FEF8C
:10244000920709F469C09B01215C3F4F2F3731058A
:1024500008F062C0362F3770532E23E075956795CC
:102460002A95E1F7EB01D695DC2FCC27D795C795B8
:10247000C80FD91FB0E0A0E0FE01E756FE4F7F0174
:10248000C75EDD4F6F3FFFEF7F07D4F147018A0E34
:102490009B1E3E016A0E7B1E8C0130E020E05A013B
:1024A000AA0EBB1E17FD22C0F501E20FF31FE49137
:1024B000F0E01F01052C02C0220C331C0A94E2F745
:1024C0006F3F7607E1F16401C20ED31EF601408032
:1024D00042284082552051F06730710539F0630180
:1024E000C20ED31EF6014080432840822F5F3F4F2B
:1024F0000F5F1F4F2038310519F00038110591F694
:102500006F5F7F4FA058BF4FA115F4E0BF0721F0C8
:102510006830710509F0B6CFDF91CF911F910F910F
:10252000FF90EF90DF90CF90BF90AF909F908F90F3
:102530007F906F905F904F903F902F900895511033
:10254000CECFD4CFFC0190918806903179F027E06E
:10255000299FD0011124A85EB94F01900D922A95B0
:10256000E1F79F5F9093880681E0089580E00895E9
:10257000FC0180919801882311F13FB7F89482E023
:102580008093E9002091F200822F90E0181619063E
:1025900014F481E090E0882339F0289844E64093D1
:1025A00097014091F1004083222339F02091F200FD
:1025B000211103C02BE62093E8003FBF08958FEF61
:1025C0009FEF08952FB7F89483E08093E9009091EE
:1025D000E800892F807295FF04C09091F20080E49A
:1025E000891B2FBF089580918F0181110DC082E05A
:1025F00080938B0184E080938C0110928E01109265
:102600008D0181E080938F018BE891E00895CF9355
:10261000DF931F92CDB7DEB76983DC01ED91FC91AA
:102620000280F381E02D41E050E0BE016F5F7F4FFB
:1026300009950F90DF91CF91089583E08093E90091
:102640008091F200882319F08AE38093E8000895CE
:102650000E94E21290E00895CF93DF931F92CDB7CE
:10266000DEB7FC018485958597FD08C02FEF3FEF0D
:10267000358724870F90DF91CF910895CE01019681
:102680000E94B812019719F4898190E0F3CF8FEF7F
:102690009FEFF0CF0F931F93CF93DF931F92CDB790
:1026A000DEB78C01FC018485958597FF0BC0CE01B8
:1026B00001960E94B812019771F4898190E0F801A7
:1026C00095878487F801848595850F90DF91CF9158
:1026D0001F910F9108958FEF9FEFF1CFFC0184853B
:1026E000958597FD0BC09FB7F89482E08093E90031
:1026F0008091F2009FBF90E0019608959FB7F894F3
:1027000082E08093E9008091F2009FBF90E00895FD
:10271000409185015091860120918301309184017F
:1027200042175307B4F49091E8009570E1F390914B
:10273000E80092FD19C08093F1008091850190918D
:10274000860101968F739927892B19F48EEF809358
:10275000E800809185019091860101969093860111
:102760008093850181E0089580E00895EF92FF92C3
:102770000F931F93CF93DF93F82E192FE62E042F7C
:1027800081E0860F880F0E94881383E00E948813DF
:10279000CF2DD12FEC0EFD2EF11CCE15DF05B9F09B
:1027A00007FF13C0FE0184910E948813182F80E058
:1027B0000E948813812321968111EFCFDF91CF9161
:1027C0001F910F91FF90EF9008958881EDCF81E0E8
:1027D000F5CFDF92EF92FF920F931F93CF93DF938A
:1027E000D82E8A01EB017B01E40EF51ECE15DF0524
:1027F00059F0D7FE12C0FE0184910E9488132196E1
:102800008111F4CF0FEF1FEFC801DF91CF911F911E
:102810000F91FF90EF90DF9008958881EECF0F9396
:102820001F93CF93DF931F92CDB7DEB782E08983EA
:1028300042E450E06CE772E280E80E94E9130E94F3
:10284000F312DC0112960D911C910115110589F00E
:10285000D801ED91FC910280F381E02DBE016F5F04
:102860007F4FC801099597FD04C0F80100851185C7
:10287000ECCF89810F90DF91CF911F910F91089537
:10288000615030F02091F100FC0120830196F8CFD7
:10289000289884E68093970108950895AF92BF9297
:1028A000CF92DF92EF92FF920F931F93CF93DF931C
:1028B0006C017B018B01040F151FEB015E01AE184B
:1028C000BF08C017D10759F06991D601ED91FC916D
:1028D0000190F081E02DC6010995892B79F7C5019A
:1028E000DF91CF911F910F91FF90EF90DF90CF90EC
:1028F000BF90AF900895FC010E941215319728F007
:1029000068517C4F8F4F9F4FF9CFAB01FC010E9464
:102910001215641775078E079F07C8F308958F92E5
:102920009F92AF92BF92CF92DF92EF92FF920F935E
:102930001F93CF93DF936C017B018A0180910F017C
:10294000882309F45AC080919801882309F455C05E
:1029500080918A0180FF05C08091E00082608093B1
:10296000E000E801B12C8AEFA82E93E0892E2AE33B
:10297000922E209711F4BB20C9F10E94E21281111E
:1029800008C0AA94AA20C9F181E090E00E947B14BB
:10299000F0CF8C171D0611F00CF08C2F9FB7F89418
:1029A0008092E9002091E80025FD02C09FBFE1CFA1
:1029B000282F30E0C21BD30BF701815020F041914A
:1029C0004093F100FACFE20EF31EBB2021F090926B
:1029D000E800B12CEBCF8091E80085FDE7CF909225
:1029E000E800BB24B394209709F3F3CF5D9884E605
:1029F00080938901101611063CF081E090E0F60109
:102A00009383828310E000E0C801DF91CF911F9192
:102A10000F91FF90EF90DF90CF90BF90AF909F907D
:102A20008F900895A8E5B1E02FB7F8947D918D912E
:102A30009C9166B52FBFA89B05C06F3F18F47F5FC0
:102A40008F4F9F4F22E0660F771F881F991F2A958F
:102A5000D1F7089520914F01E0914D01F0914E0181
:102A6000CF01029690934E0180934D01222319F0DD
:102A7000859194910895808191810895CF92DF92FC
:102A8000EF92FF92CF93DF930E942A15811520E8E1
:102A9000920791F4809171008D7F80937100109264
:102AA000910046985F9810924C01DF91CF91FF9072
:102AB000EF90DF90CF90089521E020934C0181307A
:102AC00020E8920751F480914A0190914B01909334
:102AD0004E0180934D010E942A1597FD05C020915B
:102AE0004901222309F454C020914801211150C00A
:102AF00021E020935001EC01DF77209709F04BC0D3
:102B000081E08093510146983FE9C32E3FE0D32EE8
:102B1000E12CF12CCAEFD0E0E091F905F091FA0533
:102B20000995811103C081E080935101809150018A
:102B3000882329F080915101882309F43FC05F98D0
:102B40000E942A150097F1F19C01DE010E94362CAB
:102B5000DC01CB0129E0B595A795979587952A9536
:102B6000D1F7109290002AE020939100D092990022
:102B7000C09298008093520190935301A093540106
:102B8000B0935501809171008260809371008DCF68
:102B900010925001B0CF9E0150E040E060E472E43A
:102BA0008FE090E00E94E22B69017A0181E0C81A6F
:102BB000D108E108F10810925101AECF4699BFCF7C
:102BC0005F9ABECF8FEF9FEFDC01CBCFEF92FF92EA
:102BD0000F931F93DC01E1E7F0E090819D7F9083EC
:102BE00010924F01EBEEF5E0F0934E01E0934D01B2
:102BF000F0934B01E0934A01B183A0837383628316
:102C0000558344833783268311870087F386E286C2
:102C10001F910F91FF90EF900C943E154F925F9291
:102C20007F928F929F92AF92BF92CF92DF92EF925C
:102C3000FF920F931F93CF93DF93DC01E901FA0119
:102C4000B490319634914E5F5F4FCB2CD12C011153
:102C500002C0EE2019F1E1E0F0E0932F977011F43B
:102C6000F0E0E0E0832F8695869586958E0F9F2F66
:102C7000911D8C9DF0018D9DF00D9C9DF00D1124FA
:102C8000EE9EC001EF9E900D1124C80FD91F0E9F1C
:102C9000C0010F9F900D1124480F591F86010A0F84
:102CA0001B1F101611060CF0ABC0A038B1050CF0BC
:102CB000A7C0CB01830F911D181619060CF0A0C0F8
:102CC000603471050CF09CC04115510509F498C0A1
:102CD000F62FF7708F2ECB0177FD079623E09595A1
:102CE00087952A95E1F7F82F77FF04C0882011F027
:102CF000FFEFF80F662777276A1B7B0BB7FD02C033
:102D000070E060E080E8982E9A1A003811050CF403
:102D10009B2C961A0F2F0F2E000C110BF02EF094F7
:102D2000FF3F0CF0F12C91E0832F877009F490E0C5
:102D3000369536953695930F090F111D09301105FB
:102D400014F098E09F1B7F2C7F0E272D30E8230383
:102D500080011124A00FB11FA60FB71FBF9C600DEB
:102D6000711D1124460F571F082D082C000C110B44
:102D70009E01260F371F9F0F791609F441C0ED0100
:102D8000C756DE4FF12CE12CE91490F5F901EE0D58
:102D9000FF1D649170E0002E02C0660F771F0A9439
:102DA000E2F760957095FA01EE0DFF1DE491F0E0F9
:102DB0002F01002E02C0440C551C0A94E2F777FC48
:102DC00004C08881862384298883882061F086E076
:102DD00087154CF05E01E0E8AE0EB11CF501808174
:102DE000872385298083FFEFEF1AFF0A2196CCCF36
:102DF00073944C0D5D1D2C0D3D1DA058BF4FBCCFD5
:102E0000DF91CF911F910F91FF90EF90DF90CF90C6
:102E1000BF90AF909F908F907F905F904F9008955C
:102E20002D9A089590E00C947B148FB18095807F4B
:102E3000669B88601C9B846008955C988EBD000032
:102E40000DB407FEFDCF5C9A089580389105B8F463
:102E500060347105A0F490E121E061FD24E060FDA3
:102E6000220F62FD2295687F969FD0011124A80F42
:102E7000A756BE4F0C90022A40FF02260C920895DE
:102E80009F92AF92BF92CF92DF92EF92FF920F93F9
:102E90001F93CF93DF938C01942E6B01C81AD90A2C
:102EA000D7FE03C0D194C194D1088FEF061717073E
:102EB0000CF481E0C0E4D0E0F12CE12CA82E880FC6
:102EC000BB08492DB801C7010E942517CC19DD099F
:102ED000D7FF04C00A0D1B1DC058DF4F8FEFE81A43
:102EE000F80A81E8E816F10461F7DF91CF911F91AC
:102EF0000F91FF90EF90DF90CF90BF90AF909F9099
:102F000008952F923F924F925F926F927F928F928D
:102F10009F92AF92BF92CF92DF92EF92FF920F9368
:102F20001F93CF93DF93CDB7DEB72A970FB6F894F0
:102F3000DEBF0FBECDBF9A8389836A3061F5DC01A5
:102F400055968C91B8E08B9F90011124E981FA810C
:102F500081899289820F931F928B818B108A1786A9
:102F600081E090E02A960FB6F894DEBF0FBECDBF89
:102F7000DF91CF911F910F91FF90EF90DF90CF9055
:102F8000BF90AF909F908F907F906F905F904F9089
:102F90003F902F9008956D3019F329813A813A8737
:102FA0002987D9011F96AD90BC90B0E8AB16B1044B
:102FB0000CF07BC0F901C188D288F0E4CF16D104AF
:102FC0000CF073C0D90155966C90559745E095016A
:102FD000649E200D311D1124121613060CF065C0DD
:102FE000262C312C910153E0220F331F5A95E1F723
:102FF0002C0D3D1D121613060CF057C05496BC91B3
:10300000BB83E985FA85F389FC83649FB0011124B1
:103010009B012453374F3A832983712CE981FA812C
:103020008491F5E07F1201C080E0460138E0532E24
:10303000282F30E03E832D834C8080FF4B80411051
:1030400004C03B818C813817E1F010E000E00615E8
:10305000C0F4D501A00FB11FB887AF83F12CE12CCC
:10306000E61460F4B701680D791D442D8F819885B1
:103070000E942517BFEFEB1AFB0AF2CF0F5F1F4F1D
:10308000E6CF8D819E81959587955A94820C931CED
:103090005110CECF7394E981FA813196FA83E98396
:1030A000A20CB31CF6E07F12B9CFA985BA8555965C
:1030B0002C915597422F50E01F968D919C91B6E030
:1030C0002B9F800D911D1124E985FA85908B8787B0
:1030D0002689222309F444CF6AEF64039001659F97
:1030E000300D112420583F4F281739070CF038CFE6
:1030F000DF010190F081E02D0190F081E02D6AE088
:10310000CD0109952DCF0F931F93CF93DF938C01A2
:10311000D0E0C0E0F801EC0FFD1F6491662341F0A0
:1031200089E896E00E948117892B11F02196F2CF51
:10313000CE01DF91CF911F910F91089508950895C9
:1031400090E080E008956F927F928F929F92AF926D
:10315000BF92CF92DF92EF920F931F93CF93DF93A3
:1031600010916301C12F012E000CDD0B4AEC54E0DD
:10317000BE018DEF9FEF0E940C12BE0160547109D9
:103180004AEC54E08DEF9FEF0E940C12D091620147
:103190006D2E0D2E000C770880906101082C000C1C
:1031A0009908E12C00E028E63FE040E350E1B3015C
:1031B000C4010E940E16C0910101AC2E0C2E000C11
:1031C000BB08C09000010C2C000CDD0826ED3DE092
:1031D0004EE95EE0B501C6010E940E16B3016054CF
:1031E000710928E63FE040E350E1C4010E940E1659
:1031F000B5016054710926ED3DE04EE95EE0C6017F
:103200000E940E16B301605C7F4F28E63FE040E36A
:1032100050E1C4010E940E16B501605C7F4F26ED9F
:103220003DE04EE95EE0C6010E940E161F5F1134BC
:10323000D4F410936301DE5FD134C4F4D0936201FF
:10324000CE5FC134B4F4C0930101DF91CF911F91DF
:103250000F91EF90DF90CF90BF90AF909F908F90A5
:103260007F906F90089510926301E5CF10926201F4
:10327000E7CF10920101E9CFEF920F93DC01149692
:10328000ED91FC913297E730F105C0F4E65BF64E24
:103290000C94652C7A195119611966196B197019FA
:1032A000751925E332E048E454E0FC0106816281AF
:1032B0007381E02E808191810E940E160F91EF9014
:1032C00008952DEB31E04EEC53E0EFCF2FE431E0E9
:1032D0004EE553E0EACF2FEF30E04CE053E0E5CF8E
:1032E0002FEA30E04AEB52E0E0CF2CEA30E045EB49
:1032F00052E0DBCF24EA3BE144E45CE1D6CFEF923D
:10330000FF920F931F93CF9310E000E080E8E82E28
:10331000F12CC09181014C2FB80190E080E00E9417
:10332000AD11B8016F5F7F4F4C2FC7018C1B910906
:103330000E94AD110E5F1F4F0034110551F781E05F
:10334000CC2321F0C450C093810180E0CF911F9124
:103350000F91FF90EF9008958F929F92AF92BF923E
:103360000F931F93CF93DF93CDB7DEB7A1970FB61F
:10337000F894DEBF0FBECDBF19A2423008F44AE078
:103380008E010F5D1F4F842E912CB12CA12CA50115
:1033900094010E94142CE62FB901CA01EA3044F5C9
:1033A000E05DD801EE938D01232B242B252B79F79B
:1033B00090E080E0109769F0FD0101900020E9F7AE
:1033C0003197AF014A1B5B0BBD0189E896E00E9473
:1033D0004E14A1960FB6F894DEBF0FBECDBFDF919D
:1033E000CF911F910F91BF90AF909F908F900895B4
:1033F000E95CD7CFEF92FF920F931F9380919006D5
:10340000909191064E9690936501809364012D985A
:1034100084E6E82EF12C07E114E024E630E043E9ED
:1034200052E064E670E088E891E00E94E61504EC62
:1034300010E024E630E04AE451E064E670E08BE01E
:1034400092E00E94E6151F910F91FF90EF90089572
:103450000C94CC2BCF92DF92EF92FF926B017C0108
:10346000C114D104E104F10441F00E94742BA701BE
:1034700096010E94E22B6B017C01C701B601FF900F
:10348000EF90DF90CF900895CF93DF93EC016AE047
:1034900070E080E090E00E942A1A625E7F4F8F4FBA
:1034A0009F4F609378016DE370E080E090E00E94B0
:1034B0002A1A665E7F4F8F4F9F4F7983688384EE11
:1034C0009FEF9B838A83DF91CF910895CF93DF9302
:1034D000EC016AE070E080E090E00E942A1A665FEA
:1034E0007F4F8F4F9F4F609379016DE370E080E0D5
:1034F00090E00E942A1A665E7F4F8F4F9F4F79831C
:10350000688384EE9FEF9B838A83DF91CF91089538
:10351000FF920F931F93CF93DF93EC01F62E088158
:103520001981C8010E94CC2BF81621F06F2DC8011B
:103530000E94D42BCE01DF91CF911F910F91FF906C
:1035400008950F931F93CF93DF9300D0CDB7DEB7CD
:1035500082E990E09A83898309E915E0F8016081A6
:10356000CE0101960E94881A83E990E09A838983AC
:10357000F8016181CE0101960E94881AC8010F905E
:103580000F90DF91CF911F910F9108951F920F928D
:103590000FB60F9211248F939F938091E100909129
:1035A000E100937F9093E10083FF0FC01092E90048
:1035B00091E09093EB001092EC0092E39093ED0079
:1035C0001092980198E09093F00082FF22C093E05F
:1035D0009093E9009091F200992319F09AE3909367
:1035E000E80090918901992341F0909189019150CF
:1035F00090938901911101C05D9A9091970199234F
:1036000041F090919701915090939701911101C0D1
:10361000289A84FF18C08091E2008E7E816080939A
:10362000E2008091E1008F7E8093E10080918A0129
:103630008E7E806180938A019F918F910F900FBE43
:103640000F901F90189580FFF7CF8091E2008E7E3B
:1036500080618093E2008091E1008E7E8093E100A2
:1036600080918A018E7E8160E5CF1F920F920FB606
:103670000F921124CF92DF92EF92FF920F931F933C
:103680002F933F934F935F936F937F938F939F936A
:10369000AF93BF93EF93FF93CF93DF93CDB7DEB795
:1036A0006C97DEBFCDBF1092E9008091E80083FFE8
:1036B00025C068E0CE0145960E94401482EF8093B9
:1036C000E8008D8987FF39C09091E80090FFFCCF1A
:1036D000982F907609F034C19E894F89588D2F8993
:1036E000F88C911131C0803861F580918801809308
:1036F000F1001092F1008EEF8093E8006C960FB607
:10370000F894DEBF0FBECDBFDF91CF91FF91EF9157
:10371000BF91AF919F918F917F916F915F914F91E9
:103720003F912F911F910F91FF90EF90DF90CF90DD
:103730000F900FBE0F901F9018959EEF9093E8008A
:10374000C7CF1092F100D5CF913059F48111D3CF6A
:103750004130510581F6809188018D7F80938801E9
:10376000CACF933049F48111C6CF4130510519F6C3
:10377000809188018260F2CF953041F48091E80019
:1037800080FFFCCF20682093E300B5CF963009F08E
:10379000A9C00B8D1C8D22E01092E90010928601C9
:1037A00010928501F2122EC01092840110928301B2
:1037B0000E940F141F8299E09983FA8291E09E8300
:1037C00090EA98879AEF9987209185013091860138
:1037D000275F3F4F3C832B838D831092E90010922B
:1037E000860110928501109384010093830149E0C2
:1037F00050E0BE016F5F7F4F80E00E94E9130E949E
:103800000F1479CF10938401009383010E94F31267
:10381000DC0112960D911C910115110509F451C19D
:10382000D801ED91FC910480F581E02DBE016B5E25
:103830007F4FC8010995009709F03EC1F801008546
:103840001185EACFF3E0FF120EC08F89882309F4B7
:1038500040C0823061F440E867E080EE92E20E946E
:10386000B613811148CF81E28093EB0047CF8130BE
:1038700029F440E86BE084ED92E2F1CF833099F7D0
:103880000E94F312DC011296ED90FC908E010F5F06
:103890001F4F6801E114F10479F0D701ED91FC911B
:1038A0000680F781E02DB801C7010995080F111DA9
:1038B000F701E084F184EECFD8011C92F60101906B
:1038C0000020E9F73197BF016C197D0940E0C6017E
:1038D000C6CF6EEB72E2FB01449150E080E80E949B
:1038E000E91309CF973009F4BECF983021F481E075
:1038F0008093F10000CF993009F0FDCE837009F07C
:10390000B2CFE5E1F1E081E031E096E321912223BD
:1039100071F08093E9003093EB00DF0111972C9157
:103920002093EC009093ED008F5F873079F78EE75E
:103930008093EA001092EA008F8980939801DBCE91
:103940008B8D9C8D1092E90010928601109285015A
:103950009093840180938301898D811192C08E8917
:103960009D89913A49F4813209F07DCF47E050E0DA
:1039700068E071E080E0B3CF913209F074CF833218
:1039800069F48F89988DB0E0A0E080930401909352
:103990000501A0930601B0930701ADCE803269F412
:1039A0008091E80082FFFCCF67E088E091E00E9410
:1039B00040148BEF8093E8009ECE823209F09BCEBC
:1039C0008F8980930F01EEEFFFE7859194918B3FF4
:1039D0009C4D51F1E0E0F8E08091080190910901DF
:1039E000A0910A01B0910B01803B9440A105B10563
:1039F000F1F480910F0180FD1AC0EE3F8AE0F807D4
:103A000089F587E797E791838083809160008093B1
:103A1000870188E19BE00FB6F894A8958093600039
:103A20000FBE9093600067CEEEEFFAE0D5CF8081B5
:103A300091818737974709F05ECEA8958091600005
:103A40008861809360008091870180936000EE3FE1
:103A50002AE0F20789F08091FE0A9091FF0A918393
:103A6000808349CE808191818737980751F2909366
:103A7000FF0A8093FE0AC5CF1092FF0A1092FE0A39
:103A80003ACE0E94F312DC0112960D911C910115A1
:103A9000110509F4E8CED801ED91FC910190F08177
:103AA000E02DBE016B5E7F4FC8010995811123CEC9
:103AB000F80100851185EBCF181619060CF41BCE02
:103AC000D2CEF1E0FF12BECE62EC72E204CF0F92D2
:103AD0000FB68F939F93EF93FF93809157018D5F64
:103AE0008D3708F08D5780935701EDE5F1E0808127
:103AF0008E4F808391819F4F918382818F4F8283EC
:103B000083818F4F8383E8E5F1E080818F5F80833D
:103B100081818F4F818382818F4F828383818F4FF9
:103B200083838FB18F6066991C9B88278F3681F4C1
:103B300080915601981B963068F0E0E0F8E087E746
:103B40008083818388E180936000F0936000FFCFE1
:103B500090935601FF91EF919F918F910FBE0F901F
:103B600018951F920F920FB60F9211242F933F9327
:103B70004F935F936F937F938F939F93AF93BF9375
:103B8000EF93FF938091520190915301A0915401C2
:103B9000B0915501892B8A2B8B2B09F440C0809161
:103BA000510181110BC088B190E4892788B98091B7
:103BB0005001882319F08BB180588BB98091520144
:103BC00090915301A0915401B09155011816190616
:103BD0001A061B069CF48091520190915301A0910A
:103BE0005401B09155010197A109B1098093520187
:103BF00090935301A0935401B0935501FF91EF911D
:103C0000BF91AF919F918F917F916F915F914F91F4
:103C10003F912F910F900FBE0F901F9018950E940B
:103C20003E15ECCF0F931F93CF93DF938C0181E070
:103C300090E00E94281A80FF31C08AE090E00E9444
:103C4000281A9FEF980F9E3F48F522E330E0D801F5
:103C500050963C932E931F9728E330E052963C9366
:103C60002E935197CBE0D0E0D801ED91FC910190DB
:103C7000F081E02D682FC8010995CE010E94281A15
:103C80002196C131D10581F70E94EF1188EE93E0B2
:103C9000DF91CF911F910F910C947B14DF91CF9105
:103CA0001F910F91089504970C94121EEBE9F5E013
:103CB0001382128288EE93E0A0E0B0E084839583C3
:103CC000A683B7838FE191E0918380838FEF9FEF8D
:103CD00095878487E9E8F6E01382128211861286BE
:103CE00080E1838710861782158681E391E09183B6
:103CF00080838FE391E095838483108A1786128AEC
:103D0000118A81E0838B148A858B168A8FE991E171
:103D10009093FA058093F90580E090E89093F80578
:103D20008093F70546983E9A5F98579A80E7E8E1B6
:103D3000F6E0DF011D928A95E9F710928806EBEF15
:103D4000F5E08CE1DF011D928A95E9F7148E089564
:103D5000CDB7DEB72F97DEBFCDBF789483E084BDAB
:103D600083E085BD81E080936E00E1E8F0E083E0D0
:103D70008083E0E881E08083E1E983E08083E0E91B
:103D800081E08083E1EC87E08083E3EC81E0808365
:103D9000E0EC82E08083E2EC81E08083EAE787E088
:103DA000808380688083109298011092880110921D
:103DB0008A018091D70081608093D70080EA809348
:103DC000D80089B5806189BD89B5826089BD09B493
:103DD00000FEFDCF81E090E00E947B148091D8002E
:103DE0008F7C80618093D8008091E000807F8093F9
:103DF000E0008091E1008E7E8093E1008DE0809371
:103E0000E200559A209A81EC80937C0081E785B985
:103E100087E684B985E38BB98FE38AB9769A6E9881
:103E200080EF81BB10BA80E58CBD81E08DBD85E05F
:103E30000E941217599A85E00E9412175C98ECECC8
:103E4000FDE085918EBD00000DB407FEFDCFE63D7F
:103E5000C1F75C9A81E88093640081E080936500FB
:103E60000E94EF110E94151702E010E087FF10C0BA
:103E700085EA0E941D172E9858982D98809164000D
:103E800080628093640081E083BF889513BEFCCF7D
:103E90000E94151782FF3DC02D980E941517847847
:103EA0008438B9F40E94101788EC0E9412175898B1
:103EB0001A8309836FEFCE0101960E94881A84EF5E
:103EC00091E00E947B14589A0E94151784788438D8
:103ED000D9F30E94151784718431B9F40E94101728
:103EE00088EC0E9412172E981A83098360E0CE0195
:103EF00001960E94881A84EF91E00E947B142E9A0A
:103F00000E94151784718431D9F388EC0E9412172E
:103F1000BFCF0E94101782E090E00E94281A8823E9
:103F200009F44EC03E9A579A81E080935C010E944A
:103F3000E21110929B0610929A0610929906109226
:103F4000980680E990E00E94281A182F81E990E0F5
:103F50000E94281A1C34C9F58A35B9F582E990E027
:103F60000E94CC2B8093990583E990E00E94CC2B92
:103F700080939A0580E1809394068E010F5F1F4F16
:103F800028019E012A5F3F4F3987288764EE862EDD
:103F900099249A9490915D0180919506392F381B50
:103FA000832F20919606222389F130939706109251
:103FB000960680E090E0892B69F30E940000EACF2A
:103FC00010925C013E985798B2CF10929A051092C9
:103FD000990580E990E09A8389836CE4CE0101968B
:103FE0000E94881A81E990E09A8389836AE5CE016C
:103FF00001960E94881A6091990582E990E09A835F
:104000008983CE0101960E94881AB4CF209194062C
:10401000321740F48F5F821760F681E083BF889586
:1040200013BEC7CF11E01093960690939506E0E972
:10403000F6E0808191810196808391838091920640
:10404000809393060E941517809392060E94E211B6
:1040500010929B0610929A0610929906109298065A
:1040600080918201811132C04CE75EE170E060E036
:1040700090E080E00E940C1210E000E050E8E52E95
:10408000F12CD09081014D2DB80190E080E00E948C
:10409000AD11B8016F5F7F4F4D2DC7018D1991098B
:1040A0000E94AD110E5F1F4F0034110551F7D7FC70
:1040B00006C0D394D09281010E94EF117ACF80E89C
:1040C0008093810181E080938201F6CF813009F0F5
:1040D00041C0E12C00E023E03DE140E85DE168E023
:1040E00070E084E390E00E940E1685E290E09093E9
:1040F00099068093980681E390E090939B068093C5
:104100009A0689EF9CE10E94831880919006909115
:10411000910668E770E00E94512C892B59F401E068
:1041200023E03DE140E85DE168E070E084E390E099
:104130000E940E160E947F19882309F4BDCF88E0E3
:104140000E94A211882309F4B7CF80E880938101EF
:1041500082E0B9CF823009F06CC180918001811179
:1041600022C184E00E94A2118111109380018091EC
:104170009006909191066FE070E00E94512C892B7F
:1041800041F480917F018F5F853008F04FC18093AB
:104190007F0110917F01E12E012F24EA3BE144E4ED
:1041A0005CE16FE170E087E190E00E940E1624EA86
:1041B0003BE144E45CE16FE170E089E590E00E945E
:1041C0000E1644EA57E170E060E090E080E00E9463
:1041D0000C120E947F1988E00E94A211882309F422
:1041E0006BCF809164008E7F8093640080917A0011
:1041F000806480937A0080917A0086FDFCCF0091E4
:104200007800109179000E941215AB01BC01C80121
:10421000B0E0A0E0DC01992788278C019D01040F04
:10422000151F261F371FC901B801209164002160A6
:1042300020936400611571058105910511F00E94BC
:10424000C32B10927E0110927D0181E080930301C7
:1042500013E01093020110927C0110927B011092E6
:104260007A016AE070E080E090E00E942A1A665FBE
:104270007F4F8F4F9F4F609379016AE070E080E03D
:1042800090E00E942A1A665F7F4F8F4F9F4F609386
:10429000780186E390E0909372018093710188E247
:1042A00090E0909374018093730181E090E090938B
:1042B00076018093750110927701109288066DE364
:1042C00070E080E090E00E942A1A665E7F4F8F4F78
:1042D0009F4F7A8369839C828B8222E030E03E8309
:1042E0002D831F82C2010E94A2126DE370E080E064
:1042F00090E00E942A1A665E7F4F8F4F9F4F7A830D
:1043000069839C828B8244E050E05E834D831F82F0
:10431000C2010E94A2126DE370E080E090E00E9472
:104320002A1A665E7F4F8F4F9F4F7A8369839C82E4
:104330008B8284E090E09E838D831F82C2010E9465
:10434000A2126DE370E080E090E00E942A1A665E9F
:104350007F4F8F4F9F4F7A8369839C828B8286E049
:1043600090E09E838D831F82C2010E94A2126DE3A2
:1043700070E080E090E00E942A1A665E7F4F8F4FC7
:104380009F4F7A8369839C828B8287E090E09E8333
:104390008D831F82C2010E94A2121093820180E8C5
:1043A0008093810189CE80E10E94A2118823B1F11E
:1043B00010929A05109299050E94A11A10928001FC
:1043C00042E3E42EF12C0DE41AE022E330E047E270
:1043D00055E062E370E083E992E00E94E61580E137
:1043E00090E0909399068093980601E010E0109376
:1043F0009B0600939A068FEE9CE10E94831882E44C
:1044000090E0909399068093980610939B060093F2
:104410009A0686EE9CE10E948318A9CE84E00E9451
:10442000A2118823E1F210928001D9CF10927F016E
:10443000B0CE833009F020C7A0917D01B0917E01FC
:10444000BB87AA870E94151785FF0CC08091710158
:1044500090917201833191052CF001979093720134
:10446000809371010E94151786FF0CC08091710125
:10447000909172018C3591052CF401969093720104
:10448000809371010E94151787FF0CC08091730102
:10449000909174018B3091052CF0019790937401E9
:1044A000809373010E94151784FF0CC080917301E3
:1044B00090917401813391052CF4019690937401CD
:1044C0008093730188E00E94A211882389F1809172
:1044D0001706843069F12091730130917401B7E0BF
:1044E0008B9FF0011124E550FA4F409171015091DA
:1044F0007201495F5F4F51834083225031093383FA
:10450000228328E030E03583248316828F5F8093F6
:10451000170628ECE22EF12C01E410E024E630E04E
:1045200043E850E062E370E08BE092E00E94E61521
:1045300084E00E94A211882391F096E4E92EF12CE8
:1045400007E215E022E330E04BE452E066E470E07D
:1045500086E091E00E94E61585E0809382018091DB
:10456000680190916901009761F020919006309167
:1045700091062817390728F02E9A10926901109297
:1045800068018091660190916701009761F0209128
:104590009006309191062817390728F0589A109202
:1045A0006701109266018091640190916501009706
:1045B00069F020919006309191062817390730F064
:1045C0000E941017109265011092640180916A0197
:1045D00090916B01009771F02091900630919106B7
:1045E0002817390738F086EA0E941D1710926B01D0
:1045F00010926A0120917901222369F0809190063E
:10460000909191066CE370E00E94512C892B19F473
:1046100021502093790120917801222369F0809123
:104620009006909191066CE370E00E94512C892BCA
:1046300019F4215020937801B12C87E0D82E809175
:104640008806B81608F05BC26B2C712CD69CF00162
:10465000D79CF00D1124E85EF94F44815581443018
:10466000510509F432C10CF07DC04230510509F406
:1046700088C0A0901706EBEFF5E0FF87EE87C12C0E
:10468000D69CF001D79CF00D1124E85EF94F1F0174
:1046900004E0200E311CAF014E5F5F4FAC1409F4F3
:1046A0002CC2D1010D911C910430110509F4A7C150
:1046B0000630110509F4AFC10230110509F016C228
:1046C000208131812F5F3F4FDA018D919C910196BE
:1046D000BDE0BD876FE06C87AE85BF856D917C9135
:1046E0007B01B3E0EB0EF11C2E153F050CF0FEC173
:1046F000AC852A0F311D621773070CF0F7C1AE8528
:10470000BF8512962D913C91B9016A5F7F4F861744
:1047100097070CF0EBC1BD858B0F911D281739074A
:104720000CF0E4C10230110509F481C10430110517
:1047300009F4A6C120911706215020931706CD9C9D
:10474000C001112485509A4FC21608F0D6C137E037
:10475000FC013796DC0101900D923A95E1F7C39484
:104760000796F2CFCA010697029708F082CF208100
:1047700031812D5F3F4F8281938103966CE07CE015
:1047800009C0208131812F5F3F4F82819381019643
:104790006DE07FE0E0917101F0917201DF011B9605
:1047A0002A173B070CF065CF3696270F311DE2170D
:1047B000F3070CF05ECF2091730130917401F90181
:1047C00039968E179F070CF054CF2C5F3F4F860F02
:1047D000911D281739070CF04CCFBD9CC001112446
:1047E000885E994F4430510509F487C00CF077C0BA
:1047F0004230510509F03DCF80917D0190917E01BD
:10480000059690937E0180937D0180917B0190912C
:104810007C018230910510F482E090E00297909341
:104820007C0180937B0180917A018F5F80937A0174
:104830008F3004F1809102018F5F8093020180919B
:104840009006909191064E96909367018093660131
:10485000589804E6E02EF12C0AE914E124E630E051
:104860004DE45AE064E670E087E295E00E94E615C8
:1048700010927A01D69C8001D79C100D1124085EFD
:10488000194FE2EFFFEFD8011396FC93EE931297C6
:104890006DE370E080E090E00E942A1A665E7F4F30
:1048A0008F4F9F4FD8016D937C9310E5E12EF12C33
:1048B00003E912E020E530E04AE451E060E570E011
:1048C00085EA90E00E94E615D4CE208131812F5FE9
:1048D0003F4F8281938144966DE07DE05BCF46300F
:1048E000510509F46DC04730510509F0C2CE0E9450
:1048F000441A81E080936F0174C08091020181505D
:104900008093020180917B0190917C010496893211
:10491000910508F04EC090937C0180937B01B4E632
:10492000EB2EF12C01E410E024E630E043E850E007
:1049300064E670E086E091E00E94E61587EA0E9456
:104940001D172E9880919006909191069C012E5FE4
:104950003F4F30936B0120936A014E96909369010B
:10496000809368018091020187FF09C081E08093F4
:10497000030184E08093820186EA0E941D17D69C81
:104980008001D79C100D1124085E194FD801139691
:104990009C928E9212976DE370E080E090E00E940E
:1049A0002A1A665E7F4F8F4F9F4FF8017183608395
:1049B00060CEE8E2F0E0F0937C01E0937B01AFCFC2
:1049C00020917B0130917C012431310510F424E1E8
:1049D00030E02451310930937C0120937B010E9407
:1049E000661AA4E6EA2EF12C0AE914E124E630E086
:1049F0004DE45AE064E670E087E295E063CF208101
:104A000031812F5F3F4FDA018D919C914496BDE03B
:104A1000BD876DE060CE208131812D5F3F4FDA018F
:104A20008D919C910396BCE0BD876CE054CE809143
:104A30007D0190917E018A30910510F48AE090E02A
:104A40000A9790937E0180937D01D69CF001D79CBC
:104A5000F00D1124E85EF94F03E010E015830483A4
:104A6000F4E6EF2EF12C06E011E024E630E046E01B
:104A700051E064E670E086E091E00E94E6155ACECF
:104A800080917D0190917E010A9690937E018093A2
:104A90007D01D69CF001D79CF00D1124E85EF94F02
:104AA00025E030E0358324836DE370E080E090E022
:104AB0000E942A1A665E7F4F8F4F9F4F7A836983C9
:104AC0009C828B821E830D831F82C2010E94A212D0
:104AD000E4E6EE2EF12C01E210E024E630E041E4C1
:104AE00050E064E670E083E890E0C7CFC3948E8521
:104AF0009F8507969F878E87D1CDB394A0CD00E088
:104B000017E047E0642E5EE1252E312C65E0C62ECD
:104B1000D12C73E0772E90918806091708F096C182
:104B2000E02EF12C019FD0011124A85EB94F1496FC
:104B3000ED91FC9115973297E730F10508F089C0A7
:104B4000EC55FA4D0C94652CAB25ED252B265726FC
:104B5000AE26CB26DF261E9DC0011F9D900D112481
:104B6000DC01A85EB94F5D012091030112968D9181
:104B70009C911397820F911D27FD9A950196813480
:104B80009105D4F413969C938E931297809190067E
:104B90009091910667E070E00E94512C892B09F0FA
:104BA00058C01E9DF0011F9DF00D1124E85EF94FC5
:104BB00086818F5F8170D0C0FD01938282826DE318
:104BC00070E080E090E00E942A1A665E7F4F8F4F6F
:104BD0009F4FD5016D937C93D9CF1E9DC0011F9D22
:104BE000900D1124FC01E85EF94F7F0182819381D1
:104BF000019793838283843E9F4FC4F4D701139619
:104C00009C928E9212976DE370E080E090E00E949B
:104C10002A1A665E7F4F8F4F9F4FF7017183608323
:104C200022E030E035832483168213C08091900601
:104C300090919106B6010E94512C892B51F4D70115
:104C400016968C9116978F5F672D0E94452C1696AD
:104C50009C930F5F60CF1E9DC0011F9D900D11247E
:104C6000FC01E85EF94F5F0120910301828193818D
:104C7000820F911D27FD9A958134910544F4938309
:104C800082838091900690919106B60185CF9382A0
:104C900082826DE370E080E090E00E942A1A665EF6
:104CA0007F4F8F4F9F4FF50171836083EACF1E9D29
:104CB000F0011F9DF00D1124E85EF94F2281338130
:104CC0002F5F3F4F3383228321343105B4F1A8E1B4
:104CD000B6E080E0981709F4BCCF14964D915C9132
:104CE00015974530510579F46D917C91119740816C
:104CF00051816417750739F412964D915C911397A1
:104D00002417350719F08F5F1796E4CF91509093D1
:104D10008806869D90011124285E394F891708F076
:104D200098CF47E0F9013796D90101900D924A9545
:104D3000E1F78F5F295F3F4FF1CF8091900690910F
:104D40009106B6010E94512C892B09F082CF8681F1
:104D50008F5F843008F068CF86837BCF80917901A4
:104D6000811113C01E9DF0011F9DF00D1124E85EFE
:104D7000F94F828193818134910524F401969383C4
:104D8000828303C0CD010E94661A809190069091A3
:104D90009106B10101CF809178018111F6CF1E9D5E
:104DA000F0011F9DF00D1124E85EF94F828193817F
:104DB000813491051CF3CD010E94441AE6CF1E9D5B
:104DC000F0011F9DF00D1124E85EF94F828193815F
:104DD00070911706ABEFB5E060E08D30910524F0DF
:104DE00001979383828335CF761709F432CF1496D7
:104DF0002D913C9115972830310579F44D915C91B6
:104E00001197208131814217530739F412962D9161
:104E10003C9113978217930719F06F5F1796E4CFB1
:104E2000715070931706669DC001112485509A4FEA
:104E3000671708F00ECF27E0FC013796DC010190E0
:104E40000D922A95E1F76F5F0796F2CF8091900659
:104E500080FD06C0809177018F5F8170809377011C
:104E600080E047E090911706891738F5489FF001D8
:104E70001124E550FA4F228133812D30310534F071
:104E800021503109338322838F5FECCF915090936F
:104E90001706849F9001112425503A4F582F591717
:104EA00098F767E0F9013796D90101900D926A955C
:104EB000E1F75F5F295F3F4FF2CF809190069091BD
:104EC00091066CE370E00E94512C892B49F480918B
:104ED0007B0190917C01029690937C0180937B01F1
:104EE00080917B0190917C01899718F084E08093F8
:104EF000820180916F018823E1F090918806E8E1BA
:104F0000F6E080E0981761F0248135812430310586
:104F100021F402E010E0158304838F5F3796F2CF0F
:104F200080916C0190916D01019690936D01809339
:104F30006C0180916C0190916D01803E914000F177
:104F400020918806E8E1F6E080E090E0281779F00B
:104F5000448155814230510539F4923028F444E0BF
:104F600050E0558344839F5F8F5F3796EFCF109259
:104F70006F0110926D0110926C012E9A0E94101711
:104F80002091900630919106C9016EE170E00E9477
:104F9000512C892B41F4809170018F5F823008F091
:104FA0005CC08093700180916F01882339F1C90141
:104FB00063E070E00E94512C892B61F4E12C00E049
:104FC00025EA35E143EF55E169E170E081E390E0E6
:104FD0000E940E16809190069091910666E070E016
:104FE0000E94512C892B51F480916E0191E0892708
:104FF00080936E018823A1F12E982D980E94A3180A
:10500000E12C00E023E436E14DE656E16FE070E08C
:1050100087E790E00E940E16A0907B01B0907C0183
:1050200009E710E07501FF2451E1E50EF11C31E1C3
:10503000C32ED12CC70161E4E616F10414F080E41C
:1050400090E0C816D90684F440E0B601C8010E9479
:1050500025178FEFC81AD80AEDCF10927001A3CF91
:105060002E9A0E941017CACF0F5F1F4F0C371105E1
:10507000F1F610E007E080918806181748F4109FB9
:10508000C0011124885E994F0E943C191F5FF3CF25
:1050900000917701C0907301D0907401609071010C
:1050A00070907201E02E29E936E14DED56E1B6012E
:1050B000C3010E940E1610E007E080911706181732
:1050C00048F4109FC001112485509A4F0E943C194A
:1050D0001F5FF3CF9FE1A916B10488F080917001A2
:1050E00081110DC0B6016A5F7F4FE12C00E023E221
:1050F00037E14BE557E1C30104970E940E1610E01B
:1051000000E0F12CE12C40E0B701C8010E94251716
:10511000AFEFEA1AFA0ABAE0EB16F104A1F70F5F53
:105120001F4F0038110569F781E090E090939906D0
:105130008093980610929B0610929A068DE997E14B
:105140000E94831885E290E09093990680939806D8
:1051500010929B0610929A0680917D0190917E019B
:10516000F2012AE030E0B9010E94512C8193CB0179
:10517000088519850E171F07B1F78E010A5F1F4FAB
:10518000D8016E918D0170E090E080E04AE00E94CD
:10519000AC1940165106A1F78EE490E09093990661
:1051A0008093980610929B0610929A0685E997E1E3
:1051B0000E94831888E790E0909399068093980660
:1051C00010929B0610929A06C09002010C2C000CC3
:1051D000DD08EE08FF084AE0C701B601F7FE0DC082
:1051E0006DE289E896E00E94811766277727CB0158
:1051F0006C197D098E099F094AE00E94AC1941E0B3
:1052000069E070E089E090E00E94401740E06AE0C9
:1052100070E08AE090E00E94401780917D019091BB
:105220007E018235B3E09B0770F0EA85FB85E235AD
:10523000F34010F00C945C2082E0809303010E9404
:10524000FA190C945C208A3812E0910748F02A85FC
:105250003B852A38324010F00C945C2081E0EDCF81
:10526000843F914010F40C945C208A859B85843F98
:10527000914010F30C945C20843009F0DEC02E9A2B
:10528000589A0E94101780917D0190917E01209183
:10529000990530919A052817390730F490939A05AB
:1052A000809399050E94A11A0E94A31810E000E0C3
:1052B00020E1E22EF12C40E0B701C8010E94251741
:1052C000BFEFEB1AFB0AEFE2EE16F104A1F70F5F56
:1052D0001F4F0038110561F741E061E170E081E1A5
:1052E00090E00E94401741E06DE270E08DE290E0B6
:1052F0000E94401740E060E370E080E390E00E948D
:10530000401740E062E370E082E390E00E944017C3
:1053100085E290E0909399068093980685E090E06E
:1053200090939B0680939A068BE995E10E948318DF
:105330008EE190E0909399068093980607E110E043
:1053400010939B0600939A0684E995E10E948318C6
:1053500081E490E0909399068093980610939B06C1
:1053600000939A0680917D0190917E0182012AE04E
:1053700030E0B9010E94512CD8018D938D01CB01F1
:10538000E885F985AE17BF07A1F77D016D01D6014C
:105390006E916D0170E090E080E04AE00E94AC19EF
:1053A000C414D504A1F78FE090E090939906809300
:1053B000980691E2C92ED12CD0929B06C0929A06F3
:1053C00088E895E10E94831881E590E09093990622
:1053D00080939806D0929B06C0929A068091990578
:1053E00090919A05F2012AE030E0B9010E94512C17
:1053F0008193CB01E017F107C1F7F70162917F01BB
:1054000070E090E080E04AE00E94AC194E145F0426
:10541000A1F7E12C00E022E035E144E455E164E34A
:1054200070E08EE290E00E940E1684E00E94A211CD
:1054300081110C94A8200C945C20853011F00C9400
:105440005C20109163011A87012F110F110B4AEF95
:1054500050E1B8018DEF9FEF0E940C12B80160542B
:1054600071094AEF50E18DEF9FEF0E940C12F0900E
:1054700062012F2C0F2C000C330860906101062C68
:10548000000C7708E12C00E028E63FE040E350E123
:10549000B101C3010E940E1610910101A12E012E2F
:1054A000000CBB08C09000010C2C000CDD0826EDA0
:1054B0003DE04EE95EE0B501C6010E940E16B10165
:1054C0006054710928E63FE040E350E1C3010E94C7
:1054D0000E16B5016054710926ED3DE04EE95EE01F
:1054E000C6010E940E16B101605C7F4F28E63FE0C6
:1054F00040E350E1C3010E940E16B501605C7F4F8E
:1055000026ED3DE04EE95EE0C6010E940E168A855A
:105510008F5F81340CF090C08093630182E08F0D27
:1055200081340CF08CC0809362011E5F11340CF04A
:1055300089C01093010110E000E088E1E82EF12C11
:1055400040E0B701C8010E9425172FEFE21AF20AC6
:105550003CE2E316F104A1F70F5F1F4F003811057D
:1055600061F741E069E170E089E190E00E94401755
:1055700041E06AE270E08AE290E00E94401740E079
:105580006DE270E08DE290E00E94401740E06FE233
:1055900070E08FE290E00E94401781E390E09093EA
:1055A0009906809398068FE190E090939B068093F4
:1055B0009A068CEF94E10E94831880919006909156
:1055C00091066FE070E00E94512C892B39F4809194
:1055D0007F018F5F8530C8F580937F0110917F0137
:1055E000E12E012F24EA3BE144E45CE16BE170E051
:1055F0008CE190E00E940E1624EA3BE144E45CE179
:105600006BE170E082E590E00E940E168FE090E082
:10561000909399068093980685E290E090939B067C
:1056200080939A0684E00E94A211882311F40C94BE
:105630005C2083E00C946320109263016FCF109282
:10564000620173CF1092010176CF10927F01C6CF15
:105650008F929F92AF92BF92CF92DF92EF92FF9282
:10566000CF93DF93EC01688179818A819B816115F9
:1056700071058105910521F464E279ED8BE597E0F0
:105680002DE133EF41E050E00E94E22B49015A0145
:105690009B01AC01A7EAB1E40E94012C6B017C01E3
:1056A000ACEEB4EFA50194010E940F2CC60ED71EDC
:1056B000E81EF91EF7FE06C081E0C81AD108E1080D
:1056C00080E8F80AC882D982EA82FB82C701B60163
:1056D0009F77DF91CF91FF90EF90DF90CF90BF90B9
:1056E000AF909F908F9008958F929F92AF92BF92AC
:1056F000CF92DF92EF92FF926091100170911101B1
:105700008091120190911301611571058105910538
:1057100021F464E279ED8BE597E02DE133EF41E090
:1057200050E00E94E22B49015A019B01AC01A7EA1B
:10573000B1E40E94012C6B017C01ACEEB4EFA50139
:1057400094010E940F2CC60ED71EE81EF91EF7FE0C
:1057500006C081E0C81AD108E10880E8F80AC092C2
:105760001001D0921101E0921201F0921301C701D1
:10577000B6019F77FF90EF90DF90CF90BF90AF90F2
:105780009F908F9008956093100170931101809302
:105790001201909313010895F999FECF92BD81BD36
:1057A000F89A992780B50895262FF999FECF1FBA48
:1057B00092BD81BD20BD0FB6F894FA9AF99A0FBE3A
:1057C00001960895052E97FB1EF400940E94F92B74
:1057D00057FD07D00E94142C07FC03D04EF40C9404
:1057E000F92B50954095309521953F4F4F4F5F4F86
:1057F000089590958095709561957F4F8F4F9F4F3D
:1058000008950E94362CA59F900DB49F900DA49FE3
:10581000800D911D11240895B7FF0C94012C0E9456
:10582000012C821B930B0895A1E21A2EAA1BBB1B0D
:10583000FD010DC0AA1FBB1FEE1FFF1FA217B3075C
:10584000E407F50720F0A21BB30BE40BF50B661F72
:10585000771F881F991F1A9469F760957095809536
:1058600090959B01AC01BD01CF010895A29FB001AD
:10587000B39FC001A39F700D811D1124911DB29F84
:10588000700D811D1124911D0895991B79E004C0AC
:10589000991F961708F0961B881F7A95C9F780956F
:1058A0000895AA1BBB1B51E107C0AA1FBB1FA61767
:1058B000B70710F0A61BB70B881F991F5A95A9F7B9
:1058C00080959095BC01CD010895EE0FFF1F0590C6
:1058D000F491E02D0994F894FFCF67000301FFFFD6
:1058E000FFFF00E10000000000000100000000C117
:1058F00080810000000000000007138F1428131D92
:10590000136E132C134A130000000081174E14A0CD
:0C591000189F18121EFCFF0000531E0020
:1074000080E189BD82E189BD09B400FEFDCF089508
:10741000CAD569F08091E9008F931092E9009FD45A
:1074200083FF01C01ED58F9187708093E900089576
:107430008EEF0090E10008220092E1000895F20131
:10744000F999FECFF2BDE1BD0895F9DFF89A80B554
:1074500008C0F5DF1FBA80BD0FB6F894FA9AF99A02
:107460000FBE31962F010895E0E0F0E085919491F0
:10747000019608958AE28BB98BEA34D01092890084
:107480008AEF8093880082E080936F0083E080938E
:107490008100E7E5F7E785913AD0E336E1F781E04F
:1074A0008093D7008AE482BF1092D8001092E20045
:1074B0001092DA001092E10080E808D019BC1EBAE0
:1074C0001092E00062D489E053D481E98093D8001F
:1074D0000895A3E6B1E090E81AD08D939A95E1F76C
:1074E000089586E008D010C083E005D08F2F0FD01C
:1074F0008E2F0DD080E05B9A5A9809C005D085E0A8
:10750000FADF05D080FDFDCF5A9A5B9808958EBDB5
:107510008DB587FFFDCF8EB508958FE08221E9F705
:10752000F3DFE3E6F6E090EB5C98892FF0DF80E193
:10753000EEDF5C9A8191EBDF83E68E278F77D1F7C0
:107540009395983B89F70895E3E6F1E097FC36C000
:1075500094FC4DC092FE089596849920D1F3F8943E
:10756000C089D78520E030E080E090E4AFEFBFEF46
:10757000119689199040E0F72D01BD4F8D0127FD2F
:1075800013C0E0E0F8E011928EE7819392E4E117F6
:1075900091939AE508F092E4E334C9F7819310825D
:1075A000BFDFFE012196A0DF94DFF901FFD4205850
:1075B0003F4F040D151D9A9411F712C28301282D17
