:020000040000FA
:100000000C94F30E0C941B0F0C941B0F0C941B0FF1
:100010000C941B0F0C941B0F0C941B0F0C941B0FB8
:100020000C941B0F0C941B0F0C94D91C0C94481DA2
:100030000C941B0F0C941B0F0C941B0F0C941B0F98
:100040000C941B0F0C941B0F0C941B0F0C941B0F88
:100050000C941B0F0C941B0F0C941B0F0C947A1F09
:100060000C941B0F0C941B0F0C941B0F0C941B0F68
:100070000C941B0F0C941B0F0C941B0F0C941B0F58
:100080000C94C41F0C941B0F0C941B0F0C941B0F8F
:100090000C941B0F0C941B0F0C941B0F0C941B0F38
:1000A0000C941B0F0C941B0F0C941B0F9600580202
:1000B0000000C800640058020000C8003200E803D5
:1000C0000080DC0064000000190058026400000099
:1000D00019007003F40100002C01580264000000B4
:1000E0001900DC00640000001900580264000000E0
:1000F0001900DC00640000001900E80358020080C9
:1001000078006400008000B00000A170E150964FBC
:1001100026900F1D070C009669004AE44A004844E7
:100120004000806810000F99FB8F9DBDBBFB77D40A
:10013000D4DF1F1A1AFE7F5D5DFF805A0000A0A465
:10014000AA0010BA3400FF5953F3FF9B9B9EFFB9DE
:10015000B996FF9595D19FF4940FFC295F91FF18F4
:1001600038F8FF9294FFFF95D5F7BFB5DDD7F18F33
:1001700081F1F788C8F779C6467909FD9B09019690
:10018000F800828182805071620077565600767640
:100190003700A2B773010772060078275000733446
:1001A0007400775176007F55F70047711000324791
:1001B00072007364730015A2750061679400009F5C
:1001C0006060F4F2F6F2080B00020202000009047B
:1001D00000000102020000052400100105240101B5
:1001E000010424020605240600010705810310000E
:1001F0004009040100020A00000007050202400055
:1002000000070583024000000403090412010002F4
:10021000EF020140412336800001010203014172D7
:100220006475696E6F204C4C43004142413131305E
:1002300036008D14A1C881CFD9F102AF5810F0F863
:100240009C8E8783878E9CF8F00000FEFF030303DB
:100250000303070EFCF80000FEFF0303030303077C
:100260000EFCF80000FFFF00000000000000FFFF90
:100270000000FEFF8383838383C7EE7C380000F891
:10028000FC0E07030303070EFCF800003F7FE0C0ED
:100290008080C0E07F3FFFFF01010101010101FFFC
:1002A000FF0000FFFF0C0C0C0C1C3E77E3C10000AC
:1002B0007FFFC0C0C0C0C0E0703F1F00001F3F7084
:1002C000E0C0C0C0E0703F1F00007FFFC1C1C1C1DE
:1002D000C1E3773E1C00001F3F70E0C0C0C0E0706B
:1002E0003F1F000000000001FFFF01000000DC00D4
:1002F0006400000019005802640000001900700337
:10030000F40100801A060000060E0200060100003B
:10031000140C02001401011F050F011F15020A022F
:1003200000000506050E0401360D00000500000062
:100330000C1002000C0100001C0300003507010F27
:100340000604010F1A06010F2E09150708011506EC
:10035000110115081D01150B2701150330011A069F
:10036000011F0402140501011411010114160201F8
:100370001510050116050C011E0700000602012FCD
:100380000605140901011419010114260501152798
:10039000030117230601220800000E04140B0601B6
:1003A00014130701150E0301150C0801161A050197
:1003B0000A1E0401041E04012A0A00000A02012F79
:1003C00005011408010114160101141D030114256F
:1003D0000101150C0401151404011521050117076D
:1003E0000D01220800000408013F05021406010166
:1003F000141A0101141A010114270301170F060131
:10040000172006010E03011F0C07021F0C0118051F
:100410000C011A0600000602011F050A140501015D
:10042000140A010114170201170203012A0A00002D
:100430000509000015110200150100002412020038
:100440002401010F060B15070D01150515011509EE
:10045000190115051F0126090000060A15050701E7
:1004600015090901150C0B01150D0C0115140B01D3
:10047000151A0C0116100401081C080122080000BE
:10048000060D02000601012F0400022F04011409C9
:100490000101141D010114280101161806011E078F
:1004A000010F060E020F0601010F160C020F1601B6
:1004B000150D0501150A0A0115060E011E0700009B
:1004C000060D02000601012F0600022F0601141579
:1004D0000101170C0601172006011E070000050088
:1004E00014050201140D03011414010116030C017B
:1004F000161D0C01091E05011E07011F0402021F23
:1005000004011508040115060701140F0701160B55
:100510000D01161B0D012609013F050A023F0501C9
:1005200014190101142D01011437020115200401D1
:100530001628060117080301060703012A0A00000E
:100540000A1302000A01012F0C0A022F0C011405E4
:10055000010114150101142A080115190401160CD2
:100560000C01170C04011A06011F0212021F0201DE
:100570001903060119030A01191B06FF191B0AFFBB
:100580000808000000000018183C183C0018000083
:10059000000000000018183C3C7E3C7E183C00180F
:1005A00000000018183C183C183C183C183C183C3B
:1005B0000018080800000024247E183C183C247E03
:1005C00000240000004242EF087E207C043E107EA2
:1005D00042F7004208083C7E42FF99FFBDFFBDFF85
:1005E00099FF42FF3C7E10083C7E7EFF7EFF42FF6B
:1005F0003C7E7EFF7EFF42FF3C7E247E247E7EFF8B
:10060000DBFFA5FFA5FF40E53C7E7EFF7EFF42FFAE
:100610003C7E7EFF7EFF42FF3C7E247E247E7EFF6A
:100620005AFF5AFF5AFF247E00A5A5FFA5FFDBFF56
:100630007EFF247E247E3C7E42FF7EFF7EFF3C7E4A
:1006400042FF7EFF7EFF3C7E005A5AFF5AFF5AFF50
:100650007EFF247E247E3C7E42FF7EFF7EFF3C7E2A
:1006600042FF7EFF7EFF3C7E1008000000E0E0F0CD
:10067000F0F8F8FCFCFEFEFFFEFFF6FFF6FFFCFEC6
:10068000F8FCF0F8E0F000E00000000000F0F0F806
:10069000F8FCFCFEFCFEFEFFFEFFFEFFF6FFF4FE94
:1006A000FCFEF8FCF0F800F00000007070F8F8FCB8
:1006B000FCFEFCFEFCFEFCFEFCFEFCFEFCFEECFE7A
:1006C000ECFEFCFEF8FC70F80070000000F0F0F8A2
:1006D000F8FCFCFEFCFEFEFFFEFFFEFFF6FFF4FE54
:1006E000FCFEF8FCF0F800F00000000000000078CC
:1006F00078FCFCFEFEFFFFFFFFFFFBFFFBFFFEFFA2
:10070000FCFE78FC007800000000080800181CBE01
:10071000BCFE7AFFFFFFFFFFBEFF1CFE1C7E6EFFCC
:10072000FEFFFDFFBFFF7FFF76FF387E387C1C7F1A
:100730007DFFFFFFFFFFBEFF38FE1C3E66FFF3FF9D
:10074000BFFF3EFF7CFFFDFFCFFF66FF1CFEBEFF2D
:10075000FFFFFFFF7AFFBCFE1CBE001C387F76FF48
:100760007FFFBFFFFDFFFEFF6EFF1C7F1C3E38FEBC
:10077000BEFFFFFFFFFF7DFF1CFF387C66FFCFFF42
:10078000FDFF7CFF3EFFBFFFF3FF66FF0808F0FEA2
:100790000EFF083E30783078083E0EFFF0FEE0F0A5
:1007A00010FE0E3F307E307E0E3F10FEE0F8C0E0BF
:1007B00020FC1C7E70FC70FC1C7E20FCC0F0F8FF4E
:1007C00007FF041F183C183C041F07FFF8FF080828
:1007D00010383078387C387C3C7E3C7E3C7E387CDF
:1007E000387C3C7E3C7E3C7E387C387C30781038CF
:1007F0000808000101030307070F070F03070103A0
:10080000000100000007070F0F1F0F1F070F000751
:1008100000000018183C0C1E060F060F0C1E000CE2
:100820000000008080C0C0E0E0F0E0F0C0E080C0E8
:100830000080000000E0E0F0F0F8F0F8E0F000E008
:1008400000000808003C3C7E66FF5AFF5AFF66FF26
:100850003C7E003CDBFF83FF7BFF70FF85FFDDFFFD
:10086000DDFFD8FF003E1CFFBEFF00FF14FFBEFFF0
:100870001CFF003E183C247E247E183C083C387C3B
:10088000083C387C003C3C7E7EFF76FF42FF7EFFCA
:100890003C7E003C003C3C7E7EFF4AFF52FF7EFFD8
:1008A0003C7E003C083E227F087F5DFF087F227F60
:1008B000083E00080808081C0C1E0C1E0E1F0E1F08
:1008C0000C1E0C1E081C00000000000000FFFFFFB3
:1008D0007EFF187E001810383078307870F870F885
:1008E0003078307810380018187E7EFFFFFF00FF48
:1008F0000000000000000808FFFFA5FFFFFF00FF49
:1009000000000000000000000000000000000000E7
:1009100000FFFFFFA5FFFFFF070F050F070F050FE4
:10092000050F070F050F070FE0F0A0F0E0F0A0F0B3
:10093000A0F0E0F0A0F0E0F000FFFFFFA5FFFFFF58
:10094000FFFFA5FFFFFF00FF7EFF5AFF7EFF5AFF5C
:100950005AFF7EFF5AFF7EFF0808048E84EEE4FFF4
:1009600013FFB5FFC6FF00C60000040E040E04BF4F
:10097000B3FFF5FF26FF60FE0060040E046E64FF07
:10098000D3FFF5FF06FF00060000040E042E247FAF
:1009900053FF35FFC6FF00C60000000000C6C6FFBB
:1009A000B5FF13FFE4FF84EE048E006060F626FFBF
:1009B000F5FFB3FF04BF040E040E0000008606FF1F
:1009C000F5FFD3FF64FF046E040E000000C6C6FFEF
:1009D00035FF53FF247F042E040E05080E1915134E
:1009E0000E00121F10001915151512111515150AF4
:1009F0000704041E0417151515090E151515080111
:100A0000011905030A1515150A021515150E101002
:100A10006060ACEC94FC04FC04FC04FC14FC1CFCC6
:100A200010F020E020E020E020E0A0E0A0E0606006
:100A300003031A1B141F101F101F101F141F1C1F4D
:100A40000407020302030203020302030203030377
:100A5000000000006060B8F808F808F828F838F8D6
:100A600020E020E0A0E0A0E06060000000000000C6
:100A70000000000003030E0F080F080F0A0F0E0FEF
:100A8000020302030203020303030000000000004C
:100A90000000000000000000E0E020E020E060E056
:100AA00040C040C0C0C000000000000000000000C6
:100AB0000000000000000000030302030203030320
:100AC0000101010101010000000000000000000020
:100AD00020200000000000008080C0C0E0E0F0F0B6
:100AE000F8F8F8F8FCFCFCFCFEFEDEFE0EFE06FE4E
:100AF00012FE00FE04FE0CFE0EFE1CFC1CFC38F870
:100B000038F8F0F0E0E0C0C0808000000000000095
:100B100000000000F8F8FEFEFFFFFFFFFFFFFFFFF1
:100B2000FFFFFFFFFFFFFFFFBFFF3FFF08FF00FFCB
:100B300000FF00FF80FF80FFE3FFFBFFF8FFFEFFE9
:100B4000FEFFFFFFFFFFFFFFFFFF7EFE38F8C0C084
:100B5000000000000F0F3F3F3FFF3FFF7FFFFFFF01
:100B6000FFFFFFFFFFFF3FFF3FFF3EFF3CFF70FF28
:100B7000C0FFCEFFFFFFFFFFFFFFFFFF7FFF07FF6D
:100B800003FF01FF01FFC3FFC0FFF0FF3F3F070767
:100B90000000000000000000000000010003000F42
:100BA000010F031F031F043F043F043F043F097F5D
:100BB000067F077F073F0F3F273F333F383F1C1F0C
:100BC0001C1F0F0F070703030101000000000000B6
:100BD000000054484520504C414E4554204F46207B
:100BE0005455524E41580A48415320455854454E99
:100BF00053495645204D494E4552414C0A444550B3
:100C00004F53495453204F4620484947480A5641BC
:100C10004C554520544F205448450A494E5445529E
:100C2000504C414E455441525920414C4C49454449
:100C30000A434F4E46454445524154494F4E2028A1
:100C400049504143292E0A524543454E5420554EA2
:100C5000414E5449434950415445440A415454413A
:100C6000434B53204259205052494D415449564517
:100C70000A53504543494553204841564520505258
:100C80004F56454E0A44414D4147494E4720544F27
:100C9000204D494E494E470A4F5045524154494F05
:100CA0004E532E20006009C8006400C8006009C8C7
:100CB000006400E803280AC8006400C800280AC8C5
:100CC000006400E803C409C8006400C800C409C87F
:100CD000006400E803000064006400E8030080088A
:100CE00008FF9F83F9CDC1FFFF8008B8A8E800F88E
:100CF00020F800F8887000F840F800F840F800C8C4
:100D0000A89800F868B800F888700000000000009B
:100D100000000000000000000000000000000000D3
:100D200000000000000000000000000000000000C3
:100D3000000000000000000000000000F820D800C3
:100D4000F880F800F868B800F888F800F870F80043
:100D5000F888F800F840F800F828F800F8888800CB
:100D6000F820F800F828F800F870F8284000000093
:100D70000000000000000080C0C0E0E0E0F0F07083
:100D8000707070F0F0E0E0E0C0C080000000000093
:100D90000000000000000000000000E0FCFEFFFF7B
:100DA000FFFF3F0703114060000060401103073F51
:100DB000FFFFFFFFFEFCE00000000000000000025B
:100DC000020303043F7CFCFCFFFCE30300230B1B3A
:100DD00000001B0B230003E3FCFFFCFC7C3F04032F
:100DE000030202000000000000000010F0E0C0C19B
:100DF000C3E3E7FFFEFC000000000000FCFEFFE78D
:100E0000E3C3C1C0E0E0F0100000000000000000FB
:100E10000000000000FC04F414F404F4244424F45E
:100E200004F4541404F414D404F494F404FC000002
:100E3000000000000000000000FE02FA22FB00F9A2
:100E400089F900F968B8400188F98901C8A99901B0
:100E5000F889F801F83342FA02FE000000000000B1
:100E6000000382C262B252525252B26242424242C3
:100E700042424242424242424242424242C2020252
:100E8000020300000000000000001F306FD0A6A980
:100E9000A9A0D06F405D5553405F515F40405F4017
:100EA0004041415F407F00000000000000C800C8D2
:100EB000009001C800C800C8009001C8004B02C8DB
:100EC0000096006400000064009600640000006466
:100ED000009600640000006400C800C8009001C8CB
:100EE00000C800C8009001C8001003C80096006444
:100EF0000000006400960064000000640096006436
:100F00000000006400C800C8009001C800C800C804
:100F1000009001C8004B02C8009600640000006405
:100F20000096006400000064009600640000006405
:100F300000008040400000000000000000000000B1
:100F400000000000000000000000000000000000A1
:100F50000000000000000000000000000000000091
:100F60000000000000000000000000000000000081
:100F700000000000000000000000000000000077FA
:100F800077770070707000000000007777770000BE
:100F90007777770007070700070707000070777764
:100FA00007000777777000000000000000000000D5
:100FB00000000000000000000000000000000077BA
:100FC0007777000000070777707000777777000069
:100FD0007777770007070700000000000077777732
:100FE000000000777777000000000000000000009C
:100FF00000000000000000000000000000000007EA
:1010000007070000000000000000000707070000BD
:101010000707070007070700070707000000070783
:1010200007000707070000000000000000000000A4
:101030000000000000007777770007070700DCDC7E
:10104000DC00007777770007070700070707000035
:10105000070707007777770007070700007777779C
:101060000007070700DCDCDC00007077770700076B
:101070007777700000007777770007077770710146
:1010800001000077777700070707000000000000E5
:101090000000000077777700000000000077777786
:1010A0000007077770710101000077777700000073
:1010B00077777700000007070700000000000707A8
:1010C00007000007070700070707000707070000DA
:1010D00000000000070707000000000000070707E6
:1010E00000000000000707070000000707070007CF
:1010F00007070000000000000000000000000000E2
:1011000000000000000000000000000000000000DF
:1011100000000000000000000000000000000000CF
:1011200000000000000000000000000000000000BF
:101130000000000000C72018020400015400000055
:1011400000000015540000000000000550000000E1
:1011500000000001500000000000000150000000ED
:101160000000000140000000000000000000000539
:1011700055540FF55F03FC01555003F55C0000006A
:101180000540000550000000004000055000000030
:10119000000000055400000000000005540000009D
:1011A000000000055400000000000005550000008C
:1011B0000000000555000000000000155000000070
:1011C0000000001550000000000000055000000560
:1011D00055000005400000155550000100155555FB
:1011E00055554001555AAAAAAA95540056A95555D5
:1011F00055AA55555655555555565555271008025B
:101200000400015555555555555555550015515026
:10121000000041400000010000000555557F555574
:10122000555555E7103802040001555555555415CC
:101230004055500000154000000540000005000F1B
:10124000C0015F0000005C00003D5000000D50FF39
:10125000FC014000000140000001000003F57C009B
:1012600000F570FFC01540000055400001554000DA
:101270000155400FC155400000557F00005540000A
:101280000055400FC0554000001543C00005400008
:101290000001500FC00040000035000003F57C0045
:1012A000003D700FC001400000017F0003D55C00CD
:1012B0000015500FC001400000017F0003F55C00E5
:1012C0000015500FC001400000015F0003F55C00F5
:1012D00000D5500FC015500000157F0003F57C00AD
:1012E0000005403FC0004000001554000055540068
:1012F000055550FC05554000155540015555005504
:1013000055555555555555555555872010020400CE
:10131000015555555555555555400000000554018A
:1013200055500055000050001554001500001000E5
:1013300005540007FC00000000A5000000000003A9
:101340007569000000FC0FC0F569FC00000000009A
:1013500035550000000140001550003F00054000D9
:1013600015500000001550000550000005555000B4
:101370000540000015555400014015555555554080
:1013800005555AAAAAAA9554155559555555955516
:1013900055673008020400015555555555555555AA
:1013A00055555555555500000005415554000155FA
:1013B0005540000000000055400000155000015548
:1013C00050000015000000054000055554000005C0
:1013D0000055000140015556940000010014000121
:1013E0000055AAAA955400000000000055559555D7
:1013F0005555555555555555872010020400016423
:1014000000100000055555640000000001415564BE
:1014100000000000010015640000000000000564E9
:101420000015540000000565000555500001556584
:1014300000005555055555A5FC00000000555555B3
:101440000000000000115550003F00000000155042
:1014500000000015500005500000055550000540E3
:101460001540155554000140555555555540050139
:101470005AAAAAAA9554155559555555955555C763
:1014800030100204000155555555555555555555C3
:1014900055555541000140015555400055555540A1
:1014A000000000001550000011555500000000001C
:1014B0000040000000155500000000000000000082
:1014C0000005550000541540000000000000554084
:1014D0000154055000001550FFF5457C015005549E
:1014E000000015400055417C0F5001154154054046
:1014F00000154000004000050050004000050000BD
:10150000004140000000000000015543F0000000D1
:101510000000000000015500000000000000000075
:10152000000555000000000000005540000555FF73
:10153000FFFFFFFFFFD555500155AAAAAAAAAAAAE4
:10154000AA95555555558740080204000155555533
:1015500055555555555555555555555555540140A5
:1015600050541550554405500555555555500000DB
:1015700040000540010001400150544055F000007A
:101580000000044000000040004010000500000082
:1015900000000000000000000040000001FFF0001B
:1015A00000000000000000000000000000AA5FC072
:1015B000000000000000000000005555555655552C
:1015C0005555555555555555555555555587201013
:1015D000020400015555555555555555400000001C
:1015E00005540155500055000050001554001500D9
:1015F00000100005540015550000000557F0015576
:10160000500000F555C0001555FFC03555C000000D
:10161000557C003555C00000055C03D555C0000061
:101620000154001555C000000057C0057FC00000E0
:101630000054000F6AC0000000000F0062FFFFFFAF
:10164000FFFFFFFF6AAAAAAAAAAAAAAA555555553A
:101650005555555547200802040001555555555517
:1016600055559544055000005555AA40000000000E
:1016700014405540000003F00000057FFFFF0040CC
:101680000000015400000154000000000000055556
:101690004001555555555555555555A71028020427
:1016A000000155555555AAAAAAAA55555555404168
:1016B00040154000000500000001540000005500E6
:1016C00003D557C000155400001A500FC019400030
:1016D0000019400003D97C000019700FC0194000A8
:1016E00000197F0003D95C000019500FC019400099
:1016F0000019400003D9000000197C0FC0195000E8
:101700000019500003D9500000D9500FC0195000E3
:1017100000195F0003D95C000019503FC019500048
:101720000019540000595400055950000559400053
:1017300015590001555955555559AAAAAAA95555E3
:1017400055558720100204000155555555555555DE
:1017500055AAAAAAAAAAAAAAA95FFFFFFFFFFFFF8C
:10176000F97C0FFFFC000000F97003FFF00000009F
:10177000394000FFC0FC00003900003F00000000BD
:10178000395C000F00000000395FC00F000000004E
:1017900039AC000FFFFFF000396C000FFFFFC0FFF6
:1017A000F96CFF000000003FF96C3C00000003FFF3
:1017B000F96FFFFFFFFFFFFFF96AAAAAAAAAAAAA68
:1017C000A955555555555555556730080204000122
:1017D000555555555555555555555555555405550A
:1017E0005545500555501015540001554001400015
:1017F0005040000550000000000040004000000183
:10180000500155555540000000000000400555AA04
:101810005550000000000055001555965555000024
:10182000005555555555559655555555555555557C
:10183000671018020400010ED555550ED555550EEA
:10184000FFFFFD0EC0000D0EC0000D0EC0000D0EFE
:10185000C000000EC00FD50EC000D50EFF00D50E83
:10186000C000D50EC00FD50EC000F50EFF00F50E5E
:10187000C000150EC00F540EC001550EFF01550ECD
:10188000D40F550ED400153ED540153E5550057E5B
:10189000555400565555556730080204000155400F
:1018A000000015555000000000555500000001458E
:1018B0005005500000155400005000014001400048
:1018C00000055000004000004000400000015000B2
:1018D00000000000000000000001400000000000C7
:1018E00000000000000100000000000000000000F7
:1018F0000000555555555555555555555555872045
:101900001002040001555555555555555555555519
:101910005540005555540015500000115540000029
:10192000400000001540000000000000050000001D
:1019300000000000055FF500001550FFF550054060
:10194000001140155540010054014001554000056B
:10195000500040010540000000000000014001402F
:101960000000000001500150000000000555055521
:101970005555555555555555555555555555555517
:10198000555555555587201002040001565555559B
:1019900055565555AAAAAAAAAAAA515555555555FC
:1019A000555540155500000000100005540000007A
:1019B0000000000055503FFFFFFFFFF55540003F7E
:1019C000FFFFFFF55500000003FF777555FC000091
:1019D00000FF775550003F00003D55555000000076
:1019E000000D555550FF000000000115543C00004B
:1019F000000000155555540000000055555555552B
:101A00005555555955555555555555558740080205
:101A10000400015555555555555555555555555570
:101A20005555555FFD405054140555440550055516
:101A30005555555EAC004000000141000140015089
:101A40005440555EEC0000000000000000400040E3
:101A50001000055EAFFC0000000000000000004028
:101A60000000015FFD710FFC00FAAF0000000000F4
:101A70000000005555714000143BEC055500000076
:101A800055555555555555555559655555555555F2
:101A9000555555C73010020400015555555555553B
:101AA0005555555555555541000140015555400076
:101AB00055555540000000001550000011555500C7
:101AC000000000000040000000155500000000006C
:101AD0000000000000055500007FFFFD40000005EC
:101AE00040055540017C000D500015555555FFFC33
:101AF00001500001500015555555FFFC0F500001D5
:101B0000555405555015F0000040000D5554004542
:101B10001005000000414001555500010001FFC3C0
:101B2000F00000055555400000015500000001552A
:101B300055555000000055FFFFFF5555555555555B
:101B40005555AAAAAAAAAAAAAAAAAAAAAAAA555549
:101B50005555555555555555555587201002040076
:101B6000015555555555559557AAAAAAAAAAAABFCF
:101B7000FF6FFFFFFFFFFFF0006C000000000000A0
:101B80003F6C000000000000396C00000000000005
:101B9000396A000000000000AA6C0000000000008C
:101BA000396C00003FFC0000396C000000000000B0
:101BB000396A000000000000A96C00FC00003F0032
:101BC000396C000000000003396FFFFFFFFFFFFFCB
:101BD000F9AAAAAAAAAAAAAAAA5555555555555569
:101BE0005508080000000000000000000000000090
:101BF00000000000000000000000000000000000E5
:101C000000000000000000000000000000000000D4
:101C100000000000000000000000000000000000C4
:101C200000000000000000000000000000000000B4
:101C300000000000000000000000000000000000A4
:101C40000000000000000000000000000000000094
:101C50000000000000000000000000000000000084
:101C60000000001E0F77639FCF471E0003031B3049
:101C7000453D0D1E0F77639FCFD7CF3F1F6B7085FC
:101C8000DDDD58FEFF07639F0FFFFEFFFF7B7085C2
:101C9000DDFFFFFEFF07639FCFD7CFFFFF7B708580
:101CA000DDDDD8D78F77639FCF471EDB837B7085C1
:101CB000CD471FD78F77639FCFD7CFDB837B7085CF
:101CC000DDDDD8D78F77639F0FFFFEDB837B7085C9
:101CD000DDFFFFD78F77639FCFD7CFDB837B708507
:101CE000DDDDD87EFFC183C5A3FF7E7FD5C8C0C020
:101CF000C4EA7F7EFFC183C5A3C183FFEDD0A0C02E
:101D000081C283FE578B030347ABFEFF55220000C1
:101D100011AAFFFFB70B0503018381FF55220000C5
:101D2000018283C5A3C183C5A3FF7E83C182C0A0F6
:101D3000D0EDFFC5A3C183C5A3C183C3A1C280C029
:101D4000A1C283C3810303050B57FFC381020000B7
:101D500011AAFFC583010305038183C3810200002B
:101D6000018283FFC3A78B93A7C3FF010305090962
:101D70000503010103070B132743FF0103070B139F
:101D80002743FFFFC3A78B93A7C3FFFFC3A5899179
:101D9000A5C3FFFFC3A78B93A7C3FFFFC3A589916B
:101DA000A5C3FFFF4327130B070301FF4327130BB3
:101DB000070301FFC3A78B93A7C3FFFFC3A58991A7
:101DC000A5C3FFFFC3A78B93A7C3FFFFC3A589913B
:101DD000A5C3FFFFC3A78B93A7C3FFFFC3A589912B
:101DE000A5C3FF00582011241FBECFEFDAE0DEBFED
:101DF000CDBF11E0A0E0B1E0E2ECFAE602C0059050
:101E00000D92AE3CB107D9F728E0AEECB1E001C0CD
:101E10001D92A130B207E1F71EE0C3EFDEE004C07F
:101E20002197FE010E945935C23FD107C9F70E9490
:101E300020210C945F350C94000080910C020895D1
:101E4000E2EEF3E030EB20E146E05C983EBD4A95DF
:101E5000F1F72EBD20E8239507C0449140815C9A9C
:101E60004EBD8111412D419344912A95B1F733958F
:101E7000383B49F70DB40895E1EEFBE18491E09120
:101E80002B02F0912C02EB5CFE4EE4918E9FC00180
:101E900011240895E2EEFBE18491E0912B02F09190
:101EA0002C02EA5CFE4EE4918E9FC001112408953D
:101EB00090E0E2EEF3E091119FEF8FEF9193919319
:101EC000919391938150D0F70895482F43702091BA
:101ED0002B0230912C02F901EB5CFE4E8695869523
:101EE00090E0411113C0E491E695E695A901E69FC3
:101EF000400D511D1124FA01E80FF91FE55CFE4E5B
:101F00008491829586958695837008954130A9F4D1
:101F1000E491E695E695A901E69F400D511D112437
:101F2000FA01E80FF91FE55CFE4E849190E034E081
:101F3000959587953A95E1F7E7CF4230A1F4E49182
:101F4000E695E695A901E69F400D511D1124FA0181
:101F5000E80FF91FE55CFE4E849190E0959587951A
:101F600095958795D1CFE491E695E695A901E69FF1
:101F7000400D511D1124FA01E80FF91FE55CFE4EDA
:101F80008491C2CF9091FC07982329F49091FB078C
:101F9000982381E009F480E008952FB7F89483E056
:101FA0008093E9009091E800892F807295FF04C02A
:101FB0009091F20080E4891B2FBF0895FC0180916D
:101FC0002A02882311F13FB7F89482E08093E90058
:101FD0002091F200822F90E01816190614F481E087
:101FE00090E0882339F0289844E6409329024091F4
:101FF000F1004083222339F02091F200211103C027
:102000002BE62093E8003FBF08958FEF9FEF0895E0
:102010008091210281110DC082E080931D0284E035
:1020200080931E021092200210921F0281E0809382
:1020300021028DE192E0089508954091FE015091B2
:10204000FF012091FC013091FD0142175307B4F4C8
:102050009091E8009570E1F39091E80092FD19C02D
:102060008093F1008091FE019091FF0101968F73A2
:102070009927892B19F48EEF8093E8008091FE0157
:102080009091FF0101969093FF018093FE0181E002
:10209000089580E00895DF92EF92FF920F931F93CF
:1020A000CF93DF93D82E8A01EB017B01E40EF51E5E
:1020B000CE15DF0559F0D7FE12C0FE0184910E94B3
:1020C0001D1021968111F4CF0FEF1FEFC801DF9192
:1020D000CF911F910F91FF90EF90DF90089588812D
:1020E000EECF0F931F93CF93DF931F92CDB7DEB741
:1020F00082E0898342E450E066EC71E080E80E946F
:102100004B100E940810DC0112960D911C910115D4
:10211000110589F0D801ED91FC910280F381E02D49
:10212000BE016F5F7F4FC801099597FD04C0F8019C
:1021300000851185ECCF89810F90DF91CF911F91A0
:102140000F910895615030F02091F100FC0120833F
:102150000196F8CF289884E6809329020895AF92DB
:10216000BF92CF92DF92EF92FF920F931F93CF9384
:10217000DF936C017B018B01040F151FEB015E01E6
:10218000AE18BF08C017D10759F06991D601ED917B
:10219000FC910190F081E02DC6010995892B79F71A
:1021A000C501DF91CF911F910F91FF90EF90DF90CC
:1021B000CF90BF90AF900895CF93DF931F92CDB78C
:1021C000DEB76983DC01ED91FC910280F381E02DA3
:1021D00041E050E0BE016F5F7F4F09950F90DF91A6
:1021E000CF91089583E08093E9008091F2008823E5
:1021F00019F08AE38093E80008950E94CD0F90E0E3
:102200000895CF93DF931F92CDB7DEB7FC0184858D
:10221000958597FD08C02FEF3FEF358724870F90F6
:10222000DF91CF910895CE0101960E94DE0F0197B4
:1022300019F4898190E0F3CF8FEF9FEFF0CF0F93E8
:102240001F93CF93DF931F92CDB7DEB78C01FC01B4
:102250008485958597FF0BC0CE0101960E94DE0F05
:10226000019771F4898190E0F80195878487F801DE
:10227000848595850F90DF91CF911F910F910895DF
:102280008FEF9FEFF1CFFC018485958597FD0BC003
:102290009FB7F89482E08093E9008091F2009FBF9D
:1022A00090E0019608959FB7F89482E08093E9004A
:1022B0008091F2009FBF90E00895FC010E94F4110C
:1022C000319728F068517C4F8F4F9F4FF9CFAB016A
:1022D000FC010E94F411641775078E079F07C8F36D
:1022E00008958F929F92AF92BF92CF92DF92EF921A
:1022F000FF920F931F93CF93DF936C017B018A01B1
:1023000080910B01882309F45AC080912A02882306
:1023100009F455C08091020280FF05C08091E00061
:1023200082608093E000E801B12C8AEFA82E93E050
:10233000892E2AE3922E209711F4BB20C9F10E9426
:10234000CD0F811108C0AA94AA20C9F181E090E0C4
:102350000E945D11F0CF8C171D0611F00CF08C2F30
:102360009FB7F8948092E9002091E80025FD02C013
:102370009FBFE1CF282F30E0C21BD30BF701815064
:1023800020F041914093F100FACFE20EF31EBB2002
:1023900021F09092E800B12CEBCF8091E80085FD10
:1023A000E7CF9092E800BB24B394209709F3F3CFD2
:1023B0005D9884E680930102101611063CF081E0DE
:1023C00090E0F6019383828310E000E0C801DF9182
:1023D000CF911F910F91FF90EF90DF90CF90BF9022
:1023E000AF909F908F900895A8EFB1E02FB7F89429
:1023F0007D918D919C9166B52FBFA89B05C06F3FC5
:1024000018F47F5F8F4F9F4F22E0660F771F881F62
:10241000991F2A95D1F708952091EF01E091ED01E0
:10242000F091EE01CF0102969093EE018093ED01C1
:10243000222319F0859194910895808191810895C6
:10244000E1E7F0E080818D7F8083109291004698D3
:102450005F981092EC010895CF92DF92EF92FF9275
:10246000CF93DF930E940C12811520E8920741F46C
:10247000DF91CF91FF90EF90DF90CF900C942012DE
:1024800021E02093EC01813020E8920751F4809103
:10249000EA019091EB019093EE018093ED010E948F
:1024A0000C1297FD05C02091E901222309F45BC0BD
:1024B0002091E801211157C021E02093F001EC01A7
:1024C000DF77209709F052C081E08093F1014698B0
:1024D0003FE9C32E3FE0D32EE12CF12CCAEFD0E030
:1024E000E0918B02F0918C020995811103C081E08B
:1024F0008093F1018091F001882329F08091F1010E
:10250000882309F446C05F980E940C12009709F4D2
:1025100044C09C01DE010E94F133DC01CB0129E0C3
:10252000B595A795979587952A95D1F71092900024
:102530002AE020939100D0929900C0929800809355
:10254000F2019093F301A093F401B093F50180910F
:102550007100826080937100DF91CF91FF90EF90C6
:10256000DF90CF9008951092F001A9CF9E0150E026
:1025700040E060E472E48FE090E00E949D336901E6
:102580007A0181E0C81AD108E108F1081092F1013E
:10259000A7CF4699B8CF5F9AB7CF8FEF9FEFDC01F7
:1025A000C5CF9C01E1E7F0E090819D7F908381E0C1
:1025B0008093EF013093EE012093ED013093EB0116
:1025C0002093EA010C942C126F927F928F929F922B
:1025D000AF92BF92CF92DF92EF92FF920F931F9331
:1025E000CF93DF934C017B01C22F102F98E0A92ECF
:1025F000B12C642E669466946694712CCA0187701F
:102600009927892B79F5D40117962D913C91C70113
:102610009927B9010E944535269DF001279DF00DAF
:10262000369DF00D11248E0F9F1FD4011596ED914C
:10263000FC91E80FF91F2081111112C0C095C2232F
:10264000C083DF91CF911F910F91FF90EF90DF90AA
:10265000CF90BF90AF909F908F907F906F90089594
:10266000C22BEECFD0E04770C42ED12C83E0660C95
:10267000771C8A95E1F79E0101C0220F4A95EAF77F
:10268000012FA301B701C4010E94E412A301485F16
:102690005F4FC5018C199D0902C0D595C7958A95D4
:1026A000E2F7A7CF5F926F927F928F929F92AF9245
:1026B000BF92CF92DF92EF92FF920F931F93CF932F
:1026C000DF93EC016A30F1F48D859E859C878B87C2
:1026D0008B892F853889820F932F911D988B8F8737
:1026E00081E090E0DF91CF911F910F91FF90EF90EB
:1026F000DF90CF90BF90AF909F908F907F906F9022
:102700005F900895AB84BC84693031F429E0A20E57
:10271000B11CBC86AB86E4CF3DEFA3163FEFB306FA
:102720000CF45BC08F819885A816B9060CF055C0D3
:10273000CF84D8888DEFC8168FEFD8060CF44DC023
:1027400089859A85C816D9060CF047C060320CF40A
:102750006FE780EE860F9FE9960F9A3118F49FEF8E
:10276000C91AD90A8C3011F08B3119F42FEFC21A23
:10277000D20A869534E0839FC00111249C012A5F10
:102780003E4F7901912C812C162F1170F701E80D25
:10279000F91D549011112BC0352D3F70532E35016A
:1027A000680C791C8C81882351F001E089898111A2
:1027B00000E02FE0A601B301CE010E94E4120989D6
:1027C000252DA601B301CE010E94E4128FEF881AD5
:1027D000980A94E089169104C9F68A8990E00496D3
:1027E0002B853C85820F931F9C878B8779CF5294D2
:1027F0008FE05822D4CF4F925F926F927F928F9248
:102800009F92AF92BF92CF92DF92EF92FF920F937F
:102810001F93CF93DF934C015901FC2DC02FD0E0C3
:10282000CE01880D991D181619060CF06CC020E811
:10283000821691040CF067C09B012E0D311D1216FB
:1028400013060CF060C0603471050CF05CC04115DB
:10285000510509F458C0E62FE770FE2EDB0177FD25
:10286000179633E0B595A7953A95E1F73A2F77FF9C
:1028700004C0FF2011F03FEF3A0F66277727681951
:10288000790997FC02C070E060E0803891050CF493
:102890004BC090E89819961BA32F032E000CBB0B7E
:1028A0001A2F10953F3F0CF010E021E08E2D87701D
:1028B00009F420E0E694E694E694E20EAE0DB11D34
:1028C00019971CF028E0E22EE31AE11A310F20E8F4
:1028D0003203D0011124A80DB91DA60FB71F019F07
:1028E000600D711D1124460F571F0F2D0F2C000C6A
:1028F000110BF33009F41CC1C8F4F13009F4D0C055
:10290000F23009F47CC0DF91CF911F910F91FF90BD
:10291000EF90DF90CF90BF90AF909F908F907F907F
:102920006F905F904F900895902FB5CFFA3FB1F11F
:10293000232F2E0DFB3F39F7321729F3BD016E51BE
:102940007C4FD12CC12CC91608F0A4C0FA01EC0DA3
:10295000FD1DE491F0E04F01002E02C0880C991C8F
:102960000A94E2F737FD06C0FB018081E82CE09471
:102970008E218083FF2061F0373054F45B01F0E852
:10298000AF0EB11CE92CE094F50180818E2180838B
:10299000FFEFCF1ADF0A6F5F7F4FD5CF232F2E0DAA
:1029A000321709F4B0CFBD016E517C4FD12CC12C30
:1029B000C91608F069C0FA01EC0DFD1DE491F0E0C4
:1029C0004F01002E02C0880C991C0A94E2F737FDD3
:1029D00004C0FB01808188298083FF2051F03730BB
:1029E00044F45B01F0E8AF0EB11CF5018081892948
:1029F0008083FFEFCF1ADF0A6F5F7F4FD9CF6FEF72
:102A000070E00F2C02C0660F771F0A94E2F7609502
:102A10007095772E232F2E0D321709F474CFFD01F8
:102A2000EE51FC4F6F01B12CA12CA91638F5FA011B
:102A3000EA0DFB1DE491F0E02F01002E02C0440CD2
:102A4000551C0A94E2F737FD05C0F6018081862304
:102A500084298083FF2059F037304CF44601F0E898
:102A60008F0E911CF4018081872185298083FFEFDF
:102A7000AF1ABF0A8FEFC81AD80AD7CF3F5F4C0FE3
:102A80005D1FA058BF4FC8CF3F5F4C0F5D1FA058C0
:102A9000BF4F86CF3F5F4C0F5D1FA058BF4F4CCF3D
:102AA0006A0D7B1D232F2E0D321709F42CCFFD014B
:102AB000EE51FC4F6F01B12CA12CA91688F5FB013A
:102AC000EA0DFB1D8490912C002E02C0880C991CED
:102AD0000A94E2F780949094FA01EA0DFB1D649049
:102AE000712C002E02C0660C771C0A94E2F737FDA9
:102AF00005C0F6018081882186298083FF2049F066
:102B000037303CF4F601E058FF4F80818921872956
:102B10008083FFEFAF1ABF0A8FEFC81AD80ACDCF54
:102B20003F5F4C0F5D1F6C0F7D1FA058BF4FBCCF88
:102B3000C92ED12CFA01E60FF71FAE51BC4F00E8A9
:102B400010E00C191D09CC19DD09BE01660F771FB5
:102B500041E050E06A010F2C01C0CC0C0A94EAF766
:102B6000592F2E2D792ECF93DF93ED01EF96EF960F
:102B700022968590A590FF2059F08C9C4001AC9C3A
:102B8000500137302CF4E880B094EB20E928E9922A
:102B900033233AF0EC90A094EA20E828ED920C94CC
:102BA000D21511965A9529F72A9551F0572D33953C
:102BB0001124E60FF11DA00FB11DC00FD11DD9CFFB
:102BC000DF91CF9111249FCECF92EF920F93FA0114
:102BD00004913196E4904E5F5F4F2223F9F0A1E01B
:102BE000B0E03E2D377011F4B0E0A0E0EE2DE69598
:102BF000E695E695EA0FFB2FF11D0E9FD0010F9F82
:102C0000B00D112430E0220F331FA29FF001A39FCB
:102C1000F00DB29FF00D11244E0F5F1F23E0C22E66
:102C200030E020E00E94FB130F91EF90CF900895C9
:102C3000CF92EF920F934115510541F1FA010491A2
:102C40003196E4904E5F5F4F2223D1F0A1E0B0E0D7
:102C50003E2D377011F4B0E0A0E0EE2DE695E6953C
:102C6000E695EA0FFB2FF11D0E9FD0010F9FB00DCF
:102C700011242A9FF0012B9FF00D11244E0F5F1F8E
:102C80002AEFC22E30E020E00E94FB130F91EF905C
:102C9000CF9008952D9A089590E00C945D118FB116
:102CA0008095807F669B88601C9B846008958EBDA4
:102CB00000000DB407FEFDCF089510920C023E985F
:102CC000579808953E9A579A81E080930C02089590
:102CD00080389105B8F460347105A0F490E121E0EA
:102CE00061FD24E060FD220F62FD2295687F969FC2
:102CF000D0011124A80FAE51BC4F0C90022A40FF06
:102D000002260C920895089590E080E00895CF93F4
:102D1000DF93EC0197FF04C0882799278C1B9D0B3C
:102D20008038910544F0D7FF30C0C0ECDFEFCE0112
:102D3000DF91CF91089504970CF1BE01D7FF02C037
:102D40006F5F7F4F75956795072E000C880B990B69
:102D50000E94A534CF3FDF4F54F020E030E040E048
:102D60005FE30E9401340E946D34EB01E0CF20E06C
:102D700030E040E05FE30E940034F5CF2097B9F2E5
:102D8000D7FF06C0CFEFDFEFD2CFC0E4D0E0CFCF88
:102D9000C1E0D0E0CCCFCF93DF9300D000D000D003
:102DA000CDB7DEB793E1899FF0011124E357FD4FC2
:102DB000878584315CF482819381208131813A83DB
:102DC00029839C838B8388E08D8310C0843101F537
:102DD000828193810196208131812F5F3F4F3A8319
:102DE00029839C838B8386E08D8387E08E83298172
:102DF0003A814B815C816D817E8180E090E02696F6
:102E00000FB6F894DEBF0FBECDBFDF91CF9108950E
:102E1000853169F4828193810296208131813A83E0
:102E200029839C838B8388E08D8386E0DFCF863186
:102E300069F4828193810196208131812F5F3F4F18
:102E40003A8329839C838B8387E0BECF873169F4E3
:102E5000828193810296208131812F5F3F4F3A8397
:102E600029839C838B8387E0DFCF883169F482815B
:102E700093810196208131812F5F3F4F3A832983CF
:102E80009C838B838EE0B0CF893159F4828193810A
:102E90000196208131813A8329839C838B8380E151
:102EA000C3CF8A3169F48281938101962081318177
:102EB0002F5F3F4F3A8329839C838B8386E084CFA7
:102EC0009ECFEDE8F2E0B0E0A0E09285911154C011
:102ED00093E19A9FF0019B9FF00D1124E357FD4F62
:102EE000268771836083538342838787258791E098
:102EF000928713861086118A1486823089F4672B94
:102F000061F4948783E18A9FF0018B9FF00D112477
:102F1000E357FD4F81E08387089583E08487F2CFF4
:102F2000843119F483E086830895853111F485E0B6
:102F3000FACF863111F488E0F6CF873111F48AE0B8
:102F4000F2CF883121F482E0818B8EE1ECCF8931A0
:102F500029F484E080930C0184E6E5CF8A3191F472
:102F600096838091CB039091CC0323E09595879530
:102F70002A95E1F78687089511967396AE30B105CC
:102F800009F0A3CF08956F927F928F929F92AF9294
:102F9000BF92CF92DF92EF92FF920F931F93CF9346
:102FA000DF9300D000D000D0CDB7DEB74C0122E0D7
:102FB000820E911C3B01EFEF6E1A7E0A0DE812E0C3
:102FC000F12C6C01F8E0CF0ED11C5B0128E0A20EC1
:102FD000B11CF801E284EE20E1F18F2D0E94CB16A6
:102FE00029833A834B835C8329813A81C901860F07
:102FF000911D881699066CF52C153D0554F52B810D
:103000003C81C901870F911D6816790614F52A15B0
:103010003B05FCF4F80187858230C9F48385811172
:1030200018C08E2D26960FB6F894DEBF0FBECDBF0A
:10303000DF91CF911F910F91FF90EF90DF90CF9094
:10304000BF90AF909F908F907F906F900895843045
:1030500041F30D5E1F4FF394FEE0FF12BACFE12C57
:10306000E0CF92E09093D00396EF9093D2039091AB
:10307000CD03191614F19091DC0391118150209128
:10308000D5033091D603082E000C990B82179307B5
:103090006CF441E04093DE03281B390B3093D603D8
:1030A0002093D5038CE38093CD0308958CEA90E0C0
:1030B0000E94D11287E080931C0208954F925F9284
:1030C0006F927F928F929F92AF92BF92CF92DF9238
:1030D000EF92FF920F931F93CF93DF93CDB7DEB79D
:1030E0002C970FB6F894DEBF0FBECDBF4F83588725
:1030F00069877A878B879C87C90121EEE22E2BE1B5
:10310000F22EF701649170E00E944535262F32EED1
:10311000C32E3BE1D32EF601649170E0C8010E94FA
:103120004535462E522E122FA22E220FBB08FFEF3E
:10313000AF1ABF0A862E660F990883E0880E911C8D
:10314000612E012E000C7708A614B7040CF460C0A1
:10315000042D202F002E000C330B821693060CF446
:1031600054C086E0FE013796DE01119601900D9263
:103170008A95E1F707FD47C080912B0290912C02C0
:10318000FC01EA5CFE4EE491E217130609F00CF430
:103190003AC017FD38C0FC01EB5CFE4EE491E61529
:1031A000170489F184F1F70144911403A00111245B
:1031B000F6012491F701A491F601349189819A8155
:1031C0006D81680F792F711D46175707E4F44A0F78
:1031D000511D84179507BCF40203C00111244B81D3
:1031E0005C816E81640F752F711D861797075CF4E3
:1031F000830F911D4817590734F4602F852D0E94C5
:10320000650F1816ECF00F5FA4CF1F5F539498CF93
:1032100081E02C960FB6F894DEBF0FBECDBFDF91D4
:10322000CF911F910F91FF90EF90DF90CF90BF90C3
:10323000AF909F908F907F906F905F904F90089588
:1032400080E0E7CF0F931F93CF93DF9300D000D0A0
:1032500000D0CDB7DEB79B0193E18902F0011124C4
:10326000E357FD4F878584313CF47A8369835C831F
:103270004B8388E08D830DC0843101F5CB0101962D
:103280009A838983CA0101969C838B8386E08D8310
:1032900087E08E838A0149815A816B817C818D818F
:1032A0009E810E945E1826960FB6F894DEBF0FBE70
:1032B000CDBFDF91CF911F910F910895853151F4CA
:1032C0007A836983CA0102969C838B8388E08D830D
:1032D00086E0DFCF863151F4CB0101969A83898352
:1032E000CA0101969C838B8387E0C4CF873151F458
:1032F000CB0101969A838983CA0102969C838B83B2
:1033000087E0E5CF883151F4CB0101969A83898318
:10331000CA0101969C838B838EE0B9CF893141F439
:103320007A836983CA0101969C838B8380E1CFCF26
:103330008A3109F0AFCFCB0101969A838983CA0104
:1033400001969C838B8386E095CF8F929F92AF925C
:10335000BF92CF92DF92EF92FF920F931F93CF9382
:10336000DF939091F90790FD2FC0182F83E1180289
:10337000E0011124C357DD4F0885C02E002E000C3C
:10338000DD08F12CE12C5E011016ACF5E2E0AE0E8A
:10339000B11C46018E189F08F50140815181480DEE
:1033A000591D68817981812F0E9422198823D9F0C3
:1033B000F50180819181880D991D91838083888595
:1033C0008F5F813174F48887DF91CF911F910F91C6
:1033D000FF90EF90DF90CF90BF90AF909F908F9035
:1033E000089580E1F0CF802F8E19813041F1FFEFF9
:1033F000EF1AFF0ACECF82E0A80EB11C46018E0C58
:103400009F1CF50140815181480D591D68817981CA
:10341000812F0E942219882351F0F501808191812A
:10342000880D991D9183808388858F5FCCCF802FF5
:103430008E0D8F3F24F4FFEFEF1AFF0ADFCF1886BF
:10344000C3CF0F931F93CF93DF9300D000D000D052
:10345000CDB7DEB78B019C012E5F3F4F422F3A83E1
:1034600029839B012F5F3F4F622F3C832B839C015D
:103470005A817C8184E097E00E945E1826960FB600
:10348000F894DEBF0FBECDBFDF91CF911F910F919A
:1034900008958F929F92AF92BF920F931F93CF93F5
:1034A000DF93CDB7DEB7A1970FB6F894DEBF0FBE9E
:1034B000CDBF19A2423008F44AE08E010F5D1F4FC4
:1034C000842E912CB12CA12CA50194010E94CF3304
:1034D000E62FB901CA01EA3044F5E05DD801EE9368
:1034E0008D01232B242B252B79F790E080E010977A
:1034F00069F0FD0101900020E9F73197AF014A1B07
:103500005B0BBD0182EE97E00E94AF10A1960FB653
:10351000F894DEBF0FBECDBFDF91CF911F910F9109
:10352000BF90AF909F908F900895E95CD7CFFC013A
:1035300001900020E9F73197AF01481B590BBC01FE
:1035400082EE97E00C94AF10CF92DF92EF92FF9251
:10355000CF93DF936C01990FEE08FF08F7FE19C0B7
:103560006DE282EE97E00E945213EC016627772706
:10357000CB016C197D098E099F094AE00E94491A06
:103580008C0F9D1FDF91CF91FF90EF90DF90CF9038
:1035900008954AE0C701B601DF91CF91FF90EF9007
:1035A000DF90CF900C94491ACF93C0910C0282E027
:1035B00090E00E948733C81731F06C2F82E090E0D2
:1035C000CF910C948F33CF9108950F931F93CF9386
:1035D000DF93082F082E000C110B93E18902F001F4
:1035E0001124E357FD4F8785873119F49189911193
:1035F00029C093E1909FE001919FD00D1124C35702
:10360000DD4F9E81961B9E8321E02B8797FF1AC07A
:103610001A868831E1F44A815B81485051096881FA
:10362000798120E087E00E9461174A815B8168818F
:10363000798120E08BE10E94611780910D028F7BE0
:1036400080930D02DF91CF911F910F9108958931E1
:1036500001F580E091E00E94D1124A815B8168818E
:10366000798120E08BE10E94611780910C018150EB
:1036700080930C018111E6CF80910D028F778093AA
:103680000D0282EC90E00E94D11288E080931C022F
:10369000D9CF8431BCF280E091E00E94D1120E9427
:1036A000FA3223E030E040E050E00E949D33672B87
:1036B000682B692B41F44A815B816881798120E024
:1036C00083E00E94611783E1809FF001819FF00DEC
:1036D0001124E357FD4F428153816081718120E0C5
:1036E0008BE1DF91CF911F910F910C9461172F9275
:1036F0003F924F925F926F927F928F929F92AF9282
:10370000BF92CF92DF92EF92FF920F931F93CF93CE
:10371000DF93C4EDD1E088EE282E81E0382E90E8CA
:10372000492E512C612C712C28E0822E912CA12C39
:10373000B12C89818C5F8983813444F00E94FA32F4
:10374000A30192010E949D33688319820E94FA327C
:10375000A50194010E949D336130710521F4888197
:10376000815087FF8883E980C8800C2C000CDD081D
:1037700010E000E00E2C000CFF08B701600F711F75
:103780000F5F1F4F0430110529F041E0C6010E9470
:103790006816F3CF22962C163D0659F6DF91CF918D
:1037A0001F910F91FF90EF90DF90CF90BF90AF905F
:1037B0009F908F907F906F905F904F903F902F9051
:1037C00008958F929F92AF92BF92CF92DF92EF9225
:1037D000FF92CF93DF93C4EDD1E080E8882E912C47
:1037E000A12CB12C90E4C92ED12CE12CF12C0E94FB
:1037F000FA32A50194010E949D3368830E94FA3237
:10380000A70196010E949D336983229681E0C83EFC
:10381000D80769F7DF91CF91FF90EF90DF90CF90BD
:10382000BF90AF909F908F900895EF92FF920F936B
:103830001F93CF93DF93EDE8F2E087E993E01286E0
:1038400073968E179F07D9F710929D031092A703C6
:103850001092B1031092BB031092C503C091CE0326
:10386000D0E090E080E0BC016C5F7C4F209731F0AD
:10387000FB016491860F911D2197F5CFFC01EB5F51
:10388000FC4FF490E12CEF1409F46AC0DB011296AE
:10389000FD018491EBEFE80F8B010C5F1F4FE531C9
:1038A000F8F4F0E0EA5AF34E0C9459356B1C881C7E
:1038B0008D1C931C991C9E1C701C701C701C701C11
:1038C000701C701C701C701C701C701C701C701C98
:1038D000701CA41CAA1C90910D0291709923A9F050
:1038E000FB0135962491F80144916D5F7F4FFB01F8
:1038F0006491FD018491F8E04F9FA001112498E0AC
:10390000699FB00111240E946117E394B801BBCFF5
:1039100090910D0296959170E1CF90910D0292FBDE
:10392000992790F9DBCF90910D0293FB992790F99D
:10393000D5CF90910D0292959170D0CF90910D02BC
:1039400095FB992790F9CACF90910D0296FB992784
:1039500090F9C4CF90910D02991F9927991FBECF5E
:103960008091CE03882321F08E3011F0853091F4C0
:1039700081E0809319020E94E11B8091CE0390E0C8
:10398000009759F0FE01EB5CFE4EE491CE0FD11D85
:103990000197F6CF10921902F0CF2196D0932C0206
:1039A000C0932B02DF91CF911F910F91FF90EF9069
:1039B00008951F920F920FB60F9211248F939F9329
:1039C0008091E1009091E100937F9093E10083FF6B
:1039D0000FC01092E90091E09093EB001092EC0080
:1039E00092E39093ED0010922A0298E09093F000F9
:1039F00082FF22C093E09093E9009091F200992316
:103A000019F09AE39093E80090910102992341F014
:103A100090910102915090930102911101C05D9A21
:103A200090912902992341F090912902915090930D
:103A30002902911101C0289A84FF18C08091E200E8
:103A40008E7E81608093E2008091E1008F7E809382
:103A5000E100809102028E7E8061809302029F913C
:103A60008F910F900FBE0F901F90189580FFF7CF8A
:103A70008091E2008E7E80618093E2008091E1007F
:103A80008E7E8093E100809102028E7E8160E5CF80
:103A90001F920F920FB60F921124CF92DF92EF92E6
:103AA000FF920F931F932F933F934F935F936F93C7
:103AB0007F938F939F93AF93BF93EF93FF93CF9396
:103AC000DF93CDB7DEB76C97DEBFCDBF1092E900B4
:103AD0008091E80083FF25C068E0CE0145960E94F2
:103AE000A21082EF8093E8008D8987FF39C0909102
:103AF000E80090FFFCCF982F907609F034C19E89A2
:103B00004F89588D2F89F88C911131C0803861F51B
:103B1000809103028093F1001092F1008EEF809368
:103B2000E8006C960FB6F894DEBF0FBECDBFDF91F4
:103B3000CF91FF91EF91BF91AF919F918F917F9125
:103B40006F915F914F913F912F911F910F91FF9036
:103B5000EF90DF90CF900F900FBE0F901F901895B1
:103B60009EEF9093E800C7CF1092F100D5CF91302F
:103B700059F48111D3CF4130510581F68091030270
:103B80008D7F80930302CACF933049F48111C6CF51
:103B90004130510519F6809103028260F2CF9530D1
:103BA00041F48091E80080FFFCCF20682093E3007F
:103BB000B5CF963009F0A9C00B8D1C8D22E0109274
:103BC000E9001092FF011092FE01F2122EC0109235
:103BD000FD011092FC010E9471101F8299E09983EF
:103BE000FA8291E09E8390EA98879AEF99872091D4
:103BF000FE013091FF01275F3F4F3C832B838D8374
:103C00001092E9001092FF011092FE011093FD0145
:103C10000093FC0149E050E0BE016F5F7F4F80E000
:103C20000E944B100E94711079CF1093FD010093F8
:103C3000FC010E940810DC0112960D911C910115E7
:103C4000110509F451C1D801ED91FC910480F58171
:103C5000E02DBE016B5E7F4FC8010995009709F00A
:103C60003EC1F80100851185EACFF3E0FF120EC0D6
:103C70008F89882309F440C0823061F440E867E00E
:103C80008AE292E00E942520811148CF81E2809350
:103C9000EB0047CF813029F440E86BE08EE192E001
:103CA000F1CF833099F70E940810DC011296ED9055
:103CB000FC908E010F5F1F4F6801E114F10479F051
:103CC000D701ED91FC910680F781E02DB801C70185
:103CD0000995080F111DF701E084F184EECFD8019A
:103CE0001C92F60101900020E9F73197BF016C1991
:103CF0007D0940E0C601C6CF68E072E0FB01449157
:103D000050E080E80E944B1009CF973009F4BECFF5
:103D1000983021F481E08093F10000CF993009F0D0
:103D2000FDCE837009F0B2CFE2E1F1E081E031E055
:103D300096E32191222371F08093E9003093EB0008
:103D4000DF0111972C912093EC009093ED008F5F91
:103D5000873079F78EE78093EA001092EA008F8926
:103D600080932A02DBCE8B8D9C8D1092E9001092FD
:103D7000FF011092FE019093FD018093FC01898D5B
:103D8000811192C08E899D89913A49F4813209F05E
:103D90007DCF47E050E064E071E080E0B3CF913246
:103DA00009F074CF833269F48F89988DB0E0A0E078
:103DB0008093000190930101A0930201B09303014D
:103DC000ADCE803269F48091E80082FFFCCF67E0DD
:103DD00084E091E00E94A2108BEF8093E8009ECED9
:103DE000823209F09BCE8F8980930B01EEEFFFE7C3
:103DF000859194918B3F9C4D51F1E0E0F8E08091EA
:103E0000040190910501A0910601B0910701803B4A
:103E10009440A105B105F1F480910B0180FD1AC019
:103E2000EE3F8AE0F80789F587E797E7918380837B
:103E3000809160008093000288E19BE00FB6F894C7
:103E4000A895809360000FBE9093600067CEEEEF60
:103E5000FAE0D5CF808191818737974709F05ECE10
:103E6000A895809160008861809360008091000235
:103E700080936000EE3F2AE0F20789F08091FE0A0D
:103E80009091FF0A9183808349CE80819181873709
:103E9000980751F29093FF0A8093FE0AC5CF1092C3
:103EA000FF0A1092FE0A3ACE0E940810DC01129618
:103EB0000D911C910115110509F4E8CED801ED9181
:103EC000FC910190F081E02DBE016B5E7F4FC80137
:103ED0000995811123CEF80100851185EBCF1816C5
:103EE00019060CF41BCED2CEF1E0FF12BECE6CE070
:103EF00072E004CF0F920FB68F939F93EF93FF93CF
:103F00008091F7018D5F8D3708F08D578093F70111
:103F1000E4E0F2E080818E4F808391819F4F918316
:103F200082818F4F828383818F4F8383E8EFF1E01B
:103F300080818F5F808381818F4F818382818F4FCA
:103F4000828383818F4F83838FB18F6066991C9B9F
:103F500088278F3681F48091F601981B963068F09F
:103F6000E0E0F8E087E78083818388E18093600068
:103F7000F0936000FFCF9093F601FF91EF919F9136
:103F80008F910FBE0F9018951F920F920FB60F9240
:103F900011242F933F934F935F936F937F938F934E
:103FA0009F93AF93BF93EF93FF938091F201909112
:103FB000F301A091F401B091F501892B8A2B8B2B91
:103FC00009F440C08091F10181110BC088B190E4E7
:103FD000892788B98091F001882319F08BB1805826
:103FE0008BB98091F2019091F301A091F401B0910D
:103FF000F501181619061A061B069CF48091F201A9
:104000009091F301A091F401B091F5010197A109FC
:10401000B1098093F2019093F301A093F401B0935E
:10402000F501FF91EF91BF91AF919F918F917F919A
:104030006F915F914F913F912F910F900FBE0F9015
:104040001F9018950E942C12ECCFEF92FF920F93C5
:104050001F93CF93DF93F82E192FE62E042F81E0C4
:10406000860F880F0E941D1083E00E941D10CF2D27
:10407000D12FEC0EFD2EF11CCE15DF05B9F007FF98
:1040800013C0FE0184910E941D10182F80E00E9431
:104090001D10812321968111EFCFDF91CF911F91C8
:1040A0000F91FF90EF9008958881EDCF81E0F5CFDB
:1040B0001092300210922F0288EE93E0A0E0B0E060
:1040C0008093310290933202A0933302B093340272
:1040D0008CE191E090932E0280932D028FEF9FEF61
:1040E00090933A02809339028AE391E09093F70724
:1040F0008093F6071092FB071092FC0780E18093F3
:10410000FD071092FA071092F9071092FF078DE150
:104110009FE090938C0280938B0280E090E89093D4
:104120008A028093890246983E9A5F98579A109225
:10413000E5071092E4078EE291E09093E307809305
:10414000E20782EE93E09093E8078093E70780E828
:1041500090E09093EA078093E90780E490E09093E1
:10416000EC078093EB0785E08093F50781E080936F
:10417000F4071092F0071092EF071092F2071092D6
:10418000F1071092EE071092ED078093F30710925B
:10419000E6071092CA031092C9031092CC03109242
:1041A000CB031092CE031092CF031092D003109243
:1041B000D1031092D20394E19093D30398E09093AB
:1041C000D40324E630E03093D6032093D503309314
:1041D000D8032093D7038093D9031092DA03109267
:1041E000DB031092DC031092DD031092DE031092C9
:1041F000DF031092E103E7E9F3E088E01182108227
:10420000138212828483858316823A9693E0E93C76
:10421000F907A1F7EDE8F2E0118210821382128211
:104220001086118612861386148615861686108AC5
:10423000118A128A739683E0E739F80769F70895BF
:10424000CDB7DEB7E097DEBFCDBF789483E084BD05
:1042500083E085BD81E080936E00E1E8F0E083E0DB
:104260008083E0E881E08083E1E983E08083E0E926
:1042700081E08083E1EC87E08083E3EC81E0808370
:10428000E0EC82E08083E2EC81E08083EAE787E093
:1042900080838068808310922A0210920302109219
:1042A00002028091D70081608093D70080EA8093DA
:1042B000D80089B5806189BD89B5826089BD09B49E
:1042C00000FEFDCF81E090E00E945D118091D8005A
:1042D0008F7C80618093D8008091E000807F809304
:1042E000E0008091E1008E7E8093E1008DE080937C
:1042F000E200559A209A81EC80937C0081E785B991
:1043000087E684B985E38BB98FE38AB9769A6E988C
:1043100080EF81BB10BA80E58CBD11E01DBD85E04A
:104320000E944C16599A85E00E944C165C98E2E374
:10433000F2E085910E945716EC33D9F75C9A81E838
:10434000809364001093650000E214E080E00E9416
:10435000571601501109D1F70E944F1687FF12C05E
:104360005C9885EA0E9457165C9A2E9858982D986A
:104370008091640080628093640081E083BF8895AF
:1043800013BEFCCF0E944F1682FF45C02D980E949D
:104390004F1684788438D9F40E944A1688EC0E941B
:1043A0004C16589882E090E00E9487338F3F29F0A6
:1043B0006FEF82E090E00E948F3384EF91E00E94E3
:1043C0005D11589A0E944F1684788438D9F30E9460
:1043D0004F1684718431D9F40E944A1688EC0E94E9
:1043E0004C162E9882E090E00E948733882329F0B3
:1043F00060E082E090E00E948F3384EF91E00E94C1
:104400005D112E9A0E944F1684718431D9F388EC85
:104410000E944C16B7CF0E944A1682E090E00E949C
:104420008733882309F46FC00E94621681E090E010
:104430000E9487338470F82E81E090E00E948733D9
:1044400081FF0CC0F1102E9801EF1FEF0E944F1654
:1044500086FF5CC02E9A589A0E944A1682E390E02A
:104460000E945D110E944F168111F8CF8091640067
:104470008E7F8093640080917A00806480937A00BC
:1044800080917A0086FDFCCF009178001091790030
:104490000E94F411AB01BC01C801B0E0A0E0DC0156
:1044A000992788278C019D01040F151F261F371F90
:1044B000C901B80120916400216020936400611556
:1044C00071058105910511F00E94493310921C027B
:1044D0009E01235F3F4F3EA32DA390910402809144
:1044E000FE07392F381B832F2091FF072223B9F1B4
:1044F000309300081092FF0780E090E0892B69F369
:104500000E940000E5CF0E945D1690CFFF2029F0A9
:104510000430110511F42E9A589881E00E94200F62
:1045200020E04CE352E0B80184E190E00E941816CC
:1045300080E00E94200F8FE00E944C160F5F1F4FFB
:104540000931110509F082CFFF2011F0589A2D98FA
:1045500080E991E00E945D110E944A167FCF209170
:10456000FD07321740F48F5F821730F681E083BF7A
:10457000889513BEC1CF81E08093FF079093FE071B
:10458000E9EFF7E0808191810196808391838091AA
:10459000FB078093FC070E944F168093FB07109146
:1045A0001C02123009F4C0C00E94580F193008F0E4
:1045B00042C0E12F110FFF0BE052FD4D0C94593515
:1045C000E9222B231B233624A62470251B23B73175
:1045D000DC3120E043E35FE070E060E080E290E007
:1045E0000E94181680911A0290911B0201969093D6
:1045F0001B0280931A02853B91057CF08DEA9EE0B8
:104600000E94D11210921B0210921A0281E0809334
:104610001C02809319020E94E11B80E20E94C20FDB
:10462000882349F08FEF9FEF90933A0280933902ED
:1046300081E08093180280911802882341F040E0C5
:1046400054E062EE73E08DE292E00E94711180E02E
:104650000E94200F51CF0E94771B80E80E94C20F5A
:10466000882341F00E9462160E94D41A8DEA9EE0CF
:104670000E94D11280E10E94C20F882321F00E9483
:104680005D160E94D41A20E04BE65DE070E060E029
:104690008CE290E00E94181620E049EE5CE070E0A9
:1046A00060E090E080E00E94181680910C02882360
:1046B00049F020E04FED5CE068E370E090E080E0DE
:1046C0000E94181681E790E09093F0078093EF071F
:1046D0009093EE078093ED078BE390E09093F207C1
:1046E0008093F1078CE391E00E94971A88E00E9482
:1046F000C20F882309F49FCF10921B0210921A0256
:1047000010921702109216021092150210921402C3
:1047100081E090E090931302809312020E94580F60
:1047200082E080931C0287CF00911A0210911B0235
:104730008091120290911302080F191F10931B020F
:1047400000931A0288E00E94C20F81113AC084E0EF
:104750000E94C20F811135C0053813400CF045C0CE
:1047600080911A0290911B029C0197FF02C02D5F5D
:104770003F4F3595279535952795F901223D310510
:1047800014F0E1EDF0E0EE52F44F6491837099275C
:10479000892B09F04DC0213D31050CF049C08091B5
:1047A0001402909115026A30B1F52BEF3FEF309370
:1047B0001702209316020596909315028093140217
:1047C00037C0043453E0150784F464E070E070935C
:1047D000130260931202C8010E944535081B190B91
:1047E00010931B0200931A02BBCF10921B0210926F
:1047F0001A020E94201210920E0210920F021092C2
:1048000010021092110283E080931C0285EA9CE062
:104810000E94D112A5CF20911602309117022B5F72
:104820003F4F2E373105ECF43093170220931602D8
:104830002091140230911502809116029091170276
:104840009093F0078093EF079093EE078093ED0726
:104850003093F2072093F10782EE97E00E94521303
:10486000EACE1092170210921602A5CF00911A02FA
:1048700010911B020F5F1F4F10931B0200931A022F
:1048800088E00E94C20F811103C00D3211408CF0EC
:1048900010921B0210921A0284E080931C02109264
:1048A000CA031092C90380E091E09093CC038093F7
:1048B000CB030AE210E01093F0070093EF07109388
:1048C000EE070093ED0788E090E09093F207809365
:1048D000F10780E491E00E94971A80E190E09093C4
:1048E000F0078093EF079093EE078093ED0780E247
:1048F00090E09093F2078093F1078AE491E00E94A0
:10490000971A1093F0070093EF071093EE070093A8
:10491000ED0785E290E09093F2078093F1078EE532
:1049200091E00E94971A8AE190E09093F0078093BB
:10493000EF079093EE078093ED071093F207009333
:10494000F10788E691E00E94971A75CE80911A02CD
:1049500090911B0201968D32A1E09A070CF04DC098
:1049600090931B0280931A0220E040ED5AE068E029
:1049700070E080E390E00E94E4158091C90390917B
:10498000CA039C0113E0359527951A95E1F721316B
:1049900031050CF079C006969093CA038093C90341
:1049A0006091CB037091CC03635071097093CC0379
:1049B0006093CB03B3E075956795BA95E1F72091C5
:1049C000E0034EE05AE0F3E095958795FA95E1F71C
:1049D0000E94E41580E290E09093F0078093EF0747
:1049E0009093EE078093ED0788E390E09093F207B1
:1049F0008093F10788E791E0A6CF10921B021092F6
:104A00001A0280E494E09093CA038093C9039093C0
:104A1000CC038093CB031092CD031092CE0310925F
:104A2000CF031092D0031092D1031092D20384E1ED
:104A30008093D30388E08093D40384E690E090933E
:104A4000D6038093D5039093D8038093D70381E056
:104A50008093D9031092DA031092DB031092DC03E7
:104A60001092DD031092DE031092DF031092E10337
:104A70008FEF80930D0284E080930C010E94151C3F
:104A800085E080931C0270CF21323105C4F421E00F
:104A90002093E00304969093CA038093C903609126
:104AA000CB037091CC03625071097093CC03609377
:104AB000CB03A3E075956795AA95E1F782CF2B33D9
:104AC00031050CF087CF22E02093E003029690930B
:104AD000CA038093C9036091CB037091CC03E9CFE3
:104AE00080910E0290910F02A0911002B0911102DC
:104AF0008F3FEFEF9E07AE07BE0759F00196A11D4D
:104B0000B11D80930E0290930F02A0931002B093F8
:104B100011028091190281110E94771BC090CB0372
:104B2000D090CC0373E0D594C7947A95E1F7F4E282
:104B3000CF1AD108E0900802F09009028091C903D1
:104B40009091CA03E3E095958795EA95E1F784543F
:104B500091098E199F090E948716E80EF91EF0929E
:104B60000902E092080200910A0210910B02C601AC
:104B7000801B910B0E948716080F191F10930B02C0
:104B800000930A02F7FE04C0109209021092080274
:104B90000E943C0F8F579109209108023091090221
:104BA0002817390744F00E943C0F805891099093D0
:104BB00009028093080217FF04C010920B021092A2
:104BC0000A020E944A0FCF9720910A0230910B02ED
:104BD0002817390744F00E944A0F80549109909396
:104BE0000B0280930A02E1EEFBE144916491E2EE54
:104BF000FBE1349124918091080290910902841B79
:104C0000910970E00E9445357B0177FF02C0F12CCD
:104C1000E12C80910A0290910B02831B9109622F73
:104C200070E00E9445354B0177FF02C0912C812C2A
:104C300087010E5E1F4F18A70FA380912B02909142
:104C40002C02FC01EB5CFE4E2491201711062CF483
:104C5000E4910E2F10E018A70FA38401065F1F4FE9
:104C60001AA709A7FC01EA5CFE4E84918017110681
:104C70002CF4E4910E2F10E01AA709A755245A949A
:104C80005E0C0FA118A5E016F1060CF0D8C01401B7
:104C90006E2C8E2D0E2C000C990B8C010F5F1F4F6C
:104CA0001CA70BA762E0462E450C09A51AA52016E5
:104CB00031060CF0BFC0E1EEFBE184918E9D9001C6
:104CC0008F9D300D11248091080290910902890175
:104CD000081B190B1EA70DA7E2EEFBE18491829D34
:104CE0009001839D300D112480910A0290910B0256
:104CF0008901081B190B18AB0FA7022D622D862DF9
:104D00000E94650F782E8D7FC22C022C000CDD08CE
:104D100081114FC011E0121444F46FEF620D862D23
:104D20000E94650F11E0781210E0A0902B02B09065
:104D30002C02F501EB5CFE4EE4912BA53CA5E2179D
:104D4000130609F014F41E5F06C0602F842D0E9424
:104D5000650F7816C1F3F501EA5CFE4EE4913FEF72
:104D6000C31AD30AEC151D0409F014F41C5F07C024
:104D700061E0600F862D0E94650F7816B9F3161456
:104D800014F0185F06C0602F852D0E94650F7816FD
:104D9000C1F3272D2295207F210F41EE5BE16FA506
:104DA00078A98DA59EA50E9418168FEF281A380A9B
:104DB0007CCF11E012144CF46FEF620D862D0E942F
:104DC000650F11E018160CF010E0A0902B02B090C7
:104DD0002C02F501EB5CFE4EE4914BA55CA5E417BB
:104DE000150609F014F41E5F06C0602F842D0E9482
:104DF000650F1816C4F3F501EA5CFE4EE4915FEF0F
:104E0000C51AD50AEC151D0409F014F41C5F07C07F
:104E100061E0600F862D0E94650F1816BCF3161412
:104E20000CF0AFCF602F852D0E94650F18160CF483
:104E3000A8CFAFCF9FEFE91AF90A539422CF809100
:104E4000CD0318161CF481508093CD030E944F1699
:104E500085FF05C081E08093DA038093DD030E9423
:104E60004F1686FF05C081E08093DA031092DD03C0
:104E70000E944F1683FF07C08091DF03811103C09A
:104E800081E08093DF0384E00E94C20F882339F021
:104E90008091D003811143C081E08093D0030E94B0
:104EA0004F1686FD11C00E944F1685FD0DC0109251
:104EB000DA038091D003811107C08091DD0388233C
:104EC00009F49EC01092E0038091D003813009F074
:104ED000B3C06091CB037091CC0383E07595679567
:104EE0008A95E1F76E5F7F4F8091C9039091CA0365
:104EF00023E0959587952A95E1F70E94211A811163
:104F000083C082E08093D0038091D3038195809306
:104F1000D2038091DD038111BFC087E0BEC0823023
:104F200009F0BDCFE090CB03F090CC0333E0F594D3
:104F3000E7943A95E1F70091C9031091CA0343E061
:104F4000159507954A95E1F75801A2E0AA0EB11C04
:104F50004701B5E08B0E911C5DE8C52E52E0D52EC1
:104F6000712C085F1F4FECE0EE0EF11CD6011A9673
:104F70008C918823C9F1872D0E94CB162D873E87FF
:104F80004F87588B698B7A8B86E0FE013D96DE0158
:104F90005F9601900D928A95E1F72D853E8589896E
:104FA000820F932F911DA816B906F4F4201731072C
:104FB000DCF42F8538898A89820F932F911D8816FA
:104FC000990694F42E153F057CF4F601878584310B
:104FD0005CF08091D30381958093D2038091DD03AF
:104FE00081110AC087E009C0F3E1CF0ED11C739490
:104FF0002EE07212BBCF53CF83E08093E0034FCFFC
:1050000084E08093E00360CF6091CB037091CC0388
:1050100013E0759567951A95E1F76E5F7F4F809164
:10502000C9039091CA0303E0959587950A95E1F726
:105030000E94C317811165CF8091D2038093D10361
:1050400018160CF084C110E28091D1036091CB035B
:105050007091CC03680F711D87FD7A95A3E075955B
:105060006795AA95E1F78091C9039091CA03B3E0CF
:1050700095958795BA95E1F70E94211A811110C084
:105080008091D10382300CF029C11092D20310928A
:10509000D1031092D00338C083E08093E003CCCFDB
:1050A0008091D1036091CB037091CC03680F711D87
:1050B00087FD7A95E3E075956795EA95E1F780912C
:1050C000C9039091CA03F3E095958795FA95E1F7A6
:1050D0000E94C3178111D4CF2091D1038091CB03BB
:1050E0009091CC03820F911D27FD9A959093CC034C
:1050F0008093CB038091D2038F5F81320CF0EBC0A1
:105100008093D2031092D1038091D10318160CF42E
:105110009BCF8091DA03882309F467C04091DD03B7
:105120008091D0032091C9033091CA03E091CB0351
:10513000F091CC031091D403823009F435C18091F1
:10514000F9079091FA0765E070E00E943135892BEC
:1051500009F02AC18091E0038F5F442309F462C102
:1051600083300CF01FC18093E003BF0193E075957D
:1051700067959A95E1F7812F110F990BA901481BAB
:10518000590BCA0103E0959587950A95E1F70E94AE
:10519000211A882351F16091CB037091CC03B3E0C5
:1051A00075956795BA95E1F72091D4038091C9036D
:1051B0009091CA03821B910927FD939513E0959561
:1051C00087951A95E1F70E94C31781110EC02091AF
:1051D000D4038091C9039091CA03821B910927FDD2
:1051E00093959093CA038093C903E090C903F0900C
:1051F000CA0343E0F594E7944A95E1F7370152E09A
:10520000650E711CC090CB03D090CC0353E0D594B5
:10521000C7945A95E1F756018FEFA81AB80A6DE8BE
:10522000262E62E0362E8101412C98E0E90EF11C19
:10523000A8E0CA0ED11CF8018285882309F410C1A8
:10524000842D0E94CB162D873E874F87588B698B04
:105250007A8B86E0FE013D96DE01599601900D9213
:105260008A95E1F72D853E858989820F932F911DBF
:10527000681679060CF0F4C02E153F050CF0F0C04E
:105280002F8538898A89820F932F911DA816B90618
:105290000CF0E6C02C153D050CF0E2C0D8011F96BD
:1052A0008C9182300CF011C277FECCC0F80146859B
:1052B000042E000C550B30E020E0C9018C5F9C4FA0
:1052C0004115510509F4A6C1FC018491280F311D37
:1052D00041505109F2CF1093D20314CF81508093E3
:1052E000D10312CF8091D1036091CB037091CC0395
:1052F000680F711D87FD7A9523E0759567952A954E
:10530000E1F78091C9039091CA0333E095958795A1
:105310003A95E1F70E94C317811135C02091D1035E
:105320008091CB039091CC03820F911D27FD9A951C
:105330009093CC038093CB038091D2038F5F8093B3
:10534000D2031092D1038091D10387FFE2CE8091E6
:10535000D1036091CB037091CC03680F711D87FD61
:105360007A9543E0759567954A95E1F78091C90371
:105370009091CA0353E0959587955A95E1F70E945D
:10538000211A8111AFCF8091D1038F3F24F48F5F19
:105390008093D103D8CF1092D2031092D1031092F0
:1053A000D003D1CF1092E003BF0183E075956795DC
:1053B0008A95E1F7812F110F990B4111DFCE820FF2
:1053C000931FA3E095958795AA95E1F70E94211A6E
:1053D000882309F40ACF6091CB037091CC03E3E0FA
:1053E00075956795EA95E1F72091D4038091C903FB
:1053F0009091CA03820F911D27FD9A95F3E0959530
:105400008795FA95E1F70E94C3178111EECE20919E
:10541000D4038091C9039091CA03820F911D27FD87
:105420009A95DFCE873064F48093E0038091E003A7
:10543000843014F00C94A33284E08093E003B4CF62
:1054400084E0F2CFB7FC32CF0E943C0F8E159F054F
:105450000CF42CCF0E944A0F8C159D050CF426CF1E
:105460000D5E1F4F4394EEE04E12E5CE8091E103B6
:1054700081508093E1039091DF03923021F418165C
:1054800014F01092DF038091DF03813009F043C0F4
:105490008AE08093E103E7E9F3E090E080E0268191
:1054A0002111CBC15091DD032091CB033091CC036E
:1054B0004091D9036AE0689FF001699FF00D1124C3
:1054C000E956FC4F6091C9037091CA03A3E075953A
:1054D0006795AA95E1F771836083B3E035952795C9
:1054E000BA95E1F72150310933832283552309F41A
:1054F000A2C121E027832AE0289FF001299FF00D17
:105500001124E956FC4F81E08683418784E080873F
:1055100082E08093DF0307E913E018A70FA33801A7
:10552000E4E05E2ED30116968C911697882309F439
:10553000C7C12D913C91119718968C911897082E00
:10554000000C990B17964C911797442309F47CC1D2
:10555000281B390B2D933C93D301ED90FC90470110
:10556000B2E08B0E911CF301C280D3805601F2E0B1
:10557000AF0EB11C0DE812E0412C26E0E20EF11C4A
:1055800036E0C30ED11CD8011A968C91882309F4F9
:1055900069C1842D0E94CB162D873E874F87588B7B
:1055A000698B7A8B86E0FE013D96DE0117960190AD
:1055B0000D928A95E1F72D853E858989820F932F7B
:1055C000911D881699060CF04DC12E153F050CF063
:1055D00049C12F8538898A89820F932F911DA8167A
:1055E000B9060CF03FC12C153D050CF03BC1F8018C
:1055F0008785823009F02EC18091DB03882309F46E
:1056000031C1D30119966C91842D0E94E51AF301E2
:10561000168228C1F901EB5FFC4F24912FA3512C76
:105620003FA1351509F41CCFFC013296E491AC0181
:105630004C5F5F4F4A01E23008F044C0FC013596F0
:10564000E4912091CE03E2133DC0E093CF03D80153
:105650001E962C912093CE03FC013396E491B0E486
:10566000EB9FF0011124F093CA03E093C903FA0100
:105670008491F0E48F9FC00111249093CC03809318
:10568000CB030E94151C8091C9039091CA0323E0AB
:10569000959587952A95E1F784549109909309028D
:1056A000809308028091CB039091CC0333E09595D1
:1056B00087953A95E1F7849790930B0280930A02BD
:1056C0000E94580F5394C401ABCF823009F4C8CE66
:1056D0008330E9F48EEE92E00E94D112D8011A963E
:1056E0001C928091D5039091D60305969093D60392
:1056F0008093D5032091D7033091D8032817390719
:105700000CF0AECE3093D6032093D503A9CE8430CF
:1057100009F4A6CE853001F58EEE92E00E94D112FA
:10572000F801128680910D028E7F80930D02809188
:10573000D5039091D6038C599F4F9093D6038093B5
:10574000D5038091D7039091D8038C599F4F9093A4
:10575000D8038093D70384CE863059F48EEE92E03E
:105760000E94D112D8011A961C9280910D028D7F51
:10577000DCCF873079F48EEE92E00E94D112F801EE
:10578000128680910D028B7F80930D02F1E0F093E1
:10579000DB0366CE883081F48EEE92E00E94D11257
:1057A000D8011A961C9280910D02877F80930D027A
:1057B00083E08093D90354CE893069F48EEE92E071
:1057C0000E94D112F801128680910D028F7E809383
:1057D0000D0285E0EECF8A3081F48EEE92E00E94D9
:1057E000D112D8011A961C9280910D028F7D809360
:1057F0000D02B1E0B093DC0333CE843121F482E0BA
:105800000E9431182DCE853111F483E0F9CF863115
:1058100011F484E0F5CF873111F485E0F1CF8831C0
:1058200011F488E0EDCF893111F480E0E9CF8A31BD
:1058300009F016CEF2CF17825ECE01963A968530E9
:10584000910509F02CCE64CE820F931FF301918352
:10585000808382CE843009F0AEC08091D90383303A
:105860000CF0CFCE0D5E1F4F4394FEE04F128BCE57
:10587000D30112960D911C9113972D913C91482DB7
:105880009C8A8B8A6A2DBE8AAD8A5F8A588E5C8913
:105890007E8984E094E00E945E18811102C0F301C9
:1058A0001682D3010D911C91119717FF02C0169615
:1058B0001C920E943C0F8017910714F4F30116828A
:1058C000FAE06F0E711C09EC601603E0700609F037
:1058D00029CE0DE812E0F12C53E0552EEE24E3948E
:1058E00062E0862E77EF472E99249A94D8011A9673
:1058F0008C911A97882309F4A2C31F968C911F9745
:10590000823009F05DC01B968C91882309F445C054
:10591000A090C903B090CA0343E0B594A7944A95F8
:10592000E1F7C090CB03D090CC038F2D0E94CB1613
:105930002D873E874F87588B698B7A8B86E0FE01D7
:105940003D96DE01119601900D928A95E1F72D8525
:105950003E858989820F932F911DA816B906D4F42C
:10596000B8E0AB0EB11C2A153B05A4F433E0D59486
:10597000C7943A95E1F72F8538898A89820F932F4A
:10598000911DC816D90634F4E8E0CE0ED11C2C15B2
:105990003D051CF0D8011B961C92F801C080D180F7
:1059A0000E943C0F08968C159D050CF041C3D80150
:1059B0001A961C9244C38451863008F053CF21CEEE
:1059C0009DEF980F913120F48F2D0E94A519E5CFFE
:1059D000843109F0B8C0F801D188D1103AC0809163
:1059E000F9079091FA076FE070E00E943135892B3A
:1059F00029F484858F5F823054F584878091CB03AE
:105A00009091CC0323E0959587952A95E1F7F801CD
:105A100022813381281739070CF0BFCF8091C90349
:105A20009091CA03B3E095958795BA95E1F72081E7
:105A30003181AC01495F5F4F421753070CF4ADCF82
:105A40000797281739070CF4A8CFE18AA6CF148648
:105A5000D5CFF1E0DF1218C01C968C928F2D0E94DA
:105A6000A519F801428153814F5F5F4F60817181B9
:105A70008F2D0E942219811190CFD80151968C92BE
:105A800051971D96DC9289CFB2E0DB1286CF8F2D25
:105A90000E94A5192091F9079091FA07822F6FE0D3
:105AA00070E00E943135892B39F4F80184858F5FCD
:105AB00085300CF046C0848720FD6FCFF8016081EF
:105AC00071818091C9039091CA03A3E09595879550
:105AD000AA95E1F7681779078CF4E586428153812E
