:020000040000FA
:100000000C9442070C946A070C946A070C946A07D4
:100010000C946A070C946A070C946A070C946A079C
:100020000C946A070C946A070C94451F0C94B41F37
:100030000C946A070C946A070C946A070C946A077C
:100040000C946A070C9488220C946A070C946A0733
:100050000C946A070C946A070C946A070C94E621C6
:100060000C946A070C946A070C946A070C946A074C
:100070000C946A070C946A070C946A070C946A073C
:100080000C9430220C946A070C946A070C946A074B
:100090000C946A070C946A070C946A070C946A071C
:1000A0000C946A070C946A070C946A070010F1E438
:1000B000FF0020E3D3E3D3C585FF00000000003E2E
:1000C0005B4F5B3E3E6B4F6B3E1C3E7C3E1C183CC8
:1000D0007E3C181C577D571C1C5E7F5E1C00183C24
:1000E0001800FFE7C3E7FF0018241800FFE7DBE76D
:1000F000FF30483A060E2629792926407F05050754
:10010000407F05253F5A3CE73C5A7F3E1C1C0808AF
:100110001C1C3E7F14227F22145F5F005F5F060974
:100120007F017F006689956A606060606094A2FFCD
:10013000A29408047E040810207E201008082A1CBF
:1001400008081C2A08081E101010100C1E0C1E0C8B
:1001500030383E3830060E3E0E060000000000002B
:10016000005F00000007000700147F147F14242A9A
:100170007F2A12231308646236495620500008076C
:100180000300001C2241000041221C002A1C7F1C8D
:100190002A08083E0808008070300008080808088F
:1001A000000060600020100804023E5149453E00F6
:1001B000427F400072494949462141494D33181454
:1001C000127F1027454545393C4A494931412111A3
:1001D00009073649494936464949291E0000140095
:1001E00000004034000000081422411414141414B8
:1001F000004122140802015909063E415D594E7C16
:100200001211127C7F494949363E414141227F41CA
:1002100041413E7F494949417F090909013E414128
:1002200051737F0808087F00417F41002040413F13
:10023000017F081422417F404040407F021C027F22
:100240007F0408107F3E4141413E7F090909063E77
:100250004151215E7F091929462649494932030146
:100260007F01033F4040403F1F2040201F3F403858
:10027000403F631408146303047804036159494D33
:1002800043007F4141410204081020004141417F69
:1002900004020102044040404040000307080020DF
:1002A000545478407F2844443838444444283844DF
:1002B00044287F385454541800087E090218A4A416
:1002C0009C787F0804047800447D40002040403D35
:1002D000007F1028440000417F40007C04780478AF
:1002E0007C080404783844444438FC182424181842
:1002F000242418FC7C08040408485454542404049E
:100300003F44243C4040207C1C2040201C3C40308A
:10031000403C44281028444C9090907C4464544CB9
:100320004400083641000000770000004136080014
:1003300002010204023C2623263C1EA1A161123ABE
:100340004040207A3854545559215555794121540B
:10035000547841215554784020545579400C1E5210
:1003600072123955555559395454545939555454B4
:10037000580000457C410002457D420001457C401B
:10038000F0292429F0F0282528F07C545545002038
:1003900054547C547C0A097F4932494949323248D5
:1003A000484832324A4848303A4141217A3A42403C
:1003B0002078009DA0A07D39444444393D40404010
:1003C0003D3C24FF2424487E4943662B2FFC2F2BE1
:1003D000FF0929F620C0887E090320545479410082
:1003E00000447D413048484A32384040227A007A01
:1003F0000A0A727D0D19317D2629292F28262929DF
:10040000292630484D402038080808080808080800
:10041000382F10C8ACBA2F102834FA00007B000027
:1004200008142A142222142A14089500220095AADE
:10043000005500AAAA55AA55AA000000FF001010F6
:1004400010FF00141414FF001010FF00FF1010F034
:1004500010F0141414FC001414F700FF0000FF0047
:10046000FF1414F404FC141417101F10101F101F95
:100470001414141F00101010F0000000001F1010C2
:1004800010101F10101010F010000000FF101010BE
:10049000101010101010FF10000000FF140000FFDB
:1004A00000FF00001F10170000FC04F414141710C4
:1004B000171414F404F40000FF00F71414141414B7
:1004C0001414F700F7141414171410101F101F142D
:1004D0001414F4141010F010F000001F101F00008E
:1004E000001F14000000FC140000F010F01010FFBA
:1004F00010FF141414FF141010101F00000000F05F
:1005000010FFFFFFFFFFF0F0F0F0F0FFFFFF000033
:10051000000000FFFF0F0F0F0F0F38444438447CDA
:100520002A2A3E147E02020606027E027E026355DD
:100530004941633844443C04407E201E2006027E2C
:10054000020299A5E7A5991C2A492A1C4C7201723E
:100550004C304A4D4D303048784830BC625A463DA8
:100560003E494949007E0101017E2A2A2A2A2A445D
:10057000445F444440514A444040444A5140000092
:10058000FF0103E080FF000008086B6B083612369D
:100590002436060F090F060000181800000010107E
:1005A000003040FF0101001F01011E00191D17123C
:1005B000003C3C3C3C000000000006011501260107
:1005C00037014A015D01720188019F01B801D20122
:1005D000EE010B022A024B026E029302BA02E402FF
:1005E00010033F037003A403DC03170455049704AE
:1005F000DD0427057505C80520067D06E0064907C8
:10060000B8072D08A9082D09B9094D0AEA0A900B67
:10061000400CFA0CC00D910E6F0F5A1053115B1263
:1006200072139A14D41520178018F519801B231DF6
:10063000DE1EB420A622B524E4263429A72B402EA2
:100640000031EA330037453ABC3D68414C456B49BF
:10065000C84D68524F57805C006210111213151676
:1006600017181A1C1D1F21232527292C2E3134373A
:100670003A3E4145494E52575C62686E757B838BAA
:10068000939CA5AFB9C4D0DCE9F7000000020009D3
:100690000F0000030401000C000000000000000037
:1006A000000000000000000000F0F89C8E878387A7
:1006B0008E9CF8F00000FEFF0303030303070EFC0B
:1006C000F80000FEFF0303030303070EFCF800001D
:1006D000FFFF00000000000000FFFF0000FEFF839E
:1006E00083838383C7EE7C380000F8FC0E07030386
:1006F00003070EFCF800003F7FE0C08080C0E07F71
:100700003FFFFF01010101010101FFFF0000FFFFA9
:100710000C0C0C0C1C3E77E3C100007FFFC0C0C076
:10072000C0C0E0703F1F00001F3F70E0C0C0C0E0CD
:10073000703F1F00007FFFC1C1C1C1C1E3773E1CF4
:1007400000001F3F70E0C0C0C0E0703F1F0000000D
:10075000000001FFFF01000000000000002400274E
:10076000002A002D0030008D14A1C881CFD9F102DC
:10077000AF1402130212021502070208020401015B
:10078000010201004F6666004F6E00536F756E6484
:100790003A2000536565643A202000008080404084
:1007A0004080802040F84020000000000000000051
:1007B000000000C080F080C00000C23E0202028241
:1007C000020202030181010101FF0000000000C0DC
:1007D0000E312045444524310E030000008000C046
:1007E0000080000000000000000003060818107FD1
:1007F000C0000000004040404040000000008778FA
:1008000010101C070000000000F88C868B838B867C
:100810008CF809090F010100000000000000000031
:1008200000000000000FF0808080808080000000C9
:10083000000000FF000000000000000000000000B9
:1008400003000000030000000000000000000000A2
:10085000000000000000000000000000001E010079
:10086000000001011F0101010100000000000080E3
:100870006010080C06020381416121E10101010FB2
:10088000060E0830C060202020202020202060405C
:10089000C08080C0202020C00000000000C0602078
:1008A000C0800080C04040404040C080C04040C048
:1008B0000000000080808080800E1A32E2C65C70EA
:1008C0000000000000000000000000000000000325
:1008D0000C102060C0800F1D38207867C0C0808059
:1008E000808080C0611F00008060202020E0000028
:1008F000000107FC00000007FC800080C07F0000B2
:1009000000FF0F1910180C040CF8000103FF600120
:100910000306F213111010302123FEA30101071C5E
:10092000FC860283C1414141C3060C1830C000005F
:1009300000F01808040F0A1E346C6838000000002C
:10094000000103060C18E00003060404060300007F
:100950008080E03F60404080808181818000000095
:1009600000FF0301794949494939000000FF70C07F
:1009700000040FF80000000000000007F88000806D
:10098000F8CF8083060C08080D0700000001FF0067
:1009900000010306040C081810101010101010109D
:1009A000101010180C0307040C080808080C0C1889
:1009B0001010111E00000000000000000102040CD5
:1009C0000C070102020202020101030E08090F07CF
:1009D00007040701000000000000000000030203FC
:1009E0000000000101010103020202030101017B79
:1009F000009300AF00DC002601B8014B021704553C
:100A0000049704DD0427052E084E0AB7079040001E
:100A1000E38000E3904000E38000E3903E038D809C
:100A2000903E00E38000E3903E00E38000E3903DD1
:100A3000038D80903E00E38000E3903E00E3800061
:100A4000E3903D038D80903D00E38000E3903D0006
:100A5000E38000E3903B038D80F0902F00558000F1
:100A600055902D00AA8000AA902F00AA80015490D2
:100A70003D00AA8000AA903D00AA80903D00AA8077
:100A8000903D00AA80903D00AA80903E00AA8090F0
:100A90003B015480F0902F00AA8000AA902F00AA5A
:100AA00080903600AA8000AA903600AA809032007A
:100AB000AA8000AA903200AA80903400AA8000AADE
:100AC000903400AA80903400AA8000AA903400AA32
:100AD0008000AAF0546F74616C002B446973742E0B
:100AE0000053636F726500FF80003FC3FC07F8008E
:100AF00080FFFFE04207FC0FF08083002042044C9F
:100B000008108083002442044C88108FF300244294
:100B1000644C88108903232042644C099089032384
:100B20002042644C09908903232042644C09F089D7
:100B3000132321C2644C390089132327C2040CF902
:100B4000008103232042040C090081032320420674
:100B50000C0900FFFFFFFFC3FDF7FF0000000000CE
:100B600000000000000020D1C1B1A3D1C1B1A1FF9C
:100B7000001021113121FF0010C1B1A191FF081017
:100B8000010100000001FE020202020202FE1F102B
:100B9000F010F010101FFEFEFEFEFEFEFEFE9F1F78
:100BA000FF1FFF1F1F9F0808010100000001003EFA
:100BB000E222E2223E0000BEFE3EFE3EBE000040BB
:100BC0004141515161617171FF0808010102010148
:100BD000011824EAA1A9F22418183CFEFFFFFE3CEC
:100BE00018484947482053434F5245004849474811
:100BF0002053434F52455300080B000202020000ED
:100C0000090400000102020000052400100105246F
:100C100001010104240206052406000107058103E1
:100C200010004009040100020A000000070502024A
:100C3000400000070583024000000403090412017C
:100C40000002EF020140412336800001010203014E
:100C500041726475696E6F204C4C430041424131D2
:100C600031303600101001010302000100000000C5
:100C700000805028060141E222140C0880407028B0
:100C80002512080E0601010000000000000000000F
:100C90000080D0E8FEFF7FFE3E1C0C0880407038CC
:100CA0003D1F0F0F070101000000000008080101AF
:100CB00002020F0184EC7C3F3F7CEC8484EC7C3F9F
:100CC0003F7CEC8408080101020201013C4281A939
:100CD000A1A9423C3C7EFFFFFFFF7E3C08080101CA
:100CE000020103014070CC43C24C70400038FE3F0B
:100CF000FF3E38000000FF00FF000000818181817D
:100D0000818181FFFF8181BF818181818181818199
:100D1000818181FFFF8181FD81818181FF81A581A9
:100D200081A581FFFF8185B5959D81FF00000000B1
:100D300000FF0000FFA9A9B9A9EFA9FFFFFFFFFF6E
:100D4000FFFFFFFF001400140014001440004000D7
:100D50004000548044804480448044004400440067
:100D600054004000400040004050A050A055A05109
:100D7000A0552000200020550241024102410255A9
:100D8000021002100295009000900010001515004E
:100D900010001000100015001000100015001000C9
:100DA00010001000150000000000AA008000AA003A
:100DB00000000004040404040404FC20202020F8A3
:100DC0000808080808E8283820203E2222E202020B
:100DD000FE2020202020E0000000C0404040784F4E
:100DE000C90909090F08080808F820202020F80878
:100DF000080CFC000000000000001F000000001FA5
:100E000000000000000F000000000000000F0000C4
:100E1000000000000000FF01010101FF00000000D0
:100E20003F000000000000000007000000003F003D
:100E300000001F0408020110408040102040804044
:100E40008008020401804020100201108010204020
:100E5000402000000000250028002B002E0031005B
:100E6000040404040403040502020202040302024F
:100E70000202060606060606040402020204040331
:100E80000100F32211241FBECFEFDAE0DEBFCDBF99
:100E900011E0A0E0B1E0E0E5F6E602C005900D92B9
:100EA000AE34B107D9F728E0AEE4B1E001C01D923D
:100EB000A831B207E1F717E0C2E4D7E004C02197F8
:100EC000FE010E943430C134D107C9F70E94822349
:100ED0000C9426330C9400004F925F926F927F9295
:100EE0008F929F92AF92BF92CF92DF92EF92FF923A
:100EF000CF93DF93EC014A015B0181E08093B20163
:100F0000712C612C60E072E18AE790E0A3019E0100
:100F10000E94BD2F69017A0181E0C81AD108E10859
:100F2000F10891E0C114D10481E0E806F10484F0F5
:100F300068E478EE81E090E0A3019E010E94BD2F5D
:100F400069017A0181E0C81AD108E108F10893E04B
:100F500080918100887F892B809381002FEF3FEF64
:100F6000A90181149104A104B10469F0DE01AA0F62
:100F7000BB1FA50194010E94DC2F28EE33E040E066
:100F800050E00E94EF2FD0928900C09288002093F9
:100F9000AE013093AF014093B0015093B101809105
:100FA0006F00826080936F00DF91CF91FF90EF9090
:100FB000DF90CF90BF90AF909F908F907F906F9079
:100FC0005F904F90089590E0E2E1F4E091119FEF7F
:100FD0008FEF91939193919391938150D0F70895CE
:100FE0002FB7F8948091A3019091A401A091A5013D
:100FF000B091A6012FBF8093FA039093FB03A093B7
:10100000FC03B093FD0308950F931F938FB7F894DB
:101010000091A3011091A4012091A5013091A60196
:101020008FBF4091FA035091FB036091FC037091D4
:10103000FD0348535F4F6F4F7F4F81E040175107CB
:101040006207730708F080E01F910F910895CF9316
:10105000DF9357FD19C0ECE3F3E030E020E0A0811E
:10106000B1816A177B07A9F5A281B3814A175B0793
:1010700081F595E0929FF001939FF00D1124E05CC3
:10108000FC4F9081911122C02091D2033091D30363
:1010900095E0929FF001939FF00D1124DF01AD5F69
:1010A000BD4FED01C75CDE4F79836883A55CBE4F01
:1010B0004D935C93E05CFC4F80832F5F3F4F2E315C
:1010C000310579F03093D3032093D203DF91CF9190
:1010D00008952F5F3F4F35962E31310509F0BFCF70
:1010E000D3CF1092D3031092D203F0CFEF92FF929E
:1010F0000F931F93CF93DF938C01EB01AB01BC01E6
:101100008BE00E94270878018FEFE81AF80AAE01F9
:10111000B7018CE00E942708CF5FD0E0C03160F4B7
:10112000AE01B8018FE00E942708AE01B70180E14F
:101130000E9427082196F2CFDF91CF911F910F9146
:10114000FF90EF900895CF92DF92EF92FF920F936E
:101150001F93CF93DF938C01EB016B018FEFC81AC4
:10116000D80AA601B8018DE00E94270878018FEF08
:10117000E81AF80AA601B7018EE00E942708AE011E
:10118000B8018FE00E942708AE01B70180E1DF912E
:10119000CF911F910F91FF90EF90DF90CF900C9423
:1011A0002708E1E0F0E00E94E608319728F0685156
:1011B0007C4F8F4F9F4FF9CFAB01FC010E94E60897
:1011C000641775078E079F07C8F30895ABE5B1E074
:1011D0002FB7F8947D918D919C9166B52FBFA89BF8
:1011E00005C06F3F18F47F5F8F4F9F4F22E0660F5F
:1011F000771F881F991F2A95D1F70895FC018091C8
:101200009201882311F13FB7F89482E08093E900BE
:101210002091F200822F90E01816190614F481E054
:1012200090E0882339F0289844E64093910140915A
:10123000F1004083222339F02091F200211103C0F4
:101240002BE62093E8003FBF08958FEF9FEF0895AE
:101250002FB7F89483E08093E9009091E800892FFC
:10126000807295FF04C09091F20080E4891B2FBF2B
:1012700008958091890181110DC082E080938501DC
:1012800084E080938601109288011092870181E0AA
:101290008093890185E891E008958F929F92AF92A3
:1012A000BF92CF92DF92EF92FF920F931F93CF9353
:1012B000DF936C017B018A0180910F01882309F47F
:1012C00058C080919201882309F453C08091840111
:1012D00080FF05C08091E00082608093E000E8011B
:1012E000B12C8AEFA82E93E0892E2AE3922E209724
:1012F00011F4BB20B9F10E942809811106C0AA94FB
:10130000AA20B9F10E94D108F2CF8C171D0611F066
:101310000CF08C2F9FB7F8948092E9002091E800A0
:1013200025FD02C09FBFE3CF282F30E0C21BD30BA7
:10133000F701815020F041914093F100FACFE20E85
:10134000F31EBB2021F09092E800B12CEBCF8091EE
:10135000E80085FDE7CF9092E800BB24B394209786
:1013600009F3F3CF5D9884E680938301101611068C
:101370003CF081E090E0F6019383828310E000E08E
:10138000C801DF91CF911F910F91FF90EF90DF90F7
:10139000CF90BF90AF909F908F900895CF93DF93A1
:1013A0001F92CDB7DEB76983DC01ED91FC9102801D
:1013B000F381E02D41E050E0BE016F5F7F4F099562
:1013C0000F90DF91CF91089583E08093E9008091A1
:1013D000F200882319F08AE38093E80008950E94C0
:1013E000280990E00895CF93DF931F92CDB7DEB721
:1013F000FC018485958597FD08C02FEF3FEF358769
:1014000024870F90DF91CF910895CE0101960E941D
:10141000FE08019719F4898190E0F3CF8FEF9FEFD9
:10142000F0CF0F931F93CF93DF931F92CDB7DEB70B
:101430008C01FC018485958597FF0BC0CE01019638
:101440000E94FE08019771F4898190E0F801958768
:101450008487F801848595850F90DF91CF911F9146
:101460000F9108958FEF9FEFF1CFFC018485958553
:1014700097FD0BC09FB7F89482E08093E9008091BC
:10148000F2009FBF90E0019608959FB7F89482E024
:101490008093E9008091F2009FBF90E00895409111
:1014A0007F015091800120917D0130917E01421792
:1014B0005307B4F49091E8009570E1F39091E8003F
:1014C00092FD19C08093F10080917F01909180017D
:1014D00001968F739927892B19F48EEF8093E8007A
:1014E00080917F019091800101969093800180937B
:1014F0007F0181E0089580E00895EF92FF920F93BD
:101500001F93CF93DF93F82E192FE62E042F81E03F
:10151000860F880F0E944F0A83E00E944F0ACF2D4A
:10152000D12FEC0EFD2EF11CCE15DF05B9F007FF13
:1015300013C0FE0184910E944F0A182F80E00E9480
:101540004F0A812321968111EFCFDF91CF911F9117
:101550000F91FF90EF9008958881EDCF81E0F5CF56
:10156000DF92EF92FF920F931F93CF93DF93D82ECA
:101570008A01EB017B01E40EF51ECE15DF0559F063
:10158000D7FE12C0FE0184910E944F0A219681115C
:10159000F4CF0FEF1FEFC801DF91CF911F910F9193
:1015A000FF90EF90DF9008958881EECF0F931F9307
:1015B000CF93DF931F92CDB7DEB782E0898342E4F9
:1015C00050E068EF7BE080E80E94B00A0E94390991
:1015D000DC0112960D911C910115110589F0D801BD
:1015E000ED91FC910280F381E02DBE016F5F7F4F92
:1015F000C801099597FD04C0F80100851185ECCF5D
:1016000089810F90DF91CF911F910F9108956150C3
:1016100030F02091F100FC0120830196F8CF28984A
:1016200084E68093910108950895EF92FF920F93BD
:101630001F93CF93DF938C017B01D0E0C0E0F701D3
:10164000EC0FFD1F6491662361F0D801ED91FC91D0
:101650000190F081E02DC8010995892B11F02196A8
:10166000EECFCE01DF91CF911F910F91FF90EF90C0
:101670000895AF92BF92CF92DF92EF92FF920F93B5
:101680001F93CF93DF936C017B018B01040F151F18
:10169000EB015E01AE18BF08C017D10759F0699180
:1016A000D601ED91FC910190F081E02DC6010995E4
:1016B000892B79F7C501DF91CF911F910F91FF9091
:1016C000EF90DF90CF90BF90AF900895282F30E03B
:1016D000F901E657F94F9491F901ED5CF14F8491CE
:1016E000205A314FF9012491222309F430C0992363
:1016F000E9F091509F30D0F4E92FF0E0EE57F44F2D
:101700000C943430B00BB40B910BA80BAC0B960BB4
:10171000960B960BB70BBD0BC10BC50BCB0B960BEA
:10172000CF0B909180009F7790938000E22FF0E0A4
:10173000EE0FFF1FEE5AF14FA591B4919FB7F894A9
:10174000EC91611132C080958E238C939FBF0895D8
:10175000909180009F7DE8CF90918000977FE4CFAB
:1017600094B59F7794BDE2CF94B59F7DFBCF9091C8
:1017700090009F7790939000D9CF909190009F7D9B
:10178000F9CF90919000977FF5CF9091C0009F770F
:101790009093C000CBCF9091C0009F7DF9CF9091E6
:1017A000C200977F9093C200C1CF8E2BCECFCF9334
:1017B000DF9390E0FC01ED5CF14F2491805A914F52
:1017C000FC0184918823C9F090E0880F991FFC01E7
:1017D000E75AF84FA591B491FC01EE5AF14FC5912B
:1017E000D49161110DC09FB7F8948C9120958223FC
:1017F0008C938881282328839FBFDF91CF91089500
:10180000623051F49FB7F8943C91822F80958323E6
:101810008C93E8812E2BEFCF8FB7F894EC912E2B81
:101820002C938FBFEACF1F93CF93DF93182FEB0139
:1018300061E00E94D70B209739F460E0812FDF919F
:10184000CF911F910C94660BCF3FD10511F461E04D
:10185000F5CFE12FF0E0E657F94FE491E150EF309A
:1018600008F07FC0F0E0E95CF34F0C943430460C94
:101870004E0C530C5D0C670CB10CB10CB10C710C1F
:101880007B0C850C8F0C9C0CB10CA40C84B580686F
:1018900084BDC7BDDF91CF911F91089584B580624B
:1018A00084BDC8BDF7CF80918000806880938000A0
:1018B000D0938900C0938800EDCF80918000806232
:1018C00080938000D0938B00C0938A00E3CF8091F7
:1018D0008000886080938000D0938D00C0938C003E
:1018E000D9CF80919000806880939000D093990028
:1018F000C0939800CFCF8091900080628093900039
:10190000D0939B00C0939A00C5CF809190008860CF
:1019100080939000D0939D00C0939C00BBCF80919A
:10192000C00080688093C0008091C0008F7B80934E
:10193000C000C093CF00AECF8091C0008062809382
:10194000C000C093D000A6CF8091C2008860809371
:10195000C2008091C2008B7F8093C200C093D200EE
:1019600099CFC038D1050CF072CF67CFAB01FC0125
:101970000E94E60841505109E109F10928F0685137
:101980007C4F8F4F9F4FF6CFAB01FC010E94E608C2
:10199000641775078E079F07C8F308958FB1809568
:1019A000807F669B88601C9B84600895E091610144
:1019B000F0916201908180916001809589238083FC
:1019C00008950F931F93CF93DF93182FD92FC0EB58
:1019D00000E10E94D60CCEBD0DB407FEFDCF0EBDBA
:1019E0000DB407FEFDCFE0916101F09162018081AD
:1019F00090916001892B8083E12FFD2FCF018058CA
:101A00009F4F21912EBD0DB407FEFDCF8E179F076E
:101A1000C1F7182FD92FCF5FC83BD9F6DF91CF91EF
:101A20001F910F910895CF92DF92EF92FF920F9343
:101A30001F93CF93E82FF0E0E158F14FC491E62FC8
:101A4000F0E0603398F5E65AF94FE4910E2F10E07C
:101A5000F12CE12C60E074E284EF90E0A7019801A2
:101A60000E94BD2F215031094109510991E02115F2
:101A7000310581E0480751056CF060E970ED83E0C5
:101A800090E0A70198010E94BD2F21503109410922
:101A9000510993E0C13089F0C330F9F0CF911F9123
:101AA0000F91FF90EF90DF90CF900895EE0FFF1F02
:101AB000E65AFA4F05911491CBCF80918100887F2F
:101AC000892B809381003093890020938800809136
:101AD0006F00826080936F00E1CF80919100887FDA
:101AE000892B809391003093990020939800109354
:101AF00058010093570181E0809356018091710055
:101B0000826080937100CACFE82FF0E0E158F14F76
:101B1000E491E13019F0E33089F0089580916F008D
:101B20008D7F80936F008091AA01E091AB01F091CD
:101B3000AC0190818095892380830895109256018D
:101B40008091A701E091A801F091A901F2CFCF9374
:101B5000DF939091AD01923081F0C82FE92FF0E032
:101B6000E158F14FD4919F5F9093AD0161E00E94E5
:101B7000D70BD13029F0D33049F1DF91CF910895BF
:101B80001092800010928100809181008860809383
:101B90008100809181008160809381008C2F90E092
:101BA000FC01E05AF14FE491F0E0EE0FFF1FEE5A16
:101BB000F14F259134913093AC012093AB018D5CB2
:101BC000914FFC0184918093AA01D7CF109290008D
:101BD0001092910080919100886080939100809193
:101BE00091008160809391008C2F90E0FC01E05A7D
:101BF000F14FE491F0E0EE0FFF1FEE5AF14F259107
:101C000034913093A9012093A8018D5C914FFC0180
:101C100084918093A7018091AD01882321F06CE32A
:101C200080E00E94130D80E0DF91CF910C94840D31
:101C3000E0916301F0916401BF016F5F7F4F70938A
:101C40006401609363012491922F907F822F8F70A3
:101C5000903819F40E94840DEBCF903981F43296BC
:101C6000F0936401E0936301FB0164919091AD01F5
:101C70008917F0F667FDDCCF0E94130DD9CF903E97
:101C800049F480916501909166019093640180937D
:101C90006301CECF903F19F410927301089597FD20
:101CA000C7CF3296F0936401E0936301FB01649126
:101CB000A0915701B0915801322F262F0E94113068
:101CC0006C507E4F8F4F9F4F28EE33E040E050E046
:101CD0000E94EF2F209352013093530140935401FF
:101CE000509355018091520190915301A09154015C
:101CF000B0915501892B8A2B8B2B61F481E090E008
:101D0000A0E0B0E08093520190935301A09354015E
:101D1000B093550108955F926F927F928F929F9238
:101D2000AF92BF92CF92DF92EF92FF920F931F93E9
:101D3000CF93DF9310E0F801E60FF71FF7FDBFC068
:101D4000603871050CF0BBC0FA01EE0DF11DF7FD16
:101D5000B6C0403451050CF0B2C0DA0157FF04C0E0
:101D6000AA27BB27A41BB50BA770BB27FA0157FDF9
:101D70003796D3E0F595E795DA95E1F757FF07C079
:101D8000319748E050E0EA01CA1BDB0BDE016E2C04
:101D9000669466946694712CDE2DD77019F04FEF1F
:101DA000641A740AAF01F695FE2FEE27F795E795B2
:101DB000E60FF71F8E0F9F1FE901640E751E28E0C6
:101DC00030E07901EA1AFB0A4615570509F477C095
:101DD0004830510509F473C04F3FEFEF5E070CF434
:101DE00063C030E020E04C01F0E88F0E911C20171A
:101DF00031070CF059C0F901E60FF71FE038F10583
:101E00000CF052C0F7FD35C04F3F540709F453C0E2
:101E10005C01A20EB31EF501D488F901EC0FFD1F81
:101E200055245394C51028C0E4910A2E01C0EE0F2A
:101E30000A94EAF7DE2AF501D48A1097D1F04730E8
:101E40005105B9F05401A20EB31EF501D488F90171
:101E5000EC0FFD1F55245394C5101AC0E491F0E017
:101E60000E2C02C0F595E7950A94E2F7DE2AF501FB
:101E7000D48A2F5F3F4FBBCFE491F0E00A2E02C01F
:101E8000EE0FFF1F0A94E2F7E095F095DE22D3CF24
:101E9000E491F0E00E2C02C0F595E7950A94E2F784
:101EA000E095F095DE22E3CF4F5F5F4F80589F4F64
:101EB000C00FD11F89CF109709F0C4CFDACFDF91BF
:101EC000CF911F910F91FF90EF90DF90CF90BF9037
:101ED000AF909F908F907F906F905F9008952F921A
:101EE0003F924F925F926F927F928F929F92AF92AA
:101EF000BF92CF92EF920F931F93CF93DF93CDB703
:101F0000DEB728970FB6F894DEBF0FBECDBF809125
:101F1000EF039091F0036CE070E00E9420307A8330
:101F200069838091EA0380FF0EC18091ED03909157
:101F3000EE0397FD0396959587959595879530E4E3
:101F4000A32EB12CB5010E9420304C0129813A8189
:101F5000245031093A83298366277727681B790B38
:101F6000CC24C39440E1E42E00E423EB3DE049811E
:101F70005A818091090290910A020E948B0EB5014C
:101F80006819790923EB3DE049815A818091090262
:101F900090910A020E948B0E60E870E0681979093E
:101FA00023EB3DE049815A818091090290910A0218
:101FB0000E948B0EA090ED03B090EE03B7FE03C01D
:101FC00057E0A50EB11CE3E0B594A794EA95E1F7BC
:101FD0003501F3E0660C771CFA95E1F78091ED038B
:101FE0009091EE0397FD079673E0959587957A9506
:101FF000E1F740968A159B050CF480C16091EF03D0
:102000007091F0037A83698377FF04C0695F7F4F23
:102010007A83698389819A8163E0959587956A952A
:10202000E1F798878F83C501B7FC0F9614E095956B
:1020300087951A95E1F763E070E00E9420309C01DB
:10204000C50160E170E00E942030880F991FEF8188
:10205000F88543E0EE0FFF1F4A95E1F7FA83E98325
:10206000512C412C55E0220F331F5A95E1F726528F
:102070003D4FA901480F591FBA016D5F7F4F7C8307
:102080006B83CA0102969E838D838091EF039091AA
:10209000F0039C0197FF02C0295F3F4FB3E03595E5
:1020A0002795BA95E1F7285F3F4FEF81F8852E1706
:1020B0003F070CF41CC1E131F1050CF087C03897E3
:1020C0000CF070C041E050E00F8002C0440F551F7B
:1020D0000A94E2F7ED81FE812081242309F472C085
:1020E00089809A80840C951CA401481B590B80910F
:1020F000ED039091EE03B301681B790BC12CA8E0AE
:10210000EA2E08E02CE33DE08091090290910A025A
:102110000E948B0E8091EF039091F003A401481B65
:10212000590B8091ED039091EE03B301681B790B7D
:10213000CC24C39424E33DE08091090290910A02EB
:102140000E948B0EA8C010E049815A81405F5F4F0A
:102150005A83498300E6A02EB12C212F30E08091D4
:10216000ED039091EE0397FD0396959587959595D0
:102170008795B5010E942030B901681B790BCC24EA
:10218000C394B8E1EB2E05E224E43DE049815A8195
:102190008091090290910A020E948B0E105A103E03
:1021A000E1F608CF4F8158854850510921E030E0D1
:1021B000B90102C0660F771F4A95E2F7AB01EB81C8
:1021C000FC818ACF2F81388537FD65C0ECE3F3E0D1
:1021D00030E020E040815181A416B50609F054C0DA
:1021E000428153816F8178856417750709F04CC06F
:1021F00045E0429FF001439FF00D1124E05CFC4F4D
:10220000E081E750EA3008F046C0F0E0E65FFE4EBD
:102210000C9434301411721114114B1154115911C2
:102220005E11631168116D11F4E28F2EFDE09F2E97
:1022300029803A80240C351CA101481B590B809140
:10224000ED039091EE03B301681B790BC12C88E07C
:10225000E82E08E02CE33DE08091090290910A020B
:102260000E948B0E8091EF039091F003A101481B17
:10227000590B8091ED039091EE03B301681B790B2C
:10228000CC24C394940158CF2F5F3F4F35962E3105
:10229000310509F09FCF8F819885019698878F83AC
:1022A00098E0490E511CF1CEE4E18E2EEDE09E2E19
:1022B000BFCF7CE0872E7DE0972EBACF64E0862EDC
:1022C0006DE0962EB5CF5CEF852E5CE0952EB0CFFD
:1022D00044EF842E4CE0942EABCF3CE2832E3DE0C5
:1022E000932EA6CF2CE1822E2DE0922EA1CFEFEFE0
:1022F000AE1ABE0AF8E06F0E711C70CE28960FB6AB
:10230000F894DEBF0FBECDBFDF91CF911F910F912B
:10231000EF90CF90BF90AF909F908F907F906F90F5
:102320005F904F903F902F90089560387105E8F4CA
:1023300040345105D0F4342F369536953695A0E8C3
:102340003A9FF0011124E60FF71FE80FF91F3489B7
:10235000CA018770992741E050E001C0440F8A9577
:10236000EAF7222319F0432B448B08954095432329
:10237000FBCF2F923F924F925F926F927F928F92FC
:102380009F92AF92BF92CF92DF92EF92FF920F9304
:102390001F93CF93DF9300D01F92CDB7DEB79B83FF
:1023A0008A837B016A0109838901061B170B17FFCA
:1023B00003C011950195110956018A819B81A81AC4
:1023C000B90AB7FE03C0B194A194B108A016B10632
:1023D0005CF49C2D8D2D6901292F382F9A818B81DA
:1023E000FB82EA82E92EF82E8A819B81C816D906E3
:1023F0005CF49E2D8F2D7901292F382F9A818B81A6
:10240000DB82CA82C92ED82E16018A819B81281AA6
:10241000390A29014E185F0857FE03C051944194B0
:102420005108310137FE03C09FEF691A790A75948C
:1024300067948FEFE216F3060CF481E0882E880F84
:1024400099088A819B81C816D906DCF02981AC01E4
:10245000B701A016B1061CF0A7016A817B818EEF3F
:1024600093E00E9495116418750877FE04C0E80C8B
:10247000F91C620C731C8A819B8101969B838A8361
:10248000E0CF0F900F900F90DF91CF911F910F91A0
:10249000FF90EF90DF90CF90BF90AF909F908F9084
:1024A0007F906F905F904F903F902F9008958F9204
:1024B0009F92AF92BF92DF92EF92FF920F931F9382
:1024C000CF93DF93D12CAD2CB12C8091E003909170
:1024D000E103A816B9060CF072C080900902909032
:1024E0000A02AA0CBB1C0091130210911402055F92
:1024F0001F4F0A191B098091EF039091F003081BED
:10250000190BC0911102D091120221968091ED0316
:102510009091EE03C81BD90B7E0126E0E20EF11C60
:10252000D7FF02C0D0E0C0E0C70121E8E216F10405
:1025300014F080E890E0C817D90744F421E0A8011E
:10254000BE01C4010E9495112196EECFE0900902D0
:10255000F0900A020091130210911402065F1F4FBF
:102560000A191B098091EF039091F003081B190BC6
:10257000C0911102D091120221968091ED039091A9
:10258000EE03C81BD90B5E0186E0A80EB11CD7FF75
:1025900002C0D0E0C0E0C50121E8A216B10414F0E9
:1025A00080E890E0C817D90744F421E0A801BE01F3
:1025B000C7010E9495112196EECFD39484CFDF916D
:1025C000CF911F910F91FF90EF90DF90BF90AF9050
:1025D0009F908F9008952F923F924F925F926F92AB
:1025E0007F928F929F92AF92BF92CF92DF92EF92A3
:1025F000FF920F931F93CF93DF93CDB7DEB72D9745
:102600000FB6F894DEBF0FBECDBF6A3069F5FC018E
:10261000EA5EFB4FDC01A85EBB4F2C9148E0249F93
:102620009001112440815181240F351F3183208373
:1026300014971D921C922D960FB6F894DEBF0FBE14
:10264000CDBFDF91CF911F910F91FF90EF90DF9061
:10265000CF90BF90AF909F908F907F906F905F9042
:102660004F903F902F9008956D3029F39D878C8770
:102670008C5E9B4F9A838983FC01808091802C859E
:102680003D85285E3B4F3C832B8330E883169104C5
:102690000CF071C0EC85FD85EA5EFB4F60807180B7
:1026A00040E4641671040CF066C0AB81BC814C90B0
:1026B00045E09401449E200D311D1124121613068D
:1026C0000CF059C0242C312C910153E0220F331F00
:1026D0005A95E1F7260D371D121613060CF04BC064
:1026E000649FB001112410E000E0FB01E654FF4FAD
:1026F000FB87EA87E0E0053029F0EA85FB85E00FFB
:10270000F11FE491530198E0592E2E2F30E03E83C3
:102710002D83E170EF83F12CE12CE414D8F4C40193
:102720008E0D9F1D99878887D12CC12CC41470F4FD
:10273000A6014A0D5B1D2F81688579858C859D8555
:102740000E9495119FEFC91AD90AF0CFAFEFEA1A8C
:10275000FA0AE3CFED81FE81F595E7955A94A20C34
:10276000B31C5110D2CF0F5F1F4F820C931C063049
:10277000110509F0BFCFEB81FC812081422F50E091
:10278000A981BA818D919C91B6E02B9F800D911DFE
:102790001124E981FA8191838083EC85FD85E75ED0
:1027A000FB4F2081222309F446CF6AEF6403900196
:1027B000659F300D112420583F4F281739070CF022
:1027C0003ACFAC85BD85ED91FC9111970190F081D8
:1027D000E02D6AE0CD012D960FB6F894DEBF0FBE56
:1027E000CDBFDF91CF911F910F91FF90EF90DF90C0
:1027F000CF90BF90AF909F908F907F906F905F90A1
:102800004F903F902F900994089590E080E00895B4
:10281000DC011496ED91FC911597E49116968D913B
:102820009C918E0F911D01970895EF92FF920F9347
:102830001F93CF93DF93EB0177FD2796F3E0D595B8
:10284000C795FA95E1F79A0157FF02C0295F3F4FFC
:10285000E3E035952795EA95E1F7FC0102811381C4
:10286000213131058CF577FF02C061587F4FCB01D4
:10287000880F892F881F990B63E070E00E94203039
:102880007C01CE0160E170E00E942030880F991F2A
:10289000F801E952FF4FA70165E0440F551F6A9503
:1028A000E1F7283031058CF561E070E0022E01C0BF
:1028B000660F0A94EAF7E40FF51FE80FF91F82810B
:1028C0008623C1F537FD34C0F801E75CFE4F90E088
:1028D00080E040815181C417D50729F54281538199
:1028E0002417350701F525E0289FF001299FF00DF9
:1028F0001124E00FF11FE35CFE4F8081DF91CF9147
:102900001F910F91FF90EF900895D901189761E002
:1029100070E001C0660FAA95EAF7E40FF51FE80F13
:10292000F91F8381CDCF019635968E31910589F6B9
:1029300080E0E4CF8FEFE2CFDC011496ED91FC91C3
:10294000319684910895CF93DF93FC01C085D185A2
:102950000E949C148C0F9D2F911D0197DF91CF91A8
:1029600008950F931F93CF93DF932091110230911D
:1029700012028217930714F420E018C0EB018C01B7
:102980008BE092E00E94081480179107ACF38091CD
:10299000130290911402C817D90774F38BE092E0E8
:1029A0000E94A31421E08C179D0734F3822FDF913E
:1029B000CF911F910F910895AF92BF92CF92DF9266
:1029C000EF92FF920F931F93CF93DF93EC01A62E0C
:1029D000F12CE12CB12CEC81FD81E491E695E6959A
:1029E000E695BE1608F04CC00885198581E0A8164A
:1029F00049F101501109CE80DF80B6016E0D7F1DB7
:102A0000A801CE010E941514882361F081E0DF91B6
:102A1000CF911F910F91FF90EF90DF90CF90BF90DB
:102A2000AF900895B6016E0D7F1D695F7F4FA801BD
:102A3000CE010E9415148111E9CFB39488E0E80E0D
:102A4000F11CC9CFCE010E949C14A801480F511D52
:102A50006E817F816E0D7F1DCE010E941514811144
:102A6000D5CF08851985CE010E949C14A801480F76
:102A7000511D6E817F816E0D7F1D695F7F4FD8CFA5
:102A800080E0C5CFCF93DF93EC0161E00E94DC14BE
:102A9000882321F028EF3FEF3D872C87DF91CF91EE
:102AA00008958F929F92AF92BF92CF92DF92EF9252
:102AB000FF920F931F93CF93DF93EC01862E08E0D4
:102AC00010E0912CCE010E949C14869586958695E7
:102AD000981608F049C082E0881639F0E3E08E16B7
:102AE00019F19394085F1F4FEDCFE884F984CE80ED
:102AF000DF80F1E0CF1AD108A801485051094E0DEE
:102B00005F1DB601CE010E94151481110BC0A801F2
:102B10004E0D5F1D41505109B601CE010E941514A2
:102B20008823F9F281E021C0C884D984AE80BF80B7
:102B3000EC80FD80F7016491A801485051094C0DCB
:102B40005D1D6A0D7B2D711DCE010E941514811132
:102B5000E9CFF7016491A8014C0D5D1D4150510969
:102B60006A0D7B2D711DD9CF80E0DF91CF911F9130
:102B70000F91FF90EF90DF90CF90BF90AF909F901C
:102B80008F900895EF92FF920F931F93CF93DF934F
:102B9000EC01EC81FD813496E4914C855D85E0FF8C
:102BA00015C02E813F818A859B85280F391F3F8361
:102BB0002E8388859985840F951F99878887DF9153
:102BC000CF911F910F91FF90EF900895452B69F4DD
:102BD00061E00E94DC14811108C08C859D858630DF
:102BE00091051CF401969D878C878C859D85181610
:102BF0001906FCF410E000E08C859D850817190784
:102C000084F461E0CE010E94DC14811108C0888543
:102C100099850196998788870F5F1F4FEDCF1D8695
:102C20001C868C859D85863091051CF401969D87B8
:102C30008C878C859D8597FFABC001969D878C877F
:102C400010E000E08C859D85801791070CF0A0C0F6
:102C500060E0CE010E94DC14882309F4C6C0EC8138
:102C6000FD813496E491E1FD91C0088519850150FC
:102C700011096E817F81A801CE010E9415148D304B
:102C800021F5CE010E940814A801BC01CE010E94CA
:102C900015148E30D1F48E819F81803491050CF40F
:102CA00075C0EA81FB81EF50FE4F85E69BE0918382
:102CB0008083EA81FB81E251FE4F84E08083EA81D8
:102CC000FB81E151FE4F1182108208851985015068
:102CD00011096E817F81A801CE010E941514F82E82
:102CE000CE010E940814A801BC01CE010E94151457
:102CF000182F27E0F21619F089E0F8121FC0888516
:102D00009985AC014150510957FF02C0495F5F4F9F
:102D1000F3E055954795FA95E1F76E817F8177FF4E
:102D200002C0695F7F4FE3E075956795EA95E1F72B
:102D30008A819B8189529F4F0E94EE18173011F0B3
:102D4000193021F50A811B8109521F4F8885998509
:102D50007C0121E0E21AF108F7FE04C07C0126E0C4
:102D6000E20EF11C63E0F594E7946A95E1F7CE0179
:102D70000E94081497FD0796BC0153E0759567956E
:102D80005A95E1F7A701C8010E94EE181D861C861E
:102D90008A859B851816190684F510E000E08A855F
:102DA0009B85081719074CF5CE010E940814EA818B
:102DB000FB81EB52FE4F208131812F5F3F4F3695D3
:102DC000322F22273795279582179307B4F463E0B3
:102DD000CE010E945115811110C08E819F810196F4
:102DE0009F838E830F5F1F4FDACF88859985019768
:102DF000998788870150110925CF8A859B8597FF80
:102E0000DECE10E000E08A859B85801791070CF0EC
:102E1000D6CEEA81FB81ED52FE4F8081918196955D
:102E2000982F8827979587952E813F818217930742
:102E30000CF0C5CE62E0CE010E9451158111BFCECB
:102E40008E819F8101979F838E8301501109DBCF73
:102E50000F931F93CF93DF93EC018C819D819C0195
:102E60002A5F3F4FF901449142FF67C0AA81BB81AD
:102E70001C96ED91FC911D97E4914E815F811E9609
:102E80006D917C911F97E60FF72FF11DE417F50761
:102E90005CF462E06A8BFC013596E491F0E0F19518
:102EA000E195F109FB87EA87FC016491460F511D0A
:102EB0001E966D917C91461757073CF443E04A8B70
:102EC0003596E491F0E0FB87EA87F901249123FF2E
:102ED0002DC06A89CE010E945115882319F0CE01B8
:102EE0000E9442158A89823071F46E817F8161501F
:102EF00071094FE750E0CE010E941514811103C003
:102F0000CE010E9442158A89833081F4CE010E944D
:102F10000814BC016F5F7F4F4FE750E0CE010E9465
:102F20001514811103C0CE010E944215CE01DF911C
:102F3000CF911F910F910C94C215249120FF0DC0C9
:102F40008A89823091F562E0CE010E945115882372
:102F500011F183E08A8B1B861A86EC81FD813696FF
:102F6000E491E1FFE3CF8A89823009F03BC0CE01D2
:102F70000E94A314AC014F5F5F4F6E817F8161504F
:102F80007109CE010E941514811122C083E08A8B41
:102F90001B861A86CBCFEC81FD813596E491F0E05B
:102FA000F195E195F109FB87EA878A898330A9F6D3
:102FB00063E0CE010E945115882311F082E0CACF50
:102FC000EC81FD813596E491F0E0FB87EA87C5CF7F
:102FD000EC81FD813596E491F0E0F195E195F10900
:102FE000FB87EA878A89833009F0A0CFCE010E944F
:102FF000A3148C01CE010E940814A8014F5F5F4FFB
:10300000BC016F5F7F4FCE010E941514811102C079
:1030100082E0BDCFEC81FD813596E491F0E0FB8745
:10302000EA8784CFAF92BF92CF92DF92EF92FF9266
:103030000F931F93CF93DF93CDB7DEB764970FB68F
:10304000F894DEBF0FBECDBFFC017C01CE0101961E
:1030500010E000E0D7019A96DC909A97D11051C009
:10306000A3E1A09FC001A19F900D1124DC015996FE
:10307000AE0FBF1FE80FF91F768F658F81E082A723
:1030800082E083A703E0440F551F0A95E1F71796E6
:103090005C934E93169783E0220F331F8A95E1F7D6
:1030A00019963C932E9318971B961C921E921A9772
:1030B0001D961C921E921C9750961C9250971F961C
:1030C0001C921E921E9764567C4041F48CEF9FEF39
:1030D00094A383A382E090E096A385A3CD01649698
:1030E0000FB6F894DEBF0FBECDBFDF91CF911F9119
:1030F0000F91FF90EF90DF90CF90BF90AF900C9426
:103100002817A684B7845F96CD90DC90D501AC19C2
:10311000BD096D01B7FD5EC0DC01CD92DC920F5F91
:103120001F4FB3E1EB0EF11C02960A30110509F0B6
:1031300091CF99818E010D5F1F4F81E0D12CD80175
:10314000ED90FD908D019E151F0414F49E2DD82E38
:103150008F5F8A30A1F783E1D89ED0011124CD0181
:1031600049968E0F9F1FEA0FFB1F768F658FA1E098
:10317000A2A7A2E0A3A7A3E0440F551FAA95E1F7D9
:10318000DC0117965C934E93169713E0220F331FC2
:103190001A95E1F719963C932E9318971B961C925B
:1031A0001E921A971D961C921E921C9750961C9266
:1031B00050971F961C921E921E9764567C4009F0F1
:1031C0008ECF2CEF3FEF34A323A322E030E036A3D1
:1031D00025A385CFD194C194D1089ECF2F923F9241
:1031E0004F925F926F927F928F929F92AF92BF9217
:1031F000CF92DF92EF92FF920F931F93CF93DF93C3
:103200008C017B016A01EC01CE59DF4F1C0188EF74
:10321000280E311C84E1482E512C9CEA692E90E046
:10322000792E21EBA22E20E0B22E4A01A1E08A1ACB
:103230009108888199818E159F0559F48A819B8117
:103240008C159D0531F48C818730D1F0893009F4DB
:1032500044C02596C215D30561F7DF91CF911F9128
:103260000F91FF90EF90DF90CF90BF90AF909F9025
:103270008F907F906F905F904F903F902F90089528
:10328000D801ED91FC911197ED51FE4F8081918114
:103290000196918380832D913C91F901ED51FE4F70
:1032A00080819181B2010E942030892B81F4329675
:1032B00080819181019691838083D801ED91FC9169
:1032C000EF50FE4FB182A082F8E0FC83C2CF2F50B6
:1032D0003E4FF90171826082F7CF9401A70169EC3A
:1032E0007BE0D8018D919C910E941218B8E0BC83BC
:1032F000B0CF0F931F93CF93DF938C010E949C1448
:10330000F801C481D581FE012491829F900111248E
:1033100083E0359527958A95E1F732964491319669
:10332000649170E0F801868597850E942030629F45
:10333000C001639F900D729F900D1124429FB001B8
:10334000439F700D1124860F971F08968C0F9D1FA9
:10335000DF91CF911F910F9108958F929F92AF921D
:10336000BF92CF92DF92EF920F93CF93DF93EC0156
:10337000EC81FD813796E491EE2329F1EA81FB810E
:10338000A680B7800E949C14E82EEC81FD810491F8
:10339000CE010E947919AA81BB81FD01E451FE4F43
:1033A0004885598520813181421B530BA651BE4F60
:1033B0006E817F812D913C91621B730BC12C9C010E
:1033C000C5010E948B0EEA81FB81A680B780CE01E9
:1033D0000E949C14E82EEC81FD810491CE010E9494
:1033E0009C148C809D80F401949133966491CA80E2
:1033F000DB80899FF001112483E0F595E7958A959C
:10340000E1F770E08E859F850E942030E69F900155
:10341000E79F300DF69F300D1124285F3F4F280D98
:10342000391DF601E451FE4F48855985808191810F
:10343000481B590B32976E817F8180819181681B77
:10344000790BCC24C394C5010E948B0E4E855F85F9
:103450004F5F5F4F8C819D81FC01329624910396D2
:10346000FC018491289FC0011124481759076CF46E
:103470005F874E87DF91CF910F91EF90DF90CF90D4
:10348000BF90AF909F908F9008951F861E86F2CFB9
:103490000F931F93CF93DF93C3E0D2E08AA58823D5
:1034A000C9F08E01075E1F4FC8010E9408142091C9
:1034B000ED033091EE03821B930B1816190654F49A
:1034C0008F8D98A1821B930B803891051CF4C80145
:1034D0000E94AD19639682E0C13CD807F9F6DF91EE
:1034E000CF911F910F9108958091F103813048F1A0
:1034F000833018F08530A8F008950E946F0F0E9465
:10350000481A8091F20380FD1CC08BE092E00E947B
:10351000AD198091E0039091E103892B91F00C9417
:1035200057128BE092E00E94AD198091E0039091D8
:10353000E103892B11F00E9457120E946F0F0C9427
:10354000481A0895EF92FF920F931F93CF93DF9342
:10355000DC0116962D913C9117977B01E21AF30A34
:10356000F7FE08C080E0DF91CF911F910F91FF908F
:10357000EF90089518968D919C911997EA01C81BB8
:10358000D90BD7FDEFCF1496ED91FC911597E491EF
:10359000EE151F043CF38D01CD010E949C148C1785
:1035A0001D0604F3C8010E947919D8011496ED9103
:1035B000FC912491AE0133E0559547953A95E1F79A
:1035C000249FF001259FF00D1124EE0EFF1E8E0D9D
:1035D0009F1DFC01849190E0C770DD2702C0959586
:1035E0008795CA95E2F78170BECF8F929F92AF9276
:1035F000BF92EF92FF920F931F93CF93DF93CDB7BC
:10360000DEB7A1970FB6F894DEBF0FBECDBF7C0129
:10361000FA01CB0119A2223008F42AE08E010F5DD5
:103620001F4F822E912CB12CA12CBF01A50194011A
:103630000E94EF2FF901CA016A3074F5605DD8016C
:103640006E938D01232B242B252B79F790E080E0BE
:10365000109789F0FD0101900020E9F73197AF0143
:103660004A1B5B0BD701ED91FC910280F381E02DA9
:10367000B801C7010995A1960FB6F894DEBF0FBE39
:10368000CDBFDF91CF911F910F91FF90EF90BF9031
:10369000AF909F908F900895695CD1CF43E951E03E
:1036A000FA0101900020E9F7AF014459514063E964
:1036B00071E08EEF93E00C94390B2F923F924F9272
:1036C0005F926F927F928F929F92AF92BF92CF92B2
:1036D000DF92EF92FF920F931F93CF93DF93CDB7BB
:1036E000DEB72B970FB6F894DEBF0FBECDBF7C01BF
:1036F0002091DA023091DB02F901E951FE4F60813D
:1037000071817A836983CB018E0D9F1D64E070E027
:103710000E942030280F391FF901ED50FE4F8081A3
:1037200029813A81829FB001839F700D11246E0D13
:103730007F1D072E000C880B990B61157105810503
:10374000910511F00E949E2FC70163E070E00E9476
:10375000203055E0880F991F5A95E1F7BC016D5F45
:103760007D4F7C836B8390E080E0FC01E752FF4F4C
:103770002B813C81E20FF31F10820196803291056C
:10378000A1F70E944F2F23E030E040E050E00E947C
:10379000BD2F635F7F4F8F4F9F4F6A87E091DA02A3
:1037A000F091DB02E951FE4F208120FD5DC138E040
:1037B0003B87670144E0CC0CDD1C4A95E1F73B8573
:1037C000232F30E03A832983E114F10461F42B853F
:1037D000222309F44BC169817A816F5F7F4F81E0B9
:1037E00090E00E94A30881E0098001C0880F0A943C
:1037F000EAF78F83312C212C10E000E069817A8177
:103800006B5F7F4F7987688789819A8102969E8353
:103810008D839B85992399F0F801EE0FFF1F298175
:103820003A812830310509F428C1E752FF4F6B81F6
:103830007C81E60FF71F80817F81872B8083211495
:10384000310409F068C12A85822F90E0F801EE0F5B
:10385000FF1FE652FF4F6B817C81E60FF71F40810F
:103860009C012850310961E070E002C0660F771FAB
:103870002A95E2F7462B01968031910589F740831E
:10388000E114F10409F44BC18091D8039091D9035C
:10389000E816F9060CF0ABC00E944F2F2AE030E08A
:1038A00040E050E00E94BD2F672B682B692B09F088
:1038B000EDC00E944F2F23E030E040E050E00E9436
:1038C000BD2FDC01CB010296A11DB11D1C017B8522
:1038D000772319F021E0221A31088091DE039091BC
:1038E000DF038C159D050CF082C00E944F2F28E04D
:1038F00030E040E050E00E94BD2F672B682B692B21
:10390000D1F40E944F2F24E130E040E050E00E94CB
:10391000BD2F6A3008F0D2C08A858250990B9C0175
:10392000A601400F511F6CED7CE08091DA0290916E
:10393000DB020E9412180E944F2F20E130E040E08D
:1039400050E00E94BD2F672B682B692B09F04FC0F8
:103950002114310409F04BC02A85822F90E068853C
:103960007985681779070CF042C00F30110509F40A
:103970003EC04C0173E0871A9108092C000CAA087C
:10398000BB0807974D805E80481659060CF42C0141
:10399000052C000C66087708481459046A047B0457
:1039A0008CF484189508A608B70841F00E944F2FA0
:1039B000A50194010E94BD2F4B015C01480C591CCC
:1039C0006A1C7B1C0E944F2F5601A00EB11E24E0E2
:1039D00030E040E050E00E94BD2FA201672B682B31
:1039E000692B09F095C0B50189E00E9427080F5F97
:1039F0001F4F0031110509F00CCF8091D803909131
:103A0000D903E816F90661F4C6010D962B85222329
:103A100009F488C069817A816F5F7F4F0E94A30893
:103A20008091DE039091DF038C159D0524F4D092E4
:103A3000DF03C092DE032B960FB6F894DEBF0FBEF5
:103A4000CDBFDF91CF911F910F91FF90EF90DF904D
:103A5000CF90BF90AF909F908F907F906F905F902E
:103A60004F903F902F9008951B86A3CE625071090E
:103A700081E090E00E947608B6CEE652FF4F8B813F
:103A80009C81E80FF91F80818160D8CE0E944F2F62
:103A900025E030E040E050E00E94BD2F672B682B0E
:103AA000692B09F01ACF0E944F2F3A853F3019F049
:103AB0003F5F3A8712CF6EE06A870FCF603150F4D4
:103AC0006A856250770B9B01A601400F511F64EC81
:103AD0007CE02BCF633178F479E0E716F1040CF445
:103AE0002ACF8A858250990B9C01A601400F511F55
:103AF0006CEA7CE01ACF99E0E916F1040CF41BCFD4
:103B000022E030E0A601400F511F64E67CE00DCFBB
:103B1000B50187E06ACF81E0281A310868CF312CDF
:103B2000212C65CF2A852250330BB9010E947608DB
:103B300077CF8091D8039091D9039695982F8827B5
:103B40009795879501972091DA033091DB0336959D
:103B5000322F222737952795215C3F4FE091D603DE
:103B6000F091D703DF01B695BA2FAA27B795A7958D
:103B70004091110250911202405451095093EE03AA
:103B80004093ED0360911302709114026850710923
:103B900026173707A4F17093F0036093EF0384179F
:103BA000950724F49093EE038093ED038091ED0349
:103BB0009091EE038A179B0724F4B093EE03A09331
:103BC000ED03A091DA02B091DB021E968D919C91DB
:103BD00097FF02C081589F4F880F892F881F990B2C
:103BE000019797FF02C090E080E0E817F90764F4BE
:103BF0009093D7038093D60302960C945D1B309369
:103C0000F0032093EF03CBCF08958F929F92AF9252
:103C1000BF92CF92DF92EF92FF9281E08093F10307
:103C20001092F5031092F4031092D3031092D20372
:103C30001092DD031092DC031092D7031092D6038A
:103C40001092DF031092DE03EEE3F3E084ED93E0E5
:103C50002FEF3FEF3183208335968E179F07D1F7E3
:103C600090E080E063E12FEF3FEFE091DA02F09126
:103C7000DB02689FA001699F500D1124E40FF51F1E
:103C800012A613A6168E158E30A3278F32A321A35A
:103C900014A213A216A215A210A617A211A601968D
:103CA0008A30910511F72091DA023091DB02F90197
:103CB000E951FE4FE080F180C70164E070E00E94AE
:103CC0002030280F391FF901ED50FE4F80818E9D65
:103CD000B0018F9D700D1124072E000C880B990BDD
:103CE000611571058105910511F00E949E2FE091EB
:103CF000DA02F091DB02E951FE4FC080D1800D2C39
:103D0000000CEE08FF08C114D104E104F10439F0FD
:103D10000E944F2FA70196010E94BD2F6B01C60183
:103D20000C96E091DA02F091DB02E951FE4FC0807F
:103D3000D1804C01092E000CAA08BB089C012C0D57
:103D40003D1D821793070CF04BC00D2C000CEE08A4
:103D5000FF08C114D104E104F10441F00E944F2F87
:103D6000A70196010E94BD2F6B017C01C80CD91CD4
:103D7000EA1CFB1C0D2C000CEE08FF088C149D04A3
:103D8000AE04BF048CF4C818D908EA08FB0841F057
:103D90000E944F2FA70196010E94BD2F6B017C014D
:103DA0008C0C9D1CAE1CBF1C9092D9038092D80332
:103DB00090E080E00E945D1B81E090E00E945D1B2E
:103DC00082E090E00E945D1B61E08BE092E00E9447
:103DD000DC14811107C08BE092E00E94C215F4CF81
:103DE0006401C8CFFF90EF90DF90CF90BF90AF906D
:103DF0009F908F900C94991DE0910902F0910A0216
:103E000090E0603127E272078CF4683E23E072078D
:103E1000ACF52AE030E06436710554F430E020E07F
:103E20006A3071052CF025E030E002C024E130E07A
:103E3000DF01AC5EBB4F40E650E0421B530B1196D6
:103E40005C934E9312968D939C93AB0170E060E06F
:103E50002AE0CF010E94F51A8091090290910A028E
:103E600044960E94E10C6AEF70E080E090E00E94CE
:103E7000B60C0E94CE0C8823E1F308952FE030E0C9
:103E8000D7CF0C94A72F0C94AF2F1F920F920FB681
:103E90000F9211248F939F938091E1009091E10004
:103EA000937F9093E10083FF0FC01092E90091E0AF
:103EB0009093EB001092EC0092E39093ED0010923F
:103EC000920198E09093F00082FF22C093E09093DB
:103ED000E9009091F200992319F09AE39093E80099
:103EE00090918301992341F0909183019150909397
:103EF0008301911101C05D9A90919101992341F044
:103F000090919101915090939101911101C0289A43
:103F100084FF18C08091E2008E7E81608093E20071
:103F20008091E1008F7E8093E100809184018E7EFC
:103F30008061809384019F918F910F900FBE0F90AD
:103F40001F90189580FFF7CF8091E2008E7E8061F0
:103F50008093E2008091E1008E7E8093E100809169
:103F600084018E7E8160E5CF1F920F920FB60F9273
:103F70001124CF92DF92EF92FF920F931F932F9312
:103F80003F934F935F936F937F938F939F93AF93E1
:103F9000BF93EF93FF93CF93DF93CDB7DEB76C97CB
:103FA000DEBFCDBF1092E9008091E80083FF25C0FD
:103FB00068E0CE0145960E94070B82EF8093E800EF
:103FC0008D8987FF39C09091E80090FFFCCF982F32
:103FD000907609F034C19E894F89588D2F89F88CCD
:103FE000911131C0803861F5809182018093F10098
:103FF0001092F1008EEF8093E8006C960FB6F89463
:10400000DEBF0FBECDBFDF91CF91FF91EF91BF918A
:10401000AF919F918F917F916F915F914F913F9160
:104020002F911F910F91FF90EF90DF90CF900F9005
:104030000FBE0F901F9018959EEF9093E800C7CF8A
:104040001092F100D5CF913059F48111D3CF413086
:10405000510581F6809182018D7F80938201CACFC4
:10406000933049F48111C6CF4130510519F6809142
:1040700082018260F2CF953041F48091E80080FFA8
:10408000FCCF20682093E300B5CF963009F0A9C09B
:104090000B8D1C8D22E01092E9001092800110928D
:1040A0007F01F2122EC010927E0110927D010E94BB
:1040B000D60A1F8299E09983FA8291E09E8390EA62
:1040C00098879AEF998720917F0130918001275F2F
:1040D0003F4F3C832B838D831092E9001092800127
:1040E00010927F0110937E0100937D0149E050E022
:1040F000BE016F5F7F4F80E00E94B00A0E94D60A27
:1041000079CF10937E0100937D010E943909DC0173
:1041100012960D911C910115110509F451C1D80198
:10412000ED91FC910480F581E02DBE016B5E7F4F27
:10413000C8010995009709F03EC1F8010085118575
:10414000EACFF3E0FF120EC08F89882309F440C044
:10415000823061F440E867E08CE59CE00E947D0AD3
:10416000811148CF81E28093EB0047CF813029F461
:1041700040E86BE080E59CE0F1CF833099F70E9446
:104180003909DC011296ED90FC908E010F5F1F4FF4
:104190006801E114F10479F0D701ED91FC910680FA
:1041A000F781E02DB801C7010995080F111DF7012E
:1041B000E084F184EECFD8011C92F601019000203A
:1041C000E9F73197BF016C197D0940E0C601C6CF00
:1041D0006AE37CE0FB01449150E080E80E94B00A71
:1041E00009CF973009F4BECF983021F481E0809355
:1041F000F10000CF993009F0FDCE837009F0B2CF05
:10420000E5E1F1E081E031E096E32191222371F0D4
:104210008093E9003093EB00DF0111972C912093FC
:10422000EC009093ED008F5F873079F78EE78093F5
:10423000EA001092EA008F8980939201DBCE8B8D89
:104240009C8D1092E9001092800110927F01909352
:104250007E0180937D01898D811192C08E899D8917
:10426000913A49F4813209F07DCF47E050E068E0AF
:1042700071E080E0B3CF913209F074CF833269F4FA
:104280008F89988DB0E0A0E08093040190930501A0
:10429000A0930601B0930701ADCE803269F48091FE
:1042A000E80082FFFCCF67E088E091E00E94070B06
:1042B0008BEF8093E8009ECE823209F09BCE8F89EF
:1042C00080930F01EEEFFFE7859194918B3F9C4D1A
:1042D00051F1E0E0F8E08091080190910901A0918E
:1042E0000A01B0910B01803B9440A105B105F1F4A6
:1042F00080910F0180FD1AC0EE3F8AE0F80789F532
:1043000087E797E7918380838091600080938101A4
:1043100088E19BE00FB6F894A895809360000FBEEB
:104320009093600067CEEEEFFAE0D5CF8081918167
:104330008737974709F05ECEA89580916000886125
:10434000809360008091810180936000EE3F2AE0BD
:10435000F20789F08091FE0A9091FF0A9183808391
:1043600049CE808191818737980751F29093FF0A57
:104370008093FE0AC5CF1092FF0A1092FE0A3ACE31
:104380000E943909DC0112960D911C91011511054D
:1043900009F4E8CED801ED91FC910190F081E02D77
:1043A000BE016B5E7F4FC8010995811123CEF801D4
:1043B00000851185EBCF181619060CF41BCED2CE52
:1043C000F1E0FF12BECE6EE37CE004CF0F920FB699
:1043D0008F939F93EF93FF9380915A018D5F8D3759
:1043E00008F08D5780935A01E3EAF1E080818E4F07
:1043F000808391819F4F918382818F4F82838381BC
:104400008F4F8383EBE5F1E080818F5F8083818133
:104410008F4F818382818F4F828383818F4F8383EC
:104420008FB18F6066991C9B88278F3681F48091AD
:104430005901981B963068F0E0E0F8E087E7808348
:10444000818388E180936000F0936000FFCF9093B8
:104450005901FF91EF919F918F910FBE0F90189589
:104460001F920F920FB60F9211242F933F934F93E9
:104470005F936F937F938F939F93AF93BF93EF93CC
:10448000FF9380915601882349F08091A701E09124
:10449000A801F091A90190818927808380917301FF
:1044A000882329F18091520190915301A0915401E8
:1044B000B0915501892B8A2B8B2BC9F08091520129
:1044C00090915301A0915401B09155010197A10918
:1044D000B1098093520190935301A0935401B0937A
:1044E0005501892B8A2B8B2B11F40E94180EFF91FA
:1044F000EF91BF91AF919F918F917F916F915F915C
:104500004F913F912F910F900FBE0F901F901895D4
:104510001F920F920FB60F9211248F939F93AF9318
:10452000BF93EF93FF938091B201882309F452C0A7
:104530008091AE019091AF01A091B001B091B10115
:10454000892B8A2B8B2BA1F19091AA01E091AB01D1
:10455000F091AC018081892780838091AE01909198
:10456000AF01A091B001B091B101181619061A0659
:104570001B069CF48091AE019091AF01A091B00117
:10458000B091B1010197A109B1098093AE01909357
:10459000AF01A093B001B093B101FF91EF91BF9132
:1045A000AF919F918F910F900FBE0F901F90189514
:1045B0001092B20180916F008D7F80936F00809187
:1045C000AA01E091AB01F091AC0190818095892323
:1045D0008083E3CF9091AA01E091AB01F091AC010F
:1045E00080818927F5CF1092B6011092B50188EE2F
:1045F00093E0A0E0B0E08093B7019093B801A0935E
:10460000B901B093BA018FE191E09093B401809326
:10461000B3018FEF9FEF9093C0018093BF01109281
:1046200001041092000487E391E09093FF038093CC
:10463000FE038CE38093040480E1809307041092CE
:1046400006041092050410920C0410920D041092AE
:104650000E0410920F04109210041092130810927E
:104660001208109215081092140881E08093160821
:1046700023E032E081E391E090930C0280930B02FF
:1046800081E391E090931D0280931C02909330028D
:1046900080932F029093430280934202909356029C
:1046A00080935502909369028093680290937C02F4
:1046B00080937B0290938F0280938E029093A2024C
:1046C0008093A1029093B5028093B4029093C802A4
:1046D0008093C7028EEF93E090930A0280930902C1
:1046E00030930E0220930D023093DB022093DA0206
:1046F000F901C901948F838F739622E0E13CF207A0
:10470000C9F7089500D01F92CDB7DEB7789483E043
:1047100084BD83E085BD81E080936E00E1E8F0E038
:1047200083E08083E0E881E08083E1E983E08083C7
:10473000E0E981E08083E1EC87E08083E3EC81E0E5
:104740008083E0EC82E08083E2EC81E08083EAE732
:1047500087E08083806880831092920110928201AA
:10476000109284018091D70081608093D70080EA05
:104770008093D80089B5806189BD89B5826089BD83
:1047800009B400FEFDCF0E94D1088091D8008F7C33
:1047900080618093D8008091E000807F8093E0006A
:1047A0008091E1008E7E8093E1008DE08093E200B5
:1047B000559A209A1FB7F89480915F01811127C004
:1047C000E1E7FEE08491E4E4FEE09491E82FF0E07C
:1047D000EE0FFF1FE75AF84FA591B491EC91E92332
:1047E00021F461E081E10E94660B61E081E10E94B9
:1047F000D70B8CB580618CBD8CB580648CBD61E0BD
:104800008FE00E94D70B61E080E10E94D70B80917E
:104810005F018F5F80935F011FBF01E717E0B80161
:10482000F80184916F5F7F4F0E5F1F4FFB01649112
:10483000882319F00E94D70BF2CF61E082E00E943A
:10484000660B61E070E080E090E00E94B60C60E0F2
:1048500082E00E94660B6AE070E080E090E00E94D7
:10486000B60C61E082E00E94660B81E69EE0FC01EE
:104870002491E22FF0E0EE0FFF1FEE5AF14F259149
:104880003491E4E3FEE02491FC018491E82FF0E010
:10489000EE0FFF1FEE5AF14FA591B4918C91E22FCC
:1048A000E095E823EC93E4E6FEE0E491F0E0EE0F1F
:1048B000FF1FEE5AF14F859194919093620180937E
:1048C0006101E7E3FEE0E491E09360018CB58C7F49
:1048D0008CBD8DB581608DBD0E94D60CE7E6F7E0FA
:1048E00084918EBD00000DB407FEFDCF8EB53196CC
:1048F00027E0E137F207A1F7E0916101F091620151
:10490000808190916001892B808380916400816017
:104910008093640080916400826080936400809141
:104920006400806880936400809164008064809358
:104930006400809165008160809365000E94CE0CC8
:1049400087FF1AC080E294E01EBC00000DB407FE91
:10495000FDCF2EB50197C1F770E060E08AE00E94BC
:10496000130C70E060E083E00E94130C70E060E0E4
:1049700089E00E94130CFFCF3EEEA32EBB24BA9415
:10498000B50169517F4F8AE00E94130C6FEF70E010
:1049900083E00E94130C6FEF70E089E00E94130C1B
:1049A0000E94E307CC24C39420E1E22E08E529EA23
:1049B00036E0A50164E170E08EEF93E00E948B0E7B
:1049C00082E194E00E94E10C6BE170E080E090E015
:1049D0000E94B60C30EFA31206C06AEF70E080E0D0
:1049E00090E00E94B60C8FEFA81AB80A99E1A916B8
:1049F000B10431F66EEE72E080E090E00E94B60CF9
:104A00006FEF70E08AE00E94130C6FEF70E083E0BC
:104A10000E94130C6FEF70E089E00E94130C85E098
:104A20000E94A70D86E00E94A70D1092730182E0FC
:104A300090E00E94411F882351F080916400877F9D
:104A40008093640080916500877F80936500109259
:104A50007C010E94F007FF24FA9411E080E3A82E65
:104A6000B12C98E3892E912C0E940408882359F1D7
:104A70000E94CE0C982F9C7009F078C0982F9076E9
:104A800029F09091030191279093030187FF06C0BD
:104A9000909100019F3F69F41093000184FF11C0C1
:104AA00080910001813049F4F09200010E94F007EA
:104AB0000AC09F5F90930001F1CF81508093000165
:104AC000F5CF8111F3CF0E94E307CC24C39400E219
:104AD000E02E00E62FE638E050E040E06EE070E0C7
:104AE0008EEF93E00E948B0E05E32BE937E04DE15A
:104AF00050E062E470E08EEF93E00E948B0E109223
:104B0000130810921208B0921508A092140863E9D5
:104B100077E08EEF93E00E94150B4091000150E08A
:104B200070E060E02AE08EEF93E00E94F51A1092A8
:104B300013081092120890921508809214086BE8DE
:104B400077E08EEF93E00E94150B8091030168E8F7
:104B500077E0811102C064E877E08EEF93E00E9475
:104B6000150B82E194E00E94E10C7ECF6091000180
:104B700070E090E080E0611571058105910511F00C
:104B80000E949E2F06EF13E00E944F2F2FEF30E080
:104B900040E050E00E94BD2FD8016D938D01B3E03D
:104BA0000A3F1B0789F71092E1031092E00310926D
:104BB000E3031092E2031092E5031092E4031092D3
:104BC000E7031092E60381E090E09093E90380937D
:104BD000E8039093EB038093EA0386EA9BE09093CB
:104BE000100280930F028AE090E09093120280936B
:104BF00011021092140210921302109216021092D7
:104C00001502109218021092170210921B021092B5
:104C10001A02109219020E94051E11E05090F10331
:104C2000552009F410C68FB7F894C090A301D09016
:104C3000A401E090A501F090A6018FBFC092780179
:104C4000D0927901E0927A01F0927B018091030188
:104C5000882309F479C080917301811119C00091F2
:104C60007C01083008F0A0C1E5E9FAE0F0936601A4
:104C7000E0936501F0936401E09363010E94180ED4
:104C8000109373010F5F003109F4A9C100937C01F7
:104C90008091F4039091F5030097E1F0AFEEB9E055
:104CA000B0937201A09371019093700180936F0192
:104CB0001092F5031092F403E2E0F0E0F0930201A9
:104CC000E093010110926B0110926C0110926D0142
:104CD00010926E0120916F01309170012115310504
:104CE00099F180916B0190916C01A0916D01B0914F
:104CF0006E01409167015091680160916901709166
:104D00006A01840F951FA61FB71FC816D906EA06A9
:104D1000FB06D0F0E0910101F0910201CF01019674
:104D20009093020180930101E20FF31F84918F3F62
:104D300009F058C11092700110926F012FEF3FEFF0
:104D400030930201209301018091740190917501CB
:104D5000A0917601B09177018196A11DB11D8C15AE
:104D60009D05AE05BF0508F059CFC0927401D092E1
:104D70007501E0927601F09277010E94E3070E94AC
:104D8000CE0C9091070282FF61C1911103C091E0A6
:104D9000909307029091080283FF5EC1911103C0B6
:104DA00091E0909308029091040287FF5BC19111FA
:104DB00003C091E0909304029091060284FF58C1D1
:104DC000911103C091E0909306029091030285FF38
:104DD00055C1911103C091E0909303029091050297
:104DE00086FF52C1911103C081E08093050260905B
:104DF000DA037090DB037694762C662477946794BC
:104E0000930121583F4F39018091080224E081111C
:104E100001C023E030910502409103028091150208
:104E2000909116024111E0C731113BC118161906C5
:104E30002CF401979093160280931502809115022D
:104E40009091160297FF05C00196909316028093E9
:104E5000150280910702882361F08BE092E00E94A6
:104E60004215882331F080E79BE09093F50380930F
:104E7000F40380910602882309F44CC0809111024A
:104E800090911202803491050CF444C000911302F9
:104E9000109114028BE092E00E949C14800F912FDD
:104EA000911DAC014F5F5F4F609111027091120232
:104EB0008BE092E00E9415148B3061F50091130293
:104EC000109114028BE092E00E949C14F82E8BE06B
:104ED00092E00E9408140F0D111DA8014F5F5F4F53
:104EE000BC018BE092E00E9415148C3099F4809103
:104EF0000D0290910E02FC01EF50FE4F25E63BE0C3
:104F000031832083339723E0208381519E4FDC013E
:104F10001D921C928091F1038330F1F40091F20311
:104F20001091F3038BE092E00E949C14801711060D
:104F300099F094F08091130290911402019690934D
:104F40001402809313028091F2039091F30301966F
:104F50009093F3038093F2038091F103843009F47A
:104F6000AFC08091F103823009F0DDC12091F203DE
:104F70003091F30380911302909114022A3131058C
:104F80000CF4C8C10197909314028093130280918E
:104F9000130290911402681679060CF0BDC11092AC
:104FA000F3031092F203ABC00C3058F42AE53AE058
:104FB000309366012093650130936401209363016F
:104FC0005DCE003108F05ECE8DE09AE090936601F0
:104FD0008093650190936401809363014FCE10929A
:104FE0007C0156CEF90144913196E491982F9F703F
:104FF00050E09E9F400D511D1124052E000C660BA4
:10500000770B409367015093680160936901709337
:105010006A0182958F70E82FF0E0E150F048EE0FC2
:10502000FF1F8091710190917201E80FF91F859126
:105030009491969587950E946C07C0926B01D092CF
:105040006C01E0926D01F0926E017ECE992309F41D
:10505000A1CE109207029ECE992309F4A4CE1092FD
:105060000802A1CE992309F4A7CE10920402A4CE7F
:10507000992309F4AACE10920602A7CE992309F427
:10508000ADCE10920302AACE992309F4B0CE1092AD
:105090000502ADCE5093160240931502332309F456
:1050A000D8CE8091150290911602019630E0281713
:1050B00039070CF0CACE3093160220931502C9CEE0
:1050C0000091F2031091F3038BE092E00E949C1494
:1050D0008017110609F00CF444CF809113029091CF
:1050E0001402019790931402809313028091F203AB
:1050F0009091F30301969093F3038093F20331ECC4
:10510000432E32E0532E03E012E047E7242E4BE01B
:10511000342EF80182A5882391F17801F9E1EF0E90
:10512000F11CC7010E942817D80191966D917C91BE
:105130009297661677060CF000C15E961C921E923E
:105140005D979A961C929A979B961C929B97EFEF6D
:10515000FFEF9096FC93EE935F979296FC93EE93FD
:10516000919794961C921E92939796961C921E92DB
:10517000959798961C921E92979799961C920D5E01
:105180001F4F4016510629F68091F103813081F4BA
:105190008091130290911402681679064CF482E013
:1051A0008093F10389E190E09093F3038093F203FD
:1051B0008091F103823009F04AC00091F20310910E
:1051C000F3030115110509F042C08091E8039091A5
:1051D000E90301979093E9038093E8030E94741A0E
:1051E0008091E8039091E903892B09F422C210927F
:1051F000E1031092E0038091EA0380FD02C008E51C
:1052000010E086EA9BE09093100280930F028AE000
:1052100090E0909312028093110210931402009375
:105220001302109216021092150210921802109298
:10523000170210921B0210921A02109219020E9479
:10524000051E68EC70E080E090E00E94B60C809152
:10525000F103813069F42091F2033091F3032115B9
:10526000310531F0215031093093F3032093F203DB
:1052700083508230E8F50091F2031091F3038BE044
:1052800092E00E949C148017110691F51092F3038E
:105290001092F203809111029091120297FD0796ED
:1052A000A3E095958795AA95E1F72091E4033091C5
:1052B000E503820F931F9093E5038093E4038091AD
:1052C000EA039091EB0301969093EB038093EA033A
:1052D0002AE030E0309312022093110280FFB0C226
:1052E00090E080E090931402809313020E94051EC8
:1052F0008091F10381110E94741A10921308109288
:105300001208109215081092140882E194E00E948D
:10531000E10C83CC029637CE215031093093F30350
:105320002093F203ECCE813009F0E9CE8BE092E0DD
:105330000E94C2150E94991DE2CE5F968D919C91AC
:105340000E94B114882309F44AC0F801878D90A106
:10535000C0901102D0901202C816D9060CF46C014C
:105360008BE092E00E9408145C01C7010E940814BF
:10537000A816B9060CF057C08BE092E00E94081402
:105380008C159D050CF4FBCED80191968D919C91C6
:10539000A0901302B0901402A816B9060CF45C0198
:1053A0008BE092E00E94A3144C01C7010E94A31459
:1053B00088169906D4F58BE092E00E94A3148A1512
:1053C0009B050CF490C0A501B6018BE092E00E9411
:1053D000A21A81112CC0BFEFAB1ABB0AE1CFD801D2
:1053E0009196CD90DC90C7010E940814B6010E94EE
:1053F000B1148111AACFC7010E94A314BC01F80106
:10540000878D90A10E94B11481119FCFC7010E9486
:10541000A3146C01C7010E940814B6010E94B114C4
:10542000811193CFACCEC701A9CFC701C6CFD80198
:105430005996ED91FC910190F081E02DA501B60106
:10544000C7010995882339F2D8015D968D919C9109
:10545000895C9B4009F059C0F801168E158E12A682
:1054600013A62FEF3FEF30A3278F32A321A314A25F
:1054700013A216A215A210A617A211A68091E203EC
:105480009091E3038C599F4F9093E3038093E20341
:105490008EEB9BE09093F5038093F40380910F02D1
:1054A00090911002865A9B4011F5809113029091C1
:1054B00014020897EEE7FBE0F0931002E0930F026E
:1054C0009093140280931302109216021092150208
:1054D000109218021092170210921B0210921A02D8
:1054E000109219024CCEBFEFCB1ADB0A39CF809154
:1054F000E0039091E103853091050CF040CE0196D8
:105500009093E1038093E0033ACE61E08BE092E078
:105510000E94DC14811142C0D8015E961C921E923A
:105520005D979A961C929A979B961C929B97EFEF89
:10553000FFEF9096FC93EE935F979296FC93EE9319
:10554000919794961C921E92939796961C921E92F7
:10555000959798961C921E92979799961C92809177
:10556000E2039091E30344969093E3038093E20374
:105570003092F5032092F40380910702882339F0DA
:1055800026EF3FEF3093180220931702F8CD8CEFEF
:105590009FEF9093180280931702F1CD8091F20350
:1055A0009091F303892B09F0EACD8091E00390916B
:1055B000E1031816190664F401979093E1038093B0
:1055C000E003EEE1F0E0F093F303E093F203D7CDD4
:1055D0008BE092E00E949C14883019F492E0909342
:1055E000F1038BE092E00E949C14893050F380918B
:1055F0001302909114020896A6EABBE0B093100241
:10560000A0930F029093140280931302109216023B
:1056100010921502109218021092170210921B029B
:1056200010921A02109219023092F5032092F4039C
:10563000C8CF809111029091120297FD079623E046
:10564000959587952A95E1F72091E4033091E5033C
:10565000820F931F9093E5038093E4031092F1036C
:10566000E0900902F0900A0200E110E021E048E039
:1056700050E0B801C7010E9495110F5F1F4F00371E
:105680001105A1F700E110E021E047E350E0B80187
:10569000C7010E9495110F5F1F4F00371105A1F739
:1056A00008E010E021E0A80160E170E0C7010E947D
:1056B00095110F5F1F4F08331105A1F708E010E0A7
:1056C00021E0A8016FE670E0C7010E9495110F5F0D
:1056D0001F4F08331105A1F7C0900902D0900A02AC
:1056E00001E110E089E0E82EF12C20E0A701B801EB
:1056F000C6010E949511FFEFEF1AFF0A27E3E21699
:10570000F10499F70F5F1F4F0F36110559F7A0905D
:105710000902B0900A021CE0C12ED12CF12CE12C20
:1057200000E8802E912C10E000E0F801B3E0F59540
:10573000E795BA95E1F7EE0DFF1DE951F54FE491BC
:10574000C80187709927D40102C0B595A7958A959D
:10575000E2F7CD01F0E0EA23F923EF2B41F021E05D
:10576000A601B801625E7F4FC5010E9495110F5FCF
:105770001F4F08341105C9F6B9E0EB0EF11CEFEF2D
:10578000CE1ADE0AFEE7EF16F10469F680910902EF
:1057900090910A02FC01EC5EFB4F0AE110E01183DC
:1057A000008332962DE130E03183208361EE7AE090
:1057B0000E94150B8091090290910A02FC01EC5E97
:1057C000FB4F24E130E031832083329625E230E044
:1057D000318320836AED7AE00E94150B80910902E3
:1057E00090910A02FC01EC5EFB4F1183008332961C
:1057F0002DE230E03183208364ED7AE00E94150BC6
:105800006091E2037091E3038DE10E94FC1E6091C0
:10581000E4037091E50385E20E94FC1E6091E203BF
:105820007091E3038091E4039091E503680F791F81
:105830007093E3036093E2038DE20E94FC1E07CDA8
:1058400088E590E04FCD10E08091AD01181728F465
:10585000812F0E94840D1F5FF7CF10927301E0909B
:10586000E203F090E303E114F10409F400C202E35F
:1058700010E0C8010E94411FD82EC80101960E9465
:10588000411F2FEFD21203C08F3F09F48BC19D2D12
:1058900021E0250D8E159F0508F09FC280E28983C7
:1058A0008A838B830E94F00710E050E1652E712CF3
:1058B0006AE4A62E61E0B62E74E1C72ED12CE8E48E
:1058C0002E2E312CF1E24F2EE12E012E000CFF087E
:1058D00037E0E30EF11C43E0EE0CFF1C4A95E1F7C4
:1058E000470186E0880E911C0E94E307709213081E
:1058F00060921208109215081092140861EE7BE075
:105900008EEF93E00E94150B8091E3038F938091BB
:10591000E2038F93BF92AF92A3E9B1E0BF93AF933D
:105920000E944E3028E530E030931308209312088F
:1059300010921508109214080E944E1B88E390E004
:105940009093130880931208D0921508C0921408FF
:1059500069818EEF93E00E94EB12A0E4B0E0B09377
:105960001308A0931208D0921508C09214086A81F7
:105970008EEF93E00E94EB123092130820921208EF
:10598000D0921508C09214086B818EEF93E00E94AC
:10599000EB1201E02BE130E04EE350E06BE170E010
:1059A00088E390E00E94B9112BE130E046E450E03A
:1059B0006BE170E080E490E00E94B9112BE130E0EF
:1059C0004EE450E06BE170E088E490E00E94B91191
:1059D00000E02CE130E048E550E06CE170E088E365
:1059E00090E00E94B91101E02CE130E0A4016CE1EB
:1059F00070E0C7010E94B91182E194E00E94E10CBD
:105A00000E9404080F900F900F900F900F900F902E
:105A1000882309F469CF0E94CE0C082F847279F094
:105A2000115008F4C2C080910301882341F04AEF6D
:105A300050E060E070E086E194E00E946C0706FFB1
:105A400010C01F5F133008F0B2C08091030188239B
:105A500041F04AEF50E060E070E086E194E00E949F
:105A60006C0704FF44C0E12E012E000CFF08E1E0AA
:105A7000F0E0EC0FFD1FEE0DFF1D908093949082DF
:105A800080910301882341F04AEF50E060E070E02C
:105A90008BE092E00E946C07B0E39B1208C080E2AA
:105AA000E1E0F0E0EC0FFD1FEE0DFF1D8083E1E073
:105AB000F0E0EC0FFD1FEE0DFF1D8081813211F42F
:105AC00021E42083E1E0F0E0EC0FFD1FEE0DFF1D6F
:105AD00080818B3511F430E33083E1E0F0E0EC0FAE
